{"contracts/Item.sol":{"Item":{"abi":[{"inputs":[{"internalType":"string","name":"_title","type":"string"},{"internalType":"string","name":"_description","type":"string"},{"internalType":"uint256","name":"_price","type":"uint256"},{"internalType":"string","name":"_image","type":"string"}],"name":"addItem","outputs":[],"stateMutability":"nonpayable","type":"function"},{"inputs":[],"name":"browseItems","outputs":[{"components":[{"internalType":"uint256","name":"itemId","type":"uint256"},{"internalType":"string","name":"title","type":"string"},{"internalType":"string","name":"description","type":"string"},{"internalType":"uint256","name":"price","type":"uint256"},{"internalType":"string","name":"image","type":"string"},{"internalType":"uint256","name":"createdAt","type":"uint256"},{"internalType":"address","name":"buyer","type":"address"},{"internalType":"bool","name":"hasBuyer","type":"bool"},{"internalType":"contract Escrow","name":"escrow","type":"address"},{"internalType":"address","name":"seller","type":"address"}],"internalType":"struct Item.ItemStruct[]","name":"","type":"tuple[]"}],"stateMutability":"view","type":"function"},{"inputs":[{"internalType":"uint256","name":"_itemId","type":"uint256"}],"name":"deleteItem","outputs":[],"stateMutability":"nonpayable","type":"function"},{"inputs":[{"internalType":"uint256","name":"_itemId","type":"uint256"},{"internalType":"string","name":"_title","type":"string"},{"internalType":"string","name":"_description","type":"string"},{"internalType":"uint256","name":"_price","type":"uint256"},{"internalType":"string","name":"_image","type":"string"}],"name":"editItem","outputs":[],"stateMutability":"nonpayable","type":"function"},{"inputs":[],"name":"itemsCount","outputs":[{"internalType":"uint256","name":"","type":"uint256"}],"stateMutability":"view","type":"function"},{"inputs":[{"internalType":"uint256","name":"_itemId","type":"uint256"},{"internalType":"address","name":"_seller","type":"address"}],"name":"purchaseItem","outputs":[],"stateMutability":"payable","type":"function"},{"inputs":[],"name":"retrieveUserItems","outputs":[{"components":[{"internalType":"uint256","name":"itemId","type":"uint256"},{"internalType":"string","name":"title","type":"string"},{"internalType":"string","name":"description","type":"string"},{"internalType":"uint256","name":"price","type":"uint256"},{"internalType":"string","name":"image","type":"string"},{"internalType":"uint256","name":"createdAt","type":"uint256"},{"internalType":"address","name":"buyer","type":"address"},{"internalType":"bool","name":"hasBuyer","type":"bool"},{"internalType":"contract Escrow","name":"escrow","type":"address"},{"internalType":"address","name":"seller","type":"address"}],"internalType":"struct Item.ItemStruct[]","name":"","type":"tuple[]"}],"stateMutability":"view","type":"function"}],"devdoc":{"kind":"dev","methods":{},"version":1},"evm":{"bytecode":{"linkReferences":{},"object":"608060405234801561001057600080fd5b50613832806100206000396000f3fe6080604052600436106200007a5760003560e01c80637bfe9efd11620000555780637bfe9efd14620001095780639ab7e23b1462000129578063dbc376701462000159578063e2c03ace1462000189576200007a565b80630461459a146200007f57806313df81d614620000ad578063654fc83314620000db575b600080fd5b3480156200008c57600080fd5b50620000ab6004803603810190620000a5919062001fcb565b620001b9565b005b348015620000ba57600080fd5b50620000d96004803603810190620000d39190620020b0565b6200043e565b005b348015620000e857600080fd5b506200010760048036038101906200010191906200217f565b620007a2565b005b62000127600480360381019062000121919062002216565b62000c67565b005b3480156200013657600080fd5b5062000141620010d4565b6040516200015091906200255c565b60405180910390f35b3480156200016657600080fd5b50620001716200147b565b6040516200018091906200255c565b60405180910390f35b3480156200019657600080fd5b50620001a162001b70565b604051620001b0919062002591565b60405180910390f35b600085118015620001cc57506001548511155b6200020e576040517f08c379a000000000000000000000000000000000000000000000000000000000815260040162000205906200260f565b60405180910390fd5b60008060003373ffffffffffffffffffffffffffffffffffffffff1673ffffffffffffffffffffffffffffffffffffffff16815260200190815260200160002090506000805b8280549050811015620003f1578783828154811062000278576200027762002631565b5b90600052602060002090600902016000015403620003e35760019150828181548110620002aa57620002a962002631565b5b906000526020600020906009020160060160149054906101000a900460ff16156200030c576040517f08c379a00000000000000000000000000000000000000000000000000000000081526004016200030390620026b0565b60405180910390fd5b8683828154811062000323576200032262002631565b5b90600052602060002090600902016001019081620003429190620028fe565b50858382815481106200035a576200035962002631565b5b90600052602060002090600902016002019081620003799190620028fe565b508483828154811062000391576200039062002631565b5b90600052602060002090600902016003018190555083838281548110620003bd57620003bc62002631565b5b90600052602060002090600902016004019081620003dc9190620028fe565b50620003f1565b808060010191505062000254565b508062000435576040517f08c379a00000000000000000000000000000000000000000000000000000000081526004016200042c9062002a35565b60405180910390fd5b50505050505050565b6200047f6040518060400160405280600c81526020017f50726963652069733a20257300000000000000000000000000000000000000008152508362001b76565b60008060003373ffffffffffffffffffffffffffffffffffffffff1673ffffffffffffffffffffffffffffffffffffffff16815260200190815260200160002080549050036200052d576002339080600181540180825580915050600190039060005260206000200160009091909190916101000a81548173ffffffffffffffffffffffffffffffffffffffff021916908373ffffffffffffffffffffffffffffffffffffffff1602179055505b60016000815480929190620005429062002a86565b91905055506000803373ffffffffffffffffffffffffffffffffffffffff1673ffffffffffffffffffffffffffffffffffffffff1681526020019081526020016000206040518061014001604052806001548152602001868152602001858152602001848152602001838152602001428152602001600073ffffffffffffffffffffffffffffffffffffffff168152602001600015158152602001600073ffffffffffffffffffffffffffffffffffffffff1681526020013373ffffffffffffffffffffffffffffffffffffffff1681525090806001815401808255809150506001900390600052602060002090600902016000909190919091506000820151816000015560208201518160010190816200065e9190620028fe565b506040820151816002019081620006769190620028fe565b50606082015181600301556080820151816004019081620006989190620028fe565b5060a0820151816005015560c08201518160060160006101000a81548173ffffffffffffffffffffffffffffffffffffffff021916908373ffffffffffffffffffffffffffffffffffffffff16021790555060e08201518160060160146101000a81548160ff0219169083151502179055506101008201518160070160006101000a81548173ffffffffffffffffffffffffffffffffffffffff021916908373ffffffffffffffffffffffffffffffffffffffff1602179055506101208201518160080160006101000a81548173ffffffffffffffffffffffffffffffffffffffff021916908373ffffffffffffffffffffffffffffffffffffffff160217905550505050505050565b60008060003373ffffffffffffffffffffffffffffffffffffffff1673ffffffffffffffffffffffffffffffffffffffff168152602001908152602001600020905060008080600090505b8380549050811015620008bc578484828154811062000811576200081062002631565b5b90600052602060002090600902016000015403620008ae578381815481106200083f576200083e62002631565b5b906000526020600020906009020160060160149054906101000a900460ff1615620008a1576040517f08c379a00000000000000000000000000000000000000000000000000000000081526004016200089890620026b0565b60405180910390fd5b60019250809150620008bc565b8080600101915050620007ed565b508162000900576040517f08c379a0000000000000000000000000000000000000000000000000000000008152600401620008f79062002b23565b60405180910390fd5b60006001848054905062000915919062002b45565b905080821462000b5c5783818154811062000935576200093462002631565b5b906000526020600020906009020184838154811062000959576200095862002631565b5b9060005260206000209060090201600082015481600001556001820181600101908162000987919062002b98565b50600282018160020190816200099e919062002b98565b506003820154816003015560048201816004019081620009bf919062002b98565b50600582015481600501556006820160009054906101000a900473ffffffffffffffffffffffffffffffffffffffff168160060160006101000a81548173ffffffffffffffffffffffffffffffffffffffff021916908373ffffffffffffffffffffffffffffffffffffffff1602179055506006820160149054906101000a900460ff168160060160146101000a81548160ff0219169083151502179055506007820160009054906101000a900473ffffffffffffffffffffffffffffffffffffffff168160070160006101000a81548173ffffffffffffffffffffffffffffffffffffffff021916908373ffffffffffffffffffffffffffffffffffffffff1602179055506008820160009054906101000a900473ffffffffffffffffffffffffffffffffffffffff168160080160006101000a81548173ffffffffffffffffffffffffffffffffffffffff021916908373ffffffffffffffffffffffffffffffffffffffff1602179055509050508484838154811062000b465762000b4562002631565b5b9060005260206000209060090201600001819055505b8380548062000b705762000b6f62002c99565b5b600190038181906000526020600020906009020160008082016000905560018201600062000b9f919062001d04565b60028201600062000bb1919062001d04565b600382016000905560048201600062000bcb919062001d04565b60058201600090556006820160006101000a81549073ffffffffffffffffffffffffffffffffffffffff02191690556006820160146101000a81549060ff02191690556007820160006101000a81549073ffffffffffffffffffffffffffffffffffffffff02191690556008820160006101000a81549073ffffffffffffffffffffffffffffffffffffffff0219169055505090555050505050565b60008211801562000c7a57506001548211155b62000cbc576040517f08c379a000000000000000000000000000000000000000000000000000000000815260040162000cb3906200260f565b60405180910390fd5b60008060008373ffffffffffffffffffffffffffffffffffffffff1673ffffffffffffffffffffffffffffffffffffffff168152602001908152602001600020905060008080600090505b838054905081101562000d5e578584828154811062000d2b5762000d2a62002631565b5b9060005260206000209060090201600001540362000d50576001925080915062000d5e565b808060010191505062000d07565b508162000da2576040517f08c379a000000000000000000000000000000000000000000000000000000000815260040162000d999062002d18565b60405180910390fd5b82818154811062000db85762000db762002631565b5b906000526020600020906009020160060160149054906101000a900460ff161562000e1a576040517f08c379a000000000000000000000000000000000000000000000000000000000815260040162000e1190620026b0565b60405180910390fd5b82818154811062000e305762000e2f62002631565b5b906000526020600020906009020160030154341462000e86576040517f08c379a000000000000000000000000000000000000000000000000000000000815260040162000e7d9062002d8a565b60405180910390fd5b600034338660405162000e999062001d4a565b62000ea692919062002de2565b6040518091039082f090508015801562000ec4573d6000803e3d6000fd5b5090503384838154811062000ede5762000edd62002631565b5b906000526020600020906009020160060160006101000a81548173ffffffffffffffffffffffffffffffffffffffff021916908373ffffffffffffffffffffffffffffffffffffffff160217905550600184838154811062000f455762000f4462002631565b5b906000526020600020906009020160060160146101000a81548160ff0219169083151502179055508084838154811062000f845762000f8362002631565b5b906000526020600020906009020160070160006101000a81548173ffffffffffffffffffffffffffffffffffffffff021916908373ffffffffffffffffffffffffffffffffffffffff160217905550620010cc6040518060400160405280601881526020017f4974656d207075726368617365643a202573206279202573000000000000000081525085848154811062001023576200102262002631565b5b90600052602060002090600902016001018054620010419062002701565b80601f01602080910402602001604051908101604052809291908181526020018280546200106f9062002701565b8015620010c05780601f106200109457610100808354040283529160200191620010c0565b820191906000526020600020905b815481529060010190602001808311620010a257829003601f168201915b50505050503362001c16565b505050505050565b60606000803373ffffffffffffffffffffffffffffffffffffffff1673ffffffffffffffffffffffffffffffffffffffff168152602001908152602001600020805480602002602001604051908101604052809291908181526020016000905b828210156200147257838290600052602060002090600902016040518061014001604052908160008201548152602001600182018054620011759062002701565b80601f0160208091040260200160405190810160405280929190818152602001828054620011a39062002701565b8015620011f45780601f10620011c857610100808354040283529160200191620011f4565b820191906000526020600020905b815481529060010190602001808311620011d657829003601f168201915b505050505081526020016002820180546200120f9062002701565b80601f01602080910402602001604051908101604052809291908181526020018280546200123d9062002701565b80156200128e5780601f1062001262576101008083540402835291602001916200128e565b820191906000526020600020905b8154815290600101906020018083116200127057829003601f168201915b5050505050815260200160038201548152602001600482018054620012b39062002701565b80601f0160208091040260200160405190810160405280929190818152602001828054620012e19062002701565b8015620013325780601f10620013065761010080835404028352916020019162001332565b820191906000526020600020905b8154815290600101906020018083116200131457829003601f168201915b50505050508152602001600582015481526020016006820160009054906101000a900473ffffffffffffffffffffffffffffffffffffffff1673ffffffffffffffffffffffffffffffffffffffff1673ffffffffffffffffffffffffffffffffffffffff1681526020016006820160149054906101000a900460ff161515151581526020016007820160009054906101000a900473ffffffffffffffffffffffffffffffffffffffff1673ffffffffffffffffffffffffffffffffffffffff1673ffffffffffffffffffffffffffffffffffffffff1681526020016008820160009054906101000a900473ffffffffffffffffffffffffffffffffffffffff1673ffffffffffffffffffffffffffffffffffffffff1673ffffffffffffffffffffffffffffffffffffffff16815250508152602001906001019062001134565b50505050905090565b606060008060005b600280549050811015620015a7573373ffffffffffffffffffffffffffffffffffffffff1660028281548110620014bf57620014be62002631565b5b9060005260206000200160009054906101000a900473ffffffffffffffffffffffffffffffffffffffff1673ffffffffffffffffffffffffffffffffffffffff161462001599576000806002838154811062001520576200151f62002631565b5b9060005260206000200160009054906101000a900473ffffffffffffffffffffffffffffffffffffffff1673ffffffffffffffffffffffffffffffffffffffff1673ffffffffffffffffffffffffffffffffffffffff168152602001908152602001600020805490508362001596919062002e0f565b92505b808060010191505062001483565b5060008267ffffffffffffffff811115620015c757620015c662001e84565b5b6040519080825280602002602001820160405280156200160457816020015b620015f062001d58565b815260200190600190039081620015e65790505b50905060005b60028054905081101562001ae4573373ffffffffffffffffffffffffffffffffffffffff166002828154811062001646576200164562002631565b5b9060005260206000200160009054906101000a900473ffffffffffffffffffffffffffffffffffffffff1673ffffffffffffffffffffffffffffffffffffffff161462001ad657600080600060028481548110620016a957620016a862002631565b5b9060005260206000200160009054906101000a900473ffffffffffffffffffffffffffffffffffffffff1673ffffffffffffffffffffffffffffffffffffffff1673ffffffffffffffffffffffffffffffffffffffff168152602001908152602001600020905060005b818054905081101562001ad35781818154811062001736576200173562002631565b5b906000526020600020906009020160060160149054906101000a900460ff1662001ac55781818154811062001770576200176f62002631565b5b90600052602060002090600902016040518061014001604052908160008201548152602001600182018054620017a69062002701565b80601f0160208091040260200160405190810160405280929190818152602001828054620017d49062002701565b8015620018255780601f10620017f95761010080835404028352916020019162001825565b820191906000526020600020905b8154815290600101906020018083116200180757829003601f168201915b50505050508152602001600282018054620018409062002701565b80601f01602080910402602001604051908101604052809291908181526020018280546200186e9062002701565b8015620018bf5780601f106200189357610100808354040283529160200191620018bf565b820191906000526020600020905b815481529060010190602001808311620018a157829003601f168201915b5050505050815260200160038201548152602001600482018054620018e49062002701565b80601f0160208091040260200160405190810160405280929190818152602001828054620019129062002701565b8015620019635780601f10620019375761010080835404028352916020019162001963565b820191906000526020600020905b8154815290600101906020018083116200194557829003601f168201915b50505050508152602001600582015481526020016006820160009054906101000a900473ffffffffffffffffffffffffffffffffffffffff1673ffffffffffffffffffffffffffffffffffffffff1673ffffffffffffffffffffffffffffffffffffffff1681526020016006820160149054906101000a900460ff161515151581526020016007820160009054906101000a900473ffffffffffffffffffffffffffffffffffffffff1673ffffffffffffffffffffffffffffffffffffffff1673ffffffffffffffffffffffffffffffffffffffff1681526020016008820160009054906101000a900473ffffffffffffffffffffffffffffffffffffffff1673ffffffffffffffffffffffffffffffffffffffff1673ffffffffffffffffffffffffffffffffffffffff168152505084868151811062001aa95762001aa862002631565b5b6020026020010181905250848062001ac19062002a86565b9550505b808060010191505062001713565b50505b80806001019150506200160a565b5062001b266040518060400160405280600d81526020017f546f74616c204974656d733a20000000000000000000000000000000000000008152508462001b76565b62001b676040518060400160405280600f81526020017f43757272656e7420496e6465783a2000000000000000000000000000000000008152508362001b76565b80935050505090565b60015481565b62001c12828260405160240162001b8f92919062002e8b565b6040516020818303038152906040527fb60e72cc000000000000000000000000000000000000000000000000000000007bffffffffffffffffffffffffffffffffffffffffffffffffffffffff19166020820180517bffffffffffffffffffffffffffffffffffffffffffffffffffffffff838183161783525050505062001cb9565b5050565b62001cb483838360405160240162001c319392919062002ebf565b6040516020818303038152906040527f95ed0195000000000000000000000000000000000000000000000000000000007bffffffffffffffffffffffffffffffffffffffffffffffffffffffff19166020820180517bffffffffffffffffffffffffffffffffffffffffffffffffffffffff838183161783525050505062001cb9565b505050565b62001cd48162001ccc62001cd762001cf8565b63ffffffff16565b50565b60006a636f6e736f6c652e6c6f679050600080835160208501845afa505050565b62001def819050919050565b50805462001d129062002701565b6000825580601f1062001d26575062001d47565b601f01602090049060005260206000209081019062001d46919062001dfb565b5b50565b6108c38062002f3a83390190565b604051806101400160405280600081526020016060815260200160608152602001600081526020016060815260200160008152602001600073ffffffffffffffffffffffffffffffffffffffff168152602001600015158152602001600073ffffffffffffffffffffffffffffffffffffffff168152602001600073ffffffffffffffffffffffffffffffffffffffff1681525090565b62001df962002f0a565b565b5b8082111562001e1657600081600090555060010162001dfc565b5090565b6000604051905090565b600080fd5b600080fd5b6000819050919050565b62001e438162001e2e565b811462001e4f57600080fd5b50565b60008135905062001e638162001e38565b92915050565b600080fd5b600080fd5b6000601f19601f8301169050919050565b7f4e487b7100000000000000000000000000000000000000000000000000000000600052604160045260246000fd5b62001ebe8262001e73565b810181811067ffffffffffffffff8211171562001ee05762001edf62001e84565b5b80604052505050565b600062001ef562001e1a565b905062001f03828262001eb3565b919050565b600067ffffffffffffffff82111562001f265762001f2562001e84565b5b62001f318262001e73565b9050602081019050919050565b82818337600083830152505050565b600062001f6462001f5e8462001f08565b62001ee9565b90508281526020810184848401111562001f835762001f8262001e6e565b5b62001f9084828562001f3e565b509392505050565b600082601f83011262001fb05762001faf62001e69565b5b813562001fc284826020860162001f4d565b91505092915050565b600080600080600060a0868803121562001fea5762001fe962001e24565b5b600062001ffa8882890162001e52565b955050602086013567ffffffffffffffff8111156200201e576200201d62001e29565b5b6200202c8882890162001f98565b945050604086013567ffffffffffffffff81111562002050576200204f62001e29565b5b6200205e8882890162001f98565b9350506060620020718882890162001e52565b925050608086013567ffffffffffffffff81111562002095576200209462001e29565b5b620020a38882890162001f98565b9150509295509295909350565b60008060008060808587031215620020cd57620020cc62001e24565b5b600085013567ffffffffffffffff811115620020ee57620020ed62001e29565b5b620020fc8782880162001f98565b945050602085013567ffffffffffffffff81111562002120576200211f62001e29565b5b6200212e8782880162001f98565b9350506040620021418782880162001e52565b925050606085013567ffffffffffffffff81111562002165576200216462001e29565b5b620021738782880162001f98565b91505092959194509250565b60006020828403121562002198576200219762001e24565b5b6000620021a88482850162001e52565b91505092915050565b600073ffffffffffffffffffffffffffffffffffffffff82169050919050565b6000620021de82620021b1565b9050919050565b620021f081620021d1565b8114620021fc57600080fd5b50565b6000813590506200221081620021e5565b92915050565b6000806040838503121562002230576200222f62001e24565b5b6000620022408582860162001e52565b92505060206200225385828601620021ff565b9150509250929050565b600081519050919050565b600082825260208201905092915050565b6000819050602082019050919050565b620022948162001e2e565b82525050565b600081519050919050565b600082825260208201905092915050565b60005b83811015620022d6578082015181840152602081019050620022b9565b60008484015250505050565b6000620022ef826200229a565b620022fb8185620022a5565b93506200230d818560208601620022b6565b620023188162001e73565b840191505092915050565b6200232e81620021d1565b82525050565b60008115159050919050565b6200234b8162002334565b82525050565b6000819050919050565b60006200237c620023766200237084620021b1565b62002351565b620021b1565b9050919050565b600062002390826200235b565b9050919050565b6000620023a48262002383565b9050919050565b620023b68162002397565b82525050565b600061014083016000830151620023d7600086018262002289565b5060208301518482036020860152620023f18282620022e2565b915050604083015184820360408601526200240d8282620022e2565b915050606083015162002424606086018262002289565b50608083015184820360808601526200243e8282620022e2565b91505060a08301516200245560a086018262002289565b5060c08301516200246a60c086018262002323565b5060e08301516200247f60e086018262002340565b5061010083015162002496610100860182620023ab565b50610120830151620024ad61012086018262002323565b508091505092915050565b6000620024c68383620023bc565b905092915050565b6000602082019050919050565b6000620024e8826200225d565b620024f4818562002268565b935083602082028501620025088562002279565b8060005b858110156200254a5784840389528151620025288582620024b8565b94506200253583620024ce565b925060208a019950506001810190506200250c565b50829750879550505050505092915050565b60006020820190508181036000830152620025788184620024db565b905092915050565b6200258b8162001e2e565b82525050565b6000602082019050620025a8600083018462002580565b92915050565b600082825260208201905092915050565b7f496e76616c6964206974656d2049440000000000000000000000000000000000600082015250565b6000620025f7600f83620025ae565b91506200260482620025bf565b602082019050919050565b600060208201905081810360008301526200262a81620025e8565b9050919050565b7f4e487b7100000000000000000000000000000000000000000000000000000000600052603260045260246000fd5b7f4974656d20616c726561647920736f6c64000000000000000000000000000000600082015250565b600062002698601183620025ae565b9150620026a58262002660565b602082019050919050565b60006020820190508181036000830152620026cb8162002689565b9050919050565b7f4e487b7100000000000000000000000000000000000000000000000000000000600052602260045260246000fd5b600060028204905060018216806200271a57607f821691505b60208210810362002730576200272f620026d2565b5b50919050565b60008190508160005260206000209050919050565b60006020601f8301049050919050565b600082821b905092915050565b6000600883026200279a7fffffffffffffffffffffffffffffffffffffffffffffffffffffffffffffffff826200275b565b620027a686836200275b565b95508019841693508086168417925050509392505050565b6000620027df620027d9620027d38462001e2e565b62002351565b62001e2e565b9050919050565b6000819050919050565b620027fb83620027be565b620028136200280a82620027e6565b84845462002768565b825550505050565b600090565b6200282a6200281b565b62002837818484620027f0565b505050565b5b818110156200285f576200285360008262002820565b6001810190506200283d565b5050565b601f821115620028ae57620028788162002736565b62002883846200274b565b8101602085101562002893578190505b620028ab620028a2856200274b565b8301826200283c565b50505b505050565b600082821c905092915050565b6000620028d360001984600802620028b3565b1980831691505092915050565b6000620028ee8383620028c0565b9150826002028217905092915050565b62002909826200229a565b67ffffffffffffffff81111562002925576200292462001e84565b5b62002931825462002701565b6200293e82828562002863565b600060209050601f83116001811462002976576000841562002961578287015190505b6200296d8582620028e0565b865550620029dd565b601f198416620029868662002736565b60005b82811015620029b05784890151825560018201915060208501945060208101905062002989565b86831015620029d05784890151620029cc601f891682620028c0565b8355505b6001600288020188555050505b505050505050565b7f4974656d20646f6573206e6f742062656c6f6e6720746f2073656e6465720000600082015250565b600062002a1d601e83620025ae565b915062002a2a82620029e5565b602082019050919050565b6000602082019050818103600083015262002a508162002a0e565b9050919050565b7f4e487b7100000000000000000000000000000000000000000000000000000000600052601160045260246000fd5b600062002a938262001e2e565b91507fffffffffffffffffffffffffffffffffffffffffffffffffffffffffffffffff820362002ac85762002ac762002a57565b5b600182019050919050565b7f4974656d20646f6573206e6f7420657869737400000000000000000000000000600082015250565b600062002b0b601383620025ae565b915062002b188262002ad3565b602082019050919050565b6000602082019050818103600083015262002b3e8162002afc565b9050919050565b600062002b528262001e2e565b915062002b5f8362001e2e565b925082820390508181111562002b7a5762002b7962002a57565b5b92915050565b60008154905062002b918162002701565b9050919050565b81810362002ba857505062002c97565b62002bb38262002b80565b67ffffffffffffffff81111562002bcf5762002bce62001e84565b5b62002bdb825462002701565b62002be882828562002863565b6000601f83116001811462002c1c576000841562002c07578287015490505b62002c138582620028e0565b86555062002c90565b601f19841662002c2c8762002736565b965062002c398662002736565b60005b8281101562002c635784890154825560018201915060018501945060208101905062002c3c565b8683101562002c83578489015462002c7f601f891682620028c0565b8355505b6001600288020188555050505b5050505050505b565b7f4e487b7100000000000000000000000000000000000000000000000000000000600052603160045260246000fd5b7f4974656d206e6f7420666f756e64000000000000000000000000000000000000600082015250565b600062002d00600e83620025ae565b915062002d0d8262002cc8565b602082019050919050565b6000602082019050818103600083015262002d338162002cf1565b9050919050565b7f496e636f727265637420616d6f756e74206f662065746865722073656e740000600082015250565b600062002d72601e83620025ae565b915062002d7f8262002d3a565b602082019050919050565b6000602082019050818103600083015262002da58162002d63565b9050919050565b62002db781620021d1565b82525050565b600062002dca82620021b1565b9050919050565b62002ddc8162002dbd565b82525050565b600060408201905062002df9600083018562002dac565b62002e08602083018462002dd1565b9392505050565b600062002e1c8262001e2e565b915062002e298362001e2e565b925082820190508082111562002e445762002e4362002a57565b5b92915050565b600062002e57826200229a565b62002e638185620025ae565b935062002e75818560208601620022b6565b62002e808162001e73565b840191505092915050565b6000604082019050818103600083015262002ea7818562002e4a565b905062002eb8602083018462002580565b9392505050565b6000606082019050818103600083015262002edb818662002e4a565b9050818103602083015262002ef1818562002e4a565b905062002f02604083018462002dac565b949350505050565b7f4e487b7100000000000000000000000000000000000000000000000000000000600052605160045260246000fdfe60806040526040516108c33803806108c383398181016040528101906100259190610179565b81600060016101000a81548173ffffffffffffffffffffffffffffffffffffffff021916908373ffffffffffffffffffffffffffffffffffffffff16021790555080600160006101000a81548173ffffffffffffffffffffffffffffffffffffffff021916908373ffffffffffffffffffffffffffffffffffffffff16021790555060008060006101000a81548160ff021916908360028111156100cc576100cb6101b9565b5b021790555050506101e8565b600080fd5b600073ffffffffffffffffffffffffffffffffffffffff82169050919050565b6000610108826100dd565b9050919050565b610118816100fd565b811461012357600080fd5b50565b6000815190506101358161010f565b92915050565b6000610146826100dd565b9050919050565b6101568161013b565b811461016157600080fd5b50565b6000815190506101738161014d565b92915050565b600080604083850312156101905761018f6100d8565b5b600061019e85828601610126565b92505060206101af85828601610164565b9150509250929050565b7f4e487b7100000000000000000000000000000000000000000000000000000000600052602160045260246000fd5b6106cc806101f76000396000f3fe60806040526004361061004a5760003560e01c806308551a531461004f5780635e10177b1461007a5780637150d8ae14610091578063afe01043146100bc578063d0e30db0146100e7575b600080fd5b34801561005b57600080fd5b506100646100f1565b6040516100719190610458565b60405180910390f35b34801561008657600080fd5b5061008f610117565b005b34801561009d57600080fd5b506100a66102b0565b6040516100b39190610494565b60405180910390f35b3480156100c857600080fd5b506100d16102d6565b6040516100de9190610526565b60405180910390f35b6100ef6102e7565b005b600160009054906101000a900473ffffffffffffffffffffffffffffffffffffffff1681565b600060019054906101000a900473ffffffffffffffffffffffffffffffffffffffff1673ffffffffffffffffffffffffffffffffffffffff163373ffffffffffffffffffffffffffffffffffffffff16146101a7576040517f08c379a000000000000000000000000000000000000000000000000000000000815260040161019e9061059e565b60405180910390fd5b600160028111156101bb576101ba6104af565b5b60008054906101000a900460ff1660028111156101db576101da6104af565b5b1461021b576040517f08c379a00000000000000000000000000000000000000000000000000000000081526004016102129061060a565b60405180910390fd5b600160009054906101000a900473ffffffffffffffffffffffffffffffffffffffff1673ffffffffffffffffffffffffffffffffffffffff166108fc479081150290604051600060405180830381858888f19350505050158015610283573d6000803e3d6000fd5b5060026000806101000a81548160ff021916908360028111156102a9576102a86104af565b5b0217905550565b600060019054906101000a900473ffffffffffffffffffffffffffffffffffffffff1681565b60008054906101000a900460ff1681565b600060019054906101000a900473ffffffffffffffffffffffffffffffffffffffff1673ffffffffffffffffffffffffffffffffffffffff163373ffffffffffffffffffffffffffffffffffffffff1614610377576040517f08c379a000000000000000000000000000000000000000000000000000000000815260040161036e9061059e565b60405180910390fd5b6000600281111561038b5761038a6104af565b5b60008054906101000a900460ff1660028111156103ab576103aa6104af565b5b146103eb576040517f08c379a00000000000000000000000000000000000000000000000000000000081526004016103e290610676565b60405180910390fd5b60016000806101000a81548160ff021916908360028111156104105761040f6104af565b5b0217905550565b600073ffffffffffffffffffffffffffffffffffffffff82169050919050565b600061044282610417565b9050919050565b61045281610437565b82525050565b600060208201905061046d6000830184610449565b92915050565b600061047e82610417565b9050919050565b61048e81610473565b82525050565b60006020820190506104a96000830184610485565b92915050565b7f4e487b7100000000000000000000000000000000000000000000000000000000600052602160045260246000fd5b600381106104ef576104ee6104af565b5b50565b6000819050610500826104de565b919050565b6000610510826104f2565b9050919050565b61052081610505565b82525050565b600060208201905061053b6000830184610517565b92915050565b600082825260208201905092915050565b7f4f6e6c792062757965722063616e2063616c6c2074686973206d6574686f6400600082015250565b6000610588601f83610541565b915061059382610552565b602082019050919050565b600060208201905081810360008301526105b78161057b565b9050919050565b7f43616e6e6f7420636f6e6669726d2064656c6976657279000000000000000000600082015250565b60006105f4601783610541565b91506105ff826105be565b602082019050919050565b60006020820190508181036000830152610623816105e7565b9050919050565b7f416c726561647920706169640000000000000000000000000000000000000000600082015250565b6000610660600c83610541565b915061066b8261062a565b602082019050919050565b6000602082019050818103600083015261068f81610653565b905091905056fea2646970667358221220c1f6b58ebf64858ccc8926014127242acfb7d3a7ca0cde4a9a4e6579f3a44a7e64736f6c63430008180033a26469706673582212205cb854c118de980612836d848d5cd13a15a4dee8aafd6ae3aa929430540647a264736f6c63430008180033","opcodes":"PUSH1 0x80 PUSH1 0x40 MSTORE CALLVALUE DUP1 ISZERO PUSH2 0x10 JUMPI PUSH1 0x0 DUP1 REVERT JUMPDEST POP PUSH2 0x3832 DUP1 PUSH2 0x20 PUSH1 0x0 CODECOPY PUSH1 0x0 RETURN INVALID PUSH1 0x80 PUSH1 0x40 MSTORE PUSH1 0x4 CALLDATASIZE LT PUSH3 0x7A JUMPI PUSH1 0x0 CALLDATALOAD PUSH1 0xE0 SHR DUP1 PUSH4 0x7BFE9EFD GT PUSH3 0x55 JUMPI DUP1 PUSH4 0x7BFE9EFD EQ PUSH3 0x109 JUMPI DUP1 PUSH4 0x9AB7E23B EQ PUSH3 0x129 JUMPI DUP1 PUSH4 0xDBC37670 EQ PUSH3 0x159 JUMPI DUP1 PUSH4 0xE2C03ACE EQ PUSH3 0x189 JUMPI PUSH3 0x7A JUMP JUMPDEST DUP1 PUSH4 0x461459A EQ PUSH3 0x7F JUMPI DUP1 PUSH4 0x13DF81D6 EQ PUSH3 0xAD JUMPI DUP1 PUSH4 0x654FC833 EQ PUSH3 0xDB JUMPI JUMPDEST PUSH1 0x0 DUP1 REVERT JUMPDEST CALLVALUE DUP1 ISZERO PUSH3 0x8C JUMPI PUSH1 0x0 DUP1 REVERT JUMPDEST POP PUSH3 0xAB PUSH1 0x4 DUP1 CALLDATASIZE SUB DUP2 ADD SWAP1 PUSH3 0xA5 SWAP2 SWAP1 PUSH3 0x1FCB JUMP JUMPDEST PUSH3 0x1B9 JUMP JUMPDEST STOP JUMPDEST CALLVALUE DUP1 ISZERO PUSH3 0xBA JUMPI PUSH1 0x0 DUP1 REVERT JUMPDEST POP PUSH3 0xD9 PUSH1 0x4 DUP1 CALLDATASIZE SUB DUP2 ADD SWAP1 PUSH3 0xD3 SWAP2 SWAP1 PUSH3 0x20B0 JUMP JUMPDEST PUSH3 0x43E JUMP JUMPDEST STOP JUMPDEST CALLVALUE DUP1 ISZERO PUSH3 0xE8 JUMPI PUSH1 0x0 DUP1 REVERT JUMPDEST POP PUSH3 0x107 PUSH1 0x4 DUP1 CALLDATASIZE SUB DUP2 ADD SWAP1 PUSH3 0x101 SWAP2 SWAP1 PUSH3 0x217F JUMP JUMPDEST PUSH3 0x7A2 JUMP JUMPDEST STOP JUMPDEST PUSH3 0x127 PUSH1 0x4 DUP1 CALLDATASIZE SUB DUP2 ADD SWAP1 PUSH3 0x121 SWAP2 SWAP1 PUSH3 0x2216 JUMP JUMPDEST PUSH3 0xC67 JUMP JUMPDEST STOP JUMPDEST CALLVALUE DUP1 ISZERO PUSH3 0x136 JUMPI PUSH1 0x0 DUP1 REVERT JUMPDEST POP PUSH3 0x141 PUSH3 0x10D4 JUMP JUMPDEST PUSH1 0x40 MLOAD PUSH3 0x150 SWAP2 SWAP1 PUSH3 0x255C JUMP JUMPDEST PUSH1 0x40 MLOAD DUP1 SWAP2 SUB SWAP1 RETURN JUMPDEST CALLVALUE DUP1 ISZERO PUSH3 0x166 JUMPI PUSH1 0x0 DUP1 REVERT JUMPDEST POP PUSH3 0x171 PUSH3 0x147B JUMP JUMPDEST PUSH1 0x40 MLOAD PUSH3 0x180 SWAP2 SWAP1 PUSH3 0x255C JUMP JUMPDEST PUSH1 0x40 MLOAD DUP1 SWAP2 SUB SWAP1 RETURN JUMPDEST CALLVALUE DUP1 ISZERO PUSH3 0x196 JUMPI PUSH1 0x0 DUP1 REVERT JUMPDEST POP PUSH3 0x1A1 PUSH3 0x1B70 JUMP JUMPDEST PUSH1 0x40 MLOAD PUSH3 0x1B0 SWAP2 SWAP1 PUSH3 0x2591 JUMP JUMPDEST PUSH1 0x40 MLOAD DUP1 SWAP2 SUB SWAP1 RETURN JUMPDEST PUSH1 0x0 DUP6 GT DUP1 ISZERO PUSH3 0x1CC JUMPI POP PUSH1 0x1 SLOAD DUP6 GT ISZERO JUMPDEST PUSH3 0x20E JUMPI PUSH1 0x40 MLOAD PUSH32 0x8C379A000000000000000000000000000000000000000000000000000000000 DUP2 MSTORE PUSH1 0x4 ADD PUSH3 0x205 SWAP1 PUSH3 0x260F JUMP JUMPDEST PUSH1 0x40 MLOAD DUP1 SWAP2 SUB SWAP1 REVERT JUMPDEST PUSH1 0x0 DUP1 PUSH1 0x0 CALLER PUSH20 0xFFFFFFFFFFFFFFFFFFFFFFFFFFFFFFFFFFFFFFFF AND PUSH20 0xFFFFFFFFFFFFFFFFFFFFFFFFFFFFFFFFFFFFFFFF AND DUP2 MSTORE PUSH1 0x20 ADD SWAP1 DUP2 MSTORE PUSH1 0x20 ADD PUSH1 0x0 KECCAK256 SWAP1 POP PUSH1 0x0 DUP1 JUMPDEST DUP3 DUP1 SLOAD SWAP1 POP DUP2 LT ISZERO PUSH3 0x3F1 JUMPI DUP8 DUP4 DUP3 DUP2 SLOAD DUP2 LT PUSH3 0x278 JUMPI PUSH3 0x277 PUSH3 0x2631 JUMP JUMPDEST JUMPDEST SWAP1 PUSH1 0x0 MSTORE PUSH1 0x20 PUSH1 0x0 KECCAK256 SWAP1 PUSH1 0x9 MUL ADD PUSH1 0x0 ADD SLOAD SUB PUSH3 0x3E3 JUMPI PUSH1 0x1 SWAP2 POP DUP3 DUP2 DUP2 SLOAD DUP2 LT PUSH3 0x2AA JUMPI PUSH3 0x2A9 PUSH3 0x2631 JUMP JUMPDEST JUMPDEST SWAP1 PUSH1 0x0 MSTORE PUSH1 0x20 PUSH1 0x0 KECCAK256 SWAP1 PUSH1 0x9 MUL ADD PUSH1 0x6 ADD PUSH1 0x14 SWAP1 SLOAD SWAP1 PUSH2 0x100 EXP SWAP1 DIV PUSH1 0xFF AND ISZERO PUSH3 0x30C JUMPI PUSH1 0x40 MLOAD PUSH32 0x8C379A000000000000000000000000000000000000000000000000000000000 DUP2 MSTORE PUSH1 0x4 ADD PUSH3 0x303 SWAP1 PUSH3 0x26B0 JUMP JUMPDEST PUSH1 0x40 MLOAD DUP1 SWAP2 SUB SWAP1 REVERT JUMPDEST DUP7 DUP4 DUP3 DUP2 SLOAD DUP2 LT PUSH3 0x323 JUMPI PUSH3 0x322 PUSH3 0x2631 JUMP JUMPDEST JUMPDEST SWAP1 PUSH1 0x0 MSTORE PUSH1 0x20 PUSH1 0x0 KECCAK256 SWAP1 PUSH1 0x9 MUL ADD PUSH1 0x1 ADD SWAP1 DUP2 PUSH3 0x342 SWAP2 SWAP1 PUSH3 0x28FE JUMP JUMPDEST POP DUP6 DUP4 DUP3 DUP2 SLOAD DUP2 LT PUSH3 0x35A JUMPI PUSH3 0x359 PUSH3 0x2631 JUMP JUMPDEST JUMPDEST SWAP1 PUSH1 0x0 MSTORE PUSH1 0x20 PUSH1 0x0 KECCAK256 SWAP1 PUSH1 0x9 MUL ADD PUSH1 0x2 ADD SWAP1 DUP2 PUSH3 0x379 SWAP2 SWAP1 PUSH3 0x28FE JUMP JUMPDEST POP DUP5 DUP4 DUP3 DUP2 SLOAD DUP2 LT PUSH3 0x391 JUMPI PUSH3 0x390 PUSH3 0x2631 JUMP JUMPDEST JUMPDEST SWAP1 PUSH1 0x0 MSTORE PUSH1 0x20 PUSH1 0x0 KECCAK256 SWAP1 PUSH1 0x9 MUL ADD PUSH1 0x3 ADD DUP2 SWAP1 SSTORE POP DUP4 DUP4 DUP3 DUP2 SLOAD DUP2 LT PUSH3 0x3BD JUMPI PUSH3 0x3BC PUSH3 0x2631 JUMP JUMPDEST JUMPDEST SWAP1 PUSH1 0x0 MSTORE PUSH1 0x20 PUSH1 0x0 KECCAK256 SWAP1 PUSH1 0x9 MUL ADD PUSH1 0x4 ADD SWAP1 DUP2 PUSH3 0x3DC SWAP2 SWAP1 PUSH3 0x28FE JUMP JUMPDEST POP PUSH3 0x3F1 JUMP JUMPDEST DUP1 DUP1 PUSH1 0x1 ADD SWAP2 POP POP PUSH3 0x254 JUMP JUMPDEST POP DUP1 PUSH3 0x435 JUMPI PUSH1 0x40 MLOAD PUSH32 0x8C379A000000000000000000000000000000000000000000000000000000000 DUP2 MSTORE PUSH1 0x4 ADD PUSH3 0x42C SWAP1 PUSH3 0x2A35 JUMP JUMPDEST PUSH1 0x40 MLOAD DUP1 SWAP2 SUB SWAP1 REVERT JUMPDEST POP POP POP POP POP POP POP JUMP JUMPDEST PUSH3 0x47F PUSH1 0x40 MLOAD DUP1 PUSH1 0x40 ADD PUSH1 0x40 MSTORE DUP1 PUSH1 0xC DUP2 MSTORE PUSH1 0x20 ADD PUSH32 0x50726963652069733A2025730000000000000000000000000000000000000000 DUP2 MSTORE POP DUP4 PUSH3 0x1B76 JUMP JUMPDEST PUSH1 0x0 DUP1 PUSH1 0x0 CALLER PUSH20 0xFFFFFFFFFFFFFFFFFFFFFFFFFFFFFFFFFFFFFFFF AND PUSH20 0xFFFFFFFFFFFFFFFFFFFFFFFFFFFFFFFFFFFFFFFF AND DUP2 MSTORE PUSH1 0x20 ADD SWAP1 DUP2 MSTORE PUSH1 0x20 ADD PUSH1 0x0 KECCAK256 DUP1 SLOAD SWAP1 POP SUB PUSH3 0x52D JUMPI PUSH1 0x2 CALLER SWAP1 DUP1 PUSH1 0x1 DUP2 SLOAD ADD DUP1 DUP3 SSTORE DUP1 SWAP2 POP POP PUSH1 0x1 SWAP1 SUB SWAP1 PUSH1 0x0 MSTORE PUSH1 0x20 PUSH1 0x0 KECCAK256 ADD PUSH1 0x0 SWAP1 SWAP2 SWAP1 SWAP2 SWAP1 SWAP2 PUSH2 0x100 EXP DUP2 SLOAD DUP2 PUSH20 0xFFFFFFFFFFFFFFFFFFFFFFFFFFFFFFFFFFFFFFFF MUL NOT AND SWAP1 DUP4 PUSH20 0xFFFFFFFFFFFFFFFFFFFFFFFFFFFFFFFFFFFFFFFF AND MUL OR SWAP1 SSTORE POP JUMPDEST PUSH1 0x1 PUSH1 0x0 DUP2 SLOAD DUP1 SWAP3 SWAP2 SWAP1 PUSH3 0x542 SWAP1 PUSH3 0x2A86 JUMP JUMPDEST SWAP2 SWAP1 POP SSTORE POP PUSH1 0x0 DUP1 CALLER PUSH20 0xFFFFFFFFFFFFFFFFFFFFFFFFFFFFFFFFFFFFFFFF AND PUSH20 0xFFFFFFFFFFFFFFFFFFFFFFFFFFFFFFFFFFFFFFFF AND DUP2 MSTORE PUSH1 0x20 ADD SWAP1 DUP2 MSTORE PUSH1 0x20 ADD PUSH1 0x0 KECCAK256 PUSH1 0x40 MLOAD DUP1 PUSH2 0x140 ADD PUSH1 0x40 MSTORE DUP1 PUSH1 0x1 SLOAD DUP2 MSTORE PUSH1 0x20 ADD DUP7 DUP2 MSTORE PUSH1 0x20 ADD DUP6 DUP2 MSTORE PUSH1 0x20 ADD DUP5 DUP2 MSTORE PUSH1 0x20 ADD DUP4 DUP2 MSTORE PUSH1 0x20 ADD TIMESTAMP DUP2 MSTORE PUSH1 0x20 ADD PUSH1 0x0 PUSH20 0xFFFFFFFFFFFFFFFFFFFFFFFFFFFFFFFFFFFFFFFF AND DUP2 MSTORE PUSH1 0x20 ADD PUSH1 0x0 ISZERO ISZERO DUP2 MSTORE PUSH1 0x20 ADD PUSH1 0x0 PUSH20 0xFFFFFFFFFFFFFFFFFFFFFFFFFFFFFFFFFFFFFFFF AND DUP2 MSTORE PUSH1 0x20 ADD CALLER PUSH20 0xFFFFFFFFFFFFFFFFFFFFFFFFFFFFFFFFFFFFFFFF AND DUP2 MSTORE POP SWAP1 DUP1 PUSH1 0x1 DUP2 SLOAD ADD DUP1 DUP3 SSTORE DUP1 SWAP2 POP POP PUSH1 0x1 SWAP1 SUB SWAP1 PUSH1 0x0 MSTORE PUSH1 0x20 PUSH1 0x0 KECCAK256 SWAP1 PUSH1 0x9 MUL ADD PUSH1 0x0 SWAP1 SWAP2 SWAP1 SWAP2 SWAP1 SWAP2 POP PUSH1 0x0 DUP3 ADD MLOAD DUP2 PUSH1 0x0 ADD SSTORE PUSH1 0x20 DUP3 ADD MLOAD DUP2 PUSH1 0x1 ADD SWAP1 DUP2 PUSH3 0x65E SWAP2 SWAP1 PUSH3 0x28FE JUMP JUMPDEST POP PUSH1 0x40 DUP3 ADD MLOAD DUP2 PUSH1 0x2 ADD SWAP1 DUP2 PUSH3 0x676 SWAP2 SWAP1 PUSH3 0x28FE JUMP JUMPDEST POP PUSH1 0x60 DUP3 ADD MLOAD DUP2 PUSH1 0x3 ADD SSTORE PUSH1 0x80 DUP3 ADD MLOAD DUP2 PUSH1 0x4 ADD SWAP1 DUP2 PUSH3 0x698 SWAP2 SWAP1 PUSH3 0x28FE JUMP JUMPDEST POP PUSH1 0xA0 DUP3 ADD MLOAD DUP2 PUSH1 0x5 ADD SSTORE PUSH1 0xC0 DUP3 ADD MLOAD DUP2 PUSH1 0x6 ADD PUSH1 0x0 PUSH2 0x100 EXP DUP2 SLOAD DUP2 PUSH20 0xFFFFFFFFFFFFFFFFFFFFFFFFFFFFFFFFFFFFFFFF MUL NOT AND SWAP1 DUP4 PUSH20 0xFFFFFFFFFFFFFFFFFFFFFFFFFFFFFFFFFFFFFFFF AND MUL OR SWAP1 SSTORE POP PUSH1 0xE0 DUP3 ADD MLOAD DUP2 PUSH1 0x6 ADD PUSH1 0x14 PUSH2 0x100 EXP DUP2 SLOAD DUP2 PUSH1 0xFF MUL NOT AND SWAP1 DUP4 ISZERO ISZERO MUL OR SWAP1 SSTORE POP PUSH2 0x100 DUP3 ADD MLOAD DUP2 PUSH1 0x7 ADD PUSH1 0x0 PUSH2 0x100 EXP DUP2 SLOAD DUP2 PUSH20 0xFFFFFFFFFFFFFFFFFFFFFFFFFFFFFFFFFFFFFFFF MUL NOT AND SWAP1 DUP4 PUSH20 0xFFFFFFFFFFFFFFFFFFFFFFFFFFFFFFFFFFFFFFFF AND MUL OR SWAP1 SSTORE POP PUSH2 0x120 DUP3 ADD MLOAD DUP2 PUSH1 0x8 ADD PUSH1 0x0 PUSH2 0x100 EXP DUP2 SLOAD DUP2 PUSH20 0xFFFFFFFFFFFFFFFFFFFFFFFFFFFFFFFFFFFFFFFF MUL NOT AND SWAP1 DUP4 PUSH20 0xFFFFFFFFFFFFFFFFFFFFFFFFFFFFFFFFFFFFFFFF AND MUL OR SWAP1 SSTORE POP POP POP POP POP POP POP JUMP JUMPDEST PUSH1 0x0 DUP1 PUSH1 0x0 CALLER PUSH20 0xFFFFFFFFFFFFFFFFFFFFFFFFFFFFFFFFFFFFFFFF AND PUSH20 0xFFFFFFFFFFFFFFFFFFFFFFFFFFFFFFFFFFFFFFFF AND DUP2 MSTORE PUSH1 0x20 ADD SWAP1 DUP2 MSTORE PUSH1 0x20 ADD PUSH1 0x0 KECCAK256 SWAP1 POP PUSH1 0x0 DUP1 DUP1 PUSH1 0x0 SWAP1 POP JUMPDEST DUP4 DUP1 SLOAD SWAP1 POP DUP2 LT ISZERO PUSH3 0x8BC JUMPI DUP5 DUP5 DUP3 DUP2 SLOAD DUP2 LT PUSH3 0x811 JUMPI PUSH3 0x810 PUSH3 0x2631 JUMP JUMPDEST JUMPDEST SWAP1 PUSH1 0x0 MSTORE PUSH1 0x20 PUSH1 0x0 KECCAK256 SWAP1 PUSH1 0x9 MUL ADD PUSH1 0x0 ADD SLOAD SUB PUSH3 0x8AE JUMPI DUP4 DUP2 DUP2 SLOAD DUP2 LT PUSH3 0x83F JUMPI PUSH3 0x83E PUSH3 0x2631 JUMP JUMPDEST JUMPDEST SWAP1 PUSH1 0x0 MSTORE PUSH1 0x20 PUSH1 0x0 KECCAK256 SWAP1 PUSH1 0x9 MUL ADD PUSH1 0x6 ADD PUSH1 0x14 SWAP1 SLOAD SWAP1 PUSH2 0x100 EXP SWAP1 DIV PUSH1 0xFF AND ISZERO PUSH3 0x8A1 JUMPI PUSH1 0x40 MLOAD PUSH32 0x8C379A000000000000000000000000000000000000000000000000000000000 DUP2 MSTORE PUSH1 0x4 ADD PUSH3 0x898 SWAP1 PUSH3 0x26B0 JUMP JUMPDEST PUSH1 0x40 MLOAD DUP1 SWAP2 SUB SWAP1 REVERT JUMPDEST PUSH1 0x1 SWAP3 POP DUP1 SWAP2 POP PUSH3 0x8BC JUMP JUMPDEST DUP1 DUP1 PUSH1 0x1 ADD SWAP2 POP POP PUSH3 0x7ED JUMP JUMPDEST POP DUP2 PUSH3 0x900 JUMPI PUSH1 0x40 MLOAD PUSH32 0x8C379A000000000000000000000000000000000000000000000000000000000 DUP2 MSTORE PUSH1 0x4 ADD PUSH3 0x8F7 SWAP1 PUSH3 0x2B23 JUMP JUMPDEST PUSH1 0x40 MLOAD DUP1 SWAP2 SUB SWAP1 REVERT JUMPDEST PUSH1 0x0 PUSH1 0x1 DUP5 DUP1 SLOAD SWAP1 POP PUSH3 0x915 SWAP2 SWAP1 PUSH3 0x2B45 JUMP JUMPDEST SWAP1 POP DUP1 DUP3 EQ PUSH3 0xB5C JUMPI DUP4 DUP2 DUP2 SLOAD DUP2 LT PUSH3 0x935 JUMPI PUSH3 0x934 PUSH3 0x2631 JUMP JUMPDEST JUMPDEST SWAP1 PUSH1 0x0 MSTORE PUSH1 0x20 PUSH1 0x0 KECCAK256 SWAP1 PUSH1 0x9 MUL ADD DUP5 DUP4 DUP2 SLOAD DUP2 LT PUSH3 0x959 JUMPI PUSH3 0x958 PUSH3 0x2631 JUMP JUMPDEST JUMPDEST SWAP1 PUSH1 0x0 MSTORE PUSH1 0x20 PUSH1 0x0 KECCAK256 SWAP1 PUSH1 0x9 MUL ADD PUSH1 0x0 DUP3 ADD SLOAD DUP2 PUSH1 0x0 ADD SSTORE PUSH1 0x1 DUP3 ADD DUP2 PUSH1 0x1 ADD SWAP1 DUP2 PUSH3 0x987 SWAP2 SWAP1 PUSH3 0x2B98 JUMP JUMPDEST POP PUSH1 0x2 DUP3 ADD DUP2 PUSH1 0x2 ADD SWAP1 DUP2 PUSH3 0x99E SWAP2 SWAP1 PUSH3 0x2B98 JUMP JUMPDEST POP PUSH1 0x3 DUP3 ADD SLOAD DUP2 PUSH1 0x3 ADD SSTORE PUSH1 0x4 DUP3 ADD DUP2 PUSH1 0x4 ADD SWAP1 DUP2 PUSH3 0x9BF SWAP2 SWAP1 PUSH3 0x2B98 JUMP JUMPDEST POP PUSH1 0x5 DUP3 ADD SLOAD DUP2 PUSH1 0x5 ADD SSTORE PUSH1 0x6 DUP3 ADD PUSH1 0x0 SWAP1 SLOAD SWAP1 PUSH2 0x100 EXP SWAP1 DIV PUSH20 0xFFFFFFFFFFFFFFFFFFFFFFFFFFFFFFFFFFFFFFFF AND DUP2 PUSH1 0x6 ADD PUSH1 0x0 PUSH2 0x100 EXP DUP2 SLOAD DUP2 PUSH20 0xFFFFFFFFFFFFFFFFFFFFFFFFFFFFFFFFFFFFFFFF MUL NOT AND SWAP1 DUP4 PUSH20 0xFFFFFFFFFFFFFFFFFFFFFFFFFFFFFFFFFFFFFFFF AND MUL OR SWAP1 SSTORE POP PUSH1 0x6 DUP3 ADD PUSH1 0x14 SWAP1 SLOAD SWAP1 PUSH2 0x100 EXP SWAP1 DIV PUSH1 0xFF AND DUP2 PUSH1 0x6 ADD PUSH1 0x14 PUSH2 0x100 EXP DUP2 SLOAD DUP2 PUSH1 0xFF MUL NOT AND SWAP1 DUP4 ISZERO ISZERO MUL OR SWAP1 SSTORE POP PUSH1 0x7 DUP3 ADD PUSH1 0x0 SWAP1 SLOAD SWAP1 PUSH2 0x100 EXP SWAP1 DIV PUSH20 0xFFFFFFFFFFFFFFFFFFFFFFFFFFFFFFFFFFFFFFFF AND DUP2 PUSH1 0x7 ADD PUSH1 0x0 PUSH2 0x100 EXP DUP2 SLOAD DUP2 PUSH20 0xFFFFFFFFFFFFFFFFFFFFFFFFFFFFFFFFFFFFFFFF MUL NOT AND SWAP1 DUP4 PUSH20 0xFFFFFFFFFFFFFFFFFFFFFFFFFFFFFFFFFFFFFFFF AND MUL OR SWAP1 SSTORE POP PUSH1 0x8 DUP3 ADD PUSH1 0x0 SWAP1 SLOAD SWAP1 PUSH2 0x100 EXP SWAP1 DIV PUSH20 0xFFFFFFFFFFFFFFFFFFFFFFFFFFFFFFFFFFFFFFFF AND DUP2 PUSH1 0x8 ADD PUSH1 0x0 PUSH2 0x100 EXP DUP2 SLOAD DUP2 PUSH20 0xFFFFFFFFFFFFFFFFFFFFFFFFFFFFFFFFFFFFFFFF MUL NOT AND SWAP1 DUP4 PUSH20 0xFFFFFFFFFFFFFFFFFFFFFFFFFFFFFFFFFFFFFFFF AND MUL OR SWAP1 SSTORE POP SWAP1 POP POP DUP5 DUP5 DUP4 DUP2 SLOAD DUP2 LT PUSH3 0xB46 JUMPI PUSH3 0xB45 PUSH3 0x2631 JUMP JUMPDEST JUMPDEST SWAP1 PUSH1 0x0 MSTORE PUSH1 0x20 PUSH1 0x0 KECCAK256 SWAP1 PUSH1 0x9 MUL ADD PUSH1 0x0 ADD DUP2 SWAP1 SSTORE POP JUMPDEST DUP4 DUP1 SLOAD DUP1 PUSH3 0xB70 JUMPI PUSH3 0xB6F PUSH3 0x2C99 JUMP JUMPDEST JUMPDEST PUSH1 0x1 SWAP1 SUB DUP2 DUP2 SWAP1 PUSH1 0x0 MSTORE PUSH1 0x20 PUSH1 0x0 KECCAK256 SWAP1 PUSH1 0x9 MUL ADD PUSH1 0x0 DUP1 DUP3 ADD PUSH1 0x0 SWAP1 SSTORE PUSH1 0x1 DUP3 ADD PUSH1 0x0 PUSH3 0xB9F SWAP2 SWAP1 PUSH3 0x1D04 JUMP JUMPDEST PUSH1 0x2 DUP3 ADD PUSH1 0x0 PUSH3 0xBB1 SWAP2 SWAP1 PUSH3 0x1D04 JUMP JUMPDEST PUSH1 0x3 DUP3 ADD PUSH1 0x0 SWAP1 SSTORE PUSH1 0x4 DUP3 ADD PUSH1 0x0 PUSH3 0xBCB SWAP2 SWAP1 PUSH3 0x1D04 JUMP JUMPDEST PUSH1 0x5 DUP3 ADD PUSH1 0x0 SWAP1 SSTORE PUSH1 0x6 DUP3 ADD PUSH1 0x0 PUSH2 0x100 EXP DUP2 SLOAD SWAP1 PUSH20 0xFFFFFFFFFFFFFFFFFFFFFFFFFFFFFFFFFFFFFFFF MUL NOT AND SWAP1 SSTORE PUSH1 0x6 DUP3 ADD PUSH1 0x14 PUSH2 0x100 EXP DUP2 SLOAD SWAP1 PUSH1 0xFF MUL NOT AND SWAP1 SSTORE PUSH1 0x7 DUP3 ADD PUSH1 0x0 PUSH2 0x100 EXP DUP2 SLOAD SWAP1 PUSH20 0xFFFFFFFFFFFFFFFFFFFFFFFFFFFFFFFFFFFFFFFF MUL NOT AND SWAP1 SSTORE PUSH1 0x8 DUP3 ADD PUSH1 0x0 PUSH2 0x100 EXP DUP2 SLOAD SWAP1 PUSH20 0xFFFFFFFFFFFFFFFFFFFFFFFFFFFFFFFFFFFFFFFF MUL NOT AND SWAP1 SSTORE POP POP SWAP1 SSTORE POP POP POP POP POP JUMP JUMPDEST PUSH1 0x0 DUP3 GT DUP1 ISZERO PUSH3 0xC7A JUMPI POP PUSH1 0x1 SLOAD DUP3 GT ISZERO JUMPDEST PUSH3 0xCBC JUMPI PUSH1 0x40 MLOAD PUSH32 0x8C379A000000000000000000000000000000000000000000000000000000000 DUP2 MSTORE PUSH1 0x4 ADD PUSH3 0xCB3 SWAP1 PUSH3 0x260F JUMP JUMPDEST PUSH1 0x40 MLOAD DUP1 SWAP2 SUB SWAP1 REVERT JUMPDEST PUSH1 0x0 DUP1 PUSH1 0x0 DUP4 PUSH20 0xFFFFFFFFFFFFFFFFFFFFFFFFFFFFFFFFFFFFFFFF AND PUSH20 0xFFFFFFFFFFFFFFFFFFFFFFFFFFFFFFFFFFFFFFFF AND DUP2 MSTORE PUSH1 0x20 ADD SWAP1 DUP2 MSTORE PUSH1 0x20 ADD PUSH1 0x0 KECCAK256 SWAP1 POP PUSH1 0x0 DUP1 DUP1 PUSH1 0x0 SWAP1 POP JUMPDEST DUP4 DUP1 SLOAD SWAP1 POP DUP2 LT ISZERO PUSH3 0xD5E JUMPI DUP6 DUP5 DUP3 DUP2 SLOAD DUP2 LT PUSH3 0xD2B JUMPI PUSH3 0xD2A PUSH3 0x2631 JUMP JUMPDEST JUMPDEST SWAP1 PUSH1 0x0 MSTORE PUSH1 0x20 PUSH1 0x0 KECCAK256 SWAP1 PUSH1 0x9 MUL ADD PUSH1 0x0 ADD SLOAD SUB PUSH3 0xD50 JUMPI PUSH1 0x1 SWAP3 POP DUP1 SWAP2 POP PUSH3 0xD5E JUMP JUMPDEST DUP1 DUP1 PUSH1 0x1 ADD SWAP2 POP POP PUSH3 0xD07 JUMP JUMPDEST POP DUP2 PUSH3 0xDA2 JUMPI PUSH1 0x40 MLOAD PUSH32 0x8C379A000000000000000000000000000000000000000000000000000000000 DUP2 MSTORE PUSH1 0x4 ADD PUSH3 0xD99 SWAP1 PUSH3 0x2D18 JUMP JUMPDEST PUSH1 0x40 MLOAD DUP1 SWAP2 SUB SWAP1 REVERT JUMPDEST DUP3 DUP2 DUP2 SLOAD DUP2 LT PUSH3 0xDB8 JUMPI PUSH3 0xDB7 PUSH3 0x2631 JUMP JUMPDEST JUMPDEST SWAP1 PUSH1 0x0 MSTORE PUSH1 0x20 PUSH1 0x0 KECCAK256 SWAP1 PUSH1 0x9 MUL ADD PUSH1 0x6 ADD PUSH1 0x14 SWAP1 SLOAD SWAP1 PUSH2 0x100 EXP SWAP1 DIV PUSH1 0xFF AND ISZERO PUSH3 0xE1A JUMPI PUSH1 0x40 MLOAD PUSH32 0x8C379A000000000000000000000000000000000000000000000000000000000 DUP2 MSTORE PUSH1 0x4 ADD PUSH3 0xE11 SWAP1 PUSH3 0x26B0 JUMP JUMPDEST PUSH1 0x40 MLOAD DUP1 SWAP2 SUB SWAP1 REVERT JUMPDEST DUP3 DUP2 DUP2 SLOAD DUP2 LT PUSH3 0xE30 JUMPI PUSH3 0xE2F PUSH3 0x2631 JUMP JUMPDEST JUMPDEST SWAP1 PUSH1 0x0 MSTORE PUSH1 0x20 PUSH1 0x0 KECCAK256 SWAP1 PUSH1 0x9 MUL ADD PUSH1 0x3 ADD SLOAD CALLVALUE EQ PUSH3 0xE86 JUMPI PUSH1 0x40 MLOAD PUSH32 0x8C379A000000000000000000000000000000000000000000000000000000000 DUP2 MSTORE PUSH1 0x4 ADD PUSH3 0xE7D SWAP1 PUSH3 0x2D8A JUMP JUMPDEST PUSH1 0x40 MLOAD DUP1 SWAP2 SUB SWAP1 REVERT JUMPDEST PUSH1 0x0 CALLVALUE CALLER DUP7 PUSH1 0x40 MLOAD PUSH3 0xE99 SWAP1 PUSH3 0x1D4A JUMP JUMPDEST PUSH3 0xEA6 SWAP3 SWAP2 SWAP1 PUSH3 0x2DE2 JUMP JUMPDEST PUSH1 0x40 MLOAD DUP1 SWAP2 SUB SWAP1 DUP3 CREATE SWAP1 POP DUP1 ISZERO DUP1 ISZERO PUSH3 0xEC4 JUMPI RETURNDATASIZE PUSH1 0x0 DUP1 RETURNDATACOPY RETURNDATASIZE PUSH1 0x0 REVERT JUMPDEST POP SWAP1 POP CALLER DUP5 DUP4 DUP2 SLOAD DUP2 LT PUSH3 0xEDE JUMPI PUSH3 0xEDD PUSH3 0x2631 JUMP JUMPDEST JUMPDEST SWAP1 PUSH1 0x0 MSTORE PUSH1 0x20 PUSH1 0x0 KECCAK256 SWAP1 PUSH1 0x9 MUL ADD PUSH1 0x6 ADD PUSH1 0x0 PUSH2 0x100 EXP DUP2 SLOAD DUP2 PUSH20 0xFFFFFFFFFFFFFFFFFFFFFFFFFFFFFFFFFFFFFFFF MUL NOT AND SWAP1 DUP4 PUSH20 0xFFFFFFFFFFFFFFFFFFFFFFFFFFFFFFFFFFFFFFFF AND MUL OR SWAP1 SSTORE POP PUSH1 0x1 DUP5 DUP4 DUP2 SLOAD DUP2 LT PUSH3 0xF45 JUMPI PUSH3 0xF44 PUSH3 0x2631 JUMP JUMPDEST JUMPDEST SWAP1 PUSH1 0x0 MSTORE PUSH1 0x20 PUSH1 0x0 KECCAK256 SWAP1 PUSH1 0x9 MUL ADD PUSH1 0x6 ADD PUSH1 0x14 PUSH2 0x100 EXP DUP2 SLOAD DUP2 PUSH1 0xFF MUL NOT AND SWAP1 DUP4 ISZERO ISZERO MUL OR SWAP1 SSTORE POP DUP1 DUP5 DUP4 DUP2 SLOAD DUP2 LT PUSH3 0xF84 JUMPI PUSH3 0xF83 PUSH3 0x2631 JUMP JUMPDEST JUMPDEST SWAP1 PUSH1 0x0 MSTORE PUSH1 0x20 PUSH1 0x0 KECCAK256 SWAP1 PUSH1 0x9 MUL ADD PUSH1 0x7 ADD PUSH1 0x0 PUSH2 0x100 EXP DUP2 SLOAD DUP2 PUSH20 0xFFFFFFFFFFFFFFFFFFFFFFFFFFFFFFFFFFFFFFFF MUL NOT AND SWAP1 DUP4 PUSH20 0xFFFFFFFFFFFFFFFFFFFFFFFFFFFFFFFFFFFFFFFF AND MUL OR SWAP1 SSTORE POP PUSH3 0x10CC PUSH1 0x40 MLOAD DUP1 PUSH1 0x40 ADD PUSH1 0x40 MSTORE DUP1 PUSH1 0x18 DUP2 MSTORE PUSH1 0x20 ADD PUSH32 0x4974656D207075726368617365643A2025732062792025730000000000000000 DUP2 MSTORE POP DUP6 DUP5 DUP2 SLOAD DUP2 LT PUSH3 0x1023 JUMPI PUSH3 0x1022 PUSH3 0x2631 JUMP JUMPDEST JUMPDEST SWAP1 PUSH1 0x0 MSTORE PUSH1 0x20 PUSH1 0x0 KECCAK256 SWAP1 PUSH1 0x9 MUL ADD PUSH1 0x1 ADD DUP1 SLOAD PUSH3 0x1041 SWAP1 PUSH3 0x2701 JUMP JUMPDEST DUP1 PUSH1 0x1F ADD PUSH1 0x20 DUP1 SWAP2 DIV MUL PUSH1 0x20 ADD PUSH1 0x40 MLOAD SWAP1 DUP2 ADD PUSH1 0x40 MSTORE DUP1 SWAP3 SWAP2 SWAP1 DUP2 DUP2 MSTORE PUSH1 0x20 ADD DUP3 DUP1 SLOAD PUSH3 0x106F SWAP1 PUSH3 0x2701 JUMP JUMPDEST DUP1 ISZERO PUSH3 0x10C0 JUMPI DUP1 PUSH1 0x1F LT PUSH3 0x1094 JUMPI PUSH2 0x100 DUP1 DUP4 SLOAD DIV MUL DUP4 MSTORE SWAP2 PUSH1 0x20 ADD SWAP2 PUSH3 0x10C0 JUMP JUMPDEST DUP3 ADD SWAP2 SWAP1 PUSH1 0x0 MSTORE PUSH1 0x20 PUSH1 0x0 KECCAK256 SWAP1 JUMPDEST DUP2 SLOAD DUP2 MSTORE SWAP1 PUSH1 0x1 ADD SWAP1 PUSH1 0x20 ADD DUP1 DUP4 GT PUSH3 0x10A2 JUMPI DUP3 SWAP1 SUB PUSH1 0x1F AND DUP3 ADD SWAP2 JUMPDEST POP POP POP POP POP CALLER PUSH3 0x1C16 JUMP JUMPDEST POP POP POP POP POP POP JUMP JUMPDEST PUSH1 0x60 PUSH1 0x0 DUP1 CALLER PUSH20 0xFFFFFFFFFFFFFFFFFFFFFFFFFFFFFFFFFFFFFFFF AND PUSH20 0xFFFFFFFFFFFFFFFFFFFFFFFFFFFFFFFFFFFFFFFF AND DUP2 MSTORE PUSH1 0x20 ADD SWAP1 DUP2 MSTORE PUSH1 0x20 ADD PUSH1 0x0 KECCAK256 DUP1 SLOAD DUP1 PUSH1 0x20 MUL PUSH1 0x20 ADD PUSH1 0x40 MLOAD SWAP1 DUP2 ADD PUSH1 0x40 MSTORE DUP1 SWAP3 SWAP2 SWAP1 DUP2 DUP2 MSTORE PUSH1 0x20 ADD PUSH1 0x0 SWAP1 JUMPDEST DUP3 DUP3 LT ISZERO PUSH3 0x1472 JUMPI DUP4 DUP3 SWAP1 PUSH1 0x0 MSTORE PUSH1 0x20 PUSH1 0x0 KECCAK256 SWAP1 PUSH1 0x9 MUL ADD PUSH1 0x40 MLOAD DUP1 PUSH2 0x140 ADD PUSH1 0x40 MSTORE SWAP1 DUP2 PUSH1 0x0 DUP3 ADD SLOAD DUP2 MSTORE PUSH1 0x20 ADD PUSH1 0x1 DUP3 ADD DUP1 SLOAD PUSH3 0x1175 SWAP1 PUSH3 0x2701 JUMP JUMPDEST DUP1 PUSH1 0x1F ADD PUSH1 0x20 DUP1 SWAP2 DIV MUL PUSH1 0x20 ADD PUSH1 0x40 MLOAD SWAP1 DUP2 ADD PUSH1 0x40 MSTORE DUP1 SWAP3 SWAP2 SWAP1 DUP2 DUP2 MSTORE PUSH1 0x20 ADD DUP3 DUP1 SLOAD PUSH3 0x11A3 SWAP1 PUSH3 0x2701 JUMP JUMPDEST DUP1 ISZERO PUSH3 0x11F4 JUMPI DUP1 PUSH1 0x1F LT PUSH3 0x11C8 JUMPI PUSH2 0x100 DUP1 DUP4 SLOAD DIV MUL DUP4 MSTORE SWAP2 PUSH1 0x20 ADD SWAP2 PUSH3 0x11F4 JUMP JUMPDEST DUP3 ADD SWAP2 SWAP1 PUSH1 0x0 MSTORE PUSH1 0x20 PUSH1 0x0 KECCAK256 SWAP1 JUMPDEST DUP2 SLOAD DUP2 MSTORE SWAP1 PUSH1 0x1 ADD SWAP1 PUSH1 0x20 ADD DUP1 DUP4 GT PUSH3 0x11D6 JUMPI DUP3 SWAP1 SUB PUSH1 0x1F AND DUP3 ADD SWAP2 JUMPDEST POP POP POP POP POP DUP2 MSTORE PUSH1 0x20 ADD PUSH1 0x2 DUP3 ADD DUP1 SLOAD PUSH3 0x120F SWAP1 PUSH3 0x2701 JUMP JUMPDEST DUP1 PUSH1 0x1F ADD PUSH1 0x20 DUP1 SWAP2 DIV MUL PUSH1 0x20 ADD PUSH1 0x40 MLOAD SWAP1 DUP2 ADD PUSH1 0x40 MSTORE DUP1 SWAP3 SWAP2 SWAP1 DUP2 DUP2 MSTORE PUSH1 0x20 ADD DUP3 DUP1 SLOAD PUSH3 0x123D SWAP1 PUSH3 0x2701 JUMP JUMPDEST DUP1 ISZERO PUSH3 0x128E JUMPI DUP1 PUSH1 0x1F LT PUSH3 0x1262 JUMPI PUSH2 0x100 DUP1 DUP4 SLOAD DIV MUL DUP4 MSTORE SWAP2 PUSH1 0x20 ADD SWAP2 PUSH3 0x128E JUMP JUMPDEST DUP3 ADD SWAP2 SWAP1 PUSH1 0x0 MSTORE PUSH1 0x20 PUSH1 0x0 KECCAK256 SWAP1 JUMPDEST DUP2 SLOAD DUP2 MSTORE SWAP1 PUSH1 0x1 ADD SWAP1 PUSH1 0x20 ADD DUP1 DUP4 GT PUSH3 0x1270 JUMPI DUP3 SWAP1 SUB PUSH1 0x1F AND DUP3 ADD SWAP2 JUMPDEST POP POP POP POP POP DUP2 MSTORE PUSH1 0x20 ADD PUSH1 0x3 DUP3 ADD SLOAD DUP2 MSTORE PUSH1 0x20 ADD PUSH1 0x4 DUP3 ADD DUP1 SLOAD PUSH3 0x12B3 SWAP1 PUSH3 0x2701 JUMP JUMPDEST DUP1 PUSH1 0x1F ADD PUSH1 0x20 DUP1 SWAP2 DIV MUL PUSH1 0x20 ADD PUSH1 0x40 MLOAD SWAP1 DUP2 ADD PUSH1 0x40 MSTORE DUP1 SWAP3 SWAP2 SWAP1 DUP2 DUP2 MSTORE PUSH1 0x20 ADD DUP3 DUP1 SLOAD PUSH3 0x12E1 SWAP1 PUSH3 0x2701 JUMP JUMPDEST DUP1 ISZERO PUSH3 0x1332 JUMPI DUP1 PUSH1 0x1F LT PUSH3 0x1306 JUMPI PUSH2 0x100 DUP1 DUP4 SLOAD DIV MUL DUP4 MSTORE SWAP2 PUSH1 0x20 ADD SWAP2 PUSH3 0x1332 JUMP JUMPDEST DUP3 ADD SWAP2 SWAP1 PUSH1 0x0 MSTORE PUSH1 0x20 PUSH1 0x0 KECCAK256 SWAP1 JUMPDEST DUP2 SLOAD DUP2 MSTORE SWAP1 PUSH1 0x1 ADD SWAP1 PUSH1 0x20 ADD DUP1 DUP4 GT PUSH3 0x1314 JUMPI DUP3 SWAP1 SUB PUSH1 0x1F AND DUP3 ADD SWAP2 JUMPDEST POP POP POP POP POP DUP2 MSTORE PUSH1 0x20 ADD PUSH1 0x5 DUP3 ADD SLOAD DUP2 MSTORE PUSH1 0x20 ADD PUSH1 0x6 DUP3 ADD PUSH1 0x0 SWAP1 SLOAD SWAP1 PUSH2 0x100 EXP SWAP1 DIV PUSH20 0xFFFFFFFFFFFFFFFFFFFFFFFFFFFFFFFFFFFFFFFF AND PUSH20 0xFFFFFFFFFFFFFFFFFFFFFFFFFFFFFFFFFFFFFFFF AND PUSH20 0xFFFFFFFFFFFFFFFFFFFFFFFFFFFFFFFFFFFFFFFF AND DUP2 MSTORE PUSH1 0x20 ADD PUSH1 0x6 DUP3 ADD PUSH1 0x14 SWAP1 SLOAD SWAP1 PUSH2 0x100 EXP SWAP1 DIV PUSH1 0xFF AND ISZERO ISZERO ISZERO ISZERO DUP2 MSTORE PUSH1 0x20 ADD PUSH1 0x7 DUP3 ADD PUSH1 0x0 SWAP1 SLOAD SWAP1 PUSH2 0x100 EXP SWAP1 DIV PUSH20 0xFFFFFFFFFFFFFFFFFFFFFFFFFFFFFFFFFFFFFFFF AND PUSH20 0xFFFFFFFFFFFFFFFFFFFFFFFFFFFFFFFFFFFFFFFF AND PUSH20 0xFFFFFFFFFFFFFFFFFFFFFFFFFFFFFFFFFFFFFFFF AND DUP2 MSTORE PUSH1 0x20 ADD PUSH1 0x8 DUP3 ADD PUSH1 0x0 SWAP1 SLOAD SWAP1 PUSH2 0x100 EXP SWAP1 DIV PUSH20 0xFFFFFFFFFFFFFFFFFFFFFFFFFFFFFFFFFFFFFFFF AND PUSH20 0xFFFFFFFFFFFFFFFFFFFFFFFFFFFFFFFFFFFFFFFF AND PUSH20 0xFFFFFFFFFFFFFFFFFFFFFFFFFFFFFFFFFFFFFFFF AND DUP2 MSTORE POP POP DUP2 MSTORE PUSH1 0x20 ADD SWAP1 PUSH1 0x1 ADD SWAP1 PUSH3 0x1134 JUMP JUMPDEST POP POP POP POP SWAP1 POP SWAP1 JUMP JUMPDEST PUSH1 0x60 PUSH1 0x0 DUP1 PUSH1 0x0 JUMPDEST PUSH1 0x2 DUP1 SLOAD SWAP1 POP DUP2 LT ISZERO PUSH3 0x15A7 JUMPI CALLER PUSH20 0xFFFFFFFFFFFFFFFFFFFFFFFFFFFFFFFFFFFFFFFF AND PUSH1 0x2 DUP3 DUP2 SLOAD DUP2 LT PUSH3 0x14BF JUMPI PUSH3 0x14BE PUSH3 0x2631 JUMP JUMPDEST JUMPDEST SWAP1 PUSH1 0x0 MSTORE PUSH1 0x20 PUSH1 0x0 KECCAK256 ADD PUSH1 0x0 SWAP1 SLOAD SWAP1 PUSH2 0x100 EXP SWAP1 DIV PUSH20 0xFFFFFFFFFFFFFFFFFFFFFFFFFFFFFFFFFFFFFFFF AND PUSH20 0xFFFFFFFFFFFFFFFFFFFFFFFFFFFFFFFFFFFFFFFF AND EQ PUSH3 0x1599 JUMPI PUSH1 0x0 DUP1 PUSH1 0x2 DUP4 DUP2 SLOAD DUP2 LT PUSH3 0x1520 JUMPI PUSH3 0x151F PUSH3 0x2631 JUMP JUMPDEST JUMPDEST SWAP1 PUSH1 0x0 MSTORE PUSH1 0x20 PUSH1 0x0 KECCAK256 ADD PUSH1 0x0 SWAP1 SLOAD SWAP1 PUSH2 0x100 EXP SWAP1 DIV PUSH20 0xFFFFFFFFFFFFFFFFFFFFFFFFFFFFFFFFFFFFFFFF AND PUSH20 0xFFFFFFFFFFFFFFFFFFFFFFFFFFFFFFFFFFFFFFFF AND PUSH20 0xFFFFFFFFFFFFFFFFFFFFFFFFFFFFFFFFFFFFFFFF AND DUP2 MSTORE PUSH1 0x20 ADD SWAP1 DUP2 MSTORE PUSH1 0x20 ADD PUSH1 0x0 KECCAK256 DUP1 SLOAD SWAP1 POP DUP4 PUSH3 0x1596 SWAP2 SWAP1 PUSH3 0x2E0F JUMP JUMPDEST SWAP3 POP JUMPDEST DUP1 DUP1 PUSH1 0x1 ADD SWAP2 POP POP PUSH3 0x1483 JUMP JUMPDEST POP PUSH1 0x0 DUP3 PUSH8 0xFFFFFFFFFFFFFFFF DUP2 GT ISZERO PUSH3 0x15C7 JUMPI PUSH3 0x15C6 PUSH3 0x1E84 JUMP JUMPDEST JUMPDEST PUSH1 0x40 MLOAD SWAP1 DUP1 DUP3 MSTORE DUP1 PUSH1 0x20 MUL PUSH1 0x20 ADD DUP3 ADD PUSH1 0x40 MSTORE DUP1 ISZERO PUSH3 0x1604 JUMPI DUP2 PUSH1 0x20 ADD JUMPDEST PUSH3 0x15F0 PUSH3 0x1D58 JUMP JUMPDEST DUP2 MSTORE PUSH1 0x20 ADD SWAP1 PUSH1 0x1 SWAP1 SUB SWAP1 DUP2 PUSH3 0x15E6 JUMPI SWAP1 POP JUMPDEST POP SWAP1 POP PUSH1 0x0 JUMPDEST PUSH1 0x2 DUP1 SLOAD SWAP1 POP DUP2 LT ISZERO PUSH3 0x1AE4 JUMPI CALLER PUSH20 0xFFFFFFFFFFFFFFFFFFFFFFFFFFFFFFFFFFFFFFFF AND PUSH1 0x2 DUP3 DUP2 SLOAD DUP2 LT PUSH3 0x1646 JUMPI PUSH3 0x1645 PUSH3 0x2631 JUMP JUMPDEST JUMPDEST SWAP1 PUSH1 0x0 MSTORE PUSH1 0x20 PUSH1 0x0 KECCAK256 ADD PUSH1 0x0 SWAP1 SLOAD SWAP1 PUSH2 0x100 EXP SWAP1 DIV PUSH20 0xFFFFFFFFFFFFFFFFFFFFFFFFFFFFFFFFFFFFFFFF AND PUSH20 0xFFFFFFFFFFFFFFFFFFFFFFFFFFFFFFFFFFFFFFFF AND EQ PUSH3 0x1AD6 JUMPI PUSH1 0x0 DUP1 PUSH1 0x0 PUSH1 0x2 DUP5 DUP2 SLOAD DUP2 LT PUSH3 0x16A9 JUMPI PUSH3 0x16A8 PUSH3 0x2631 JUMP JUMPDEST JUMPDEST SWAP1 PUSH1 0x0 MSTORE PUSH1 0x20 PUSH1 0x0 KECCAK256 ADD PUSH1 0x0 SWAP1 SLOAD SWAP1 PUSH2 0x100 EXP SWAP1 DIV PUSH20 0xFFFFFFFFFFFFFFFFFFFFFFFFFFFFFFFFFFFFFFFF AND PUSH20 0xFFFFFFFFFFFFFFFFFFFFFFFFFFFFFFFFFFFFFFFF AND PUSH20 0xFFFFFFFFFFFFFFFFFFFFFFFFFFFFFFFFFFFFFFFF AND DUP2 MSTORE PUSH1 0x20 ADD SWAP1 DUP2 MSTORE PUSH1 0x20 ADD PUSH1 0x0 KECCAK256 SWAP1 POP PUSH1 0x0 JUMPDEST DUP2 DUP1 SLOAD SWAP1 POP DUP2 LT ISZERO PUSH3 0x1AD3 JUMPI DUP2 DUP2 DUP2 SLOAD DUP2 LT PUSH3 0x1736 JUMPI PUSH3 0x1735 PUSH3 0x2631 JUMP JUMPDEST JUMPDEST SWAP1 PUSH1 0x0 MSTORE PUSH1 0x20 PUSH1 0x0 KECCAK256 SWAP1 PUSH1 0x9 MUL ADD PUSH1 0x6 ADD PUSH1 0x14 SWAP1 SLOAD SWAP1 PUSH2 0x100 EXP SWAP1 DIV PUSH1 0xFF AND PUSH3 0x1AC5 JUMPI DUP2 DUP2 DUP2 SLOAD DUP2 LT PUSH3 0x1770 JUMPI PUSH3 0x176F PUSH3 0x2631 JUMP JUMPDEST JUMPDEST SWAP1 PUSH1 0x0 MSTORE PUSH1 0x20 PUSH1 0x0 KECCAK256 SWAP1 PUSH1 0x9 MUL ADD PUSH1 0x40 MLOAD DUP1 PUSH2 0x140 ADD PUSH1 0x40 MSTORE SWAP1 DUP2 PUSH1 0x0 DUP3 ADD SLOAD DUP2 MSTORE PUSH1 0x20 ADD PUSH1 0x1 DUP3 ADD DUP1 SLOAD PUSH3 0x17A6 SWAP1 PUSH3 0x2701 JUMP JUMPDEST DUP1 PUSH1 0x1F ADD PUSH1 0x20 DUP1 SWAP2 DIV MUL PUSH1 0x20 ADD PUSH1 0x40 MLOAD SWAP1 DUP2 ADD PUSH1 0x40 MSTORE DUP1 SWAP3 SWAP2 SWAP1 DUP2 DUP2 MSTORE PUSH1 0x20 ADD DUP3 DUP1 SLOAD PUSH3 0x17D4 SWAP1 PUSH3 0x2701 JUMP JUMPDEST DUP1 ISZERO PUSH3 0x1825 JUMPI DUP1 PUSH1 0x1F LT PUSH3 0x17F9 JUMPI PUSH2 0x100 DUP1 DUP4 SLOAD DIV MUL DUP4 MSTORE SWAP2 PUSH1 0x20 ADD SWAP2 PUSH3 0x1825 JUMP JUMPDEST DUP3 ADD SWAP2 SWAP1 PUSH1 0x0 MSTORE PUSH1 0x20 PUSH1 0x0 KECCAK256 SWAP1 JUMPDEST DUP2 SLOAD DUP2 MSTORE SWAP1 PUSH1 0x1 ADD SWAP1 PUSH1 0x20 ADD DUP1 DUP4 GT PUSH3 0x1807 JUMPI DUP3 SWAP1 SUB PUSH1 0x1F AND DUP3 ADD SWAP2 JUMPDEST POP POP POP POP POP DUP2 MSTORE PUSH1 0x20 ADD PUSH1 0x2 DUP3 ADD DUP1 SLOAD PUSH3 0x1840 SWAP1 PUSH3 0x2701 JUMP JUMPDEST DUP1 PUSH1 0x1F ADD PUSH1 0x20 DUP1 SWAP2 DIV MUL PUSH1 0x20 ADD PUSH1 0x40 MLOAD SWAP1 DUP2 ADD PUSH1 0x40 MSTORE DUP1 SWAP3 SWAP2 SWAP1 DUP2 DUP2 MSTORE PUSH1 0x20 ADD DUP3 DUP1 SLOAD PUSH3 0x186E SWAP1 PUSH3 0x2701 JUMP JUMPDEST DUP1 ISZERO PUSH3 0x18BF JUMPI DUP1 PUSH1 0x1F LT PUSH3 0x1893 JUMPI PUSH2 0x100 DUP1 DUP4 SLOAD DIV MUL DUP4 MSTORE SWAP2 PUSH1 0x20 ADD SWAP2 PUSH3 0x18BF JUMP JUMPDEST DUP3 ADD SWAP2 SWAP1 PUSH1 0x0 MSTORE PUSH1 0x20 PUSH1 0x0 KECCAK256 SWAP1 JUMPDEST DUP2 SLOAD DUP2 MSTORE SWAP1 PUSH1 0x1 ADD SWAP1 PUSH1 0x20 ADD DUP1 DUP4 GT PUSH3 0x18A1 JUMPI DUP3 SWAP1 SUB PUSH1 0x1F AND DUP3 ADD SWAP2 JUMPDEST POP POP POP POP POP DUP2 MSTORE PUSH1 0x20 ADD PUSH1 0x3 DUP3 ADD SLOAD DUP2 MSTORE PUSH1 0x20 ADD PUSH1 0x4 DUP3 ADD DUP1 SLOAD PUSH3 0x18E4 SWAP1 PUSH3 0x2701 JUMP JUMPDEST DUP1 PUSH1 0x1F ADD PUSH1 0x20 DUP1 SWAP2 DIV MUL PUSH1 0x20 ADD PUSH1 0x40 MLOAD SWAP1 DUP2 ADD PUSH1 0x40 MSTORE DUP1 SWAP3 SWAP2 SWAP1 DUP2 DUP2 MSTORE PUSH1 0x20 ADD DUP3 DUP1 SLOAD PUSH3 0x1912 SWAP1 PUSH3 0x2701 JUMP JUMPDEST DUP1 ISZERO PUSH3 0x1963 JUMPI DUP1 PUSH1 0x1F LT PUSH3 0x1937 JUMPI PUSH2 0x100 DUP1 DUP4 SLOAD DIV MUL DUP4 MSTORE SWAP2 PUSH1 0x20 ADD SWAP2 PUSH3 0x1963 JUMP JUMPDEST DUP3 ADD SWAP2 SWAP1 PUSH1 0x0 MSTORE PUSH1 0x20 PUSH1 0x0 KECCAK256 SWAP1 JUMPDEST DUP2 SLOAD DUP2 MSTORE SWAP1 PUSH1 0x1 ADD SWAP1 PUSH1 0x20 ADD DUP1 DUP4 GT PUSH3 0x1945 JUMPI DUP3 SWAP1 SUB PUSH1 0x1F AND DUP3 ADD SWAP2 JUMPDEST POP POP POP POP POP DUP2 MSTORE PUSH1 0x20 ADD PUSH1 0x5 DUP3 ADD SLOAD DUP2 MSTORE PUSH1 0x20 ADD PUSH1 0x6 DUP3 ADD PUSH1 0x0 SWAP1 SLOAD SWAP1 PUSH2 0x100 EXP SWAP1 DIV PUSH20 0xFFFFFFFFFFFFFFFFFFFFFFFFFFFFFFFFFFFFFFFF AND PUSH20 0xFFFFFFFFFFFFFFFFFFFFFFFFFFFFFFFFFFFFFFFF AND PUSH20 0xFFFFFFFFFFFFFFFFFFFFFFFFFFFFFFFFFFFFFFFF AND DUP2 MSTORE PUSH1 0x20 ADD PUSH1 0x6 DUP3 ADD PUSH1 0x14 SWAP1 SLOAD SWAP1 PUSH2 0x100 EXP SWAP1 DIV PUSH1 0xFF AND ISZERO ISZERO ISZERO ISZERO DUP2 MSTORE PUSH1 0x20 ADD PUSH1 0x7 DUP3 ADD PUSH1 0x0 SWAP1 SLOAD SWAP1 PUSH2 0x100 EXP SWAP1 DIV PUSH20 0xFFFFFFFFFFFFFFFFFFFFFFFFFFFFFFFFFFFFFFFF AND PUSH20 0xFFFFFFFFFFFFFFFFFFFFFFFFFFFFFFFFFFFFFFFF AND PUSH20 0xFFFFFFFFFFFFFFFFFFFFFFFFFFFFFFFFFFFFFFFF AND DUP2 MSTORE PUSH1 0x20 ADD PUSH1 0x8 DUP3 ADD PUSH1 0x0 SWAP1 SLOAD SWAP1 PUSH2 0x100 EXP SWAP1 DIV PUSH20 0xFFFFFFFFFFFFFFFFFFFFFFFFFFFFFFFFFFFFFFFF AND PUSH20 0xFFFFFFFFFFFFFFFFFFFFFFFFFFFFFFFFFFFFFFFF AND PUSH20 0xFFFFFFFFFFFFFFFFFFFFFFFFFFFFFFFFFFFFFFFF AND DUP2 MSTORE POP POP DUP5 DUP7 DUP2 MLOAD DUP2 LT PUSH3 0x1AA9 JUMPI PUSH3 0x1AA8 PUSH3 0x2631 JUMP JUMPDEST JUMPDEST PUSH1 0x20 MUL PUSH1 0x20 ADD ADD DUP2 SWAP1 MSTORE POP DUP5 DUP1 PUSH3 0x1AC1 SWAP1 PUSH3 0x2A86 JUMP JUMPDEST SWAP6 POP POP JUMPDEST DUP1 DUP1 PUSH1 0x1 ADD SWAP2 POP POP PUSH3 0x1713 JUMP JUMPDEST POP POP JUMPDEST DUP1 DUP1 PUSH1 0x1 ADD SWAP2 POP POP PUSH3 0x160A JUMP JUMPDEST POP PUSH3 0x1B26 PUSH1 0x40 MLOAD DUP1 PUSH1 0x40 ADD PUSH1 0x40 MSTORE DUP1 PUSH1 0xD DUP2 MSTORE PUSH1 0x20 ADD PUSH32 0x546F74616C204974656D733A2000000000000000000000000000000000000000 DUP2 MSTORE POP DUP5 PUSH3 0x1B76 JUMP JUMPDEST PUSH3 0x1B67 PUSH1 0x40 MLOAD DUP1 PUSH1 0x40 ADD PUSH1 0x40 MSTORE DUP1 PUSH1 0xF DUP2 MSTORE PUSH1 0x20 ADD PUSH32 0x43757272656E7420496E6465783A200000000000000000000000000000000000 DUP2 MSTORE POP DUP4 PUSH3 0x1B76 JUMP JUMPDEST DUP1 SWAP4 POP POP POP POP SWAP1 JUMP JUMPDEST PUSH1 0x1 SLOAD DUP2 JUMP JUMPDEST PUSH3 0x1C12 DUP3 DUP3 PUSH1 0x40 MLOAD PUSH1 0x24 ADD PUSH3 0x1B8F SWAP3 SWAP2 SWAP1 PUSH3 0x2E8B JUMP JUMPDEST PUSH1 0x40 MLOAD PUSH1 0x20 DUP2 DUP4 SUB SUB DUP2 MSTORE SWAP1 PUSH1 0x40 MSTORE PUSH32 0xB60E72CC00000000000000000000000000000000000000000000000000000000 PUSH28 0xFFFFFFFFFFFFFFFFFFFFFFFFFFFFFFFFFFFFFFFFFFFFFFFFFFFFFFFF NOT AND PUSH1 0x20 DUP3 ADD DUP1 MLOAD PUSH28 0xFFFFFFFFFFFFFFFFFFFFFFFFFFFFFFFFFFFFFFFFFFFFFFFFFFFFFFFF DUP4 DUP2 DUP4 AND OR DUP4 MSTORE POP POP POP POP PUSH3 0x1CB9 JUMP JUMPDEST POP POP JUMP JUMPDEST PUSH3 0x1CB4 DUP4 DUP4 DUP4 PUSH1 0x40 MLOAD PUSH1 0x24 ADD PUSH3 0x1C31 SWAP4 SWAP3 SWAP2 SWAP1 PUSH3 0x2EBF JUMP JUMPDEST PUSH1 0x40 MLOAD PUSH1 0x20 DUP2 DUP4 SUB SUB DUP2 MSTORE SWAP1 PUSH1 0x40 MSTORE PUSH32 0x95ED019500000000000000000000000000000000000000000000000000000000 PUSH28 0xFFFFFFFFFFFFFFFFFFFFFFFFFFFFFFFFFFFFFFFFFFFFFFFFFFFFFFFF NOT AND PUSH1 0x20 DUP3 ADD DUP1 MLOAD PUSH28 0xFFFFFFFFFFFFFFFFFFFFFFFFFFFFFFFFFFFFFFFFFFFFFFFFFFFFFFFF DUP4 DUP2 DUP4 AND OR DUP4 MSTORE POP POP POP POP PUSH3 0x1CB9 JUMP JUMPDEST POP POP POP JUMP JUMPDEST PUSH3 0x1CD4 DUP2 PUSH3 0x1CCC PUSH3 0x1CD7 PUSH3 0x1CF8 JUMP JUMPDEST PUSH4 0xFFFFFFFF AND JUMP JUMPDEST POP JUMP JUMPDEST PUSH1 0x0 PUSH11 0x636F6E736F6C652E6C6F67 SWAP1 POP PUSH1 0x0 DUP1 DUP4 MLOAD PUSH1 0x20 DUP6 ADD DUP5 GAS STATICCALL POP POP POP JUMP JUMPDEST PUSH3 0x1DEF DUP2 SWAP1 POP SWAP2 SWAP1 POP JUMP JUMPDEST POP DUP1 SLOAD PUSH3 0x1D12 SWAP1 PUSH3 0x2701 JUMP JUMPDEST PUSH1 0x0 DUP3 SSTORE DUP1 PUSH1 0x1F LT PUSH3 0x1D26 JUMPI POP PUSH3 0x1D47 JUMP JUMPDEST PUSH1 0x1F ADD PUSH1 0x20 SWAP1 DIV SWAP1 PUSH1 0x0 MSTORE PUSH1 0x20 PUSH1 0x0 KECCAK256 SWAP1 DUP2 ADD SWAP1 PUSH3 0x1D46 SWAP2 SWAP1 PUSH3 0x1DFB JUMP JUMPDEST JUMPDEST POP JUMP JUMPDEST PUSH2 0x8C3 DUP1 PUSH3 0x2F3A DUP4 CODECOPY ADD SWAP1 JUMP JUMPDEST PUSH1 0x40 MLOAD DUP1 PUSH2 0x140 ADD PUSH1 0x40 MSTORE DUP1 PUSH1 0x0 DUP2 MSTORE PUSH1 0x20 ADD PUSH1 0x60 DUP2 MSTORE PUSH1 0x20 ADD PUSH1 0x60 DUP2 MSTORE PUSH1 0x20 ADD PUSH1 0x0 DUP2 MSTORE PUSH1 0x20 ADD PUSH1 0x60 DUP2 MSTORE PUSH1 0x20 ADD PUSH1 0x0 DUP2 MSTORE PUSH1 0x20 ADD PUSH1 0x0 PUSH20 0xFFFFFFFFFFFFFFFFFFFFFFFFFFFFFFFFFFFFFFFF AND DUP2 MSTORE PUSH1 0x20 ADD PUSH1 0x0 ISZERO ISZERO DUP2 MSTORE PUSH1 0x20 ADD PUSH1 0x0 PUSH20 0xFFFFFFFFFFFFFFFFFFFFFFFFFFFFFFFFFFFFFFFF AND DUP2 MSTORE PUSH1 0x20 ADD PUSH1 0x0 PUSH20 0xFFFFFFFFFFFFFFFFFFFFFFFFFFFFFFFFFFFFFFFF AND DUP2 MSTORE POP SWAP1 JUMP JUMPDEST PUSH3 0x1DF9 PUSH3 0x2F0A JUMP JUMPDEST JUMP JUMPDEST JUMPDEST DUP1 DUP3 GT ISZERO PUSH3 0x1E16 JUMPI PUSH1 0x0 DUP2 PUSH1 0x0 SWAP1 SSTORE POP PUSH1 0x1 ADD PUSH3 0x1DFC JUMP JUMPDEST POP SWAP1 JUMP JUMPDEST PUSH1 0x0 PUSH1 0x40 MLOAD SWAP1 POP SWAP1 JUMP JUMPDEST PUSH1 0x0 DUP1 REVERT JUMPDEST PUSH1 0x0 DUP1 REVERT JUMPDEST PUSH1 0x0 DUP2 SWAP1 POP SWAP2 SWAP1 POP JUMP JUMPDEST PUSH3 0x1E43 DUP2 PUSH3 0x1E2E JUMP JUMPDEST DUP2 EQ PUSH3 0x1E4F JUMPI PUSH1 0x0 DUP1 REVERT JUMPDEST POP JUMP JUMPDEST PUSH1 0x0 DUP2 CALLDATALOAD SWAP1 POP PUSH3 0x1E63 DUP2 PUSH3 0x1E38 JUMP JUMPDEST SWAP3 SWAP2 POP POP JUMP JUMPDEST PUSH1 0x0 DUP1 REVERT JUMPDEST PUSH1 0x0 DUP1 REVERT JUMPDEST PUSH1 0x0 PUSH1 0x1F NOT PUSH1 0x1F DUP4 ADD AND SWAP1 POP SWAP2 SWAP1 POP JUMP JUMPDEST PUSH32 0x4E487B7100000000000000000000000000000000000000000000000000000000 PUSH1 0x0 MSTORE PUSH1 0x41 PUSH1 0x4 MSTORE PUSH1 0x24 PUSH1 0x0 REVERT JUMPDEST PUSH3 0x1EBE DUP3 PUSH3 0x1E73 JUMP JUMPDEST DUP2 ADD DUP2 DUP2 LT PUSH8 0xFFFFFFFFFFFFFFFF DUP3 GT OR ISZERO PUSH3 0x1EE0 JUMPI PUSH3 0x1EDF PUSH3 0x1E84 JUMP JUMPDEST JUMPDEST DUP1 PUSH1 0x40 MSTORE POP POP POP JUMP JUMPDEST PUSH1 0x0 PUSH3 0x1EF5 PUSH3 0x1E1A JUMP JUMPDEST SWAP1 POP PUSH3 0x1F03 DUP3 DUP3 PUSH3 0x1EB3 JUMP JUMPDEST SWAP2 SWAP1 POP JUMP JUMPDEST PUSH1 0x0 PUSH8 0xFFFFFFFFFFFFFFFF DUP3 GT ISZERO PUSH3 0x1F26 JUMPI PUSH3 0x1F25 PUSH3 0x1E84 JUMP JUMPDEST JUMPDEST PUSH3 0x1F31 DUP3 PUSH3 0x1E73 JUMP JUMPDEST SWAP1 POP PUSH1 0x20 DUP2 ADD SWAP1 POP SWAP2 SWAP1 POP JUMP JUMPDEST DUP3 DUP2 DUP4 CALLDATACOPY PUSH1 0x0 DUP4 DUP4 ADD MSTORE POP POP POP JUMP JUMPDEST PUSH1 0x0 PUSH3 0x1F64 PUSH3 0x1F5E DUP5 PUSH3 0x1F08 JUMP JUMPDEST PUSH3 0x1EE9 JUMP JUMPDEST SWAP1 POP DUP3 DUP2 MSTORE PUSH1 0x20 DUP2 ADD DUP5 DUP5 DUP5 ADD GT ISZERO PUSH3 0x1F83 JUMPI PUSH3 0x1F82 PUSH3 0x1E6E JUMP JUMPDEST JUMPDEST PUSH3 0x1F90 DUP5 DUP3 DUP6 PUSH3 0x1F3E JUMP JUMPDEST POP SWAP4 SWAP3 POP POP POP JUMP JUMPDEST PUSH1 0x0 DUP3 PUSH1 0x1F DUP4 ADD SLT PUSH3 0x1FB0 JUMPI PUSH3 0x1FAF PUSH3 0x1E69 JUMP JUMPDEST JUMPDEST DUP2 CALLDATALOAD PUSH3 0x1FC2 DUP5 DUP3 PUSH1 0x20 DUP7 ADD PUSH3 0x1F4D JUMP JUMPDEST SWAP2 POP POP SWAP3 SWAP2 POP POP JUMP JUMPDEST PUSH1 0x0 DUP1 PUSH1 0x0 DUP1 PUSH1 0x0 PUSH1 0xA0 DUP7 DUP9 SUB SLT ISZERO PUSH3 0x1FEA JUMPI PUSH3 0x1FE9 PUSH3 0x1E24 JUMP JUMPDEST JUMPDEST PUSH1 0x0 PUSH3 0x1FFA DUP9 DUP3 DUP10 ADD PUSH3 0x1E52 JUMP JUMPDEST SWAP6 POP POP PUSH1 0x20 DUP7 ADD CALLDATALOAD PUSH8 0xFFFFFFFFFFFFFFFF DUP2 GT ISZERO PUSH3 0x201E JUMPI PUSH3 0x201D PUSH3 0x1E29 JUMP JUMPDEST JUMPDEST PUSH3 0x202C DUP9 DUP3 DUP10 ADD PUSH3 0x1F98 JUMP JUMPDEST SWAP5 POP POP PUSH1 0x40 DUP7 ADD CALLDATALOAD PUSH8 0xFFFFFFFFFFFFFFFF DUP2 GT ISZERO PUSH3 0x2050 JUMPI PUSH3 0x204F PUSH3 0x1E29 JUMP JUMPDEST JUMPDEST PUSH3 0x205E DUP9 DUP3 DUP10 ADD PUSH3 0x1F98 JUMP JUMPDEST SWAP4 POP POP PUSH1 0x60 PUSH3 0x2071 DUP9 DUP3 DUP10 ADD PUSH3 0x1E52 JUMP JUMPDEST SWAP3 POP POP PUSH1 0x80 DUP7 ADD CALLDATALOAD PUSH8 0xFFFFFFFFFFFFFFFF DUP2 GT ISZERO PUSH3 0x2095 JUMPI PUSH3 0x2094 PUSH3 0x1E29 JUMP JUMPDEST JUMPDEST PUSH3 0x20A3 DUP9 DUP3 DUP10 ADD PUSH3 0x1F98 JUMP JUMPDEST SWAP2 POP POP SWAP3 SWAP6 POP SWAP3 SWAP6 SWAP1 SWAP4 POP JUMP JUMPDEST PUSH1 0x0 DUP1 PUSH1 0x0 DUP1 PUSH1 0x80 DUP6 DUP8 SUB SLT ISZERO PUSH3 0x20CD JUMPI PUSH3 0x20CC PUSH3 0x1E24 JUMP JUMPDEST JUMPDEST PUSH1 0x0 DUP6 ADD CALLDATALOAD PUSH8 0xFFFFFFFFFFFFFFFF DUP2 GT ISZERO PUSH3 0x20EE JUMPI PUSH3 0x20ED PUSH3 0x1E29 JUMP JUMPDEST JUMPDEST PUSH3 0x20FC DUP8 DUP3 DUP9 ADD PUSH3 0x1F98 JUMP JUMPDEST SWAP5 POP POP PUSH1 0x20 DUP6 ADD CALLDATALOAD PUSH8 0xFFFFFFFFFFFFFFFF DUP2 GT ISZERO PUSH3 0x2120 JUMPI PUSH3 0x211F PUSH3 0x1E29 JUMP JUMPDEST JUMPDEST PUSH3 0x212E DUP8 DUP3 DUP9 ADD PUSH3 0x1F98 JUMP JUMPDEST SWAP4 POP POP PUSH1 0x40 PUSH3 0x2141 DUP8 DUP3 DUP9 ADD PUSH3 0x1E52 JUMP JUMPDEST SWAP3 POP POP PUSH1 0x60 DUP6 ADD CALLDATALOAD PUSH8 0xFFFFFFFFFFFFFFFF DUP2 GT ISZERO PUSH3 0x2165 JUMPI PUSH3 0x2164 PUSH3 0x1E29 JUMP JUMPDEST JUMPDEST PUSH3 0x2173 DUP8 DUP3 DUP9 ADD PUSH3 0x1F98 JUMP JUMPDEST SWAP2 POP POP SWAP3 SWAP6 SWAP2 SWAP5 POP SWAP3 POP JUMP JUMPDEST PUSH1 0x0 PUSH1 0x20 DUP3 DUP5 SUB SLT ISZERO PUSH3 0x2198 JUMPI PUSH3 0x2197 PUSH3 0x1E24 JUMP JUMPDEST JUMPDEST PUSH1 0x0 PUSH3 0x21A8 DUP5 DUP3 DUP6 ADD PUSH3 0x1E52 JUMP JUMPDEST SWAP2 POP POP SWAP3 SWAP2 POP POP JUMP JUMPDEST PUSH1 0x0 PUSH20 0xFFFFFFFFFFFFFFFFFFFFFFFFFFFFFFFFFFFFFFFF DUP3 AND SWAP1 POP SWAP2 SWAP1 POP JUMP JUMPDEST PUSH1 0x0 PUSH3 0x21DE DUP3 PUSH3 0x21B1 JUMP JUMPDEST SWAP1 POP SWAP2 SWAP1 POP JUMP JUMPDEST PUSH3 0x21F0 DUP2 PUSH3 0x21D1 JUMP JUMPDEST DUP2 EQ PUSH3 0x21FC JUMPI PUSH1 0x0 DUP1 REVERT JUMPDEST POP JUMP JUMPDEST PUSH1 0x0 DUP2 CALLDATALOAD SWAP1 POP PUSH3 0x2210 DUP2 PUSH3 0x21E5 JUMP JUMPDEST SWAP3 SWAP2 POP POP JUMP JUMPDEST PUSH1 0x0 DUP1 PUSH1 0x40 DUP4 DUP6 SUB SLT ISZERO PUSH3 0x2230 JUMPI PUSH3 0x222F PUSH3 0x1E24 JUMP JUMPDEST JUMPDEST PUSH1 0x0 PUSH3 0x2240 DUP6 DUP3 DUP7 ADD PUSH3 0x1E52 JUMP JUMPDEST SWAP3 POP POP PUSH1 0x20 PUSH3 0x2253 DUP6 DUP3 DUP7 ADD PUSH3 0x21FF JUMP JUMPDEST SWAP2 POP POP SWAP3 POP SWAP3 SWAP1 POP JUMP JUMPDEST PUSH1 0x0 DUP2 MLOAD SWAP1 POP SWAP2 SWAP1 POP JUMP JUMPDEST PUSH1 0x0 DUP3 DUP3 MSTORE PUSH1 0x20 DUP3 ADD SWAP1 POP SWAP3 SWAP2 POP POP JUMP JUMPDEST PUSH1 0x0 DUP2 SWAP1 POP PUSH1 0x20 DUP3 ADD SWAP1 POP SWAP2 SWAP1 POP JUMP JUMPDEST PUSH3 0x2294 DUP2 PUSH3 0x1E2E JUMP JUMPDEST DUP3 MSTORE POP POP JUMP JUMPDEST PUSH1 0x0 DUP2 MLOAD SWAP1 POP SWAP2 SWAP1 POP JUMP JUMPDEST PUSH1 0x0 DUP3 DUP3 MSTORE PUSH1 0x20 DUP3 ADD SWAP1 POP SWAP3 SWAP2 POP POP JUMP JUMPDEST PUSH1 0x0 JUMPDEST DUP4 DUP2 LT ISZERO PUSH3 0x22D6 JUMPI DUP1 DUP3 ADD MLOAD DUP2 DUP5 ADD MSTORE PUSH1 0x20 DUP2 ADD SWAP1 POP PUSH3 0x22B9 JUMP JUMPDEST PUSH1 0x0 DUP5 DUP5 ADD MSTORE POP POP POP POP JUMP JUMPDEST PUSH1 0x0 PUSH3 0x22EF DUP3 PUSH3 0x229A JUMP JUMPDEST PUSH3 0x22FB DUP2 DUP6 PUSH3 0x22A5 JUMP JUMPDEST SWAP4 POP PUSH3 0x230D DUP2 DUP6 PUSH1 0x20 DUP7 ADD PUSH3 0x22B6 JUMP JUMPDEST PUSH3 0x2318 DUP2 PUSH3 0x1E73 JUMP JUMPDEST DUP5 ADD SWAP2 POP POP SWAP3 SWAP2 POP POP JUMP JUMPDEST PUSH3 0x232E DUP2 PUSH3 0x21D1 JUMP JUMPDEST DUP3 MSTORE POP POP JUMP JUMPDEST PUSH1 0x0 DUP2 ISZERO ISZERO SWAP1 POP SWAP2 SWAP1 POP JUMP JUMPDEST PUSH3 0x234B DUP2 PUSH3 0x2334 JUMP JUMPDEST DUP3 MSTORE POP POP JUMP JUMPDEST PUSH1 0x0 DUP2 SWAP1 POP SWAP2 SWAP1 POP JUMP JUMPDEST PUSH1 0x0 PUSH3 0x237C PUSH3 0x2376 PUSH3 0x2370 DUP5 PUSH3 0x21B1 JUMP JUMPDEST PUSH3 0x2351 JUMP JUMPDEST PUSH3 0x21B1 JUMP JUMPDEST SWAP1 POP SWAP2 SWAP1 POP JUMP JUMPDEST PUSH1 0x0 PUSH3 0x2390 DUP3 PUSH3 0x235B JUMP JUMPDEST SWAP1 POP SWAP2 SWAP1 POP JUMP JUMPDEST PUSH1 0x0 PUSH3 0x23A4 DUP3 PUSH3 0x2383 JUMP JUMPDEST SWAP1 POP SWAP2 SWAP1 POP JUMP JUMPDEST PUSH3 0x23B6 DUP2 PUSH3 0x2397 JUMP JUMPDEST DUP3 MSTORE POP POP JUMP JUMPDEST PUSH1 0x0 PUSH2 0x140 DUP4 ADD PUSH1 0x0 DUP4 ADD MLOAD PUSH3 0x23D7 PUSH1 0x0 DUP7 ADD DUP3 PUSH3 0x2289 JUMP JUMPDEST POP PUSH1 0x20 DUP4 ADD MLOAD DUP5 DUP3 SUB PUSH1 0x20 DUP7 ADD MSTORE PUSH3 0x23F1 DUP3 DUP3 PUSH3 0x22E2 JUMP JUMPDEST SWAP2 POP POP PUSH1 0x40 DUP4 ADD MLOAD DUP5 DUP3 SUB PUSH1 0x40 DUP7 ADD MSTORE PUSH3 0x240D DUP3 DUP3 PUSH3 0x22E2 JUMP JUMPDEST SWAP2 POP POP PUSH1 0x60 DUP4 ADD MLOAD PUSH3 0x2424 PUSH1 0x60 DUP7 ADD DUP3 PUSH3 0x2289 JUMP JUMPDEST POP PUSH1 0x80 DUP4 ADD MLOAD DUP5 DUP3 SUB PUSH1 0x80 DUP7 ADD MSTORE PUSH3 0x243E DUP3 DUP3 PUSH3 0x22E2 JUMP JUMPDEST SWAP2 POP POP PUSH1 0xA0 DUP4 ADD MLOAD PUSH3 0x2455 PUSH1 0xA0 DUP7 ADD DUP3 PUSH3 0x2289 JUMP JUMPDEST POP PUSH1 0xC0 DUP4 ADD MLOAD PUSH3 0x246A PUSH1 0xC0 DUP7 ADD DUP3 PUSH3 0x2323 JUMP JUMPDEST POP PUSH1 0xE0 DUP4 ADD MLOAD PUSH3 0x247F PUSH1 0xE0 DUP7 ADD DUP3 PUSH3 0x2340 JUMP JUMPDEST POP PUSH2 0x100 DUP4 ADD MLOAD PUSH3 0x2496 PUSH2 0x100 DUP7 ADD DUP3 PUSH3 0x23AB JUMP JUMPDEST POP PUSH2 0x120 DUP4 ADD MLOAD PUSH3 0x24AD PUSH2 0x120 DUP7 ADD DUP3 PUSH3 0x2323 JUMP JUMPDEST POP DUP1 SWAP2 POP POP SWAP3 SWAP2 POP POP JUMP JUMPDEST PUSH1 0x0 PUSH3 0x24C6 DUP4 DUP4 PUSH3 0x23BC JUMP JUMPDEST SWAP1 POP SWAP3 SWAP2 POP POP JUMP JUMPDEST PUSH1 0x0 PUSH1 0x20 DUP3 ADD SWAP1 POP SWAP2 SWAP1 POP JUMP JUMPDEST PUSH1 0x0 PUSH3 0x24E8 DUP3 PUSH3 0x225D JUMP JUMPDEST PUSH3 0x24F4 DUP2 DUP6 PUSH3 0x2268 JUMP JUMPDEST SWAP4 POP DUP4 PUSH1 0x20 DUP3 MUL DUP6 ADD PUSH3 0x2508 DUP6 PUSH3 0x2279 JUMP JUMPDEST DUP1 PUSH1 0x0 JUMPDEST DUP6 DUP2 LT ISZERO PUSH3 0x254A JUMPI DUP5 DUP5 SUB DUP10 MSTORE DUP2 MLOAD PUSH3 0x2528 DUP6 DUP3 PUSH3 0x24B8 JUMP JUMPDEST SWAP5 POP PUSH3 0x2535 DUP4 PUSH3 0x24CE JUMP JUMPDEST SWAP3 POP PUSH1 0x20 DUP11 ADD SWAP10 POP POP PUSH1 0x1 DUP2 ADD SWAP1 POP PUSH3 0x250C JUMP JUMPDEST POP DUP3 SWAP8 POP DUP8 SWAP6 POP POP POP POP POP POP SWAP3 SWAP2 POP POP JUMP JUMPDEST PUSH1 0x0 PUSH1 0x20 DUP3 ADD SWAP1 POP DUP2 DUP2 SUB PUSH1 0x0 DUP4 ADD MSTORE PUSH3 0x2578 DUP2 DUP5 PUSH3 0x24DB JUMP JUMPDEST SWAP1 POP SWAP3 SWAP2 POP POP JUMP JUMPDEST PUSH3 0x258B DUP2 PUSH3 0x1E2E JUMP JUMPDEST DUP3 MSTORE POP POP JUMP JUMPDEST PUSH1 0x0 PUSH1 0x20 DUP3 ADD SWAP1 POP PUSH3 0x25A8 PUSH1 0x0 DUP4 ADD DUP5 PUSH3 0x2580 JUMP JUMPDEST SWAP3 SWAP2 POP POP JUMP JUMPDEST PUSH1 0x0 DUP3 DUP3 MSTORE PUSH1 0x20 DUP3 ADD SWAP1 POP SWAP3 SWAP2 POP POP JUMP JUMPDEST PUSH32 0x496E76616C6964206974656D2049440000000000000000000000000000000000 PUSH1 0x0 DUP3 ADD MSTORE POP JUMP JUMPDEST PUSH1 0x0 PUSH3 0x25F7 PUSH1 0xF DUP4 PUSH3 0x25AE JUMP JUMPDEST SWAP2 POP PUSH3 0x2604 DUP3 PUSH3 0x25BF JUMP JUMPDEST PUSH1 0x20 DUP3 ADD SWAP1 POP SWAP2 SWAP1 POP JUMP JUMPDEST PUSH1 0x0 PUSH1 0x20 DUP3 ADD SWAP1 POP DUP2 DUP2 SUB PUSH1 0x0 DUP4 ADD MSTORE PUSH3 0x262A DUP2 PUSH3 0x25E8 JUMP JUMPDEST SWAP1 POP SWAP2 SWAP1 POP JUMP JUMPDEST PUSH32 0x4E487B7100000000000000000000000000000000000000000000000000000000 PUSH1 0x0 MSTORE PUSH1 0x32 PUSH1 0x4 MSTORE PUSH1 0x24 PUSH1 0x0 REVERT JUMPDEST PUSH32 0x4974656D20616C726561647920736F6C64000000000000000000000000000000 PUSH1 0x0 DUP3 ADD MSTORE POP JUMP JUMPDEST PUSH1 0x0 PUSH3 0x2698 PUSH1 0x11 DUP4 PUSH3 0x25AE JUMP JUMPDEST SWAP2 POP PUSH3 0x26A5 DUP3 PUSH3 0x2660 JUMP JUMPDEST PUSH1 0x20 DUP3 ADD SWAP1 POP SWAP2 SWAP1 POP JUMP JUMPDEST PUSH1 0x0 PUSH1 0x20 DUP3 ADD SWAP1 POP DUP2 DUP2 SUB PUSH1 0x0 DUP4 ADD MSTORE PUSH3 0x26CB DUP2 PUSH3 0x2689 JUMP JUMPDEST SWAP1 POP SWAP2 SWAP1 POP JUMP JUMPDEST PUSH32 0x4E487B7100000000000000000000000000000000000000000000000000000000 PUSH1 0x0 MSTORE PUSH1 0x22 PUSH1 0x4 MSTORE PUSH1 0x24 PUSH1 0x0 REVERT JUMPDEST PUSH1 0x0 PUSH1 0x2 DUP3 DIV SWAP1 POP PUSH1 0x1 DUP3 AND DUP1 PUSH3 0x271A JUMPI PUSH1 0x7F DUP3 AND SWAP2 POP JUMPDEST PUSH1 0x20 DUP3 LT DUP2 SUB PUSH3 0x2730 JUMPI PUSH3 0x272F PUSH3 0x26D2 JUMP JUMPDEST JUMPDEST POP SWAP2 SWAP1 POP JUMP JUMPDEST PUSH1 0x0 DUP2 SWAP1 POP DUP2 PUSH1 0x0 MSTORE PUSH1 0x20 PUSH1 0x0 KECCAK256 SWAP1 POP SWAP2 SWAP1 POP JUMP JUMPDEST PUSH1 0x0 PUSH1 0x20 PUSH1 0x1F DUP4 ADD DIV SWAP1 POP SWAP2 SWAP1 POP JUMP JUMPDEST PUSH1 0x0 DUP3 DUP3 SHL SWAP1 POP SWAP3 SWAP2 POP POP JUMP JUMPDEST PUSH1 0x0 PUSH1 0x8 DUP4 MUL PUSH3 0x279A PUSH32 0xFFFFFFFFFFFFFFFFFFFFFFFFFFFFFFFFFFFFFFFFFFFFFFFFFFFFFFFFFFFFFFFF DUP3 PUSH3 0x275B JUMP JUMPDEST PUSH3 0x27A6 DUP7 DUP4 PUSH3 0x275B JUMP JUMPDEST SWAP6 POP DUP1 NOT DUP5 AND SWAP4 POP DUP1 DUP7 AND DUP5 OR SWAP3 POP POP POP SWAP4 SWAP3 POP POP POP JUMP JUMPDEST PUSH1 0x0 PUSH3 0x27DF PUSH3 0x27D9 PUSH3 0x27D3 DUP5 PUSH3 0x1E2E JUMP JUMPDEST PUSH3 0x2351 JUMP JUMPDEST PUSH3 0x1E2E JUMP JUMPDEST SWAP1 POP SWAP2 SWAP1 POP JUMP JUMPDEST PUSH1 0x0 DUP2 SWAP1 POP SWAP2 SWAP1 POP JUMP JUMPDEST PUSH3 0x27FB DUP4 PUSH3 0x27BE JUMP JUMPDEST PUSH3 0x2813 PUSH3 0x280A DUP3 PUSH3 0x27E6 JUMP JUMPDEST DUP5 DUP5 SLOAD PUSH3 0x2768 JUMP JUMPDEST DUP3 SSTORE POP POP POP POP JUMP JUMPDEST PUSH1 0x0 SWAP1 JUMP JUMPDEST PUSH3 0x282A PUSH3 0x281B JUMP JUMPDEST PUSH3 0x2837 DUP2 DUP5 DUP5 PUSH3 0x27F0 JUMP JUMPDEST POP POP POP JUMP JUMPDEST JUMPDEST DUP2 DUP2 LT ISZERO PUSH3 0x285F JUMPI PUSH3 0x2853 PUSH1 0x0 DUP3 PUSH3 0x2820 JUMP JUMPDEST PUSH1 0x1 DUP2 ADD SWAP1 POP PUSH3 0x283D JUMP JUMPDEST POP POP JUMP JUMPDEST PUSH1 0x1F DUP3 GT ISZERO PUSH3 0x28AE JUMPI PUSH3 0x2878 DUP2 PUSH3 0x2736 JUMP JUMPDEST PUSH3 0x2883 DUP5 PUSH3 0x274B JUMP JUMPDEST DUP2 ADD PUSH1 0x20 DUP6 LT ISZERO PUSH3 0x2893 JUMPI DUP2 SWAP1 POP JUMPDEST PUSH3 0x28AB PUSH3 0x28A2 DUP6 PUSH3 0x274B JUMP JUMPDEST DUP4 ADD DUP3 PUSH3 0x283C JUMP JUMPDEST POP POP JUMPDEST POP POP POP JUMP JUMPDEST PUSH1 0x0 DUP3 DUP3 SHR SWAP1 POP SWAP3 SWAP2 POP POP JUMP JUMPDEST PUSH1 0x0 PUSH3 0x28D3 PUSH1 0x0 NOT DUP5 PUSH1 0x8 MUL PUSH3 0x28B3 JUMP JUMPDEST NOT DUP1 DUP4 AND SWAP2 POP POP SWAP3 SWAP2 POP POP JUMP JUMPDEST PUSH1 0x0 PUSH3 0x28EE DUP4 DUP4 PUSH3 0x28C0 JUMP JUMPDEST SWAP2 POP DUP3 PUSH1 0x2 MUL DUP3 OR SWAP1 POP SWAP3 SWAP2 POP POP JUMP JUMPDEST PUSH3 0x2909 DUP3 PUSH3 0x229A JUMP JUMPDEST PUSH8 0xFFFFFFFFFFFFFFFF DUP2 GT ISZERO PUSH3 0x2925 JUMPI PUSH3 0x2924 PUSH3 0x1E84 JUMP JUMPDEST JUMPDEST PUSH3 0x2931 DUP3 SLOAD PUSH3 0x2701 JUMP JUMPDEST PUSH3 0x293E DUP3 DUP3 DUP6 PUSH3 0x2863 JUMP JUMPDEST PUSH1 0x0 PUSH1 0x20 SWAP1 POP PUSH1 0x1F DUP4 GT PUSH1 0x1 DUP2 EQ PUSH3 0x2976 JUMPI PUSH1 0x0 DUP5 ISZERO PUSH3 0x2961 JUMPI DUP3 DUP8 ADD MLOAD SWAP1 POP JUMPDEST PUSH3 0x296D DUP6 DUP3 PUSH3 0x28E0 JUMP JUMPDEST DUP7 SSTORE POP PUSH3 0x29DD JUMP JUMPDEST PUSH1 0x1F NOT DUP5 AND PUSH3 0x2986 DUP7 PUSH3 0x2736 JUMP JUMPDEST PUSH1 0x0 JUMPDEST DUP3 DUP2 LT ISZERO PUSH3 0x29B0 JUMPI DUP5 DUP10 ADD MLOAD DUP3 SSTORE PUSH1 0x1 DUP3 ADD SWAP2 POP PUSH1 0x20 DUP6 ADD SWAP5 POP PUSH1 0x20 DUP2 ADD SWAP1 POP PUSH3 0x2989 JUMP JUMPDEST DUP7 DUP4 LT ISZERO PUSH3 0x29D0 JUMPI DUP5 DUP10 ADD MLOAD PUSH3 0x29CC PUSH1 0x1F DUP10 AND DUP3 PUSH3 0x28C0 JUMP JUMPDEST DUP4 SSTORE POP JUMPDEST PUSH1 0x1 PUSH1 0x2 DUP9 MUL ADD DUP9 SSTORE POP POP POP JUMPDEST POP POP POP POP POP POP JUMP JUMPDEST PUSH32 0x4974656D20646F6573206E6F742062656C6F6E6720746F2073656E6465720000 PUSH1 0x0 DUP3 ADD MSTORE POP JUMP JUMPDEST PUSH1 0x0 PUSH3 0x2A1D PUSH1 0x1E DUP4 PUSH3 0x25AE JUMP JUMPDEST SWAP2 POP PUSH3 0x2A2A DUP3 PUSH3 0x29E5 JUMP JUMPDEST PUSH1 0x20 DUP3 ADD SWAP1 POP SWAP2 SWAP1 POP JUMP JUMPDEST PUSH1 0x0 PUSH1 0x20 DUP3 ADD SWAP1 POP DUP2 DUP2 SUB PUSH1 0x0 DUP4 ADD MSTORE PUSH3 0x2A50 DUP2 PUSH3 0x2A0E JUMP JUMPDEST SWAP1 POP SWAP2 SWAP1 POP JUMP JUMPDEST PUSH32 0x4E487B7100000000000000000000000000000000000000000000000000000000 PUSH1 0x0 MSTORE PUSH1 0x11 PUSH1 0x4 MSTORE PUSH1 0x24 PUSH1 0x0 REVERT JUMPDEST PUSH1 0x0 PUSH3 0x2A93 DUP3 PUSH3 0x1E2E JUMP JUMPDEST SWAP2 POP PUSH32 0xFFFFFFFFFFFFFFFFFFFFFFFFFFFFFFFFFFFFFFFFFFFFFFFFFFFFFFFFFFFFFFFF DUP3 SUB PUSH3 0x2AC8 JUMPI PUSH3 0x2AC7 PUSH3 0x2A57 JUMP JUMPDEST JUMPDEST PUSH1 0x1 DUP3 ADD SWAP1 POP SWAP2 SWAP1 POP JUMP JUMPDEST PUSH32 0x4974656D20646F6573206E6F7420657869737400000000000000000000000000 PUSH1 0x0 DUP3 ADD MSTORE POP JUMP JUMPDEST PUSH1 0x0 PUSH3 0x2B0B PUSH1 0x13 DUP4 PUSH3 0x25AE JUMP JUMPDEST SWAP2 POP PUSH3 0x2B18 DUP3 PUSH3 0x2AD3 JUMP JUMPDEST PUSH1 0x20 DUP3 ADD SWAP1 POP SWAP2 SWAP1 POP JUMP JUMPDEST PUSH1 0x0 PUSH1 0x20 DUP3 ADD SWAP1 POP DUP2 DUP2 SUB PUSH1 0x0 DUP4 ADD MSTORE PUSH3 0x2B3E DUP2 PUSH3 0x2AFC JUMP JUMPDEST SWAP1 POP SWAP2 SWAP1 POP JUMP JUMPDEST PUSH1 0x0 PUSH3 0x2B52 DUP3 PUSH3 0x1E2E JUMP JUMPDEST SWAP2 POP PUSH3 0x2B5F DUP4 PUSH3 0x1E2E JUMP JUMPDEST SWAP3 POP DUP3 DUP3 SUB SWAP1 POP DUP2 DUP2 GT ISZERO PUSH3 0x2B7A JUMPI PUSH3 0x2B79 PUSH3 0x2A57 JUMP JUMPDEST JUMPDEST SWAP3 SWAP2 POP POP JUMP JUMPDEST PUSH1 0x0 DUP2 SLOAD SWAP1 POP PUSH3 0x2B91 DUP2 PUSH3 0x2701 JUMP JUMPDEST SWAP1 POP SWAP2 SWAP1 POP JUMP JUMPDEST DUP2 DUP2 SUB PUSH3 0x2BA8 JUMPI POP POP PUSH3 0x2C97 JUMP JUMPDEST PUSH3 0x2BB3 DUP3 PUSH3 0x2B80 JUMP JUMPDEST PUSH8 0xFFFFFFFFFFFFFFFF DUP2 GT ISZERO PUSH3 0x2BCF JUMPI PUSH3 0x2BCE PUSH3 0x1E84 JUMP JUMPDEST JUMPDEST PUSH3 0x2BDB DUP3 SLOAD PUSH3 0x2701 JUMP JUMPDEST PUSH3 0x2BE8 DUP3 DUP3 DUP6 PUSH3 0x2863 JUMP JUMPDEST PUSH1 0x0 PUSH1 0x1F DUP4 GT PUSH1 0x1 DUP2 EQ PUSH3 0x2C1C JUMPI PUSH1 0x0 DUP5 ISZERO PUSH3 0x2C07 JUMPI DUP3 DUP8 ADD SLOAD SWAP1 POP JUMPDEST PUSH3 0x2C13 DUP6 DUP3 PUSH3 0x28E0 JUMP JUMPDEST DUP7 SSTORE POP PUSH3 0x2C90 JUMP JUMPDEST PUSH1 0x1F NOT DUP5 AND PUSH3 0x2C2C DUP8 PUSH3 0x2736 JUMP JUMPDEST SWAP7 POP PUSH3 0x2C39 DUP7 PUSH3 0x2736 JUMP JUMPDEST PUSH1 0x0 JUMPDEST DUP3 DUP2 LT ISZERO PUSH3 0x2C63 JUMPI DUP5 DUP10 ADD SLOAD DUP3 SSTORE PUSH1 0x1 DUP3 ADD SWAP2 POP PUSH1 0x1 DUP6 ADD SWAP5 POP PUSH1 0x20 DUP2 ADD SWAP1 POP PUSH3 0x2C3C JUMP JUMPDEST DUP7 DUP4 LT ISZERO PUSH3 0x2C83 JUMPI DUP5 DUP10 ADD SLOAD PUSH3 0x2C7F PUSH1 0x1F DUP10 AND DUP3 PUSH3 0x28C0 JUMP JUMPDEST DUP4 SSTORE POP JUMPDEST PUSH1 0x1 PUSH1 0x2 DUP9 MUL ADD DUP9 SSTORE POP POP POP JUMPDEST POP POP POP POP POP POP JUMPDEST JUMP JUMPDEST PUSH32 0x4E487B7100000000000000000000000000000000000000000000000000000000 PUSH1 0x0 MSTORE PUSH1 0x31 PUSH1 0x4 MSTORE PUSH1 0x24 PUSH1 0x0 REVERT JUMPDEST PUSH32 0x4974656D206E6F7420666F756E64000000000000000000000000000000000000 PUSH1 0x0 DUP3 ADD MSTORE POP JUMP JUMPDEST PUSH1 0x0 PUSH3 0x2D00 PUSH1 0xE DUP4 PUSH3 0x25AE JUMP JUMPDEST SWAP2 POP PUSH3 0x2D0D DUP3 PUSH3 0x2CC8 JUMP JUMPDEST PUSH1 0x20 DUP3 ADD SWAP1 POP SWAP2 SWAP1 POP JUMP JUMPDEST PUSH1 0x0 PUSH1 0x20 DUP3 ADD SWAP1 POP DUP2 DUP2 SUB PUSH1 0x0 DUP4 ADD MSTORE PUSH3 0x2D33 DUP2 PUSH3 0x2CF1 JUMP JUMPDEST SWAP1 POP SWAP2 SWAP1 POP JUMP JUMPDEST PUSH32 0x496E636F727265637420616D6F756E74206F662065746865722073656E740000 PUSH1 0x0 DUP3 ADD MSTORE POP JUMP JUMPDEST PUSH1 0x0 PUSH3 0x2D72 PUSH1 0x1E DUP4 PUSH3 0x25AE JUMP JUMPDEST SWAP2 POP PUSH3 0x2D7F DUP3 PUSH3 0x2D3A JUMP JUMPDEST PUSH1 0x20 DUP3 ADD SWAP1 POP SWAP2 SWAP1 POP JUMP JUMPDEST PUSH1 0x0 PUSH1 0x20 DUP3 ADD SWAP1 POP DUP2 DUP2 SUB PUSH1 0x0 DUP4 ADD MSTORE PUSH3 0x2DA5 DUP2 PUSH3 0x2D63 JUMP JUMPDEST SWAP1 POP SWAP2 SWAP1 POP JUMP JUMPDEST PUSH3 0x2DB7 DUP2 PUSH3 0x21D1 JUMP JUMPDEST DUP3 MSTORE POP POP JUMP JUMPDEST PUSH1 0x0 PUSH3 0x2DCA DUP3 PUSH3 0x21B1 JUMP JUMPDEST SWAP1 POP SWAP2 SWAP1 POP JUMP JUMPDEST PUSH3 0x2DDC DUP2 PUSH3 0x2DBD JUMP JUMPDEST DUP3 MSTORE POP POP JUMP JUMPDEST PUSH1 0x0 PUSH1 0x40 DUP3 ADD SWAP1 POP PUSH3 0x2DF9 PUSH1 0x0 DUP4 ADD DUP6 PUSH3 0x2DAC JUMP JUMPDEST PUSH3 0x2E08 PUSH1 0x20 DUP4 ADD DUP5 PUSH3 0x2DD1 JUMP JUMPDEST SWAP4 SWAP3 POP POP POP JUMP JUMPDEST PUSH1 0x0 PUSH3 0x2E1C DUP3 PUSH3 0x1E2E JUMP JUMPDEST SWAP2 POP PUSH3 0x2E29 DUP4 PUSH3 0x1E2E JUMP JUMPDEST SWAP3 POP DUP3 DUP3 ADD SWAP1 POP DUP1 DUP3 GT ISZERO PUSH3 0x2E44 JUMPI PUSH3 0x2E43 PUSH3 0x2A57 JUMP JUMPDEST JUMPDEST SWAP3 SWAP2 POP POP JUMP JUMPDEST PUSH1 0x0 PUSH3 0x2E57 DUP3 PUSH3 0x229A JUMP JUMPDEST PUSH3 0x2E63 DUP2 DUP6 PUSH3 0x25AE JUMP JUMPDEST SWAP4 POP PUSH3 0x2E75 DUP2 DUP6 PUSH1 0x20 DUP7 ADD PUSH3 0x22B6 JUMP JUMPDEST PUSH3 0x2E80 DUP2 PUSH3 0x1E73 JUMP JUMPDEST DUP5 ADD SWAP2 POP POP SWAP3 SWAP2 POP POP JUMP JUMPDEST PUSH1 0x0 PUSH1 0x40 DUP3 ADD SWAP1 POP DUP2 DUP2 SUB PUSH1 0x0 DUP4 ADD MSTORE PUSH3 0x2EA7 DUP2 DUP6 PUSH3 0x2E4A JUMP JUMPDEST SWAP1 POP PUSH3 0x2EB8 PUSH1 0x20 DUP4 ADD DUP5 PUSH3 0x2580 JUMP JUMPDEST SWAP4 SWAP3 POP POP POP JUMP JUMPDEST PUSH1 0x0 PUSH1 0x60 DUP3 ADD SWAP1 POP DUP2 DUP2 SUB PUSH1 0x0 DUP4 ADD MSTORE PUSH3 0x2EDB DUP2 DUP7 PUSH3 0x2E4A JUMP JUMPDEST SWAP1 POP DUP2 DUP2 SUB PUSH1 0x20 DUP4 ADD MSTORE PUSH3 0x2EF1 DUP2 DUP6 PUSH3 0x2E4A JUMP JUMPDEST SWAP1 POP PUSH3 0x2F02 PUSH1 0x40 DUP4 ADD DUP5 PUSH3 0x2DAC JUMP JUMPDEST SWAP5 SWAP4 POP POP POP POP JUMP JUMPDEST PUSH32 0x4E487B7100000000000000000000000000000000000000000000000000000000 PUSH1 0x0 MSTORE PUSH1 0x51 PUSH1 0x4 MSTORE PUSH1 0x24 PUSH1 0x0 REVERT INVALID PUSH1 0x80 PUSH1 0x40 MSTORE PUSH1 0x40 MLOAD PUSH2 0x8C3 CODESIZE SUB DUP1 PUSH2 0x8C3 DUP4 CODECOPY DUP2 DUP2 ADD PUSH1 0x40 MSTORE DUP2 ADD SWAP1 PUSH2 0x25 SWAP2 SWAP1 PUSH2 0x179 JUMP JUMPDEST DUP2 PUSH1 0x0 PUSH1 0x1 PUSH2 0x100 EXP DUP2 SLOAD DUP2 PUSH20 0xFFFFFFFFFFFFFFFFFFFFFFFFFFFFFFFFFFFFFFFF MUL NOT AND SWAP1 DUP4 PUSH20 0xFFFFFFFFFFFFFFFFFFFFFFFFFFFFFFFFFFFFFFFF AND MUL OR SWAP1 SSTORE POP DUP1 PUSH1 0x1 PUSH1 0x0 PUSH2 0x100 EXP DUP2 SLOAD DUP2 PUSH20 0xFFFFFFFFFFFFFFFFFFFFFFFFFFFFFFFFFFFFFFFF MUL NOT AND SWAP1 DUP4 PUSH20 0xFFFFFFFFFFFFFFFFFFFFFFFFFFFFFFFFFFFFFFFF AND MUL OR SWAP1 SSTORE POP PUSH1 0x0 DUP1 PUSH1 0x0 PUSH2 0x100 EXP DUP2 SLOAD DUP2 PUSH1 0xFF MUL NOT AND SWAP1 DUP4 PUSH1 0x2 DUP2 GT ISZERO PUSH2 0xCC JUMPI PUSH2 0xCB PUSH2 0x1B9 JUMP JUMPDEST JUMPDEST MUL OR SWAP1 SSTORE POP POP POP PUSH2 0x1E8 JUMP JUMPDEST PUSH1 0x0 DUP1 REVERT JUMPDEST PUSH1 0x0 PUSH20 0xFFFFFFFFFFFFFFFFFFFFFFFFFFFFFFFFFFFFFFFF DUP3 AND SWAP1 POP SWAP2 SWAP1 POP JUMP JUMPDEST PUSH1 0x0 PUSH2 0x108 DUP3 PUSH2 0xDD JUMP JUMPDEST SWAP1 POP SWAP2 SWAP1 POP JUMP JUMPDEST PUSH2 0x118 DUP2 PUSH2 0xFD JUMP JUMPDEST DUP2 EQ PUSH2 0x123 JUMPI PUSH1 0x0 DUP1 REVERT JUMPDEST POP JUMP JUMPDEST PUSH1 0x0 DUP2 MLOAD SWAP1 POP PUSH2 0x135 DUP2 PUSH2 0x10F JUMP JUMPDEST SWAP3 SWAP2 POP POP JUMP JUMPDEST PUSH1 0x0 PUSH2 0x146 DUP3 PUSH2 0xDD JUMP JUMPDEST SWAP1 POP SWAP2 SWAP1 POP JUMP JUMPDEST PUSH2 0x156 DUP2 PUSH2 0x13B JUMP JUMPDEST DUP2 EQ PUSH2 0x161 JUMPI PUSH1 0x0 DUP1 REVERT JUMPDEST POP JUMP JUMPDEST PUSH1 0x0 DUP2 MLOAD SWAP1 POP PUSH2 0x173 DUP2 PUSH2 0x14D JUMP JUMPDEST SWAP3 SWAP2 POP POP JUMP JUMPDEST PUSH1 0x0 DUP1 PUSH1 0x40 DUP4 DUP6 SUB SLT ISZERO PUSH2 0x190 JUMPI PUSH2 0x18F PUSH2 0xD8 JUMP JUMPDEST JUMPDEST PUSH1 0x0 PUSH2 0x19E DUP6 DUP3 DUP7 ADD PUSH2 0x126 JUMP JUMPDEST SWAP3 POP POP PUSH1 0x20 PUSH2 0x1AF DUP6 DUP3 DUP7 ADD PUSH2 0x164 JUMP JUMPDEST SWAP2 POP POP SWAP3 POP SWAP3 SWAP1 POP JUMP JUMPDEST PUSH32 0x4E487B7100000000000000000000000000000000000000000000000000000000 PUSH1 0x0 MSTORE PUSH1 0x21 PUSH1 0x4 MSTORE PUSH1 0x24 PUSH1 0x0 REVERT JUMPDEST PUSH2 0x6CC DUP1 PUSH2 0x1F7 PUSH1 0x0 CODECOPY PUSH1 0x0 RETURN INVALID PUSH1 0x80 PUSH1 0x40 MSTORE PUSH1 0x4 CALLDATASIZE LT PUSH2 0x4A JUMPI PUSH1 0x0 CALLDATALOAD PUSH1 0xE0 SHR DUP1 PUSH4 0x8551A53 EQ PUSH2 0x4F JUMPI DUP1 PUSH4 0x5E10177B EQ PUSH2 0x7A JUMPI DUP1 PUSH4 0x7150D8AE EQ PUSH2 0x91 JUMPI DUP1 PUSH4 0xAFE01043 EQ PUSH2 0xBC JUMPI DUP1 PUSH4 0xD0E30DB0 EQ PUSH2 0xE7 JUMPI JUMPDEST PUSH1 0x0 DUP1 REVERT JUMPDEST CALLVALUE DUP1 ISZERO PUSH2 0x5B JUMPI PUSH1 0x0 DUP1 REVERT JUMPDEST POP PUSH2 0x64 PUSH2 0xF1 JUMP JUMPDEST PUSH1 0x40 MLOAD PUSH2 0x71 SWAP2 SWAP1 PUSH2 0x458 JUMP JUMPDEST PUSH1 0x40 MLOAD DUP1 SWAP2 SUB SWAP1 RETURN JUMPDEST CALLVALUE DUP1 ISZERO PUSH2 0x86 JUMPI PUSH1 0x0 DUP1 REVERT JUMPDEST POP PUSH2 0x8F PUSH2 0x117 JUMP JUMPDEST STOP JUMPDEST CALLVALUE DUP1 ISZERO PUSH2 0x9D JUMPI PUSH1 0x0 DUP1 REVERT JUMPDEST POP PUSH2 0xA6 PUSH2 0x2B0 JUMP JUMPDEST PUSH1 0x40 MLOAD PUSH2 0xB3 SWAP2 SWAP1 PUSH2 0x494 JUMP JUMPDEST PUSH1 0x40 MLOAD DUP1 SWAP2 SUB SWAP1 RETURN JUMPDEST CALLVALUE DUP1 ISZERO PUSH2 0xC8 JUMPI PUSH1 0x0 DUP1 REVERT JUMPDEST POP PUSH2 0xD1 PUSH2 0x2D6 JUMP JUMPDEST PUSH1 0x40 MLOAD PUSH2 0xDE SWAP2 SWAP1 PUSH2 0x526 JUMP JUMPDEST PUSH1 0x40 MLOAD DUP1 SWAP2 SUB SWAP1 RETURN JUMPDEST PUSH2 0xEF PUSH2 0x2E7 JUMP JUMPDEST STOP JUMPDEST PUSH1 0x1 PUSH1 0x0 SWAP1 SLOAD SWAP1 PUSH2 0x100 EXP SWAP1 DIV PUSH20 0xFFFFFFFFFFFFFFFFFFFFFFFFFFFFFFFFFFFFFFFF AND DUP2 JUMP JUMPDEST PUSH1 0x0 PUSH1 0x1 SWAP1 SLOAD SWAP1 PUSH2 0x100 EXP SWAP1 DIV PUSH20 0xFFFFFFFFFFFFFFFFFFFFFFFFFFFFFFFFFFFFFFFF AND PUSH20 0xFFFFFFFFFFFFFFFFFFFFFFFFFFFFFFFFFFFFFFFF AND CALLER PUSH20 0xFFFFFFFFFFFFFFFFFFFFFFFFFFFFFFFFFFFFFFFF AND EQ PUSH2 0x1A7 JUMPI PUSH1 0x40 MLOAD PUSH32 0x8C379A000000000000000000000000000000000000000000000000000000000 DUP2 MSTORE PUSH1 0x4 ADD PUSH2 0x19E SWAP1 PUSH2 0x59E JUMP JUMPDEST PUSH1 0x40 MLOAD DUP1 SWAP2 SUB SWAP1 REVERT JUMPDEST PUSH1 0x1 PUSH1 0x2 DUP2 GT ISZERO PUSH2 0x1BB JUMPI PUSH2 0x1BA PUSH2 0x4AF JUMP JUMPDEST JUMPDEST PUSH1 0x0 DUP1 SLOAD SWAP1 PUSH2 0x100 EXP SWAP1 DIV PUSH1 0xFF AND PUSH1 0x2 DUP2 GT ISZERO PUSH2 0x1DB JUMPI PUSH2 0x1DA PUSH2 0x4AF JUMP JUMPDEST JUMPDEST EQ PUSH2 0x21B JUMPI PUSH1 0x40 MLOAD PUSH32 0x8C379A000000000000000000000000000000000000000000000000000000000 DUP2 MSTORE PUSH1 0x4 ADD PUSH2 0x212 SWAP1 PUSH2 0x60A JUMP JUMPDEST PUSH1 0x40 MLOAD DUP1 SWAP2 SUB SWAP1 REVERT JUMPDEST PUSH1 0x1 PUSH1 0x0 SWAP1 SLOAD SWAP1 PUSH2 0x100 EXP SWAP1 DIV PUSH20 0xFFFFFFFFFFFFFFFFFFFFFFFFFFFFFFFFFFFFFFFF AND PUSH20 0xFFFFFFFFFFFFFFFFFFFFFFFFFFFFFFFFFFFFFFFF AND PUSH2 0x8FC SELFBALANCE SWAP1 DUP2 ISZERO MUL SWAP1 PUSH1 0x40 MLOAD PUSH1 0x0 PUSH1 0x40 MLOAD DUP1 DUP4 SUB DUP2 DUP6 DUP9 DUP9 CALL SWAP4 POP POP POP POP ISZERO DUP1 ISZERO PUSH2 0x283 JUMPI RETURNDATASIZE PUSH1 0x0 DUP1 RETURNDATACOPY RETURNDATASIZE PUSH1 0x0 REVERT JUMPDEST POP PUSH1 0x2 PUSH1 0x0 DUP1 PUSH2 0x100 EXP DUP2 SLOAD DUP2 PUSH1 0xFF MUL NOT AND SWAP1 DUP4 PUSH1 0x2 DUP2 GT ISZERO PUSH2 0x2A9 JUMPI PUSH2 0x2A8 PUSH2 0x4AF JUMP JUMPDEST JUMPDEST MUL OR SWAP1 SSTORE POP JUMP JUMPDEST PUSH1 0x0 PUSH1 0x1 SWAP1 SLOAD SWAP1 PUSH2 0x100 EXP SWAP1 DIV PUSH20 0xFFFFFFFFFFFFFFFFFFFFFFFFFFFFFFFFFFFFFFFF AND DUP2 JUMP JUMPDEST PUSH1 0x0 DUP1 SLOAD SWAP1 PUSH2 0x100 EXP SWAP1 DIV PUSH1 0xFF AND DUP2 JUMP JUMPDEST PUSH1 0x0 PUSH1 0x1 SWAP1 SLOAD SWAP1 PUSH2 0x100 EXP SWAP1 DIV PUSH20 0xFFFFFFFFFFFFFFFFFFFFFFFFFFFFFFFFFFFFFFFF AND PUSH20 0xFFFFFFFFFFFFFFFFFFFFFFFFFFFFFFFFFFFFFFFF AND CALLER PUSH20 0xFFFFFFFFFFFFFFFFFFFFFFFFFFFFFFFFFFFFFFFF AND EQ PUSH2 0x377 JUMPI PUSH1 0x40 MLOAD PUSH32 0x8C379A000000000000000000000000000000000000000000000000000000000 DUP2 MSTORE PUSH1 0x4 ADD PUSH2 0x36E SWAP1 PUSH2 0x59E JUMP JUMPDEST PUSH1 0x40 MLOAD DUP1 SWAP2 SUB SWAP1 REVERT JUMPDEST PUSH1 0x0 PUSH1 0x2 DUP2 GT ISZERO PUSH2 0x38B JUMPI PUSH2 0x38A PUSH2 0x4AF JUMP JUMPDEST JUMPDEST PUSH1 0x0 DUP1 SLOAD SWAP1 PUSH2 0x100 EXP SWAP1 DIV PUSH1 0xFF AND PUSH1 0x2 DUP2 GT ISZERO PUSH2 0x3AB JUMPI PUSH2 0x3AA PUSH2 0x4AF JUMP JUMPDEST JUMPDEST EQ PUSH2 0x3EB JUMPI PUSH1 0x40 MLOAD PUSH32 0x8C379A000000000000000000000000000000000000000000000000000000000 DUP2 MSTORE PUSH1 0x4 ADD PUSH2 0x3E2 SWAP1 PUSH2 0x676 JUMP JUMPDEST PUSH1 0x40 MLOAD DUP1 SWAP2 SUB SWAP1 REVERT JUMPDEST PUSH1 0x1 PUSH1 0x0 DUP1 PUSH2 0x100 EXP DUP2 SLOAD DUP2 PUSH1 0xFF MUL NOT AND SWAP1 DUP4 PUSH1 0x2 DUP2 GT ISZERO PUSH2 0x410 JUMPI PUSH2 0x40F PUSH2 0x4AF JUMP JUMPDEST JUMPDEST MUL OR SWAP1 SSTORE POP JUMP JUMPDEST PUSH1 0x0 PUSH20 0xFFFFFFFFFFFFFFFFFFFFFFFFFFFFFFFFFFFFFFFF DUP3 AND SWAP1 POP SWAP2 SWAP1 POP JUMP JUMPDEST PUSH1 0x0 PUSH2 0x442 DUP3 PUSH2 0x417 JUMP JUMPDEST SWAP1 POP SWAP2 SWAP1 POP JUMP JUMPDEST PUSH2 0x452 DUP2 PUSH2 0x437 JUMP JUMPDEST DUP3 MSTORE POP POP JUMP JUMPDEST PUSH1 0x0 PUSH1 0x20 DUP3 ADD SWAP1 POP PUSH2 0x46D PUSH1 0x0 DUP4 ADD DUP5 PUSH2 0x449 JUMP JUMPDEST SWAP3 SWAP2 POP POP JUMP JUMPDEST PUSH1 0x0 PUSH2 0x47E DUP3 PUSH2 0x417 JUMP JUMPDEST SWAP1 POP SWAP2 SWAP1 POP JUMP JUMPDEST PUSH2 0x48E DUP2 PUSH2 0x473 JUMP JUMPDEST DUP3 MSTORE POP POP JUMP JUMPDEST PUSH1 0x0 PUSH1 0x20 DUP3 ADD SWAP1 POP PUSH2 0x4A9 PUSH1 0x0 DUP4 ADD DUP5 PUSH2 0x485 JUMP JUMPDEST SWAP3 SWAP2 POP POP JUMP JUMPDEST PUSH32 0x4E487B7100000000000000000000000000000000000000000000000000000000 PUSH1 0x0 MSTORE PUSH1 0x21 PUSH1 0x4 MSTORE PUSH1 0x24 PUSH1 0x0 REVERT JUMPDEST PUSH1 0x3 DUP2 LT PUSH2 0x4EF JUMPI PUSH2 0x4EE PUSH2 0x4AF JUMP JUMPDEST JUMPDEST POP JUMP JUMPDEST PUSH1 0x0 DUP2 SWAP1 POP PUSH2 0x500 DUP3 PUSH2 0x4DE JUMP JUMPDEST SWAP2 SWAP1 POP JUMP JUMPDEST PUSH1 0x0 PUSH2 0x510 DUP3 PUSH2 0x4F2 JUMP JUMPDEST SWAP1 POP SWAP2 SWAP1 POP JUMP JUMPDEST PUSH2 0x520 DUP2 PUSH2 0x505 JUMP JUMPDEST DUP3 MSTORE POP POP JUMP JUMPDEST PUSH1 0x0 PUSH1 0x20 DUP3 ADD SWAP1 POP PUSH2 0x53B PUSH1 0x0 DUP4 ADD DUP5 PUSH2 0x517 JUMP JUMPDEST SWAP3 SWAP2 POP POP JUMP JUMPDEST PUSH1 0x0 DUP3 DUP3 MSTORE PUSH1 0x20 DUP3 ADD SWAP1 POP SWAP3 SWAP2 POP POP JUMP JUMPDEST PUSH32 0x4F6E6C792062757965722063616E2063616C6C2074686973206D6574686F6400 PUSH1 0x0 DUP3 ADD MSTORE POP JUMP JUMPDEST PUSH1 0x0 PUSH2 0x588 PUSH1 0x1F DUP4 PUSH2 0x541 JUMP JUMPDEST SWAP2 POP PUSH2 0x593 DUP3 PUSH2 0x552 JUMP JUMPDEST PUSH1 0x20 DUP3 ADD SWAP1 POP SWAP2 SWAP1 POP JUMP JUMPDEST PUSH1 0x0 PUSH1 0x20 DUP3 ADD SWAP1 POP DUP2 DUP2 SUB PUSH1 0x0 DUP4 ADD MSTORE PUSH2 0x5B7 DUP2 PUSH2 0x57B JUMP JUMPDEST SWAP1 POP SWAP2 SWAP1 POP JUMP JUMPDEST PUSH32 0x43616E6E6F7420636F6E6669726D2064656C6976657279000000000000000000 PUSH1 0x0 DUP3 ADD MSTORE POP JUMP JUMPDEST PUSH1 0x0 PUSH2 0x5F4 PUSH1 0x17 DUP4 PUSH2 0x541 JUMP JUMPDEST SWAP2 POP PUSH2 0x5FF DUP3 PUSH2 0x5BE JUMP JUMPDEST PUSH1 0x20 DUP3 ADD SWAP1 POP SWAP2 SWAP1 POP JUMP JUMPDEST PUSH1 0x0 PUSH1 0x20 DUP3 ADD SWAP1 POP DUP2 DUP2 SUB PUSH1 0x0 DUP4 ADD MSTORE PUSH2 0x623 DUP2 PUSH2 0x5E7 JUMP JUMPDEST SWAP1 POP SWAP2 SWAP1 POP JUMP JUMPDEST PUSH32 0x416C726561647920706169640000000000000000000000000000000000000000 PUSH1 0x0 DUP3 ADD MSTORE POP JUMP JUMPDEST PUSH1 0x0 PUSH2 0x660 PUSH1 0xC DUP4 PUSH2 0x541 JUMP JUMPDEST SWAP2 POP PUSH2 0x66B DUP3 PUSH2 0x62A JUMP JUMPDEST PUSH1 0x20 DUP3 ADD SWAP1 POP SWAP2 SWAP1 POP JUMP JUMPDEST PUSH1 0x0 PUSH1 0x20 DUP3 ADD SWAP1 POP DUP2 DUP2 SUB PUSH1 0x0 DUP4 ADD MSTORE PUSH2 0x68F DUP2 PUSH2 0x653 JUMP JUMPDEST SWAP1 POP SWAP2 SWAP1 POP JUMP INVALID LOG2 PUSH5 0x6970667358 0x22 SLT KECCAK256 0xC1 0xF6 0xB5 DUP15 0xBF PUSH5 0x858CCC8926 ADD COINBASE 0x27 0x24 0x2A 0xCF 0xB7 0xD3 0xA7 0xCA 0xC 0xDE BLOBBASEFEE SWAP11 0x4E PUSH6 0x79F3A44A7E64 PUSH20 0x6F6C63430008180033A26469706673582212205C 0xB8 SLOAD 0xC1 XOR 0xDE SWAP9 MOD SLT DUP4 PUSH14 0x848D5CD13A15A4DEE8AAFD6AE3AA SWAP3 SWAP5 ADDRESS SLOAD MOD SELFBALANCE LOG2 PUSH5 0x736F6C6343 STOP ADDMOD XOR STOP CALLER "},"gasEstimates":{"creation":{"codeDepositCost":"2877200","executionCost":"3146","totalCost":"2880346"},"external":{"addItem(string,string,uint256,string)":"infinite","browseItems()":"infinite","deleteItem(uint256)":"infinite","editItem(uint256,string,string,uint256,string)":"infinite","itemsCount()":"2495","purchaseItem(uint256,address)":"infinite","retrieveUserItems()":"infinite"}},"methodIdentifiers":{"addItem(string,string,uint256,string)":"13df81d6","browseItems()":"dbc37670","deleteItem(uint256)":"654fc833","editItem(uint256,string,string,uint256,string)":"0461459a","itemsCount()":"e2c03ace","purchaseItem(uint256,address)":"7bfe9efd","retrieveUserItems()":"9ab7e23b"}},"storageLayout":{"storage":[{"astId":126,"contract":"contracts/Item.sol:Item","label":"items","offset":0,"slot":"0","type":"t_mapping(t_address,t_array(t_struct(ItemStruct)120_storage)dyn_storage)"},{"astId":128,"contract":"contracts/Item.sol:Item","label":"itemsCount","offset":0,"slot":"1","type":"t_uint256"},{"astId":131,"contract":"contracts/Item.sol:Item","label":"sellers","offset":0,"slot":"2","type":"t_array(t_address)dyn_storage"}],"types":{"t_address":{"encoding":"inplace","label":"address","numberOfBytes":"20"},"t_array(t_address)dyn_storage":{"base":"t_address","encoding":"dynamic_array","label":"address[]","numberOfBytes":"32"},"t_array(t_struct(ItemStruct)120_storage)dyn_storage":{"base":"t_struct(ItemStruct)120_storage","encoding":"dynamic_array","label":"struct Item.ItemStruct[]","numberOfBytes":"32"},"t_bool":{"encoding":"inplace","label":"bool","numberOfBytes":"1"},"t_contract(Escrow)94":{"encoding":"inplace","label":"contract Escrow","numberOfBytes":"20"},"t_mapping(t_address,t_array(t_struct(ItemStruct)120_storage)dyn_storage)":{"encoding":"mapping","key":"t_address","label":"mapping(address => struct Item.ItemStruct[])","numberOfBytes":"32","value":"t_array(t_struct(ItemStruct)120_storage)dyn_storage"},"t_string_storage":{"encoding":"bytes","label":"string","numberOfBytes":"32"},"t_struct(ItemStruct)120_storage":{"encoding":"inplace","label":"struct Item.ItemStruct","members":[{"astId":100,"contract":"contracts/Item.sol:Item","label":"itemId","offset":0,"slot":"0","type":"t_uint256"},{"astId":102,"contract":"contracts/Item.sol:Item","label":"title","offset":0,"slot":"1","type":"t_string_storage"},{"astId":104,"contract":"contracts/Item.sol:Item","label":"description","offset":0,"slot":"2","type":"t_string_storage"},{"astId":106,"contract":"contracts/Item.sol:Item","label":"price","offset":0,"slot":"3","type":"t_uint256"},{"astId":108,"contract":"contracts/Item.sol:Item","label":"image","offset":0,"slot":"4","type":"t_string_storage"},{"astId":110,"contract":"contracts/Item.sol:Item","label":"createdAt","offset":0,"slot":"5","type":"t_uint256"},{"astId":112,"contract":"contracts/Item.sol:Item","label":"buyer","offset":0,"slot":"6","type":"t_address"},{"astId":114,"contract":"contracts/Item.sol:Item","label":"hasBuyer","offset":20,"slot":"6","type":"t_bool"},{"astId":117,"contract":"contracts/Item.sol:Item","label":"escrow","offset":0,"slot":"7","type":"t_contract(Escrow)94"},{"astId":119,"contract":"contracts/Item.sol:Item","label":"seller","offset":0,"slot":"8","type":"t_address"}],"numberOfBytes":"288"},"t_uint256":{"encoding":"inplace","label":"uint256","numberOfBytes":"32"}}},"userdoc":{"kind":"user","methods":{},"version":1}}}}