{"contracts/Item.sol":{"Item":{"abi":[{"anonymous":false,"inputs":[{"indexed":false,"internalType":"uint256","name":"itemId","type":"uint256"},{"indexed":false,"internalType":"address","name":"buyer","type":"address"}],"name":"ItemCancelled","type":"event"},{"anonymous":false,"inputs":[{"indexed":false,"internalType":"uint256","name":"balance","type":"uint256"}],"name":"print_balance","type":"event"},{"anonymous":false,"inputs":[{"indexed":false,"internalType":"uint256","name":"balance","type":"uint256"}],"name":"print_seller_balance","type":"event"},{"inputs":[{"internalType":"string","name":"_title","type":"string"},{"internalType":"string","name":"_description","type":"string"},{"internalType":"uint256","name":"_price","type":"uint256"},{"internalType":"string","name":"_image","type":"string"}],"name":"addItem","outputs":[],"stateMutability":"nonpayable","type":"function"},{"inputs":[],"name":"browseItems","outputs":[{"components":[{"internalType":"uint256","name":"itemId","type":"uint256"},{"internalType":"string","name":"title","type":"string"},{"internalType":"string","name":"description","type":"string"},{"internalType":"uint256","name":"price","type":"uint256"},{"internalType":"string","name":"image","type":"string"},{"internalType":"uint256","name":"createdAt","type":"uint256"},{"internalType":"address","name":"buyer","type":"address"},{"internalType":"bool","name":"hasBuyer","type":"bool"},{"internalType":"contract Escrow","name":"escrow","type":"address"},{"internalType":"address","name":"seller","type":"address"}],"internalType":"struct Item.ItemStruct[]","name":"","type":"tuple[]"}],"stateMutability":"view","type":"function"},{"inputs":[{"internalType":"uint256","name":"_itemId","type":"uint256"},{"internalType":"address","name":"_seller","type":"address"},{"internalType":"bool","name":"cancel","type":"bool"},{"internalType":"bool","name":"refundBuyer","type":"bool"}],"name":"cancelItem","outputs":[],"stateMutability":"payable","type":"function"},{"inputs":[{"internalType":"uint256","name":"_itemId","type":"uint256"}],"name":"deleteItem","outputs":[],"stateMutability":"nonpayable","type":"function"},{"inputs":[{"internalType":"uint256","name":"_itemId","type":"uint256"},{"internalType":"string","name":"_title","type":"string"},{"internalType":"string","name":"_description","type":"string"},{"internalType":"uint256","name":"_price","type":"uint256"},{"internalType":"string","name":"_image","type":"string"}],"name":"editItem","outputs":[],"stateMutability":"nonpayable","type":"function"},{"inputs":[],"name":"getItemsWithDispute","outputs":[{"components":[{"internalType":"uint256","name":"itemId","type":"uint256"},{"internalType":"string","name":"title","type":"string"},{"internalType":"string","name":"description","type":"string"},{"internalType":"uint256","name":"price","type":"uint256"},{"internalType":"string","name":"image","type":"string"},{"internalType":"uint256","name":"createdAt","type":"uint256"},{"internalType":"address","name":"buyer","type":"address"},{"internalType":"bool","name":"hasBuyer","type":"bool"},{"internalType":"contract Escrow","name":"escrow","type":"address"},{"internalType":"address","name":"seller","type":"address"}],"internalType":"struct Item.ItemStruct[]","name":"","type":"tuple[]"}],"stateMutability":"view","type":"function"},{"inputs":[],"name":"itemsCount","outputs":[{"internalType":"uint256","name":"","type":"uint256"}],"stateMutability":"view","type":"function"},{"inputs":[],"name":"myPurchases","outputs":[{"components":[{"internalType":"uint256","name":"itemId","type":"uint256"},{"internalType":"string","name":"title","type":"string"},{"internalType":"string","name":"description","type":"string"},{"internalType":"uint256","name":"price","type":"uint256"},{"internalType":"string","name":"image","type":"string"},{"internalType":"uint256","name":"createdAt","type":"uint256"},{"internalType":"address","name":"buyer","type":"address"},{"internalType":"bool","name":"hasBuyer","type":"bool"},{"internalType":"contract Escrow","name":"escrow","type":"address"},{"internalType":"address","name":"seller","type":"address"}],"internalType":"struct Item.ItemStruct[]","name":"","type":"tuple[]"}],"stateMutability":"view","type":"function"},{"inputs":[],"name":"mySales","outputs":[{"components":[{"internalType":"uint256","name":"itemId","type":"uint256"},{"internalType":"string","name":"title","type":"string"},{"internalType":"string","name":"description","type":"string"},{"internalType":"uint256","name":"price","type":"uint256"},{"internalType":"string","name":"image","type":"string"},{"internalType":"uint256","name":"createdAt","type":"uint256"},{"internalType":"address","name":"buyer","type":"address"},{"internalType":"bool","name":"hasBuyer","type":"bool"},{"internalType":"contract Escrow","name":"escrow","type":"address"},{"internalType":"address","name":"seller","type":"address"}],"internalType":"struct Item.ItemStruct[]","name":"","type":"tuple[]"}],"stateMutability":"view","type":"function"},{"inputs":[{"internalType":"uint256","name":"_itemId","type":"uint256"},{"internalType":"address","name":"_seller","type":"address"}],"name":"purchaseItem","outputs":[],"stateMutability":"payable","type":"function"},{"inputs":[],"name":"retrieveUserItems","outputs":[{"components":[{"internalType":"uint256","name":"itemId","type":"uint256"},{"internalType":"string","name":"title","type":"string"},{"internalType":"string","name":"description","type":"string"},{"internalType":"uint256","name":"price","type":"uint256"},{"internalType":"string","name":"image","type":"string"},{"internalType":"uint256","name":"createdAt","type":"uint256"},{"internalType":"address","name":"buyer","type":"address"},{"internalType":"bool","name":"hasBuyer","type":"bool"},{"internalType":"contract Escrow","name":"escrow","type":"address"},{"internalType":"address","name":"seller","type":"address"}],"internalType":"struct Item.ItemStruct[]","name":"","type":"tuple[]"}],"stateMutability":"view","type":"function"},{"inputs":[{"internalType":"uint256","name":"_itemId","type":"uint256"},{"internalType":"string","name":"tracking","type":"string"}],"name":"shipItem","outputs":[],"stateMutability":"nonpayable","type":"function"}],"devdoc":{"kind":"dev","methods":{},"version":1},"evm":{"bytecode":{"linkReferences":{},"object":"608060405234801561001057600080fd5b50614f52806100206000396000f3fe608060405260043610620000b55760003560e01c80638af8a986116200006c5780638af8a98614620001975780639ab7e23b14620001af578063b24db86f14620001c7578063ba30154114620001df578063dbc3767014620001f6578063e2c03ace146200020e57600080fd5b80630461459a14620000ba57806313df81d614620000e157806338f5234f14620001065780634d25ce471462000136578063654fc833146200015b5780637bfe9efd1462000180575b600080fd5b348015620000c757600080fd5b50620000df620000d936600462002e2a565b62000235565b005b348015620000ee57600080fd5b50620000df6200010036600462002ed0565b62000463565b3480156200011357600080fd5b506200011e62000640565b6040516200012d919062002fb4565b60405180910390f35b3480156200014357600080fd5b50620000df62000155366004620030cd565b620009fb565b3480156200016857600080fd5b50620000df6200017a36600462003118565b62000d05565b620000df620001913660046200314f565b6200100b565b348015620001a457600080fd5b506200011e620013c2565b348015620001bc57600080fd5b506200011e6200182d565b348015620001d457600080fd5b506200011e62001aca565b620000df620001f03660046200318f565b62002081565b3480156200020357600080fd5b506200011e620026fa565b3480156200021b57600080fd5b506200022660015481565b6040519081526020016200012d565b6000851180156200024857506001548511155b6200028c5760405162461bcd60e51b815260206004820152600f60248201526e125b9d985b1a59081a5d195b481251608a1b60448201526064015b60405180910390fd5b33600090815260208190526040812090805b82548110156200040a5787838281548110620002be57620002be620031e3565b90600052602060002090600902016000015403620004015760019150828181548110620002ef57620002ef620031e3565b906000526020600020906009020160060160149054906101000a900460ff16156200032e5760405162461bcd60e51b81526004016200028390620031f9565b86838281548110620003445762000344620031e3565b90600052602060002090600902016001019081620003639190620032ac565b50858382815481106200037a576200037a620031e3565b90600052602060002090600902016002019081620003999190620032ac565b5084838281548110620003b057620003b0620031e3565b90600052602060002090600902016003018190555083838281548110620003db57620003db620031e3565b90600052602060002090600902016004019081620003fa9190620032ac565b506200040a565b6001016200029e565b50806200045a5760405162461bcd60e51b815260206004820152601e60248201527f4974656d20646f6573206e6f742062656c6f6e6720746f2073656e6465720000604482015260640162000283565b50505050505050565b620004936040518060400160405280600c81526020016b50726963652069733a20257360a01b8152508362002bdb565b336000908152602081905260408120549003620004ed57600280546001810182556000919091527f405787fa12a823e0f2b7631cc41b3ba8828b3321ca811111fa75cd3aa3bb5ace0180546001600160a01b031916331790555b60018054906000620004ff836200338f565b9091555050336000818152602081815260408083208151610140810183526001805482528185018b81529382018a905260608201899052608082018890524260a083015260c0820186905260e082018690526101008201869052610120820196909652815480870183559185529290932082516009909402019283555190928201906200058d9082620032ac565b5060408201516002820190620005a49082620032ac565b506060820151600382015560808201516004820190620005c59082620032ac565b5060a0820151600582015560c082015160068201805460e08501511515600160a01b026001600160a81b03199091166001600160a01b03938416171790556101008301516007830180549183166001600160a01b03199283161790556101209093015160089092018054929091169190921617905550505050565b336000908152602081905260408120606091908190815b8154811015620006b457818181548110620006765762000676620031e3565b906000526020600020906009020160060160149054906101000a900460ff1615620006ab5783620006a7816200338f565b9450505b60010162000657565b5060008367ffffffffffffffff811115620006d357620006d362002d7f565b6040519080825280602002602001820160405280156200071057816020015b620006fc62002ca7565b815260200190600190039081620006f25790505b50905060005b8254811015620009f257828181548110620007355762000735620031e3565b906000526020600020906009020160060160149054906101000a900460ff1615620009e9578281815481106200076f576200076f620031e3565b90600052602060002090600902016040518061014001604052908160008201548152602001600182018054620007a59062003224565b80601f0160208091040260200160405190810160405280929190818152602001828054620007d39062003224565b8015620008245780601f10620007f85761010080835404028352916020019162000824565b820191906000526020600020905b8154815290600101906020018083116200080657829003601f168201915b505050505081526020016002820180546200083f9062003224565b80601f01602080910402602001604051908101604052809291908181526020018280546200086d9062003224565b8015620008be5780601f106200089257610100808354040283529160200191620008be565b820191906000526020600020905b815481529060010190602001808311620008a057829003601f168201915b5050505050815260200160038201548152602001600482018054620008e39062003224565b80601f0160208091040260200160405190810160405280929190818152602001828054620009119062003224565b8015620009625780601f10620009365761010080835404028352916020019162000962565b820191906000526020600020905b8154815290600101906020018083116200094457829003601f168201915b50505091835250506005820154602082015260068201546001600160a01b038082166040840152600160a01b90910460ff161515606083015260078301548116608083015260089092015490911660a0909101528251839086908110620009cd57620009cd620031e3565b60200260200101819052508380620009e5906200338f565b9450505b60010162000716565b50949350505050565b3360009081526020819052604081209080805b835481101562000a5c578584828154811062000a2e5762000a2e620031e3565b9060005260206000209060090201600001540362000a53576001925080915062000a5c565b60010162000a0e565b508162000a7d5760405162461bcd60e51b81526004016200028390620033ab565b82818154811062000a925762000a92620031e3565b906000526020600020906009020160060160149054906101000a900460ff1662000aff5760405162461bcd60e51b815260206004820152601b60248201527f4974656d20686173206e6f74206265656e207075726368617365640000000000604482015260640162000283565b82818154811062000b145762000b14620031e3565b60009182526020909120600990910201600801546001600160a01b0316331462000b815760405162461bcd60e51b815260206004820152601e60248201527f4f6e6c792073656c6c65722063616e20736869702074686973206974656d0000604482015260640162000283565b82818154811062000b965762000b96620031e3565b6000918252602090912060076009909202010154604051636e9fd09b60e11b81526001600160a01b039091169063dd3fa1369062000bd9908790600401620033d3565b600060405180830381600087803b15801562000bf457600080fd5b505af115801562000c09573d6000803e3d6000fd5b5050505062000cfe604051806040016040528060168152602001754974656d20736869707065643a20257320627920257360501b81525084838154811062000c555762000c55620031e3565b9060005260206000209060090201600101805462000c739062003224565b80601f016020809104026020016040519081016040528092919081815260200182805462000ca19062003224565b801562000cf25780601f1062000cc65761010080835404028352916020019162000cf2565b820191906000526020600020905b81548152906001019060200180831162000cd457829003601f168201915b50505050503362002c28565b5050505050565b3360009081526020819052604081209080805b835481101562000dba578484828154811062000d385762000d38620031e3565b9060005260206000209060090201600001540362000db15783818154811062000d655762000d65620031e3565b906000526020600020906009020160060160149054906101000a900460ff161562000da45760405162461bcd60e51b81526004016200028390620031f9565b6001925080915062000dba565b60010162000d18565b508162000e005760405162461bcd60e51b8152602060048201526013602482015272125d195b48191bd95cc81b9bdd08195e1a5cdd606a1b604482015260640162000283565b825460009062000e1390600190620033e8565b905080821462000f625783818154811062000e325762000e32620031e3565b906000526020600020906009020184838154811062000e555762000e55620031e3565b60009182526020909120825460099092020190815560018082019062000e7e9084018262003404565b5060028181019062000e939084018262003404565b50600382015481600301556004820181600401908162000eb4919062003404565b50600582810154908201556006808301805491830180546001600160a01b03198082166001600160a01b039586169081178455935460ff600160a01b91829004161515026001600160a81b03199092169093171790556007808501549084018054831691841691909117905560089384015493909201805490921692169190911790558354859085908490811062000f505762000f50620031e3565b60009182526020909120600990910201555b8380548062000f755762000f75620034e6565b6000828152602081206009600019909301928302018181559062000f9d600183018262002d17565b62000fad60028301600062002d17565b600382016000905560048201600062000fc7919062002d17565b50600060058201556006810180546001600160a81b03191690556007810180546001600160a01b031990811690915560089091018054909116905590555050505050565b6000821180156200101e57506001548211155b6200105e5760405162461bcd60e51b815260206004820152600f60248201526e125b9d985b1a59081a5d195b481251608a1b604482015260640162000283565b6001600160a01b03811660009081526020819052604081209080805b8354811015620010c857858482815481106200109a576200109a620031e3565b90600052602060002090600902016000015403620010bf5760019250809150620010c8565b6001016200107a565b5081620010e95760405162461bcd60e51b81526004016200028390620033ab565b828181548110620010fe57620010fe620031e3565b906000526020600020906009020160060160149054906101000a900460ff16156200113d5760405162461bcd60e51b81526004016200028390620031f9565b836001600160a01b03168382815481106200115c576200115c620031e3565b60009182526020909120600860099092020101546001600160a01b031614620011c85760405162461bcd60e51b815260206004820152601b60248201527f4f776e65722063616e206e6f742062757920746865206974656d2e0000000000604482015260640162000283565b828181548110620011dd57620011dd620031e3565b90600052602060002090600902016003015434146200124b5760405162461bcd60e51b815260206004820152602360248201527f496e636f727265637420616d6f756e74206f662065746865722f776569207365604482015262373a1760e91b606482015260840162000283565b60003433866040516200125e9062002d56565b6001600160a01b039283168152911660208201526040016040518091039082f090508015801562001293573d6000803e3d6000fd5b50905033848381548110620012ac57620012ac620031e3565b906000526020600020906009020160060160006101000a8154816001600160a01b0302191690836001600160a01b031602179055506001848381548110620012f857620012f8620031e3565b906000526020600020906009020160060160146101000a81548160ff02191690831515021790555080848381548110620013365762001336620031e3565b906000526020600020906009020160070160006101000a8154816001600160a01b0302191690836001600160a01b03160217905550620013ba6040518060400160405280601881526020017f4974656d207075726368617365643a202573206279202573000000000000000081525085848154811062000c555762000c55620031e3565b505050505050565b606060008060005b6002548110156200148757600080600060028481548110620013f057620013f0620031e3565b60009182526020808320909101546001600160a01b03168352820192909252604001812091505b81548110156200147c57336001600160a01b0316828281548110620014405762001440620031e3565b60009182526020909120600660099092020101546001600160a01b0316036200147357846200146f816200338f565b9550505b60010162001417565b5050600101620013ca565b5060008267ffffffffffffffff811115620014a657620014a662002d7f565b604051908082528060200260200182016040528015620014e357816020015b620014cf62002ca7565b815260200190600190039081620014c55790505b50905060005b60025481101562001825576000806000600284815481106200150f576200150f620031e3565b60009182526020808320909101546001600160a01b03168352820192909252604001812091505b81548110156200181a57336001600160a01b03168282815481106200155f576200155f620031e3565b60009182526020909120600660099092020101546001600160a01b0316036200181157818181548110620015975762001597620031e3565b90600052602060002090600902016040518061014001604052908160008201548152602001600182018054620015cd9062003224565b80601f0160208091040260200160405190810160405280929190818152602001828054620015fb9062003224565b80156200164c5780601f1062001620576101008083540402835291602001916200164c565b820191906000526020600020905b8154815290600101906020018083116200162e57829003601f168201915b50505050508152602001600282018054620016679062003224565b80601f0160208091040260200160405190810160405280929190818152602001828054620016959062003224565b8015620016e65780601f10620016ba57610100808354040283529160200191620016e6565b820191906000526020600020905b815481529060010190602001808311620016c857829003601f168201915b50505050508152602001600382015481526020016004820180546200170b9062003224565b80601f0160208091040260200160405190810160405280929190818152602001828054620017399062003224565b80156200178a5780601f106200175e576101008083540402835291602001916200178a565b820191906000526020600020905b8154815290600101906020018083116200176c57829003601f168201915b50505091835250506005820154602082015260068201546001600160a01b038082166040840152600160a01b90910460ff161515606083015260078301548116608083015260089092015490911660a0909101528451859087908110620017f557620017f5620031e3565b602002602001018190525084806200180d906200338f565b9550505b60010162001536565b5050600101620014e9565b509392505050565b33600090815260208181526040808320805482518185028101850190935280835260609492939192909184015b8282101562001ac1578382906000526020600020906009020160405180610140016040529081600082015481526020016001820180546200189b9062003224565b80601f0160208091040260200160405190810160405280929190818152602001828054620018c99062003224565b80156200191a5780601f10620018ee576101008083540402835291602001916200191a565b820191906000526020600020905b815481529060010190602001808311620018fc57829003601f168201915b50505050508152602001600282018054620019359062003224565b80601f0160208091040260200160405190810160405280929190818152602001828054620019639062003224565b8015620019b45780601f106200198857610100808354040283529160200191620019b4565b820191906000526020600020905b8154815290600101906020018083116200199657829003601f168201915b5050505050815260200160038201548152602001600482018054620019d99062003224565b80601f016020809104026020016040519081016040528092919081815260200182805462001a079062003224565b801562001a585780601f1062001a2c5761010080835404028352916020019162001a58565b820191906000526020600020905b81548152906001019060200180831162001a3a57829003601f168201915b5050509183525050600582015460208083019190915260068301546001600160a01b038082166040850152600160a01b90910460ff161515606084015260078401548116608084015260089093015490921660a09091015290825260019290920191016200185a565b50505050905090565b606060008060005b60025481101562001c395760008060006002848154811062001af85762001af8620031e3565b60009182526020808320909101546001600160a01b03168352820192909252604001812091505b815481101562001c2e5781818154811062001b3e5762001b3e620031e3565b906000526020600020906009020160060160149054906101000a900460ff16801562001c0f5750600382828154811062001b7c5762001b7c620031e3565b6000918252602091829020600760099092020101546040805163afe0104360e01b815290516001600160a01b039092169263afe01043926004808401938290030181865afa15801562001bd3573d6000803e3d6000fd5b505050506040513d601f19601f8201168201806040525081019062001bf9919062003512565b600481111562001c0d5762001c0d620034fc565b145b1562001c25578462001c21816200338f565b9550505b60010162001b1f565b505060010162001ad2565b5060008267ffffffffffffffff81111562001c585762001c5862002d7f565b60405190808252806020026020018201604052801562001c9557816020015b62001c8162002ca7565b81526020019060019003908162001c775790505b50905060005b600254811015620018255760008060006002848154811062001cc15762001cc1620031e3565b60009182526020808320909101546001600160a01b03168352820192909252604001812091505b8154811015620020765781818154811062001d075762001d07620031e3565b906000526020600020906009020160060160149054906101000a900460ff16801562001dd85750600382828154811062001d455762001d45620031e3565b6000918252602091829020600760099092020101546040805163afe0104360e01b815290516001600160a01b039092169263afe01043926004808401938290030181865afa15801562001d9c573d6000803e3d6000fd5b505050506040513d601f19601f8201168201806040525081019062001dc2919062003512565b600481111562001dd65762001dd6620034fc565b145b156200206d5781818154811062001df35762001df3620031e3565b9060005260206000209060090201604051806101400160405290816000820154815260200160018201805462001e299062003224565b80601f016020809104026020016040519081016040528092919081815260200182805462001e579062003224565b801562001ea85780601f1062001e7c5761010080835404028352916020019162001ea8565b820191906000526020600020905b81548152906001019060200180831162001e8a57829003601f168201915b5050505050815260200160028201805462001ec39062003224565b80601f016020809104026020016040519081016040528092919081815260200182805462001ef19062003224565b801562001f425780601f1062001f165761010080835404028352916020019162001f42565b820191906000526020600020905b81548152906001019060200180831162001f2457829003601f168201915b505050505081526020016003820154815260200160048201805462001f679062003224565b80601f016020809104026020016040519081016040528092919081815260200182805462001f959062003224565b801562001fe65780601f1062001fba5761010080835404028352916020019162001fe6565b820191906000526020600020905b81548152906001019060200180831162001fc857829003601f168201915b50505091835250506005820154602082015260068201546001600160a01b038082166040840152600160a01b90910460ff161515606083015260078301548116608083015260089092015490911660a0909101528451859087908110620020515762002051620031e3565b6020026020010181905250848062002069906200338f565b9550505b60010162001ce8565b505060010162001c9b565b6001600160a01b03831660009081526020819052604081209080805b8354811015620020eb5787848281548110620020bd57620020bd620031e3565b90600052602060002090600902016000015403620020e25760019250809150620020eb565b6001016200209d565b50816200210c5760405162461bcd60e51b81526004016200028390620033ab565b828181548110620021215762002121620031e3565b906000526020600020906009020160060160149054906101000a900460ff166200218e5760405162461bcd60e51b815260206004820152601d60248201527f4974656d206861737373206e6f74206265656e20707572636861736564000000604482015260640162000283565b336001600160a01b0316838281548110620021ad57620021ad620031e3565b60009182526020909120600660099092020101546001600160a01b031614620022255760405162461bcd60e51b815260206004820152602360248201527f4f6e6c79207468652062757965722063616e2063616e63656c20746865206f726044820152623232b960e91b606482015260840162000283565b8281815481106200223a576200223a620031e3565b60009182526020918290206007600990920201015460408051635b0222bb60e01b815290516001600160a01b0390921692635b0222bb926004808401938290030181865afa15801562002291573d6000803e3d6000fd5b505050506040513d601f19601f82011682018060405250810190620022b7919062003535565b620022c490603c6200354f565b421115620023155760405162461bcd60e51b815260206004820152601f60248201527f43616e63656c6c6174696f6e20706572696f6420686173206578706972656400604482015260640162000283565b60008382815481106200232c576200232c620031e3565b906000526020600020906009020160060160146101000a81548160ff02191690831515021790555060008382815481106200236b576200236b620031e3565b906000526020600020906009020160060160006101000a8154816001600160a01b0302191690836001600160a01b031602179055506000838281548110620023b757620023b7620031e3565b6000918252602091829020600990910201600701546040516001600160a01b039091163180825292507f5e43e6c33b0654c056b16044ddccf17d9e1da06a6523e75be8f7133f80e2345e910160405180910390a16040516001600160a01b0388163181527f64f94cc1b9db4414f5017add39d53fc2644d66038e8c0ea3c887e90730075da89060200160405180910390a1851515600103620024d857838281548110620024685762002468620031e3565b60009182526020822060076009909202010154604080516317cd970760e31b815290516001600160a01b039092169263be6cb8389260048084019382900301818387803b158015620024b957600080fd5b505af1158015620024ce573d6000803e3d6000fd5b5050505062002560565b838281548110620024ed57620024ed620031e3565b60009182526020909120600990910201600701546040516344f0f41560e11b815286151560048201526001600160a01b03909116906389e1e82a90602401600060405180830381600087803b1580156200254657600080fd5b505af11580156200255b573d6000803e3d6000fd5b505050505b6000848381548110620025775762002577620031e3565b6000918252602091829020600990910201600701546040516001600160a01b039091163180825292507f5e43e6c33b0654c056b16044ddccf17d9e1da06a6523e75be8f7133f80e2345e910160405180910390a16000858481548110620025e257620025e2620031e3565b906000526020600020906009020160070160006101000a8154816001600160a01b0302191690836001600160a01b031602179055507ff69c7ea3f71dad86e17ba97a88b7e8f1708c0946bd98c7584e9942f60da8728e89336040516200265b9291909182526001600160a01b0316602082015260400190565b60405180910390a16040516001600160a01b0389163181527f64f94cc1b9db4414f5017add39d53fc2644d66038e8c0ea3c887e90730075da89060200160405180910390a1620026ef6040518060400160405280601881526020017f4f726465722063616e63656c65643a202573206279202573000000000000000081525086858154811062000c555762000c55620031e3565b505050505050505050565b606060008060005b6002548110156200279e57336001600160a01b0316600282815481106200272d576200272d620031e3565b6000918252602090912001546001600160a01b031614620027955760008060028381548110620027615762002761620031e3565b60009182526020808320909101546001600160a01b031683528201929092526040019020546200279290846200354f565b92505b60010162002702565b5060008267ffffffffffffffff811115620027bd57620027bd62002d7f565b604051908082528060200260200182016040528015620027fa57816020015b620027e662002ca7565b815260200190600190039081620027dc5790505b50905060005b60025481101562002b6f57336001600160a01b0316600282815481106200282b576200282b620031e3565b6000918252602090912001546001600160a01b03161462002b6657600080600060028481548110620028615762002861620031e3565b60009182526020808320909101546001600160a01b03168352820192909252604001812091505b815481101562002b6357818181548110620028a757620028a7620031e3565b906000526020600020906009020160060160149054906101000a900460ff1662002b5a57818181548110620028e057620028e0620031e3565b90600052602060002090600902016040518061014001604052908160008201548152602001600182018054620029169062003224565b80601f0160208091040260200160405190810160405280929190818152602001828054620029449062003224565b8015620029955780601f10620029695761010080835404028352916020019162002995565b820191906000526020600020905b8154815290600101906020018083116200297757829003601f168201915b50505050508152602001600282018054620029b09062003224565b80601f0160208091040260200160405190810160405280929190818152602001828054620029de9062003224565b801562002a2f5780601f1062002a035761010080835404028352916020019162002a2f565b820191906000526020600020905b81548152906001019060200180831162002a1157829003601f168201915b505050505081526020016003820154815260200160048201805462002a549062003224565b80601f016020809104026020016040519081016040528092919081815260200182805462002a829062003224565b801562002ad35780601f1062002aa75761010080835404028352916020019162002ad3565b820191906000526020600020905b81548152906001019060200180831162002ab557829003601f168201915b50505091835250506005820154602082015260068201546001600160a01b038082166040840152600160a01b90910460ff161515606083015260078301548116608083015260089092015490911660a090910152845185908790811062002b3e5762002b3e620031e3565b6020026020010181905250848062002b56906200338f565b9550505b60010162002888565b50505b60010162002800565b5062002ba16040518060400160405280600d81526020016c02a37ba30b61024ba32b6b99d1609d1b8152508462002bdb565b62002bd46040518060400160405280600f81526020016e021bab93932b73a1024b73232bc1d1608d1b8152508362002bdb565b9392505050565b62002c24828260405160240162002bf492919062003565565b60408051601f198184030181529190526020810180516001600160e01b0316632d839cb360e21b17905262002c78565b5050565b62002c7383838360405160240162002c439392919062003589565b60408051601f198184030181529190526020810180516001600160e01b03166395ed019560e01b17905262002c78565b505050565b62002c838162002c86565b50565b60006a636f6e736f6c652e6c6f679050600080835160208501845afa505050565b60405180610140016040528060008152602001606081526020016060815260200160008152602001606081526020016000815260200160006001600160a01b0316815260200160001515815260200160006001600160a01b0316815260200160006001600160a01b031681525090565b50805462002d259062003224565b6000825580601f1062002d36575050565b601f01602090049060005260206000209081019062002c83919062002d64565b61195180620035cc83390190565b5b8082111562002d7b576000815560010162002d65565b5090565b634e487b7160e01b600052604160045260246000fd5b600082601f83011262002da757600080fd5b813567ffffffffffffffff8082111562002dc55762002dc562002d7f565b604051601f8301601f19908116603f0116810190828211818310171562002df05762002df062002d7f565b8160405283815286602085880101111562002e0a57600080fd5b836020870160208301376000602085830101528094505050505092915050565b600080600080600060a0868803121562002e4357600080fd5b85359450602086013567ffffffffffffffff8082111562002e6357600080fd5b62002e7189838a0162002d95565b9550604088013591508082111562002e8857600080fd5b62002e9689838a0162002d95565b945060608801359350608088013591508082111562002eb457600080fd5b5062002ec38882890162002d95565b9150509295509295909350565b6000806000806080858703121562002ee757600080fd5b843567ffffffffffffffff8082111562002f0057600080fd5b62002f0e8883890162002d95565b9550602087013591508082111562002f2557600080fd5b62002f338883890162002d95565b945060408701359350606087013591508082111562002f5157600080fd5b5062002f608782880162002d95565b91505092959194509250565b6000815180845260005b8181101562002f945760208185018101518683018201520162002f76565b506000602082860101526020601f19601f83011685010191505092915050565b600060208083018184528085518083526040925060408601915060408160051b87010184880160005b83811015620030bf57603f1989840301855281516101408151855288820151818a8701526200300f8287018262002f6c565b915050878201518582038987015262003029828262002f6c565b91505060608083015181870152506080808301518683038288015262003050838262002f6c565b9250505060a080830151818701525060c0808301516200307a828801826001600160a01b03169052565b505060e082810151151590860152610100808301516001600160a01b039081169187019190915261012092830151169190940152938601939086019060010162002fdd565b509098975050505050505050565b60008060408385031215620030e157600080fd5b82359150602083013567ffffffffffffffff8111156200310057600080fd5b6200310e8582860162002d95565b9150509250929050565b6000602082840312156200312b57600080fd5b5035919050565b80356001600160a01b03811681146200314a57600080fd5b919050565b600080604083850312156200316357600080fd5b82359150620031756020840162003132565b90509250929050565b803580151581146200314a57600080fd5b60008060008060808587031215620031a657600080fd5b84359350620031b86020860162003132565b9250620031c8604086016200317e565b9150620031d8606086016200317e565b905092959194509250565b634e487b7160e01b600052603260045260246000fd5b602080825260119082015270125d195b48185b1c9958591e481cdbdb19607a1b604082015260600190565b600181811c908216806200323957607f821691505b6020821081036200325a57634e487b7160e01b600052602260045260246000fd5b50919050565b601f82111562002c73576000816000526020600020601f850160051c810160208610156200328b5750805b601f850160051c820191505b81811015620013ba5782815560010162003297565b815167ffffffffffffffff811115620032c957620032c962002d7f565b620032e181620032da845462003224565b8462003260565b602080601f831160018114620033195760008415620033005750858301515b600019600386901b1c1916600185901b178555620013ba565b600085815260208120601f198616915b828110156200334a5788860151825594840194600190910190840162003329565b5085821015620033695787850151600019600388901b60f8161c191681555b5050505050600190811b01905550565b634e487b7160e01b600052601160045260246000fd5b600060018201620033a457620033a462003379565b5060010190565b6020808252600e908201526d125d195b481b9bdd08199bdd5b9960921b604082015260600190565b60208152600062002bd4602083018462002f6c565b81810381811115620033fe57620033fe62003379565b92915050565b81810362003410575050565b6200341c825462003224565b67ffffffffffffffff81111562003437576200343762002d7f565b6200344881620032da845462003224565b6000601f8211600181146200347f5760008315620034665750848201545b600019600385901b1c1916600184901b17845562000cfe565b600085815260209020601f19841690600086815260209020845b83811015620034bb578286015482556001958601959091019060200162003499565b5085831015620033695793015460001960f8600387901b161c19169092555050600190811b01905550565b634e487b7160e01b600052603160045260246000fd5b634e487b7160e01b600052602160045260246000fd5b6000602082840312156200352557600080fd5b81516005811062002bd457600080fd5b6000602082840312156200354857600080fd5b5051919050565b80820180821115620033fe57620033fe62003379565b6040815260006200357a604083018562002f6c565b90508260208301529392505050565b6060815260006200359e606083018662002f6c565b8281036020840152620035b2818662002f6c565b91505060018060a01b038316604083015294935050505056fe60806040526040516200195138038062001951833981016040819052620000269162000124565b60018054600280546001600160a01b038581166001600160a01b03199283161790925560038054909116736a7d3230514ee0e8078f23cf65b367d9984b055a17905584166101000260ff199081166001600160a81b0319909216919091178255600580549091169055426000908155600480549283018155905260408051808201909152600c81526b24ba32b6903137bab3b43a1760a11b60208201527f8a35acfbc15ff81a39ae7d344fd709f28e8600b4aa8c65c6b64bfe7fe36bd19b90910190620000f4908262000203565b50506008805460ff1916905550620002cf565b80516001600160a01b03811681146200011f57600080fd5b919050565b600080604083850312156200013857600080fd5b620001438362000107565b9150620001536020840162000107565b90509250929050565b634e487b7160e01b600052604160045260246000fd5b600181811c908216806200018757607f821691505b602082108103620001a857634e487b7160e01b600052602260045260246000fd5b50919050565b601f821115620001fe576000816000526020600020601f850160051c81016020861015620001d95750805b601f850160051c820191505b81811015620001fa57828155600101620001e5565b5050505b505050565b81516001600160401b038111156200021f576200021f6200015c565b620002378162000230845462000172565b84620001ae565b602080601f8311600181146200026f5760008415620002565750858301515b600019600386901b1c1916600185901b178555620001fa565b600085815260208120601f198616915b82811015620002a0578886015182559484019460019091019084016200027f565b5085821015620002bf5787850151600019600388901b60f8161c191681555b5050505050600190811b01905550565b61167280620002df6000396000f3fe6080604052600436106100fe5760003560e01c80638285074b11610095578063c00ccd5411610064578063c00ccd541461027e578063d16f5b291461029e578063dd3fa136146102c8578063df8d93b4146102e8578063eaaf0b63146102fd57600080fd5b80638285074b1461021c57806389e1e82a1461023c578063afe010431461024f578063be6cb8381461027657600080fd5b80635b0222bb116100d15780635b0222bb1461019e5780635e10177b146101c257806364e6aa52146101d75780637150d8ae146101f757600080fd5b806308551a53146101035780631865c57d1461014057806319561dae146101655780634fd6137c14610187575b600080fd5b34801561010f57600080fd5b50600254610123906001600160a01b031681565b6040516001600160a01b0390911681526020015b60405180910390f35b34801561014c57600080fd5b50610155610321565b60405161013794939291906111d1565b34801561017157600080fd5b5061017a6104f0565b6040516101379190611222565b34801561019357600080fd5b5061019c61057e565b005b3480156101aa57600080fd5b506101b460005481565b604051908152602001610137565b3480156101ce57600080fd5b5061019c61069f565b3480156101e357600080fd5b5061017a6101f236600461123c565b6107d7565b34801561020357600080fd5b506001546101239061010090046001600160a01b031681565b34801561022857600080fd5b5061019c61023736600461126b565b610802565b61019c61024a36600461131c565b610931565b34801561025b57600080fd5b506001546102699060ff1681565b604051610137919061133e565b61019c610afe565b34801561028a57600080fd5b5061019c61029936600461126b565b610c86565b3480156102aa57600080fd5b506008546102b89060ff1681565b6040519015158152602001610137565b3480156102d457600080fd5b5061019c6102e336600461126b565b610d88565b3480156102f457600080fd5b5061017a610f45565b34801561030957600080fd5b50610312610f52565b60405161013793929190611352565b60006060806060600160009054906101000a900460ff1660096006600782805461034a906113de565b80601f0160208091040260200160405190810160405280929190818152602001828054610376906113de565b80156103c35780601f10610398576101008083540402835291602001916103c3565b820191906000526020600020905b8154815290600101906020018083116103a657829003601f168201915b505050505092508180546103d6906113de565b80601f0160208091040260200160405190810160405280929190818152602001828054610402906113de565b801561044f5780601f106104245761010080835404028352916020019161044f565b820191906000526020600020905b81548152906001019060200180831161043257829003601f168201915b50505050509150808054610462906113de565b80601f016020809104026020016040519081016040528092919081815260200182805461048e906113de565b80156104db5780601f106104b0576101008083540402835291602001916104db565b820191906000526020600020905b8154815290600101906020018083116104be57829003601f168201915b50505050509050935093509350935090919293565b600680546104fd906113de565b80601f0160208091040260200160405190810160405280929190818152602001828054610529906113de565b80156105765780601f1061054b57610100808354040283529160200191610576565b820191906000526020600020905b81548152906001019060200180831161055957829003601f168201915b505050505081565b60015461010090046001600160a01b031633146105b65760405162461bcd60e51b81526004016105ad90611418565b60405180910390fd5b6001805460ff1660048111156105ce576105ce611153565b146106255760405162461bcd60e51b815260206004820152602160248201527f43616e6e6f74206f70656e2064697370757465206174207468697320737461676044820152606560f81b60648201526084016105ad565b6001805460ff199081166003178255600880549091168217905560048054918201815560005260408051808201909152601c81527f44697370757465206f70656e6564206279207468652062757965722e0000000060208201526000805160206115f48339815191529091019061069c90826114a0565b50565b60015461010090046001600160a01b031633146106ce5760405162461bcd60e51b81526004016105ad90611418565b6001805460ff1660048111156106e6576106e6611153565b146107335760405162461bcd60e51b815260206004820152601760248201527f43616e6e6f7420636f6e6669726d2064656c697665727900000000000000000060448201526064016105ad565b6002546040516001600160a01b03909116904780156108fc02916000818181858888f1935050505015801561076c573d6000803e3d6000fd5b506001805460ff1916600217815560048054918201815560005260408051808201909152601b81527f4974656d207265636965766564206279207468652062757965722e000000000060208201526000805160206115f48339815191529091019061069c90826114a0565b600481815481106107e757600080fd5b9060005260206000200160009150905080546104fd906113de565b60015461010090046001600160a01b031633146108315760405162461bcd60e51b81526004016105ad90611418565b600360015460ff16600481111561084a5761084a611153565b146108675760405162461bcd60e51b81526004016105ad90611560565b60078054610874906113de565b1590506108c35760405162461bcd60e51b815260206004820181905260248201527f50726f6f6620616c7265616479207375626d697474656420627920627579657260448201526064016105ad565b6000600680546108d2906113de565b9050116109215760405162461bcd60e51b815260206004820152601e60248201527f53656c6c6572206d757374207375626d69742070726f6f66206669727374000060448201526064016105ad565b600761092d82826114a0565b5050565b6003546001600160a01b031633146109975760405162461bcd60e51b8152602060048201526024808201527f4f6e6c792061726269747261746f722063616e2063616c6c2074686973206d656044820152631d1a1bd960e21b60648201526084016105ad565b600360015460ff1660048111156109b0576109b0611153565b146109cd5760405162461bcd60e51b81526004016105ad90611560565b8015610a60576001546040516001600160a01b0361010090920491909116904780156108fc02916000818181858888f19350505050158015610a13573d6000803e3d6000fd5b50600480546001810182556000918252604080516060810190915260238082526000805160206115f483398151915290920192916115d16020830139610a5a9150826114a0565b50610ae2565b6002546040516001600160a01b03909116904780156108fc02916000818181858888f19350505050158015610a99573d6000803e3d6000fd5b50600480546001810182556000918252604080516060810190915260248082526000805160206115f483398151915290920192916115ad6020830139610ae09150826114a0565b505b506001805460ff19908116600417909155600880549091169055565b600060015460ff166004811115610b1757610b17611153565b14610b985760405162461bcd60e51b8152602060048201526044602482018190527f43616e6e6f7420726566756e642e204974656d2068617320616c726561647920908201527f6265656e2073686970706564206f7220697320696e20616e6f7468657220737460648201526330ba329760e11b608482015260a4016105ad565b600054610ba690603c61158b565b4210610bf45760405162461bcd60e51b815260206004820152601f60248201527f43616e63656c6c6174696f6e20706572696f6420686173207061737365642e0060448201526064016105ad565b6001546040516001600160a01b0361010090920491909116904780156108fc02916000818181858888f19350505050158015610c34573d6000803e3d6000fd5b506001805460ff191660049081178255805491820181556000908152604080516060810190915260298082526000805160206115f483398151915290930192611614602083013961069c9150826114a0565b6002546001600160a01b03163314610ce05760405162461bcd60e51b815260206004820181905260248201527f4f6e6c792073656c6c65722063616e2063616c6c2074686973206d6574686f6460448201526064016105ad565b600360015460ff166004811115610cf957610cf9611153565b14610d165760405162461bcd60e51b81526004016105ad90611560565b60068054610d23906113de565b159050610d7c5760405162461bcd60e51b815260206004820152602160248201527f50726f6f6620616c7265616479207375626d69747465642062792073656c6c656044820152603960f91b60648201526084016105ad565b600661092d82826114a0565b6002546001600160a01b03163314610de25760405162461bcd60e51b815260206004820181905260248201527f4f6e6c792073656c6c65722063616e2063616c6c2074686973206d6574686f6460448201526064016105ad565b600060015460ff166004811115610dfb57610dfb611153565b14610e485760405162461bcd60e51b815260206004820152601e60248201527f43616e6e6f7420736869702e20496e636f7272656374207374617475732e000060448201526064016105ad565b600054610e5690603c61158b565b421015610ecb5760405162461bcd60e51b815260206004820152603d60248201527f43616e6e6f742073686970206265666f7265203135206d696e7574652063616e60448201527f63656c6c6174696f6e20706572696f642068617320656c61707365642e00000060648201526084016105ad565b6001805460ff1916811790556009610ee382826114a0565b506004805460018101825560009190915260408051808201909152601881527f4974656d2073656e74206279207468652073656c6c65722e000000000000000060208201526000805160206115f48339815191529091019061092d90826114a0565b600780546104fd906113de565b606080606060046006600782805480602002602001604051908101604052809291908181526020016000905b8282101561102a578382906000526020600020018054610f9d906113de565b80601f0160208091040260200160405190810160405280929190818152602001828054610fc9906113de565b80156110165780601f10610feb57610100808354040283529160200191611016565b820191906000526020600020905b815481529060010190602001808311610ff957829003601f168201915b505050505081526020019060010190610f7e565b50505050925081805461103c906113de565b80601f0160208091040260200160405190810160405280929190818152602001828054611068906113de565b80156110b55780601f1061108a576101008083540402835291602001916110b5565b820191906000526020600020905b81548152906001019060200180831161109857829003601f168201915b505050505091508080546110c8906113de565b80601f01602080910402602001604051908101604052809291908181526020018280546110f4906113de565b80156111415780601f1061111657610100808354040283529160200191611141565b820191906000526020600020905b81548152906001019060200180831161112457829003601f168201915b50505050509050925092509250909192565b634e487b7160e01b600052602160045260246000fd5b6005811061118757634e487b7160e01b600052602160045260246000fd5b9052565b6000815180845260005b818110156111b157602081850181015186830182015201611195565b506000602082860101526020601f19601f83011685010191505092915050565b6111db8186611169565b6080602082015260006111f1608083018661118b565b8281036040840152611203818661118b565b90508281036060840152611217818561118b565b979650505050505050565b602081526000611235602083018461118b565b9392505050565b60006020828403121561124e57600080fd5b5035919050565b634e487b7160e01b600052604160045260246000fd5b60006020828403121561127d57600080fd5b813567ffffffffffffffff8082111561129557600080fd5b818401915084601f8301126112a957600080fd5b8135818111156112bb576112bb611255565b604051601f8201601f19908116603f011681019083821181831017156112e3576112e3611255565b816040528281528760208487010111156112fc57600080fd5b826020860160208301376000928101602001929092525095945050505050565b60006020828403121561132e57600080fd5b8135801515811461123557600080fd5b6020810161134c8284611169565b92915050565b6000606082016060835280865180835260808501915060808160051b8601019250602080890160005b838110156113a957607f1988870301855261139786835161118b565b9550938201939082019060010161137b565b505050505082810360208401526113c0818661118b565b905082810360408401526113d4818561118b565b9695505050505050565b600181811c908216806113f257607f821691505b60208210810361141257634e487b7160e01b600052602260045260246000fd5b50919050565b6020808252601f908201527f4f6e6c792062757965722063616e2063616c6c2074686973206d6574686f6400604082015260600190565b601f82111561149b576000816000526020600020601f850160051c810160208610156114785750805b601f850160051c820191505b8181101561149757828155600101611484565b5050505b505050565b815167ffffffffffffffff8111156114ba576114ba611255565b6114ce816114c884546113de565b8461144f565b602080601f83116001811461150357600084156114eb5750858301515b600019600386901b1c1916600185901b178555611497565b600085815260208120601f198616915b8281101561153257888601518255948401946001909101908401611513565b50858210156115505787850151600019600388901b60f8161c191681555b5050505050600190811b01905550565b6020808252601190820152704e6f20616374697665206469737075746560781b604082015260600190565b8082018082111561134c57634e487b7160e01b600052601160045260246000fdfe4469737075746520636c6f7365642e2053656c6c65722077617320726566756e6465642e4469737075746520636c6f7365642e2042757965722077617320726566756e6465642e8a35acfbc15ff81a39ae7d344fd709f28e8600b4aa8c65c6b64bfe7fe36bd19b4974656d2063616e63656c6c656420616e6420726566756e64656420746f207468652062757965722ea2646970667358221220b1ff31f288d9595ec552e1c4b4ada91a4178bde62f8a4f78a2332d31c507424464736f6c63430008180033a264697066735822122013fced70b5cac64a49f5d0a37543b7b127920b662340adecf82858bcaf0f62c664736f6c63430008180033","opcodes":"PUSH1 0x80 PUSH1 0x40 MSTORE CALLVALUE DUP1 ISZERO PUSH2 0x10 JUMPI PUSH1 0x0 DUP1 REVERT JUMPDEST POP PUSH2 0x4F52 DUP1 PUSH2 0x20 PUSH1 0x0 CODECOPY PUSH1 0x0 RETURN INVALID PUSH1 0x80 PUSH1 0x40 MSTORE PUSH1 0x4 CALLDATASIZE LT PUSH3 0xB5 JUMPI PUSH1 0x0 CALLDATALOAD PUSH1 0xE0 SHR DUP1 PUSH4 0x8AF8A986 GT PUSH3 0x6C JUMPI DUP1 PUSH4 0x8AF8A986 EQ PUSH3 0x197 JUMPI DUP1 PUSH4 0x9AB7E23B EQ PUSH3 0x1AF JUMPI DUP1 PUSH4 0xB24DB86F EQ PUSH3 0x1C7 JUMPI DUP1 PUSH4 0xBA301541 EQ PUSH3 0x1DF JUMPI DUP1 PUSH4 0xDBC37670 EQ PUSH3 0x1F6 JUMPI DUP1 PUSH4 0xE2C03ACE EQ PUSH3 0x20E JUMPI PUSH1 0x0 DUP1 REVERT JUMPDEST DUP1 PUSH4 0x461459A EQ PUSH3 0xBA JUMPI DUP1 PUSH4 0x13DF81D6 EQ PUSH3 0xE1 JUMPI DUP1 PUSH4 0x38F5234F EQ PUSH3 0x106 JUMPI DUP1 PUSH4 0x4D25CE47 EQ PUSH3 0x136 JUMPI DUP1 PUSH4 0x654FC833 EQ PUSH3 0x15B JUMPI DUP1 PUSH4 0x7BFE9EFD EQ PUSH3 0x180 JUMPI JUMPDEST PUSH1 0x0 DUP1 REVERT JUMPDEST CALLVALUE DUP1 ISZERO PUSH3 0xC7 JUMPI PUSH1 0x0 DUP1 REVERT JUMPDEST POP PUSH3 0xDF PUSH3 0xD9 CALLDATASIZE PUSH1 0x4 PUSH3 0x2E2A JUMP JUMPDEST PUSH3 0x235 JUMP JUMPDEST STOP JUMPDEST CALLVALUE DUP1 ISZERO PUSH3 0xEE JUMPI PUSH1 0x0 DUP1 REVERT JUMPDEST POP PUSH3 0xDF PUSH3 0x100 CALLDATASIZE PUSH1 0x4 PUSH3 0x2ED0 JUMP JUMPDEST PUSH3 0x463 JUMP JUMPDEST CALLVALUE DUP1 ISZERO PUSH3 0x113 JUMPI PUSH1 0x0 DUP1 REVERT JUMPDEST POP PUSH3 0x11E PUSH3 0x640 JUMP JUMPDEST PUSH1 0x40 MLOAD PUSH3 0x12D SWAP2 SWAP1 PUSH3 0x2FB4 JUMP JUMPDEST PUSH1 0x40 MLOAD DUP1 SWAP2 SUB SWAP1 RETURN JUMPDEST CALLVALUE DUP1 ISZERO PUSH3 0x143 JUMPI PUSH1 0x0 DUP1 REVERT JUMPDEST POP PUSH3 0xDF PUSH3 0x155 CALLDATASIZE PUSH1 0x4 PUSH3 0x30CD JUMP JUMPDEST PUSH3 0x9FB JUMP JUMPDEST CALLVALUE DUP1 ISZERO PUSH3 0x168 JUMPI PUSH1 0x0 DUP1 REVERT JUMPDEST POP PUSH3 0xDF PUSH3 0x17A CALLDATASIZE PUSH1 0x4 PUSH3 0x3118 JUMP JUMPDEST PUSH3 0xD05 JUMP JUMPDEST PUSH3 0xDF PUSH3 0x191 CALLDATASIZE PUSH1 0x4 PUSH3 0x314F JUMP JUMPDEST PUSH3 0x100B JUMP JUMPDEST CALLVALUE DUP1 ISZERO PUSH3 0x1A4 JUMPI PUSH1 0x0 DUP1 REVERT JUMPDEST POP PUSH3 0x11E PUSH3 0x13C2 JUMP JUMPDEST CALLVALUE DUP1 ISZERO PUSH3 0x1BC JUMPI PUSH1 0x0 DUP1 REVERT JUMPDEST POP PUSH3 0x11E PUSH3 0x182D JUMP JUMPDEST CALLVALUE DUP1 ISZERO PUSH3 0x1D4 JUMPI PUSH1 0x0 DUP1 REVERT JUMPDEST POP PUSH3 0x11E PUSH3 0x1ACA JUMP JUMPDEST PUSH3 0xDF PUSH3 0x1F0 CALLDATASIZE PUSH1 0x4 PUSH3 0x318F JUMP JUMPDEST PUSH3 0x2081 JUMP JUMPDEST CALLVALUE DUP1 ISZERO PUSH3 0x203 JUMPI PUSH1 0x0 DUP1 REVERT JUMPDEST POP PUSH3 0x11E PUSH3 0x26FA JUMP JUMPDEST CALLVALUE DUP1 ISZERO PUSH3 0x21B JUMPI PUSH1 0x0 DUP1 REVERT JUMPDEST POP PUSH3 0x226 PUSH1 0x1 SLOAD DUP2 JUMP JUMPDEST PUSH1 0x40 MLOAD SWAP1 DUP2 MSTORE PUSH1 0x20 ADD PUSH3 0x12D JUMP JUMPDEST PUSH1 0x0 DUP6 GT DUP1 ISZERO PUSH3 0x248 JUMPI POP PUSH1 0x1 SLOAD DUP6 GT ISZERO JUMPDEST PUSH3 0x28C JUMPI PUSH1 0x40 MLOAD PUSH3 0x461BCD PUSH1 0xE5 SHL DUP2 MSTORE PUSH1 0x20 PUSH1 0x4 DUP3 ADD MSTORE PUSH1 0xF PUSH1 0x24 DUP3 ADD MSTORE PUSH15 0x125B9D985B1A59081A5D195B481251 PUSH1 0x8A SHL PUSH1 0x44 DUP3 ADD MSTORE PUSH1 0x64 ADD JUMPDEST PUSH1 0x40 MLOAD DUP1 SWAP2 SUB SWAP1 REVERT JUMPDEST CALLER PUSH1 0x0 SWAP1 DUP2 MSTORE PUSH1 0x20 DUP2 SWAP1 MSTORE PUSH1 0x40 DUP2 KECCAK256 SWAP1 DUP1 JUMPDEST DUP3 SLOAD DUP2 LT ISZERO PUSH3 0x40A JUMPI DUP8 DUP4 DUP3 DUP2 SLOAD DUP2 LT PUSH3 0x2BE JUMPI PUSH3 0x2BE PUSH3 0x31E3 JUMP JUMPDEST SWAP1 PUSH1 0x0 MSTORE PUSH1 0x20 PUSH1 0x0 KECCAK256 SWAP1 PUSH1 0x9 MUL ADD PUSH1 0x0 ADD SLOAD SUB PUSH3 0x401 JUMPI PUSH1 0x1 SWAP2 POP DUP3 DUP2 DUP2 SLOAD DUP2 LT PUSH3 0x2EF JUMPI PUSH3 0x2EF PUSH3 0x31E3 JUMP JUMPDEST SWAP1 PUSH1 0x0 MSTORE PUSH1 0x20 PUSH1 0x0 KECCAK256 SWAP1 PUSH1 0x9 MUL ADD PUSH1 0x6 ADD PUSH1 0x14 SWAP1 SLOAD SWAP1 PUSH2 0x100 EXP SWAP1 DIV PUSH1 0xFF AND ISZERO PUSH3 0x32E JUMPI PUSH1 0x40 MLOAD PUSH3 0x461BCD PUSH1 0xE5 SHL DUP2 MSTORE PUSH1 0x4 ADD PUSH3 0x283 SWAP1 PUSH3 0x31F9 JUMP JUMPDEST DUP7 DUP4 DUP3 DUP2 SLOAD DUP2 LT PUSH3 0x344 JUMPI PUSH3 0x344 PUSH3 0x31E3 JUMP JUMPDEST SWAP1 PUSH1 0x0 MSTORE PUSH1 0x20 PUSH1 0x0 KECCAK256 SWAP1 PUSH1 0x9 MUL ADD PUSH1 0x1 ADD SWAP1 DUP2 PUSH3 0x363 SWAP2 SWAP1 PUSH3 0x32AC JUMP JUMPDEST POP DUP6 DUP4 DUP3 DUP2 SLOAD DUP2 LT PUSH3 0x37A JUMPI PUSH3 0x37A PUSH3 0x31E3 JUMP JUMPDEST SWAP1 PUSH1 0x0 MSTORE PUSH1 0x20 PUSH1 0x0 KECCAK256 SWAP1 PUSH1 0x9 MUL ADD PUSH1 0x2 ADD SWAP1 DUP2 PUSH3 0x399 SWAP2 SWAP1 PUSH3 0x32AC JUMP JUMPDEST POP DUP5 DUP4 DUP3 DUP2 SLOAD DUP2 LT PUSH3 0x3B0 JUMPI PUSH3 0x3B0 PUSH3 0x31E3 JUMP JUMPDEST SWAP1 PUSH1 0x0 MSTORE PUSH1 0x20 PUSH1 0x0 KECCAK256 SWAP1 PUSH1 0x9 MUL ADD PUSH1 0x3 ADD DUP2 SWAP1 SSTORE POP DUP4 DUP4 DUP3 DUP2 SLOAD DUP2 LT PUSH3 0x3DB JUMPI PUSH3 0x3DB PUSH3 0x31E3 JUMP JUMPDEST SWAP1 PUSH1 0x0 MSTORE PUSH1 0x20 PUSH1 0x0 KECCAK256 SWAP1 PUSH1 0x9 MUL ADD PUSH1 0x4 ADD SWAP1 DUP2 PUSH3 0x3FA SWAP2 SWAP1 PUSH3 0x32AC JUMP JUMPDEST POP PUSH3 0x40A JUMP JUMPDEST PUSH1 0x1 ADD PUSH3 0x29E JUMP JUMPDEST POP DUP1 PUSH3 0x45A JUMPI PUSH1 0x40 MLOAD PUSH3 0x461BCD PUSH1 0xE5 SHL DUP2 MSTORE PUSH1 0x20 PUSH1 0x4 DUP3 ADD MSTORE PUSH1 0x1E PUSH1 0x24 DUP3 ADD MSTORE PUSH32 0x4974656D20646F6573206E6F742062656C6F6E6720746F2073656E6465720000 PUSH1 0x44 DUP3 ADD MSTORE PUSH1 0x64 ADD PUSH3 0x283 JUMP JUMPDEST POP POP POP POP POP POP POP JUMP JUMPDEST PUSH3 0x493 PUSH1 0x40 MLOAD DUP1 PUSH1 0x40 ADD PUSH1 0x40 MSTORE DUP1 PUSH1 0xC DUP2 MSTORE PUSH1 0x20 ADD PUSH12 0x50726963652069733A202573 PUSH1 0xA0 SHL DUP2 MSTORE POP DUP4 PUSH3 0x2BDB JUMP JUMPDEST CALLER PUSH1 0x0 SWAP1 DUP2 MSTORE PUSH1 0x20 DUP2 SWAP1 MSTORE PUSH1 0x40 DUP2 KECCAK256 SLOAD SWAP1 SUB PUSH3 0x4ED JUMPI PUSH1 0x2 DUP1 SLOAD PUSH1 0x1 DUP2 ADD DUP3 SSTORE PUSH1 0x0 SWAP2 SWAP1 SWAP2 MSTORE PUSH32 0x405787FA12A823E0F2B7631CC41B3BA8828B3321CA811111FA75CD3AA3BB5ACE ADD DUP1 SLOAD PUSH1 0x1 PUSH1 0x1 PUSH1 0xA0 SHL SUB NOT AND CALLER OR SWAP1 SSTORE JUMPDEST PUSH1 0x1 DUP1 SLOAD SWAP1 PUSH1 0x0 PUSH3 0x4FF DUP4 PUSH3 0x338F JUMP JUMPDEST SWAP1 SWAP2 SSTORE POP POP CALLER PUSH1 0x0 DUP2 DUP2 MSTORE PUSH1 0x20 DUP2 DUP2 MSTORE PUSH1 0x40 DUP1 DUP4 KECCAK256 DUP2 MLOAD PUSH2 0x140 DUP2 ADD DUP4 MSTORE PUSH1 0x1 DUP1 SLOAD DUP3 MSTORE DUP2 DUP6 ADD DUP12 DUP2 MSTORE SWAP4 DUP3 ADD DUP11 SWAP1 MSTORE PUSH1 0x60 DUP3 ADD DUP10 SWAP1 MSTORE PUSH1 0x80 DUP3 ADD DUP9 SWAP1 MSTORE TIMESTAMP PUSH1 0xA0 DUP4 ADD MSTORE PUSH1 0xC0 DUP3 ADD DUP7 SWAP1 MSTORE PUSH1 0xE0 DUP3 ADD DUP7 SWAP1 MSTORE PUSH2 0x100 DUP3 ADD DUP7 SWAP1 MSTORE PUSH2 0x120 DUP3 ADD SWAP7 SWAP1 SWAP7 MSTORE DUP2 SLOAD DUP1 DUP8 ADD DUP4 SSTORE SWAP2 DUP6 MSTORE SWAP3 SWAP1 SWAP4 KECCAK256 DUP3 MLOAD PUSH1 0x9 SWAP1 SWAP5 MUL ADD SWAP3 DUP4 SSTORE MLOAD SWAP1 SWAP3 DUP3 ADD SWAP1 PUSH3 0x58D SWAP1 DUP3 PUSH3 0x32AC JUMP JUMPDEST POP PUSH1 0x40 DUP3 ADD MLOAD PUSH1 0x2 DUP3 ADD SWAP1 PUSH3 0x5A4 SWAP1 DUP3 PUSH3 0x32AC JUMP JUMPDEST POP PUSH1 0x60 DUP3 ADD MLOAD PUSH1 0x3 DUP3 ADD SSTORE PUSH1 0x80 DUP3 ADD MLOAD PUSH1 0x4 DUP3 ADD SWAP1 PUSH3 0x5C5 SWAP1 DUP3 PUSH3 0x32AC JUMP JUMPDEST POP PUSH1 0xA0 DUP3 ADD MLOAD PUSH1 0x5 DUP3 ADD SSTORE PUSH1 0xC0 DUP3 ADD MLOAD PUSH1 0x6 DUP3 ADD DUP1 SLOAD PUSH1 0xE0 DUP6 ADD MLOAD ISZERO ISZERO PUSH1 0x1 PUSH1 0xA0 SHL MUL PUSH1 0x1 PUSH1 0x1 PUSH1 0xA8 SHL SUB NOT SWAP1 SWAP2 AND PUSH1 0x1 PUSH1 0x1 PUSH1 0xA0 SHL SUB SWAP4 DUP5 AND OR OR SWAP1 SSTORE PUSH2 0x100 DUP4 ADD MLOAD PUSH1 0x7 DUP4 ADD DUP1 SLOAD SWAP2 DUP4 AND PUSH1 0x1 PUSH1 0x1 PUSH1 0xA0 SHL SUB NOT SWAP3 DUP4 AND OR SWAP1 SSTORE PUSH2 0x120 SWAP1 SWAP4 ADD MLOAD PUSH1 0x8 SWAP1 SWAP3 ADD DUP1 SLOAD SWAP3 SWAP1 SWAP2 AND SWAP2 SWAP1 SWAP3 AND OR SWAP1 SSTORE POP POP POP POP JUMP JUMPDEST CALLER PUSH1 0x0 SWAP1 DUP2 MSTORE PUSH1 0x20 DUP2 SWAP1 MSTORE PUSH1 0x40 DUP2 KECCAK256 PUSH1 0x60 SWAP2 SWAP1 DUP2 SWAP1 DUP2 JUMPDEST DUP2 SLOAD DUP2 LT ISZERO PUSH3 0x6B4 JUMPI DUP2 DUP2 DUP2 SLOAD DUP2 LT PUSH3 0x676 JUMPI PUSH3 0x676 PUSH3 0x31E3 JUMP JUMPDEST SWAP1 PUSH1 0x0 MSTORE PUSH1 0x20 PUSH1 0x0 KECCAK256 SWAP1 PUSH1 0x9 MUL ADD PUSH1 0x6 ADD PUSH1 0x14 SWAP1 SLOAD SWAP1 PUSH2 0x100 EXP SWAP1 DIV PUSH1 0xFF AND ISZERO PUSH3 0x6AB JUMPI DUP4 PUSH3 0x6A7 DUP2 PUSH3 0x338F JUMP JUMPDEST SWAP5 POP POP JUMPDEST PUSH1 0x1 ADD PUSH3 0x657 JUMP JUMPDEST POP PUSH1 0x0 DUP4 PUSH8 0xFFFFFFFFFFFFFFFF DUP2 GT ISZERO PUSH3 0x6D3 JUMPI PUSH3 0x6D3 PUSH3 0x2D7F JUMP JUMPDEST PUSH1 0x40 MLOAD SWAP1 DUP1 DUP3 MSTORE DUP1 PUSH1 0x20 MUL PUSH1 0x20 ADD DUP3 ADD PUSH1 0x40 MSTORE DUP1 ISZERO PUSH3 0x710 JUMPI DUP2 PUSH1 0x20 ADD JUMPDEST PUSH3 0x6FC PUSH3 0x2CA7 JUMP JUMPDEST DUP2 MSTORE PUSH1 0x20 ADD SWAP1 PUSH1 0x1 SWAP1 SUB SWAP1 DUP2 PUSH3 0x6F2 JUMPI SWAP1 POP JUMPDEST POP SWAP1 POP PUSH1 0x0 JUMPDEST DUP3 SLOAD DUP2 LT ISZERO PUSH3 0x9F2 JUMPI DUP3 DUP2 DUP2 SLOAD DUP2 LT PUSH3 0x735 JUMPI PUSH3 0x735 PUSH3 0x31E3 JUMP JUMPDEST SWAP1 PUSH1 0x0 MSTORE PUSH1 0x20 PUSH1 0x0 KECCAK256 SWAP1 PUSH1 0x9 MUL ADD PUSH1 0x6 ADD PUSH1 0x14 SWAP1 SLOAD SWAP1 PUSH2 0x100 EXP SWAP1 DIV PUSH1 0xFF AND ISZERO PUSH3 0x9E9 JUMPI DUP3 DUP2 DUP2 SLOAD DUP2 LT PUSH3 0x76F JUMPI PUSH3 0x76F PUSH3 0x31E3 JUMP JUMPDEST SWAP1 PUSH1 0x0 MSTORE PUSH1 0x20 PUSH1 0x0 KECCAK256 SWAP1 PUSH1 0x9 MUL ADD PUSH1 0x40 MLOAD DUP1 PUSH2 0x140 ADD PUSH1 0x40 MSTORE SWAP1 DUP2 PUSH1 0x0 DUP3 ADD SLOAD DUP2 MSTORE PUSH1 0x20 ADD PUSH1 0x1 DUP3 ADD DUP1 SLOAD PUSH3 0x7A5 SWAP1 PUSH3 0x3224 JUMP JUMPDEST DUP1 PUSH1 0x1F ADD PUSH1 0x20 DUP1 SWAP2 DIV MUL PUSH1 0x20 ADD PUSH1 0x40 MLOAD SWAP1 DUP2 ADD PUSH1 0x40 MSTORE DUP1 SWAP3 SWAP2 SWAP1 DUP2 DUP2 MSTORE PUSH1 0x20 ADD DUP3 DUP1 SLOAD PUSH3 0x7D3 SWAP1 PUSH3 0x3224 JUMP JUMPDEST DUP1 ISZERO PUSH3 0x824 JUMPI DUP1 PUSH1 0x1F LT PUSH3 0x7F8 JUMPI PUSH2 0x100 DUP1 DUP4 SLOAD DIV MUL DUP4 MSTORE SWAP2 PUSH1 0x20 ADD SWAP2 PUSH3 0x824 JUMP JUMPDEST DUP3 ADD SWAP2 SWAP1 PUSH1 0x0 MSTORE PUSH1 0x20 PUSH1 0x0 KECCAK256 SWAP1 JUMPDEST DUP2 SLOAD DUP2 MSTORE SWAP1 PUSH1 0x1 ADD SWAP1 PUSH1 0x20 ADD DUP1 DUP4 GT PUSH3 0x806 JUMPI DUP3 SWAP1 SUB PUSH1 0x1F AND DUP3 ADD SWAP2 JUMPDEST POP POP POP POP POP DUP2 MSTORE PUSH1 0x20 ADD PUSH1 0x2 DUP3 ADD DUP1 SLOAD PUSH3 0x83F SWAP1 PUSH3 0x3224 JUMP JUMPDEST DUP1 PUSH1 0x1F ADD PUSH1 0x20 DUP1 SWAP2 DIV MUL PUSH1 0x20 ADD PUSH1 0x40 MLOAD SWAP1 DUP2 ADD PUSH1 0x40 MSTORE DUP1 SWAP3 SWAP2 SWAP1 DUP2 DUP2 MSTORE PUSH1 0x20 ADD DUP3 DUP1 SLOAD PUSH3 0x86D SWAP1 PUSH3 0x3224 JUMP JUMPDEST DUP1 ISZERO PUSH3 0x8BE JUMPI DUP1 PUSH1 0x1F LT PUSH3 0x892 JUMPI PUSH2 0x100 DUP1 DUP4 SLOAD DIV MUL DUP4 MSTORE SWAP2 PUSH1 0x20 ADD SWAP2 PUSH3 0x8BE JUMP JUMPDEST DUP3 ADD SWAP2 SWAP1 PUSH1 0x0 MSTORE PUSH1 0x20 PUSH1 0x0 KECCAK256 SWAP1 JUMPDEST DUP2 SLOAD DUP2 MSTORE SWAP1 PUSH1 0x1 ADD SWAP1 PUSH1 0x20 ADD DUP1 DUP4 GT PUSH3 0x8A0 JUMPI DUP3 SWAP1 SUB PUSH1 0x1F AND DUP3 ADD SWAP2 JUMPDEST POP POP POP POP POP DUP2 MSTORE PUSH1 0x20 ADD PUSH1 0x3 DUP3 ADD SLOAD DUP2 MSTORE PUSH1 0x20 ADD PUSH1 0x4 DUP3 ADD DUP1 SLOAD PUSH3 0x8E3 SWAP1 PUSH3 0x3224 JUMP JUMPDEST DUP1 PUSH1 0x1F ADD PUSH1 0x20 DUP1 SWAP2 DIV MUL PUSH1 0x20 ADD PUSH1 0x40 MLOAD SWAP1 DUP2 ADD PUSH1 0x40 MSTORE DUP1 SWAP3 SWAP2 SWAP1 DUP2 DUP2 MSTORE PUSH1 0x20 ADD DUP3 DUP1 SLOAD PUSH3 0x911 SWAP1 PUSH3 0x3224 JUMP JUMPDEST DUP1 ISZERO PUSH3 0x962 JUMPI DUP1 PUSH1 0x1F LT PUSH3 0x936 JUMPI PUSH2 0x100 DUP1 DUP4 SLOAD DIV MUL DUP4 MSTORE SWAP2 PUSH1 0x20 ADD SWAP2 PUSH3 0x962 JUMP JUMPDEST DUP3 ADD SWAP2 SWAP1 PUSH1 0x0 MSTORE PUSH1 0x20 PUSH1 0x0 KECCAK256 SWAP1 JUMPDEST DUP2 SLOAD DUP2 MSTORE SWAP1 PUSH1 0x1 ADD SWAP1 PUSH1 0x20 ADD DUP1 DUP4 GT PUSH3 0x944 JUMPI DUP3 SWAP1 SUB PUSH1 0x1F AND DUP3 ADD SWAP2 JUMPDEST POP POP POP SWAP2 DUP4 MSTORE POP POP PUSH1 0x5 DUP3 ADD SLOAD PUSH1 0x20 DUP3 ADD MSTORE PUSH1 0x6 DUP3 ADD SLOAD PUSH1 0x1 PUSH1 0x1 PUSH1 0xA0 SHL SUB DUP1 DUP3 AND PUSH1 0x40 DUP5 ADD MSTORE PUSH1 0x1 PUSH1 0xA0 SHL SWAP1 SWAP2 DIV PUSH1 0xFF AND ISZERO ISZERO PUSH1 0x60 DUP4 ADD MSTORE PUSH1 0x7 DUP4 ADD SLOAD DUP2 AND PUSH1 0x80 DUP4 ADD MSTORE PUSH1 0x8 SWAP1 SWAP3 ADD SLOAD SWAP1 SWAP2 AND PUSH1 0xA0 SWAP1 SWAP2 ADD MSTORE DUP3 MLOAD DUP4 SWAP1 DUP7 SWAP1 DUP2 LT PUSH3 0x9CD JUMPI PUSH3 0x9CD PUSH3 0x31E3 JUMP JUMPDEST PUSH1 0x20 MUL PUSH1 0x20 ADD ADD DUP2 SWAP1 MSTORE POP DUP4 DUP1 PUSH3 0x9E5 SWAP1 PUSH3 0x338F JUMP JUMPDEST SWAP5 POP POP JUMPDEST PUSH1 0x1 ADD PUSH3 0x716 JUMP JUMPDEST POP SWAP5 SWAP4 POP POP POP POP JUMP JUMPDEST CALLER PUSH1 0x0 SWAP1 DUP2 MSTORE PUSH1 0x20 DUP2 SWAP1 MSTORE PUSH1 0x40 DUP2 KECCAK256 SWAP1 DUP1 DUP1 JUMPDEST DUP4 SLOAD DUP2 LT ISZERO PUSH3 0xA5C JUMPI DUP6 DUP5 DUP3 DUP2 SLOAD DUP2 LT PUSH3 0xA2E JUMPI PUSH3 0xA2E PUSH3 0x31E3 JUMP JUMPDEST SWAP1 PUSH1 0x0 MSTORE PUSH1 0x20 PUSH1 0x0 KECCAK256 SWAP1 PUSH1 0x9 MUL ADD PUSH1 0x0 ADD SLOAD SUB PUSH3 0xA53 JUMPI PUSH1 0x1 SWAP3 POP DUP1 SWAP2 POP PUSH3 0xA5C JUMP JUMPDEST PUSH1 0x1 ADD PUSH3 0xA0E JUMP JUMPDEST POP DUP2 PUSH3 0xA7D JUMPI PUSH1 0x40 MLOAD PUSH3 0x461BCD PUSH1 0xE5 SHL DUP2 MSTORE PUSH1 0x4 ADD PUSH3 0x283 SWAP1 PUSH3 0x33AB JUMP JUMPDEST DUP3 DUP2 DUP2 SLOAD DUP2 LT PUSH3 0xA92 JUMPI PUSH3 0xA92 PUSH3 0x31E3 JUMP JUMPDEST SWAP1 PUSH1 0x0 MSTORE PUSH1 0x20 PUSH1 0x0 KECCAK256 SWAP1 PUSH1 0x9 MUL ADD PUSH1 0x6 ADD PUSH1 0x14 SWAP1 SLOAD SWAP1 PUSH2 0x100 EXP SWAP1 DIV PUSH1 0xFF AND PUSH3 0xAFF JUMPI PUSH1 0x40 MLOAD PUSH3 0x461BCD PUSH1 0xE5 SHL DUP2 MSTORE PUSH1 0x20 PUSH1 0x4 DUP3 ADD MSTORE PUSH1 0x1B PUSH1 0x24 DUP3 ADD MSTORE PUSH32 0x4974656D20686173206E6F74206265656E207075726368617365640000000000 PUSH1 0x44 DUP3 ADD MSTORE PUSH1 0x64 ADD PUSH3 0x283 JUMP JUMPDEST DUP3 DUP2 DUP2 SLOAD DUP2 LT PUSH3 0xB14 JUMPI PUSH3 0xB14 PUSH3 0x31E3 JUMP JUMPDEST PUSH1 0x0 SWAP2 DUP3 MSTORE PUSH1 0x20 SWAP1 SWAP2 KECCAK256 PUSH1 0x9 SWAP1 SWAP2 MUL ADD PUSH1 0x8 ADD SLOAD PUSH1 0x1 PUSH1 0x1 PUSH1 0xA0 SHL SUB AND CALLER EQ PUSH3 0xB81 JUMPI PUSH1 0x40 MLOAD PUSH3 0x461BCD PUSH1 0xE5 SHL DUP2 MSTORE PUSH1 0x20 PUSH1 0x4 DUP3 ADD MSTORE PUSH1 0x1E PUSH1 0x24 DUP3 ADD MSTORE PUSH32 0x4F6E6C792073656C6C65722063616E20736869702074686973206974656D0000 PUSH1 0x44 DUP3 ADD MSTORE PUSH1 0x64 ADD PUSH3 0x283 JUMP JUMPDEST DUP3 DUP2 DUP2 SLOAD DUP2 LT PUSH3 0xB96 JUMPI PUSH3 0xB96 PUSH3 0x31E3 JUMP JUMPDEST PUSH1 0x0 SWAP2 DUP3 MSTORE PUSH1 0x20 SWAP1 SWAP2 KECCAK256 PUSH1 0x7 PUSH1 0x9 SWAP1 SWAP3 MUL ADD ADD SLOAD PUSH1 0x40 MLOAD PUSH4 0x6E9FD09B PUSH1 0xE1 SHL DUP2 MSTORE PUSH1 0x1 PUSH1 0x1 PUSH1 0xA0 SHL SUB SWAP1 SWAP2 AND SWAP1 PUSH4 0xDD3FA136 SWAP1 PUSH3 0xBD9 SWAP1 DUP8 SWAP1 PUSH1 0x4 ADD PUSH3 0x33D3 JUMP JUMPDEST PUSH1 0x0 PUSH1 0x40 MLOAD DUP1 DUP4 SUB DUP2 PUSH1 0x0 DUP8 DUP1 EXTCODESIZE ISZERO DUP1 ISZERO PUSH3 0xBF4 JUMPI PUSH1 0x0 DUP1 REVERT JUMPDEST POP GAS CALL ISZERO DUP1 ISZERO PUSH3 0xC09 JUMPI RETURNDATASIZE PUSH1 0x0 DUP1 RETURNDATACOPY RETURNDATASIZE PUSH1 0x0 REVERT JUMPDEST POP POP POP POP PUSH3 0xCFE PUSH1 0x40 MLOAD DUP1 PUSH1 0x40 ADD PUSH1 0x40 MSTORE DUP1 PUSH1 0x16 DUP2 MSTORE PUSH1 0x20 ADD PUSH22 0x4974656D20736869707065643A202573206279202573 PUSH1 0x50 SHL DUP2 MSTORE POP DUP5 DUP4 DUP2 SLOAD DUP2 LT PUSH3 0xC55 JUMPI PUSH3 0xC55 PUSH3 0x31E3 JUMP JUMPDEST SWAP1 PUSH1 0x0 MSTORE PUSH1 0x20 PUSH1 0x0 KECCAK256 SWAP1 PUSH1 0x9 MUL ADD PUSH1 0x1 ADD DUP1 SLOAD PUSH3 0xC73 SWAP1 PUSH3 0x3224 JUMP JUMPDEST DUP1 PUSH1 0x1F ADD PUSH1 0x20 DUP1 SWAP2 DIV MUL PUSH1 0x20 ADD PUSH1 0x40 MLOAD SWAP1 DUP2 ADD PUSH1 0x40 MSTORE DUP1 SWAP3 SWAP2 SWAP1 DUP2 DUP2 MSTORE PUSH1 0x20 ADD DUP3 DUP1 SLOAD PUSH3 0xCA1 SWAP1 PUSH3 0x3224 JUMP JUMPDEST DUP1 ISZERO PUSH3 0xCF2 JUMPI DUP1 PUSH1 0x1F LT PUSH3 0xCC6 JUMPI PUSH2 0x100 DUP1 DUP4 SLOAD DIV MUL DUP4 MSTORE SWAP2 PUSH1 0x20 ADD SWAP2 PUSH3 0xCF2 JUMP JUMPDEST DUP3 ADD SWAP2 SWAP1 PUSH1 0x0 MSTORE PUSH1 0x20 PUSH1 0x0 KECCAK256 SWAP1 JUMPDEST DUP2 SLOAD DUP2 MSTORE SWAP1 PUSH1 0x1 ADD SWAP1 PUSH1 0x20 ADD DUP1 DUP4 GT PUSH3 0xCD4 JUMPI DUP3 SWAP1 SUB PUSH1 0x1F AND DUP3 ADD SWAP2 JUMPDEST POP POP POP POP POP CALLER PUSH3 0x2C28 JUMP JUMPDEST POP POP POP POP POP JUMP JUMPDEST CALLER PUSH1 0x0 SWAP1 DUP2 MSTORE PUSH1 0x20 DUP2 SWAP1 MSTORE PUSH1 0x40 DUP2 KECCAK256 SWAP1 DUP1 DUP1 JUMPDEST DUP4 SLOAD DUP2 LT ISZERO PUSH3 0xDBA JUMPI DUP5 DUP5 DUP3 DUP2 SLOAD DUP2 LT PUSH3 0xD38 JUMPI PUSH3 0xD38 PUSH3 0x31E3 JUMP JUMPDEST SWAP1 PUSH1 0x0 MSTORE PUSH1 0x20 PUSH1 0x0 KECCAK256 SWAP1 PUSH1 0x9 MUL ADD PUSH1 0x0 ADD SLOAD SUB PUSH3 0xDB1 JUMPI DUP4 DUP2 DUP2 SLOAD DUP2 LT PUSH3 0xD65 JUMPI PUSH3 0xD65 PUSH3 0x31E3 JUMP JUMPDEST SWAP1 PUSH1 0x0 MSTORE PUSH1 0x20 PUSH1 0x0 KECCAK256 SWAP1 PUSH1 0x9 MUL ADD PUSH1 0x6 ADD PUSH1 0x14 SWAP1 SLOAD SWAP1 PUSH2 0x100 EXP SWAP1 DIV PUSH1 0xFF AND ISZERO PUSH3 0xDA4 JUMPI PUSH1 0x40 MLOAD PUSH3 0x461BCD PUSH1 0xE5 SHL DUP2 MSTORE PUSH1 0x4 ADD PUSH3 0x283 SWAP1 PUSH3 0x31F9 JUMP JUMPDEST PUSH1 0x1 SWAP3 POP DUP1 SWAP2 POP PUSH3 0xDBA JUMP JUMPDEST PUSH1 0x1 ADD PUSH3 0xD18 JUMP JUMPDEST POP DUP2 PUSH3 0xE00 JUMPI PUSH1 0x40 MLOAD PUSH3 0x461BCD PUSH1 0xE5 SHL DUP2 MSTORE PUSH1 0x20 PUSH1 0x4 DUP3 ADD MSTORE PUSH1 0x13 PUSH1 0x24 DUP3 ADD MSTORE PUSH19 0x125D195B48191BD95CC81B9BDD08195E1A5CDD PUSH1 0x6A SHL PUSH1 0x44 DUP3 ADD MSTORE PUSH1 0x64 ADD PUSH3 0x283 JUMP JUMPDEST DUP3 SLOAD PUSH1 0x0 SWAP1 PUSH3 0xE13 SWAP1 PUSH1 0x1 SWAP1 PUSH3 0x33E8 JUMP JUMPDEST SWAP1 POP DUP1 DUP3 EQ PUSH3 0xF62 JUMPI DUP4 DUP2 DUP2 SLOAD DUP2 LT PUSH3 0xE32 JUMPI PUSH3 0xE32 PUSH3 0x31E3 JUMP JUMPDEST SWAP1 PUSH1 0x0 MSTORE PUSH1 0x20 PUSH1 0x0 KECCAK256 SWAP1 PUSH1 0x9 MUL ADD DUP5 DUP4 DUP2 SLOAD DUP2 LT PUSH3 0xE55 JUMPI PUSH3 0xE55 PUSH3 0x31E3 JUMP JUMPDEST PUSH1 0x0 SWAP2 DUP3 MSTORE PUSH1 0x20 SWAP1 SWAP2 KECCAK256 DUP3 SLOAD PUSH1 0x9 SWAP1 SWAP3 MUL ADD SWAP1 DUP2 SSTORE PUSH1 0x1 DUP1 DUP3 ADD SWAP1 PUSH3 0xE7E SWAP1 DUP5 ADD DUP3 PUSH3 0x3404 JUMP JUMPDEST POP PUSH1 0x2 DUP2 DUP2 ADD SWAP1 PUSH3 0xE93 SWAP1 DUP5 ADD DUP3 PUSH3 0x3404 JUMP JUMPDEST POP PUSH1 0x3 DUP3 ADD SLOAD DUP2 PUSH1 0x3 ADD SSTORE PUSH1 0x4 DUP3 ADD DUP2 PUSH1 0x4 ADD SWAP1 DUP2 PUSH3 0xEB4 SWAP2 SWAP1 PUSH3 0x3404 JUMP JUMPDEST POP PUSH1 0x5 DUP3 DUP2 ADD SLOAD SWAP1 DUP3 ADD SSTORE PUSH1 0x6 DUP1 DUP4 ADD DUP1 SLOAD SWAP2 DUP4 ADD DUP1 SLOAD PUSH1 0x1 PUSH1 0x1 PUSH1 0xA0 SHL SUB NOT DUP1 DUP3 AND PUSH1 0x1 PUSH1 0x1 PUSH1 0xA0 SHL SUB SWAP6 DUP7 AND SWAP1 DUP2 OR DUP5 SSTORE SWAP4 SLOAD PUSH1 0xFF PUSH1 0x1 PUSH1 0xA0 SHL SWAP2 DUP3 SWAP1 DIV AND ISZERO ISZERO MUL PUSH1 0x1 PUSH1 0x1 PUSH1 0xA8 SHL SUB NOT SWAP1 SWAP3 AND SWAP1 SWAP4 OR OR SWAP1 SSTORE PUSH1 0x7 DUP1 DUP6 ADD SLOAD SWAP1 DUP5 ADD DUP1 SLOAD DUP4 AND SWAP2 DUP5 AND SWAP2 SWAP1 SWAP2 OR SWAP1 SSTORE PUSH1 0x8 SWAP4 DUP5 ADD SLOAD SWAP4 SWAP1 SWAP3 ADD DUP1 SLOAD SWAP1 SWAP3 AND SWAP3 AND SWAP2 SWAP1 SWAP2 OR SWAP1 SSTORE DUP4 SLOAD DUP6 SWAP1 DUP6 SWAP1 DUP5 SWAP1 DUP2 LT PUSH3 0xF50 JUMPI PUSH3 0xF50 PUSH3 0x31E3 JUMP JUMPDEST PUSH1 0x0 SWAP2 DUP3 MSTORE PUSH1 0x20 SWAP1 SWAP2 KECCAK256 PUSH1 0x9 SWAP1 SWAP2 MUL ADD SSTORE JUMPDEST DUP4 DUP1 SLOAD DUP1 PUSH3 0xF75 JUMPI PUSH3 0xF75 PUSH3 0x34E6 JUMP JUMPDEST PUSH1 0x0 DUP3 DUP2 MSTORE PUSH1 0x20 DUP2 KECCAK256 PUSH1 0x9 PUSH1 0x0 NOT SWAP1 SWAP4 ADD SWAP3 DUP4 MUL ADD DUP2 DUP2 SSTORE SWAP1 PUSH3 0xF9D PUSH1 0x1 DUP4 ADD DUP3 PUSH3 0x2D17 JUMP JUMPDEST PUSH3 0xFAD PUSH1 0x2 DUP4 ADD PUSH1 0x0 PUSH3 0x2D17 JUMP JUMPDEST PUSH1 0x3 DUP3 ADD PUSH1 0x0 SWAP1 SSTORE PUSH1 0x4 DUP3 ADD PUSH1 0x0 PUSH3 0xFC7 SWAP2 SWAP1 PUSH3 0x2D17 JUMP JUMPDEST POP PUSH1 0x0 PUSH1 0x5 DUP3 ADD SSTORE PUSH1 0x6 DUP2 ADD DUP1 SLOAD PUSH1 0x1 PUSH1 0x1 PUSH1 0xA8 SHL SUB NOT AND SWAP1 SSTORE PUSH1 0x7 DUP2 ADD DUP1 SLOAD PUSH1 0x1 PUSH1 0x1 PUSH1 0xA0 SHL SUB NOT SWAP1 DUP2 AND SWAP1 SWAP2 SSTORE PUSH1 0x8 SWAP1 SWAP2 ADD DUP1 SLOAD SWAP1 SWAP2 AND SWAP1 SSTORE SWAP1 SSTORE POP POP POP POP POP JUMP JUMPDEST PUSH1 0x0 DUP3 GT DUP1 ISZERO PUSH3 0x101E JUMPI POP PUSH1 0x1 SLOAD DUP3 GT ISZERO JUMPDEST PUSH3 0x105E JUMPI PUSH1 0x40 MLOAD PUSH3 0x461BCD PUSH1 0xE5 SHL DUP2 MSTORE PUSH1 0x20 PUSH1 0x4 DUP3 ADD MSTORE PUSH1 0xF PUSH1 0x24 DUP3 ADD MSTORE PUSH15 0x125B9D985B1A59081A5D195B481251 PUSH1 0x8A SHL PUSH1 0x44 DUP3 ADD MSTORE PUSH1 0x64 ADD PUSH3 0x283 JUMP JUMPDEST PUSH1 0x1 PUSH1 0x1 PUSH1 0xA0 SHL SUB DUP2 AND PUSH1 0x0 SWAP1 DUP2 MSTORE PUSH1 0x20 DUP2 SWAP1 MSTORE PUSH1 0x40 DUP2 KECCAK256 SWAP1 DUP1 DUP1 JUMPDEST DUP4 SLOAD DUP2 LT ISZERO PUSH3 0x10C8 JUMPI DUP6 DUP5 DUP3 DUP2 SLOAD DUP2 LT PUSH3 0x109A JUMPI PUSH3 0x109A PUSH3 0x31E3 JUMP JUMPDEST SWAP1 PUSH1 0x0 MSTORE PUSH1 0x20 PUSH1 0x0 KECCAK256 SWAP1 PUSH1 0x9 MUL ADD PUSH1 0x0 ADD SLOAD SUB PUSH3 0x10BF JUMPI PUSH1 0x1 SWAP3 POP DUP1 SWAP2 POP PUSH3 0x10C8 JUMP JUMPDEST PUSH1 0x1 ADD PUSH3 0x107A JUMP JUMPDEST POP DUP2 PUSH3 0x10E9 JUMPI PUSH1 0x40 MLOAD PUSH3 0x461BCD PUSH1 0xE5 SHL DUP2 MSTORE PUSH1 0x4 ADD PUSH3 0x283 SWAP1 PUSH3 0x33AB JUMP JUMPDEST DUP3 DUP2 DUP2 SLOAD DUP2 LT PUSH3 0x10FE JUMPI PUSH3 0x10FE PUSH3 0x31E3 JUMP JUMPDEST SWAP1 PUSH1 0x0 MSTORE PUSH1 0x20 PUSH1 0x0 KECCAK256 SWAP1 PUSH1 0x9 MUL ADD PUSH1 0x6 ADD PUSH1 0x14 SWAP1 SLOAD SWAP1 PUSH2 0x100 EXP SWAP1 DIV PUSH1 0xFF AND ISZERO PUSH3 0x113D JUMPI PUSH1 0x40 MLOAD PUSH3 0x461BCD PUSH1 0xE5 SHL DUP2 MSTORE PUSH1 0x4 ADD PUSH3 0x283 SWAP1 PUSH3 0x31F9 JUMP JUMPDEST DUP4 PUSH1 0x1 PUSH1 0x1 PUSH1 0xA0 SHL SUB AND DUP4 DUP3 DUP2 SLOAD DUP2 LT PUSH3 0x115C JUMPI PUSH3 0x115C PUSH3 0x31E3 JUMP JUMPDEST PUSH1 0x0 SWAP2 DUP3 MSTORE PUSH1 0x20 SWAP1 SWAP2 KECCAK256 PUSH1 0x8 PUSH1 0x9 SWAP1 SWAP3 MUL ADD ADD SLOAD PUSH1 0x1 PUSH1 0x1 PUSH1 0xA0 SHL SUB AND EQ PUSH3 0x11C8 JUMPI PUSH1 0x40 MLOAD PUSH3 0x461BCD PUSH1 0xE5 SHL DUP2 MSTORE PUSH1 0x20 PUSH1 0x4 DUP3 ADD MSTORE PUSH1 0x1B PUSH1 0x24 DUP3 ADD MSTORE PUSH32 0x4F776E65722063616E206E6F742062757920746865206974656D2E0000000000 PUSH1 0x44 DUP3 ADD MSTORE PUSH1 0x64 ADD PUSH3 0x283 JUMP JUMPDEST DUP3 DUP2 DUP2 SLOAD DUP2 LT PUSH3 0x11DD JUMPI PUSH3 0x11DD PUSH3 0x31E3 JUMP JUMPDEST SWAP1 PUSH1 0x0 MSTORE PUSH1 0x20 PUSH1 0x0 KECCAK256 SWAP1 PUSH1 0x9 MUL ADD PUSH1 0x3 ADD SLOAD CALLVALUE EQ PUSH3 0x124B JUMPI PUSH1 0x40 MLOAD PUSH3 0x461BCD PUSH1 0xE5 SHL DUP2 MSTORE PUSH1 0x20 PUSH1 0x4 DUP3 ADD MSTORE PUSH1 0x23 PUSH1 0x24 DUP3 ADD MSTORE PUSH32 0x496E636F727265637420616D6F756E74206F662065746865722F776569207365 PUSH1 0x44 DUP3 ADD MSTORE PUSH3 0x373A17 PUSH1 0xE9 SHL PUSH1 0x64 DUP3 ADD MSTORE PUSH1 0x84 ADD PUSH3 0x283 JUMP JUMPDEST PUSH1 0x0 CALLVALUE CALLER DUP7 PUSH1 0x40 MLOAD PUSH3 0x125E SWAP1 PUSH3 0x2D56 JUMP JUMPDEST PUSH1 0x1 PUSH1 0x1 PUSH1 0xA0 SHL SUB SWAP3 DUP4 AND DUP2 MSTORE SWAP2 AND PUSH1 0x20 DUP3 ADD MSTORE PUSH1 0x40 ADD PUSH1 0x40 MLOAD DUP1 SWAP2 SUB SWAP1 DUP3 CREATE SWAP1 POP DUP1 ISZERO DUP1 ISZERO PUSH3 0x1293 JUMPI RETURNDATASIZE PUSH1 0x0 DUP1 RETURNDATACOPY RETURNDATASIZE PUSH1 0x0 REVERT JUMPDEST POP SWAP1 POP CALLER DUP5 DUP4 DUP2 SLOAD DUP2 LT PUSH3 0x12AC JUMPI PUSH3 0x12AC PUSH3 0x31E3 JUMP JUMPDEST SWAP1 PUSH1 0x0 MSTORE PUSH1 0x20 PUSH1 0x0 KECCAK256 SWAP1 PUSH1 0x9 MUL ADD PUSH1 0x6 ADD PUSH1 0x0 PUSH2 0x100 EXP DUP2 SLOAD DUP2 PUSH1 0x1 PUSH1 0x1 PUSH1 0xA0 SHL SUB MUL NOT AND SWAP1 DUP4 PUSH1 0x1 PUSH1 0x1 PUSH1 0xA0 SHL SUB AND MUL OR SWAP1 SSTORE POP PUSH1 0x1 DUP5 DUP4 DUP2 SLOAD DUP2 LT PUSH3 0x12F8 JUMPI PUSH3 0x12F8 PUSH3 0x31E3 JUMP JUMPDEST SWAP1 PUSH1 0x0 MSTORE PUSH1 0x20 PUSH1 0x0 KECCAK256 SWAP1 PUSH1 0x9 MUL ADD PUSH1 0x6 ADD PUSH1 0x14 PUSH2 0x100 EXP DUP2 SLOAD DUP2 PUSH1 0xFF MUL NOT AND SWAP1 DUP4 ISZERO ISZERO MUL OR SWAP1 SSTORE POP DUP1 DUP5 DUP4 DUP2 SLOAD DUP2 LT PUSH3 0x1336 JUMPI PUSH3 0x1336 PUSH3 0x31E3 JUMP JUMPDEST SWAP1 PUSH1 0x0 MSTORE PUSH1 0x20 PUSH1 0x0 KECCAK256 SWAP1 PUSH1 0x9 MUL ADD PUSH1 0x7 ADD PUSH1 0x0 PUSH2 0x100 EXP DUP2 SLOAD DUP2 PUSH1 0x1 PUSH1 0x1 PUSH1 0xA0 SHL SUB MUL NOT AND SWAP1 DUP4 PUSH1 0x1 PUSH1 0x1 PUSH1 0xA0 SHL SUB AND MUL OR SWAP1 SSTORE POP PUSH3 0x13BA PUSH1 0x40 MLOAD DUP1 PUSH1 0x40 ADD PUSH1 0x40 MSTORE DUP1 PUSH1 0x18 DUP2 MSTORE PUSH1 0x20 ADD PUSH32 0x4974656D207075726368617365643A2025732062792025730000000000000000 DUP2 MSTORE POP DUP6 DUP5 DUP2 SLOAD DUP2 LT PUSH3 0xC55 JUMPI PUSH3 0xC55 PUSH3 0x31E3 JUMP JUMPDEST POP POP POP POP POP POP JUMP JUMPDEST PUSH1 0x60 PUSH1 0x0 DUP1 PUSH1 0x0 JUMPDEST PUSH1 0x2 SLOAD DUP2 LT ISZERO PUSH3 0x1487 JUMPI PUSH1 0x0 DUP1 PUSH1 0x0 PUSH1 0x2 DUP5 DUP2 SLOAD DUP2 LT PUSH3 0x13F0 JUMPI PUSH3 0x13F0 PUSH3 0x31E3 JUMP JUMPDEST PUSH1 0x0 SWAP2 DUP3 MSTORE PUSH1 0x20 DUP1 DUP4 KECCAK256 SWAP1 SWAP2 ADD SLOAD PUSH1 0x1 PUSH1 0x1 PUSH1 0xA0 SHL SUB AND DUP4 MSTORE DUP3 ADD SWAP3 SWAP1 SWAP3 MSTORE PUSH1 0x40 ADD DUP2 KECCAK256 SWAP2 POP JUMPDEST DUP2 SLOAD DUP2 LT ISZERO PUSH3 0x147C JUMPI CALLER PUSH1 0x1 PUSH1 0x1 PUSH1 0xA0 SHL SUB AND DUP3 DUP3 DUP2 SLOAD DUP2 LT PUSH3 0x1440 JUMPI PUSH3 0x1440 PUSH3 0x31E3 JUMP JUMPDEST PUSH1 0x0 SWAP2 DUP3 MSTORE PUSH1 0x20 SWAP1 SWAP2 KECCAK256 PUSH1 0x6 PUSH1 0x9 SWAP1 SWAP3 MUL ADD ADD SLOAD PUSH1 0x1 PUSH1 0x1 PUSH1 0xA0 SHL SUB AND SUB PUSH3 0x1473 JUMPI DUP5 PUSH3 0x146F DUP2 PUSH3 0x338F JUMP JUMPDEST SWAP6 POP POP JUMPDEST PUSH1 0x1 ADD PUSH3 0x1417 JUMP JUMPDEST POP POP PUSH1 0x1 ADD PUSH3 0x13CA JUMP JUMPDEST POP PUSH1 0x0 DUP3 PUSH8 0xFFFFFFFFFFFFFFFF DUP2 GT ISZERO PUSH3 0x14A6 JUMPI PUSH3 0x14A6 PUSH3 0x2D7F JUMP JUMPDEST PUSH1 0x40 MLOAD SWAP1 DUP1 DUP3 MSTORE DUP1 PUSH1 0x20 MUL PUSH1 0x20 ADD DUP3 ADD PUSH1 0x40 MSTORE DUP1 ISZERO PUSH3 0x14E3 JUMPI DUP2 PUSH1 0x20 ADD JUMPDEST PUSH3 0x14CF PUSH3 0x2CA7 JUMP JUMPDEST DUP2 MSTORE PUSH1 0x20 ADD SWAP1 PUSH1 0x1 SWAP1 SUB SWAP1 DUP2 PUSH3 0x14C5 JUMPI SWAP1 POP JUMPDEST POP SWAP1 POP PUSH1 0x0 JUMPDEST PUSH1 0x2 SLOAD DUP2 LT ISZERO PUSH3 0x1825 JUMPI PUSH1 0x0 DUP1 PUSH1 0x0 PUSH1 0x2 DUP5 DUP2 SLOAD DUP2 LT PUSH3 0x150F JUMPI PUSH3 0x150F PUSH3 0x31E3 JUMP JUMPDEST PUSH1 0x0 SWAP2 DUP3 MSTORE PUSH1 0x20 DUP1 DUP4 KECCAK256 SWAP1 SWAP2 ADD SLOAD PUSH1 0x1 PUSH1 0x1 PUSH1 0xA0 SHL SUB AND DUP4 MSTORE DUP3 ADD SWAP3 SWAP1 SWAP3 MSTORE PUSH1 0x40 ADD DUP2 KECCAK256 SWAP2 POP JUMPDEST DUP2 SLOAD DUP2 LT ISZERO PUSH3 0x181A JUMPI CALLER PUSH1 0x1 PUSH1 0x1 PUSH1 0xA0 SHL SUB AND DUP3 DUP3 DUP2 SLOAD DUP2 LT PUSH3 0x155F JUMPI PUSH3 0x155F PUSH3 0x31E3 JUMP JUMPDEST PUSH1 0x0 SWAP2 DUP3 MSTORE PUSH1 0x20 SWAP1 SWAP2 KECCAK256 PUSH1 0x6 PUSH1 0x9 SWAP1 SWAP3 MUL ADD ADD SLOAD PUSH1 0x1 PUSH1 0x1 PUSH1 0xA0 SHL SUB AND SUB PUSH3 0x1811 JUMPI DUP2 DUP2 DUP2 SLOAD DUP2 LT PUSH3 0x1597 JUMPI PUSH3 0x1597 PUSH3 0x31E3 JUMP JUMPDEST SWAP1 PUSH1 0x0 MSTORE PUSH1 0x20 PUSH1 0x0 KECCAK256 SWAP1 PUSH1 0x9 MUL ADD PUSH1 0x40 MLOAD DUP1 PUSH2 0x140 ADD PUSH1 0x40 MSTORE SWAP1 DUP2 PUSH1 0x0 DUP3 ADD SLOAD DUP2 MSTORE PUSH1 0x20 ADD PUSH1 0x1 DUP3 ADD DUP1 SLOAD PUSH3 0x15CD SWAP1 PUSH3 0x3224 JUMP JUMPDEST DUP1 PUSH1 0x1F ADD PUSH1 0x20 DUP1 SWAP2 DIV MUL PUSH1 0x20 ADD PUSH1 0x40 MLOAD SWAP1 DUP2 ADD PUSH1 0x40 MSTORE DUP1 SWAP3 SWAP2 SWAP1 DUP2 DUP2 MSTORE PUSH1 0x20 ADD DUP3 DUP1 SLOAD PUSH3 0x15FB SWAP1 PUSH3 0x3224 JUMP JUMPDEST DUP1 ISZERO PUSH3 0x164C JUMPI DUP1 PUSH1 0x1F LT PUSH3 0x1620 JUMPI PUSH2 0x100 DUP1 DUP4 SLOAD DIV MUL DUP4 MSTORE SWAP2 PUSH1 0x20 ADD SWAP2 PUSH3 0x164C JUMP JUMPDEST DUP3 ADD SWAP2 SWAP1 PUSH1 0x0 MSTORE PUSH1 0x20 PUSH1 0x0 KECCAK256 SWAP1 JUMPDEST DUP2 SLOAD DUP2 MSTORE SWAP1 PUSH1 0x1 ADD SWAP1 PUSH1 0x20 ADD DUP1 DUP4 GT PUSH3 0x162E JUMPI DUP3 SWAP1 SUB PUSH1 0x1F AND DUP3 ADD SWAP2 JUMPDEST POP POP POP POP POP DUP2 MSTORE PUSH1 0x20 ADD PUSH1 0x2 DUP3 ADD DUP1 SLOAD PUSH3 0x1667 SWAP1 PUSH3 0x3224 JUMP JUMPDEST DUP1 PUSH1 0x1F ADD PUSH1 0x20 DUP1 SWAP2 DIV MUL PUSH1 0x20 ADD PUSH1 0x40 MLOAD SWAP1 DUP2 ADD PUSH1 0x40 MSTORE DUP1 SWAP3 SWAP2 SWAP1 DUP2 DUP2 MSTORE PUSH1 0x20 ADD DUP3 DUP1 SLOAD PUSH3 0x1695 SWAP1 PUSH3 0x3224 JUMP JUMPDEST DUP1 ISZERO PUSH3 0x16E6 JUMPI DUP1 PUSH1 0x1F LT PUSH3 0x16BA JUMPI PUSH2 0x100 DUP1 DUP4 SLOAD DIV MUL DUP4 MSTORE SWAP2 PUSH1 0x20 ADD SWAP2 PUSH3 0x16E6 JUMP JUMPDEST DUP3 ADD SWAP2 SWAP1 PUSH1 0x0 MSTORE PUSH1 0x20 PUSH1 0x0 KECCAK256 SWAP1 JUMPDEST DUP2 SLOAD DUP2 MSTORE SWAP1 PUSH1 0x1 ADD SWAP1 PUSH1 0x20 ADD DUP1 DUP4 GT PUSH3 0x16C8 JUMPI DUP3 SWAP1 SUB PUSH1 0x1F AND DUP3 ADD SWAP2 JUMPDEST POP POP POP POP POP DUP2 MSTORE PUSH1 0x20 ADD PUSH1 0x3 DUP3 ADD SLOAD DUP2 MSTORE PUSH1 0x20 ADD PUSH1 0x4 DUP3 ADD DUP1 SLOAD PUSH3 0x170B SWAP1 PUSH3 0x3224 JUMP JUMPDEST DUP1 PUSH1 0x1F ADD PUSH1 0x20 DUP1 SWAP2 DIV MUL PUSH1 0x20 ADD PUSH1 0x40 MLOAD SWAP1 DUP2 ADD PUSH1 0x40 MSTORE DUP1 SWAP3 SWAP2 SWAP1 DUP2 DUP2 MSTORE PUSH1 0x20 ADD DUP3 DUP1 SLOAD PUSH3 0x1739 SWAP1 PUSH3 0x3224 JUMP JUMPDEST DUP1 ISZERO PUSH3 0x178A JUMPI DUP1 PUSH1 0x1F LT PUSH3 0x175E JUMPI PUSH2 0x100 DUP1 DUP4 SLOAD DIV MUL DUP4 MSTORE SWAP2 PUSH1 0x20 ADD SWAP2 PUSH3 0x178A JUMP JUMPDEST DUP3 ADD SWAP2 SWAP1 PUSH1 0x0 MSTORE PUSH1 0x20 PUSH1 0x0 KECCAK256 SWAP1 JUMPDEST DUP2 SLOAD DUP2 MSTORE SWAP1 PUSH1 0x1 ADD SWAP1 PUSH1 0x20 ADD DUP1 DUP4 GT PUSH3 0x176C JUMPI DUP3 SWAP1 SUB PUSH1 0x1F AND DUP3 ADD SWAP2 JUMPDEST POP POP POP SWAP2 DUP4 MSTORE POP POP PUSH1 0x5 DUP3 ADD SLOAD PUSH1 0x20 DUP3 ADD MSTORE PUSH1 0x6 DUP3 ADD SLOAD PUSH1 0x1 PUSH1 0x1 PUSH1 0xA0 SHL SUB DUP1 DUP3 AND PUSH1 0x40 DUP5 ADD MSTORE PUSH1 0x1 PUSH1 0xA0 SHL SWAP1 SWAP2 DIV PUSH1 0xFF AND ISZERO ISZERO PUSH1 0x60 DUP4 ADD MSTORE PUSH1 0x7 DUP4 ADD SLOAD DUP2 AND PUSH1 0x80 DUP4 ADD MSTORE PUSH1 0x8 SWAP1 SWAP3 ADD SLOAD SWAP1 SWAP2 AND PUSH1 0xA0 SWAP1 SWAP2 ADD MSTORE DUP5 MLOAD DUP6 SWAP1 DUP8 SWAP1 DUP2 LT PUSH3 0x17F5 JUMPI PUSH3 0x17F5 PUSH3 0x31E3 JUMP JUMPDEST PUSH1 0x20 MUL PUSH1 0x20 ADD ADD DUP2 SWAP1 MSTORE POP DUP5 DUP1 PUSH3 0x180D SWAP1 PUSH3 0x338F JUMP JUMPDEST SWAP6 POP POP JUMPDEST PUSH1 0x1 ADD PUSH3 0x1536 JUMP JUMPDEST POP POP PUSH1 0x1 ADD PUSH3 0x14E9 JUMP JUMPDEST POP SWAP4 SWAP3 POP POP POP JUMP JUMPDEST CALLER PUSH1 0x0 SWAP1 DUP2 MSTORE PUSH1 0x20 DUP2 DUP2 MSTORE PUSH1 0x40 DUP1 DUP4 KECCAK256 DUP1 SLOAD DUP3 MLOAD DUP2 DUP6 MUL DUP2 ADD DUP6 ADD SWAP1 SWAP4 MSTORE DUP1 DUP4 MSTORE PUSH1 0x60 SWAP5 SWAP3 SWAP4 SWAP2 SWAP3 SWAP1 SWAP2 DUP5 ADD JUMPDEST DUP3 DUP3 LT ISZERO PUSH3 0x1AC1 JUMPI DUP4 DUP3 SWAP1 PUSH1 0x0 MSTORE PUSH1 0x20 PUSH1 0x0 KECCAK256 SWAP1 PUSH1 0x9 MUL ADD PUSH1 0x40 MLOAD DUP1 PUSH2 0x140 ADD PUSH1 0x40 MSTORE SWAP1 DUP2 PUSH1 0x0 DUP3 ADD SLOAD DUP2 MSTORE PUSH1 0x20 ADD PUSH1 0x1 DUP3 ADD DUP1 SLOAD PUSH3 0x189B SWAP1 PUSH3 0x3224 JUMP JUMPDEST DUP1 PUSH1 0x1F ADD PUSH1 0x20 DUP1 SWAP2 DIV MUL PUSH1 0x20 ADD PUSH1 0x40 MLOAD SWAP1 DUP2 ADD PUSH1 0x40 MSTORE DUP1 SWAP3 SWAP2 SWAP1 DUP2 DUP2 MSTORE PUSH1 0x20 ADD DUP3 DUP1 SLOAD PUSH3 0x18C9 SWAP1 PUSH3 0x3224 JUMP JUMPDEST DUP1 ISZERO PUSH3 0x191A JUMPI DUP1 PUSH1 0x1F LT PUSH3 0x18EE JUMPI PUSH2 0x100 DUP1 DUP4 SLOAD DIV MUL DUP4 MSTORE SWAP2 PUSH1 0x20 ADD SWAP2 PUSH3 0x191A JUMP JUMPDEST DUP3 ADD SWAP2 SWAP1 PUSH1 0x0 MSTORE PUSH1 0x20 PUSH1 0x0 KECCAK256 SWAP1 JUMPDEST DUP2 SLOAD DUP2 MSTORE SWAP1 PUSH1 0x1 ADD SWAP1 PUSH1 0x20 ADD DUP1 DUP4 GT PUSH3 0x18FC JUMPI DUP3 SWAP1 SUB PUSH1 0x1F AND DUP3 ADD SWAP2 JUMPDEST POP POP POP POP POP DUP2 MSTORE PUSH1 0x20 ADD PUSH1 0x2 DUP3 ADD DUP1 SLOAD PUSH3 0x1935 SWAP1 PUSH3 0x3224 JUMP JUMPDEST DUP1 PUSH1 0x1F ADD PUSH1 0x20 DUP1 SWAP2 DIV MUL PUSH1 0x20 ADD PUSH1 0x40 MLOAD SWAP1 DUP2 ADD PUSH1 0x40 MSTORE DUP1 SWAP3 SWAP2 SWAP1 DUP2 DUP2 MSTORE PUSH1 0x20 ADD DUP3 DUP1 SLOAD PUSH3 0x1963 SWAP1 PUSH3 0x3224 JUMP JUMPDEST DUP1 ISZERO PUSH3 0x19B4 JUMPI DUP1 PUSH1 0x1F LT PUSH3 0x1988 JUMPI PUSH2 0x100 DUP1 DUP4 SLOAD DIV MUL DUP4 MSTORE SWAP2 PUSH1 0x20 ADD SWAP2 PUSH3 0x19B4 JUMP JUMPDEST DUP3 ADD SWAP2 SWAP1 PUSH1 0x0 MSTORE PUSH1 0x20 PUSH1 0x0 KECCAK256 SWAP1 JUMPDEST DUP2 SLOAD DUP2 MSTORE SWAP1 PUSH1 0x1 ADD SWAP1 PUSH1 0x20 ADD DUP1 DUP4 GT PUSH3 0x1996 JUMPI DUP3 SWAP1 SUB PUSH1 0x1F AND DUP3 ADD SWAP2 JUMPDEST POP POP POP POP POP DUP2 MSTORE PUSH1 0x20 ADD PUSH1 0x3 DUP3 ADD SLOAD DUP2 MSTORE PUSH1 0x20 ADD PUSH1 0x4 DUP3 ADD DUP1 SLOAD PUSH3 0x19D9 SWAP1 PUSH3 0x3224 JUMP JUMPDEST DUP1 PUSH1 0x1F ADD PUSH1 0x20 DUP1 SWAP2 DIV MUL PUSH1 0x20 ADD PUSH1 0x40 MLOAD SWAP1 DUP2 ADD PUSH1 0x40 MSTORE DUP1 SWAP3 SWAP2 SWAP1 DUP2 DUP2 MSTORE PUSH1 0x20 ADD DUP3 DUP1 SLOAD PUSH3 0x1A07 SWAP1 PUSH3 0x3224 JUMP JUMPDEST DUP1 ISZERO PUSH3 0x1A58 JUMPI DUP1 PUSH1 0x1F LT PUSH3 0x1A2C JUMPI PUSH2 0x100 DUP1 DUP4 SLOAD DIV MUL DUP4 MSTORE SWAP2 PUSH1 0x20 ADD SWAP2 PUSH3 0x1A58 JUMP JUMPDEST DUP3 ADD SWAP2 SWAP1 PUSH1 0x0 MSTORE PUSH1 0x20 PUSH1 0x0 KECCAK256 SWAP1 JUMPDEST DUP2 SLOAD DUP2 MSTORE SWAP1 PUSH1 0x1 ADD SWAP1 PUSH1 0x20 ADD DUP1 DUP4 GT PUSH3 0x1A3A JUMPI DUP3 SWAP1 SUB PUSH1 0x1F AND DUP3 ADD SWAP2 JUMPDEST POP POP POP SWAP2 DUP4 MSTORE POP POP PUSH1 0x5 DUP3 ADD SLOAD PUSH1 0x20 DUP1 DUP4 ADD SWAP2 SWAP1 SWAP2 MSTORE PUSH1 0x6 DUP4 ADD SLOAD PUSH1 0x1 PUSH1 0x1 PUSH1 0xA0 SHL SUB DUP1 DUP3 AND PUSH1 0x40 DUP6 ADD MSTORE PUSH1 0x1 PUSH1 0xA0 SHL SWAP1 SWAP2 DIV PUSH1 0xFF AND ISZERO ISZERO PUSH1 0x60 DUP5 ADD MSTORE PUSH1 0x7 DUP5 ADD SLOAD DUP2 AND PUSH1 0x80 DUP5 ADD MSTORE PUSH1 0x8 SWAP1 SWAP4 ADD SLOAD SWAP1 SWAP3 AND PUSH1 0xA0 SWAP1 SWAP2 ADD MSTORE SWAP1 DUP3 MSTORE PUSH1 0x1 SWAP3 SWAP1 SWAP3 ADD SWAP2 ADD PUSH3 0x185A JUMP JUMPDEST POP POP POP POP SWAP1 POP SWAP1 JUMP JUMPDEST PUSH1 0x60 PUSH1 0x0 DUP1 PUSH1 0x0 JUMPDEST PUSH1 0x2 SLOAD DUP2 LT ISZERO PUSH3 0x1C39 JUMPI PUSH1 0x0 DUP1 PUSH1 0x0 PUSH1 0x2 DUP5 DUP2 SLOAD DUP2 LT PUSH3 0x1AF8 JUMPI PUSH3 0x1AF8 PUSH3 0x31E3 JUMP JUMPDEST PUSH1 0x0 SWAP2 DUP3 MSTORE PUSH1 0x20 DUP1 DUP4 KECCAK256 SWAP1 SWAP2 ADD SLOAD PUSH1 0x1 PUSH1 0x1 PUSH1 0xA0 SHL SUB AND DUP4 MSTORE DUP3 ADD SWAP3 SWAP1 SWAP3 MSTORE PUSH1 0x40 ADD DUP2 KECCAK256 SWAP2 POP JUMPDEST DUP2 SLOAD DUP2 LT ISZERO PUSH3 0x1C2E JUMPI DUP2 DUP2 DUP2 SLOAD DUP2 LT PUSH3 0x1B3E JUMPI PUSH3 0x1B3E PUSH3 0x31E3 JUMP JUMPDEST SWAP1 PUSH1 0x0 MSTORE PUSH1 0x20 PUSH1 0x0 KECCAK256 SWAP1 PUSH1 0x9 MUL ADD PUSH1 0x6 ADD PUSH1 0x14 SWAP1 SLOAD SWAP1 PUSH2 0x100 EXP SWAP1 DIV PUSH1 0xFF AND DUP1 ISZERO PUSH3 0x1C0F JUMPI POP PUSH1 0x3 DUP3 DUP3 DUP2 SLOAD DUP2 LT PUSH3 0x1B7C JUMPI PUSH3 0x1B7C PUSH3 0x31E3 JUMP JUMPDEST PUSH1 0x0 SWAP2 DUP3 MSTORE PUSH1 0x20 SWAP2 DUP3 SWAP1 KECCAK256 PUSH1 0x7 PUSH1 0x9 SWAP1 SWAP3 MUL ADD ADD SLOAD PUSH1 0x40 DUP1 MLOAD PUSH4 0xAFE01043 PUSH1 0xE0 SHL DUP2 MSTORE SWAP1 MLOAD PUSH1 0x1 PUSH1 0x1 PUSH1 0xA0 SHL SUB SWAP1 SWAP3 AND SWAP3 PUSH4 0xAFE01043 SWAP3 PUSH1 0x4 DUP1 DUP5 ADD SWAP4 DUP3 SWAP1 SUB ADD DUP2 DUP7 GAS STATICCALL ISZERO DUP1 ISZERO PUSH3 0x1BD3 JUMPI RETURNDATASIZE PUSH1 0x0 DUP1 RETURNDATACOPY RETURNDATASIZE PUSH1 0x0 REVERT JUMPDEST POP POP POP POP PUSH1 0x40 MLOAD RETURNDATASIZE PUSH1 0x1F NOT PUSH1 0x1F DUP3 ADD AND DUP3 ADD DUP1 PUSH1 0x40 MSTORE POP DUP2 ADD SWAP1 PUSH3 0x1BF9 SWAP2 SWAP1 PUSH3 0x3512 JUMP JUMPDEST PUSH1 0x4 DUP2 GT ISZERO PUSH3 0x1C0D JUMPI PUSH3 0x1C0D PUSH3 0x34FC JUMP JUMPDEST EQ JUMPDEST ISZERO PUSH3 0x1C25 JUMPI DUP5 PUSH3 0x1C21 DUP2 PUSH3 0x338F JUMP JUMPDEST SWAP6 POP POP JUMPDEST PUSH1 0x1 ADD PUSH3 0x1B1F JUMP JUMPDEST POP POP PUSH1 0x1 ADD PUSH3 0x1AD2 JUMP JUMPDEST POP PUSH1 0x0 DUP3 PUSH8 0xFFFFFFFFFFFFFFFF DUP2 GT ISZERO PUSH3 0x1C58 JUMPI PUSH3 0x1C58 PUSH3 0x2D7F JUMP JUMPDEST PUSH1 0x40 MLOAD SWAP1 DUP1 DUP3 MSTORE DUP1 PUSH1 0x20 MUL PUSH1 0x20 ADD DUP3 ADD PUSH1 0x40 MSTORE DUP1 ISZERO PUSH3 0x1C95 JUMPI DUP2 PUSH1 0x20 ADD JUMPDEST PUSH3 0x1C81 PUSH3 0x2CA7 JUMP JUMPDEST DUP2 MSTORE PUSH1 0x20 ADD SWAP1 PUSH1 0x1 SWAP1 SUB SWAP1 DUP2 PUSH3 0x1C77 JUMPI SWAP1 POP JUMPDEST POP SWAP1 POP PUSH1 0x0 JUMPDEST PUSH1 0x2 SLOAD DUP2 LT ISZERO PUSH3 0x1825 JUMPI PUSH1 0x0 DUP1 PUSH1 0x0 PUSH1 0x2 DUP5 DUP2 SLOAD DUP2 LT PUSH3 0x1CC1 JUMPI PUSH3 0x1CC1 PUSH3 0x31E3 JUMP JUMPDEST PUSH1 0x0 SWAP2 DUP3 MSTORE PUSH1 0x20 DUP1 DUP4 KECCAK256 SWAP1 SWAP2 ADD SLOAD PUSH1 0x1 PUSH1 0x1 PUSH1 0xA0 SHL SUB AND DUP4 MSTORE DUP3 ADD SWAP3 SWAP1 SWAP3 MSTORE PUSH1 0x40 ADD DUP2 KECCAK256 SWAP2 POP JUMPDEST DUP2 SLOAD DUP2 LT ISZERO PUSH3 0x2076 JUMPI DUP2 DUP2 DUP2 SLOAD DUP2 LT PUSH3 0x1D07 JUMPI PUSH3 0x1D07 PUSH3 0x31E3 JUMP JUMPDEST SWAP1 PUSH1 0x0 MSTORE PUSH1 0x20 PUSH1 0x0 KECCAK256 SWAP1 PUSH1 0x9 MUL ADD PUSH1 0x6 ADD PUSH1 0x14 SWAP1 SLOAD SWAP1 PUSH2 0x100 EXP SWAP1 DIV PUSH1 0xFF AND DUP1 ISZERO PUSH3 0x1DD8 JUMPI POP PUSH1 0x3 DUP3 DUP3 DUP2 SLOAD DUP2 LT PUSH3 0x1D45 JUMPI PUSH3 0x1D45 PUSH3 0x31E3 JUMP JUMPDEST PUSH1 0x0 SWAP2 DUP3 MSTORE PUSH1 0x20 SWAP2 DUP3 SWAP1 KECCAK256 PUSH1 0x7 PUSH1 0x9 SWAP1 SWAP3 MUL ADD ADD SLOAD PUSH1 0x40 DUP1 MLOAD PUSH4 0xAFE01043 PUSH1 0xE0 SHL DUP2 MSTORE SWAP1 MLOAD PUSH1 0x1 PUSH1 0x1 PUSH1 0xA0 SHL SUB SWAP1 SWAP3 AND SWAP3 PUSH4 0xAFE01043 SWAP3 PUSH1 0x4 DUP1 DUP5 ADD SWAP4 DUP3 SWAP1 SUB ADD DUP2 DUP7 GAS STATICCALL ISZERO DUP1 ISZERO PUSH3 0x1D9C JUMPI RETURNDATASIZE PUSH1 0x0 DUP1 RETURNDATACOPY RETURNDATASIZE PUSH1 0x0 REVERT JUMPDEST POP POP POP POP PUSH1 0x40 MLOAD RETURNDATASIZE PUSH1 0x1F NOT PUSH1 0x1F DUP3 ADD AND DUP3 ADD DUP1 PUSH1 0x40 MSTORE POP DUP2 ADD SWAP1 PUSH3 0x1DC2 SWAP2 SWAP1 PUSH3 0x3512 JUMP JUMPDEST PUSH1 0x4 DUP2 GT ISZERO PUSH3 0x1DD6 JUMPI PUSH3 0x1DD6 PUSH3 0x34FC JUMP JUMPDEST EQ JUMPDEST ISZERO PUSH3 0x206D JUMPI DUP2 DUP2 DUP2 SLOAD DUP2 LT PUSH3 0x1DF3 JUMPI PUSH3 0x1DF3 PUSH3 0x31E3 JUMP JUMPDEST SWAP1 PUSH1 0x0 MSTORE PUSH1 0x20 PUSH1 0x0 KECCAK256 SWAP1 PUSH1 0x9 MUL ADD PUSH1 0x40 MLOAD DUP1 PUSH2 0x140 ADD PUSH1 0x40 MSTORE SWAP1 DUP2 PUSH1 0x0 DUP3 ADD SLOAD DUP2 MSTORE PUSH1 0x20 ADD PUSH1 0x1 DUP3 ADD DUP1 SLOAD PUSH3 0x1E29 SWAP1 PUSH3 0x3224 JUMP JUMPDEST DUP1 PUSH1 0x1F ADD PUSH1 0x20 DUP1 SWAP2 DIV MUL PUSH1 0x20 ADD PUSH1 0x40 MLOAD SWAP1 DUP2 ADD PUSH1 0x40 MSTORE DUP1 SWAP3 SWAP2 SWAP1 DUP2 DUP2 MSTORE PUSH1 0x20 ADD DUP3 DUP1 SLOAD PUSH3 0x1E57 SWAP1 PUSH3 0x3224 JUMP JUMPDEST DUP1 ISZERO PUSH3 0x1EA8 JUMPI DUP1 PUSH1 0x1F LT PUSH3 0x1E7C JUMPI PUSH2 0x100 DUP1 DUP4 SLOAD DIV MUL DUP4 MSTORE SWAP2 PUSH1 0x20 ADD SWAP2 PUSH3 0x1EA8 JUMP JUMPDEST DUP3 ADD SWAP2 SWAP1 PUSH1 0x0 MSTORE PUSH1 0x20 PUSH1 0x0 KECCAK256 SWAP1 JUMPDEST DUP2 SLOAD DUP2 MSTORE SWAP1 PUSH1 0x1 ADD SWAP1 PUSH1 0x20 ADD DUP1 DUP4 GT PUSH3 0x1E8A JUMPI DUP3 SWAP1 SUB PUSH1 0x1F AND DUP3 ADD SWAP2 JUMPDEST POP POP POP POP POP DUP2 MSTORE PUSH1 0x20 ADD PUSH1 0x2 DUP3 ADD DUP1 SLOAD PUSH3 0x1EC3 SWAP1 PUSH3 0x3224 JUMP JUMPDEST DUP1 PUSH1 0x1F ADD PUSH1 0x20 DUP1 SWAP2 DIV MUL PUSH1 0x20 ADD PUSH1 0x40 MLOAD SWAP1 DUP2 ADD PUSH1 0x40 MSTORE DUP1 SWAP3 SWAP2 SWAP1 DUP2 DUP2 MSTORE PUSH1 0x20 ADD DUP3 DUP1 SLOAD PUSH3 0x1EF1 SWAP1 PUSH3 0x3224 JUMP JUMPDEST DUP1 ISZERO PUSH3 0x1F42 JUMPI DUP1 PUSH1 0x1F LT PUSH3 0x1F16 JUMPI PUSH2 0x100 DUP1 DUP4 SLOAD DIV MUL DUP4 MSTORE SWAP2 PUSH1 0x20 ADD SWAP2 PUSH3 0x1F42 JUMP JUMPDEST DUP3 ADD SWAP2 SWAP1 PUSH1 0x0 MSTORE PUSH1 0x20 PUSH1 0x0 KECCAK256 SWAP1 JUMPDEST DUP2 SLOAD DUP2 MSTORE SWAP1 PUSH1 0x1 ADD SWAP1 PUSH1 0x20 ADD DUP1 DUP4 GT PUSH3 0x1F24 JUMPI DUP3 SWAP1 SUB PUSH1 0x1F AND DUP3 ADD SWAP2 JUMPDEST POP POP POP POP POP DUP2 MSTORE PUSH1 0x20 ADD PUSH1 0x3 DUP3 ADD SLOAD DUP2 MSTORE PUSH1 0x20 ADD PUSH1 0x4 DUP3 ADD DUP1 SLOAD PUSH3 0x1F67 SWAP1 PUSH3 0x3224 JUMP JUMPDEST DUP1 PUSH1 0x1F ADD PUSH1 0x20 DUP1 SWAP2 DIV MUL PUSH1 0x20 ADD PUSH1 0x40 MLOAD SWAP1 DUP2 ADD PUSH1 0x40 MSTORE DUP1 SWAP3 SWAP2 SWAP1 DUP2 DUP2 MSTORE PUSH1 0x20 ADD DUP3 DUP1 SLOAD PUSH3 0x1F95 SWAP1 PUSH3 0x3224 JUMP JUMPDEST DUP1 ISZERO PUSH3 0x1FE6 JUMPI DUP1 PUSH1 0x1F LT PUSH3 0x1FBA JUMPI PUSH2 0x100 DUP1 DUP4 SLOAD DIV MUL DUP4 MSTORE SWAP2 PUSH1 0x20 ADD SWAP2 PUSH3 0x1FE6 JUMP JUMPDEST DUP3 ADD SWAP2 SWAP1 PUSH1 0x0 MSTORE PUSH1 0x20 PUSH1 0x0 KECCAK256 SWAP1 JUMPDEST DUP2 SLOAD DUP2 MSTORE SWAP1 PUSH1 0x1 ADD SWAP1 PUSH1 0x20 ADD DUP1 DUP4 GT PUSH3 0x1FC8 JUMPI DUP3 SWAP1 SUB PUSH1 0x1F AND DUP3 ADD SWAP2 JUMPDEST POP POP POP SWAP2 DUP4 MSTORE POP POP PUSH1 0x5 DUP3 ADD SLOAD PUSH1 0x20 DUP3 ADD MSTORE PUSH1 0x6 DUP3 ADD SLOAD PUSH1 0x1 PUSH1 0x1 PUSH1 0xA0 SHL SUB DUP1 DUP3 AND PUSH1 0x40 DUP5 ADD MSTORE PUSH1 0x1 PUSH1 0xA0 SHL SWAP1 SWAP2 DIV PUSH1 0xFF AND ISZERO ISZERO PUSH1 0x60 DUP4 ADD MSTORE PUSH1 0x7 DUP4 ADD SLOAD DUP2 AND PUSH1 0x80 DUP4 ADD MSTORE PUSH1 0x8 SWAP1 SWAP3 ADD SLOAD SWAP1 SWAP2 AND PUSH1 0xA0 SWAP1 SWAP2 ADD MSTORE DUP5 MLOAD DUP6 SWAP1 DUP8 SWAP1 DUP2 LT PUSH3 0x2051 JUMPI PUSH3 0x2051 PUSH3 0x31E3 JUMP JUMPDEST PUSH1 0x20 MUL PUSH1 0x20 ADD ADD DUP2 SWAP1 MSTORE POP DUP5 DUP1 PUSH3 0x2069 SWAP1 PUSH3 0x338F JUMP JUMPDEST SWAP6 POP POP JUMPDEST PUSH1 0x1 ADD PUSH3 0x1CE8 JUMP JUMPDEST POP POP PUSH1 0x1 ADD PUSH3 0x1C9B JUMP JUMPDEST PUSH1 0x1 PUSH1 0x1 PUSH1 0xA0 SHL SUB DUP4 AND PUSH1 0x0 SWAP1 DUP2 MSTORE PUSH1 0x20 DUP2 SWAP1 MSTORE PUSH1 0x40 DUP2 KECCAK256 SWAP1 DUP1 DUP1 JUMPDEST DUP4 SLOAD DUP2 LT ISZERO PUSH3 0x20EB JUMPI DUP8 DUP5 DUP3 DUP2 SLOAD DUP2 LT PUSH3 0x20BD JUMPI PUSH3 0x20BD PUSH3 0x31E3 JUMP JUMPDEST SWAP1 PUSH1 0x0 MSTORE PUSH1 0x20 PUSH1 0x0 KECCAK256 SWAP1 PUSH1 0x9 MUL ADD PUSH1 0x0 ADD SLOAD SUB PUSH3 0x20E2 JUMPI PUSH1 0x1 SWAP3 POP DUP1 SWAP2 POP PUSH3 0x20EB JUMP JUMPDEST PUSH1 0x1 ADD PUSH3 0x209D JUMP JUMPDEST POP DUP2 PUSH3 0x210C JUMPI PUSH1 0x40 MLOAD PUSH3 0x461BCD PUSH1 0xE5 SHL DUP2 MSTORE PUSH1 0x4 ADD PUSH3 0x283 SWAP1 PUSH3 0x33AB JUMP JUMPDEST DUP3 DUP2 DUP2 SLOAD DUP2 LT PUSH3 0x2121 JUMPI PUSH3 0x2121 PUSH3 0x31E3 JUMP JUMPDEST SWAP1 PUSH1 0x0 MSTORE PUSH1 0x20 PUSH1 0x0 KECCAK256 SWAP1 PUSH1 0x9 MUL ADD PUSH1 0x6 ADD PUSH1 0x14 SWAP1 SLOAD SWAP1 PUSH2 0x100 EXP SWAP1 DIV PUSH1 0xFF AND PUSH3 0x218E JUMPI PUSH1 0x40 MLOAD PUSH3 0x461BCD PUSH1 0xE5 SHL DUP2 MSTORE PUSH1 0x20 PUSH1 0x4 DUP3 ADD MSTORE PUSH1 0x1D PUSH1 0x24 DUP3 ADD MSTORE PUSH32 0x4974656D206861737373206E6F74206265656E20707572636861736564000000 PUSH1 0x44 DUP3 ADD MSTORE PUSH1 0x64 ADD PUSH3 0x283 JUMP JUMPDEST CALLER PUSH1 0x1 PUSH1 0x1 PUSH1 0xA0 SHL SUB AND DUP4 DUP3 DUP2 SLOAD DUP2 LT PUSH3 0x21AD JUMPI PUSH3 0x21AD PUSH3 0x31E3 JUMP JUMPDEST PUSH1 0x0 SWAP2 DUP3 MSTORE PUSH1 0x20 SWAP1 SWAP2 KECCAK256 PUSH1 0x6 PUSH1 0x9 SWAP1 SWAP3 MUL ADD ADD SLOAD PUSH1 0x1 PUSH1 0x1 PUSH1 0xA0 SHL SUB AND EQ PUSH3 0x2225 JUMPI PUSH1 0x40 MLOAD PUSH3 0x461BCD PUSH1 0xE5 SHL DUP2 MSTORE PUSH1 0x20 PUSH1 0x4 DUP3 ADD MSTORE PUSH1 0x23 PUSH1 0x24 DUP3 ADD MSTORE PUSH32 0x4F6E6C79207468652062757965722063616E2063616E63656C20746865206F72 PUSH1 0x44 DUP3 ADD MSTORE PUSH3 0x3232B9 PUSH1 0xE9 SHL PUSH1 0x64 DUP3 ADD MSTORE PUSH1 0x84 ADD PUSH3 0x283 JUMP JUMPDEST DUP3 DUP2 DUP2 SLOAD DUP2 LT PUSH3 0x223A JUMPI PUSH3 0x223A PUSH3 0x31E3 JUMP JUMPDEST PUSH1 0x0 SWAP2 DUP3 MSTORE PUSH1 0x20 SWAP2 DUP3 SWAP1 KECCAK256 PUSH1 0x7 PUSH1 0x9 SWAP1 SWAP3 MUL ADD ADD SLOAD PUSH1 0x40 DUP1 MLOAD PUSH4 0x5B0222BB PUSH1 0xE0 SHL DUP2 MSTORE SWAP1 MLOAD PUSH1 0x1 PUSH1 0x1 PUSH1 0xA0 SHL SUB SWAP1 SWAP3 AND SWAP3 PUSH4 0x5B0222BB SWAP3 PUSH1 0x4 DUP1 DUP5 ADD SWAP4 DUP3 SWAP1 SUB ADD DUP2 DUP7 GAS STATICCALL ISZERO DUP1 ISZERO PUSH3 0x2291 JUMPI RETURNDATASIZE PUSH1 0x0 DUP1 RETURNDATACOPY RETURNDATASIZE PUSH1 0x0 REVERT JUMPDEST POP POP POP POP PUSH1 0x40 MLOAD RETURNDATASIZE PUSH1 0x1F NOT PUSH1 0x1F DUP3 ADD AND DUP3 ADD DUP1 PUSH1 0x40 MSTORE POP DUP2 ADD SWAP1 PUSH3 0x22B7 SWAP2 SWAP1 PUSH3 0x3535 JUMP JUMPDEST PUSH3 0x22C4 SWAP1 PUSH1 0x3C PUSH3 0x354F JUMP JUMPDEST TIMESTAMP GT ISZERO PUSH3 0x2315 JUMPI PUSH1 0x40 MLOAD PUSH3 0x461BCD PUSH1 0xE5 SHL DUP2 MSTORE PUSH1 0x20 PUSH1 0x4 DUP3 ADD MSTORE PUSH1 0x1F PUSH1 0x24 DUP3 ADD MSTORE PUSH32 0x43616E63656C6C6174696F6E20706572696F6420686173206578706972656400 PUSH1 0x44 DUP3 ADD MSTORE PUSH1 0x64 ADD PUSH3 0x283 JUMP JUMPDEST PUSH1 0x0 DUP4 DUP3 DUP2 SLOAD DUP2 LT PUSH3 0x232C JUMPI PUSH3 0x232C PUSH3 0x31E3 JUMP JUMPDEST SWAP1 PUSH1 0x0 MSTORE PUSH1 0x20 PUSH1 0x0 KECCAK256 SWAP1 PUSH1 0x9 MUL ADD PUSH1 0x6 ADD PUSH1 0x14 PUSH2 0x100 EXP DUP2 SLOAD DUP2 PUSH1 0xFF MUL NOT AND SWAP1 DUP4 ISZERO ISZERO MUL OR SWAP1 SSTORE POP PUSH1 0x0 DUP4 DUP3 DUP2 SLOAD DUP2 LT PUSH3 0x236B JUMPI PUSH3 0x236B PUSH3 0x31E3 JUMP JUMPDEST SWAP1 PUSH1 0x0 MSTORE PUSH1 0x20 PUSH1 0x0 KECCAK256 SWAP1 PUSH1 0x9 MUL ADD PUSH1 0x6 ADD PUSH1 0x0 PUSH2 0x100 EXP DUP2 SLOAD DUP2 PUSH1 0x1 PUSH1 0x1 PUSH1 0xA0 SHL SUB MUL NOT AND SWAP1 DUP4 PUSH1 0x1 PUSH1 0x1 PUSH1 0xA0 SHL SUB AND MUL OR SWAP1 SSTORE POP PUSH1 0x0 DUP4 DUP3 DUP2 SLOAD DUP2 LT PUSH3 0x23B7 JUMPI PUSH3 0x23B7 PUSH3 0x31E3 JUMP JUMPDEST PUSH1 0x0 SWAP2 DUP3 MSTORE PUSH1 0x20 SWAP2 DUP3 SWAP1 KECCAK256 PUSH1 0x9 SWAP1 SWAP2 MUL ADD PUSH1 0x7 ADD SLOAD PUSH1 0x40 MLOAD PUSH1 0x1 PUSH1 0x1 PUSH1 0xA0 SHL SUB SWAP1 SWAP2 AND BALANCE DUP1 DUP3 MSTORE SWAP3 POP PUSH32 0x5E43E6C33B0654C056B16044DDCCF17D9E1DA06A6523E75BE8F7133F80E2345E SWAP2 ADD PUSH1 0x40 MLOAD DUP1 SWAP2 SUB SWAP1 LOG1 PUSH1 0x40 MLOAD PUSH1 0x1 PUSH1 0x1 PUSH1 0xA0 SHL SUB DUP9 AND BALANCE DUP2 MSTORE PUSH32 0x64F94CC1B9DB4414F5017ADD39D53FC2644D66038E8C0EA3C887E90730075DA8 SWAP1 PUSH1 0x20 ADD PUSH1 0x40 MLOAD DUP1 SWAP2 SUB SWAP1 LOG1 DUP6 ISZERO ISZERO PUSH1 0x1 SUB PUSH3 0x24D8 JUMPI DUP4 DUP3 DUP2 SLOAD DUP2 LT PUSH3 0x2468 JUMPI PUSH3 0x2468 PUSH3 0x31E3 JUMP JUMPDEST PUSH1 0x0 SWAP2 DUP3 MSTORE PUSH1 0x20 DUP3 KECCAK256 PUSH1 0x7 PUSH1 0x9 SWAP1 SWAP3 MUL ADD ADD SLOAD PUSH1 0x40 DUP1 MLOAD PUSH4 0x17CD9707 PUSH1 0xE3 SHL DUP2 MSTORE SWAP1 MLOAD PUSH1 0x1 PUSH1 0x1 PUSH1 0xA0 SHL SUB SWAP1 SWAP3 AND SWAP3 PUSH4 0xBE6CB838 SWAP3 PUSH1 0x4 DUP1 DUP5 ADD SWAP4 DUP3 SWAP1 SUB ADD DUP2 DUP4 DUP8 DUP1 EXTCODESIZE ISZERO DUP1 ISZERO PUSH3 0x24B9 JUMPI PUSH1 0x0 DUP1 REVERT JUMPDEST POP GAS CALL ISZERO DUP1 ISZERO PUSH3 0x24CE JUMPI RETURNDATASIZE PUSH1 0x0 DUP1 RETURNDATACOPY RETURNDATASIZE PUSH1 0x0 REVERT JUMPDEST POP POP POP POP PUSH3 0x2560 JUMP JUMPDEST DUP4 DUP3 DUP2 SLOAD DUP2 LT PUSH3 0x24ED JUMPI PUSH3 0x24ED PUSH3 0x31E3 JUMP JUMPDEST PUSH1 0x0 SWAP2 DUP3 MSTORE PUSH1 0x20 SWAP1 SWAP2 KECCAK256 PUSH1 0x9 SWAP1 SWAP2 MUL ADD PUSH1 0x7 ADD SLOAD PUSH1 0x40 MLOAD PUSH4 0x44F0F415 PUSH1 0xE1 SHL DUP2 MSTORE DUP7 ISZERO ISZERO PUSH1 0x4 DUP3 ADD MSTORE PUSH1 0x1 PUSH1 0x1 PUSH1 0xA0 SHL SUB SWAP1 SWAP2 AND SWAP1 PUSH4 0x89E1E82A SWAP1 PUSH1 0x24 ADD PUSH1 0x0 PUSH1 0x40 MLOAD DUP1 DUP4 SUB DUP2 PUSH1 0x0 DUP8 DUP1 EXTCODESIZE ISZERO DUP1 ISZERO PUSH3 0x2546 JUMPI PUSH1 0x0 DUP1 REVERT JUMPDEST POP GAS CALL ISZERO DUP1 ISZERO PUSH3 0x255B JUMPI RETURNDATASIZE PUSH1 0x0 DUP1 RETURNDATACOPY RETURNDATASIZE PUSH1 0x0 REVERT JUMPDEST POP POP POP POP JUMPDEST PUSH1 0x0 DUP5 DUP4 DUP2 SLOAD DUP2 LT PUSH3 0x2577 JUMPI PUSH3 0x2577 PUSH3 0x31E3 JUMP JUMPDEST PUSH1 0x0 SWAP2 DUP3 MSTORE PUSH1 0x20 SWAP2 DUP3 SWAP1 KECCAK256 PUSH1 0x9 SWAP1 SWAP2 MUL ADD PUSH1 0x7 ADD SLOAD PUSH1 0x40 MLOAD PUSH1 0x1 PUSH1 0x1 PUSH1 0xA0 SHL SUB SWAP1 SWAP2 AND BALANCE DUP1 DUP3 MSTORE SWAP3 POP PUSH32 0x5E43E6C33B0654C056B16044DDCCF17D9E1DA06A6523E75BE8F7133F80E2345E SWAP2 ADD PUSH1 0x40 MLOAD DUP1 SWAP2 SUB SWAP1 LOG1 PUSH1 0x0 DUP6 DUP5 DUP2 SLOAD DUP2 LT PUSH3 0x25E2 JUMPI PUSH3 0x25E2 PUSH3 0x31E3 JUMP JUMPDEST SWAP1 PUSH1 0x0 MSTORE PUSH1 0x20 PUSH1 0x0 KECCAK256 SWAP1 PUSH1 0x9 MUL ADD PUSH1 0x7 ADD PUSH1 0x0 PUSH2 0x100 EXP DUP2 SLOAD DUP2 PUSH1 0x1 PUSH1 0x1 PUSH1 0xA0 SHL SUB MUL NOT AND SWAP1 DUP4 PUSH1 0x1 PUSH1 0x1 PUSH1 0xA0 SHL SUB AND MUL OR SWAP1 SSTORE POP PUSH32 0xF69C7EA3F71DAD86E17BA97A88B7E8F1708C0946BD98C7584E9942F60DA8728E DUP10 CALLER PUSH1 0x40 MLOAD PUSH3 0x265B SWAP3 SWAP2 SWAP1 SWAP2 DUP3 MSTORE PUSH1 0x1 PUSH1 0x1 PUSH1 0xA0 SHL SUB AND PUSH1 0x20 DUP3 ADD MSTORE PUSH1 0x40 ADD SWAP1 JUMP JUMPDEST PUSH1 0x40 MLOAD DUP1 SWAP2 SUB SWAP1 LOG1 PUSH1 0x40 MLOAD PUSH1 0x1 PUSH1 0x1 PUSH1 0xA0 SHL SUB DUP10 AND BALANCE DUP2 MSTORE PUSH32 0x64F94CC1B9DB4414F5017ADD39D53FC2644D66038E8C0EA3C887E90730075DA8 SWAP1 PUSH1 0x20 ADD PUSH1 0x40 MLOAD DUP1 SWAP2 SUB SWAP1 LOG1 PUSH3 0x26EF PUSH1 0x40 MLOAD DUP1 PUSH1 0x40 ADD PUSH1 0x40 MSTORE DUP1 PUSH1 0x18 DUP2 MSTORE PUSH1 0x20 ADD PUSH32 0x4F726465722063616E63656C65643A2025732062792025730000000000000000 DUP2 MSTORE POP DUP7 DUP6 DUP2 SLOAD DUP2 LT PUSH3 0xC55 JUMPI PUSH3 0xC55 PUSH3 0x31E3 JUMP JUMPDEST POP POP POP POP POP POP POP POP POP JUMP JUMPDEST PUSH1 0x60 PUSH1 0x0 DUP1 PUSH1 0x0 JUMPDEST PUSH1 0x2 SLOAD DUP2 LT ISZERO PUSH3 0x279E JUMPI CALLER PUSH1 0x1 PUSH1 0x1 PUSH1 0xA0 SHL SUB AND PUSH1 0x2 DUP3 DUP2 SLOAD DUP2 LT PUSH3 0x272D JUMPI PUSH3 0x272D PUSH3 0x31E3 JUMP JUMPDEST PUSH1 0x0 SWAP2 DUP3 MSTORE PUSH1 0x20 SWAP1 SWAP2 KECCAK256 ADD SLOAD PUSH1 0x1 PUSH1 0x1 PUSH1 0xA0 SHL SUB AND EQ PUSH3 0x2795 JUMPI PUSH1 0x0 DUP1 PUSH1 0x2 DUP4 DUP2 SLOAD DUP2 LT PUSH3 0x2761 JUMPI PUSH3 0x2761 PUSH3 0x31E3 JUMP JUMPDEST PUSH1 0x0 SWAP2 DUP3 MSTORE PUSH1 0x20 DUP1 DUP4 KECCAK256 SWAP1 SWAP2 ADD SLOAD PUSH1 0x1 PUSH1 0x1 PUSH1 0xA0 SHL SUB AND DUP4 MSTORE DUP3 ADD SWAP3 SWAP1 SWAP3 MSTORE PUSH1 0x40 ADD SWAP1 KECCAK256 SLOAD PUSH3 0x2792 SWAP1 DUP5 PUSH3 0x354F JUMP JUMPDEST SWAP3 POP JUMPDEST PUSH1 0x1 ADD PUSH3 0x2702 JUMP JUMPDEST POP PUSH1 0x0 DUP3 PUSH8 0xFFFFFFFFFFFFFFFF DUP2 GT ISZERO PUSH3 0x27BD JUMPI PUSH3 0x27BD PUSH3 0x2D7F JUMP JUMPDEST PUSH1 0x40 MLOAD SWAP1 DUP1 DUP3 MSTORE DUP1 PUSH1 0x20 MUL PUSH1 0x20 ADD DUP3 ADD PUSH1 0x40 MSTORE DUP1 ISZERO PUSH3 0x27FA JUMPI DUP2 PUSH1 0x20 ADD JUMPDEST PUSH3 0x27E6 PUSH3 0x2CA7 JUMP JUMPDEST DUP2 MSTORE PUSH1 0x20 ADD SWAP1 PUSH1 0x1 SWAP1 SUB SWAP1 DUP2 PUSH3 0x27DC JUMPI SWAP1 POP JUMPDEST POP SWAP1 POP PUSH1 0x0 JUMPDEST PUSH1 0x2 SLOAD DUP2 LT ISZERO PUSH3 0x2B6F JUMPI CALLER PUSH1 0x1 PUSH1 0x1 PUSH1 0xA0 SHL SUB AND PUSH1 0x2 DUP3 DUP2 SLOAD DUP2 LT PUSH3 0x282B JUMPI PUSH3 0x282B PUSH3 0x31E3 JUMP JUMPDEST PUSH1 0x0 SWAP2 DUP3 MSTORE PUSH1 0x20 SWAP1 SWAP2 KECCAK256 ADD SLOAD PUSH1 0x1 PUSH1 0x1 PUSH1 0xA0 SHL SUB AND EQ PUSH3 0x2B66 JUMPI PUSH1 0x0 DUP1 PUSH1 0x0 PUSH1 0x2 DUP5 DUP2 SLOAD DUP2 LT PUSH3 0x2861 JUMPI PUSH3 0x2861 PUSH3 0x31E3 JUMP JUMPDEST PUSH1 0x0 SWAP2 DUP3 MSTORE PUSH1 0x20 DUP1 DUP4 KECCAK256 SWAP1 SWAP2 ADD SLOAD PUSH1 0x1 PUSH1 0x1 PUSH1 0xA0 SHL SUB AND DUP4 MSTORE DUP3 ADD SWAP3 SWAP1 SWAP3 MSTORE PUSH1 0x40 ADD DUP2 KECCAK256 SWAP2 POP JUMPDEST DUP2 SLOAD DUP2 LT ISZERO PUSH3 0x2B63 JUMPI DUP2 DUP2 DUP2 SLOAD DUP2 LT PUSH3 0x28A7 JUMPI PUSH3 0x28A7 PUSH3 0x31E3 JUMP JUMPDEST SWAP1 PUSH1 0x0 MSTORE PUSH1 0x20 PUSH1 0x0 KECCAK256 SWAP1 PUSH1 0x9 MUL ADD PUSH1 0x6 ADD PUSH1 0x14 SWAP1 SLOAD SWAP1 PUSH2 0x100 EXP SWAP1 DIV PUSH1 0xFF AND PUSH3 0x2B5A JUMPI DUP2 DUP2 DUP2 SLOAD DUP2 LT PUSH3 0x28E0 JUMPI PUSH3 0x28E0 PUSH3 0x31E3 JUMP JUMPDEST SWAP1 PUSH1 0x0 MSTORE PUSH1 0x20 PUSH1 0x0 KECCAK256 SWAP1 PUSH1 0x9 MUL ADD PUSH1 0x40 MLOAD DUP1 PUSH2 0x140 ADD PUSH1 0x40 MSTORE SWAP1 DUP2 PUSH1 0x0 DUP3 ADD SLOAD DUP2 MSTORE PUSH1 0x20 ADD PUSH1 0x1 DUP3 ADD DUP1 SLOAD PUSH3 0x2916 SWAP1 PUSH3 0x3224 JUMP JUMPDEST DUP1 PUSH1 0x1F ADD PUSH1 0x20 DUP1 SWAP2 DIV MUL PUSH1 0x20 ADD PUSH1 0x40 MLOAD SWAP1 DUP2 ADD PUSH1 0x40 MSTORE DUP1 SWAP3 SWAP2 SWAP1 DUP2 DUP2 MSTORE PUSH1 0x20 ADD DUP3 DUP1 SLOAD PUSH3 0x2944 SWAP1 PUSH3 0x3224 JUMP JUMPDEST DUP1 ISZERO PUSH3 0x2995 JUMPI DUP1 PUSH1 0x1F LT PUSH3 0x2969 JUMPI PUSH2 0x100 DUP1 DUP4 SLOAD DIV MUL DUP4 MSTORE SWAP2 PUSH1 0x20 ADD SWAP2 PUSH3 0x2995 JUMP JUMPDEST DUP3 ADD SWAP2 SWAP1 PUSH1 0x0 MSTORE PUSH1 0x20 PUSH1 0x0 KECCAK256 SWAP1 JUMPDEST DUP2 SLOAD DUP2 MSTORE SWAP1 PUSH1 0x1 ADD SWAP1 PUSH1 0x20 ADD DUP1 DUP4 GT PUSH3 0x2977 JUMPI DUP3 SWAP1 SUB PUSH1 0x1F AND DUP3 ADD SWAP2 JUMPDEST POP POP POP POP POP DUP2 MSTORE PUSH1 0x20 ADD PUSH1 0x2 DUP3 ADD DUP1 SLOAD PUSH3 0x29B0 SWAP1 PUSH3 0x3224 JUMP JUMPDEST DUP1 PUSH1 0x1F ADD PUSH1 0x20 DUP1 SWAP2 DIV MUL PUSH1 0x20 ADD PUSH1 0x40 MLOAD SWAP1 DUP2 ADD PUSH1 0x40 MSTORE DUP1 SWAP3 SWAP2 SWAP1 DUP2 DUP2 MSTORE PUSH1 0x20 ADD DUP3 DUP1 SLOAD PUSH3 0x29DE SWAP1 PUSH3 0x3224 JUMP JUMPDEST DUP1 ISZERO PUSH3 0x2A2F JUMPI DUP1 PUSH1 0x1F LT PUSH3 0x2A03 JUMPI PUSH2 0x100 DUP1 DUP4 SLOAD DIV MUL DUP4 MSTORE SWAP2 PUSH1 0x20 ADD SWAP2 PUSH3 0x2A2F JUMP JUMPDEST DUP3 ADD SWAP2 SWAP1 PUSH1 0x0 MSTORE PUSH1 0x20 PUSH1 0x0 KECCAK256 SWAP1 JUMPDEST DUP2 SLOAD DUP2 MSTORE SWAP1 PUSH1 0x1 ADD SWAP1 PUSH1 0x20 ADD DUP1 DUP4 GT PUSH3 0x2A11 JUMPI DUP3 SWAP1 SUB PUSH1 0x1F AND DUP3 ADD SWAP2 JUMPDEST POP POP POP POP POP DUP2 MSTORE PUSH1 0x20 ADD PUSH1 0x3 DUP3 ADD SLOAD DUP2 MSTORE PUSH1 0x20 ADD PUSH1 0x4 DUP3 ADD DUP1 SLOAD PUSH3 0x2A54 SWAP1 PUSH3 0x3224 JUMP JUMPDEST DUP1 PUSH1 0x1F ADD PUSH1 0x20 DUP1 SWAP2 DIV MUL PUSH1 0x20 ADD PUSH1 0x40 MLOAD SWAP1 DUP2 ADD PUSH1 0x40 MSTORE DUP1 SWAP3 SWAP2 SWAP1 DUP2 DUP2 MSTORE PUSH1 0x20 ADD DUP3 DUP1 SLOAD PUSH3 0x2A82 SWAP1 PUSH3 0x3224 JUMP JUMPDEST DUP1 ISZERO PUSH3 0x2AD3 JUMPI DUP1 PUSH1 0x1F LT PUSH3 0x2AA7 JUMPI PUSH2 0x100 DUP1 DUP4 SLOAD DIV MUL DUP4 MSTORE SWAP2 PUSH1 0x20 ADD SWAP2 PUSH3 0x2AD3 JUMP JUMPDEST DUP3 ADD SWAP2 SWAP1 PUSH1 0x0 MSTORE PUSH1 0x20 PUSH1 0x0 KECCAK256 SWAP1 JUMPDEST DUP2 SLOAD DUP2 MSTORE SWAP1 PUSH1 0x1 ADD SWAP1 PUSH1 0x20 ADD DUP1 DUP4 GT PUSH3 0x2AB5 JUMPI DUP3 SWAP1 SUB PUSH1 0x1F AND DUP3 ADD SWAP2 JUMPDEST POP POP POP SWAP2 DUP4 MSTORE POP POP PUSH1 0x5 DUP3 ADD SLOAD PUSH1 0x20 DUP3 ADD MSTORE PUSH1 0x6 DUP3 ADD SLOAD PUSH1 0x1 PUSH1 0x1 PUSH1 0xA0 SHL SUB DUP1 DUP3 AND PUSH1 0x40 DUP5 ADD MSTORE PUSH1 0x1 PUSH1 0xA0 SHL SWAP1 SWAP2 DIV PUSH1 0xFF AND ISZERO ISZERO PUSH1 0x60 DUP4 ADD MSTORE PUSH1 0x7 DUP4 ADD SLOAD DUP2 AND PUSH1 0x80 DUP4 ADD MSTORE PUSH1 0x8 SWAP1 SWAP3 ADD SLOAD SWAP1 SWAP2 AND PUSH1 0xA0 SWAP1 SWAP2 ADD MSTORE DUP5 MLOAD DUP6 SWAP1 DUP8 SWAP1 DUP2 LT PUSH3 0x2B3E JUMPI PUSH3 0x2B3E PUSH3 0x31E3 JUMP JUMPDEST PUSH1 0x20 MUL PUSH1 0x20 ADD ADD DUP2 SWAP1 MSTORE POP DUP5 DUP1 PUSH3 0x2B56 SWAP1 PUSH3 0x338F JUMP JUMPDEST SWAP6 POP POP JUMPDEST PUSH1 0x1 ADD PUSH3 0x2888 JUMP JUMPDEST POP POP JUMPDEST PUSH1 0x1 ADD PUSH3 0x2800 JUMP JUMPDEST POP PUSH3 0x2BA1 PUSH1 0x40 MLOAD DUP1 PUSH1 0x40 ADD PUSH1 0x40 MSTORE DUP1 PUSH1 0xD DUP2 MSTORE PUSH1 0x20 ADD PUSH13 0x2A37BA30B61024BA32B6B99D1 PUSH1 0x9D SHL DUP2 MSTORE POP DUP5 PUSH3 0x2BDB JUMP JUMPDEST PUSH3 0x2BD4 PUSH1 0x40 MLOAD DUP1 PUSH1 0x40 ADD PUSH1 0x40 MSTORE DUP1 PUSH1 0xF DUP2 MSTORE PUSH1 0x20 ADD PUSH15 0x21BAB93932B73A1024B73232BC1D1 PUSH1 0x8D SHL DUP2 MSTORE POP DUP4 PUSH3 0x2BDB JUMP JUMPDEST SWAP4 SWAP3 POP POP POP JUMP JUMPDEST PUSH3 0x2C24 DUP3 DUP3 PUSH1 0x40 MLOAD PUSH1 0x24 ADD PUSH3 0x2BF4 SWAP3 SWAP2 SWAP1 PUSH3 0x3565 JUMP JUMPDEST PUSH1 0x40 DUP1 MLOAD PUSH1 0x1F NOT DUP2 DUP5 SUB ADD DUP2 MSTORE SWAP2 SWAP1 MSTORE PUSH1 0x20 DUP2 ADD DUP1 MLOAD PUSH1 0x1 PUSH1 0x1 PUSH1 0xE0 SHL SUB AND PUSH4 0x2D839CB3 PUSH1 0xE2 SHL OR SWAP1 MSTORE PUSH3 0x2C78 JUMP JUMPDEST POP POP JUMP JUMPDEST PUSH3 0x2C73 DUP4 DUP4 DUP4 PUSH1 0x40 MLOAD PUSH1 0x24 ADD PUSH3 0x2C43 SWAP4 SWAP3 SWAP2 SWAP1 PUSH3 0x3589 JUMP JUMPDEST PUSH1 0x40 DUP1 MLOAD PUSH1 0x1F NOT DUP2 DUP5 SUB ADD DUP2 MSTORE SWAP2 SWAP1 MSTORE PUSH1 0x20 DUP2 ADD DUP1 MLOAD PUSH1 0x1 PUSH1 0x1 PUSH1 0xE0 SHL SUB AND PUSH4 0x95ED0195 PUSH1 0xE0 SHL OR SWAP1 MSTORE PUSH3 0x2C78 JUMP JUMPDEST POP POP POP JUMP JUMPDEST PUSH3 0x2C83 DUP2 PUSH3 0x2C86 JUMP JUMPDEST POP JUMP JUMPDEST PUSH1 0x0 PUSH11 0x636F6E736F6C652E6C6F67 SWAP1 POP PUSH1 0x0 DUP1 DUP4 MLOAD PUSH1 0x20 DUP6 ADD DUP5 GAS STATICCALL POP POP POP JUMP JUMPDEST PUSH1 0x40 MLOAD DUP1 PUSH2 0x140 ADD PUSH1 0x40 MSTORE DUP1 PUSH1 0x0 DUP2 MSTORE PUSH1 0x20 ADD PUSH1 0x60 DUP2 MSTORE PUSH1 0x20 ADD PUSH1 0x60 DUP2 MSTORE PUSH1 0x20 ADD PUSH1 0x0 DUP2 MSTORE PUSH1 0x20 ADD PUSH1 0x60 DUP2 MSTORE PUSH1 0x20 ADD PUSH1 0x0 DUP2 MSTORE PUSH1 0x20 ADD PUSH1 0x0 PUSH1 0x1 PUSH1 0x1 PUSH1 0xA0 SHL SUB AND DUP2 MSTORE PUSH1 0x20 ADD PUSH1 0x0 ISZERO ISZERO DUP2 MSTORE PUSH1 0x20 ADD PUSH1 0x0 PUSH1 0x1 PUSH1 0x1 PUSH1 0xA0 SHL SUB AND DUP2 MSTORE PUSH1 0x20 ADD PUSH1 0x0 PUSH1 0x1 PUSH1 0x1 PUSH1 0xA0 SHL SUB AND DUP2 MSTORE POP SWAP1 JUMP JUMPDEST POP DUP1 SLOAD PUSH3 0x2D25 SWAP1 PUSH3 0x3224 JUMP JUMPDEST PUSH1 0x0 DUP3 SSTORE DUP1 PUSH1 0x1F LT PUSH3 0x2D36 JUMPI POP POP JUMP JUMPDEST PUSH1 0x1F ADD PUSH1 0x20 SWAP1 DIV SWAP1 PUSH1 0x0 MSTORE PUSH1 0x20 PUSH1 0x0 KECCAK256 SWAP1 DUP2 ADD SWAP1 PUSH3 0x2C83 SWAP2 SWAP1 PUSH3 0x2D64 JUMP JUMPDEST PUSH2 0x1951 DUP1 PUSH3 0x35CC DUP4 CODECOPY ADD SWAP1 JUMP JUMPDEST JUMPDEST DUP1 DUP3 GT ISZERO PUSH3 0x2D7B JUMPI PUSH1 0x0 DUP2 SSTORE PUSH1 0x1 ADD PUSH3 0x2D65 JUMP JUMPDEST POP SWAP1 JUMP JUMPDEST PUSH4 0x4E487B71 PUSH1 0xE0 SHL PUSH1 0x0 MSTORE PUSH1 0x41 PUSH1 0x4 MSTORE PUSH1 0x24 PUSH1 0x0 REVERT JUMPDEST PUSH1 0x0 DUP3 PUSH1 0x1F DUP4 ADD SLT PUSH3 0x2DA7 JUMPI PUSH1 0x0 DUP1 REVERT JUMPDEST DUP2 CALLDATALOAD PUSH8 0xFFFFFFFFFFFFFFFF DUP1 DUP3 GT ISZERO PUSH3 0x2DC5 JUMPI PUSH3 0x2DC5 PUSH3 0x2D7F JUMP JUMPDEST PUSH1 0x40 MLOAD PUSH1 0x1F DUP4 ADD PUSH1 0x1F NOT SWAP1 DUP2 AND PUSH1 0x3F ADD AND DUP2 ADD SWAP1 DUP3 DUP3 GT DUP2 DUP4 LT OR ISZERO PUSH3 0x2DF0 JUMPI PUSH3 0x2DF0 PUSH3 0x2D7F JUMP JUMPDEST DUP2 PUSH1 0x40 MSTORE DUP4 DUP2 MSTORE DUP7 PUSH1 0x20 DUP6 DUP9 ADD ADD GT ISZERO PUSH3 0x2E0A JUMPI PUSH1 0x0 DUP1 REVERT JUMPDEST DUP4 PUSH1 0x20 DUP8 ADD PUSH1 0x20 DUP4 ADD CALLDATACOPY PUSH1 0x0 PUSH1 0x20 DUP6 DUP4 ADD ADD MSTORE DUP1 SWAP5 POP POP POP POP POP SWAP3 SWAP2 POP POP JUMP JUMPDEST PUSH1 0x0 DUP1 PUSH1 0x0 DUP1 PUSH1 0x0 PUSH1 0xA0 DUP7 DUP9 SUB SLT ISZERO PUSH3 0x2E43 JUMPI PUSH1 0x0 DUP1 REVERT JUMPDEST DUP6 CALLDATALOAD SWAP5 POP PUSH1 0x20 DUP7 ADD CALLDATALOAD PUSH8 0xFFFFFFFFFFFFFFFF DUP1 DUP3 GT ISZERO PUSH3 0x2E63 JUMPI PUSH1 0x0 DUP1 REVERT JUMPDEST PUSH3 0x2E71 DUP10 DUP4 DUP11 ADD PUSH3 0x2D95 JUMP JUMPDEST SWAP6 POP PUSH1 0x40 DUP9 ADD CALLDATALOAD SWAP2 POP DUP1 DUP3 GT ISZERO PUSH3 0x2E88 JUMPI PUSH1 0x0 DUP1 REVERT JUMPDEST PUSH3 0x2E96 DUP10 DUP4 DUP11 ADD PUSH3 0x2D95 JUMP JUMPDEST SWAP5 POP PUSH1 0x60 DUP9 ADD CALLDATALOAD SWAP4 POP PUSH1 0x80 DUP9 ADD CALLDATALOAD SWAP2 POP DUP1 DUP3 GT ISZERO PUSH3 0x2EB4 JUMPI PUSH1 0x0 DUP1 REVERT JUMPDEST POP PUSH3 0x2EC3 DUP9 DUP3 DUP10 ADD PUSH3 0x2D95 JUMP JUMPDEST SWAP2 POP POP SWAP3 SWAP6 POP SWAP3 SWAP6 SWAP1 SWAP4 POP JUMP JUMPDEST PUSH1 0x0 DUP1 PUSH1 0x0 DUP1 PUSH1 0x80 DUP6 DUP8 SUB SLT ISZERO PUSH3 0x2EE7 JUMPI PUSH1 0x0 DUP1 REVERT JUMPDEST DUP5 CALLDATALOAD PUSH8 0xFFFFFFFFFFFFFFFF DUP1 DUP3 GT ISZERO PUSH3 0x2F00 JUMPI PUSH1 0x0 DUP1 REVERT JUMPDEST PUSH3 0x2F0E DUP9 DUP4 DUP10 ADD PUSH3 0x2D95 JUMP JUMPDEST SWAP6 POP PUSH1 0x20 DUP8 ADD CALLDATALOAD SWAP2 POP DUP1 DUP3 GT ISZERO PUSH3 0x2F25 JUMPI PUSH1 0x0 DUP1 REVERT JUMPDEST PUSH3 0x2F33 DUP9 DUP4 DUP10 ADD PUSH3 0x2D95 JUMP JUMPDEST SWAP5 POP PUSH1 0x40 DUP8 ADD CALLDATALOAD SWAP4 POP PUSH1 0x60 DUP8 ADD CALLDATALOAD SWAP2 POP DUP1 DUP3 GT ISZERO PUSH3 0x2F51 JUMPI PUSH1 0x0 DUP1 REVERT JUMPDEST POP PUSH3 0x2F60 DUP8 DUP3 DUP9 ADD PUSH3 0x2D95 JUMP JUMPDEST SWAP2 POP POP SWAP3 SWAP6 SWAP2 SWAP5 POP SWAP3 POP JUMP JUMPDEST PUSH1 0x0 DUP2 MLOAD DUP1 DUP5 MSTORE PUSH1 0x0 JUMPDEST DUP2 DUP2 LT ISZERO PUSH3 0x2F94 JUMPI PUSH1 0x20 DUP2 DUP6 ADD DUP2 ADD MLOAD DUP7 DUP4 ADD DUP3 ADD MSTORE ADD PUSH3 0x2F76 JUMP JUMPDEST POP PUSH1 0x0 PUSH1 0x20 DUP3 DUP7 ADD ADD MSTORE PUSH1 0x20 PUSH1 0x1F NOT PUSH1 0x1F DUP4 ADD AND DUP6 ADD ADD SWAP2 POP POP SWAP3 SWAP2 POP POP JUMP JUMPDEST PUSH1 0x0 PUSH1 0x20 DUP1 DUP4 ADD DUP2 DUP5 MSTORE DUP1 DUP6 MLOAD DUP1 DUP4 MSTORE PUSH1 0x40 SWAP3 POP PUSH1 0x40 DUP7 ADD SWAP2 POP PUSH1 0x40 DUP2 PUSH1 0x5 SHL DUP8 ADD ADD DUP5 DUP9 ADD PUSH1 0x0 JUMPDEST DUP4 DUP2 LT ISZERO PUSH3 0x30BF JUMPI PUSH1 0x3F NOT DUP10 DUP5 SUB ADD DUP6 MSTORE DUP2 MLOAD PUSH2 0x140 DUP2 MLOAD DUP6 MSTORE DUP9 DUP3 ADD MLOAD DUP2 DUP11 DUP8 ADD MSTORE PUSH3 0x300F DUP3 DUP8 ADD DUP3 PUSH3 0x2F6C JUMP JUMPDEST SWAP2 POP POP DUP8 DUP3 ADD MLOAD DUP6 DUP3 SUB DUP10 DUP8 ADD MSTORE PUSH3 0x3029 DUP3 DUP3 PUSH3 0x2F6C JUMP JUMPDEST SWAP2 POP POP PUSH1 0x60 DUP1 DUP4 ADD MLOAD DUP2 DUP8 ADD MSTORE POP PUSH1 0x80 DUP1 DUP4 ADD MLOAD DUP7 DUP4 SUB DUP3 DUP9 ADD MSTORE PUSH3 0x3050 DUP4 DUP3 PUSH3 0x2F6C JUMP JUMPDEST SWAP3 POP POP POP PUSH1 0xA0 DUP1 DUP4 ADD MLOAD DUP2 DUP8 ADD MSTORE POP PUSH1 0xC0 DUP1 DUP4 ADD MLOAD PUSH3 0x307A DUP3 DUP9 ADD DUP3 PUSH1 0x1 PUSH1 0x1 PUSH1 0xA0 SHL SUB AND SWAP1 MSTORE JUMP JUMPDEST POP POP PUSH1 0xE0 DUP3 DUP2 ADD MLOAD ISZERO ISZERO SWAP1 DUP7 ADD MSTORE PUSH2 0x100 DUP1 DUP4 ADD MLOAD PUSH1 0x1 PUSH1 0x1 PUSH1 0xA0 SHL SUB SWAP1 DUP2 AND SWAP2 DUP8 ADD SWAP2 SWAP1 SWAP2 MSTORE PUSH2 0x120 SWAP3 DUP4 ADD MLOAD AND SWAP2 SWAP1 SWAP5 ADD MSTORE SWAP4 DUP7 ADD SWAP4 SWAP1 DUP7 ADD SWAP1 PUSH1 0x1 ADD PUSH3 0x2FDD JUMP JUMPDEST POP SWAP1 SWAP9 SWAP8 POP POP POP POP POP POP POP POP JUMP JUMPDEST PUSH1 0x0 DUP1 PUSH1 0x40 DUP4 DUP6 SUB SLT ISZERO PUSH3 0x30E1 JUMPI PUSH1 0x0 DUP1 REVERT JUMPDEST DUP3 CALLDATALOAD SWAP2 POP PUSH1 0x20 DUP4 ADD CALLDATALOAD PUSH8 0xFFFFFFFFFFFFFFFF DUP2 GT ISZERO PUSH3 0x3100 JUMPI PUSH1 0x0 DUP1 REVERT JUMPDEST PUSH3 0x310E DUP6 DUP3 DUP7 ADD PUSH3 0x2D95 JUMP JUMPDEST SWAP2 POP POP SWAP3 POP SWAP3 SWAP1 POP JUMP JUMPDEST PUSH1 0x0 PUSH1 0x20 DUP3 DUP5 SUB SLT ISZERO PUSH3 0x312B JUMPI PUSH1 0x0 DUP1 REVERT JUMPDEST POP CALLDATALOAD SWAP2 SWAP1 POP JUMP JUMPDEST DUP1 CALLDATALOAD PUSH1 0x1 PUSH1 0x1 PUSH1 0xA0 SHL SUB DUP2 AND DUP2 EQ PUSH3 0x314A JUMPI PUSH1 0x0 DUP1 REVERT JUMPDEST SWAP2 SWAP1 POP JUMP JUMPDEST PUSH1 0x0 DUP1 PUSH1 0x40 DUP4 DUP6 SUB SLT ISZERO PUSH3 0x3163 JUMPI PUSH1 0x0 DUP1 REVERT JUMPDEST DUP3 CALLDATALOAD SWAP2 POP PUSH3 0x3175 PUSH1 0x20 DUP5 ADD PUSH3 0x3132 JUMP JUMPDEST SWAP1 POP SWAP3 POP SWAP3 SWAP1 POP JUMP JUMPDEST DUP1 CALLDATALOAD DUP1 ISZERO ISZERO DUP2 EQ PUSH3 0x314A JUMPI PUSH1 0x0 DUP1 REVERT JUMPDEST PUSH1 0x0 DUP1 PUSH1 0x0 DUP1 PUSH1 0x80 DUP6 DUP8 SUB SLT ISZERO PUSH3 0x31A6 JUMPI PUSH1 0x0 DUP1 REVERT JUMPDEST DUP5 CALLDATALOAD SWAP4 POP PUSH3 0x31B8 PUSH1 0x20 DUP7 ADD PUSH3 0x3132 JUMP JUMPDEST SWAP3 POP PUSH3 0x31C8 PUSH1 0x40 DUP7 ADD PUSH3 0x317E JUMP JUMPDEST SWAP2 POP PUSH3 0x31D8 PUSH1 0x60 DUP7 ADD PUSH3 0x317E JUMP JUMPDEST SWAP1 POP SWAP3 SWAP6 SWAP2 SWAP5 POP SWAP3 POP JUMP JUMPDEST PUSH4 0x4E487B71 PUSH1 0xE0 SHL PUSH1 0x0 MSTORE PUSH1 0x32 PUSH1 0x4 MSTORE PUSH1 0x24 PUSH1 0x0 REVERT JUMPDEST PUSH1 0x20 DUP1 DUP3 MSTORE PUSH1 0x11 SWAP1 DUP3 ADD MSTORE PUSH17 0x125D195B48185B1C9958591E481CDBDB19 PUSH1 0x7A SHL PUSH1 0x40 DUP3 ADD MSTORE PUSH1 0x60 ADD SWAP1 JUMP JUMPDEST PUSH1 0x1 DUP2 DUP2 SHR SWAP1 DUP3 AND DUP1 PUSH3 0x3239 JUMPI PUSH1 0x7F DUP3 AND SWAP2 POP JUMPDEST PUSH1 0x20 DUP3 LT DUP2 SUB PUSH3 0x325A JUMPI PUSH4 0x4E487B71 PUSH1 0xE0 SHL PUSH1 0x0 MSTORE PUSH1 0x22 PUSH1 0x4 MSTORE PUSH1 0x24 PUSH1 0x0 REVERT JUMPDEST POP SWAP2 SWAP1 POP JUMP JUMPDEST PUSH1 0x1F DUP3 GT ISZERO PUSH3 0x2C73 JUMPI PUSH1 0x0 DUP2 PUSH1 0x0 MSTORE PUSH1 0x20 PUSH1 0x0 KECCAK256 PUSH1 0x1F DUP6 ADD PUSH1 0x5 SHR DUP2 ADD PUSH1 0x20 DUP7 LT ISZERO PUSH3 0x328B JUMPI POP DUP1 JUMPDEST PUSH1 0x1F DUP6 ADD PUSH1 0x5 SHR DUP3 ADD SWAP2 POP JUMPDEST DUP2 DUP2 LT ISZERO PUSH3 0x13BA JUMPI DUP3 DUP2 SSTORE PUSH1 0x1 ADD PUSH3 0x3297 JUMP JUMPDEST DUP2 MLOAD PUSH8 0xFFFFFFFFFFFFFFFF DUP2 GT ISZERO PUSH3 0x32C9 JUMPI PUSH3 0x32C9 PUSH3 0x2D7F JUMP JUMPDEST PUSH3 0x32E1 DUP2 PUSH3 0x32DA DUP5 SLOAD PUSH3 0x3224 JUMP JUMPDEST DUP5 PUSH3 0x3260 JUMP JUMPDEST PUSH1 0x20 DUP1 PUSH1 0x1F DUP4 GT PUSH1 0x1 DUP2 EQ PUSH3 0x3319 JUMPI PUSH1 0x0 DUP5 ISZERO PUSH3 0x3300 JUMPI POP DUP6 DUP4 ADD MLOAD JUMPDEST PUSH1 0x0 NOT PUSH1 0x3 DUP7 SWAP1 SHL SHR NOT AND PUSH1 0x1 DUP6 SWAP1 SHL OR DUP6 SSTORE PUSH3 0x13BA JUMP JUMPDEST PUSH1 0x0 DUP6 DUP2 MSTORE PUSH1 0x20 DUP2 KECCAK256 PUSH1 0x1F NOT DUP7 AND SWAP2 JUMPDEST DUP3 DUP2 LT ISZERO PUSH3 0x334A JUMPI DUP9 DUP7 ADD MLOAD DUP3 SSTORE SWAP5 DUP5 ADD SWAP5 PUSH1 0x1 SWAP1 SWAP2 ADD SWAP1 DUP5 ADD PUSH3 0x3329 JUMP JUMPDEST POP DUP6 DUP3 LT ISZERO PUSH3 0x3369 JUMPI DUP8 DUP6 ADD MLOAD PUSH1 0x0 NOT PUSH1 0x3 DUP9 SWAP1 SHL PUSH1 0xF8 AND SHR NOT AND DUP2 SSTORE JUMPDEST POP POP POP POP POP PUSH1 0x1 SWAP1 DUP2 SHL ADD SWAP1 SSTORE POP JUMP JUMPDEST PUSH4 0x4E487B71 PUSH1 0xE0 SHL PUSH1 0x0 MSTORE PUSH1 0x11 PUSH1 0x4 MSTORE PUSH1 0x24 PUSH1 0x0 REVERT JUMPDEST PUSH1 0x0 PUSH1 0x1 DUP3 ADD PUSH3 0x33A4 JUMPI PUSH3 0x33A4 PUSH3 0x3379 JUMP JUMPDEST POP PUSH1 0x1 ADD SWAP1 JUMP JUMPDEST PUSH1 0x20 DUP1 DUP3 MSTORE PUSH1 0xE SWAP1 DUP3 ADD MSTORE PUSH14 0x125D195B481B9BDD08199BDD5B99 PUSH1 0x92 SHL PUSH1 0x40 DUP3 ADD MSTORE PUSH1 0x60 ADD SWAP1 JUMP JUMPDEST PUSH1 0x20 DUP2 MSTORE PUSH1 0x0 PUSH3 0x2BD4 PUSH1 0x20 DUP4 ADD DUP5 PUSH3 0x2F6C JUMP JUMPDEST DUP2 DUP2 SUB DUP2 DUP2 GT ISZERO PUSH3 0x33FE JUMPI PUSH3 0x33FE PUSH3 0x3379 JUMP JUMPDEST SWAP3 SWAP2 POP POP JUMP JUMPDEST DUP2 DUP2 SUB PUSH3 0x3410 JUMPI POP POP JUMP JUMPDEST PUSH3 0x341C DUP3 SLOAD PUSH3 0x3224 JUMP JUMPDEST PUSH8 0xFFFFFFFFFFFFFFFF DUP2 GT ISZERO PUSH3 0x3437 JUMPI PUSH3 0x3437 PUSH3 0x2D7F JUMP JUMPDEST PUSH3 0x3448 DUP2 PUSH3 0x32DA DUP5 SLOAD PUSH3 0x3224 JUMP JUMPDEST PUSH1 0x0 PUSH1 0x1F DUP3 GT PUSH1 0x1 DUP2 EQ PUSH3 0x347F JUMPI PUSH1 0x0 DUP4 ISZERO PUSH3 0x3466 JUMPI POP DUP5 DUP3 ADD SLOAD JUMPDEST PUSH1 0x0 NOT PUSH1 0x3 DUP6 SWAP1 SHL SHR NOT AND PUSH1 0x1 DUP5 SWAP1 SHL OR DUP5 SSTORE PUSH3 0xCFE JUMP JUMPDEST PUSH1 0x0 DUP6 DUP2 MSTORE PUSH1 0x20 SWAP1 KECCAK256 PUSH1 0x1F NOT DUP5 AND SWAP1 PUSH1 0x0 DUP7 DUP2 MSTORE PUSH1 0x20 SWAP1 KECCAK256 DUP5 JUMPDEST DUP4 DUP2 LT ISZERO PUSH3 0x34BB JUMPI DUP3 DUP7 ADD SLOAD DUP3 SSTORE PUSH1 0x1 SWAP6 DUP7 ADD SWAP6 SWAP1 SWAP2 ADD SWAP1 PUSH1 0x20 ADD PUSH3 0x3499 JUMP JUMPDEST POP DUP6 DUP4 LT ISZERO PUSH3 0x3369 JUMPI SWAP4 ADD SLOAD PUSH1 0x0 NOT PUSH1 0xF8 PUSH1 0x3 DUP8 SWAP1 SHL AND SHR NOT AND SWAP1 SWAP3 SSTORE POP POP PUSH1 0x1 SWAP1 DUP2 SHL ADD SWAP1 SSTORE POP JUMP JUMPDEST PUSH4 0x4E487B71 PUSH1 0xE0 SHL PUSH1 0x0 MSTORE PUSH1 0x31 PUSH1 0x4 MSTORE PUSH1 0x24 PUSH1 0x0 REVERT JUMPDEST PUSH4 0x4E487B71 PUSH1 0xE0 SHL PUSH1 0x0 MSTORE PUSH1 0x21 PUSH1 0x4 MSTORE PUSH1 0x24 PUSH1 0x0 REVERT JUMPDEST PUSH1 0x0 PUSH1 0x20 DUP3 DUP5 SUB SLT ISZERO PUSH3 0x3525 JUMPI PUSH1 0x0 DUP1 REVERT JUMPDEST DUP2 MLOAD PUSH1 0x5 DUP2 LT PUSH3 0x2BD4 JUMPI PUSH1 0x0 DUP1 REVERT JUMPDEST PUSH1 0x0 PUSH1 0x20 DUP3 DUP5 SUB SLT ISZERO PUSH3 0x3548 JUMPI PUSH1 0x0 DUP1 REVERT JUMPDEST POP MLOAD SWAP2 SWAP1 POP JUMP JUMPDEST DUP1 DUP3 ADD DUP1 DUP3 GT ISZERO PUSH3 0x33FE JUMPI PUSH3 0x33FE PUSH3 0x3379 JUMP JUMPDEST PUSH1 0x40 DUP2 MSTORE PUSH1 0x0 PUSH3 0x357A PUSH1 0x40 DUP4 ADD DUP6 PUSH3 0x2F6C JUMP JUMPDEST SWAP1 POP DUP3 PUSH1 0x20 DUP4 ADD MSTORE SWAP4 SWAP3 POP POP POP JUMP JUMPDEST PUSH1 0x60 DUP2 MSTORE PUSH1 0x0 PUSH3 0x359E PUSH1 0x60 DUP4 ADD DUP7 PUSH3 0x2F6C JUMP JUMPDEST DUP3 DUP2 SUB PUSH1 0x20 DUP5 ADD MSTORE PUSH3 0x35B2 DUP2 DUP7 PUSH3 0x2F6C JUMP JUMPDEST SWAP2 POP POP PUSH1 0x1 DUP1 PUSH1 0xA0 SHL SUB DUP4 AND PUSH1 0x40 DUP4 ADD MSTORE SWAP5 SWAP4 POP POP POP POP JUMP INVALID PUSH1 0x80 PUSH1 0x40 MSTORE PUSH1 0x40 MLOAD PUSH3 0x1951 CODESIZE SUB DUP1 PUSH3 0x1951 DUP4 CODECOPY DUP2 ADD PUSH1 0x40 DUP2 SWAP1 MSTORE PUSH3 0x26 SWAP2 PUSH3 0x124 JUMP JUMPDEST PUSH1 0x1 DUP1 SLOAD PUSH1 0x2 DUP1 SLOAD PUSH1 0x1 PUSH1 0x1 PUSH1 0xA0 SHL SUB DUP6 DUP2 AND PUSH1 0x1 PUSH1 0x1 PUSH1 0xA0 SHL SUB NOT SWAP3 DUP4 AND OR SWAP1 SWAP3 SSTORE PUSH1 0x3 DUP1 SLOAD SWAP1 SWAP2 AND PUSH20 0x6A7D3230514EE0E8078F23CF65B367D9984B055A OR SWAP1 SSTORE DUP5 AND PUSH2 0x100 MUL PUSH1 0xFF NOT SWAP1 DUP2 AND PUSH1 0x1 PUSH1 0x1 PUSH1 0xA8 SHL SUB NOT SWAP1 SWAP3 AND SWAP2 SWAP1 SWAP2 OR DUP3 SSTORE PUSH1 0x5 DUP1 SLOAD SWAP1 SWAP2 AND SWAP1 SSTORE TIMESTAMP PUSH1 0x0 SWAP1 DUP2 SSTORE PUSH1 0x4 DUP1 SLOAD SWAP3 DUP4 ADD DUP2 SSTORE SWAP1 MSTORE PUSH1 0x40 DUP1 MLOAD DUP1 DUP3 ADD SWAP1 SWAP2 MSTORE PUSH1 0xC DUP2 MSTORE PUSH12 0x24BA32B6903137BAB3B43A17 PUSH1 0xA1 SHL PUSH1 0x20 DUP3 ADD MSTORE PUSH32 0x8A35ACFBC15FF81A39AE7D344FD709F28E8600B4AA8C65C6B64BFE7FE36BD19B SWAP1 SWAP2 ADD SWAP1 PUSH3 0xF4 SWAP1 DUP3 PUSH3 0x203 JUMP JUMPDEST POP POP PUSH1 0x8 DUP1 SLOAD PUSH1 0xFF NOT AND SWAP1 SSTORE POP PUSH3 0x2CF JUMP JUMPDEST DUP1 MLOAD PUSH1 0x1 PUSH1 0x1 PUSH1 0xA0 SHL SUB DUP2 AND DUP2 EQ PUSH3 0x11F JUMPI PUSH1 0x0 DUP1 REVERT JUMPDEST SWAP2 SWAP1 POP JUMP JUMPDEST PUSH1 0x0 DUP1 PUSH1 0x40 DUP4 DUP6 SUB SLT ISZERO PUSH3 0x138 JUMPI PUSH1 0x0 DUP1 REVERT JUMPDEST PUSH3 0x143 DUP4 PUSH3 0x107 JUMP JUMPDEST SWAP2 POP PUSH3 0x153 PUSH1 0x20 DUP5 ADD PUSH3 0x107 JUMP JUMPDEST SWAP1 POP SWAP3 POP SWAP3 SWAP1 POP JUMP JUMPDEST PUSH4 0x4E487B71 PUSH1 0xE0 SHL PUSH1 0x0 MSTORE PUSH1 0x41 PUSH1 0x4 MSTORE PUSH1 0x24 PUSH1 0x0 REVERT JUMPDEST PUSH1 0x1 DUP2 DUP2 SHR SWAP1 DUP3 AND DUP1 PUSH3 0x187 JUMPI PUSH1 0x7F DUP3 AND SWAP2 POP JUMPDEST PUSH1 0x20 DUP3 LT DUP2 SUB PUSH3 0x1A8 JUMPI PUSH4 0x4E487B71 PUSH1 0xE0 SHL PUSH1 0x0 MSTORE PUSH1 0x22 PUSH1 0x4 MSTORE PUSH1 0x24 PUSH1 0x0 REVERT JUMPDEST POP SWAP2 SWAP1 POP JUMP JUMPDEST PUSH1 0x1F DUP3 GT ISZERO PUSH3 0x1FE JUMPI PUSH1 0x0 DUP2 PUSH1 0x0 MSTORE PUSH1 0x20 PUSH1 0x0 KECCAK256 PUSH1 0x1F DUP6 ADD PUSH1 0x5 SHR DUP2 ADD PUSH1 0x20 DUP7 LT ISZERO PUSH3 0x1D9 JUMPI POP DUP1 JUMPDEST PUSH1 0x1F DUP6 ADD PUSH1 0x5 SHR DUP3 ADD SWAP2 POP JUMPDEST DUP2 DUP2 LT ISZERO PUSH3 0x1FA JUMPI DUP3 DUP2 SSTORE PUSH1 0x1 ADD PUSH3 0x1E5 JUMP JUMPDEST POP POP POP JUMPDEST POP POP POP JUMP JUMPDEST DUP2 MLOAD PUSH1 0x1 PUSH1 0x1 PUSH1 0x40 SHL SUB DUP2 GT ISZERO PUSH3 0x21F JUMPI PUSH3 0x21F PUSH3 0x15C JUMP JUMPDEST PUSH3 0x237 DUP2 PUSH3 0x230 DUP5 SLOAD PUSH3 0x172 JUMP JUMPDEST DUP5 PUSH3 0x1AE JUMP JUMPDEST PUSH1 0x20 DUP1 PUSH1 0x1F DUP4 GT PUSH1 0x1 DUP2 EQ PUSH3 0x26F JUMPI PUSH1 0x0 DUP5 ISZERO PUSH3 0x256 JUMPI POP DUP6 DUP4 ADD MLOAD JUMPDEST PUSH1 0x0 NOT PUSH1 0x3 DUP7 SWAP1 SHL SHR NOT AND PUSH1 0x1 DUP6 SWAP1 SHL OR DUP6 SSTORE PUSH3 0x1FA JUMP JUMPDEST PUSH1 0x0 DUP6 DUP2 MSTORE PUSH1 0x20 DUP2 KECCAK256 PUSH1 0x1F NOT DUP7 AND SWAP2 JUMPDEST DUP3 DUP2 LT ISZERO PUSH3 0x2A0 JUMPI DUP9 DUP7 ADD MLOAD DUP3 SSTORE SWAP5 DUP5 ADD SWAP5 PUSH1 0x1 SWAP1 SWAP2 ADD SWAP1 DUP5 ADD PUSH3 0x27F JUMP JUMPDEST POP DUP6 DUP3 LT ISZERO PUSH3 0x2BF JUMPI DUP8 DUP6 ADD MLOAD PUSH1 0x0 NOT PUSH1 0x3 DUP9 SWAP1 SHL PUSH1 0xF8 AND SHR NOT AND DUP2 SSTORE JUMPDEST POP POP POP POP POP PUSH1 0x1 SWAP1 DUP2 SHL ADD SWAP1 SSTORE POP JUMP JUMPDEST PUSH2 0x1672 DUP1 PUSH3 0x2DF PUSH1 0x0 CODECOPY PUSH1 0x0 RETURN INVALID PUSH1 0x80 PUSH1 0x40 MSTORE PUSH1 0x4 CALLDATASIZE LT PUSH2 0xFE JUMPI PUSH1 0x0 CALLDATALOAD PUSH1 0xE0 SHR DUP1 PUSH4 0x8285074B GT PUSH2 0x95 JUMPI DUP1 PUSH4 0xC00CCD54 GT PUSH2 0x64 JUMPI DUP1 PUSH4 0xC00CCD54 EQ PUSH2 0x27E JUMPI DUP1 PUSH4 0xD16F5B29 EQ PUSH2 0x29E JUMPI DUP1 PUSH4 0xDD3FA136 EQ PUSH2 0x2C8 JUMPI DUP1 PUSH4 0xDF8D93B4 EQ PUSH2 0x2E8 JUMPI DUP1 PUSH4 0xEAAF0B63 EQ PUSH2 0x2FD JUMPI PUSH1 0x0 DUP1 REVERT JUMPDEST DUP1 PUSH4 0x8285074B EQ PUSH2 0x21C JUMPI DUP1 PUSH4 0x89E1E82A EQ PUSH2 0x23C JUMPI DUP1 PUSH4 0xAFE01043 EQ PUSH2 0x24F JUMPI DUP1 PUSH4 0xBE6CB838 EQ PUSH2 0x276 JUMPI PUSH1 0x0 DUP1 REVERT JUMPDEST DUP1 PUSH4 0x5B0222BB GT PUSH2 0xD1 JUMPI DUP1 PUSH4 0x5B0222BB EQ PUSH2 0x19E JUMPI DUP1 PUSH4 0x5E10177B EQ PUSH2 0x1C2 JUMPI DUP1 PUSH4 0x64E6AA52 EQ PUSH2 0x1D7 JUMPI DUP1 PUSH4 0x7150D8AE EQ PUSH2 0x1F7 JUMPI PUSH1 0x0 DUP1 REVERT JUMPDEST DUP1 PUSH4 0x8551A53 EQ PUSH2 0x103 JUMPI DUP1 PUSH4 0x1865C57D EQ PUSH2 0x140 JUMPI DUP1 PUSH4 0x19561DAE EQ PUSH2 0x165 JUMPI DUP1 PUSH4 0x4FD6137C EQ PUSH2 0x187 JUMPI JUMPDEST PUSH1 0x0 DUP1 REVERT JUMPDEST CALLVALUE DUP1 ISZERO PUSH2 0x10F JUMPI PUSH1 0x0 DUP1 REVERT JUMPDEST POP PUSH1 0x2 SLOAD PUSH2 0x123 SWAP1 PUSH1 0x1 PUSH1 0x1 PUSH1 0xA0 SHL SUB AND DUP2 JUMP JUMPDEST PUSH1 0x40 MLOAD PUSH1 0x1 PUSH1 0x1 PUSH1 0xA0 SHL SUB SWAP1 SWAP2 AND DUP2 MSTORE PUSH1 0x20 ADD JUMPDEST PUSH1 0x40 MLOAD DUP1 SWAP2 SUB SWAP1 RETURN JUMPDEST CALLVALUE DUP1 ISZERO PUSH2 0x14C JUMPI PUSH1 0x0 DUP1 REVERT JUMPDEST POP PUSH2 0x155 PUSH2 0x321 JUMP JUMPDEST PUSH1 0x40 MLOAD PUSH2 0x137 SWAP5 SWAP4 SWAP3 SWAP2 SWAP1 PUSH2 0x11D1 JUMP JUMPDEST CALLVALUE DUP1 ISZERO PUSH2 0x171 JUMPI PUSH1 0x0 DUP1 REVERT JUMPDEST POP PUSH2 0x17A PUSH2 0x4F0 JUMP JUMPDEST PUSH1 0x40 MLOAD PUSH2 0x137 SWAP2 SWAP1 PUSH2 0x1222 JUMP JUMPDEST CALLVALUE DUP1 ISZERO PUSH2 0x193 JUMPI PUSH1 0x0 DUP1 REVERT JUMPDEST POP PUSH2 0x19C PUSH2 0x57E JUMP JUMPDEST STOP JUMPDEST CALLVALUE DUP1 ISZERO PUSH2 0x1AA JUMPI PUSH1 0x0 DUP1 REVERT JUMPDEST POP PUSH2 0x1B4 PUSH1 0x0 SLOAD DUP2 JUMP JUMPDEST PUSH1 0x40 MLOAD SWAP1 DUP2 MSTORE PUSH1 0x20 ADD PUSH2 0x137 JUMP JUMPDEST CALLVALUE DUP1 ISZERO PUSH2 0x1CE JUMPI PUSH1 0x0 DUP1 REVERT JUMPDEST POP PUSH2 0x19C PUSH2 0x69F JUMP JUMPDEST CALLVALUE DUP1 ISZERO PUSH2 0x1E3 JUMPI PUSH1 0x0 DUP1 REVERT JUMPDEST POP PUSH2 0x17A PUSH2 0x1F2 CALLDATASIZE PUSH1 0x4 PUSH2 0x123C JUMP JUMPDEST PUSH2 0x7D7 JUMP JUMPDEST CALLVALUE DUP1 ISZERO PUSH2 0x203 JUMPI PUSH1 0x0 DUP1 REVERT JUMPDEST POP PUSH1 0x1 SLOAD PUSH2 0x123 SWAP1 PUSH2 0x100 SWAP1 DIV PUSH1 0x1 PUSH1 0x1 PUSH1 0xA0 SHL SUB AND DUP2 JUMP JUMPDEST CALLVALUE DUP1 ISZERO PUSH2 0x228 JUMPI PUSH1 0x0 DUP1 REVERT JUMPDEST POP PUSH2 0x19C PUSH2 0x237 CALLDATASIZE PUSH1 0x4 PUSH2 0x126B JUMP JUMPDEST PUSH2 0x802 JUMP JUMPDEST PUSH2 0x19C PUSH2 0x24A CALLDATASIZE PUSH1 0x4 PUSH2 0x131C JUMP JUMPDEST PUSH2 0x931 JUMP JUMPDEST CALLVALUE DUP1 ISZERO PUSH2 0x25B JUMPI PUSH1 0x0 DUP1 REVERT JUMPDEST POP PUSH1 0x1 SLOAD PUSH2 0x269 SWAP1 PUSH1 0xFF AND DUP2 JUMP JUMPDEST PUSH1 0x40 MLOAD PUSH2 0x137 SWAP2 SWAP1 PUSH2 0x133E JUMP JUMPDEST PUSH2 0x19C PUSH2 0xAFE JUMP JUMPDEST CALLVALUE DUP1 ISZERO PUSH2 0x28A JUMPI PUSH1 0x0 DUP1 REVERT JUMPDEST POP PUSH2 0x19C PUSH2 0x299 CALLDATASIZE PUSH1 0x4 PUSH2 0x126B JUMP JUMPDEST PUSH2 0xC86 JUMP JUMPDEST CALLVALUE DUP1 ISZERO PUSH2 0x2AA JUMPI PUSH1 0x0 DUP1 REVERT JUMPDEST POP PUSH1 0x8 SLOAD PUSH2 0x2B8 SWAP1 PUSH1 0xFF AND DUP2 JUMP JUMPDEST PUSH1 0x40 MLOAD SWAP1 ISZERO ISZERO DUP2 MSTORE PUSH1 0x20 ADD PUSH2 0x137 JUMP JUMPDEST CALLVALUE DUP1 ISZERO PUSH2 0x2D4 JUMPI PUSH1 0x0 DUP1 REVERT JUMPDEST POP PUSH2 0x19C PUSH2 0x2E3 CALLDATASIZE PUSH1 0x4 PUSH2 0x126B JUMP JUMPDEST PUSH2 0xD88 JUMP JUMPDEST CALLVALUE DUP1 ISZERO PUSH2 0x2F4 JUMPI PUSH1 0x0 DUP1 REVERT JUMPDEST POP PUSH2 0x17A PUSH2 0xF45 JUMP JUMPDEST CALLVALUE DUP1 ISZERO PUSH2 0x309 JUMPI PUSH1 0x0 DUP1 REVERT JUMPDEST POP PUSH2 0x312 PUSH2 0xF52 JUMP JUMPDEST PUSH1 0x40 MLOAD PUSH2 0x137 SWAP4 SWAP3 SWAP2 SWAP1 PUSH2 0x1352 JUMP JUMPDEST PUSH1 0x0 PUSH1 0x60 DUP1 PUSH1 0x60 PUSH1 0x1 PUSH1 0x0 SWAP1 SLOAD SWAP1 PUSH2 0x100 EXP SWAP1 DIV PUSH1 0xFF AND PUSH1 0x9 PUSH1 0x6 PUSH1 0x7 DUP3 DUP1 SLOAD PUSH2 0x34A SWAP1 PUSH2 0x13DE JUMP JUMPDEST DUP1 PUSH1 0x1F ADD PUSH1 0x20 DUP1 SWAP2 DIV MUL PUSH1 0x20 ADD PUSH1 0x40 MLOAD SWAP1 DUP2 ADD PUSH1 0x40 MSTORE DUP1 SWAP3 SWAP2 SWAP1 DUP2 DUP2 MSTORE PUSH1 0x20 ADD DUP3 DUP1 SLOAD PUSH2 0x376 SWAP1 PUSH2 0x13DE JUMP JUMPDEST DUP1 ISZERO PUSH2 0x3C3 JUMPI DUP1 PUSH1 0x1F LT PUSH2 0x398 JUMPI PUSH2 0x100 DUP1 DUP4 SLOAD DIV MUL DUP4 MSTORE SWAP2 PUSH1 0x20 ADD SWAP2 PUSH2 0x3C3 JUMP JUMPDEST DUP3 ADD SWAP2 SWAP1 PUSH1 0x0 MSTORE PUSH1 0x20 PUSH1 0x0 KECCAK256 SWAP1 JUMPDEST DUP2 SLOAD DUP2 MSTORE SWAP1 PUSH1 0x1 ADD SWAP1 PUSH1 0x20 ADD DUP1 DUP4 GT PUSH2 0x3A6 JUMPI DUP3 SWAP1 SUB PUSH1 0x1F AND DUP3 ADD SWAP2 JUMPDEST POP POP POP POP POP SWAP3 POP DUP2 DUP1 SLOAD PUSH2 0x3D6 SWAP1 PUSH2 0x13DE JUMP JUMPDEST DUP1 PUSH1 0x1F ADD PUSH1 0x20 DUP1 SWAP2 DIV MUL PUSH1 0x20 ADD PUSH1 0x40 MLOAD SWAP1 DUP2 ADD PUSH1 0x40 MSTORE DUP1 SWAP3 SWAP2 SWAP1 DUP2 DUP2 MSTORE PUSH1 0x20 ADD DUP3 DUP1 SLOAD PUSH2 0x402 SWAP1 PUSH2 0x13DE JUMP JUMPDEST DUP1 ISZERO PUSH2 0x44F JUMPI DUP1 PUSH1 0x1F LT PUSH2 0x424 JUMPI PUSH2 0x100 DUP1 DUP4 SLOAD DIV MUL DUP4 MSTORE SWAP2 PUSH1 0x20 ADD SWAP2 PUSH2 0x44F JUMP JUMPDEST DUP3 ADD SWAP2 SWAP1 PUSH1 0x0 MSTORE PUSH1 0x20 PUSH1 0x0 KECCAK256 SWAP1 JUMPDEST DUP2 SLOAD DUP2 MSTORE SWAP1 PUSH1 0x1 ADD SWAP1 PUSH1 0x20 ADD DUP1 DUP4 GT PUSH2 0x432 JUMPI DUP3 SWAP1 SUB PUSH1 0x1F AND DUP3 ADD SWAP2 JUMPDEST POP POP POP POP POP SWAP2 POP DUP1 DUP1 SLOAD PUSH2 0x462 SWAP1 PUSH2 0x13DE JUMP JUMPDEST DUP1 PUSH1 0x1F ADD PUSH1 0x20 DUP1 SWAP2 DIV MUL PUSH1 0x20 ADD PUSH1 0x40 MLOAD SWAP1 DUP2 ADD PUSH1 0x40 MSTORE DUP1 SWAP3 SWAP2 SWAP1 DUP2 DUP2 MSTORE PUSH1 0x20 ADD DUP3 DUP1 SLOAD PUSH2 0x48E SWAP1 PUSH2 0x13DE JUMP JUMPDEST DUP1 ISZERO PUSH2 0x4DB JUMPI DUP1 PUSH1 0x1F LT PUSH2 0x4B0 JUMPI PUSH2 0x100 DUP1 DUP4 SLOAD DIV MUL DUP4 MSTORE SWAP2 PUSH1 0x20 ADD SWAP2 PUSH2 0x4DB JUMP JUMPDEST DUP3 ADD SWAP2 SWAP1 PUSH1 0x0 MSTORE PUSH1 0x20 PUSH1 0x0 KECCAK256 SWAP1 JUMPDEST DUP2 SLOAD DUP2 MSTORE SWAP1 PUSH1 0x1 ADD SWAP1 PUSH1 0x20 ADD DUP1 DUP4 GT PUSH2 0x4BE JUMPI DUP3 SWAP1 SUB PUSH1 0x1F AND DUP3 ADD SWAP2 JUMPDEST POP POP POP POP POP SWAP1 POP SWAP4 POP SWAP4 POP SWAP4 POP SWAP4 POP SWAP1 SWAP2 SWAP3 SWAP4 JUMP JUMPDEST PUSH1 0x6 DUP1 SLOAD PUSH2 0x4FD SWAP1 PUSH2 0x13DE JUMP JUMPDEST DUP1 PUSH1 0x1F ADD PUSH1 0x20 DUP1 SWAP2 DIV MUL PUSH1 0x20 ADD PUSH1 0x40 MLOAD SWAP1 DUP2 ADD PUSH1 0x40 MSTORE DUP1 SWAP3 SWAP2 SWAP1 DUP2 DUP2 MSTORE PUSH1 0x20 ADD DUP3 DUP1 SLOAD PUSH2 0x529 SWAP1 PUSH2 0x13DE JUMP JUMPDEST DUP1 ISZERO PUSH2 0x576 JUMPI DUP1 PUSH1 0x1F LT PUSH2 0x54B JUMPI PUSH2 0x100 DUP1 DUP4 SLOAD DIV MUL DUP4 MSTORE SWAP2 PUSH1 0x20 ADD SWAP2 PUSH2 0x576 JUMP JUMPDEST DUP3 ADD SWAP2 SWAP1 PUSH1 0x0 MSTORE PUSH1 0x20 PUSH1 0x0 KECCAK256 SWAP1 JUMPDEST DUP2 SLOAD DUP2 MSTORE SWAP1 PUSH1 0x1 ADD SWAP1 PUSH1 0x20 ADD DUP1 DUP4 GT PUSH2 0x559 JUMPI DUP3 SWAP1 SUB PUSH1 0x1F AND DUP3 ADD SWAP2 JUMPDEST POP POP POP POP POP DUP2 JUMP JUMPDEST PUSH1 0x1 SLOAD PUSH2 0x100 SWAP1 DIV PUSH1 0x1 PUSH1 0x1 PUSH1 0xA0 SHL SUB AND CALLER EQ PUSH2 0x5B6 JUMPI PUSH1 0x40 MLOAD PUSH3 0x461BCD PUSH1 0xE5 SHL DUP2 MSTORE PUSH1 0x4 ADD PUSH2 0x5AD SWAP1 PUSH2 0x1418 JUMP JUMPDEST PUSH1 0x40 MLOAD DUP1 SWAP2 SUB SWAP1 REVERT JUMPDEST PUSH1 0x1 DUP1 SLOAD PUSH1 0xFF AND PUSH1 0x4 DUP2 GT ISZERO PUSH2 0x5CE JUMPI PUSH2 0x5CE PUSH2 0x1153 JUMP JUMPDEST EQ PUSH2 0x625 JUMPI PUSH1 0x40 MLOAD PUSH3 0x461BCD PUSH1 0xE5 SHL DUP2 MSTORE PUSH1 0x20 PUSH1 0x4 DUP3 ADD MSTORE PUSH1 0x21 PUSH1 0x24 DUP3 ADD MSTORE PUSH32 0x43616E6E6F74206F70656E206469737075746520617420746869732073746167 PUSH1 0x44 DUP3 ADD MSTORE PUSH1 0x65 PUSH1 0xF8 SHL PUSH1 0x64 DUP3 ADD MSTORE PUSH1 0x84 ADD PUSH2 0x5AD JUMP JUMPDEST PUSH1 0x1 DUP1 SLOAD PUSH1 0xFF NOT SWAP1 DUP2 AND PUSH1 0x3 OR DUP3 SSTORE PUSH1 0x8 DUP1 SLOAD SWAP1 SWAP2 AND DUP3 OR SWAP1 SSTORE PUSH1 0x4 DUP1 SLOAD SWAP2 DUP3 ADD DUP2 SSTORE PUSH1 0x0 MSTORE PUSH1 0x40 DUP1 MLOAD DUP1 DUP3 ADD SWAP1 SWAP2 MSTORE PUSH1 0x1C DUP2 MSTORE PUSH32 0x44697370757465206F70656E6564206279207468652062757965722E00000000 PUSH1 0x20 DUP3 ADD MSTORE PUSH1 0x0 DUP1 MLOAD PUSH1 0x20 PUSH2 0x15F4 DUP4 CODECOPY DUP2 MLOAD SWAP2 MSTORE SWAP1 SWAP2 ADD SWAP1 PUSH2 0x69C SWAP1 DUP3 PUSH2 0x14A0 JUMP JUMPDEST POP JUMP JUMPDEST PUSH1 0x1 SLOAD PUSH2 0x100 SWAP1 DIV PUSH1 0x1 PUSH1 0x1 PUSH1 0xA0 SHL SUB AND CALLER EQ PUSH2 0x6CE JUMPI PUSH1 0x40 MLOAD PUSH3 0x461BCD PUSH1 0xE5 SHL DUP2 MSTORE PUSH1 0x4 ADD PUSH2 0x5AD SWAP1 PUSH2 0x1418 JUMP JUMPDEST PUSH1 0x1 DUP1 SLOAD PUSH1 0xFF AND PUSH1 0x4 DUP2 GT ISZERO PUSH2 0x6E6 JUMPI PUSH2 0x6E6 PUSH2 0x1153 JUMP JUMPDEST EQ PUSH2 0x733 JUMPI PUSH1 0x40 MLOAD PUSH3 0x461BCD PUSH1 0xE5 SHL DUP2 MSTORE PUSH1 0x20 PUSH1 0x4 DUP3 ADD MSTORE PUSH1 0x17 PUSH1 0x24 DUP3 ADD MSTORE PUSH32 0x43616E6E6F7420636F6E6669726D2064656C6976657279000000000000000000 PUSH1 0x44 DUP3 ADD MSTORE PUSH1 0x64 ADD PUSH2 0x5AD JUMP JUMPDEST PUSH1 0x2 SLOAD PUSH1 0x40 MLOAD PUSH1 0x1 PUSH1 0x1 PUSH1 0xA0 SHL SUB SWAP1 SWAP2 AND SWAP1 SELFBALANCE DUP1 ISZERO PUSH2 0x8FC MUL SWAP2 PUSH1 0x0 DUP2 DUP2 DUP2 DUP6 DUP9 DUP9 CALL SWAP4 POP POP POP POP ISZERO DUP1 ISZERO PUSH2 0x76C JUMPI RETURNDATASIZE PUSH1 0x0 DUP1 RETURNDATACOPY RETURNDATASIZE PUSH1 0x0 REVERT JUMPDEST POP PUSH1 0x1 DUP1 SLOAD PUSH1 0xFF NOT AND PUSH1 0x2 OR DUP2 SSTORE PUSH1 0x4 DUP1 SLOAD SWAP2 DUP3 ADD DUP2 SSTORE PUSH1 0x0 MSTORE PUSH1 0x40 DUP1 MLOAD DUP1 DUP3 ADD SWAP1 SWAP2 MSTORE PUSH1 0x1B DUP2 MSTORE PUSH32 0x4974656D207265636965766564206279207468652062757965722E0000000000 PUSH1 0x20 DUP3 ADD MSTORE PUSH1 0x0 DUP1 MLOAD PUSH1 0x20 PUSH2 0x15F4 DUP4 CODECOPY DUP2 MLOAD SWAP2 MSTORE SWAP1 SWAP2 ADD SWAP1 PUSH2 0x69C SWAP1 DUP3 PUSH2 0x14A0 JUMP JUMPDEST PUSH1 0x4 DUP2 DUP2 SLOAD DUP2 LT PUSH2 0x7E7 JUMPI PUSH1 0x0 DUP1 REVERT JUMPDEST SWAP1 PUSH1 0x0 MSTORE PUSH1 0x20 PUSH1 0x0 KECCAK256 ADD PUSH1 0x0 SWAP2 POP SWAP1 POP DUP1 SLOAD PUSH2 0x4FD SWAP1 PUSH2 0x13DE JUMP JUMPDEST PUSH1 0x1 SLOAD PUSH2 0x100 SWAP1 DIV PUSH1 0x1 PUSH1 0x1 PUSH1 0xA0 SHL SUB AND CALLER EQ PUSH2 0x831 JUMPI PUSH1 0x40 MLOAD PUSH3 0x461BCD PUSH1 0xE5 SHL DUP2 MSTORE PUSH1 0x4 ADD PUSH2 0x5AD SWAP1 PUSH2 0x1418 JUMP JUMPDEST PUSH1 0x3 PUSH1 0x1 SLOAD PUSH1 0xFF AND PUSH1 0x4 DUP2 GT ISZERO PUSH2 0x84A JUMPI PUSH2 0x84A PUSH2 0x1153 JUMP JUMPDEST EQ PUSH2 0x867 JUMPI PUSH1 0x40 MLOAD PUSH3 0x461BCD PUSH1 0xE5 SHL DUP2 MSTORE PUSH1 0x4 ADD PUSH2 0x5AD SWAP1 PUSH2 0x1560 JUMP JUMPDEST PUSH1 0x7 DUP1 SLOAD PUSH2 0x874 SWAP1 PUSH2 0x13DE JUMP JUMPDEST ISZERO SWAP1 POP PUSH2 0x8C3 JUMPI PUSH1 0x40 MLOAD PUSH3 0x461BCD PUSH1 0xE5 SHL DUP2 MSTORE PUSH1 0x20 PUSH1 0x4 DUP3 ADD DUP2 SWAP1 MSTORE PUSH1 0x24 DUP3 ADD MSTORE PUSH32 0x50726F6F6620616C7265616479207375626D6974746564206279206275796572 PUSH1 0x44 DUP3 ADD MSTORE PUSH1 0x64 ADD PUSH2 0x5AD JUMP JUMPDEST PUSH1 0x0 PUSH1 0x6 DUP1 SLOAD PUSH2 0x8D2 SWAP1 PUSH2 0x13DE JUMP JUMPDEST SWAP1 POP GT PUSH2 0x921 JUMPI PUSH1 0x40 MLOAD PUSH3 0x461BCD PUSH1 0xE5 SHL DUP2 MSTORE PUSH1 0x20 PUSH1 0x4 DUP3 ADD MSTORE PUSH1 0x1E PUSH1 0x24 DUP3 ADD MSTORE PUSH32 0x53656C6C6572206D757374207375626D69742070726F6F662066697273740000 PUSH1 0x44 DUP3 ADD MSTORE PUSH1 0x64 ADD PUSH2 0x5AD JUMP JUMPDEST PUSH1 0x7 PUSH2 0x92D DUP3 DUP3 PUSH2 0x14A0 JUMP JUMPDEST POP POP JUMP JUMPDEST PUSH1 0x3 SLOAD PUSH1 0x1 PUSH1 0x1 PUSH1 0xA0 SHL SUB AND CALLER EQ PUSH2 0x997 JUMPI PUSH1 0x40 MLOAD PUSH3 0x461BCD PUSH1 0xE5 SHL DUP2 MSTORE PUSH1 0x20 PUSH1 0x4 DUP3 ADD MSTORE PUSH1 0x24 DUP1 DUP3 ADD MSTORE PUSH32 0x4F6E6C792061726269747261746F722063616E2063616C6C2074686973206D65 PUSH1 0x44 DUP3 ADD MSTORE PUSH4 0x1D1A1BD9 PUSH1 0xE2 SHL PUSH1 0x64 DUP3 ADD MSTORE PUSH1 0x84 ADD PUSH2 0x5AD JUMP JUMPDEST PUSH1 0x3 PUSH1 0x1 SLOAD PUSH1 0xFF AND PUSH1 0x4 DUP2 GT ISZERO PUSH2 0x9B0 JUMPI PUSH2 0x9B0 PUSH2 0x1153 JUMP JUMPDEST EQ PUSH2 0x9CD JUMPI PUSH1 0x40 MLOAD PUSH3 0x461BCD PUSH1 0xE5 SHL DUP2 MSTORE PUSH1 0x4 ADD PUSH2 0x5AD SWAP1 PUSH2 0x1560 JUMP JUMPDEST DUP1 ISZERO PUSH2 0xA60 JUMPI PUSH1 0x1 SLOAD PUSH1 0x40 MLOAD PUSH1 0x1 PUSH1 0x1 PUSH1 0xA0 SHL SUB PUSH2 0x100 SWAP1 SWAP3 DIV SWAP2 SWAP1 SWAP2 AND SWAP1 SELFBALANCE DUP1 ISZERO PUSH2 0x8FC MUL SWAP2 PUSH1 0x0 DUP2 DUP2 DUP2 DUP6 DUP9 DUP9 CALL SWAP4 POP POP POP POP ISZERO DUP1 ISZERO PUSH2 0xA13 JUMPI RETURNDATASIZE PUSH1 0x0 DUP1 RETURNDATACOPY RETURNDATASIZE PUSH1 0x0 REVERT JUMPDEST POP PUSH1 0x4 DUP1 SLOAD PUSH1 0x1 DUP2 ADD DUP3 SSTORE PUSH1 0x0 SWAP2 DUP3 MSTORE PUSH1 0x40 DUP1 MLOAD PUSH1 0x60 DUP2 ADD SWAP1 SWAP2 MSTORE PUSH1 0x23 DUP1 DUP3 MSTORE PUSH1 0x0 DUP1 MLOAD PUSH1 0x20 PUSH2 0x15F4 DUP4 CODECOPY DUP2 MLOAD SWAP2 MSTORE SWAP1 SWAP3 ADD SWAP3 SWAP2 PUSH2 0x15D1 PUSH1 0x20 DUP4 ADD CODECOPY PUSH2 0xA5A SWAP2 POP DUP3 PUSH2 0x14A0 JUMP JUMPDEST POP PUSH2 0xAE2 JUMP JUMPDEST PUSH1 0x2 SLOAD PUSH1 0x40 MLOAD PUSH1 0x1 PUSH1 0x1 PUSH1 0xA0 SHL SUB SWAP1 SWAP2 AND SWAP1 SELFBALANCE DUP1 ISZERO PUSH2 0x8FC MUL SWAP2 PUSH1 0x0 DUP2 DUP2 DUP2 DUP6 DUP9 DUP9 CALL SWAP4 POP POP POP POP ISZERO DUP1 ISZERO PUSH2 0xA99 JUMPI RETURNDATASIZE PUSH1 0x0 DUP1 RETURNDATACOPY RETURNDATASIZE PUSH1 0x0 REVERT JUMPDEST POP PUSH1 0x4 DUP1 SLOAD PUSH1 0x1 DUP2 ADD DUP3 SSTORE PUSH1 0x0 SWAP2 DUP3 MSTORE PUSH1 0x40 DUP1 MLOAD PUSH1 0x60 DUP2 ADD SWAP1 SWAP2 MSTORE PUSH1 0x24 DUP1 DUP3 MSTORE PUSH1 0x0 DUP1 MLOAD PUSH1 0x20 PUSH2 0x15F4 DUP4 CODECOPY DUP2 MLOAD SWAP2 MSTORE SWAP1 SWAP3 ADD SWAP3 SWAP2 PUSH2 0x15AD PUSH1 0x20 DUP4 ADD CODECOPY PUSH2 0xAE0 SWAP2 POP DUP3 PUSH2 0x14A0 JUMP JUMPDEST POP JUMPDEST POP PUSH1 0x1 DUP1 SLOAD PUSH1 0xFF NOT SWAP1 DUP2 AND PUSH1 0x4 OR SWAP1 SWAP2 SSTORE PUSH1 0x8 DUP1 SLOAD SWAP1 SWAP2 AND SWAP1 SSTORE JUMP JUMPDEST PUSH1 0x0 PUSH1 0x1 SLOAD PUSH1 0xFF AND PUSH1 0x4 DUP2 GT ISZERO PUSH2 0xB17 JUMPI PUSH2 0xB17 PUSH2 0x1153 JUMP JUMPDEST EQ PUSH2 0xB98 JUMPI PUSH1 0x40 MLOAD PUSH3 0x461BCD PUSH1 0xE5 SHL DUP2 MSTORE PUSH1 0x20 PUSH1 0x4 DUP3 ADD MSTORE PUSH1 0x44 PUSH1 0x24 DUP3 ADD DUP2 SWAP1 MSTORE PUSH32 0x43616E6E6F7420726566756E642E204974656D2068617320616C726561647920 SWAP1 DUP3 ADD MSTORE PUSH32 0x6265656E2073686970706564206F7220697320696E20616E6F74686572207374 PUSH1 0x64 DUP3 ADD MSTORE PUSH4 0x30BA3297 PUSH1 0xE1 SHL PUSH1 0x84 DUP3 ADD MSTORE PUSH1 0xA4 ADD PUSH2 0x5AD JUMP JUMPDEST PUSH1 0x0 SLOAD PUSH2 0xBA6 SWAP1 PUSH1 0x3C PUSH2 0x158B JUMP JUMPDEST TIMESTAMP LT PUSH2 0xBF4 JUMPI PUSH1 0x40 MLOAD PUSH3 0x461BCD PUSH1 0xE5 SHL DUP2 MSTORE PUSH1 0x20 PUSH1 0x4 DUP3 ADD MSTORE PUSH1 0x1F PUSH1 0x24 DUP3 ADD MSTORE PUSH32 0x43616E63656C6C6174696F6E20706572696F6420686173207061737365642E00 PUSH1 0x44 DUP3 ADD MSTORE PUSH1 0x64 ADD PUSH2 0x5AD JUMP JUMPDEST PUSH1 0x1 SLOAD PUSH1 0x40 MLOAD PUSH1 0x1 PUSH1 0x1 PUSH1 0xA0 SHL SUB PUSH2 0x100 SWAP1 SWAP3 DIV SWAP2 SWAP1 SWAP2 AND SWAP1 SELFBALANCE DUP1 ISZERO PUSH2 0x8FC MUL SWAP2 PUSH1 0x0 DUP2 DUP2 DUP2 DUP6 DUP9 DUP9 CALL SWAP4 POP POP POP POP ISZERO DUP1 ISZERO PUSH2 0xC34 JUMPI RETURNDATASIZE PUSH1 0x0 DUP1 RETURNDATACOPY RETURNDATASIZE PUSH1 0x0 REVERT JUMPDEST POP PUSH1 0x1 DUP1 SLOAD PUSH1 0xFF NOT AND PUSH1 0x4 SWAP1 DUP2 OR DUP3 SSTORE DUP1 SLOAD SWAP2 DUP3 ADD DUP2 SSTORE PUSH1 0x0 SWAP1 DUP2 MSTORE PUSH1 0x40 DUP1 MLOAD PUSH1 0x60 DUP2 ADD SWAP1 SWAP2 MSTORE PUSH1 0x29 DUP1 DUP3 MSTORE PUSH1 0x0 DUP1 MLOAD PUSH1 0x20 PUSH2 0x15F4 DUP4 CODECOPY DUP2 MLOAD SWAP2 MSTORE SWAP1 SWAP4 ADD SWAP3 PUSH2 0x1614 PUSH1 0x20 DUP4 ADD CODECOPY PUSH2 0x69C SWAP2 POP DUP3 PUSH2 0x14A0 JUMP JUMPDEST PUSH1 0x2 SLOAD PUSH1 0x1 PUSH1 0x1 PUSH1 0xA0 SHL SUB AND CALLER EQ PUSH2 0xCE0 JUMPI PUSH1 0x40 MLOAD PUSH3 0x461BCD PUSH1 0xE5 SHL DUP2 MSTORE PUSH1 0x20 PUSH1 0x4 DUP3 ADD DUP2 SWAP1 MSTORE PUSH1 0x24 DUP3 ADD MSTORE PUSH32 0x4F6E6C792073656C6C65722063616E2063616C6C2074686973206D6574686F64 PUSH1 0x44 DUP3 ADD MSTORE PUSH1 0x64 ADD PUSH2 0x5AD JUMP JUMPDEST PUSH1 0x3 PUSH1 0x1 SLOAD PUSH1 0xFF AND PUSH1 0x4 DUP2 GT ISZERO PUSH2 0xCF9 JUMPI PUSH2 0xCF9 PUSH2 0x1153 JUMP JUMPDEST EQ PUSH2 0xD16 JUMPI PUSH1 0x40 MLOAD PUSH3 0x461BCD PUSH1 0xE5 SHL DUP2 MSTORE PUSH1 0x4 ADD PUSH2 0x5AD SWAP1 PUSH2 0x1560 JUMP JUMPDEST PUSH1 0x6 DUP1 SLOAD PUSH2 0xD23 SWAP1 PUSH2 0x13DE JUMP JUMPDEST ISZERO SWAP1 POP PUSH2 0xD7C JUMPI PUSH1 0x40 MLOAD PUSH3 0x461BCD PUSH1 0xE5 SHL DUP2 MSTORE PUSH1 0x20 PUSH1 0x4 DUP3 ADD MSTORE PUSH1 0x21 PUSH1 0x24 DUP3 ADD MSTORE PUSH32 0x50726F6F6620616C7265616479207375626D69747465642062792073656C6C65 PUSH1 0x44 DUP3 ADD MSTORE PUSH1 0x39 PUSH1 0xF9 SHL PUSH1 0x64 DUP3 ADD MSTORE PUSH1 0x84 ADD PUSH2 0x5AD JUMP JUMPDEST PUSH1 0x6 PUSH2 0x92D DUP3 DUP3 PUSH2 0x14A0 JUMP JUMPDEST PUSH1 0x2 SLOAD PUSH1 0x1 PUSH1 0x1 PUSH1 0xA0 SHL SUB AND CALLER EQ PUSH2 0xDE2 JUMPI PUSH1 0x40 MLOAD PUSH3 0x461BCD PUSH1 0xE5 SHL DUP2 MSTORE PUSH1 0x20 PUSH1 0x4 DUP3 ADD DUP2 SWAP1 MSTORE PUSH1 0x24 DUP3 ADD MSTORE PUSH32 0x4F6E6C792073656C6C65722063616E2063616C6C2074686973206D6574686F64 PUSH1 0x44 DUP3 ADD MSTORE PUSH1 0x64 ADD PUSH2 0x5AD JUMP JUMPDEST PUSH1 0x0 PUSH1 0x1 SLOAD PUSH1 0xFF AND PUSH1 0x4 DUP2 GT ISZERO PUSH2 0xDFB JUMPI PUSH2 0xDFB PUSH2 0x1153 JUMP JUMPDEST EQ PUSH2 0xE48 JUMPI PUSH1 0x40 MLOAD PUSH3 0x461BCD PUSH1 0xE5 SHL DUP2 MSTORE PUSH1 0x20 PUSH1 0x4 DUP3 ADD MSTORE PUSH1 0x1E PUSH1 0x24 DUP3 ADD MSTORE PUSH32 0x43616E6E6F7420736869702E20496E636F7272656374207374617475732E0000 PUSH1 0x44 DUP3 ADD MSTORE PUSH1 0x64 ADD PUSH2 0x5AD JUMP JUMPDEST PUSH1 0x0 SLOAD PUSH2 0xE56 SWAP1 PUSH1 0x3C PUSH2 0x158B JUMP JUMPDEST TIMESTAMP LT ISZERO PUSH2 0xECB JUMPI PUSH1 0x40 MLOAD PUSH3 0x461BCD PUSH1 0xE5 SHL DUP2 MSTORE PUSH1 0x20 PUSH1 0x4 DUP3 ADD MSTORE PUSH1 0x3D PUSH1 0x24 DUP3 ADD MSTORE PUSH32 0x43616E6E6F742073686970206265666F7265203135206D696E7574652063616E PUSH1 0x44 DUP3 ADD MSTORE PUSH32 0x63656C6C6174696F6E20706572696F642068617320656C61707365642E000000 PUSH1 0x64 DUP3 ADD MSTORE PUSH1 0x84 ADD PUSH2 0x5AD JUMP JUMPDEST PUSH1 0x1 DUP1 SLOAD PUSH1 0xFF NOT AND DUP2 OR SWAP1 SSTORE PUSH1 0x9 PUSH2 0xEE3 DUP3 DUP3 PUSH2 0x14A0 JUMP JUMPDEST POP PUSH1 0x4 DUP1 SLOAD PUSH1 0x1 DUP2 ADD DUP3 SSTORE PUSH1 0x0 SWAP2 SWAP1 SWAP2 MSTORE PUSH1 0x40 DUP1 MLOAD DUP1 DUP3 ADD SWAP1 SWAP2 MSTORE PUSH1 0x18 DUP2 MSTORE PUSH32 0x4974656D2073656E74206279207468652073656C6C65722E0000000000000000 PUSH1 0x20 DUP3 ADD MSTORE PUSH1 0x0 DUP1 MLOAD PUSH1 0x20 PUSH2 0x15F4 DUP4 CODECOPY DUP2 MLOAD SWAP2 MSTORE SWAP1 SWAP2 ADD SWAP1 PUSH2 0x92D SWAP1 DUP3 PUSH2 0x14A0 JUMP JUMPDEST PUSH1 0x7 DUP1 SLOAD PUSH2 0x4FD SWAP1 PUSH2 0x13DE JUMP JUMPDEST PUSH1 0x60 DUP1 PUSH1 0x60 PUSH1 0x4 PUSH1 0x6 PUSH1 0x7 DUP3 DUP1 SLOAD DUP1 PUSH1 0x20 MUL PUSH1 0x20 ADD PUSH1 0x40 MLOAD SWAP1 DUP2 ADD PUSH1 0x40 MSTORE DUP1 SWAP3 SWAP2 SWAP1 DUP2 DUP2 MSTORE PUSH1 0x20 ADD PUSH1 0x0 SWAP1 JUMPDEST DUP3 DUP3 LT ISZERO PUSH2 0x102A JUMPI DUP4 DUP3 SWAP1 PUSH1 0x0 MSTORE PUSH1 0x20 PUSH1 0x0 KECCAK256 ADD DUP1 SLOAD PUSH2 0xF9D SWAP1 PUSH2 0x13DE JUMP JUMPDEST DUP1 PUSH1 0x1F ADD PUSH1 0x20 DUP1 SWAP2 DIV MUL PUSH1 0x20 ADD PUSH1 0x40 MLOAD SWAP1 DUP2 ADD PUSH1 0x40 MSTORE DUP1 SWAP3 SWAP2 SWAP1 DUP2 DUP2 MSTORE PUSH1 0x20 ADD DUP3 DUP1 SLOAD PUSH2 0xFC9 SWAP1 PUSH2 0x13DE JUMP JUMPDEST DUP1 ISZERO PUSH2 0x1016 JUMPI DUP1 PUSH1 0x1F LT PUSH2 0xFEB JUMPI PUSH2 0x100 DUP1 DUP4 SLOAD DIV MUL DUP4 MSTORE SWAP2 PUSH1 0x20 ADD SWAP2 PUSH2 0x1016 JUMP JUMPDEST DUP3 ADD SWAP2 SWAP1 PUSH1 0x0 MSTORE PUSH1 0x20 PUSH1 0x0 KECCAK256 SWAP1 JUMPDEST DUP2 SLOAD DUP2 MSTORE SWAP1 PUSH1 0x1 ADD SWAP1 PUSH1 0x20 ADD DUP1 DUP4 GT PUSH2 0xFF9 JUMPI DUP3 SWAP1 SUB PUSH1 0x1F AND DUP3 ADD SWAP2 JUMPDEST POP POP POP POP POP DUP2 MSTORE PUSH1 0x20 ADD SWAP1 PUSH1 0x1 ADD SWAP1 PUSH2 0xF7E JUMP JUMPDEST POP POP POP POP SWAP3 POP DUP2 DUP1 SLOAD PUSH2 0x103C SWAP1 PUSH2 0x13DE JUMP JUMPDEST DUP1 PUSH1 0x1F ADD PUSH1 0x20 DUP1 SWAP2 DIV MUL PUSH1 0x20 ADD PUSH1 0x40 MLOAD SWAP1 DUP2 ADD PUSH1 0x40 MSTORE DUP1 SWAP3 SWAP2 SWAP1 DUP2 DUP2 MSTORE PUSH1 0x20 ADD DUP3 DUP1 SLOAD PUSH2 0x1068 SWAP1 PUSH2 0x13DE JUMP JUMPDEST DUP1 ISZERO PUSH2 0x10B5 JUMPI DUP1 PUSH1 0x1F LT PUSH2 0x108A JUMPI PUSH2 0x100 DUP1 DUP4 SLOAD DIV MUL DUP4 MSTORE SWAP2 PUSH1 0x20 ADD SWAP2 PUSH2 0x10B5 JUMP JUMPDEST DUP3 ADD SWAP2 SWAP1 PUSH1 0x0 MSTORE PUSH1 0x20 PUSH1 0x0 KECCAK256 SWAP1 JUMPDEST DUP2 SLOAD DUP2 MSTORE SWAP1 PUSH1 0x1 ADD SWAP1 PUSH1 0x20 ADD DUP1 DUP4 GT PUSH2 0x1098 JUMPI DUP3 SWAP1 SUB PUSH1 0x1F AND DUP3 ADD SWAP2 JUMPDEST POP POP POP POP POP SWAP2 POP DUP1 DUP1 SLOAD PUSH2 0x10C8 SWAP1 PUSH2 0x13DE JUMP JUMPDEST DUP1 PUSH1 0x1F ADD PUSH1 0x20 DUP1 SWAP2 DIV MUL PUSH1 0x20 ADD PUSH1 0x40 MLOAD SWAP1 DUP2 ADD PUSH1 0x40 MSTORE DUP1 SWAP3 SWAP2 SWAP1 DUP2 DUP2 MSTORE PUSH1 0x20 ADD DUP3 DUP1 SLOAD PUSH2 0x10F4 SWAP1 PUSH2 0x13DE JUMP JUMPDEST DUP1 ISZERO PUSH2 0x1141 JUMPI DUP1 PUSH1 0x1F LT PUSH2 0x1116 JUMPI PUSH2 0x100 DUP1 DUP4 SLOAD DIV MUL DUP4 MSTORE SWAP2 PUSH1 0x20 ADD SWAP2 PUSH2 0x1141 JUMP JUMPDEST DUP3 ADD SWAP2 SWAP1 PUSH1 0x0 MSTORE PUSH1 0x20 PUSH1 0x0 KECCAK256 SWAP1 JUMPDEST DUP2 SLOAD DUP2 MSTORE SWAP1 PUSH1 0x1 ADD SWAP1 PUSH1 0x20 ADD DUP1 DUP4 GT PUSH2 0x1124 JUMPI DUP3 SWAP1 SUB PUSH1 0x1F AND DUP3 ADD SWAP2 JUMPDEST POP POP POP POP POP SWAP1 POP SWAP3 POP SWAP3 POP SWAP3 POP SWAP1 SWAP2 SWAP3 JUMP JUMPDEST PUSH4 0x4E487B71 PUSH1 0xE0 SHL PUSH1 0x0 MSTORE PUSH1 0x21 PUSH1 0x4 MSTORE PUSH1 0x24 PUSH1 0x0 REVERT JUMPDEST PUSH1 0x5 DUP2 LT PUSH2 0x1187 JUMPI PUSH4 0x4E487B71 PUSH1 0xE0 SHL PUSH1 0x0 MSTORE PUSH1 0x21 PUSH1 0x4 MSTORE PUSH1 0x24 PUSH1 0x0 REVERT JUMPDEST SWAP1 MSTORE JUMP JUMPDEST PUSH1 0x0 DUP2 MLOAD DUP1 DUP5 MSTORE PUSH1 0x0 JUMPDEST DUP2 DUP2 LT ISZERO PUSH2 0x11B1 JUMPI PUSH1 0x20 DUP2 DUP6 ADD DUP2 ADD MLOAD DUP7 DUP4 ADD DUP3 ADD MSTORE ADD PUSH2 0x1195 JUMP JUMPDEST POP PUSH1 0x0 PUSH1 0x20 DUP3 DUP7 ADD ADD MSTORE PUSH1 0x20 PUSH1 0x1F NOT PUSH1 0x1F DUP4 ADD AND DUP6 ADD ADD SWAP2 POP POP SWAP3 SWAP2 POP POP JUMP JUMPDEST PUSH2 0x11DB DUP2 DUP7 PUSH2 0x1169 JUMP JUMPDEST PUSH1 0x80 PUSH1 0x20 DUP3 ADD MSTORE PUSH1 0x0 PUSH2 0x11F1 PUSH1 0x80 DUP4 ADD DUP7 PUSH2 0x118B JUMP JUMPDEST DUP3 DUP2 SUB PUSH1 0x40 DUP5 ADD MSTORE PUSH2 0x1203 DUP2 DUP7 PUSH2 0x118B JUMP JUMPDEST SWAP1 POP DUP3 DUP2 SUB PUSH1 0x60 DUP5 ADD MSTORE PUSH2 0x1217 DUP2 DUP6 PUSH2 0x118B JUMP JUMPDEST SWAP8 SWAP7 POP POP POP POP POP POP POP JUMP JUMPDEST PUSH1 0x20 DUP2 MSTORE PUSH1 0x0 PUSH2 0x1235 PUSH1 0x20 DUP4 ADD DUP5 PUSH2 0x118B JUMP JUMPDEST SWAP4 SWAP3 POP POP POP JUMP JUMPDEST PUSH1 0x0 PUSH1 0x20 DUP3 DUP5 SUB SLT ISZERO PUSH2 0x124E JUMPI PUSH1 0x0 DUP1 REVERT JUMPDEST POP CALLDATALOAD SWAP2 SWAP1 POP JUMP JUMPDEST PUSH4 0x4E487B71 PUSH1 0xE0 SHL PUSH1 0x0 MSTORE PUSH1 0x41 PUSH1 0x4 MSTORE PUSH1 0x24 PUSH1 0x0 REVERT JUMPDEST PUSH1 0x0 PUSH1 0x20 DUP3 DUP5 SUB SLT ISZERO PUSH2 0x127D JUMPI PUSH1 0x0 DUP1 REVERT JUMPDEST DUP2 CALLDATALOAD PUSH8 0xFFFFFFFFFFFFFFFF DUP1 DUP3 GT ISZERO PUSH2 0x1295 JUMPI PUSH1 0x0 DUP1 REVERT JUMPDEST DUP2 DUP5 ADD SWAP2 POP DUP5 PUSH1 0x1F DUP4 ADD SLT PUSH2 0x12A9 JUMPI PUSH1 0x0 DUP1 REVERT JUMPDEST DUP2 CALLDATALOAD DUP2 DUP2 GT ISZERO PUSH2 0x12BB JUMPI PUSH2 0x12BB PUSH2 0x1255 JUMP JUMPDEST PUSH1 0x40 MLOAD PUSH1 0x1F DUP3 ADD PUSH1 0x1F NOT SWAP1 DUP2 AND PUSH1 0x3F ADD AND DUP2 ADD SWAP1 DUP4 DUP3 GT DUP2 DUP4 LT OR ISZERO PUSH2 0x12E3 JUMPI PUSH2 0x12E3 PUSH2 0x1255 JUMP JUMPDEST DUP2 PUSH1 0x40 MSTORE DUP3 DUP2 MSTORE DUP8 PUSH1 0x20 DUP5 DUP8 ADD ADD GT ISZERO PUSH2 0x12FC JUMPI PUSH1 0x0 DUP1 REVERT JUMPDEST DUP3 PUSH1 0x20 DUP7 ADD PUSH1 0x20 DUP4 ADD CALLDATACOPY PUSH1 0x0 SWAP3 DUP2 ADD PUSH1 0x20 ADD SWAP3 SWAP1 SWAP3 MSTORE POP SWAP6 SWAP5 POP POP POP POP POP JUMP JUMPDEST PUSH1 0x0 PUSH1 0x20 DUP3 DUP5 SUB SLT ISZERO PUSH2 0x132E JUMPI PUSH1 0x0 DUP1 REVERT JUMPDEST DUP2 CALLDATALOAD DUP1 ISZERO ISZERO DUP2 EQ PUSH2 0x1235 JUMPI PUSH1 0x0 DUP1 REVERT JUMPDEST PUSH1 0x20 DUP2 ADD PUSH2 0x134C DUP3 DUP5 PUSH2 0x1169 JUMP JUMPDEST SWAP3 SWAP2 POP POP JUMP JUMPDEST PUSH1 0x0 PUSH1 0x60 DUP3 ADD PUSH1 0x60 DUP4 MSTORE DUP1 DUP7 MLOAD DUP1 DUP4 MSTORE PUSH1 0x80 DUP6 ADD SWAP2 POP PUSH1 0x80 DUP2 PUSH1 0x5 SHL DUP7 ADD ADD SWAP3 POP PUSH1 0x20 DUP1 DUP10 ADD PUSH1 0x0 JUMPDEST DUP4 DUP2 LT ISZERO PUSH2 0x13A9 JUMPI PUSH1 0x7F NOT DUP9 DUP8 SUB ADD DUP6 MSTORE PUSH2 0x1397 DUP7 DUP4 MLOAD PUSH2 0x118B JUMP JUMPDEST SWAP6 POP SWAP4 DUP3 ADD SWAP4 SWAP1 DUP3 ADD SWAP1 PUSH1 0x1 ADD PUSH2 0x137B JUMP JUMPDEST POP POP POP POP POP DUP3 DUP2 SUB PUSH1 0x20 DUP5 ADD MSTORE PUSH2 0x13C0 DUP2 DUP7 PUSH2 0x118B JUMP JUMPDEST SWAP1 POP DUP3 DUP2 SUB PUSH1 0x40 DUP5 ADD MSTORE PUSH2 0x13D4 DUP2 DUP6 PUSH2 0x118B JUMP JUMPDEST SWAP7 SWAP6 POP POP POP POP POP POP JUMP JUMPDEST PUSH1 0x1 DUP2 DUP2 SHR SWAP1 DUP3 AND DUP1 PUSH2 0x13F2 JUMPI PUSH1 0x7F DUP3 AND SWAP2 POP JUMPDEST PUSH1 0x20 DUP3 LT DUP2 SUB PUSH2 0x1412 JUMPI PUSH4 0x4E487B71 PUSH1 0xE0 SHL PUSH1 0x0 MSTORE PUSH1 0x22 PUSH1 0x4 MSTORE PUSH1 0x24 PUSH1 0x0 REVERT JUMPDEST POP SWAP2 SWAP1 POP JUMP JUMPDEST PUSH1 0x20 DUP1 DUP3 MSTORE PUSH1 0x1F SWAP1 DUP3 ADD MSTORE PUSH32 0x4F6E6C792062757965722063616E2063616C6C2074686973206D6574686F6400 PUSH1 0x40 DUP3 ADD MSTORE PUSH1 0x60 ADD SWAP1 JUMP JUMPDEST PUSH1 0x1F DUP3 GT ISZERO PUSH2 0x149B JUMPI PUSH1 0x0 DUP2 PUSH1 0x0 MSTORE PUSH1 0x20 PUSH1 0x0 KECCAK256 PUSH1 0x1F DUP6 ADD PUSH1 0x5 SHR DUP2 ADD PUSH1 0x20 DUP7 LT ISZERO PUSH2 0x1478 JUMPI POP DUP1 JUMPDEST PUSH1 0x1F DUP6 ADD PUSH1 0x5 SHR DUP3 ADD SWAP2 POP JUMPDEST DUP2 DUP2 LT ISZERO PUSH2 0x1497 JUMPI DUP3 DUP2 SSTORE PUSH1 0x1 ADD PUSH2 0x1484 JUMP JUMPDEST POP POP POP JUMPDEST POP POP POP JUMP JUMPDEST DUP2 MLOAD PUSH8 0xFFFFFFFFFFFFFFFF DUP2 GT ISZERO PUSH2 0x14BA JUMPI PUSH2 0x14BA PUSH2 0x1255 JUMP JUMPDEST PUSH2 0x14CE DUP2 PUSH2 0x14C8 DUP5 SLOAD PUSH2 0x13DE JUMP JUMPDEST DUP5 PUSH2 0x144F JUMP JUMPDEST PUSH1 0x20 DUP1 PUSH1 0x1F DUP4 GT PUSH1 0x1 DUP2 EQ PUSH2 0x1503 JUMPI PUSH1 0x0 DUP5 ISZERO PUSH2 0x14EB JUMPI POP DUP6 DUP4 ADD MLOAD JUMPDEST PUSH1 0x0 NOT PUSH1 0x3 DUP7 SWAP1 SHL SHR NOT AND PUSH1 0x1 DUP6 SWAP1 SHL OR DUP6 SSTORE PUSH2 0x1497 JUMP JUMPDEST PUSH1 0x0 DUP6 DUP2 MSTORE PUSH1 0x20 DUP2 KECCAK256 PUSH1 0x1F NOT DUP7 AND SWAP2 JUMPDEST DUP3 DUP2 LT ISZERO PUSH2 0x1532 JUMPI DUP9 DUP7 ADD MLOAD DUP3 SSTORE SWAP5 DUP5 ADD SWAP5 PUSH1 0x1 SWAP1 SWAP2 ADD SWAP1 DUP5 ADD PUSH2 0x1513 JUMP JUMPDEST POP DUP6 DUP3 LT ISZERO PUSH2 0x1550 JUMPI DUP8 DUP6 ADD MLOAD PUSH1 0x0 NOT PUSH1 0x3 DUP9 SWAP1 SHL PUSH1 0xF8 AND SHR NOT AND DUP2 SSTORE JUMPDEST POP POP POP POP POP PUSH1 0x1 SWAP1 DUP2 SHL ADD SWAP1 SSTORE POP JUMP JUMPDEST PUSH1 0x20 DUP1 DUP3 MSTORE PUSH1 0x11 SWAP1 DUP3 ADD MSTORE PUSH17 0x4E6F206163746976652064697370757465 PUSH1 0x78 SHL PUSH1 0x40 DUP3 ADD MSTORE PUSH1 0x60 ADD SWAP1 JUMP JUMPDEST DUP1 DUP3 ADD DUP1 DUP3 GT ISZERO PUSH2 0x134C JUMPI PUSH4 0x4E487B71 PUSH1 0xE0 SHL PUSH1 0x0 MSTORE PUSH1 0x11 PUSH1 0x4 MSTORE PUSH1 0x24 PUSH1 0x0 REVERT INVALID PREVRANDAO PUSH10 0x737075746520636C6F73 PUSH6 0x642E2053656C PUSH13 0x65722077617320726566756E64 PUSH6 0x642E44697370 PUSH22 0x746520636C6F7365642E204275796572207761732072 PUSH6 0x66756E646564 0x2E DUP11 CALLDATALOAD 0xAC 0xFB 0xC1 PUSH0 0xF8 BYTE CODECOPY 0xAE PUSH30 0x344FD709F28E8600B4AA8C65C6B64BFE7FE36BD19B4974656D2063616E63 PUSH6 0x6C6C65642061 PUSH15 0x6420726566756E64656420746F2074 PUSH9 0x652062757965722EA2 PUSH5 0x6970667358 0x22 SLT KECCAK256 0xB1 SELFDESTRUCT BALANCE CALLCODE DUP9 0xD9 MSIZE MCOPY 0xC5 MSTORE 0xE1 0xC4 0xB4 0xAD 0xA9 BYTE COINBASE PUSH25 0xBDE62F8A4F78A2332D31C507424464736F6C63430008180033 LOG2 PUSH5 0x6970667358 0x22 SLT KECCAK256 SGT 0xFC 0xED PUSH17 0xB5CAC64A49F5D0A37543B7B127920B6623 BLOCKHASH 0xAD 0xEC 0xF8 0x28 PC 0xBC 0xAF 0xF PUSH3 0xC66473 PUSH16 0x6C634300081800330000000000000000 "},"gasEstimates":{"creation":{"codeDepositCost":"4061200","executionCost":"4648","totalCost":"4065848"},"external":{"addItem(string,string,uint256,string)":"infinite","browseItems()":"infinite","cancelItem(uint256,address,bool,bool)":"infinite","deleteItem(uint256)":"infinite","editItem(uint256,string,string,uint256,string)":"infinite","getItemsWithDispute()":"infinite","itemsCount()":"2405","myPurchases()":"infinite","mySales()":"infinite","purchaseItem(uint256,address)":"infinite","retrieveUserItems()":"infinite","shipItem(uint256,string)":"infinite"}},"methodIdentifiers":{"addItem(string,string,uint256,string)":"13df81d6","browseItems()":"dbc37670","cancelItem(uint256,address,bool,bool)":"ba301541","deleteItem(uint256)":"654fc833","editItem(uint256,string,string,uint256,string)":"0461459a","getItemsWithDispute()":"b24db86f","itemsCount()":"e2c03ace","myPurchases()":"8af8a986","mySales()":"38f5234f","purchaseItem(uint256,address)":"7bfe9efd","retrieveUserItems()":"9ab7e23b","shipItem(uint256,string)":"4d25ce47"}},"storageLayout":{"storage":[{"astId":461,"contract":"contracts/Item.sol:Item","label":"items","offset":0,"slot":"0","type":"t_mapping(t_address,t_array(t_struct(ItemStruct)455_storage)dyn_storage)"},{"astId":463,"contract":"contracts/Item.sol:Item","label":"itemsCount","offset":0,"slot":"1","type":"t_uint256"},{"astId":466,"contract":"contracts/Item.sol:Item","label":"sellers","offset":0,"slot":"2","type":"t_array(t_address)dyn_storage"}],"types":{"t_address":{"encoding":"inplace","label":"address","numberOfBytes":"20"},"t_array(t_address)dyn_storage":{"base":"t_address","encoding":"dynamic_array","label":"address[]","numberOfBytes":"32"},"t_array(t_struct(ItemStruct)455_storage)dyn_storage":{"base":"t_struct(ItemStruct)455_storage","encoding":"dynamic_array","label":"struct Item.ItemStruct[]","numberOfBytes":"32"},"t_bool":{"encoding":"inplace","label":"bool","numberOfBytes":"1"},"t_contract(Escrow)429":{"encoding":"inplace","label":"contract Escrow","numberOfBytes":"20"},"t_mapping(t_address,t_array(t_struct(ItemStruct)455_storage)dyn_storage)":{"encoding":"mapping","key":"t_address","label":"mapping(address => struct Item.ItemStruct[])","numberOfBytes":"32","value":"t_array(t_struct(ItemStruct)455_storage)dyn_storage"},"t_string_storage":{"encoding":"bytes","label":"string","numberOfBytes":"32"},"t_struct(ItemStruct)455_storage":{"encoding":"inplace","label":"struct Item.ItemStruct","members":[{"astId":435,"contract":"contracts/Item.sol:Item","label":"itemId","offset":0,"slot":"0","type":"t_uint256"},{"astId":437,"contract":"contracts/Item.sol:Item","label":"title","offset":0,"slot":"1","type":"t_string_storage"},{"astId":439,"contract":"contracts/Item.sol:Item","label":"description","offset":0,"slot":"2","type":"t_string_storage"},{"astId":441,"contract":"contracts/Item.sol:Item","label":"price","offset":0,"slot":"3","type":"t_uint256"},{"astId":443,"contract":"contracts/Item.sol:Item","label":"image","offset":0,"slot":"4","type":"t_string_storage"},{"astId":445,"contract":"contracts/Item.sol:Item","label":"createdAt","offset":0,"slot":"5","type":"t_uint256"},{"astId":447,"contract":"contracts/Item.sol:Item","label":"buyer","offset":0,"slot":"6","type":"t_address"},{"astId":449,"contract":"contracts/Item.sol:Item","label":"hasBuyer","offset":20,"slot":"6","type":"t_bool"},{"astId":452,"contract":"contracts/Item.sol:Item","label":"escrow","offset":0,"slot":"7","type":"t_contract(Escrow)429"},{"astId":454,"contract":"contracts/Item.sol:Item","label":"seller","offset":0,"slot":"8","type":"t_address"}],"numberOfBytes":"288"},"t_uint256":{"encoding":"inplace","label":"uint256","numberOfBytes":"32"}}},"userdoc":{"kind":"user","methods":{},"version":1}}}}