{"contracts/Item.sol":{"Item":{"abi":[{"anonymous":false,"inputs":[{"indexed":false,"internalType":"uint256","name":"itemId","type":"uint256"},{"indexed":false,"internalType":"address","name":"buyer","type":"address"}],"name":"ItemCancelled","type":"event"},{"anonymous":false,"inputs":[{"indexed":false,"internalType":"uint256","name":"balance","type":"uint256"}],"name":"print_balance","type":"event"},{"anonymous":false,"inputs":[{"indexed":false,"internalType":"uint256","name":"balance","type":"uint256"}],"name":"print_seller_balance","type":"event"},{"inputs":[{"internalType":"string","name":"_title","type":"string"},{"internalType":"string","name":"_description","type":"string"},{"internalType":"uint256","name":"_price","type":"uint256"},{"internalType":"string","name":"_image","type":"string"}],"name":"addItem","outputs":[],"stateMutability":"nonpayable","type":"function"},{"inputs":[],"name":"browseItems","outputs":[{"components":[{"internalType":"uint256","name":"itemId","type":"uint256"},{"internalType":"string","name":"title","type":"string"},{"internalType":"string","name":"description","type":"string"},{"internalType":"uint256","name":"price","type":"uint256"},{"internalType":"string","name":"image","type":"string"},{"internalType":"uint256","name":"createdAt","type":"uint256"},{"internalType":"address","name":"buyer","type":"address"},{"internalType":"bool","name":"hasBuyer","type":"bool"},{"internalType":"contract Escrow","name":"escrow","type":"address"},{"internalType":"address","name":"seller","type":"address"}],"internalType":"struct Item.ItemStruct[]","name":"","type":"tuple[]"}],"stateMutability":"view","type":"function"},{"inputs":[{"internalType":"uint256","name":"_itemId","type":"uint256"},{"internalType":"address","name":"_seller","type":"address"},{"internalType":"bool","name":"cancel","type":"bool"},{"internalType":"bool","name":"refundBuyer","type":"bool"}],"name":"cancelItem","outputs":[],"stateMutability":"payable","type":"function"},{"inputs":[{"internalType":"uint256","name":"_itemId","type":"uint256"}],"name":"deleteItem","outputs":[],"stateMutability":"nonpayable","type":"function"},{"inputs":[{"internalType":"uint256","name":"_itemId","type":"uint256"},{"internalType":"string","name":"_title","type":"string"},{"internalType":"string","name":"_description","type":"string"},{"internalType":"uint256","name":"_price","type":"uint256"},{"internalType":"string","name":"_image","type":"string"}],"name":"editItem","outputs":[],"stateMutability":"nonpayable","type":"function"},{"inputs":[],"name":"getItemsWithDispute","outputs":[{"components":[{"internalType":"uint256","name":"itemId","type":"uint256"},{"internalType":"string","name":"title","type":"string"},{"internalType":"string","name":"description","type":"string"},{"internalType":"uint256","name":"price","type":"uint256"},{"internalType":"string","name":"image","type":"string"},{"internalType":"uint256","name":"createdAt","type":"uint256"},{"internalType":"address","name":"buyer","type":"address"},{"internalType":"bool","name":"hasBuyer","type":"bool"},{"internalType":"contract Escrow","name":"escrow","type":"address"},{"internalType":"address","name":"seller","type":"address"}],"internalType":"struct Item.ItemStruct[]","name":"","type":"tuple[]"}],"stateMutability":"view","type":"function"},{"inputs":[],"name":"itemsCount","outputs":[{"internalType":"uint256","name":"","type":"uint256"}],"stateMutability":"view","type":"function"},{"inputs":[],"name":"myPurchases","outputs":[{"components":[{"internalType":"uint256","name":"itemId","type":"uint256"},{"internalType":"string","name":"title","type":"string"},{"internalType":"string","name":"description","type":"string"},{"internalType":"uint256","name":"price","type":"uint256"},{"internalType":"string","name":"image","type":"string"},{"internalType":"uint256","name":"createdAt","type":"uint256"},{"internalType":"address","name":"buyer","type":"address"},{"internalType":"bool","name":"hasBuyer","type":"bool"},{"internalType":"contract Escrow","name":"escrow","type":"address"},{"internalType":"address","name":"seller","type":"address"}],"internalType":"struct Item.ItemStruct[]","name":"","type":"tuple[]"}],"stateMutability":"view","type":"function"},{"inputs":[],"name":"mySales","outputs":[{"components":[{"internalType":"uint256","name":"itemId","type":"uint256"},{"internalType":"string","name":"title","type":"string"},{"internalType":"string","name":"description","type":"string"},{"internalType":"uint256","name":"price","type":"uint256"},{"internalType":"string","name":"image","type":"string"},{"internalType":"uint256","name":"createdAt","type":"uint256"},{"internalType":"address","name":"buyer","type":"address"},{"internalType":"bool","name":"hasBuyer","type":"bool"},{"internalType":"contract Escrow","name":"escrow","type":"address"},{"internalType":"address","name":"seller","type":"address"}],"internalType":"struct Item.ItemStruct[]","name":"","type":"tuple[]"}],"stateMutability":"view","type":"function"},{"inputs":[{"internalType":"uint256","name":"_itemId","type":"uint256"},{"internalType":"address","name":"_seller","type":"address"}],"name":"purchaseItem","outputs":[],"stateMutability":"payable","type":"function"},{"inputs":[],"name":"retrieveUserItems","outputs":[{"components":[{"internalType":"uint256","name":"itemId","type":"uint256"},{"internalType":"string","name":"title","type":"string"},{"internalType":"string","name":"description","type":"string"},{"internalType":"uint256","name":"price","type":"uint256"},{"internalType":"string","name":"image","type":"string"},{"internalType":"uint256","name":"createdAt","type":"uint256"},{"internalType":"address","name":"buyer","type":"address"},{"internalType":"bool","name":"hasBuyer","type":"bool"},{"internalType":"contract Escrow","name":"escrow","type":"address"},{"internalType":"address","name":"seller","type":"address"}],"internalType":"struct Item.ItemStruct[]","name":"","type":"tuple[]"}],"stateMutability":"view","type":"function"},{"inputs":[{"internalType":"uint256","name":"_itemId","type":"uint256"},{"internalType":"string","name":"tracking","type":"string"}],"name":"shipItem","outputs":[],"stateMutability":"nonpayable","type":"function"}],"devdoc":{"kind":"dev","methods":{},"version":1},"evm":{"bytecode":{"linkReferences":{},"object":"608060405234801561001057600080fd5b506151f3806100206000396000f3fe608060405260043610620000b55760003560e01c80638af8a986116200006c5780638af8a98614620001975780639ab7e23b14620001af578063b24db86f14620001c7578063ba30154114620001df578063dbc3767014620001f6578063e2c03ace146200020e57600080fd5b80630461459a14620000ba57806313df81d614620000e157806338f5234f14620001065780634d25ce471462000136578063654fc833146200015b5780637bfe9efd1462000180575b600080fd5b348015620000c757600080fd5b50620000df620000d936600462002f13565b62000235565b005b348015620000ee57600080fd5b50620000df6200010036600462002fb9565b62000463565b3480156200011357600080fd5b506200011e62000640565b6040516200012d91906200309d565b60405180910390f35b3480156200014357600080fd5b50620000df62000155366004620031b6565b620009fb565b3480156200016857600080fd5b50620000df6200017a36600462003201565b62000cf1565b620000df6200019136600462003238565b62000ff7565b348015620001a457600080fd5b506200011e62001457565b348015620001bc57600080fd5b506200011e620018c2565b348015620001d457600080fd5b506200011e62001b5f565b620000df620001f036600462003278565b62002116565b3480156200020357600080fd5b506200011e62002790565b3480156200021b57600080fd5b506200022660015481565b6040519081526020016200012d565b6000851180156200024857506001548511155b6200028c5760405162461bcd60e51b815260206004820152600f60248201526e125b9d985b1a59081a5d195b481251608a1b60448201526064015b60405180910390fd5b33600090815260208190526040812090805b82548110156200040a5787838281548110620002be57620002be620032cc565b90600052602060002090600902016000015403620004015760019150828181548110620002ef57620002ef620032cc565b906000526020600020906009020160060160149054906101000a900460ff16156200032e5760405162461bcd60e51b81526004016200028390620032e2565b86838281548110620003445762000344620032cc565b9060005260206000209060090201600101908162000363919062003395565b50858382815481106200037a576200037a620032cc565b9060005260206000209060090201600201908162000399919062003395565b5084838281548110620003b057620003b0620032cc565b90600052602060002090600902016003018190555083838281548110620003db57620003db620032cc565b90600052602060002090600902016004019081620003fa919062003395565b506200040a565b6001016200029e565b50806200045a5760405162461bcd60e51b815260206004820152601e60248201527f4974656d20646f6573206e6f742062656c6f6e6720746f2073656e6465720000604482015260640162000283565b50505050505050565b620004936040518060400160405280600c81526020016b50726963652069733a20257360a01b8152508362002c71565b336000908152602081905260408120549003620004ed57600280546001810182556000919091527f405787fa12a823e0f2b7631cc41b3ba8828b3321ca811111fa75cd3aa3bb5ace0180546001600160a01b031916331790555b60018054906000620004ff8362003478565b9091555050336000818152602081815260408083208151610140810183526001805482528185018b81529382018a905260608201899052608082018890524260a083015260c0820186905260e082018690526101008201869052610120820196909652815480870183559185529290932082516009909402019283555190928201906200058d908262003395565b5060408201516002820190620005a4908262003395565b506060820151600382015560808201516004820190620005c5908262003395565b5060a0820151600582015560c082015160068201805460e08501511515600160a01b026001600160a81b03199091166001600160a01b03938416171790556101008301516007830180549183166001600160a01b03199283161790556101209093015160089092018054929091169190921617905550505050565b336000908152602081905260408120606091908190815b8154811015620006b457818181548110620006765762000676620032cc565b906000526020600020906009020160060160149054906101000a900460ff1615620006ab5783620006a78162003478565b9450505b60010162000657565b5060008367ffffffffffffffff811115620006d357620006d362002e68565b6040519080825280602002602001820160405280156200071057816020015b620006fc62002d90565b815260200190600190039081620006f25790505b50905060005b8254811015620009f257828181548110620007355762000735620032cc565b906000526020600020906009020160060160149054906101000a900460ff1615620009e9578281815481106200076f576200076f620032cc565b90600052602060002090600902016040518061014001604052908160008201548152602001600182018054620007a5906200330d565b80601f0160208091040260200160405190810160405280929190818152602001828054620007d3906200330d565b8015620008245780601f10620007f85761010080835404028352916020019162000824565b820191906000526020600020905b8154815290600101906020018083116200080657829003601f168201915b505050505081526020016002820180546200083f906200330d565b80601f01602080910402602001604051908101604052809291908181526020018280546200086d906200330d565b8015620008be5780601f106200089257610100808354040283529160200191620008be565b820191906000526020600020905b815481529060010190602001808311620008a057829003601f168201915b5050505050815260200160038201548152602001600482018054620008e3906200330d565b80601f016020809104026020016040519081016040528092919081815260200182805462000911906200330d565b8015620009625780601f10620009365761010080835404028352916020019162000962565b820191906000526020600020905b8154815290600101906020018083116200094457829003601f168201915b50505091835250506005820154602082015260068201546001600160a01b038082166040840152600160a01b90910460ff161515606083015260078301548116608083015260089092015490911660a0909101528251839086908110620009cd57620009cd620032cc565b60200260200101819052508380620009e59062003478565b9450505b60010162000716565b50949350505050565b3360009081526020819052604081209080805b835481101562000a5c578584828154811062000a2e5762000a2e620032cc565b9060005260206000209060090201600001540362000a53576001925080915062000a5c565b60010162000a0e565b508162000a7d5760405162461bcd60e51b8152600401620002839062003494565b82818154811062000a925762000a92620032cc565b906000526020600020906009020160060160149054906101000a900460ff1662000aff5760405162461bcd60e51b815260206004820152601b60248201527f4974656d20686173206e6f74206265656e207075726368617365640000000000604482015260640162000283565b82818154811062000b145762000b14620032cc565b60009182526020909120600990910201600801546001600160a01b0316331462000b815760405162461bcd60e51b815260206004820152601e60248201527f4f6e6c792073656c6c65722063616e20736869702074686973206974656d0000604482015260640162000283565b82818154811062000b965762000b96620032cc565b6000918252602090912060076009909202010154604051636e9fd09b60e11b81526001600160a01b039091169063dd3fa1369062000bd9908790600401620034bc565b600060405180830381600087803b15801562000bf457600080fd5b505af115801562000c09573d6000803e3d6000fd5b5050505062000cea6040518060600160405280602d815260200162005191602d913984838154811062000c405762000c40620032cc565b9060005260206000209060090201600101805462000c5e906200330d565b80601f016020809104026020016040519081016040528092919081815260200182805462000c8c906200330d565b801562000cdd5780601f1062000cb15761010080835404028352916020019162000cdd565b820191906000526020600020905b81548152906001019060200180831162000cbf57829003601f168201915b5050505050338762002cbe565b5050505050565b3360009081526020819052604081209080805b835481101562000da6578484828154811062000d245762000d24620032cc565b9060005260206000209060090201600001540362000d9d5783818154811062000d515762000d51620032cc565b906000526020600020906009020160060160149054906101000a900460ff161562000d905760405162461bcd60e51b81526004016200028390620032e2565b6001925080915062000da6565b60010162000d04565b508162000dec5760405162461bcd60e51b8152602060048201526013602482015272125d195b48191bd95cc81b9bdd08195e1a5cdd606a1b604482015260640162000283565b825460009062000dff90600190620034d1565b905080821462000f4e5783818154811062000e1e5762000e1e620032cc565b906000526020600020906009020184838154811062000e415762000e41620032cc565b60009182526020909120825460099092020190815560018082019062000e6a90840182620034ed565b5060028181019062000e7f90840182620034ed565b50600382015481600301556004820181600401908162000ea09190620034ed565b50600582810154908201556006808301805491830180546001600160a01b03198082166001600160a01b039586169081178455935460ff600160a01b91829004161515026001600160a81b03199092169093171790556007808501549084018054831691841691909117905560089384015493909201805490921692169190911790558354859085908490811062000f3c5762000f3c620032cc565b60009182526020909120600990910201555b8380548062000f615762000f61620035cf565b6000828152602081206009600019909301928302018181559062000f89600183018262002e00565b62000f9960028301600062002e00565b600382016000905560048201600062000fb3919062002e00565b50600060058201556006810180546001600160a81b03191690556007810180546001600160a01b031990811690915560089091018054909116905590555050505050565b6000821180156200100a57506001548211155b6200104a5760405162461bcd60e51b815260206004820152600f60248201526e125b9d985b1a59081a5d195b481251608a1b604482015260640162000283565b6001600160a01b03811660009081526020819052604081209080805b8354811015620010b45785848281548110620010865762001086620032cc565b90600052602060002090600902016000015403620010ab5760019250809150620010b4565b60010162001066565b5081620010d55760405162461bcd60e51b8152600401620002839062003494565b828181548110620010ea57620010ea620032cc565b906000526020600020906009020160060160149054906101000a900460ff1615620011295760405162461bcd60e51b81526004016200028390620032e2565b836001600160a01b0316838281548110620011485762001148620032cc565b60009182526020909120600860099092020101546001600160a01b031614620011b45760405162461bcd60e51b815260206004820152601b60248201527f4f776e65722063616e206e6f742062757920746865206974656d2e0000000000604482015260640162000283565b828181548110620011c957620011c9620032cc565b9060005260206000209060090201600301543414620012375760405162461bcd60e51b815260206004820152602360248201527f496e636f727265637420616d6f756e74206f662065746865722f776569207365604482015262373a1760e91b606482015260840162000283565b60003433866040516200124a9062002e3f565b6001600160a01b039283168152911660208201526040016040518091039082f09050801580156200127f573d6000803e3d6000fd5b50905033848381548110620012985762001298620032cc565b906000526020600020906009020160060160006101000a8154816001600160a01b0302191690836001600160a01b031602179055506001848381548110620012e457620012e4620032cc565b906000526020600020906009020160060160146101000a81548160ff02191690831515021790555080848381548110620013225762001322620032cc565b906000526020600020906009020160070160006101000a8154816001600160a01b0302191690836001600160a01b031602179055506200144f6040518060400160405280601881526020017f4974656d207075726368617365643a2025732062792025730000000000000000815250858481548110620013a657620013a6620032cc565b90600052602060002090600902016001018054620013c4906200330d565b80601f0160208091040260200160405190810160405280929190818152602001828054620013f2906200330d565b8015620014435780601f10620014175761010080835404028352916020019162001443565b820191906000526020600020905b8154815290600101906020018083116200142557829003601f168201915b50505050503362002d11565b505050505050565b606060008060005b6002548110156200151c57600080600060028481548110620014855762001485620032cc565b60009182526020808320909101546001600160a01b03168352820192909252604001812091505b81548110156200151157336001600160a01b0316828281548110620014d557620014d5620032cc565b60009182526020909120600660099092020101546001600160a01b031603620015085784620015048162003478565b9550505b600101620014ac565b50506001016200145f565b5060008267ffffffffffffffff8111156200153b576200153b62002e68565b6040519080825280602002602001820160405280156200157857816020015b6200156462002d90565b8152602001906001900390816200155a5790505b50905060005b600254811015620018ba57600080600060028481548110620015a457620015a4620032cc565b60009182526020808320909101546001600160a01b03168352820192909252604001812091505b8154811015620018af57336001600160a01b0316828281548110620015f457620015f4620032cc565b60009182526020909120600660099092020101546001600160a01b031603620018a6578181815481106200162c576200162c620032cc565b9060005260206000209060090201604051806101400160405290816000820154815260200160018201805462001662906200330d565b80601f016020809104026020016040519081016040528092919081815260200182805462001690906200330d565b8015620016e15780601f10620016b557610100808354040283529160200191620016e1565b820191906000526020600020905b815481529060010190602001808311620016c357829003601f168201915b50505050508152602001600282018054620016fc906200330d565b80601f01602080910402602001604051908101604052809291908181526020018280546200172a906200330d565b80156200177b5780601f106200174f576101008083540402835291602001916200177b565b820191906000526020600020905b8154815290600101906020018083116200175d57829003601f168201915b5050505050815260200160038201548152602001600482018054620017a0906200330d565b80601f0160208091040260200160405190810160405280929190818152602001828054620017ce906200330d565b80156200181f5780601f10620017f3576101008083540402835291602001916200181f565b820191906000526020600020905b8154815290600101906020018083116200180157829003601f168201915b50505091835250506005820154602082015260068201546001600160a01b038082166040840152600160a01b90910460ff161515606083015260078301548116608083015260089092015490911660a09091015284518590879081106200188a576200188a620032cc565b60200260200101819052508480620018a29062003478565b9550505b600101620015cb565b50506001016200157e565b509392505050565b33600090815260208181526040808320805482518185028101850190935280835260609492939192909184015b8282101562001b565783829060005260206000209060090201604051806101400160405290816000820154815260200160018201805462001930906200330d565b80601f01602080910402602001604051908101604052809291908181526020018280546200195e906200330d565b8015620019af5780601f106200198357610100808354040283529160200191620019af565b820191906000526020600020905b8154815290600101906020018083116200199157829003601f168201915b50505050508152602001600282018054620019ca906200330d565b80601f0160208091040260200160405190810160405280929190818152602001828054620019f8906200330d565b801562001a495780601f1062001a1d5761010080835404028352916020019162001a49565b820191906000526020600020905b81548152906001019060200180831162001a2b57829003601f168201915b505050505081526020016003820154815260200160048201805462001a6e906200330d565b80601f016020809104026020016040519081016040528092919081815260200182805462001a9c906200330d565b801562001aed5780601f1062001ac15761010080835404028352916020019162001aed565b820191906000526020600020905b81548152906001019060200180831162001acf57829003601f168201915b5050509183525050600582015460208083019190915260068301546001600160a01b038082166040850152600160a01b90910460ff161515606084015260078401548116608084015260089093015490921660a0909101529082526001929092019101620018ef565b50505050905090565b606060008060005b60025481101562001cce5760008060006002848154811062001b8d5762001b8d620032cc565b60009182526020808320909101546001600160a01b03168352820192909252604001812091505b815481101562001cc35781818154811062001bd35762001bd3620032cc565b906000526020600020906009020160060160149054906101000a900460ff16801562001ca45750600382828154811062001c115762001c11620032cc565b6000918252602091829020600760099092020101546040805163afe0104360e01b815290516001600160a01b039092169263afe01043926004808401938290030181865afa15801562001c68573d6000803e3d6000fd5b505050506040513d601f19601f8201168201806040525081019062001c8e9190620035fb565b600481111562001ca25762001ca2620035e5565b145b1562001cba578462001cb68162003478565b9550505b60010162001bb4565b505060010162001b67565b5060008267ffffffffffffffff81111562001ced5762001ced62002e68565b60405190808252806020026020018201604052801562001d2a57816020015b62001d1662002d90565b81526020019060019003908162001d0c5790505b50905060005b600254811015620018ba5760008060006002848154811062001d565762001d56620032cc565b60009182526020808320909101546001600160a01b03168352820192909252604001812091505b81548110156200210b5781818154811062001d9c5762001d9c620032cc565b906000526020600020906009020160060160149054906101000a900460ff16801562001e6d5750600382828154811062001dda5762001dda620032cc565b6000918252602091829020600760099092020101546040805163afe0104360e01b815290516001600160a01b039092169263afe01043926004808401938290030181865afa15801562001e31573d6000803e3d6000fd5b505050506040513d601f19601f8201168201806040525081019062001e579190620035fb565b600481111562001e6b5762001e6b620035e5565b145b15620021025781818154811062001e885762001e88620032cc565b9060005260206000209060090201604051806101400160405290816000820154815260200160018201805462001ebe906200330d565b80601f016020809104026020016040519081016040528092919081815260200182805462001eec906200330d565b801562001f3d5780601f1062001f115761010080835404028352916020019162001f3d565b820191906000526020600020905b81548152906001019060200180831162001f1f57829003601f168201915b5050505050815260200160028201805462001f58906200330d565b80601f016020809104026020016040519081016040528092919081815260200182805462001f86906200330d565b801562001fd75780601f1062001fab5761010080835404028352916020019162001fd7565b820191906000526020600020905b81548152906001019060200180831162001fb957829003601f168201915b505050505081526020016003820154815260200160048201805462001ffc906200330d565b80601f01602080910402602001604051908101604052809291908181526020018280546200202a906200330d565b80156200207b5780601f106200204f576101008083540402835291602001916200207b565b820191906000526020600020905b8154815290600101906020018083116200205d57829003601f168201915b50505091835250506005820154602082015260068201546001600160a01b038082166040840152600160a01b90910460ff161515606083015260078301548116608083015260089092015490911660a0909101528451859087908110620020e657620020e6620032cc565b60200260200101819052508480620020fe9062003478565b9550505b60010162001d7d565b505060010162001d30565b6001600160a01b03831660009081526020819052604081209080805b8354811015620021805787848281548110620021525762002152620032cc565b9060005260206000209060090201600001540362002177576001925080915062002180565b60010162002132565b5081620021a15760405162461bcd60e51b8152600401620002839062003494565b828181548110620021b657620021b6620032cc565b906000526020600020906009020160060160149054906101000a900460ff16620022235760405162461bcd60e51b815260206004820152601d60248201527f4974656d206861737373206e6f74206265656e20707572636861736564000000604482015260640162000283565b336001600160a01b0316838281548110620022425762002242620032cc565b60009182526020909120600660099092020101546001600160a01b031614620022ba5760405162461bcd60e51b815260206004820152602360248201527f4f6e6c79207468652062757965722063616e2063616e63656c20746865206f726044820152623232b960e91b606482015260840162000283565b828181548110620022cf57620022cf620032cc565b60009182526020918290206007600990920201015460408051635b0222bb60e01b815290516001600160a01b0390921692635b0222bb926004808401938290030181865afa15801562002326573d6000803e3d6000fd5b505050506040513d601f19601f820116820180604052508101906200234c91906200361e565b6200235a9061038462003638565b421115620023ab5760405162461bcd60e51b815260206004820181905260248201527f43616e6365736c6c6174696f6e20706572696f64206861732065787069726564604482015260640162000283565b6000838281548110620023c257620023c2620032cc565b906000526020600020906009020160060160146101000a81548160ff0219169083151502179055506000838281548110620024015762002401620032cc565b906000526020600020906009020160060160006101000a8154816001600160a01b0302191690836001600160a01b0316021790555060008382815481106200244d576200244d620032cc565b6000918252602091829020600990910201600701546040516001600160a01b039091163180825292507f5e43e6c33b0654c056b16044ddccf17d9e1da06a6523e75be8f7133f80e2345e910160405180910390a16040516001600160a01b0388163181527f64f94cc1b9db4414f5017add39d53fc2644d66038e8c0ea3c887e90730075da89060200160405180910390a18515156001036200256e57838281548110620024fe57620024fe620032cc565b60009182526020822060076009909202010154604080516317cd970760e31b815290516001600160a01b039092169263be6cb8389260048084019382900301818387803b1580156200254f57600080fd5b505af115801562002564573d6000803e3d6000fd5b50505050620025f6565b838281548110620025835762002583620032cc565b60009182526020909120600990910201600701546040516344f0f41560e11b815286151560048201526001600160a01b03909116906389e1e82a90602401600060405180830381600087803b158015620025dc57600080fd5b505af1158015620025f1573d6000803e3d6000fd5b505050505b60008483815481106200260d576200260d620032cc565b6000918252602091829020600990910201600701546040516001600160a01b039091163180825292507f5e43e6c33b0654c056b16044ddccf17d9e1da06a6523e75be8f7133f80e2345e910160405180910390a16000858481548110620026785762002678620032cc565b906000526020600020906009020160070160006101000a8154816001600160a01b0302191690836001600160a01b031602179055507ff69c7ea3f71dad86e17ba97a88b7e8f1708c0946bd98c7584e9942f60da8728e8933604051620026f19291909182526001600160a01b0316602082015260400190565b60405180910390a16040516001600160a01b0389163181527f64f94cc1b9db4414f5017add39d53fc2644d66038e8c0ea3c887e90730075da89060200160405180910390a1620027856040518060400160405280601881526020017f4f726465722063616e63656c65643a2025732062792025730000000000000000815250868581548110620013a657620013a6620032cc565b505050505050505050565b606060008060005b6002548110156200283457336001600160a01b031660028281548110620027c357620027c3620032cc565b6000918252602090912001546001600160a01b0316146200282b5760008060028381548110620027f757620027f7620032cc565b60009182526020808320909101546001600160a01b0316835282019290925260400190205462002828908462003638565b92505b60010162002798565b5060008267ffffffffffffffff81111562002853576200285362002e68565b6040519080825280602002602001820160405280156200289057816020015b6200287c62002d90565b815260200190600190039081620028725790505b50905060005b60025481101562002c0557336001600160a01b031660028281548110620028c157620028c1620032cc565b6000918252602090912001546001600160a01b03161462002bfc57600080600060028481548110620028f757620028f7620032cc565b60009182526020808320909101546001600160a01b03168352820192909252604001812091505b815481101562002bf9578181815481106200293d576200293d620032cc565b906000526020600020906009020160060160149054906101000a900460ff1662002bf057818181548110620029765762002976620032cc565b90600052602060002090600902016040518061014001604052908160008201548152602001600182018054620029ac906200330d565b80601f0160208091040260200160405190810160405280929190818152602001828054620029da906200330d565b801562002a2b5780601f10620029ff5761010080835404028352916020019162002a2b565b820191906000526020600020905b81548152906001019060200180831162002a0d57829003601f168201915b5050505050815260200160028201805462002a46906200330d565b80601f016020809104026020016040519081016040528092919081815260200182805462002a74906200330d565b801562002ac55780601f1062002a995761010080835404028352916020019162002ac5565b820191906000526020600020905b81548152906001019060200180831162002aa757829003601f168201915b505050505081526020016003820154815260200160048201805462002aea906200330d565b80601f016020809104026020016040519081016040528092919081815260200182805462002b18906200330d565b801562002b695780601f1062002b3d5761010080835404028352916020019162002b69565b820191906000526020600020905b81548152906001019060200180831162002b4b57829003601f168201915b50505091835250506005820154602082015260068201546001600160a01b038082166040840152600160a01b90910460ff161515606083015260078301548116608083015260089092015490911660a090910152845185908790811062002bd45762002bd4620032cc565b6020026020010181905250848062002bec9062003478565b9550505b6001016200291e565b50505b60010162002896565b5062002c376040518060400160405280600d81526020016c02a37ba30b61024ba32b6b99d1609d1b8152508462002c71565b62002c6a6040518060400160405280600f81526020016e021bab93932b73a1024b73232bc1d1608d1b8152508362002c71565b9392505050565b62002cba828260405160240162002c8a9291906200364e565b60408051601f198184030181529190526020810180516001600160e01b0316632d839cb360e21b17905262002d61565b5050565b62002d0b8484848460405160240162002cdb949392919062003672565b60408051601f198184030181529190526020810180516001600160e01b03166301d637ff60e71b17905262002d61565b50505050565b62002d5c83838360405160240162002d2c93929190620036cb565b60408051601f198184030181529190526020810180516001600160e01b03166395ed019560e01b17905262002d61565b505050565b62002d6c8162002d6f565b50565b60006a636f6e736f6c652e6c6f679050600080835160208501845afa505050565b60405180610140016040528060008152602001606081526020016060815260200160008152602001606081526020016000815260200160006001600160a01b0316815260200160001515815260200160006001600160a01b0316815260200160006001600160a01b031681525090565b50805462002e0e906200330d565b6000825580601f1062002e1f575050565b601f01602090049060005260206000209081019062002d6c919062002e4d565b611a83806200370e83390190565b5b8082111562002e64576000815560010162002e4e565b5090565b634e487b7160e01b600052604160045260246000fd5b600082601f83011262002e9057600080fd5b813567ffffffffffffffff8082111562002eae5762002eae62002e68565b604051601f8301601f19908116603f0116810190828211818310171562002ed95762002ed962002e68565b8160405283815286602085880101111562002ef357600080fd5b836020870160208301376000602085830101528094505050505092915050565b600080600080600060a0868803121562002f2c57600080fd5b85359450602086013567ffffffffffffffff8082111562002f4c57600080fd5b62002f5a89838a0162002e7e565b9550604088013591508082111562002f7157600080fd5b62002f7f89838a0162002e7e565b945060608801359350608088013591508082111562002f9d57600080fd5b5062002fac8882890162002e7e565b9150509295509295909350565b6000806000806080858703121562002fd057600080fd5b843567ffffffffffffffff8082111562002fe957600080fd5b62002ff78883890162002e7e565b955060208701359150808211156200300e57600080fd5b6200301c8883890162002e7e565b94506040870135935060608701359150808211156200303a57600080fd5b50620030498782880162002e7e565b91505092959194509250565b6000815180845260005b818110156200307d576020818501810151868301820152016200305f565b506000602082860101526020601f19601f83011685010191505092915050565b600060208083018184528085518083526040925060408601915060408160051b87010184880160005b83811015620031a857603f1989840301855281516101408151855288820151818a870152620030f88287018262003055565b915050878201518582038987015262003112828262003055565b91505060608083015181870152506080808301518683038288015262003139838262003055565b9250505060a080830151818701525060c08083015162003163828801826001600160a01b03169052565b505060e082810151151590860152610100808301516001600160a01b0390811691870191909152610120928301511691909401529386019390860190600101620030c6565b509098975050505050505050565b60008060408385031215620031ca57600080fd5b82359150602083013567ffffffffffffffff811115620031e957600080fd5b620031f78582860162002e7e565b9150509250929050565b6000602082840312156200321457600080fd5b5035919050565b80356001600160a01b03811681146200323357600080fd5b919050565b600080604083850312156200324c57600080fd5b823591506200325e602084016200321b565b90509250929050565b803580151581146200323357600080fd5b600080600080608085870312156200328f57600080fd5b84359350620032a1602086016200321b565b9250620032b16040860162003267565b9150620032c16060860162003267565b905092959194509250565b634e487b7160e01b600052603260045260246000fd5b602080825260119082015270125d195b48185b1c9958591e481cdbdb19607a1b604082015260600190565b600181811c908216806200332257607f821691505b6020821081036200334357634e487b7160e01b600052602260045260246000fd5b50919050565b601f82111562002d5c576000816000526020600020601f850160051c81016020861015620033745750805b601f850160051c820191505b818110156200144f5782815560010162003380565b815167ffffffffffffffff811115620033b257620033b262002e68565b620033ca81620033c384546200330d565b8462003349565b602080601f831160018114620034025760008415620033e95750858301515b600019600386901b1c1916600185901b1785556200144f565b600085815260208120601f198616915b82811015620034335788860151825594840194600190910190840162003412565b5085821015620034525787850151600019600388901b60f8161c191681555b5050505050600190811b01905550565b634e487b7160e01b600052601160045260246000fd5b6000600182016200348d576200348d62003462565b5060010190565b6020808252600e908201526d125d195b481b9bdd08199bdd5b9960921b604082015260600190565b60208152600062002c6a602083018462003055565b81810381811115620034e757620034e762003462565b92915050565b818103620034f9575050565b6200350582546200330d565b67ffffffffffffffff81111562003520576200352062002e68565b6200353181620033c384546200330d565b6000601f8211600181146200356857600083156200354f5750848201545b600019600385901b1c1916600184901b17845562000cea565b600085815260209020601f19841690600086815260209020845b83811015620035a4578286015482556001958601959091019060200162003582565b5085831015620034525793015460001960f8600387901b161c19169092555050600190811b01905550565b634e487b7160e01b600052603160045260246000fd5b634e487b7160e01b600052602160045260246000fd5b6000602082840312156200360e57600080fd5b81516005811062002c6a57600080fd5b6000602082840312156200363157600080fd5b5051919050565b80820180821115620034e757620034e762003462565b60408152600062003663604083018562003055565b90508260208301529392505050565b60808152600062003687608083018762003055565b82810360208401526200369b818762003055565b6001600160a01b038616604085015283810360608501529050620036c0818562003055565b979650505050505050565b606081526000620036e0606083018662003055565b8281036020840152620036f4818662003055565b91505060018060a01b038316604083015294935050505056fe608060405260405162001a8338038062001a83833981016040819052620000269162000124565b60018054600280546001600160a01b038581166001600160a01b03199283161790925560038054909116736a7d3230514ee0e8078f23cf65b367d9984b055a17905584166101000260ff199081166001600160a81b0319909216919091178255600580549091169055426000908155600480549283018155905260408051808201909152600c81526b24ba32b6903137bab3b43a1760a11b60208201527f8a35acfbc15ff81a39ae7d344fd709f28e8600b4aa8c65c6b64bfe7fe36bd19b90910190620000f4908262000203565b50506008805460ff1916905550620002cf565b80516001600160a01b03811681146200011f57600080fd5b919050565b600080604083850312156200013857600080fd5b620001438362000107565b9150620001536020840162000107565b90509250929050565b634e487b7160e01b600052604160045260246000fd5b600181811c908216806200018757607f821691505b602082108103620001a857634e487b7160e01b600052602260045260246000fd5b50919050565b601f821115620001fe576000816000526020600020601f850160051c81016020861015620001d95750805b601f850160051c820191505b81811015620001fa57828155600101620001e5565b5050505b505050565b81516001600160401b038111156200021f576200021f6200015c565b620002378162000230845462000172565b84620001ae565b602080601f8311600181146200026f5760008415620002565750858301515b600019600386901b1c1916600185901b178555620001fa565b600085815260208120601f198616915b82811015620002a0578886015182559484019460019091019084016200027f565b5085821015620002bf5787850151600019600388901b60f8161c191681555b5050505050600190811b01905550565b6117a480620002df6000396000f3fe6080604052600436106101095760003560e01c80638285074b11610095578063c00ccd5411610064578063c00ccd541461029e578063d16f5b29146102be578063dd3fa136146102e8578063df8d93b414610308578063eaaf0b631461031d57600080fd5b80638285074b1461023c57806389e1e82a1461025c578063afe010431461026f578063be6cb8381461029657600080fd5b8063526ff16f116100dc578063526ff16f146101a95780635b0222bb146101be5780635e10177b146101e257806364e6aa52146101f75780637150d8ae1461021757600080fd5b806308551a531461010e5780631865c57d1461014b57806319561dae146101705780634fd6137c14610192575b600080fd5b34801561011a57600080fd5b5060025461012e906001600160a01b031681565b6040516001600160a01b0390911681526020015b60405180910390f35b34801561015757600080fd5b50610160610341565b60405161014294939291906112d5565b34801561017c57600080fd5b50610185610510565b6040516101429190611326565b34801561019e57600080fd5b506101a761059e565b005b3480156101b557600080fd5b506101856106bf565b3480156101ca57600080fd5b506101d460005481565b604051908152602001610142565b3480156101ee57600080fd5b506101a76106cc565b34801561020357600080fd5b50610185610212366004611340565b610804565b34801561022357600080fd5b5060015461012e9061010090046001600160a01b031681565b34801561024857600080fd5b506101a761025736600461136f565b61082f565b6101a761026a366004611420565b61095e565b34801561027b57600080fd5b506001546102899060ff1681565b6040516101429190611442565b6101a7610b2b565b3480156102aa57600080fd5b506101a76102b936600461136f565b610cb4565b3480156102ca57600080fd5b506008546102d89060ff1681565b6040519015158152602001610142565b3480156102f457600080fd5b506101a761030336600461136f565b610db6565b34801561031457600080fd5b50610185610fe4565b34801561032957600080fd5b50610332610ff1565b60405161014293929190611456565b60006060806060600160009054906101000a900460ff1660096006600782805461036a906114e2565b80601f0160208091040260200160405190810160405280929190818152602001828054610396906114e2565b80156103e35780601f106103b8576101008083540402835291602001916103e3565b820191906000526020600020905b8154815290600101906020018083116103c657829003601f168201915b505050505092508180546103f6906114e2565b80601f0160208091040260200160405190810160405280929190818152602001828054610422906114e2565b801561046f5780601f106104445761010080835404028352916020019161046f565b820191906000526020600020905b81548152906001019060200180831161045257829003601f168201915b50505050509150808054610482906114e2565b80601f01602080910402602001604051908101604052809291908181526020018280546104ae906114e2565b80156104fb5780601f106104d0576101008083540402835291602001916104fb565b820191906000526020600020905b8154815290600101906020018083116104de57829003601f168201915b50505050509050935093509350935090919293565b6006805461051d906114e2565b80601f0160208091040260200160405190810160405280929190818152602001828054610549906114e2565b80156105965780601f1061056b57610100808354040283529160200191610596565b820191906000526020600020905b81548152906001019060200180831161057957829003601f168201915b505050505081565b60015461010090046001600160a01b031633146105d65760405162461bcd60e51b81526004016105cd9061151c565b60405180910390fd5b6001805460ff1660048111156105ee576105ee611257565b146106455760405162461bcd60e51b815260206004820152602160248201527f43616e6e6f74206f70656e2064697370757465206174207468697320737461676044820152606560f81b60648201526084016105cd565b6001805460ff199081166003178255600880549091168217905560048054918201815560005260408051808201909152601c81527f44697370757465206f70656e6564206279207468652062757965722e000000006020820152600080516020611726833981519152909101906106bc90826115a4565b50565b6009805461051d906114e2565b60015461010090046001600160a01b031633146106fb5760405162461bcd60e51b81526004016105cd9061151c565b6001805460ff16600481111561071357610713611257565b146107605760405162461bcd60e51b815260206004820152601760248201527f43616e6e6f7420636f6e6669726d2064656c697665727900000000000000000060448201526064016105cd565b6002546040516001600160a01b03909116904780156108fc02916000818181858888f19350505050158015610799573d6000803e3d6000fd5b506001805460ff1916600217815560048054918201815560005260408051808201909152601b81527f4974656d207265636965766564206279207468652062757965722e00000000006020820152600080516020611726833981519152909101906106bc90826115a4565b6004818154811061081457600080fd5b90600052602060002001600091509050805461051d906114e2565b60015461010090046001600160a01b0316331461085e5760405162461bcd60e51b81526004016105cd9061151c565b600360015460ff16600481111561087757610877611257565b146108945760405162461bcd60e51b81526004016105cd90611664565b600780546108a1906114e2565b1590506108f05760405162461bcd60e51b815260206004820181905260248201527f50726f6f6620616c7265616479207375626d697474656420627920627579657260448201526064016105cd565b6000600680546108ff906114e2565b90501161094e5760405162461bcd60e51b815260206004820152601e60248201527f53656c6c6572206d757374207375626d69742070726f6f66206669727374000060448201526064016105cd565b600761095a82826115a4565b5050565b6003546001600160a01b031633146109c45760405162461bcd60e51b8152602060048201526024808201527f4f6e6c792061726269747261746f722063616e2063616c6c2074686973206d656044820152631d1a1bd960e21b60648201526084016105cd565b600360015460ff1660048111156109dd576109dd611257565b146109fa5760405162461bcd60e51b81526004016105cd90611664565b8015610a8d576001546040516001600160a01b0361010090920491909116904780156108fc02916000818181858888f19350505050158015610a40573d6000803e3d6000fd5b506004805460018101825560009182526040805160608101909152602380825260008051602061172683398151915290920192916117036020830139610a879150826115a4565b50610b0f565b6002546040516001600160a01b03909116904780156108fc02916000818181858888f19350505050158015610ac6573d6000803e3d6000fd5b506004805460018101825560009182526040805160608101909152602480825260008051602061172683398151915290920192916116df6020830139610b0d9150826115a4565b505b506001805460ff19908116600417909155600880549091169055565b600060015460ff166004811115610b4457610b44611257565b14610bc55760405162461bcd60e51b8152602060048201526044602482018190527f43616e6e6f7420726566756e642e204974656d2068617320616c726561647920908201527f6265656e2073686970706564206f7220697320696e20616e6f7468657220737460648201526330ba329760e11b608482015260a4016105cd565b600054610bd49061038461168f565b4210610c225760405162461bcd60e51b815260206004820152601f60248201527f43616e63656c6c6174696f6e20706572696f6420686173207061737365642e0060448201526064016105cd565b6001546040516001600160a01b0361010090920491909116904780156108fc02916000818181858888f19350505050158015610c62573d6000803e3d6000fd5b506001805460ff191660049081178255805491820181556000908152604080516060810190915260298082526000805160206117268339815191529093019261174660208301396106bc9150826115a4565b6002546001600160a01b03163314610d0e5760405162461bcd60e51b815260206004820181905260248201527f4f6e6c792073656c6c65722063616e2063616c6c2074686973206d6574686f6460448201526064016105cd565b600360015460ff166004811115610d2757610d27611257565b14610d445760405162461bcd60e51b81526004016105cd90611664565b60068054610d51906114e2565b159050610daa5760405162461bcd60e51b815260206004820152602160248201527f50726f6f6620616c7265616479207375626d69747465642062792073656c6c656044820152603960f91b60648201526084016105cd565b600661095a82826115a4565b600060015460ff166004811115610dcf57610dcf611257565b14610e1c5760405162461bcd60e51b815260206004820152601e60248201527f43616e6e6f7420736869702e20496e636f7272656374207374617475732e000060448201526064016105cd565b600054610e2b9061038461168f565b421015610ea05760405162461bcd60e51b815260206004820152603d60248201527f43616e6e6f742073686970206265666f7265203135206d696e7574652063616e60448201527f63656c6c6174696f6e20706572696f642068617320656c61707365642e00000060648201526084016105cd565b6001805460ff1916811790556009610eb882826115a4565b506004805460018101825560009190915260408051808201909152601881527f4974656d2073656e74206279207468652073656c6c65722e0000000000000000602082015260008051602061172683398151915290910190610f1a90826115a4565b506106bc6040518060400160405280601881526020017f547261636b696e67206e756d626572207365743a20257320000000000000000081525060098054610f61906114e2565b80601f0160208091040260200160405190810160405280929190818152602001828054610f8d906114e2565b8015610fda5780601f10610faf57610100808354040283529160200191610fda565b820191906000526020600020905b815481529060010190602001808311610fbd57829003601f168201915b50505050506111f2565b6007805461051d906114e2565b606080606060046006600782805480602002602001604051908101604052809291908181526020016000905b828210156110c957838290600052602060002001805461103c906114e2565b80601f0160208091040260200160405190810160405280929190818152602001828054611068906114e2565b80156110b55780601f1061108a576101008083540402835291602001916110b5565b820191906000526020600020905b81548152906001019060200180831161109857829003601f168201915b50505050508152602001906001019061101d565b5050505092508180546110db906114e2565b80601f0160208091040260200160405190810160405280929190818152602001828054611107906114e2565b80156111545780601f1061112957610100808354040283529160200191611154565b820191906000526020600020905b81548152906001019060200180831161113757829003601f168201915b50505050509150808054611167906114e2565b80601f0160208091040260200160405190810160405280929190818152602001828054611193906114e2565b80156111e05780601f106111b5576101008083540402835291602001916111e0565b820191906000526020600020905b8154815290600101906020018083116111c357829003601f168201915b50505050509050925092509250909192565b61095a82826040516024016112089291906116b0565b60408051601f198184030181529190526020810180516001600160e01b0316634b5c427760e01b1790526106bc8160006a636f6e736f6c652e6c6f679050600080835160208501845afa505050565b634e487b7160e01b600052602160045260246000fd5b6005811061128b57634e487b7160e01b600052602160045260246000fd5b9052565b6000815180845260005b818110156112b557602081850181015186830182015201611299565b506000602082860101526020601f19601f83011685010191505092915050565b6112df818661126d565b6080602082015260006112f5608083018661128f565b8281036040840152611307818661128f565b9050828103606084015261131b818561128f565b979650505050505050565b602081526000611339602083018461128f565b9392505050565b60006020828403121561135257600080fd5b5035919050565b634e487b7160e01b600052604160045260246000fd5b60006020828403121561138157600080fd5b813567ffffffffffffffff8082111561139957600080fd5b818401915084601f8301126113ad57600080fd5b8135818111156113bf576113bf611359565b604051601f8201601f19908116603f011681019083821181831017156113e7576113e7611359565b8160405282815287602084870101111561140057600080fd5b826020860160208301376000928101602001929092525095945050505050565b60006020828403121561143257600080fd5b8135801515811461133957600080fd5b60208101611450828461126d565b92915050565b6000606082016060835280865180835260808501915060808160051b8601019250602080890160005b838110156114ad57607f1988870301855261149b86835161128f565b9550938201939082019060010161147f565b505050505082810360208401526114c4818661128f565b905082810360408401526114d8818561128f565b9695505050505050565b600181811c908216806114f657607f821691505b60208210810361151657634e487b7160e01b600052602260045260246000fd5b50919050565b6020808252601f908201527f4f6e6c792062757965722063616e2063616c6c2074686973206d6574686f6400604082015260600190565b601f82111561159f576000816000526020600020601f850160051c8101602086101561157c5750805b601f850160051c820191505b8181101561159b57828155600101611588565b5050505b505050565b815167ffffffffffffffff8111156115be576115be611359565b6115d2816115cc84546114e2565b84611553565b602080601f83116001811461160757600084156115ef5750858301515b600019600386901b1c1916600185901b17855561159b565b600085815260208120601f198616915b8281101561163657888601518255948401946001909101908401611617565b50858210156116545787850151600019600388901b60f8161c191681555b5050505050600190811b01905550565b6020808252601190820152704e6f20616374697665206469737075746560781b604082015260600190565b8082018082111561145057634e487b7160e01b600052601160045260246000fd5b6040815260006116c3604083018561128f565b82810360208401526116d5818561128f565b9594505050505056fe4469737075746520636c6f7365642e2053656c6c65722077617320726566756e6465642e4469737075746520636c6f7365642e2042757965722077617320726566756e6465642e8a35acfbc15ff81a39ae7d344fd709f28e8600b4aa8c65c6b64bfe7fe36bd19b4974656d2063616e63656c6c656420616e6420726566756e64656420746f207468652062757965722ea264697066735822122042ef4e975e3725a72b0dd03a8a9a730fc2fa82ff058d5e91ca63f05b9c9f8b3a64736f6c634300081800334974656d20736869707065643a20257320627920257320616e6420747261636b696e67206e756d626572202573a2646970667358221220a054cc059df77acfa8bb692e0c0eecff8f247c1541d6739b443a302063118d8264736f6c63430008180033","opcodes":"PUSH1 0x80 PUSH1 0x40 MSTORE CALLVALUE DUP1 ISZERO PUSH2 0x10 JUMPI PUSH1 0x0 DUP1 REVERT JUMPDEST POP PUSH2 0x51F3 DUP1 PUSH2 0x20 PUSH1 0x0 CODECOPY PUSH1 0x0 RETURN INVALID PUSH1 0x80 PUSH1 0x40 MSTORE PUSH1 0x4 CALLDATASIZE LT PUSH3 0xB5 JUMPI PUSH1 0x0 CALLDATALOAD PUSH1 0xE0 SHR DUP1 PUSH4 0x8AF8A986 GT PUSH3 0x6C JUMPI DUP1 PUSH4 0x8AF8A986 EQ PUSH3 0x197 JUMPI DUP1 PUSH4 0x9AB7E23B EQ PUSH3 0x1AF JUMPI DUP1 PUSH4 0xB24DB86F EQ PUSH3 0x1C7 JUMPI DUP1 PUSH4 0xBA301541 EQ PUSH3 0x1DF JUMPI DUP1 PUSH4 0xDBC37670 EQ PUSH3 0x1F6 JUMPI DUP1 PUSH4 0xE2C03ACE EQ PUSH3 0x20E JUMPI PUSH1 0x0 DUP1 REVERT JUMPDEST DUP1 PUSH4 0x461459A EQ PUSH3 0xBA JUMPI DUP1 PUSH4 0x13DF81D6 EQ PUSH3 0xE1 JUMPI DUP1 PUSH4 0x38F5234F EQ PUSH3 0x106 JUMPI DUP1 PUSH4 0x4D25CE47 EQ PUSH3 0x136 JUMPI DUP1 PUSH4 0x654FC833 EQ PUSH3 0x15B JUMPI DUP1 PUSH4 0x7BFE9EFD EQ PUSH3 0x180 JUMPI JUMPDEST PUSH1 0x0 DUP1 REVERT JUMPDEST CALLVALUE DUP1 ISZERO PUSH3 0xC7 JUMPI PUSH1 0x0 DUP1 REVERT JUMPDEST POP PUSH3 0xDF PUSH3 0xD9 CALLDATASIZE PUSH1 0x4 PUSH3 0x2F13 JUMP JUMPDEST PUSH3 0x235 JUMP JUMPDEST STOP JUMPDEST CALLVALUE DUP1 ISZERO PUSH3 0xEE JUMPI PUSH1 0x0 DUP1 REVERT JUMPDEST POP PUSH3 0xDF PUSH3 0x100 CALLDATASIZE PUSH1 0x4 PUSH3 0x2FB9 JUMP JUMPDEST PUSH3 0x463 JUMP JUMPDEST CALLVALUE DUP1 ISZERO PUSH3 0x113 JUMPI PUSH1 0x0 DUP1 REVERT JUMPDEST POP PUSH3 0x11E PUSH3 0x640 JUMP JUMPDEST PUSH1 0x40 MLOAD PUSH3 0x12D SWAP2 SWAP1 PUSH3 0x309D JUMP JUMPDEST PUSH1 0x40 MLOAD DUP1 SWAP2 SUB SWAP1 RETURN JUMPDEST CALLVALUE DUP1 ISZERO PUSH3 0x143 JUMPI PUSH1 0x0 DUP1 REVERT JUMPDEST POP PUSH3 0xDF PUSH3 0x155 CALLDATASIZE PUSH1 0x4 PUSH3 0x31B6 JUMP JUMPDEST PUSH3 0x9FB JUMP JUMPDEST CALLVALUE DUP1 ISZERO PUSH3 0x168 JUMPI PUSH1 0x0 DUP1 REVERT JUMPDEST POP PUSH3 0xDF PUSH3 0x17A CALLDATASIZE PUSH1 0x4 PUSH3 0x3201 JUMP JUMPDEST PUSH3 0xCF1 JUMP JUMPDEST PUSH3 0xDF PUSH3 0x191 CALLDATASIZE PUSH1 0x4 PUSH3 0x3238 JUMP JUMPDEST PUSH3 0xFF7 JUMP JUMPDEST CALLVALUE DUP1 ISZERO PUSH3 0x1A4 JUMPI PUSH1 0x0 DUP1 REVERT JUMPDEST POP PUSH3 0x11E PUSH3 0x1457 JUMP JUMPDEST CALLVALUE DUP1 ISZERO PUSH3 0x1BC JUMPI PUSH1 0x0 DUP1 REVERT JUMPDEST POP PUSH3 0x11E PUSH3 0x18C2 JUMP JUMPDEST CALLVALUE DUP1 ISZERO PUSH3 0x1D4 JUMPI PUSH1 0x0 DUP1 REVERT JUMPDEST POP PUSH3 0x11E PUSH3 0x1B5F JUMP JUMPDEST PUSH3 0xDF PUSH3 0x1F0 CALLDATASIZE PUSH1 0x4 PUSH3 0x3278 JUMP JUMPDEST PUSH3 0x2116 JUMP JUMPDEST CALLVALUE DUP1 ISZERO PUSH3 0x203 JUMPI PUSH1 0x0 DUP1 REVERT JUMPDEST POP PUSH3 0x11E PUSH3 0x2790 JUMP JUMPDEST CALLVALUE DUP1 ISZERO PUSH3 0x21B JUMPI PUSH1 0x0 DUP1 REVERT JUMPDEST POP PUSH3 0x226 PUSH1 0x1 SLOAD DUP2 JUMP JUMPDEST PUSH1 0x40 MLOAD SWAP1 DUP2 MSTORE PUSH1 0x20 ADD PUSH3 0x12D JUMP JUMPDEST PUSH1 0x0 DUP6 GT DUP1 ISZERO PUSH3 0x248 JUMPI POP PUSH1 0x1 SLOAD DUP6 GT ISZERO JUMPDEST PUSH3 0x28C JUMPI PUSH1 0x40 MLOAD PUSH3 0x461BCD PUSH1 0xE5 SHL DUP2 MSTORE PUSH1 0x20 PUSH1 0x4 DUP3 ADD MSTORE PUSH1 0xF PUSH1 0x24 DUP3 ADD MSTORE PUSH15 0x125B9D985B1A59081A5D195B481251 PUSH1 0x8A SHL PUSH1 0x44 DUP3 ADD MSTORE PUSH1 0x64 ADD JUMPDEST PUSH1 0x40 MLOAD DUP1 SWAP2 SUB SWAP1 REVERT JUMPDEST CALLER PUSH1 0x0 SWAP1 DUP2 MSTORE PUSH1 0x20 DUP2 SWAP1 MSTORE PUSH1 0x40 DUP2 KECCAK256 SWAP1 DUP1 JUMPDEST DUP3 SLOAD DUP2 LT ISZERO PUSH3 0x40A JUMPI DUP8 DUP4 DUP3 DUP2 SLOAD DUP2 LT PUSH3 0x2BE JUMPI PUSH3 0x2BE PUSH3 0x32CC JUMP JUMPDEST SWAP1 PUSH1 0x0 MSTORE PUSH1 0x20 PUSH1 0x0 KECCAK256 SWAP1 PUSH1 0x9 MUL ADD PUSH1 0x0 ADD SLOAD SUB PUSH3 0x401 JUMPI PUSH1 0x1 SWAP2 POP DUP3 DUP2 DUP2 SLOAD DUP2 LT PUSH3 0x2EF JUMPI PUSH3 0x2EF PUSH3 0x32CC JUMP JUMPDEST SWAP1 PUSH1 0x0 MSTORE PUSH1 0x20 PUSH1 0x0 KECCAK256 SWAP1 PUSH1 0x9 MUL ADD PUSH1 0x6 ADD PUSH1 0x14 SWAP1 SLOAD SWAP1 PUSH2 0x100 EXP SWAP1 DIV PUSH1 0xFF AND ISZERO PUSH3 0x32E JUMPI PUSH1 0x40 MLOAD PUSH3 0x461BCD PUSH1 0xE5 SHL DUP2 MSTORE PUSH1 0x4 ADD PUSH3 0x283 SWAP1 PUSH3 0x32E2 JUMP JUMPDEST DUP7 DUP4 DUP3 DUP2 SLOAD DUP2 LT PUSH3 0x344 JUMPI PUSH3 0x344 PUSH3 0x32CC JUMP JUMPDEST SWAP1 PUSH1 0x0 MSTORE PUSH1 0x20 PUSH1 0x0 KECCAK256 SWAP1 PUSH1 0x9 MUL ADD PUSH1 0x1 ADD SWAP1 DUP2 PUSH3 0x363 SWAP2 SWAP1 PUSH3 0x3395 JUMP JUMPDEST POP DUP6 DUP4 DUP3 DUP2 SLOAD DUP2 LT PUSH3 0x37A JUMPI PUSH3 0x37A PUSH3 0x32CC JUMP JUMPDEST SWAP1 PUSH1 0x0 MSTORE PUSH1 0x20 PUSH1 0x0 KECCAK256 SWAP1 PUSH1 0x9 MUL ADD PUSH1 0x2 ADD SWAP1 DUP2 PUSH3 0x399 SWAP2 SWAP1 PUSH3 0x3395 JUMP JUMPDEST POP DUP5 DUP4 DUP3 DUP2 SLOAD DUP2 LT PUSH3 0x3B0 JUMPI PUSH3 0x3B0 PUSH3 0x32CC JUMP JUMPDEST SWAP1 PUSH1 0x0 MSTORE PUSH1 0x20 PUSH1 0x0 KECCAK256 SWAP1 PUSH1 0x9 MUL ADD PUSH1 0x3 ADD DUP2 SWAP1 SSTORE POP DUP4 DUP4 DUP3 DUP2 SLOAD DUP2 LT PUSH3 0x3DB JUMPI PUSH3 0x3DB PUSH3 0x32CC JUMP JUMPDEST SWAP1 PUSH1 0x0 MSTORE PUSH1 0x20 PUSH1 0x0 KECCAK256 SWAP1 PUSH1 0x9 MUL ADD PUSH1 0x4 ADD SWAP1 DUP2 PUSH3 0x3FA SWAP2 SWAP1 PUSH3 0x3395 JUMP JUMPDEST POP PUSH3 0x40A JUMP JUMPDEST PUSH1 0x1 ADD PUSH3 0x29E JUMP JUMPDEST POP DUP1 PUSH3 0x45A JUMPI PUSH1 0x40 MLOAD PUSH3 0x461BCD PUSH1 0xE5 SHL DUP2 MSTORE PUSH1 0x20 PUSH1 0x4 DUP3 ADD MSTORE PUSH1 0x1E PUSH1 0x24 DUP3 ADD MSTORE PUSH32 0x4974656D20646F6573206E6F742062656C6F6E6720746F2073656E6465720000 PUSH1 0x44 DUP3 ADD MSTORE PUSH1 0x64 ADD PUSH3 0x283 JUMP JUMPDEST POP POP POP POP POP POP POP JUMP JUMPDEST PUSH3 0x493 PUSH1 0x40 MLOAD DUP1 PUSH1 0x40 ADD PUSH1 0x40 MSTORE DUP1 PUSH1 0xC DUP2 MSTORE PUSH1 0x20 ADD PUSH12 0x50726963652069733A202573 PUSH1 0xA0 SHL DUP2 MSTORE POP DUP4 PUSH3 0x2C71 JUMP JUMPDEST CALLER PUSH1 0x0 SWAP1 DUP2 MSTORE PUSH1 0x20 DUP2 SWAP1 MSTORE PUSH1 0x40 DUP2 KECCAK256 SLOAD SWAP1 SUB PUSH3 0x4ED JUMPI PUSH1 0x2 DUP1 SLOAD PUSH1 0x1 DUP2 ADD DUP3 SSTORE PUSH1 0x0 SWAP2 SWAP1 SWAP2 MSTORE PUSH32 0x405787FA12A823E0F2B7631CC41B3BA8828B3321CA811111FA75CD3AA3BB5ACE ADD DUP1 SLOAD PUSH1 0x1 PUSH1 0x1 PUSH1 0xA0 SHL SUB NOT AND CALLER OR SWAP1 SSTORE JUMPDEST PUSH1 0x1 DUP1 SLOAD SWAP1 PUSH1 0x0 PUSH3 0x4FF DUP4 PUSH3 0x3478 JUMP JUMPDEST SWAP1 SWAP2 SSTORE POP POP CALLER PUSH1 0x0 DUP2 DUP2 MSTORE PUSH1 0x20 DUP2 DUP2 MSTORE PUSH1 0x40 DUP1 DUP4 KECCAK256 DUP2 MLOAD PUSH2 0x140 DUP2 ADD DUP4 MSTORE PUSH1 0x1 DUP1 SLOAD DUP3 MSTORE DUP2 DUP6 ADD DUP12 DUP2 MSTORE SWAP4 DUP3 ADD DUP11 SWAP1 MSTORE PUSH1 0x60 DUP3 ADD DUP10 SWAP1 MSTORE PUSH1 0x80 DUP3 ADD DUP9 SWAP1 MSTORE TIMESTAMP PUSH1 0xA0 DUP4 ADD MSTORE PUSH1 0xC0 DUP3 ADD DUP7 SWAP1 MSTORE PUSH1 0xE0 DUP3 ADD DUP7 SWAP1 MSTORE PUSH2 0x100 DUP3 ADD DUP7 SWAP1 MSTORE PUSH2 0x120 DUP3 ADD SWAP7 SWAP1 SWAP7 MSTORE DUP2 SLOAD DUP1 DUP8 ADD DUP4 SSTORE SWAP2 DUP6 MSTORE SWAP3 SWAP1 SWAP4 KECCAK256 DUP3 MLOAD PUSH1 0x9 SWAP1 SWAP5 MUL ADD SWAP3 DUP4 SSTORE MLOAD SWAP1 SWAP3 DUP3 ADD SWAP1 PUSH3 0x58D SWAP1 DUP3 PUSH3 0x3395 JUMP JUMPDEST POP PUSH1 0x40 DUP3 ADD MLOAD PUSH1 0x2 DUP3 ADD SWAP1 PUSH3 0x5A4 SWAP1 DUP3 PUSH3 0x3395 JUMP JUMPDEST POP PUSH1 0x60 DUP3 ADD MLOAD PUSH1 0x3 DUP3 ADD SSTORE PUSH1 0x80 DUP3 ADD MLOAD PUSH1 0x4 DUP3 ADD SWAP1 PUSH3 0x5C5 SWAP1 DUP3 PUSH3 0x3395 JUMP JUMPDEST POP PUSH1 0xA0 DUP3 ADD MLOAD PUSH1 0x5 DUP3 ADD SSTORE PUSH1 0xC0 DUP3 ADD MLOAD PUSH1 0x6 DUP3 ADD DUP1 SLOAD PUSH1 0xE0 DUP6 ADD MLOAD ISZERO ISZERO PUSH1 0x1 PUSH1 0xA0 SHL MUL PUSH1 0x1 PUSH1 0x1 PUSH1 0xA8 SHL SUB NOT SWAP1 SWAP2 AND PUSH1 0x1 PUSH1 0x1 PUSH1 0xA0 SHL SUB SWAP4 DUP5 AND OR OR SWAP1 SSTORE PUSH2 0x100 DUP4 ADD MLOAD PUSH1 0x7 DUP4 ADD DUP1 SLOAD SWAP2 DUP4 AND PUSH1 0x1 PUSH1 0x1 PUSH1 0xA0 SHL SUB NOT SWAP3 DUP4 AND OR SWAP1 SSTORE PUSH2 0x120 SWAP1 SWAP4 ADD MLOAD PUSH1 0x8 SWAP1 SWAP3 ADD DUP1 SLOAD SWAP3 SWAP1 SWAP2 AND SWAP2 SWAP1 SWAP3 AND OR SWAP1 SSTORE POP POP POP POP JUMP JUMPDEST CALLER PUSH1 0x0 SWAP1 DUP2 MSTORE PUSH1 0x20 DUP2 SWAP1 MSTORE PUSH1 0x40 DUP2 KECCAK256 PUSH1 0x60 SWAP2 SWAP1 DUP2 SWAP1 DUP2 JUMPDEST DUP2 SLOAD DUP2 LT ISZERO PUSH3 0x6B4 JUMPI DUP2 DUP2 DUP2 SLOAD DUP2 LT PUSH3 0x676 JUMPI PUSH3 0x676 PUSH3 0x32CC JUMP JUMPDEST SWAP1 PUSH1 0x0 MSTORE PUSH1 0x20 PUSH1 0x0 KECCAK256 SWAP1 PUSH1 0x9 MUL ADD PUSH1 0x6 ADD PUSH1 0x14 SWAP1 SLOAD SWAP1 PUSH2 0x100 EXP SWAP1 DIV PUSH1 0xFF AND ISZERO PUSH3 0x6AB JUMPI DUP4 PUSH3 0x6A7 DUP2 PUSH3 0x3478 JUMP JUMPDEST SWAP5 POP POP JUMPDEST PUSH1 0x1 ADD PUSH3 0x657 JUMP JUMPDEST POP PUSH1 0x0 DUP4 PUSH8 0xFFFFFFFFFFFFFFFF DUP2 GT ISZERO PUSH3 0x6D3 JUMPI PUSH3 0x6D3 PUSH3 0x2E68 JUMP JUMPDEST PUSH1 0x40 MLOAD SWAP1 DUP1 DUP3 MSTORE DUP1 PUSH1 0x20 MUL PUSH1 0x20 ADD DUP3 ADD PUSH1 0x40 MSTORE DUP1 ISZERO PUSH3 0x710 JUMPI DUP2 PUSH1 0x20 ADD JUMPDEST PUSH3 0x6FC PUSH3 0x2D90 JUMP JUMPDEST DUP2 MSTORE PUSH1 0x20 ADD SWAP1 PUSH1 0x1 SWAP1 SUB SWAP1 DUP2 PUSH3 0x6F2 JUMPI SWAP1 POP JUMPDEST POP SWAP1 POP PUSH1 0x0 JUMPDEST DUP3 SLOAD DUP2 LT ISZERO PUSH3 0x9F2 JUMPI DUP3 DUP2 DUP2 SLOAD DUP2 LT PUSH3 0x735 JUMPI PUSH3 0x735 PUSH3 0x32CC JUMP JUMPDEST SWAP1 PUSH1 0x0 MSTORE PUSH1 0x20 PUSH1 0x0 KECCAK256 SWAP1 PUSH1 0x9 MUL ADD PUSH1 0x6 ADD PUSH1 0x14 SWAP1 SLOAD SWAP1 PUSH2 0x100 EXP SWAP1 DIV PUSH1 0xFF AND ISZERO PUSH3 0x9E9 JUMPI DUP3 DUP2 DUP2 SLOAD DUP2 LT PUSH3 0x76F JUMPI PUSH3 0x76F PUSH3 0x32CC JUMP JUMPDEST SWAP1 PUSH1 0x0 MSTORE PUSH1 0x20 PUSH1 0x0 KECCAK256 SWAP1 PUSH1 0x9 MUL ADD PUSH1 0x40 MLOAD DUP1 PUSH2 0x140 ADD PUSH1 0x40 MSTORE SWAP1 DUP2 PUSH1 0x0 DUP3 ADD SLOAD DUP2 MSTORE PUSH1 0x20 ADD PUSH1 0x1 DUP3 ADD DUP1 SLOAD PUSH3 0x7A5 SWAP1 PUSH3 0x330D JUMP JUMPDEST DUP1 PUSH1 0x1F ADD PUSH1 0x20 DUP1 SWAP2 DIV MUL PUSH1 0x20 ADD PUSH1 0x40 MLOAD SWAP1 DUP2 ADD PUSH1 0x40 MSTORE DUP1 SWAP3 SWAP2 SWAP1 DUP2 DUP2 MSTORE PUSH1 0x20 ADD DUP3 DUP1 SLOAD PUSH3 0x7D3 SWAP1 PUSH3 0x330D JUMP JUMPDEST DUP1 ISZERO PUSH3 0x824 JUMPI DUP1 PUSH1 0x1F LT PUSH3 0x7F8 JUMPI PUSH2 0x100 DUP1 DUP4 SLOAD DIV MUL DUP4 MSTORE SWAP2 PUSH1 0x20 ADD SWAP2 PUSH3 0x824 JUMP JUMPDEST DUP3 ADD SWAP2 SWAP1 PUSH1 0x0 MSTORE PUSH1 0x20 PUSH1 0x0 KECCAK256 SWAP1 JUMPDEST DUP2 SLOAD DUP2 MSTORE SWAP1 PUSH1 0x1 ADD SWAP1 PUSH1 0x20 ADD DUP1 DUP4 GT PUSH3 0x806 JUMPI DUP3 SWAP1 SUB PUSH1 0x1F AND DUP3 ADD SWAP2 JUMPDEST POP POP POP POP POP DUP2 MSTORE PUSH1 0x20 ADD PUSH1 0x2 DUP3 ADD DUP1 SLOAD PUSH3 0x83F SWAP1 PUSH3 0x330D JUMP JUMPDEST DUP1 PUSH1 0x1F ADD PUSH1 0x20 DUP1 SWAP2 DIV MUL PUSH1 0x20 ADD PUSH1 0x40 MLOAD SWAP1 DUP2 ADD PUSH1 0x40 MSTORE DUP1 SWAP3 SWAP2 SWAP1 DUP2 DUP2 MSTORE PUSH1 0x20 ADD DUP3 DUP1 SLOAD PUSH3 0x86D SWAP1 PUSH3 0x330D JUMP JUMPDEST DUP1 ISZERO PUSH3 0x8BE JUMPI DUP1 PUSH1 0x1F LT PUSH3 0x892 JUMPI PUSH2 0x100 DUP1 DUP4 SLOAD DIV MUL DUP4 MSTORE SWAP2 PUSH1 0x20 ADD SWAP2 PUSH3 0x8BE JUMP JUMPDEST DUP3 ADD SWAP2 SWAP1 PUSH1 0x0 MSTORE PUSH1 0x20 PUSH1 0x0 KECCAK256 SWAP1 JUMPDEST DUP2 SLOAD DUP2 MSTORE SWAP1 PUSH1 0x1 ADD SWAP1 PUSH1 0x20 ADD DUP1 DUP4 GT PUSH3 0x8A0 JUMPI DUP3 SWAP1 SUB PUSH1 0x1F AND DUP3 ADD SWAP2 JUMPDEST POP POP POP POP POP DUP2 MSTORE PUSH1 0x20 ADD PUSH1 0x3 DUP3 ADD SLOAD DUP2 MSTORE PUSH1 0x20 ADD PUSH1 0x4 DUP3 ADD DUP1 SLOAD PUSH3 0x8E3 SWAP1 PUSH3 0x330D JUMP JUMPDEST DUP1 PUSH1 0x1F ADD PUSH1 0x20 DUP1 SWAP2 DIV MUL PUSH1 0x20 ADD PUSH1 0x40 MLOAD SWAP1 DUP2 ADD PUSH1 0x40 MSTORE DUP1 SWAP3 SWAP2 SWAP1 DUP2 DUP2 MSTORE PUSH1 0x20 ADD DUP3 DUP1 SLOAD PUSH3 0x911 SWAP1 PUSH3 0x330D JUMP JUMPDEST DUP1 ISZERO PUSH3 0x962 JUMPI DUP1 PUSH1 0x1F LT PUSH3 0x936 JUMPI PUSH2 0x100 DUP1 DUP4 SLOAD DIV MUL DUP4 MSTORE SWAP2 PUSH1 0x20 ADD SWAP2 PUSH3 0x962 JUMP JUMPDEST DUP3 ADD SWAP2 SWAP1 PUSH1 0x0 MSTORE PUSH1 0x20 PUSH1 0x0 KECCAK256 SWAP1 JUMPDEST DUP2 SLOAD DUP2 MSTORE SWAP1 PUSH1 0x1 ADD SWAP1 PUSH1 0x20 ADD DUP1 DUP4 GT PUSH3 0x944 JUMPI DUP3 SWAP1 SUB PUSH1 0x1F AND DUP3 ADD SWAP2 JUMPDEST POP POP POP SWAP2 DUP4 MSTORE POP POP PUSH1 0x5 DUP3 ADD SLOAD PUSH1 0x20 DUP3 ADD MSTORE PUSH1 0x6 DUP3 ADD SLOAD PUSH1 0x1 PUSH1 0x1 PUSH1 0xA0 SHL SUB DUP1 DUP3 AND PUSH1 0x40 DUP5 ADD MSTORE PUSH1 0x1 PUSH1 0xA0 SHL SWAP1 SWAP2 DIV PUSH1 0xFF AND ISZERO ISZERO PUSH1 0x60 DUP4 ADD MSTORE PUSH1 0x7 DUP4 ADD SLOAD DUP2 AND PUSH1 0x80 DUP4 ADD MSTORE PUSH1 0x8 SWAP1 SWAP3 ADD SLOAD SWAP1 SWAP2 AND PUSH1 0xA0 SWAP1 SWAP2 ADD MSTORE DUP3 MLOAD DUP4 SWAP1 DUP7 SWAP1 DUP2 LT PUSH3 0x9CD JUMPI PUSH3 0x9CD PUSH3 0x32CC JUMP JUMPDEST PUSH1 0x20 MUL PUSH1 0x20 ADD ADD DUP2 SWAP1 MSTORE POP DUP4 DUP1 PUSH3 0x9E5 SWAP1 PUSH3 0x3478 JUMP JUMPDEST SWAP5 POP POP JUMPDEST PUSH1 0x1 ADD PUSH3 0x716 JUMP JUMPDEST POP SWAP5 SWAP4 POP POP POP POP JUMP JUMPDEST CALLER PUSH1 0x0 SWAP1 DUP2 MSTORE PUSH1 0x20 DUP2 SWAP1 MSTORE PUSH1 0x40 DUP2 KECCAK256 SWAP1 DUP1 DUP1 JUMPDEST DUP4 SLOAD DUP2 LT ISZERO PUSH3 0xA5C JUMPI DUP6 DUP5 DUP3 DUP2 SLOAD DUP2 LT PUSH3 0xA2E JUMPI PUSH3 0xA2E PUSH3 0x32CC JUMP JUMPDEST SWAP1 PUSH1 0x0 MSTORE PUSH1 0x20 PUSH1 0x0 KECCAK256 SWAP1 PUSH1 0x9 MUL ADD PUSH1 0x0 ADD SLOAD SUB PUSH3 0xA53 JUMPI PUSH1 0x1 SWAP3 POP DUP1 SWAP2 POP PUSH3 0xA5C JUMP JUMPDEST PUSH1 0x1 ADD PUSH3 0xA0E JUMP JUMPDEST POP DUP2 PUSH3 0xA7D JUMPI PUSH1 0x40 MLOAD PUSH3 0x461BCD PUSH1 0xE5 SHL DUP2 MSTORE PUSH1 0x4 ADD PUSH3 0x283 SWAP1 PUSH3 0x3494 JUMP JUMPDEST DUP3 DUP2 DUP2 SLOAD DUP2 LT PUSH3 0xA92 JUMPI PUSH3 0xA92 PUSH3 0x32CC JUMP JUMPDEST SWAP1 PUSH1 0x0 MSTORE PUSH1 0x20 PUSH1 0x0 KECCAK256 SWAP1 PUSH1 0x9 MUL ADD PUSH1 0x6 ADD PUSH1 0x14 SWAP1 SLOAD SWAP1 PUSH2 0x100 EXP SWAP1 DIV PUSH1 0xFF AND PUSH3 0xAFF JUMPI PUSH1 0x40 MLOAD PUSH3 0x461BCD PUSH1 0xE5 SHL DUP2 MSTORE PUSH1 0x20 PUSH1 0x4 DUP3 ADD MSTORE PUSH1 0x1B PUSH1 0x24 DUP3 ADD MSTORE PUSH32 0x4974656D20686173206E6F74206265656E207075726368617365640000000000 PUSH1 0x44 DUP3 ADD MSTORE PUSH1 0x64 ADD PUSH3 0x283 JUMP JUMPDEST DUP3 DUP2 DUP2 SLOAD DUP2 LT PUSH3 0xB14 JUMPI PUSH3 0xB14 PUSH3 0x32CC JUMP JUMPDEST PUSH1 0x0 SWAP2 DUP3 MSTORE PUSH1 0x20 SWAP1 SWAP2 KECCAK256 PUSH1 0x9 SWAP1 SWAP2 MUL ADD PUSH1 0x8 ADD SLOAD PUSH1 0x1 PUSH1 0x1 PUSH1 0xA0 SHL SUB AND CALLER EQ PUSH3 0xB81 JUMPI PUSH1 0x40 MLOAD PUSH3 0x461BCD PUSH1 0xE5 SHL DUP2 MSTORE PUSH1 0x20 PUSH1 0x4 DUP3 ADD MSTORE PUSH1 0x1E PUSH1 0x24 DUP3 ADD MSTORE PUSH32 0x4F6E6C792073656C6C65722063616E20736869702074686973206974656D0000 PUSH1 0x44 DUP3 ADD MSTORE PUSH1 0x64 ADD PUSH3 0x283 JUMP JUMPDEST DUP3 DUP2 DUP2 SLOAD DUP2 LT PUSH3 0xB96 JUMPI PUSH3 0xB96 PUSH3 0x32CC JUMP JUMPDEST PUSH1 0x0 SWAP2 DUP3 MSTORE PUSH1 0x20 SWAP1 SWAP2 KECCAK256 PUSH1 0x7 PUSH1 0x9 SWAP1 SWAP3 MUL ADD ADD SLOAD PUSH1 0x40 MLOAD PUSH4 0x6E9FD09B PUSH1 0xE1 SHL DUP2 MSTORE PUSH1 0x1 PUSH1 0x1 PUSH1 0xA0 SHL SUB SWAP1 SWAP2 AND SWAP1 PUSH4 0xDD3FA136 SWAP1 PUSH3 0xBD9 SWAP1 DUP8 SWAP1 PUSH1 0x4 ADD PUSH3 0x34BC JUMP JUMPDEST PUSH1 0x0 PUSH1 0x40 MLOAD DUP1 DUP4 SUB DUP2 PUSH1 0x0 DUP8 DUP1 EXTCODESIZE ISZERO DUP1 ISZERO PUSH3 0xBF4 JUMPI PUSH1 0x0 DUP1 REVERT JUMPDEST POP GAS CALL ISZERO DUP1 ISZERO PUSH3 0xC09 JUMPI RETURNDATASIZE PUSH1 0x0 DUP1 RETURNDATACOPY RETURNDATASIZE PUSH1 0x0 REVERT JUMPDEST POP POP POP POP PUSH3 0xCEA PUSH1 0x40 MLOAD DUP1 PUSH1 0x60 ADD PUSH1 0x40 MSTORE DUP1 PUSH1 0x2D DUP2 MSTORE PUSH1 0x20 ADD PUSH3 0x5191 PUSH1 0x2D SWAP2 CODECOPY DUP5 DUP4 DUP2 SLOAD DUP2 LT PUSH3 0xC40 JUMPI PUSH3 0xC40 PUSH3 0x32CC JUMP JUMPDEST SWAP1 PUSH1 0x0 MSTORE PUSH1 0x20 PUSH1 0x0 KECCAK256 SWAP1 PUSH1 0x9 MUL ADD PUSH1 0x1 ADD DUP1 SLOAD PUSH3 0xC5E SWAP1 PUSH3 0x330D JUMP JUMPDEST DUP1 PUSH1 0x1F ADD PUSH1 0x20 DUP1 SWAP2 DIV MUL PUSH1 0x20 ADD PUSH1 0x40 MLOAD SWAP1 DUP2 ADD PUSH1 0x40 MSTORE DUP1 SWAP3 SWAP2 SWAP1 DUP2 DUP2 MSTORE PUSH1 0x20 ADD DUP3 DUP1 SLOAD PUSH3 0xC8C SWAP1 PUSH3 0x330D JUMP JUMPDEST DUP1 ISZERO PUSH3 0xCDD JUMPI DUP1 PUSH1 0x1F LT PUSH3 0xCB1 JUMPI PUSH2 0x100 DUP1 DUP4 SLOAD DIV MUL DUP4 MSTORE SWAP2 PUSH1 0x20 ADD SWAP2 PUSH3 0xCDD JUMP JUMPDEST DUP3 ADD SWAP2 SWAP1 PUSH1 0x0 MSTORE PUSH1 0x20 PUSH1 0x0 KECCAK256 SWAP1 JUMPDEST DUP2 SLOAD DUP2 MSTORE SWAP1 PUSH1 0x1 ADD SWAP1 PUSH1 0x20 ADD DUP1 DUP4 GT PUSH3 0xCBF JUMPI DUP3 SWAP1 SUB PUSH1 0x1F AND DUP3 ADD SWAP2 JUMPDEST POP POP POP POP POP CALLER DUP8 PUSH3 0x2CBE JUMP JUMPDEST POP POP POP POP POP JUMP JUMPDEST CALLER PUSH1 0x0 SWAP1 DUP2 MSTORE PUSH1 0x20 DUP2 SWAP1 MSTORE PUSH1 0x40 DUP2 KECCAK256 SWAP1 DUP1 DUP1 JUMPDEST DUP4 SLOAD DUP2 LT ISZERO PUSH3 0xDA6 JUMPI DUP5 DUP5 DUP3 DUP2 SLOAD DUP2 LT PUSH3 0xD24 JUMPI PUSH3 0xD24 PUSH3 0x32CC JUMP JUMPDEST SWAP1 PUSH1 0x0 MSTORE PUSH1 0x20 PUSH1 0x0 KECCAK256 SWAP1 PUSH1 0x9 MUL ADD PUSH1 0x0 ADD SLOAD SUB PUSH3 0xD9D JUMPI DUP4 DUP2 DUP2 SLOAD DUP2 LT PUSH3 0xD51 JUMPI PUSH3 0xD51 PUSH3 0x32CC JUMP JUMPDEST SWAP1 PUSH1 0x0 MSTORE PUSH1 0x20 PUSH1 0x0 KECCAK256 SWAP1 PUSH1 0x9 MUL ADD PUSH1 0x6 ADD PUSH1 0x14 SWAP1 SLOAD SWAP1 PUSH2 0x100 EXP SWAP1 DIV PUSH1 0xFF AND ISZERO PUSH3 0xD90 JUMPI PUSH1 0x40 MLOAD PUSH3 0x461BCD PUSH1 0xE5 SHL DUP2 MSTORE PUSH1 0x4 ADD PUSH3 0x283 SWAP1 PUSH3 0x32E2 JUMP JUMPDEST PUSH1 0x1 SWAP3 POP DUP1 SWAP2 POP PUSH3 0xDA6 JUMP JUMPDEST PUSH1 0x1 ADD PUSH3 0xD04 JUMP JUMPDEST POP DUP2 PUSH3 0xDEC JUMPI PUSH1 0x40 MLOAD PUSH3 0x461BCD PUSH1 0xE5 SHL DUP2 MSTORE PUSH1 0x20 PUSH1 0x4 DUP3 ADD MSTORE PUSH1 0x13 PUSH1 0x24 DUP3 ADD MSTORE PUSH19 0x125D195B48191BD95CC81B9BDD08195E1A5CDD PUSH1 0x6A SHL PUSH1 0x44 DUP3 ADD MSTORE PUSH1 0x64 ADD PUSH3 0x283 JUMP JUMPDEST DUP3 SLOAD PUSH1 0x0 SWAP1 PUSH3 0xDFF SWAP1 PUSH1 0x1 SWAP1 PUSH3 0x34D1 JUMP JUMPDEST SWAP1 POP DUP1 DUP3 EQ PUSH3 0xF4E JUMPI DUP4 DUP2 DUP2 SLOAD DUP2 LT PUSH3 0xE1E JUMPI PUSH3 0xE1E PUSH3 0x32CC JUMP JUMPDEST SWAP1 PUSH1 0x0 MSTORE PUSH1 0x20 PUSH1 0x0 KECCAK256 SWAP1 PUSH1 0x9 MUL ADD DUP5 DUP4 DUP2 SLOAD DUP2 LT PUSH3 0xE41 JUMPI PUSH3 0xE41 PUSH3 0x32CC JUMP JUMPDEST PUSH1 0x0 SWAP2 DUP3 MSTORE PUSH1 0x20 SWAP1 SWAP2 KECCAK256 DUP3 SLOAD PUSH1 0x9 SWAP1 SWAP3 MUL ADD SWAP1 DUP2 SSTORE PUSH1 0x1 DUP1 DUP3 ADD SWAP1 PUSH3 0xE6A SWAP1 DUP5 ADD DUP3 PUSH3 0x34ED JUMP JUMPDEST POP PUSH1 0x2 DUP2 DUP2 ADD SWAP1 PUSH3 0xE7F SWAP1 DUP5 ADD DUP3 PUSH3 0x34ED JUMP JUMPDEST POP PUSH1 0x3 DUP3 ADD SLOAD DUP2 PUSH1 0x3 ADD SSTORE PUSH1 0x4 DUP3 ADD DUP2 PUSH1 0x4 ADD SWAP1 DUP2 PUSH3 0xEA0 SWAP2 SWAP1 PUSH3 0x34ED JUMP JUMPDEST POP PUSH1 0x5 DUP3 DUP2 ADD SLOAD SWAP1 DUP3 ADD SSTORE PUSH1 0x6 DUP1 DUP4 ADD DUP1 SLOAD SWAP2 DUP4 ADD DUP1 SLOAD PUSH1 0x1 PUSH1 0x1 PUSH1 0xA0 SHL SUB NOT DUP1 DUP3 AND PUSH1 0x1 PUSH1 0x1 PUSH1 0xA0 SHL SUB SWAP6 DUP7 AND SWAP1 DUP2 OR DUP5 SSTORE SWAP4 SLOAD PUSH1 0xFF PUSH1 0x1 PUSH1 0xA0 SHL SWAP2 DUP3 SWAP1 DIV AND ISZERO ISZERO MUL PUSH1 0x1 PUSH1 0x1 PUSH1 0xA8 SHL SUB NOT SWAP1 SWAP3 AND SWAP1 SWAP4 OR OR SWAP1 SSTORE PUSH1 0x7 DUP1 DUP6 ADD SLOAD SWAP1 DUP5 ADD DUP1 SLOAD DUP4 AND SWAP2 DUP5 AND SWAP2 SWAP1 SWAP2 OR SWAP1 SSTORE PUSH1 0x8 SWAP4 DUP5 ADD SLOAD SWAP4 SWAP1 SWAP3 ADD DUP1 SLOAD SWAP1 SWAP3 AND SWAP3 AND SWAP2 SWAP1 SWAP2 OR SWAP1 SSTORE DUP4 SLOAD DUP6 SWAP1 DUP6 SWAP1 DUP5 SWAP1 DUP2 LT PUSH3 0xF3C JUMPI PUSH3 0xF3C PUSH3 0x32CC JUMP JUMPDEST PUSH1 0x0 SWAP2 DUP3 MSTORE PUSH1 0x20 SWAP1 SWAP2 KECCAK256 PUSH1 0x9 SWAP1 SWAP2 MUL ADD SSTORE JUMPDEST DUP4 DUP1 SLOAD DUP1 PUSH3 0xF61 JUMPI PUSH3 0xF61 PUSH3 0x35CF JUMP JUMPDEST PUSH1 0x0 DUP3 DUP2 MSTORE PUSH1 0x20 DUP2 KECCAK256 PUSH1 0x9 PUSH1 0x0 NOT SWAP1 SWAP4 ADD SWAP3 DUP4 MUL ADD DUP2 DUP2 SSTORE SWAP1 PUSH3 0xF89 PUSH1 0x1 DUP4 ADD DUP3 PUSH3 0x2E00 JUMP JUMPDEST PUSH3 0xF99 PUSH1 0x2 DUP4 ADD PUSH1 0x0 PUSH3 0x2E00 JUMP JUMPDEST PUSH1 0x3 DUP3 ADD PUSH1 0x0 SWAP1 SSTORE PUSH1 0x4 DUP3 ADD PUSH1 0x0 PUSH3 0xFB3 SWAP2 SWAP1 PUSH3 0x2E00 JUMP JUMPDEST POP PUSH1 0x0 PUSH1 0x5 DUP3 ADD SSTORE PUSH1 0x6 DUP2 ADD DUP1 SLOAD PUSH1 0x1 PUSH1 0x1 PUSH1 0xA8 SHL SUB NOT AND SWAP1 SSTORE PUSH1 0x7 DUP2 ADD DUP1 SLOAD PUSH1 0x1 PUSH1 0x1 PUSH1 0xA0 SHL SUB NOT SWAP1 DUP2 AND SWAP1 SWAP2 SSTORE PUSH1 0x8 SWAP1 SWAP2 ADD DUP1 SLOAD SWAP1 SWAP2 AND SWAP1 SSTORE SWAP1 SSTORE POP POP POP POP POP JUMP JUMPDEST PUSH1 0x0 DUP3 GT DUP1 ISZERO PUSH3 0x100A JUMPI POP PUSH1 0x1 SLOAD DUP3 GT ISZERO JUMPDEST PUSH3 0x104A JUMPI PUSH1 0x40 MLOAD PUSH3 0x461BCD PUSH1 0xE5 SHL DUP2 MSTORE PUSH1 0x20 PUSH1 0x4 DUP3 ADD MSTORE PUSH1 0xF PUSH1 0x24 DUP3 ADD MSTORE PUSH15 0x125B9D985B1A59081A5D195B481251 PUSH1 0x8A SHL PUSH1 0x44 DUP3 ADD MSTORE PUSH1 0x64 ADD PUSH3 0x283 JUMP JUMPDEST PUSH1 0x1 PUSH1 0x1 PUSH1 0xA0 SHL SUB DUP2 AND PUSH1 0x0 SWAP1 DUP2 MSTORE PUSH1 0x20 DUP2 SWAP1 MSTORE PUSH1 0x40 DUP2 KECCAK256 SWAP1 DUP1 DUP1 JUMPDEST DUP4 SLOAD DUP2 LT ISZERO PUSH3 0x10B4 JUMPI DUP6 DUP5 DUP3 DUP2 SLOAD DUP2 LT PUSH3 0x1086 JUMPI PUSH3 0x1086 PUSH3 0x32CC JUMP JUMPDEST SWAP1 PUSH1 0x0 MSTORE PUSH1 0x20 PUSH1 0x0 KECCAK256 SWAP1 PUSH1 0x9 MUL ADD PUSH1 0x0 ADD SLOAD SUB PUSH3 0x10AB JUMPI PUSH1 0x1 SWAP3 POP DUP1 SWAP2 POP PUSH3 0x10B4 JUMP JUMPDEST PUSH1 0x1 ADD PUSH3 0x1066 JUMP JUMPDEST POP DUP2 PUSH3 0x10D5 JUMPI PUSH1 0x40 MLOAD PUSH3 0x461BCD PUSH1 0xE5 SHL DUP2 MSTORE PUSH1 0x4 ADD PUSH3 0x283 SWAP1 PUSH3 0x3494 JUMP JUMPDEST DUP3 DUP2 DUP2 SLOAD DUP2 LT PUSH3 0x10EA JUMPI PUSH3 0x10EA PUSH3 0x32CC JUMP JUMPDEST SWAP1 PUSH1 0x0 MSTORE PUSH1 0x20 PUSH1 0x0 KECCAK256 SWAP1 PUSH1 0x9 MUL ADD PUSH1 0x6 ADD PUSH1 0x14 SWAP1 SLOAD SWAP1 PUSH2 0x100 EXP SWAP1 DIV PUSH1 0xFF AND ISZERO PUSH3 0x1129 JUMPI PUSH1 0x40 MLOAD PUSH3 0x461BCD PUSH1 0xE5 SHL DUP2 MSTORE PUSH1 0x4 ADD PUSH3 0x283 SWAP1 PUSH3 0x32E2 JUMP JUMPDEST DUP4 PUSH1 0x1 PUSH1 0x1 PUSH1 0xA0 SHL SUB AND DUP4 DUP3 DUP2 SLOAD DUP2 LT PUSH3 0x1148 JUMPI PUSH3 0x1148 PUSH3 0x32CC JUMP JUMPDEST PUSH1 0x0 SWAP2 DUP3 MSTORE PUSH1 0x20 SWAP1 SWAP2 KECCAK256 PUSH1 0x8 PUSH1 0x9 SWAP1 SWAP3 MUL ADD ADD SLOAD PUSH1 0x1 PUSH1 0x1 PUSH1 0xA0 SHL SUB AND EQ PUSH3 0x11B4 JUMPI PUSH1 0x40 MLOAD PUSH3 0x461BCD PUSH1 0xE5 SHL DUP2 MSTORE PUSH1 0x20 PUSH1 0x4 DUP3 ADD MSTORE PUSH1 0x1B PUSH1 0x24 DUP3 ADD MSTORE PUSH32 0x4F776E65722063616E206E6F742062757920746865206974656D2E0000000000 PUSH1 0x44 DUP3 ADD MSTORE PUSH1 0x64 ADD PUSH3 0x283 JUMP JUMPDEST DUP3 DUP2 DUP2 SLOAD DUP2 LT PUSH3 0x11C9 JUMPI PUSH3 0x11C9 PUSH3 0x32CC JUMP JUMPDEST SWAP1 PUSH1 0x0 MSTORE PUSH1 0x20 PUSH1 0x0 KECCAK256 SWAP1 PUSH1 0x9 MUL ADD PUSH1 0x3 ADD SLOAD CALLVALUE EQ PUSH3 0x1237 JUMPI PUSH1 0x40 MLOAD PUSH3 0x461BCD PUSH1 0xE5 SHL DUP2 MSTORE PUSH1 0x20 PUSH1 0x4 DUP3 ADD MSTORE PUSH1 0x23 PUSH1 0x24 DUP3 ADD MSTORE PUSH32 0x496E636F727265637420616D6F756E74206F662065746865722F776569207365 PUSH1 0x44 DUP3 ADD MSTORE PUSH3 0x373A17 PUSH1 0xE9 SHL PUSH1 0x64 DUP3 ADD MSTORE PUSH1 0x84 ADD PUSH3 0x283 JUMP JUMPDEST PUSH1 0x0 CALLVALUE CALLER DUP7 PUSH1 0x40 MLOAD PUSH3 0x124A SWAP1 PUSH3 0x2E3F JUMP JUMPDEST PUSH1 0x1 PUSH1 0x1 PUSH1 0xA0 SHL SUB SWAP3 DUP4 AND DUP2 MSTORE SWAP2 AND PUSH1 0x20 DUP3 ADD MSTORE PUSH1 0x40 ADD PUSH1 0x40 MLOAD DUP1 SWAP2 SUB SWAP1 DUP3 CREATE SWAP1 POP DUP1 ISZERO DUP1 ISZERO PUSH3 0x127F JUMPI RETURNDATASIZE PUSH1 0x0 DUP1 RETURNDATACOPY RETURNDATASIZE PUSH1 0x0 REVERT JUMPDEST POP SWAP1 POP CALLER DUP5 DUP4 DUP2 SLOAD DUP2 LT PUSH3 0x1298 JUMPI PUSH3 0x1298 PUSH3 0x32CC JUMP JUMPDEST SWAP1 PUSH1 0x0 MSTORE PUSH1 0x20 PUSH1 0x0 KECCAK256 SWAP1 PUSH1 0x9 MUL ADD PUSH1 0x6 ADD PUSH1 0x0 PUSH2 0x100 EXP DUP2 SLOAD DUP2 PUSH1 0x1 PUSH1 0x1 PUSH1 0xA0 SHL SUB MUL NOT AND SWAP1 DUP4 PUSH1 0x1 PUSH1 0x1 PUSH1 0xA0 SHL SUB AND MUL OR SWAP1 SSTORE POP PUSH1 0x1 DUP5 DUP4 DUP2 SLOAD DUP2 LT PUSH3 0x12E4 JUMPI PUSH3 0x12E4 PUSH3 0x32CC JUMP JUMPDEST SWAP1 PUSH1 0x0 MSTORE PUSH1 0x20 PUSH1 0x0 KECCAK256 SWAP1 PUSH1 0x9 MUL ADD PUSH1 0x6 ADD PUSH1 0x14 PUSH2 0x100 EXP DUP2 SLOAD DUP2 PUSH1 0xFF MUL NOT AND SWAP1 DUP4 ISZERO ISZERO MUL OR SWAP1 SSTORE POP DUP1 DUP5 DUP4 DUP2 SLOAD DUP2 LT PUSH3 0x1322 JUMPI PUSH3 0x1322 PUSH3 0x32CC JUMP JUMPDEST SWAP1 PUSH1 0x0 MSTORE PUSH1 0x20 PUSH1 0x0 KECCAK256 SWAP1 PUSH1 0x9 MUL ADD PUSH1 0x7 ADD PUSH1 0x0 PUSH2 0x100 EXP DUP2 SLOAD DUP2 PUSH1 0x1 PUSH1 0x1 PUSH1 0xA0 SHL SUB MUL NOT AND SWAP1 DUP4 PUSH1 0x1 PUSH1 0x1 PUSH1 0xA0 SHL SUB AND MUL OR SWAP1 SSTORE POP PUSH3 0x144F PUSH1 0x40 MLOAD DUP1 PUSH1 0x40 ADD PUSH1 0x40 MSTORE DUP1 PUSH1 0x18 DUP2 MSTORE PUSH1 0x20 ADD PUSH32 0x4974656D207075726368617365643A2025732062792025730000000000000000 DUP2 MSTORE POP DUP6 DUP5 DUP2 SLOAD DUP2 LT PUSH3 0x13A6 JUMPI PUSH3 0x13A6 PUSH3 0x32CC JUMP JUMPDEST SWAP1 PUSH1 0x0 MSTORE PUSH1 0x20 PUSH1 0x0 KECCAK256 SWAP1 PUSH1 0x9 MUL ADD PUSH1 0x1 ADD DUP1 SLOAD PUSH3 0x13C4 SWAP1 PUSH3 0x330D JUMP JUMPDEST DUP1 PUSH1 0x1F ADD PUSH1 0x20 DUP1 SWAP2 DIV MUL PUSH1 0x20 ADD PUSH1 0x40 MLOAD SWAP1 DUP2 ADD PUSH1 0x40 MSTORE DUP1 SWAP3 SWAP2 SWAP1 DUP2 DUP2 MSTORE PUSH1 0x20 ADD DUP3 DUP1 SLOAD PUSH3 0x13F2 SWAP1 PUSH3 0x330D JUMP JUMPDEST DUP1 ISZERO PUSH3 0x1443 JUMPI DUP1 PUSH1 0x1F LT PUSH3 0x1417 JUMPI PUSH2 0x100 DUP1 DUP4 SLOAD DIV MUL DUP4 MSTORE SWAP2 PUSH1 0x20 ADD SWAP2 PUSH3 0x1443 JUMP JUMPDEST DUP3 ADD SWAP2 SWAP1 PUSH1 0x0 MSTORE PUSH1 0x20 PUSH1 0x0 KECCAK256 SWAP1 JUMPDEST DUP2 SLOAD DUP2 MSTORE SWAP1 PUSH1 0x1 ADD SWAP1 PUSH1 0x20 ADD DUP1 DUP4 GT PUSH3 0x1425 JUMPI DUP3 SWAP1 SUB PUSH1 0x1F AND DUP3 ADD SWAP2 JUMPDEST POP POP POP POP POP CALLER PUSH3 0x2D11 JUMP JUMPDEST POP POP POP POP POP POP JUMP JUMPDEST PUSH1 0x60 PUSH1 0x0 DUP1 PUSH1 0x0 JUMPDEST PUSH1 0x2 SLOAD DUP2 LT ISZERO PUSH3 0x151C JUMPI PUSH1 0x0 DUP1 PUSH1 0x0 PUSH1 0x2 DUP5 DUP2 SLOAD DUP2 LT PUSH3 0x1485 JUMPI PUSH3 0x1485 PUSH3 0x32CC JUMP JUMPDEST PUSH1 0x0 SWAP2 DUP3 MSTORE PUSH1 0x20 DUP1 DUP4 KECCAK256 SWAP1 SWAP2 ADD SLOAD PUSH1 0x1 PUSH1 0x1 PUSH1 0xA0 SHL SUB AND DUP4 MSTORE DUP3 ADD SWAP3 SWAP1 SWAP3 MSTORE PUSH1 0x40 ADD DUP2 KECCAK256 SWAP2 POP JUMPDEST DUP2 SLOAD DUP2 LT ISZERO PUSH3 0x1511 JUMPI CALLER PUSH1 0x1 PUSH1 0x1 PUSH1 0xA0 SHL SUB AND DUP3 DUP3 DUP2 SLOAD DUP2 LT PUSH3 0x14D5 JUMPI PUSH3 0x14D5 PUSH3 0x32CC JUMP JUMPDEST PUSH1 0x0 SWAP2 DUP3 MSTORE PUSH1 0x20 SWAP1 SWAP2 KECCAK256 PUSH1 0x6 PUSH1 0x9 SWAP1 SWAP3 MUL ADD ADD SLOAD PUSH1 0x1 PUSH1 0x1 PUSH1 0xA0 SHL SUB AND SUB PUSH3 0x1508 JUMPI DUP5 PUSH3 0x1504 DUP2 PUSH3 0x3478 JUMP JUMPDEST SWAP6 POP POP JUMPDEST PUSH1 0x1 ADD PUSH3 0x14AC JUMP JUMPDEST POP POP PUSH1 0x1 ADD PUSH3 0x145F JUMP JUMPDEST POP PUSH1 0x0 DUP3 PUSH8 0xFFFFFFFFFFFFFFFF DUP2 GT ISZERO PUSH3 0x153B JUMPI PUSH3 0x153B PUSH3 0x2E68 JUMP JUMPDEST PUSH1 0x40 MLOAD SWAP1 DUP1 DUP3 MSTORE DUP1 PUSH1 0x20 MUL PUSH1 0x20 ADD DUP3 ADD PUSH1 0x40 MSTORE DUP1 ISZERO PUSH3 0x1578 JUMPI DUP2 PUSH1 0x20 ADD JUMPDEST PUSH3 0x1564 PUSH3 0x2D90 JUMP JUMPDEST DUP2 MSTORE PUSH1 0x20 ADD SWAP1 PUSH1 0x1 SWAP1 SUB SWAP1 DUP2 PUSH3 0x155A JUMPI SWAP1 POP JUMPDEST POP SWAP1 POP PUSH1 0x0 JUMPDEST PUSH1 0x2 SLOAD DUP2 LT ISZERO PUSH3 0x18BA JUMPI PUSH1 0x0 DUP1 PUSH1 0x0 PUSH1 0x2 DUP5 DUP2 SLOAD DUP2 LT PUSH3 0x15A4 JUMPI PUSH3 0x15A4 PUSH3 0x32CC JUMP JUMPDEST PUSH1 0x0 SWAP2 DUP3 MSTORE PUSH1 0x20 DUP1 DUP4 KECCAK256 SWAP1 SWAP2 ADD SLOAD PUSH1 0x1 PUSH1 0x1 PUSH1 0xA0 SHL SUB AND DUP4 MSTORE DUP3 ADD SWAP3 SWAP1 SWAP3 MSTORE PUSH1 0x40 ADD DUP2 KECCAK256 SWAP2 POP JUMPDEST DUP2 SLOAD DUP2 LT ISZERO PUSH3 0x18AF JUMPI CALLER PUSH1 0x1 PUSH1 0x1 PUSH1 0xA0 SHL SUB AND DUP3 DUP3 DUP2 SLOAD DUP2 LT PUSH3 0x15F4 JUMPI PUSH3 0x15F4 PUSH3 0x32CC JUMP JUMPDEST PUSH1 0x0 SWAP2 DUP3 MSTORE PUSH1 0x20 SWAP1 SWAP2 KECCAK256 PUSH1 0x6 PUSH1 0x9 SWAP1 SWAP3 MUL ADD ADD SLOAD PUSH1 0x1 PUSH1 0x1 PUSH1 0xA0 SHL SUB AND SUB PUSH3 0x18A6 JUMPI DUP2 DUP2 DUP2 SLOAD DUP2 LT PUSH3 0x162C JUMPI PUSH3 0x162C PUSH3 0x32CC JUMP JUMPDEST SWAP1 PUSH1 0x0 MSTORE PUSH1 0x20 PUSH1 0x0 KECCAK256 SWAP1 PUSH1 0x9 MUL ADD PUSH1 0x40 MLOAD DUP1 PUSH2 0x140 ADD PUSH1 0x40 MSTORE SWAP1 DUP2 PUSH1 0x0 DUP3 ADD SLOAD DUP2 MSTORE PUSH1 0x20 ADD PUSH1 0x1 DUP3 ADD DUP1 SLOAD PUSH3 0x1662 SWAP1 PUSH3 0x330D JUMP JUMPDEST DUP1 PUSH1 0x1F ADD PUSH1 0x20 DUP1 SWAP2 DIV MUL PUSH1 0x20 ADD PUSH1 0x40 MLOAD SWAP1 DUP2 ADD PUSH1 0x40 MSTORE DUP1 SWAP3 SWAP2 SWAP1 DUP2 DUP2 MSTORE PUSH1 0x20 ADD DUP3 DUP1 SLOAD PUSH3 0x1690 SWAP1 PUSH3 0x330D JUMP JUMPDEST DUP1 ISZERO PUSH3 0x16E1 JUMPI DUP1 PUSH1 0x1F LT PUSH3 0x16B5 JUMPI PUSH2 0x100 DUP1 DUP4 SLOAD DIV MUL DUP4 MSTORE SWAP2 PUSH1 0x20 ADD SWAP2 PUSH3 0x16E1 JUMP JUMPDEST DUP3 ADD SWAP2 SWAP1 PUSH1 0x0 MSTORE PUSH1 0x20 PUSH1 0x0 KECCAK256 SWAP1 JUMPDEST DUP2 SLOAD DUP2 MSTORE SWAP1 PUSH1 0x1 ADD SWAP1 PUSH1 0x20 ADD DUP1 DUP4 GT PUSH3 0x16C3 JUMPI DUP3 SWAP1 SUB PUSH1 0x1F AND DUP3 ADD SWAP2 JUMPDEST POP POP POP POP POP DUP2 MSTORE PUSH1 0x20 ADD PUSH1 0x2 DUP3 ADD DUP1 SLOAD PUSH3 0x16FC SWAP1 PUSH3 0x330D JUMP JUMPDEST DUP1 PUSH1 0x1F ADD PUSH1 0x20 DUP1 SWAP2 DIV MUL PUSH1 0x20 ADD PUSH1 0x40 MLOAD SWAP1 DUP2 ADD PUSH1 0x40 MSTORE DUP1 SWAP3 SWAP2 SWAP1 DUP2 DUP2 MSTORE PUSH1 0x20 ADD DUP3 DUP1 SLOAD PUSH3 0x172A SWAP1 PUSH3 0x330D JUMP JUMPDEST DUP1 ISZERO PUSH3 0x177B JUMPI DUP1 PUSH1 0x1F LT PUSH3 0x174F JUMPI PUSH2 0x100 DUP1 DUP4 SLOAD DIV MUL DUP4 MSTORE SWAP2 PUSH1 0x20 ADD SWAP2 PUSH3 0x177B JUMP JUMPDEST DUP3 ADD SWAP2 SWAP1 PUSH1 0x0 MSTORE PUSH1 0x20 PUSH1 0x0 KECCAK256 SWAP1 JUMPDEST DUP2 SLOAD DUP2 MSTORE SWAP1 PUSH1 0x1 ADD SWAP1 PUSH1 0x20 ADD DUP1 DUP4 GT PUSH3 0x175D JUMPI DUP3 SWAP1 SUB PUSH1 0x1F AND DUP3 ADD SWAP2 JUMPDEST POP POP POP POP POP DUP2 MSTORE PUSH1 0x20 ADD PUSH1 0x3 DUP3 ADD SLOAD DUP2 MSTORE PUSH1 0x20 ADD PUSH1 0x4 DUP3 ADD DUP1 SLOAD PUSH3 0x17A0 SWAP1 PUSH3 0x330D JUMP JUMPDEST DUP1 PUSH1 0x1F ADD PUSH1 0x20 DUP1 SWAP2 DIV MUL PUSH1 0x20 ADD PUSH1 0x40 MLOAD SWAP1 DUP2 ADD PUSH1 0x40 MSTORE DUP1 SWAP3 SWAP2 SWAP1 DUP2 DUP2 MSTORE PUSH1 0x20 ADD DUP3 DUP1 SLOAD PUSH3 0x17CE SWAP1 PUSH3 0x330D JUMP JUMPDEST DUP1 ISZERO PUSH3 0x181F JUMPI DUP1 PUSH1 0x1F LT PUSH3 0x17F3 JUMPI PUSH2 0x100 DUP1 DUP4 SLOAD DIV MUL DUP4 MSTORE SWAP2 PUSH1 0x20 ADD SWAP2 PUSH3 0x181F JUMP JUMPDEST DUP3 ADD SWAP2 SWAP1 PUSH1 0x0 MSTORE PUSH1 0x20 PUSH1 0x0 KECCAK256 SWAP1 JUMPDEST DUP2 SLOAD DUP2 MSTORE SWAP1 PUSH1 0x1 ADD SWAP1 PUSH1 0x20 ADD DUP1 DUP4 GT PUSH3 0x1801 JUMPI DUP3 SWAP1 SUB PUSH1 0x1F AND DUP3 ADD SWAP2 JUMPDEST POP POP POP SWAP2 DUP4 MSTORE POP POP PUSH1 0x5 DUP3 ADD SLOAD PUSH1 0x20 DUP3 ADD MSTORE PUSH1 0x6 DUP3 ADD SLOAD PUSH1 0x1 PUSH1 0x1 PUSH1 0xA0 SHL SUB DUP1 DUP3 AND PUSH1 0x40 DUP5 ADD MSTORE PUSH1 0x1 PUSH1 0xA0 SHL SWAP1 SWAP2 DIV PUSH1 0xFF AND ISZERO ISZERO PUSH1 0x60 DUP4 ADD MSTORE PUSH1 0x7 DUP4 ADD SLOAD DUP2 AND PUSH1 0x80 DUP4 ADD MSTORE PUSH1 0x8 SWAP1 SWAP3 ADD SLOAD SWAP1 SWAP2 AND PUSH1 0xA0 SWAP1 SWAP2 ADD MSTORE DUP5 MLOAD DUP6 SWAP1 DUP8 SWAP1 DUP2 LT PUSH3 0x188A JUMPI PUSH3 0x188A PUSH3 0x32CC JUMP JUMPDEST PUSH1 0x20 MUL PUSH1 0x20 ADD ADD DUP2 SWAP1 MSTORE POP DUP5 DUP1 PUSH3 0x18A2 SWAP1 PUSH3 0x3478 JUMP JUMPDEST SWAP6 POP POP JUMPDEST PUSH1 0x1 ADD PUSH3 0x15CB JUMP JUMPDEST POP POP PUSH1 0x1 ADD PUSH3 0x157E JUMP JUMPDEST POP SWAP4 SWAP3 POP POP POP JUMP JUMPDEST CALLER PUSH1 0x0 SWAP1 DUP2 MSTORE PUSH1 0x20 DUP2 DUP2 MSTORE PUSH1 0x40 DUP1 DUP4 KECCAK256 DUP1 SLOAD DUP3 MLOAD DUP2 DUP6 MUL DUP2 ADD DUP6 ADD SWAP1 SWAP4 MSTORE DUP1 DUP4 MSTORE PUSH1 0x60 SWAP5 SWAP3 SWAP4 SWAP2 SWAP3 SWAP1 SWAP2 DUP5 ADD JUMPDEST DUP3 DUP3 LT ISZERO PUSH3 0x1B56 JUMPI DUP4 DUP3 SWAP1 PUSH1 0x0 MSTORE PUSH1 0x20 PUSH1 0x0 KECCAK256 SWAP1 PUSH1 0x9 MUL ADD PUSH1 0x40 MLOAD DUP1 PUSH2 0x140 ADD PUSH1 0x40 MSTORE SWAP1 DUP2 PUSH1 0x0 DUP3 ADD SLOAD DUP2 MSTORE PUSH1 0x20 ADD PUSH1 0x1 DUP3 ADD DUP1 SLOAD PUSH3 0x1930 SWAP1 PUSH3 0x330D JUMP JUMPDEST DUP1 PUSH1 0x1F ADD PUSH1 0x20 DUP1 SWAP2 DIV MUL PUSH1 0x20 ADD PUSH1 0x40 MLOAD SWAP1 DUP2 ADD PUSH1 0x40 MSTORE DUP1 SWAP3 SWAP2 SWAP1 DUP2 DUP2 MSTORE PUSH1 0x20 ADD DUP3 DUP1 SLOAD PUSH3 0x195E SWAP1 PUSH3 0x330D JUMP JUMPDEST DUP1 ISZERO PUSH3 0x19AF JUMPI DUP1 PUSH1 0x1F LT PUSH3 0x1983 JUMPI PUSH2 0x100 DUP1 DUP4 SLOAD DIV MUL DUP4 MSTORE SWAP2 PUSH1 0x20 ADD SWAP2 PUSH3 0x19AF JUMP JUMPDEST DUP3 ADD SWAP2 SWAP1 PUSH1 0x0 MSTORE PUSH1 0x20 PUSH1 0x0 KECCAK256 SWAP1 JUMPDEST DUP2 SLOAD DUP2 MSTORE SWAP1 PUSH1 0x1 ADD SWAP1 PUSH1 0x20 ADD DUP1 DUP4 GT PUSH3 0x1991 JUMPI DUP3 SWAP1 SUB PUSH1 0x1F AND DUP3 ADD SWAP2 JUMPDEST POP POP POP POP POP DUP2 MSTORE PUSH1 0x20 ADD PUSH1 0x2 DUP3 ADD DUP1 SLOAD PUSH3 0x19CA SWAP1 PUSH3 0x330D JUMP JUMPDEST DUP1 PUSH1 0x1F ADD PUSH1 0x20 DUP1 SWAP2 DIV MUL PUSH1 0x20 ADD PUSH1 0x40 MLOAD SWAP1 DUP2 ADD PUSH1 0x40 MSTORE DUP1 SWAP3 SWAP2 SWAP1 DUP2 DUP2 MSTORE PUSH1 0x20 ADD DUP3 DUP1 SLOAD PUSH3 0x19F8 SWAP1 PUSH3 0x330D JUMP JUMPDEST DUP1 ISZERO PUSH3 0x1A49 JUMPI DUP1 PUSH1 0x1F LT PUSH3 0x1A1D JUMPI PUSH2 0x100 DUP1 DUP4 SLOAD DIV MUL DUP4 MSTORE SWAP2 PUSH1 0x20 ADD SWAP2 PUSH3 0x1A49 JUMP JUMPDEST DUP3 ADD SWAP2 SWAP1 PUSH1 0x0 MSTORE PUSH1 0x20 PUSH1 0x0 KECCAK256 SWAP1 JUMPDEST DUP2 SLOAD DUP2 MSTORE SWAP1 PUSH1 0x1 ADD SWAP1 PUSH1 0x20 ADD DUP1 DUP4 GT PUSH3 0x1A2B JUMPI DUP3 SWAP1 SUB PUSH1 0x1F AND DUP3 ADD SWAP2 JUMPDEST POP POP POP POP POP DUP2 MSTORE PUSH1 0x20 ADD PUSH1 0x3 DUP3 ADD SLOAD DUP2 MSTORE PUSH1 0x20 ADD PUSH1 0x4 DUP3 ADD DUP1 SLOAD PUSH3 0x1A6E SWAP1 PUSH3 0x330D JUMP JUMPDEST DUP1 PUSH1 0x1F ADD PUSH1 0x20 DUP1 SWAP2 DIV MUL PUSH1 0x20 ADD PUSH1 0x40 MLOAD SWAP1 DUP2 ADD PUSH1 0x40 MSTORE DUP1 SWAP3 SWAP2 SWAP1 DUP2 DUP2 MSTORE PUSH1 0x20 ADD DUP3 DUP1 SLOAD PUSH3 0x1A9C SWAP1 PUSH3 0x330D JUMP JUMPDEST DUP1 ISZERO PUSH3 0x1AED JUMPI DUP1 PUSH1 0x1F LT PUSH3 0x1AC1 JUMPI PUSH2 0x100 DUP1 DUP4 SLOAD DIV MUL DUP4 MSTORE SWAP2 PUSH1 0x20 ADD SWAP2 PUSH3 0x1AED JUMP JUMPDEST DUP3 ADD SWAP2 SWAP1 PUSH1 0x0 MSTORE PUSH1 0x20 PUSH1 0x0 KECCAK256 SWAP1 JUMPDEST DUP2 SLOAD DUP2 MSTORE SWAP1 PUSH1 0x1 ADD SWAP1 PUSH1 0x20 ADD DUP1 DUP4 GT PUSH3 0x1ACF JUMPI DUP3 SWAP1 SUB PUSH1 0x1F AND DUP3 ADD SWAP2 JUMPDEST POP POP POP SWAP2 DUP4 MSTORE POP POP PUSH1 0x5 DUP3 ADD SLOAD PUSH1 0x20 DUP1 DUP4 ADD SWAP2 SWAP1 SWAP2 MSTORE PUSH1 0x6 DUP4 ADD SLOAD PUSH1 0x1 PUSH1 0x1 PUSH1 0xA0 SHL SUB DUP1 DUP3 AND PUSH1 0x40 DUP6 ADD MSTORE PUSH1 0x1 PUSH1 0xA0 SHL SWAP1 SWAP2 DIV PUSH1 0xFF AND ISZERO ISZERO PUSH1 0x60 DUP5 ADD MSTORE PUSH1 0x7 DUP5 ADD SLOAD DUP2 AND PUSH1 0x80 DUP5 ADD MSTORE PUSH1 0x8 SWAP1 SWAP4 ADD SLOAD SWAP1 SWAP3 AND PUSH1 0xA0 SWAP1 SWAP2 ADD MSTORE SWAP1 DUP3 MSTORE PUSH1 0x1 SWAP3 SWAP1 SWAP3 ADD SWAP2 ADD PUSH3 0x18EF JUMP JUMPDEST POP POP POP POP SWAP1 POP SWAP1 JUMP JUMPDEST PUSH1 0x60 PUSH1 0x0 DUP1 PUSH1 0x0 JUMPDEST PUSH1 0x2 SLOAD DUP2 LT ISZERO PUSH3 0x1CCE JUMPI PUSH1 0x0 DUP1 PUSH1 0x0 PUSH1 0x2 DUP5 DUP2 SLOAD DUP2 LT PUSH3 0x1B8D JUMPI PUSH3 0x1B8D PUSH3 0x32CC JUMP JUMPDEST PUSH1 0x0 SWAP2 DUP3 MSTORE PUSH1 0x20 DUP1 DUP4 KECCAK256 SWAP1 SWAP2 ADD SLOAD PUSH1 0x1 PUSH1 0x1 PUSH1 0xA0 SHL SUB AND DUP4 MSTORE DUP3 ADD SWAP3 SWAP1 SWAP3 MSTORE PUSH1 0x40 ADD DUP2 KECCAK256 SWAP2 POP JUMPDEST DUP2 SLOAD DUP2 LT ISZERO PUSH3 0x1CC3 JUMPI DUP2 DUP2 DUP2 SLOAD DUP2 LT PUSH3 0x1BD3 JUMPI PUSH3 0x1BD3 PUSH3 0x32CC JUMP JUMPDEST SWAP1 PUSH1 0x0 MSTORE PUSH1 0x20 PUSH1 0x0 KECCAK256 SWAP1 PUSH1 0x9 MUL ADD PUSH1 0x6 ADD PUSH1 0x14 SWAP1 SLOAD SWAP1 PUSH2 0x100 EXP SWAP1 DIV PUSH1 0xFF AND DUP1 ISZERO PUSH3 0x1CA4 JUMPI POP PUSH1 0x3 DUP3 DUP3 DUP2 SLOAD DUP2 LT PUSH3 0x1C11 JUMPI PUSH3 0x1C11 PUSH3 0x32CC JUMP JUMPDEST PUSH1 0x0 SWAP2 DUP3 MSTORE PUSH1 0x20 SWAP2 DUP3 SWAP1 KECCAK256 PUSH1 0x7 PUSH1 0x9 SWAP1 SWAP3 MUL ADD ADD SLOAD PUSH1 0x40 DUP1 MLOAD PUSH4 0xAFE01043 PUSH1 0xE0 SHL DUP2 MSTORE SWAP1 MLOAD PUSH1 0x1 PUSH1 0x1 PUSH1 0xA0 SHL SUB SWAP1 SWAP3 AND SWAP3 PUSH4 0xAFE01043 SWAP3 PUSH1 0x4 DUP1 DUP5 ADD SWAP4 DUP3 SWAP1 SUB ADD DUP2 DUP7 GAS STATICCALL ISZERO DUP1 ISZERO PUSH3 0x1C68 JUMPI RETURNDATASIZE PUSH1 0x0 DUP1 RETURNDATACOPY RETURNDATASIZE PUSH1 0x0 REVERT JUMPDEST POP POP POP POP PUSH1 0x40 MLOAD RETURNDATASIZE PUSH1 0x1F NOT PUSH1 0x1F DUP3 ADD AND DUP3 ADD DUP1 PUSH1 0x40 MSTORE POP DUP2 ADD SWAP1 PUSH3 0x1C8E SWAP2 SWAP1 PUSH3 0x35FB JUMP JUMPDEST PUSH1 0x4 DUP2 GT ISZERO PUSH3 0x1CA2 JUMPI PUSH3 0x1CA2 PUSH3 0x35E5 JUMP JUMPDEST EQ JUMPDEST ISZERO PUSH3 0x1CBA JUMPI DUP5 PUSH3 0x1CB6 DUP2 PUSH3 0x3478 JUMP JUMPDEST SWAP6 POP POP JUMPDEST PUSH1 0x1 ADD PUSH3 0x1BB4 JUMP JUMPDEST POP POP PUSH1 0x1 ADD PUSH3 0x1B67 JUMP JUMPDEST POP PUSH1 0x0 DUP3 PUSH8 0xFFFFFFFFFFFFFFFF DUP2 GT ISZERO PUSH3 0x1CED JUMPI PUSH3 0x1CED PUSH3 0x2E68 JUMP JUMPDEST PUSH1 0x40 MLOAD SWAP1 DUP1 DUP3 MSTORE DUP1 PUSH1 0x20 MUL PUSH1 0x20 ADD DUP3 ADD PUSH1 0x40 MSTORE DUP1 ISZERO PUSH3 0x1D2A JUMPI DUP2 PUSH1 0x20 ADD JUMPDEST PUSH3 0x1D16 PUSH3 0x2D90 JUMP JUMPDEST DUP2 MSTORE PUSH1 0x20 ADD SWAP1 PUSH1 0x1 SWAP1 SUB SWAP1 DUP2 PUSH3 0x1D0C JUMPI SWAP1 POP JUMPDEST POP SWAP1 POP PUSH1 0x0 JUMPDEST PUSH1 0x2 SLOAD DUP2 LT ISZERO PUSH3 0x18BA JUMPI PUSH1 0x0 DUP1 PUSH1 0x0 PUSH1 0x2 DUP5 DUP2 SLOAD DUP2 LT PUSH3 0x1D56 JUMPI PUSH3 0x1D56 PUSH3 0x32CC JUMP JUMPDEST PUSH1 0x0 SWAP2 DUP3 MSTORE PUSH1 0x20 DUP1 DUP4 KECCAK256 SWAP1 SWAP2 ADD SLOAD PUSH1 0x1 PUSH1 0x1 PUSH1 0xA0 SHL SUB AND DUP4 MSTORE DUP3 ADD SWAP3 SWAP1 SWAP3 MSTORE PUSH1 0x40 ADD DUP2 KECCAK256 SWAP2 POP JUMPDEST DUP2 SLOAD DUP2 LT ISZERO PUSH3 0x210B JUMPI DUP2 DUP2 DUP2 SLOAD DUP2 LT PUSH3 0x1D9C JUMPI PUSH3 0x1D9C PUSH3 0x32CC JUMP JUMPDEST SWAP1 PUSH1 0x0 MSTORE PUSH1 0x20 PUSH1 0x0 KECCAK256 SWAP1 PUSH1 0x9 MUL ADD PUSH1 0x6 ADD PUSH1 0x14 SWAP1 SLOAD SWAP1 PUSH2 0x100 EXP SWAP1 DIV PUSH1 0xFF AND DUP1 ISZERO PUSH3 0x1E6D JUMPI POP PUSH1 0x3 DUP3 DUP3 DUP2 SLOAD DUP2 LT PUSH3 0x1DDA JUMPI PUSH3 0x1DDA PUSH3 0x32CC JUMP JUMPDEST PUSH1 0x0 SWAP2 DUP3 MSTORE PUSH1 0x20 SWAP2 DUP3 SWAP1 KECCAK256 PUSH1 0x7 PUSH1 0x9 SWAP1 SWAP3 MUL ADD ADD SLOAD PUSH1 0x40 DUP1 MLOAD PUSH4 0xAFE01043 PUSH1 0xE0 SHL DUP2 MSTORE SWAP1 MLOAD PUSH1 0x1 PUSH1 0x1 PUSH1 0xA0 SHL SUB SWAP1 SWAP3 AND SWAP3 PUSH4 0xAFE01043 SWAP3 PUSH1 0x4 DUP1 DUP5 ADD SWAP4 DUP3 SWAP1 SUB ADD DUP2 DUP7 GAS STATICCALL ISZERO DUP1 ISZERO PUSH3 0x1E31 JUMPI RETURNDATASIZE PUSH1 0x0 DUP1 RETURNDATACOPY RETURNDATASIZE PUSH1 0x0 REVERT JUMPDEST POP POP POP POP PUSH1 0x40 MLOAD RETURNDATASIZE PUSH1 0x1F NOT PUSH1 0x1F DUP3 ADD AND DUP3 ADD DUP1 PUSH1 0x40 MSTORE POP DUP2 ADD SWAP1 PUSH3 0x1E57 SWAP2 SWAP1 PUSH3 0x35FB JUMP JUMPDEST PUSH1 0x4 DUP2 GT ISZERO PUSH3 0x1E6B JUMPI PUSH3 0x1E6B PUSH3 0x35E5 JUMP JUMPDEST EQ JUMPDEST ISZERO PUSH3 0x2102 JUMPI DUP2 DUP2 DUP2 SLOAD DUP2 LT PUSH3 0x1E88 JUMPI PUSH3 0x1E88 PUSH3 0x32CC JUMP JUMPDEST SWAP1 PUSH1 0x0 MSTORE PUSH1 0x20 PUSH1 0x0 KECCAK256 SWAP1 PUSH1 0x9 MUL ADD PUSH1 0x40 MLOAD DUP1 PUSH2 0x140 ADD PUSH1 0x40 MSTORE SWAP1 DUP2 PUSH1 0x0 DUP3 ADD SLOAD DUP2 MSTORE PUSH1 0x20 ADD PUSH1 0x1 DUP3 ADD DUP1 SLOAD PUSH3 0x1EBE SWAP1 PUSH3 0x330D JUMP JUMPDEST DUP1 PUSH1 0x1F ADD PUSH1 0x20 DUP1 SWAP2 DIV MUL PUSH1 0x20 ADD PUSH1 0x40 MLOAD SWAP1 DUP2 ADD PUSH1 0x40 MSTORE DUP1 SWAP3 SWAP2 SWAP1 DUP2 DUP2 MSTORE PUSH1 0x20 ADD DUP3 DUP1 SLOAD PUSH3 0x1EEC SWAP1 PUSH3 0x330D JUMP JUMPDEST DUP1 ISZERO PUSH3 0x1F3D JUMPI DUP1 PUSH1 0x1F LT PUSH3 0x1F11 JUMPI PUSH2 0x100 DUP1 DUP4 SLOAD DIV MUL DUP4 MSTORE SWAP2 PUSH1 0x20 ADD SWAP2 PUSH3 0x1F3D JUMP JUMPDEST DUP3 ADD SWAP2 SWAP1 PUSH1 0x0 MSTORE PUSH1 0x20 PUSH1 0x0 KECCAK256 SWAP1 JUMPDEST DUP2 SLOAD DUP2 MSTORE SWAP1 PUSH1 0x1 ADD SWAP1 PUSH1 0x20 ADD DUP1 DUP4 GT PUSH3 0x1F1F JUMPI DUP3 SWAP1 SUB PUSH1 0x1F AND DUP3 ADD SWAP2 JUMPDEST POP POP POP POP POP DUP2 MSTORE PUSH1 0x20 ADD PUSH1 0x2 DUP3 ADD DUP1 SLOAD PUSH3 0x1F58 SWAP1 PUSH3 0x330D JUMP JUMPDEST DUP1 PUSH1 0x1F ADD PUSH1 0x20 DUP1 SWAP2 DIV MUL PUSH1 0x20 ADD PUSH1 0x40 MLOAD SWAP1 DUP2 ADD PUSH1 0x40 MSTORE DUP1 SWAP3 SWAP2 SWAP1 DUP2 DUP2 MSTORE PUSH1 0x20 ADD DUP3 DUP1 SLOAD PUSH3 0x1F86 SWAP1 PUSH3 0x330D JUMP JUMPDEST DUP1 ISZERO PUSH3 0x1FD7 JUMPI DUP1 PUSH1 0x1F LT PUSH3 0x1FAB JUMPI PUSH2 0x100 DUP1 DUP4 SLOAD DIV MUL DUP4 MSTORE SWAP2 PUSH1 0x20 ADD SWAP2 PUSH3 0x1FD7 JUMP JUMPDEST DUP3 ADD SWAP2 SWAP1 PUSH1 0x0 MSTORE PUSH1 0x20 PUSH1 0x0 KECCAK256 SWAP1 JUMPDEST DUP2 SLOAD DUP2 MSTORE SWAP1 PUSH1 0x1 ADD SWAP1 PUSH1 0x20 ADD DUP1 DUP4 GT PUSH3 0x1FB9 JUMPI DUP3 SWAP1 SUB PUSH1 0x1F AND DUP3 ADD SWAP2 JUMPDEST POP POP POP POP POP DUP2 MSTORE PUSH1 0x20 ADD PUSH1 0x3 DUP3 ADD SLOAD DUP2 MSTORE PUSH1 0x20 ADD PUSH1 0x4 DUP3 ADD DUP1 SLOAD PUSH3 0x1FFC SWAP1 PUSH3 0x330D JUMP JUMPDEST DUP1 PUSH1 0x1F ADD PUSH1 0x20 DUP1 SWAP2 DIV MUL PUSH1 0x20 ADD PUSH1 0x40 MLOAD SWAP1 DUP2 ADD PUSH1 0x40 MSTORE DUP1 SWAP3 SWAP2 SWAP1 DUP2 DUP2 MSTORE PUSH1 0x20 ADD DUP3 DUP1 SLOAD PUSH3 0x202A SWAP1 PUSH3 0x330D JUMP JUMPDEST DUP1 ISZERO PUSH3 0x207B JUMPI DUP1 PUSH1 0x1F LT PUSH3 0x204F JUMPI PUSH2 0x100 DUP1 DUP4 SLOAD DIV MUL DUP4 MSTORE SWAP2 PUSH1 0x20 ADD SWAP2 PUSH3 0x207B JUMP JUMPDEST DUP3 ADD SWAP2 SWAP1 PUSH1 0x0 MSTORE PUSH1 0x20 PUSH1 0x0 KECCAK256 SWAP1 JUMPDEST DUP2 SLOAD DUP2 MSTORE SWAP1 PUSH1 0x1 ADD SWAP1 PUSH1 0x20 ADD DUP1 DUP4 GT PUSH3 0x205D JUMPI DUP3 SWAP1 SUB PUSH1 0x1F AND DUP3 ADD SWAP2 JUMPDEST POP POP POP SWAP2 DUP4 MSTORE POP POP PUSH1 0x5 DUP3 ADD SLOAD PUSH1 0x20 DUP3 ADD MSTORE PUSH1 0x6 DUP3 ADD SLOAD PUSH1 0x1 PUSH1 0x1 PUSH1 0xA0 SHL SUB DUP1 DUP3 AND PUSH1 0x40 DUP5 ADD MSTORE PUSH1 0x1 PUSH1 0xA0 SHL SWAP1 SWAP2 DIV PUSH1 0xFF AND ISZERO ISZERO PUSH1 0x60 DUP4 ADD MSTORE PUSH1 0x7 DUP4 ADD SLOAD DUP2 AND PUSH1 0x80 DUP4 ADD MSTORE PUSH1 0x8 SWAP1 SWAP3 ADD SLOAD SWAP1 SWAP2 AND PUSH1 0xA0 SWAP1 SWAP2 ADD MSTORE DUP5 MLOAD DUP6 SWAP1 DUP8 SWAP1 DUP2 LT PUSH3 0x20E6 JUMPI PUSH3 0x20E6 PUSH3 0x32CC JUMP JUMPDEST PUSH1 0x20 MUL PUSH1 0x20 ADD ADD DUP2 SWAP1 MSTORE POP DUP5 DUP1 PUSH3 0x20FE SWAP1 PUSH3 0x3478 JUMP JUMPDEST SWAP6 POP POP JUMPDEST PUSH1 0x1 ADD PUSH3 0x1D7D JUMP JUMPDEST POP POP PUSH1 0x1 ADD PUSH3 0x1D30 JUMP JUMPDEST PUSH1 0x1 PUSH1 0x1 PUSH1 0xA0 SHL SUB DUP4 AND PUSH1 0x0 SWAP1 DUP2 MSTORE PUSH1 0x20 DUP2 SWAP1 MSTORE PUSH1 0x40 DUP2 KECCAK256 SWAP1 DUP1 DUP1 JUMPDEST DUP4 SLOAD DUP2 LT ISZERO PUSH3 0x2180 JUMPI DUP8 DUP5 DUP3 DUP2 SLOAD DUP2 LT PUSH3 0x2152 JUMPI PUSH3 0x2152 PUSH3 0x32CC JUMP JUMPDEST SWAP1 PUSH1 0x0 MSTORE PUSH1 0x20 PUSH1 0x0 KECCAK256 SWAP1 PUSH1 0x9 MUL ADD PUSH1 0x0 ADD SLOAD SUB PUSH3 0x2177 JUMPI PUSH1 0x1 SWAP3 POP DUP1 SWAP2 POP PUSH3 0x2180 JUMP JUMPDEST PUSH1 0x1 ADD PUSH3 0x2132 JUMP JUMPDEST POP DUP2 PUSH3 0x21A1 JUMPI PUSH1 0x40 MLOAD PUSH3 0x461BCD PUSH1 0xE5 SHL DUP2 MSTORE PUSH1 0x4 ADD PUSH3 0x283 SWAP1 PUSH3 0x3494 JUMP JUMPDEST DUP3 DUP2 DUP2 SLOAD DUP2 LT PUSH3 0x21B6 JUMPI PUSH3 0x21B6 PUSH3 0x32CC JUMP JUMPDEST SWAP1 PUSH1 0x0 MSTORE PUSH1 0x20 PUSH1 0x0 KECCAK256 SWAP1 PUSH1 0x9 MUL ADD PUSH1 0x6 ADD PUSH1 0x14 SWAP1 SLOAD SWAP1 PUSH2 0x100 EXP SWAP1 DIV PUSH1 0xFF AND PUSH3 0x2223 JUMPI PUSH1 0x40 MLOAD PUSH3 0x461BCD PUSH1 0xE5 SHL DUP2 MSTORE PUSH1 0x20 PUSH1 0x4 DUP3 ADD MSTORE PUSH1 0x1D PUSH1 0x24 DUP3 ADD MSTORE PUSH32 0x4974656D206861737373206E6F74206265656E20707572636861736564000000 PUSH1 0x44 DUP3 ADD MSTORE PUSH1 0x64 ADD PUSH3 0x283 JUMP JUMPDEST CALLER PUSH1 0x1 PUSH1 0x1 PUSH1 0xA0 SHL SUB AND DUP4 DUP3 DUP2 SLOAD DUP2 LT PUSH3 0x2242 JUMPI PUSH3 0x2242 PUSH3 0x32CC JUMP JUMPDEST PUSH1 0x0 SWAP2 DUP3 MSTORE PUSH1 0x20 SWAP1 SWAP2 KECCAK256 PUSH1 0x6 PUSH1 0x9 SWAP1 SWAP3 MUL ADD ADD SLOAD PUSH1 0x1 PUSH1 0x1 PUSH1 0xA0 SHL SUB AND EQ PUSH3 0x22BA JUMPI PUSH1 0x40 MLOAD PUSH3 0x461BCD PUSH1 0xE5 SHL DUP2 MSTORE PUSH1 0x20 PUSH1 0x4 DUP3 ADD MSTORE PUSH1 0x23 PUSH1 0x24 DUP3 ADD MSTORE PUSH32 0x4F6E6C79207468652062757965722063616E2063616E63656C20746865206F72 PUSH1 0x44 DUP3 ADD MSTORE PUSH3 0x3232B9 PUSH1 0xE9 SHL PUSH1 0x64 DUP3 ADD MSTORE PUSH1 0x84 ADD PUSH3 0x283 JUMP JUMPDEST DUP3 DUP2 DUP2 SLOAD DUP2 LT PUSH3 0x22CF JUMPI PUSH3 0x22CF PUSH3 0x32CC JUMP JUMPDEST PUSH1 0x0 SWAP2 DUP3 MSTORE PUSH1 0x20 SWAP2 DUP3 SWAP1 KECCAK256 PUSH1 0x7 PUSH1 0x9 SWAP1 SWAP3 MUL ADD ADD SLOAD PUSH1 0x40 DUP1 MLOAD PUSH4 0x5B0222BB PUSH1 0xE0 SHL DUP2 MSTORE SWAP1 MLOAD PUSH1 0x1 PUSH1 0x1 PUSH1 0xA0 SHL SUB SWAP1 SWAP3 AND SWAP3 PUSH4 0x5B0222BB SWAP3 PUSH1 0x4 DUP1 DUP5 ADD SWAP4 DUP3 SWAP1 SUB ADD DUP2 DUP7 GAS STATICCALL ISZERO DUP1 ISZERO PUSH3 0x2326 JUMPI RETURNDATASIZE PUSH1 0x0 DUP1 RETURNDATACOPY RETURNDATASIZE PUSH1 0x0 REVERT JUMPDEST POP POP POP POP PUSH1 0x40 MLOAD RETURNDATASIZE PUSH1 0x1F NOT PUSH1 0x1F DUP3 ADD AND DUP3 ADD DUP1 PUSH1 0x40 MSTORE POP DUP2 ADD SWAP1 PUSH3 0x234C SWAP2 SWAP1 PUSH3 0x361E JUMP JUMPDEST PUSH3 0x235A SWAP1 PUSH2 0x384 PUSH3 0x3638 JUMP JUMPDEST TIMESTAMP GT ISZERO PUSH3 0x23AB JUMPI PUSH1 0x40 MLOAD PUSH3 0x461BCD PUSH1 0xE5 SHL DUP2 MSTORE PUSH1 0x20 PUSH1 0x4 DUP3 ADD DUP2 SWAP1 MSTORE PUSH1 0x24 DUP3 ADD MSTORE PUSH32 0x43616E6365736C6C6174696F6E20706572696F64206861732065787069726564 PUSH1 0x44 DUP3 ADD MSTORE PUSH1 0x64 ADD PUSH3 0x283 JUMP JUMPDEST PUSH1 0x0 DUP4 DUP3 DUP2 SLOAD DUP2 LT PUSH3 0x23C2 JUMPI PUSH3 0x23C2 PUSH3 0x32CC JUMP JUMPDEST SWAP1 PUSH1 0x0 MSTORE PUSH1 0x20 PUSH1 0x0 KECCAK256 SWAP1 PUSH1 0x9 MUL ADD PUSH1 0x6 ADD PUSH1 0x14 PUSH2 0x100 EXP DUP2 SLOAD DUP2 PUSH1 0xFF MUL NOT AND SWAP1 DUP4 ISZERO ISZERO MUL OR SWAP1 SSTORE POP PUSH1 0x0 DUP4 DUP3 DUP2 SLOAD DUP2 LT PUSH3 0x2401 JUMPI PUSH3 0x2401 PUSH3 0x32CC JUMP JUMPDEST SWAP1 PUSH1 0x0 MSTORE PUSH1 0x20 PUSH1 0x0 KECCAK256 SWAP1 PUSH1 0x9 MUL ADD PUSH1 0x6 ADD PUSH1 0x0 PUSH2 0x100 EXP DUP2 SLOAD DUP2 PUSH1 0x1 PUSH1 0x1 PUSH1 0xA0 SHL SUB MUL NOT AND SWAP1 DUP4 PUSH1 0x1 PUSH1 0x1 PUSH1 0xA0 SHL SUB AND MUL OR SWAP1 SSTORE POP PUSH1 0x0 DUP4 DUP3 DUP2 SLOAD DUP2 LT PUSH3 0x244D JUMPI PUSH3 0x244D PUSH3 0x32CC JUMP JUMPDEST PUSH1 0x0 SWAP2 DUP3 MSTORE PUSH1 0x20 SWAP2 DUP3 SWAP1 KECCAK256 PUSH1 0x9 SWAP1 SWAP2 MUL ADD PUSH1 0x7 ADD SLOAD PUSH1 0x40 MLOAD PUSH1 0x1 PUSH1 0x1 PUSH1 0xA0 SHL SUB SWAP1 SWAP2 AND BALANCE DUP1 DUP3 MSTORE SWAP3 POP PUSH32 0x5E43E6C33B0654C056B16044DDCCF17D9E1DA06A6523E75BE8F7133F80E2345E SWAP2 ADD PUSH1 0x40 MLOAD DUP1 SWAP2 SUB SWAP1 LOG1 PUSH1 0x40 MLOAD PUSH1 0x1 PUSH1 0x1 PUSH1 0xA0 SHL SUB DUP9 AND BALANCE DUP2 MSTORE PUSH32 0x64F94CC1B9DB4414F5017ADD39D53FC2644D66038E8C0EA3C887E90730075DA8 SWAP1 PUSH1 0x20 ADD PUSH1 0x40 MLOAD DUP1 SWAP2 SUB SWAP1 LOG1 DUP6 ISZERO ISZERO PUSH1 0x1 SUB PUSH3 0x256E JUMPI DUP4 DUP3 DUP2 SLOAD DUP2 LT PUSH3 0x24FE JUMPI PUSH3 0x24FE PUSH3 0x32CC JUMP JUMPDEST PUSH1 0x0 SWAP2 DUP3 MSTORE PUSH1 0x20 DUP3 KECCAK256 PUSH1 0x7 PUSH1 0x9 SWAP1 SWAP3 MUL ADD ADD SLOAD PUSH1 0x40 DUP1 MLOAD PUSH4 0x17CD9707 PUSH1 0xE3 SHL DUP2 MSTORE SWAP1 MLOAD PUSH1 0x1 PUSH1 0x1 PUSH1 0xA0 SHL SUB SWAP1 SWAP3 AND SWAP3 PUSH4 0xBE6CB838 SWAP3 PUSH1 0x4 DUP1 DUP5 ADD SWAP4 DUP3 SWAP1 SUB ADD DUP2 DUP4 DUP8 DUP1 EXTCODESIZE ISZERO DUP1 ISZERO PUSH3 0x254F JUMPI PUSH1 0x0 DUP1 REVERT JUMPDEST POP GAS CALL ISZERO DUP1 ISZERO PUSH3 0x2564 JUMPI RETURNDATASIZE PUSH1 0x0 DUP1 RETURNDATACOPY RETURNDATASIZE PUSH1 0x0 REVERT JUMPDEST POP POP POP POP PUSH3 0x25F6 JUMP JUMPDEST DUP4 DUP3 DUP2 SLOAD DUP2 LT PUSH3 0x2583 JUMPI PUSH3 0x2583 PUSH3 0x32CC JUMP JUMPDEST PUSH1 0x0 SWAP2 DUP3 MSTORE PUSH1 0x20 SWAP1 SWAP2 KECCAK256 PUSH1 0x9 SWAP1 SWAP2 MUL ADD PUSH1 0x7 ADD SLOAD PUSH1 0x40 MLOAD PUSH4 0x44F0F415 PUSH1 0xE1 SHL DUP2 MSTORE DUP7 ISZERO ISZERO PUSH1 0x4 DUP3 ADD MSTORE PUSH1 0x1 PUSH1 0x1 PUSH1 0xA0 SHL SUB SWAP1 SWAP2 AND SWAP1 PUSH4 0x89E1E82A SWAP1 PUSH1 0x24 ADD PUSH1 0x0 PUSH1 0x40 MLOAD DUP1 DUP4 SUB DUP2 PUSH1 0x0 DUP8 DUP1 EXTCODESIZE ISZERO DUP1 ISZERO PUSH3 0x25DC JUMPI PUSH1 0x0 DUP1 REVERT JUMPDEST POP GAS CALL ISZERO DUP1 ISZERO PUSH3 0x25F1 JUMPI RETURNDATASIZE PUSH1 0x0 DUP1 RETURNDATACOPY RETURNDATASIZE PUSH1 0x0 REVERT JUMPDEST POP POP POP POP JUMPDEST PUSH1 0x0 DUP5 DUP4 DUP2 SLOAD DUP2 LT PUSH3 0x260D JUMPI PUSH3 0x260D PUSH3 0x32CC JUMP JUMPDEST PUSH1 0x0 SWAP2 DUP3 MSTORE PUSH1 0x20 SWAP2 DUP3 SWAP1 KECCAK256 PUSH1 0x9 SWAP1 SWAP2 MUL ADD PUSH1 0x7 ADD SLOAD PUSH1 0x40 MLOAD PUSH1 0x1 PUSH1 0x1 PUSH1 0xA0 SHL SUB SWAP1 SWAP2 AND BALANCE DUP1 DUP3 MSTORE SWAP3 POP PUSH32 0x5E43E6C33B0654C056B16044DDCCF17D9E1DA06A6523E75BE8F7133F80E2345E SWAP2 ADD PUSH1 0x40 MLOAD DUP1 SWAP2 SUB SWAP1 LOG1 PUSH1 0x0 DUP6 DUP5 DUP2 SLOAD DUP2 LT PUSH3 0x2678 JUMPI PUSH3 0x2678 PUSH3 0x32CC JUMP JUMPDEST SWAP1 PUSH1 0x0 MSTORE PUSH1 0x20 PUSH1 0x0 KECCAK256 SWAP1 PUSH1 0x9 MUL ADD PUSH1 0x7 ADD PUSH1 0x0 PUSH2 0x100 EXP DUP2 SLOAD DUP2 PUSH1 0x1 PUSH1 0x1 PUSH1 0xA0 SHL SUB MUL NOT AND SWAP1 DUP4 PUSH1 0x1 PUSH1 0x1 PUSH1 0xA0 SHL SUB AND MUL OR SWAP1 SSTORE POP PUSH32 0xF69C7EA3F71DAD86E17BA97A88B7E8F1708C0946BD98C7584E9942F60DA8728E DUP10 CALLER PUSH1 0x40 MLOAD PUSH3 0x26F1 SWAP3 SWAP2 SWAP1 SWAP2 DUP3 MSTORE PUSH1 0x1 PUSH1 0x1 PUSH1 0xA0 SHL SUB AND PUSH1 0x20 DUP3 ADD MSTORE PUSH1 0x40 ADD SWAP1 JUMP JUMPDEST PUSH1 0x40 MLOAD DUP1 SWAP2 SUB SWAP1 LOG1 PUSH1 0x40 MLOAD PUSH1 0x1 PUSH1 0x1 PUSH1 0xA0 SHL SUB DUP10 AND BALANCE DUP2 MSTORE PUSH32 0x64F94CC1B9DB4414F5017ADD39D53FC2644D66038E8C0EA3C887E90730075DA8 SWAP1 PUSH1 0x20 ADD PUSH1 0x40 MLOAD DUP1 SWAP2 SUB SWAP1 LOG1 PUSH3 0x2785 PUSH1 0x40 MLOAD DUP1 PUSH1 0x40 ADD PUSH1 0x40 MSTORE DUP1 PUSH1 0x18 DUP2 MSTORE PUSH1 0x20 ADD PUSH32 0x4F726465722063616E63656C65643A2025732062792025730000000000000000 DUP2 MSTORE POP DUP7 DUP6 DUP2 SLOAD DUP2 LT PUSH3 0x13A6 JUMPI PUSH3 0x13A6 PUSH3 0x32CC JUMP JUMPDEST POP POP POP POP POP POP POP POP POP JUMP JUMPDEST PUSH1 0x60 PUSH1 0x0 DUP1 PUSH1 0x0 JUMPDEST PUSH1 0x2 SLOAD DUP2 LT ISZERO PUSH3 0x2834 JUMPI CALLER PUSH1 0x1 PUSH1 0x1 PUSH1 0xA0 SHL SUB AND PUSH1 0x2 DUP3 DUP2 SLOAD DUP2 LT PUSH3 0x27C3 JUMPI PUSH3 0x27C3 PUSH3 0x32CC JUMP JUMPDEST PUSH1 0x0 SWAP2 DUP3 MSTORE PUSH1 0x20 SWAP1 SWAP2 KECCAK256 ADD SLOAD PUSH1 0x1 PUSH1 0x1 PUSH1 0xA0 SHL SUB AND EQ PUSH3 0x282B JUMPI PUSH1 0x0 DUP1 PUSH1 0x2 DUP4 DUP2 SLOAD DUP2 LT PUSH3 0x27F7 JUMPI PUSH3 0x27F7 PUSH3 0x32CC JUMP JUMPDEST PUSH1 0x0 SWAP2 DUP3 MSTORE PUSH1 0x20 DUP1 DUP4 KECCAK256 SWAP1 SWAP2 ADD SLOAD PUSH1 0x1 PUSH1 0x1 PUSH1 0xA0 SHL SUB AND DUP4 MSTORE DUP3 ADD SWAP3 SWAP1 SWAP3 MSTORE PUSH1 0x40 ADD SWAP1 KECCAK256 SLOAD PUSH3 0x2828 SWAP1 DUP5 PUSH3 0x3638 JUMP JUMPDEST SWAP3 POP JUMPDEST PUSH1 0x1 ADD PUSH3 0x2798 JUMP JUMPDEST POP PUSH1 0x0 DUP3 PUSH8 0xFFFFFFFFFFFFFFFF DUP2 GT ISZERO PUSH3 0x2853 JUMPI PUSH3 0x2853 PUSH3 0x2E68 JUMP JUMPDEST PUSH1 0x40 MLOAD SWAP1 DUP1 DUP3 MSTORE DUP1 PUSH1 0x20 MUL PUSH1 0x20 ADD DUP3 ADD PUSH1 0x40 MSTORE DUP1 ISZERO PUSH3 0x2890 JUMPI DUP2 PUSH1 0x20 ADD JUMPDEST PUSH3 0x287C PUSH3 0x2D90 JUMP JUMPDEST DUP2 MSTORE PUSH1 0x20 ADD SWAP1 PUSH1 0x1 SWAP1 SUB SWAP1 DUP2 PUSH3 0x2872 JUMPI SWAP1 POP JUMPDEST POP SWAP1 POP PUSH1 0x0 JUMPDEST PUSH1 0x2 SLOAD DUP2 LT ISZERO PUSH3 0x2C05 JUMPI CALLER PUSH1 0x1 PUSH1 0x1 PUSH1 0xA0 SHL SUB AND PUSH1 0x2 DUP3 DUP2 SLOAD DUP2 LT PUSH3 0x28C1 JUMPI PUSH3 0x28C1 PUSH3 0x32CC JUMP JUMPDEST PUSH1 0x0 SWAP2 DUP3 MSTORE PUSH1 0x20 SWAP1 SWAP2 KECCAK256 ADD SLOAD PUSH1 0x1 PUSH1 0x1 PUSH1 0xA0 SHL SUB AND EQ PUSH3 0x2BFC JUMPI PUSH1 0x0 DUP1 PUSH1 0x0 PUSH1 0x2 DUP5 DUP2 SLOAD DUP2 LT PUSH3 0x28F7 JUMPI PUSH3 0x28F7 PUSH3 0x32CC JUMP JUMPDEST PUSH1 0x0 SWAP2 DUP3 MSTORE PUSH1 0x20 DUP1 DUP4 KECCAK256 SWAP1 SWAP2 ADD SLOAD PUSH1 0x1 PUSH1 0x1 PUSH1 0xA0 SHL SUB AND DUP4 MSTORE DUP3 ADD SWAP3 SWAP1 SWAP3 MSTORE PUSH1 0x40 ADD DUP2 KECCAK256 SWAP2 POP JUMPDEST DUP2 SLOAD DUP2 LT ISZERO PUSH3 0x2BF9 JUMPI DUP2 DUP2 DUP2 SLOAD DUP2 LT PUSH3 0x293D JUMPI PUSH3 0x293D PUSH3 0x32CC JUMP JUMPDEST SWAP1 PUSH1 0x0 MSTORE PUSH1 0x20 PUSH1 0x0 KECCAK256 SWAP1 PUSH1 0x9 MUL ADD PUSH1 0x6 ADD PUSH1 0x14 SWAP1 SLOAD SWAP1 PUSH2 0x100 EXP SWAP1 DIV PUSH1 0xFF AND PUSH3 0x2BF0 JUMPI DUP2 DUP2 DUP2 SLOAD DUP2 LT PUSH3 0x2976 JUMPI PUSH3 0x2976 PUSH3 0x32CC JUMP JUMPDEST SWAP1 PUSH1 0x0 MSTORE PUSH1 0x20 PUSH1 0x0 KECCAK256 SWAP1 PUSH1 0x9 MUL ADD PUSH1 0x40 MLOAD DUP1 PUSH2 0x140 ADD PUSH1 0x40 MSTORE SWAP1 DUP2 PUSH1 0x0 DUP3 ADD SLOAD DUP2 MSTORE PUSH1 0x20 ADD PUSH1 0x1 DUP3 ADD DUP1 SLOAD PUSH3 0x29AC SWAP1 PUSH3 0x330D JUMP JUMPDEST DUP1 PUSH1 0x1F ADD PUSH1 0x20 DUP1 SWAP2 DIV MUL PUSH1 0x20 ADD PUSH1 0x40 MLOAD SWAP1 DUP2 ADD PUSH1 0x40 MSTORE DUP1 SWAP3 SWAP2 SWAP1 DUP2 DUP2 MSTORE PUSH1 0x20 ADD DUP3 DUP1 SLOAD PUSH3 0x29DA SWAP1 PUSH3 0x330D JUMP JUMPDEST DUP1 ISZERO PUSH3 0x2A2B JUMPI DUP1 PUSH1 0x1F LT PUSH3 0x29FF JUMPI PUSH2 0x100 DUP1 DUP4 SLOAD DIV MUL DUP4 MSTORE SWAP2 PUSH1 0x20 ADD SWAP2 PUSH3 0x2A2B JUMP JUMPDEST DUP3 ADD SWAP2 SWAP1 PUSH1 0x0 MSTORE PUSH1 0x20 PUSH1 0x0 KECCAK256 SWAP1 JUMPDEST DUP2 SLOAD DUP2 MSTORE SWAP1 PUSH1 0x1 ADD SWAP1 PUSH1 0x20 ADD DUP1 DUP4 GT PUSH3 0x2A0D JUMPI DUP3 SWAP1 SUB PUSH1 0x1F AND DUP3 ADD SWAP2 JUMPDEST POP POP POP POP POP DUP2 MSTORE PUSH1 0x20 ADD PUSH1 0x2 DUP3 ADD DUP1 SLOAD PUSH3 0x2A46 SWAP1 PUSH3 0x330D JUMP JUMPDEST DUP1 PUSH1 0x1F ADD PUSH1 0x20 DUP1 SWAP2 DIV MUL PUSH1 0x20 ADD PUSH1 0x40 MLOAD SWAP1 DUP2 ADD PUSH1 0x40 MSTORE DUP1 SWAP3 SWAP2 SWAP1 DUP2 DUP2 MSTORE PUSH1 0x20 ADD DUP3 DUP1 SLOAD PUSH3 0x2A74 SWAP1 PUSH3 0x330D JUMP JUMPDEST DUP1 ISZERO PUSH3 0x2AC5 JUMPI DUP1 PUSH1 0x1F LT PUSH3 0x2A99 JUMPI PUSH2 0x100 DUP1 DUP4 SLOAD DIV MUL DUP4 MSTORE SWAP2 PUSH1 0x20 ADD SWAP2 PUSH3 0x2AC5 JUMP JUMPDEST DUP3 ADD SWAP2 SWAP1 PUSH1 0x0 MSTORE PUSH1 0x20 PUSH1 0x0 KECCAK256 SWAP1 JUMPDEST DUP2 SLOAD DUP2 MSTORE SWAP1 PUSH1 0x1 ADD SWAP1 PUSH1 0x20 ADD DUP1 DUP4 GT PUSH3 0x2AA7 JUMPI DUP3 SWAP1 SUB PUSH1 0x1F AND DUP3 ADD SWAP2 JUMPDEST POP POP POP POP POP DUP2 MSTORE PUSH1 0x20 ADD PUSH1 0x3 DUP3 ADD SLOAD DUP2 MSTORE PUSH1 0x20 ADD PUSH1 0x4 DUP3 ADD DUP1 SLOAD PUSH3 0x2AEA SWAP1 PUSH3 0x330D JUMP JUMPDEST DUP1 PUSH1 0x1F ADD PUSH1 0x20 DUP1 SWAP2 DIV MUL PUSH1 0x20 ADD PUSH1 0x40 MLOAD SWAP1 DUP2 ADD PUSH1 0x40 MSTORE DUP1 SWAP3 SWAP2 SWAP1 DUP2 DUP2 MSTORE PUSH1 0x20 ADD DUP3 DUP1 SLOAD PUSH3 0x2B18 SWAP1 PUSH3 0x330D JUMP JUMPDEST DUP1 ISZERO PUSH3 0x2B69 JUMPI DUP1 PUSH1 0x1F LT PUSH3 0x2B3D JUMPI PUSH2 0x100 DUP1 DUP4 SLOAD DIV MUL DUP4 MSTORE SWAP2 PUSH1 0x20 ADD SWAP2 PUSH3 0x2B69 JUMP JUMPDEST DUP3 ADD SWAP2 SWAP1 PUSH1 0x0 MSTORE PUSH1 0x20 PUSH1 0x0 KECCAK256 SWAP1 JUMPDEST DUP2 SLOAD DUP2 MSTORE SWAP1 PUSH1 0x1 ADD SWAP1 PUSH1 0x20 ADD DUP1 DUP4 GT PUSH3 0x2B4B JUMPI DUP3 SWAP1 SUB PUSH1 0x1F AND DUP3 ADD SWAP2 JUMPDEST POP POP POP SWAP2 DUP4 MSTORE POP POP PUSH1 0x5 DUP3 ADD SLOAD PUSH1 0x20 DUP3 ADD MSTORE PUSH1 0x6 DUP3 ADD SLOAD PUSH1 0x1 PUSH1 0x1 PUSH1 0xA0 SHL SUB DUP1 DUP3 AND PUSH1 0x40 DUP5 ADD MSTORE PUSH1 0x1 PUSH1 0xA0 SHL SWAP1 SWAP2 DIV PUSH1 0xFF AND ISZERO ISZERO PUSH1 0x60 DUP4 ADD MSTORE PUSH1 0x7 DUP4 ADD SLOAD DUP2 AND PUSH1 0x80 DUP4 ADD MSTORE PUSH1 0x8 SWAP1 SWAP3 ADD SLOAD SWAP1 SWAP2 AND PUSH1 0xA0 SWAP1 SWAP2 ADD MSTORE DUP5 MLOAD DUP6 SWAP1 DUP8 SWAP1 DUP2 LT PUSH3 0x2BD4 JUMPI PUSH3 0x2BD4 PUSH3 0x32CC JUMP JUMPDEST PUSH1 0x20 MUL PUSH1 0x20 ADD ADD DUP2 SWAP1 MSTORE POP DUP5 DUP1 PUSH3 0x2BEC SWAP1 PUSH3 0x3478 JUMP JUMPDEST SWAP6 POP POP JUMPDEST PUSH1 0x1 ADD PUSH3 0x291E JUMP JUMPDEST POP POP JUMPDEST PUSH1 0x1 ADD PUSH3 0x2896 JUMP JUMPDEST POP PUSH3 0x2C37 PUSH1 0x40 MLOAD DUP1 PUSH1 0x40 ADD PUSH1 0x40 MSTORE DUP1 PUSH1 0xD DUP2 MSTORE PUSH1 0x20 ADD PUSH13 0x2A37BA30B61024BA32B6B99D1 PUSH1 0x9D SHL DUP2 MSTORE POP DUP5 PUSH3 0x2C71 JUMP JUMPDEST PUSH3 0x2C6A PUSH1 0x40 MLOAD DUP1 PUSH1 0x40 ADD PUSH1 0x40 MSTORE DUP1 PUSH1 0xF DUP2 MSTORE PUSH1 0x20 ADD PUSH15 0x21BAB93932B73A1024B73232BC1D1 PUSH1 0x8D SHL DUP2 MSTORE POP DUP4 PUSH3 0x2C71 JUMP JUMPDEST SWAP4 SWAP3 POP POP POP JUMP JUMPDEST PUSH3 0x2CBA DUP3 DUP3 PUSH1 0x40 MLOAD PUSH1 0x24 ADD PUSH3 0x2C8A SWAP3 SWAP2 SWAP1 PUSH3 0x364E JUMP JUMPDEST PUSH1 0x40 DUP1 MLOAD PUSH1 0x1F NOT DUP2 DUP5 SUB ADD DUP2 MSTORE SWAP2 SWAP1 MSTORE PUSH1 0x20 DUP2 ADD DUP1 MLOAD PUSH1 0x1 PUSH1 0x1 PUSH1 0xE0 SHL SUB AND PUSH4 0x2D839CB3 PUSH1 0xE2 SHL OR SWAP1 MSTORE PUSH3 0x2D61 JUMP JUMPDEST POP POP JUMP JUMPDEST PUSH3 0x2D0B DUP5 DUP5 DUP5 DUP5 PUSH1 0x40 MLOAD PUSH1 0x24 ADD PUSH3 0x2CDB SWAP5 SWAP4 SWAP3 SWAP2 SWAP1 PUSH3 0x3672 JUMP JUMPDEST PUSH1 0x40 DUP1 MLOAD PUSH1 0x1F NOT DUP2 DUP5 SUB ADD DUP2 MSTORE SWAP2 SWAP1 MSTORE PUSH1 0x20 DUP2 ADD DUP1 MLOAD PUSH1 0x1 PUSH1 0x1 PUSH1 0xE0 SHL SUB AND PUSH4 0x1D637FF PUSH1 0xE7 SHL OR SWAP1 MSTORE PUSH3 0x2D61 JUMP JUMPDEST POP POP POP POP JUMP JUMPDEST PUSH3 0x2D5C DUP4 DUP4 DUP4 PUSH1 0x40 MLOAD PUSH1 0x24 ADD PUSH3 0x2D2C SWAP4 SWAP3 SWAP2 SWAP1 PUSH3 0x36CB JUMP JUMPDEST PUSH1 0x40 DUP1 MLOAD PUSH1 0x1F NOT DUP2 DUP5 SUB ADD DUP2 MSTORE SWAP2 SWAP1 MSTORE PUSH1 0x20 DUP2 ADD DUP1 MLOAD PUSH1 0x1 PUSH1 0x1 PUSH1 0xE0 SHL SUB AND PUSH4 0x95ED0195 PUSH1 0xE0 SHL OR SWAP1 MSTORE PUSH3 0x2D61 JUMP JUMPDEST POP POP POP JUMP JUMPDEST PUSH3 0x2D6C DUP2 PUSH3 0x2D6F JUMP JUMPDEST POP JUMP JUMPDEST PUSH1 0x0 PUSH11 0x636F6E736F6C652E6C6F67 SWAP1 POP PUSH1 0x0 DUP1 DUP4 MLOAD PUSH1 0x20 DUP6 ADD DUP5 GAS STATICCALL POP POP POP JUMP JUMPDEST PUSH1 0x40 MLOAD DUP1 PUSH2 0x140 ADD PUSH1 0x40 MSTORE DUP1 PUSH1 0x0 DUP2 MSTORE PUSH1 0x20 ADD PUSH1 0x60 DUP2 MSTORE PUSH1 0x20 ADD PUSH1 0x60 DUP2 MSTORE PUSH1 0x20 ADD PUSH1 0x0 DUP2 MSTORE PUSH1 0x20 ADD PUSH1 0x60 DUP2 MSTORE PUSH1 0x20 ADD PUSH1 0x0 DUP2 MSTORE PUSH1 0x20 ADD PUSH1 0x0 PUSH1 0x1 PUSH1 0x1 PUSH1 0xA0 SHL SUB AND DUP2 MSTORE PUSH1 0x20 ADD PUSH1 0x0 ISZERO ISZERO DUP2 MSTORE PUSH1 0x20 ADD PUSH1 0x0 PUSH1 0x1 PUSH1 0x1 PUSH1 0xA0 SHL SUB AND DUP2 MSTORE PUSH1 0x20 ADD PUSH1 0x0 PUSH1 0x1 PUSH1 0x1 PUSH1 0xA0 SHL SUB AND DUP2 MSTORE POP SWAP1 JUMP JUMPDEST POP DUP1 SLOAD PUSH3 0x2E0E SWAP1 PUSH3 0x330D JUMP JUMPDEST PUSH1 0x0 DUP3 SSTORE DUP1 PUSH1 0x1F LT PUSH3 0x2E1F JUMPI POP POP JUMP JUMPDEST PUSH1 0x1F ADD PUSH1 0x20 SWAP1 DIV SWAP1 PUSH1 0x0 MSTORE PUSH1 0x20 PUSH1 0x0 KECCAK256 SWAP1 DUP2 ADD SWAP1 PUSH3 0x2D6C SWAP2 SWAP1 PUSH3 0x2E4D JUMP JUMPDEST PUSH2 0x1A83 DUP1 PUSH3 0x370E DUP4 CODECOPY ADD SWAP1 JUMP JUMPDEST JUMPDEST DUP1 DUP3 GT ISZERO PUSH3 0x2E64 JUMPI PUSH1 0x0 DUP2 SSTORE PUSH1 0x1 ADD PUSH3 0x2E4E JUMP JUMPDEST POP SWAP1 JUMP JUMPDEST PUSH4 0x4E487B71 PUSH1 0xE0 SHL PUSH1 0x0 MSTORE PUSH1 0x41 PUSH1 0x4 MSTORE PUSH1 0x24 PUSH1 0x0 REVERT JUMPDEST PUSH1 0x0 DUP3 PUSH1 0x1F DUP4 ADD SLT PUSH3 0x2E90 JUMPI PUSH1 0x0 DUP1 REVERT JUMPDEST DUP2 CALLDATALOAD PUSH8 0xFFFFFFFFFFFFFFFF DUP1 DUP3 GT ISZERO PUSH3 0x2EAE JUMPI PUSH3 0x2EAE PUSH3 0x2E68 JUMP JUMPDEST PUSH1 0x40 MLOAD PUSH1 0x1F DUP4 ADD PUSH1 0x1F NOT SWAP1 DUP2 AND PUSH1 0x3F ADD AND DUP2 ADD SWAP1 DUP3 DUP3 GT DUP2 DUP4 LT OR ISZERO PUSH3 0x2ED9 JUMPI PUSH3 0x2ED9 PUSH3 0x2E68 JUMP JUMPDEST DUP2 PUSH1 0x40 MSTORE DUP4 DUP2 MSTORE DUP7 PUSH1 0x20 DUP6 DUP9 ADD ADD GT ISZERO PUSH3 0x2EF3 JUMPI PUSH1 0x0 DUP1 REVERT JUMPDEST DUP4 PUSH1 0x20 DUP8 ADD PUSH1 0x20 DUP4 ADD CALLDATACOPY PUSH1 0x0 PUSH1 0x20 DUP6 DUP4 ADD ADD MSTORE DUP1 SWAP5 POP POP POP POP POP SWAP3 SWAP2 POP POP JUMP JUMPDEST PUSH1 0x0 DUP1 PUSH1 0x0 DUP1 PUSH1 0x0 PUSH1 0xA0 DUP7 DUP9 SUB SLT ISZERO PUSH3 0x2F2C JUMPI PUSH1 0x0 DUP1 REVERT JUMPDEST DUP6 CALLDATALOAD SWAP5 POP PUSH1 0x20 DUP7 ADD CALLDATALOAD PUSH8 0xFFFFFFFFFFFFFFFF DUP1 DUP3 GT ISZERO PUSH3 0x2F4C JUMPI PUSH1 0x0 DUP1 REVERT JUMPDEST PUSH3 0x2F5A DUP10 DUP4 DUP11 ADD PUSH3 0x2E7E JUMP JUMPDEST SWAP6 POP PUSH1 0x40 DUP9 ADD CALLDATALOAD SWAP2 POP DUP1 DUP3 GT ISZERO PUSH3 0x2F71 JUMPI PUSH1 0x0 DUP1 REVERT JUMPDEST PUSH3 0x2F7F DUP10 DUP4 DUP11 ADD PUSH3 0x2E7E JUMP JUMPDEST SWAP5 POP PUSH1 0x60 DUP9 ADD CALLDATALOAD SWAP4 POP PUSH1 0x80 DUP9 ADD CALLDATALOAD SWAP2 POP DUP1 DUP3 GT ISZERO PUSH3 0x2F9D JUMPI PUSH1 0x0 DUP1 REVERT JUMPDEST POP PUSH3 0x2FAC DUP9 DUP3 DUP10 ADD PUSH3 0x2E7E JUMP JUMPDEST SWAP2 POP POP SWAP3 SWAP6 POP SWAP3 SWAP6 SWAP1 SWAP4 POP JUMP JUMPDEST PUSH1 0x0 DUP1 PUSH1 0x0 DUP1 PUSH1 0x80 DUP6 DUP8 SUB SLT ISZERO PUSH3 0x2FD0 JUMPI PUSH1 0x0 DUP1 REVERT JUMPDEST DUP5 CALLDATALOAD PUSH8 0xFFFFFFFFFFFFFFFF DUP1 DUP3 GT ISZERO PUSH3 0x2FE9 JUMPI PUSH1 0x0 DUP1 REVERT JUMPDEST PUSH3 0x2FF7 DUP9 DUP4 DUP10 ADD PUSH3 0x2E7E JUMP JUMPDEST SWAP6 POP PUSH1 0x20 DUP8 ADD CALLDATALOAD SWAP2 POP DUP1 DUP3 GT ISZERO PUSH3 0x300E JUMPI PUSH1 0x0 DUP1 REVERT JUMPDEST PUSH3 0x301C DUP9 DUP4 DUP10 ADD PUSH3 0x2E7E JUMP JUMPDEST SWAP5 POP PUSH1 0x40 DUP8 ADD CALLDATALOAD SWAP4 POP PUSH1 0x60 DUP8 ADD CALLDATALOAD SWAP2 POP DUP1 DUP3 GT ISZERO PUSH3 0x303A JUMPI PUSH1 0x0 DUP1 REVERT JUMPDEST POP PUSH3 0x3049 DUP8 DUP3 DUP9 ADD PUSH3 0x2E7E JUMP JUMPDEST SWAP2 POP POP SWAP3 SWAP6 SWAP2 SWAP5 POP SWAP3 POP JUMP JUMPDEST PUSH1 0x0 DUP2 MLOAD DUP1 DUP5 MSTORE PUSH1 0x0 JUMPDEST DUP2 DUP2 LT ISZERO PUSH3 0x307D JUMPI PUSH1 0x20 DUP2 DUP6 ADD DUP2 ADD MLOAD DUP7 DUP4 ADD DUP3 ADD MSTORE ADD PUSH3 0x305F JUMP JUMPDEST POP PUSH1 0x0 PUSH1 0x20 DUP3 DUP7 ADD ADD MSTORE PUSH1 0x20 PUSH1 0x1F NOT PUSH1 0x1F DUP4 ADD AND DUP6 ADD ADD SWAP2 POP POP SWAP3 SWAP2 POP POP JUMP JUMPDEST PUSH1 0x0 PUSH1 0x20 DUP1 DUP4 ADD DUP2 DUP5 MSTORE DUP1 DUP6 MLOAD DUP1 DUP4 MSTORE PUSH1 0x40 SWAP3 POP PUSH1 0x40 DUP7 ADD SWAP2 POP PUSH1 0x40 DUP2 PUSH1 0x5 SHL DUP8 ADD ADD DUP5 DUP9 ADD PUSH1 0x0 JUMPDEST DUP4 DUP2 LT ISZERO PUSH3 0x31A8 JUMPI PUSH1 0x3F NOT DUP10 DUP5 SUB ADD DUP6 MSTORE DUP2 MLOAD PUSH2 0x140 DUP2 MLOAD DUP6 MSTORE DUP9 DUP3 ADD MLOAD DUP2 DUP11 DUP8 ADD MSTORE PUSH3 0x30F8 DUP3 DUP8 ADD DUP3 PUSH3 0x3055 JUMP JUMPDEST SWAP2 POP POP DUP8 DUP3 ADD MLOAD DUP6 DUP3 SUB DUP10 DUP8 ADD MSTORE PUSH3 0x3112 DUP3 DUP3 PUSH3 0x3055 JUMP JUMPDEST SWAP2 POP POP PUSH1 0x60 DUP1 DUP4 ADD MLOAD DUP2 DUP8 ADD MSTORE POP PUSH1 0x80 DUP1 DUP4 ADD MLOAD DUP7 DUP4 SUB DUP3 DUP9 ADD MSTORE PUSH3 0x3139 DUP4 DUP3 PUSH3 0x3055 JUMP JUMPDEST SWAP3 POP POP POP PUSH1 0xA0 DUP1 DUP4 ADD MLOAD DUP2 DUP8 ADD MSTORE POP PUSH1 0xC0 DUP1 DUP4 ADD MLOAD PUSH3 0x3163 DUP3 DUP9 ADD DUP3 PUSH1 0x1 PUSH1 0x1 PUSH1 0xA0 SHL SUB AND SWAP1 MSTORE JUMP JUMPDEST POP POP PUSH1 0xE0 DUP3 DUP2 ADD MLOAD ISZERO ISZERO SWAP1 DUP7 ADD MSTORE PUSH2 0x100 DUP1 DUP4 ADD MLOAD PUSH1 0x1 PUSH1 0x1 PUSH1 0xA0 SHL SUB SWAP1 DUP2 AND SWAP2 DUP8 ADD SWAP2 SWAP1 SWAP2 MSTORE PUSH2 0x120 SWAP3 DUP4 ADD MLOAD AND SWAP2 SWAP1 SWAP5 ADD MSTORE SWAP4 DUP7 ADD SWAP4 SWAP1 DUP7 ADD SWAP1 PUSH1 0x1 ADD PUSH3 0x30C6 JUMP JUMPDEST POP SWAP1 SWAP9 SWAP8 POP POP POP POP POP POP POP POP JUMP JUMPDEST PUSH1 0x0 DUP1 PUSH1 0x40 DUP4 DUP6 SUB SLT ISZERO PUSH3 0x31CA JUMPI PUSH1 0x0 DUP1 REVERT JUMPDEST DUP3 CALLDATALOAD SWAP2 POP PUSH1 0x20 DUP4 ADD CALLDATALOAD PUSH8 0xFFFFFFFFFFFFFFFF DUP2 GT ISZERO PUSH3 0x31E9 JUMPI PUSH1 0x0 DUP1 REVERT JUMPDEST PUSH3 0x31F7 DUP6 DUP3 DUP7 ADD PUSH3 0x2E7E JUMP JUMPDEST SWAP2 POP POP SWAP3 POP SWAP3 SWAP1 POP JUMP JUMPDEST PUSH1 0x0 PUSH1 0x20 DUP3 DUP5 SUB SLT ISZERO PUSH3 0x3214 JUMPI PUSH1 0x0 DUP1 REVERT JUMPDEST POP CALLDATALOAD SWAP2 SWAP1 POP JUMP JUMPDEST DUP1 CALLDATALOAD PUSH1 0x1 PUSH1 0x1 PUSH1 0xA0 SHL SUB DUP2 AND DUP2 EQ PUSH3 0x3233 JUMPI PUSH1 0x0 DUP1 REVERT JUMPDEST SWAP2 SWAP1 POP JUMP JUMPDEST PUSH1 0x0 DUP1 PUSH1 0x40 DUP4 DUP6 SUB SLT ISZERO PUSH3 0x324C JUMPI PUSH1 0x0 DUP1 REVERT JUMPDEST DUP3 CALLDATALOAD SWAP2 POP PUSH3 0x325E PUSH1 0x20 DUP5 ADD PUSH3 0x321B JUMP JUMPDEST SWAP1 POP SWAP3 POP SWAP3 SWAP1 POP JUMP JUMPDEST DUP1 CALLDATALOAD DUP1 ISZERO ISZERO DUP2 EQ PUSH3 0x3233 JUMPI PUSH1 0x0 DUP1 REVERT JUMPDEST PUSH1 0x0 DUP1 PUSH1 0x0 DUP1 PUSH1 0x80 DUP6 DUP8 SUB SLT ISZERO PUSH3 0x328F JUMPI PUSH1 0x0 DUP1 REVERT JUMPDEST DUP5 CALLDATALOAD SWAP4 POP PUSH3 0x32A1 PUSH1 0x20 DUP7 ADD PUSH3 0x321B JUMP JUMPDEST SWAP3 POP PUSH3 0x32B1 PUSH1 0x40 DUP7 ADD PUSH3 0x3267 JUMP JUMPDEST SWAP2 POP PUSH3 0x32C1 PUSH1 0x60 DUP7 ADD PUSH3 0x3267 JUMP JUMPDEST SWAP1 POP SWAP3 SWAP6 SWAP2 SWAP5 POP SWAP3 POP JUMP JUMPDEST PUSH4 0x4E487B71 PUSH1 0xE0 SHL PUSH1 0x0 MSTORE PUSH1 0x32 PUSH1 0x4 MSTORE PUSH1 0x24 PUSH1 0x0 REVERT JUMPDEST PUSH1 0x20 DUP1 DUP3 MSTORE PUSH1 0x11 SWAP1 DUP3 ADD MSTORE PUSH17 0x125D195B48185B1C9958591E481CDBDB19 PUSH1 0x7A SHL PUSH1 0x40 DUP3 ADD MSTORE PUSH1 0x60 ADD SWAP1 JUMP JUMPDEST PUSH1 0x1 DUP2 DUP2 SHR SWAP1 DUP3 AND DUP1 PUSH3 0x3322 JUMPI PUSH1 0x7F DUP3 AND SWAP2 POP JUMPDEST PUSH1 0x20 DUP3 LT DUP2 SUB PUSH3 0x3343 JUMPI PUSH4 0x4E487B71 PUSH1 0xE0 SHL PUSH1 0x0 MSTORE PUSH1 0x22 PUSH1 0x4 MSTORE PUSH1 0x24 PUSH1 0x0 REVERT JUMPDEST POP SWAP2 SWAP1 POP JUMP JUMPDEST PUSH1 0x1F DUP3 GT ISZERO PUSH3 0x2D5C JUMPI PUSH1 0x0 DUP2 PUSH1 0x0 MSTORE PUSH1 0x20 PUSH1 0x0 KECCAK256 PUSH1 0x1F DUP6 ADD PUSH1 0x5 SHR DUP2 ADD PUSH1 0x20 DUP7 LT ISZERO PUSH3 0x3374 JUMPI POP DUP1 JUMPDEST PUSH1 0x1F DUP6 ADD PUSH1 0x5 SHR DUP3 ADD SWAP2 POP JUMPDEST DUP2 DUP2 LT ISZERO PUSH3 0x144F JUMPI DUP3 DUP2 SSTORE PUSH1 0x1 ADD PUSH3 0x3380 JUMP JUMPDEST DUP2 MLOAD PUSH8 0xFFFFFFFFFFFFFFFF DUP2 GT ISZERO PUSH3 0x33B2 JUMPI PUSH3 0x33B2 PUSH3 0x2E68 JUMP JUMPDEST PUSH3 0x33CA DUP2 PUSH3 0x33C3 DUP5 SLOAD PUSH3 0x330D JUMP JUMPDEST DUP5 PUSH3 0x3349 JUMP JUMPDEST PUSH1 0x20 DUP1 PUSH1 0x1F DUP4 GT PUSH1 0x1 DUP2 EQ PUSH3 0x3402 JUMPI PUSH1 0x0 DUP5 ISZERO PUSH3 0x33E9 JUMPI POP DUP6 DUP4 ADD MLOAD JUMPDEST PUSH1 0x0 NOT PUSH1 0x3 DUP7 SWAP1 SHL SHR NOT AND PUSH1 0x1 DUP6 SWAP1 SHL OR DUP6 SSTORE PUSH3 0x144F JUMP JUMPDEST PUSH1 0x0 DUP6 DUP2 MSTORE PUSH1 0x20 DUP2 KECCAK256 PUSH1 0x1F NOT DUP7 AND SWAP2 JUMPDEST DUP3 DUP2 LT ISZERO PUSH3 0x3433 JUMPI DUP9 DUP7 ADD MLOAD DUP3 SSTORE SWAP5 DUP5 ADD SWAP5 PUSH1 0x1 SWAP1 SWAP2 ADD SWAP1 DUP5 ADD PUSH3 0x3412 JUMP JUMPDEST POP DUP6 DUP3 LT ISZERO PUSH3 0x3452 JUMPI DUP8 DUP6 ADD MLOAD PUSH1 0x0 NOT PUSH1 0x3 DUP9 SWAP1 SHL PUSH1 0xF8 AND SHR NOT AND DUP2 SSTORE JUMPDEST POP POP POP POP POP PUSH1 0x1 SWAP1 DUP2 SHL ADD SWAP1 SSTORE POP JUMP JUMPDEST PUSH4 0x4E487B71 PUSH1 0xE0 SHL PUSH1 0x0 MSTORE PUSH1 0x11 PUSH1 0x4 MSTORE PUSH1 0x24 PUSH1 0x0 REVERT JUMPDEST PUSH1 0x0 PUSH1 0x1 DUP3 ADD PUSH3 0x348D JUMPI PUSH3 0x348D PUSH3 0x3462 JUMP JUMPDEST POP PUSH1 0x1 ADD SWAP1 JUMP JUMPDEST PUSH1 0x20 DUP1 DUP3 MSTORE PUSH1 0xE SWAP1 DUP3 ADD MSTORE PUSH14 0x125D195B481B9BDD08199BDD5B99 PUSH1 0x92 SHL PUSH1 0x40 DUP3 ADD MSTORE PUSH1 0x60 ADD SWAP1 JUMP JUMPDEST PUSH1 0x20 DUP2 MSTORE PUSH1 0x0 PUSH3 0x2C6A PUSH1 0x20 DUP4 ADD DUP5 PUSH3 0x3055 JUMP JUMPDEST DUP2 DUP2 SUB DUP2 DUP2 GT ISZERO PUSH3 0x34E7 JUMPI PUSH3 0x34E7 PUSH3 0x3462 JUMP JUMPDEST SWAP3 SWAP2 POP POP JUMP JUMPDEST DUP2 DUP2 SUB PUSH3 0x34F9 JUMPI POP POP JUMP JUMPDEST PUSH3 0x3505 DUP3 SLOAD PUSH3 0x330D JUMP JUMPDEST PUSH8 0xFFFFFFFFFFFFFFFF DUP2 GT ISZERO PUSH3 0x3520 JUMPI PUSH3 0x3520 PUSH3 0x2E68 JUMP JUMPDEST PUSH3 0x3531 DUP2 PUSH3 0x33C3 DUP5 SLOAD PUSH3 0x330D JUMP JUMPDEST PUSH1 0x0 PUSH1 0x1F DUP3 GT PUSH1 0x1 DUP2 EQ PUSH3 0x3568 JUMPI PUSH1 0x0 DUP4 ISZERO PUSH3 0x354F JUMPI POP DUP5 DUP3 ADD SLOAD JUMPDEST PUSH1 0x0 NOT PUSH1 0x3 DUP6 SWAP1 SHL SHR NOT AND PUSH1 0x1 DUP5 SWAP1 SHL OR DUP5 SSTORE PUSH3 0xCEA JUMP JUMPDEST PUSH1 0x0 DUP6 DUP2 MSTORE PUSH1 0x20 SWAP1 KECCAK256 PUSH1 0x1F NOT DUP5 AND SWAP1 PUSH1 0x0 DUP7 DUP2 MSTORE PUSH1 0x20 SWAP1 KECCAK256 DUP5 JUMPDEST DUP4 DUP2 LT ISZERO PUSH3 0x35A4 JUMPI DUP3 DUP7 ADD SLOAD DUP3 SSTORE PUSH1 0x1 SWAP6 DUP7 ADD SWAP6 SWAP1 SWAP2 ADD SWAP1 PUSH1 0x20 ADD PUSH3 0x3582 JUMP JUMPDEST POP DUP6 DUP4 LT ISZERO PUSH3 0x3452 JUMPI SWAP4 ADD SLOAD PUSH1 0x0 NOT PUSH1 0xF8 PUSH1 0x3 DUP8 SWAP1 SHL AND SHR NOT AND SWAP1 SWAP3 SSTORE POP POP PUSH1 0x1 SWAP1 DUP2 SHL ADD SWAP1 SSTORE POP JUMP JUMPDEST PUSH4 0x4E487B71 PUSH1 0xE0 SHL PUSH1 0x0 MSTORE PUSH1 0x31 PUSH1 0x4 MSTORE PUSH1 0x24 PUSH1 0x0 REVERT JUMPDEST PUSH4 0x4E487B71 PUSH1 0xE0 SHL PUSH1 0x0 MSTORE PUSH1 0x21 PUSH1 0x4 MSTORE PUSH1 0x24 PUSH1 0x0 REVERT JUMPDEST PUSH1 0x0 PUSH1 0x20 DUP3 DUP5 SUB SLT ISZERO PUSH3 0x360E JUMPI PUSH1 0x0 DUP1 REVERT JUMPDEST DUP2 MLOAD PUSH1 0x5 DUP2 LT PUSH3 0x2C6A JUMPI PUSH1 0x0 DUP1 REVERT JUMPDEST PUSH1 0x0 PUSH1 0x20 DUP3 DUP5 SUB SLT ISZERO PUSH3 0x3631 JUMPI PUSH1 0x0 DUP1 REVERT JUMPDEST POP MLOAD SWAP2 SWAP1 POP JUMP JUMPDEST DUP1 DUP3 ADD DUP1 DUP3 GT ISZERO PUSH3 0x34E7 JUMPI PUSH3 0x34E7 PUSH3 0x3462 JUMP JUMPDEST PUSH1 0x40 DUP2 MSTORE PUSH1 0x0 PUSH3 0x3663 PUSH1 0x40 DUP4 ADD DUP6 PUSH3 0x3055 JUMP JUMPDEST SWAP1 POP DUP3 PUSH1 0x20 DUP4 ADD MSTORE SWAP4 SWAP3 POP POP POP JUMP JUMPDEST PUSH1 0x80 DUP2 MSTORE PUSH1 0x0 PUSH3 0x3687 PUSH1 0x80 DUP4 ADD DUP8 PUSH3 0x3055 JUMP JUMPDEST DUP3 DUP2 SUB PUSH1 0x20 DUP5 ADD MSTORE PUSH3 0x369B DUP2 DUP8 PUSH3 0x3055 JUMP JUMPDEST PUSH1 0x1 PUSH1 0x1 PUSH1 0xA0 SHL SUB DUP7 AND PUSH1 0x40 DUP6 ADD MSTORE DUP4 DUP2 SUB PUSH1 0x60 DUP6 ADD MSTORE SWAP1 POP PUSH3 0x36C0 DUP2 DUP6 PUSH3 0x3055 JUMP JUMPDEST SWAP8 SWAP7 POP POP POP POP POP POP POP JUMP JUMPDEST PUSH1 0x60 DUP2 MSTORE PUSH1 0x0 PUSH3 0x36E0 PUSH1 0x60 DUP4 ADD DUP7 PUSH3 0x3055 JUMP JUMPDEST DUP3 DUP2 SUB PUSH1 0x20 DUP5 ADD MSTORE PUSH3 0x36F4 DUP2 DUP7 PUSH3 0x3055 JUMP JUMPDEST SWAP2 POP POP PUSH1 0x1 DUP1 PUSH1 0xA0 SHL SUB DUP4 AND PUSH1 0x40 DUP4 ADD MSTORE SWAP5 SWAP4 POP POP POP POP JUMP INVALID PUSH1 0x80 PUSH1 0x40 MSTORE PUSH1 0x40 MLOAD PUSH3 0x1A83 CODESIZE SUB DUP1 PUSH3 0x1A83 DUP4 CODECOPY DUP2 ADD PUSH1 0x40 DUP2 SWAP1 MSTORE PUSH3 0x26 SWAP2 PUSH3 0x124 JUMP JUMPDEST PUSH1 0x1 DUP1 SLOAD PUSH1 0x2 DUP1 SLOAD PUSH1 0x1 PUSH1 0x1 PUSH1 0xA0 SHL SUB DUP6 DUP2 AND PUSH1 0x1 PUSH1 0x1 PUSH1 0xA0 SHL SUB NOT SWAP3 DUP4 AND OR SWAP1 SWAP3 SSTORE PUSH1 0x3 DUP1 SLOAD SWAP1 SWAP2 AND PUSH20 0x6A7D3230514EE0E8078F23CF65B367D9984B055A OR SWAP1 SSTORE DUP5 AND PUSH2 0x100 MUL PUSH1 0xFF NOT SWAP1 DUP2 AND PUSH1 0x1 PUSH1 0x1 PUSH1 0xA8 SHL SUB NOT SWAP1 SWAP3 AND SWAP2 SWAP1 SWAP2 OR DUP3 SSTORE PUSH1 0x5 DUP1 SLOAD SWAP1 SWAP2 AND SWAP1 SSTORE TIMESTAMP PUSH1 0x0 SWAP1 DUP2 SSTORE PUSH1 0x4 DUP1 SLOAD SWAP3 DUP4 ADD DUP2 SSTORE SWAP1 MSTORE PUSH1 0x40 DUP1 MLOAD DUP1 DUP3 ADD SWAP1 SWAP2 MSTORE PUSH1 0xC DUP2 MSTORE PUSH12 0x24BA32B6903137BAB3B43A17 PUSH1 0xA1 SHL PUSH1 0x20 DUP3 ADD MSTORE PUSH32 0x8A35ACFBC15FF81A39AE7D344FD709F28E8600B4AA8C65C6B64BFE7FE36BD19B SWAP1 SWAP2 ADD SWAP1 PUSH3 0xF4 SWAP1 DUP3 PUSH3 0x203 JUMP JUMPDEST POP POP PUSH1 0x8 DUP1 SLOAD PUSH1 0xFF NOT AND SWAP1 SSTORE POP PUSH3 0x2CF JUMP JUMPDEST DUP1 MLOAD PUSH1 0x1 PUSH1 0x1 PUSH1 0xA0 SHL SUB DUP2 AND DUP2 EQ PUSH3 0x11F JUMPI PUSH1 0x0 DUP1 REVERT JUMPDEST SWAP2 SWAP1 POP JUMP JUMPDEST PUSH1 0x0 DUP1 PUSH1 0x40 DUP4 DUP6 SUB SLT ISZERO PUSH3 0x138 JUMPI PUSH1 0x0 DUP1 REVERT JUMPDEST PUSH3 0x143 DUP4 PUSH3 0x107 JUMP JUMPDEST SWAP2 POP PUSH3 0x153 PUSH1 0x20 DUP5 ADD PUSH3 0x107 JUMP JUMPDEST SWAP1 POP SWAP3 POP SWAP3 SWAP1 POP JUMP JUMPDEST PUSH4 0x4E487B71 PUSH1 0xE0 SHL PUSH1 0x0 MSTORE PUSH1 0x41 PUSH1 0x4 MSTORE PUSH1 0x24 PUSH1 0x0 REVERT JUMPDEST PUSH1 0x1 DUP2 DUP2 SHR SWAP1 DUP3 AND DUP1 PUSH3 0x187 JUMPI PUSH1 0x7F DUP3 AND SWAP2 POP JUMPDEST PUSH1 0x20 DUP3 LT DUP2 SUB PUSH3 0x1A8 JUMPI PUSH4 0x4E487B71 PUSH1 0xE0 SHL PUSH1 0x0 MSTORE PUSH1 0x22 PUSH1 0x4 MSTORE PUSH1 0x24 PUSH1 0x0 REVERT JUMPDEST POP SWAP2 SWAP1 POP JUMP JUMPDEST PUSH1 0x1F DUP3 GT ISZERO PUSH3 0x1FE JUMPI PUSH1 0x0 DUP2 PUSH1 0x0 MSTORE PUSH1 0x20 PUSH1 0x0 KECCAK256 PUSH1 0x1F DUP6 ADD PUSH1 0x5 SHR DUP2 ADD PUSH1 0x20 DUP7 LT ISZERO PUSH3 0x1D9 JUMPI POP DUP1 JUMPDEST PUSH1 0x1F DUP6 ADD PUSH1 0x5 SHR DUP3 ADD SWAP2 POP JUMPDEST DUP2 DUP2 LT ISZERO PUSH3 0x1FA JUMPI DUP3 DUP2 SSTORE PUSH1 0x1 ADD PUSH3 0x1E5 JUMP JUMPDEST POP POP POP JUMPDEST POP POP POP JUMP JUMPDEST DUP2 MLOAD PUSH1 0x1 PUSH1 0x1 PUSH1 0x40 SHL SUB DUP2 GT ISZERO PUSH3 0x21F JUMPI PUSH3 0x21F PUSH3 0x15C JUMP JUMPDEST PUSH3 0x237 DUP2 PUSH3 0x230 DUP5 SLOAD PUSH3 0x172 JUMP JUMPDEST DUP5 PUSH3 0x1AE JUMP JUMPDEST PUSH1 0x20 DUP1 PUSH1 0x1F DUP4 GT PUSH1 0x1 DUP2 EQ PUSH3 0x26F JUMPI PUSH1 0x0 DUP5 ISZERO PUSH3 0x256 JUMPI POP DUP6 DUP4 ADD MLOAD JUMPDEST PUSH1 0x0 NOT PUSH1 0x3 DUP7 SWAP1 SHL SHR NOT AND PUSH1 0x1 DUP6 SWAP1 SHL OR DUP6 SSTORE PUSH3 0x1FA JUMP JUMPDEST PUSH1 0x0 DUP6 DUP2 MSTORE PUSH1 0x20 DUP2 KECCAK256 PUSH1 0x1F NOT DUP7 AND SWAP2 JUMPDEST DUP3 DUP2 LT ISZERO PUSH3 0x2A0 JUMPI DUP9 DUP7 ADD MLOAD DUP3 SSTORE SWAP5 DUP5 ADD SWAP5 PUSH1 0x1 SWAP1 SWAP2 ADD SWAP1 DUP5 ADD PUSH3 0x27F JUMP JUMPDEST POP DUP6 DUP3 LT ISZERO PUSH3 0x2BF JUMPI DUP8 DUP6 ADD MLOAD PUSH1 0x0 NOT PUSH1 0x3 DUP9 SWAP1 SHL PUSH1 0xF8 AND SHR NOT AND DUP2 SSTORE JUMPDEST POP POP POP POP POP PUSH1 0x1 SWAP1 DUP2 SHL ADD SWAP1 SSTORE POP JUMP JUMPDEST PUSH2 0x17A4 DUP1 PUSH3 0x2DF PUSH1 0x0 CODECOPY PUSH1 0x0 RETURN INVALID PUSH1 0x80 PUSH1 0x40 MSTORE PUSH1 0x4 CALLDATASIZE LT PUSH2 0x109 JUMPI PUSH1 0x0 CALLDATALOAD PUSH1 0xE0 SHR DUP1 PUSH4 0x8285074B GT PUSH2 0x95 JUMPI DUP1 PUSH4 0xC00CCD54 GT PUSH2 0x64 JUMPI DUP1 PUSH4 0xC00CCD54 EQ PUSH2 0x29E JUMPI DUP1 PUSH4 0xD16F5B29 EQ PUSH2 0x2BE JUMPI DUP1 PUSH4 0xDD3FA136 EQ PUSH2 0x2E8 JUMPI DUP1 PUSH4 0xDF8D93B4 EQ PUSH2 0x308 JUMPI DUP1 PUSH4 0xEAAF0B63 EQ PUSH2 0x31D JUMPI PUSH1 0x0 DUP1 REVERT JUMPDEST DUP1 PUSH4 0x8285074B EQ PUSH2 0x23C JUMPI DUP1 PUSH4 0x89E1E82A EQ PUSH2 0x25C JUMPI DUP1 PUSH4 0xAFE01043 EQ PUSH2 0x26F JUMPI DUP1 PUSH4 0xBE6CB838 EQ PUSH2 0x296 JUMPI PUSH1 0x0 DUP1 REVERT JUMPDEST DUP1 PUSH4 0x526FF16F GT PUSH2 0xDC JUMPI DUP1 PUSH4 0x526FF16F EQ PUSH2 0x1A9 JUMPI DUP1 PUSH4 0x5B0222BB EQ PUSH2 0x1BE JUMPI DUP1 PUSH4 0x5E10177B EQ PUSH2 0x1E2 JUMPI DUP1 PUSH4 0x64E6AA52 EQ PUSH2 0x1F7 JUMPI DUP1 PUSH4 0x7150D8AE EQ PUSH2 0x217 JUMPI PUSH1 0x0 DUP1 REVERT JUMPDEST DUP1 PUSH4 0x8551A53 EQ PUSH2 0x10E JUMPI DUP1 PUSH4 0x1865C57D EQ PUSH2 0x14B JUMPI DUP1 PUSH4 0x19561DAE EQ PUSH2 0x170 JUMPI DUP1 PUSH4 0x4FD6137C EQ PUSH2 0x192 JUMPI JUMPDEST PUSH1 0x0 DUP1 REVERT JUMPDEST CALLVALUE DUP1 ISZERO PUSH2 0x11A JUMPI PUSH1 0x0 DUP1 REVERT JUMPDEST POP PUSH1 0x2 SLOAD PUSH2 0x12E SWAP1 PUSH1 0x1 PUSH1 0x1 PUSH1 0xA0 SHL SUB AND DUP2 JUMP JUMPDEST PUSH1 0x40 MLOAD PUSH1 0x1 PUSH1 0x1 PUSH1 0xA0 SHL SUB SWAP1 SWAP2 AND DUP2 MSTORE PUSH1 0x20 ADD JUMPDEST PUSH1 0x40 MLOAD DUP1 SWAP2 SUB SWAP1 RETURN JUMPDEST CALLVALUE DUP1 ISZERO PUSH2 0x157 JUMPI PUSH1 0x0 DUP1 REVERT JUMPDEST POP PUSH2 0x160 PUSH2 0x341 JUMP JUMPDEST PUSH1 0x40 MLOAD PUSH2 0x142 SWAP5 SWAP4 SWAP3 SWAP2 SWAP1 PUSH2 0x12D5 JUMP JUMPDEST CALLVALUE DUP1 ISZERO PUSH2 0x17C JUMPI PUSH1 0x0 DUP1 REVERT JUMPDEST POP PUSH2 0x185 PUSH2 0x510 JUMP JUMPDEST PUSH1 0x40 MLOAD PUSH2 0x142 SWAP2 SWAP1 PUSH2 0x1326 JUMP JUMPDEST CALLVALUE DUP1 ISZERO PUSH2 0x19E JUMPI PUSH1 0x0 DUP1 REVERT JUMPDEST POP PUSH2 0x1A7 PUSH2 0x59E JUMP JUMPDEST STOP JUMPDEST CALLVALUE DUP1 ISZERO PUSH2 0x1B5 JUMPI PUSH1 0x0 DUP1 REVERT JUMPDEST POP PUSH2 0x185 PUSH2 0x6BF JUMP JUMPDEST CALLVALUE DUP1 ISZERO PUSH2 0x1CA JUMPI PUSH1 0x0 DUP1 REVERT JUMPDEST POP PUSH2 0x1D4 PUSH1 0x0 SLOAD DUP2 JUMP JUMPDEST PUSH1 0x40 MLOAD SWAP1 DUP2 MSTORE PUSH1 0x20 ADD PUSH2 0x142 JUMP JUMPDEST CALLVALUE DUP1 ISZERO PUSH2 0x1EE JUMPI PUSH1 0x0 DUP1 REVERT JUMPDEST POP PUSH2 0x1A7 PUSH2 0x6CC JUMP JUMPDEST CALLVALUE DUP1 ISZERO PUSH2 0x203 JUMPI PUSH1 0x0 DUP1 REVERT JUMPDEST POP PUSH2 0x185 PUSH2 0x212 CALLDATASIZE PUSH1 0x4 PUSH2 0x1340 JUMP JUMPDEST PUSH2 0x804 JUMP JUMPDEST CALLVALUE DUP1 ISZERO PUSH2 0x223 JUMPI PUSH1 0x0 DUP1 REVERT JUMPDEST POP PUSH1 0x1 SLOAD PUSH2 0x12E SWAP1 PUSH2 0x100 SWAP1 DIV PUSH1 0x1 PUSH1 0x1 PUSH1 0xA0 SHL SUB AND DUP2 JUMP JUMPDEST CALLVALUE DUP1 ISZERO PUSH2 0x248 JUMPI PUSH1 0x0 DUP1 REVERT JUMPDEST POP PUSH2 0x1A7 PUSH2 0x257 CALLDATASIZE PUSH1 0x4 PUSH2 0x136F JUMP JUMPDEST PUSH2 0x82F JUMP JUMPDEST PUSH2 0x1A7 PUSH2 0x26A CALLDATASIZE PUSH1 0x4 PUSH2 0x1420 JUMP JUMPDEST PUSH2 0x95E JUMP JUMPDEST CALLVALUE DUP1 ISZERO PUSH2 0x27B JUMPI PUSH1 0x0 DUP1 REVERT JUMPDEST POP PUSH1 0x1 SLOAD PUSH2 0x289 SWAP1 PUSH1 0xFF AND DUP2 JUMP JUMPDEST PUSH1 0x40 MLOAD PUSH2 0x142 SWAP2 SWAP1 PUSH2 0x1442 JUMP JUMPDEST PUSH2 0x1A7 PUSH2 0xB2B JUMP JUMPDEST CALLVALUE DUP1 ISZERO PUSH2 0x2AA JUMPI PUSH1 0x0 DUP1 REVERT JUMPDEST POP PUSH2 0x1A7 PUSH2 0x2B9 CALLDATASIZE PUSH1 0x4 PUSH2 0x136F JUMP JUMPDEST PUSH2 0xCB4 JUMP JUMPDEST CALLVALUE DUP1 ISZERO PUSH2 0x2CA JUMPI PUSH1 0x0 DUP1 REVERT JUMPDEST POP PUSH1 0x8 SLOAD PUSH2 0x2D8 SWAP1 PUSH1 0xFF AND DUP2 JUMP JUMPDEST PUSH1 0x40 MLOAD SWAP1 ISZERO ISZERO DUP2 MSTORE PUSH1 0x20 ADD PUSH2 0x142 JUMP JUMPDEST CALLVALUE DUP1 ISZERO PUSH2 0x2F4 JUMPI PUSH1 0x0 DUP1 REVERT JUMPDEST POP PUSH2 0x1A7 PUSH2 0x303 CALLDATASIZE PUSH1 0x4 PUSH2 0x136F JUMP JUMPDEST PUSH2 0xDB6 JUMP JUMPDEST CALLVALUE DUP1 ISZERO PUSH2 0x314 JUMPI PUSH1 0x0 DUP1 REVERT JUMPDEST POP PUSH2 0x185 PUSH2 0xFE4 JUMP JUMPDEST CALLVALUE DUP1 ISZERO PUSH2 0x329 JUMPI PUSH1 0x0 DUP1 REVERT JUMPDEST POP PUSH2 0x332 PUSH2 0xFF1 JUMP JUMPDEST PUSH1 0x40 MLOAD PUSH2 0x142 SWAP4 SWAP3 SWAP2 SWAP1 PUSH2 0x1456 JUMP JUMPDEST PUSH1 0x0 PUSH1 0x60 DUP1 PUSH1 0x60 PUSH1 0x1 PUSH1 0x0 SWAP1 SLOAD SWAP1 PUSH2 0x100 EXP SWAP1 DIV PUSH1 0xFF AND PUSH1 0x9 PUSH1 0x6 PUSH1 0x7 DUP3 DUP1 SLOAD PUSH2 0x36A SWAP1 PUSH2 0x14E2 JUMP JUMPDEST DUP1 PUSH1 0x1F ADD PUSH1 0x20 DUP1 SWAP2 DIV MUL PUSH1 0x20 ADD PUSH1 0x40 MLOAD SWAP1 DUP2 ADD PUSH1 0x40 MSTORE DUP1 SWAP3 SWAP2 SWAP1 DUP2 DUP2 MSTORE PUSH1 0x20 ADD DUP3 DUP1 SLOAD PUSH2 0x396 SWAP1 PUSH2 0x14E2 JUMP JUMPDEST DUP1 ISZERO PUSH2 0x3E3 JUMPI DUP1 PUSH1 0x1F LT PUSH2 0x3B8 JUMPI PUSH2 0x100 DUP1 DUP4 SLOAD DIV MUL DUP4 MSTORE SWAP2 PUSH1 0x20 ADD SWAP2 PUSH2 0x3E3 JUMP JUMPDEST DUP3 ADD SWAP2 SWAP1 PUSH1 0x0 MSTORE PUSH1 0x20 PUSH1 0x0 KECCAK256 SWAP1 JUMPDEST DUP2 SLOAD DUP2 MSTORE SWAP1 PUSH1 0x1 ADD SWAP1 PUSH1 0x20 ADD DUP1 DUP4 GT PUSH2 0x3C6 JUMPI DUP3 SWAP1 SUB PUSH1 0x1F AND DUP3 ADD SWAP2 JUMPDEST POP POP POP POP POP SWAP3 POP DUP2 DUP1 SLOAD PUSH2 0x3F6 SWAP1 PUSH2 0x14E2 JUMP JUMPDEST DUP1 PUSH1 0x1F ADD PUSH1 0x20 DUP1 SWAP2 DIV MUL PUSH1 0x20 ADD PUSH1 0x40 MLOAD SWAP1 DUP2 ADD PUSH1 0x40 MSTORE DUP1 SWAP3 SWAP2 SWAP1 DUP2 DUP2 MSTORE PUSH1 0x20 ADD DUP3 DUP1 SLOAD PUSH2 0x422 SWAP1 PUSH2 0x14E2 JUMP JUMPDEST DUP1 ISZERO PUSH2 0x46F JUMPI DUP1 PUSH1 0x1F LT PUSH2 0x444 JUMPI PUSH2 0x100 DUP1 DUP4 SLOAD DIV MUL DUP4 MSTORE SWAP2 PUSH1 0x20 ADD SWAP2 PUSH2 0x46F JUMP JUMPDEST DUP3 ADD SWAP2 SWAP1 PUSH1 0x0 MSTORE PUSH1 0x20 PUSH1 0x0 KECCAK256 SWAP1 JUMPDEST DUP2 SLOAD DUP2 MSTORE SWAP1 PUSH1 0x1 ADD SWAP1 PUSH1 0x20 ADD DUP1 DUP4 GT PUSH2 0x452 JUMPI DUP3 SWAP1 SUB PUSH1 0x1F AND DUP3 ADD SWAP2 JUMPDEST POP POP POP POP POP SWAP2 POP DUP1 DUP1 SLOAD PUSH2 0x482 SWAP1 PUSH2 0x14E2 JUMP JUMPDEST DUP1 PUSH1 0x1F ADD PUSH1 0x20 DUP1 SWAP2 DIV MUL PUSH1 0x20 ADD PUSH1 0x40 MLOAD SWAP1 DUP2 ADD PUSH1 0x40 MSTORE DUP1 SWAP3 SWAP2 SWAP1 DUP2 DUP2 MSTORE PUSH1 0x20 ADD DUP3 DUP1 SLOAD PUSH2 0x4AE SWAP1 PUSH2 0x14E2 JUMP JUMPDEST DUP1 ISZERO PUSH2 0x4FB JUMPI DUP1 PUSH1 0x1F LT PUSH2 0x4D0 JUMPI PUSH2 0x100 DUP1 DUP4 SLOAD DIV MUL DUP4 MSTORE SWAP2 PUSH1 0x20 ADD SWAP2 PUSH2 0x4FB JUMP JUMPDEST DUP3 ADD SWAP2 SWAP1 PUSH1 0x0 MSTORE PUSH1 0x20 PUSH1 0x0 KECCAK256 SWAP1 JUMPDEST DUP2 SLOAD DUP2 MSTORE SWAP1 PUSH1 0x1 ADD SWAP1 PUSH1 0x20 ADD DUP1 DUP4 GT PUSH2 0x4DE JUMPI DUP3 SWAP1 SUB PUSH1 0x1F AND DUP3 ADD SWAP2 JUMPDEST POP POP POP POP POP SWAP1 POP SWAP4 POP SWAP4 POP SWAP4 POP SWAP4 POP SWAP1 SWAP2 SWAP3 SWAP4 JUMP JUMPDEST PUSH1 0x6 DUP1 SLOAD PUSH2 0x51D SWAP1 PUSH2 0x14E2 JUMP JUMPDEST DUP1 PUSH1 0x1F ADD PUSH1 0x20 DUP1 SWAP2 DIV MUL PUSH1 0x20 ADD PUSH1 0x40 MLOAD SWAP1 DUP2 ADD PUSH1 0x40 MSTORE DUP1 SWAP3 SWAP2 SWAP1 DUP2 DUP2 MSTORE PUSH1 0x20 ADD DUP3 DUP1 SLOAD PUSH2 0x549 SWAP1 PUSH2 0x14E2 JUMP JUMPDEST DUP1 ISZERO PUSH2 0x596 JUMPI DUP1 PUSH1 0x1F LT PUSH2 0x56B JUMPI PUSH2 0x100 DUP1 DUP4 SLOAD DIV MUL DUP4 MSTORE SWAP2 PUSH1 0x20 ADD SWAP2 PUSH2 0x596 JUMP JUMPDEST DUP3 ADD SWAP2 SWAP1 PUSH1 0x0 MSTORE PUSH1 0x20 PUSH1 0x0 KECCAK256 SWAP1 JUMPDEST DUP2 SLOAD DUP2 MSTORE SWAP1 PUSH1 0x1 ADD SWAP1 PUSH1 0x20 ADD DUP1 DUP4 GT PUSH2 0x579 JUMPI DUP3 SWAP1 SUB PUSH1 0x1F AND DUP3 ADD SWAP2 JUMPDEST POP POP POP POP POP DUP2 JUMP JUMPDEST PUSH1 0x1 SLOAD PUSH2 0x100 SWAP1 DIV PUSH1 0x1 PUSH1 0x1 PUSH1 0xA0 SHL SUB AND CALLER EQ PUSH2 0x5D6 JUMPI PUSH1 0x40 MLOAD PUSH3 0x461BCD PUSH1 0xE5 SHL DUP2 MSTORE PUSH1 0x4 ADD PUSH2 0x5CD SWAP1 PUSH2 0x151C JUMP JUMPDEST PUSH1 0x40 MLOAD DUP1 SWAP2 SUB SWAP1 REVERT JUMPDEST PUSH1 0x1 DUP1 SLOAD PUSH1 0xFF AND PUSH1 0x4 DUP2 GT ISZERO PUSH2 0x5EE JUMPI PUSH2 0x5EE PUSH2 0x1257 JUMP JUMPDEST EQ PUSH2 0x645 JUMPI PUSH1 0x40 MLOAD PUSH3 0x461BCD PUSH1 0xE5 SHL DUP2 MSTORE PUSH1 0x20 PUSH1 0x4 DUP3 ADD MSTORE PUSH1 0x21 PUSH1 0x24 DUP3 ADD MSTORE PUSH32 0x43616E6E6F74206F70656E206469737075746520617420746869732073746167 PUSH1 0x44 DUP3 ADD MSTORE PUSH1 0x65 PUSH1 0xF8 SHL PUSH1 0x64 DUP3 ADD MSTORE PUSH1 0x84 ADD PUSH2 0x5CD JUMP JUMPDEST PUSH1 0x1 DUP1 SLOAD PUSH1 0xFF NOT SWAP1 DUP2 AND PUSH1 0x3 OR DUP3 SSTORE PUSH1 0x8 DUP1 SLOAD SWAP1 SWAP2 AND DUP3 OR SWAP1 SSTORE PUSH1 0x4 DUP1 SLOAD SWAP2 DUP3 ADD DUP2 SSTORE PUSH1 0x0 MSTORE PUSH1 0x40 DUP1 MLOAD DUP1 DUP3 ADD SWAP1 SWAP2 MSTORE PUSH1 0x1C DUP2 MSTORE PUSH32 0x44697370757465206F70656E6564206279207468652062757965722E00000000 PUSH1 0x20 DUP3 ADD MSTORE PUSH1 0x0 DUP1 MLOAD PUSH1 0x20 PUSH2 0x1726 DUP4 CODECOPY DUP2 MLOAD SWAP2 MSTORE SWAP1 SWAP2 ADD SWAP1 PUSH2 0x6BC SWAP1 DUP3 PUSH2 0x15A4 JUMP JUMPDEST POP JUMP JUMPDEST PUSH1 0x9 DUP1 SLOAD PUSH2 0x51D SWAP1 PUSH2 0x14E2 JUMP JUMPDEST PUSH1 0x1 SLOAD PUSH2 0x100 SWAP1 DIV PUSH1 0x1 PUSH1 0x1 PUSH1 0xA0 SHL SUB AND CALLER EQ PUSH2 0x6FB JUMPI PUSH1 0x40 MLOAD PUSH3 0x461BCD PUSH1 0xE5 SHL DUP2 MSTORE PUSH1 0x4 ADD PUSH2 0x5CD SWAP1 PUSH2 0x151C JUMP JUMPDEST PUSH1 0x1 DUP1 SLOAD PUSH1 0xFF AND PUSH1 0x4 DUP2 GT ISZERO PUSH2 0x713 JUMPI PUSH2 0x713 PUSH2 0x1257 JUMP JUMPDEST EQ PUSH2 0x760 JUMPI PUSH1 0x40 MLOAD PUSH3 0x461BCD PUSH1 0xE5 SHL DUP2 MSTORE PUSH1 0x20 PUSH1 0x4 DUP3 ADD MSTORE PUSH1 0x17 PUSH1 0x24 DUP3 ADD MSTORE PUSH32 0x43616E6E6F7420636F6E6669726D2064656C6976657279000000000000000000 PUSH1 0x44 DUP3 ADD MSTORE PUSH1 0x64 ADD PUSH2 0x5CD JUMP JUMPDEST PUSH1 0x2 SLOAD PUSH1 0x40 MLOAD PUSH1 0x1 PUSH1 0x1 PUSH1 0xA0 SHL SUB SWAP1 SWAP2 AND SWAP1 SELFBALANCE DUP1 ISZERO PUSH2 0x8FC MUL SWAP2 PUSH1 0x0 DUP2 DUP2 DUP2 DUP6 DUP9 DUP9 CALL SWAP4 POP POP POP POP ISZERO DUP1 ISZERO PUSH2 0x799 JUMPI RETURNDATASIZE PUSH1 0x0 DUP1 RETURNDATACOPY RETURNDATASIZE PUSH1 0x0 REVERT JUMPDEST POP PUSH1 0x1 DUP1 SLOAD PUSH1 0xFF NOT AND PUSH1 0x2 OR DUP2 SSTORE PUSH1 0x4 DUP1 SLOAD SWAP2 DUP3 ADD DUP2 SSTORE PUSH1 0x0 MSTORE PUSH1 0x40 DUP1 MLOAD DUP1 DUP3 ADD SWAP1 SWAP2 MSTORE PUSH1 0x1B DUP2 MSTORE PUSH32 0x4974656D207265636965766564206279207468652062757965722E0000000000 PUSH1 0x20 DUP3 ADD MSTORE PUSH1 0x0 DUP1 MLOAD PUSH1 0x20 PUSH2 0x1726 DUP4 CODECOPY DUP2 MLOAD SWAP2 MSTORE SWAP1 SWAP2 ADD SWAP1 PUSH2 0x6BC SWAP1 DUP3 PUSH2 0x15A4 JUMP JUMPDEST PUSH1 0x4 DUP2 DUP2 SLOAD DUP2 LT PUSH2 0x814 JUMPI PUSH1 0x0 DUP1 REVERT JUMPDEST SWAP1 PUSH1 0x0 MSTORE PUSH1 0x20 PUSH1 0x0 KECCAK256 ADD PUSH1 0x0 SWAP2 POP SWAP1 POP DUP1 SLOAD PUSH2 0x51D SWAP1 PUSH2 0x14E2 JUMP JUMPDEST PUSH1 0x1 SLOAD PUSH2 0x100 SWAP1 DIV PUSH1 0x1 PUSH1 0x1 PUSH1 0xA0 SHL SUB AND CALLER EQ PUSH2 0x85E JUMPI PUSH1 0x40 MLOAD PUSH3 0x461BCD PUSH1 0xE5 SHL DUP2 MSTORE PUSH1 0x4 ADD PUSH2 0x5CD SWAP1 PUSH2 0x151C JUMP JUMPDEST PUSH1 0x3 PUSH1 0x1 SLOAD PUSH1 0xFF AND PUSH1 0x4 DUP2 GT ISZERO PUSH2 0x877 JUMPI PUSH2 0x877 PUSH2 0x1257 JUMP JUMPDEST EQ PUSH2 0x894 JUMPI PUSH1 0x40 MLOAD PUSH3 0x461BCD PUSH1 0xE5 SHL DUP2 MSTORE PUSH1 0x4 ADD PUSH2 0x5CD SWAP1 PUSH2 0x1664 JUMP JUMPDEST PUSH1 0x7 DUP1 SLOAD PUSH2 0x8A1 SWAP1 PUSH2 0x14E2 JUMP JUMPDEST ISZERO SWAP1 POP PUSH2 0x8F0 JUMPI PUSH1 0x40 MLOAD PUSH3 0x461BCD PUSH1 0xE5 SHL DUP2 MSTORE PUSH1 0x20 PUSH1 0x4 DUP3 ADD DUP2 SWAP1 MSTORE PUSH1 0x24 DUP3 ADD MSTORE PUSH32 0x50726F6F6620616C7265616479207375626D6974746564206279206275796572 PUSH1 0x44 DUP3 ADD MSTORE PUSH1 0x64 ADD PUSH2 0x5CD JUMP JUMPDEST PUSH1 0x0 PUSH1 0x6 DUP1 SLOAD PUSH2 0x8FF SWAP1 PUSH2 0x14E2 JUMP JUMPDEST SWAP1 POP GT PUSH2 0x94E JUMPI PUSH1 0x40 MLOAD PUSH3 0x461BCD PUSH1 0xE5 SHL DUP2 MSTORE PUSH1 0x20 PUSH1 0x4 DUP3 ADD MSTORE PUSH1 0x1E PUSH1 0x24 DUP3 ADD MSTORE PUSH32 0x53656C6C6572206D757374207375626D69742070726F6F662066697273740000 PUSH1 0x44 DUP3 ADD MSTORE PUSH1 0x64 ADD PUSH2 0x5CD JUMP JUMPDEST PUSH1 0x7 PUSH2 0x95A DUP3 DUP3 PUSH2 0x15A4 JUMP JUMPDEST POP POP JUMP JUMPDEST PUSH1 0x3 SLOAD PUSH1 0x1 PUSH1 0x1 PUSH1 0xA0 SHL SUB AND CALLER EQ PUSH2 0x9C4 JUMPI PUSH1 0x40 MLOAD PUSH3 0x461BCD PUSH1 0xE5 SHL DUP2 MSTORE PUSH1 0x20 PUSH1 0x4 DUP3 ADD MSTORE PUSH1 0x24 DUP1 DUP3 ADD MSTORE PUSH32 0x4F6E6C792061726269747261746F722063616E2063616C6C2074686973206D65 PUSH1 0x44 DUP3 ADD MSTORE PUSH4 0x1D1A1BD9 PUSH1 0xE2 SHL PUSH1 0x64 DUP3 ADD MSTORE PUSH1 0x84 ADD PUSH2 0x5CD JUMP JUMPDEST PUSH1 0x3 PUSH1 0x1 SLOAD PUSH1 0xFF AND PUSH1 0x4 DUP2 GT ISZERO PUSH2 0x9DD JUMPI PUSH2 0x9DD PUSH2 0x1257 JUMP JUMPDEST EQ PUSH2 0x9FA JUMPI PUSH1 0x40 MLOAD PUSH3 0x461BCD PUSH1 0xE5 SHL DUP2 MSTORE PUSH1 0x4 ADD PUSH2 0x5CD SWAP1 PUSH2 0x1664 JUMP JUMPDEST DUP1 ISZERO PUSH2 0xA8D JUMPI PUSH1 0x1 SLOAD PUSH1 0x40 MLOAD PUSH1 0x1 PUSH1 0x1 PUSH1 0xA0 SHL SUB PUSH2 0x100 SWAP1 SWAP3 DIV SWAP2 SWAP1 SWAP2 AND SWAP1 SELFBALANCE DUP1 ISZERO PUSH2 0x8FC MUL SWAP2 PUSH1 0x0 DUP2 DUP2 DUP2 DUP6 DUP9 DUP9 CALL SWAP4 POP POP POP POP ISZERO DUP1 ISZERO PUSH2 0xA40 JUMPI RETURNDATASIZE PUSH1 0x0 DUP1 RETURNDATACOPY RETURNDATASIZE PUSH1 0x0 REVERT JUMPDEST POP PUSH1 0x4 DUP1 SLOAD PUSH1 0x1 DUP2 ADD DUP3 SSTORE PUSH1 0x0 SWAP2 DUP3 MSTORE PUSH1 0x40 DUP1 MLOAD PUSH1 0x60 DUP2 ADD SWAP1 SWAP2 MSTORE PUSH1 0x23 DUP1 DUP3 MSTORE PUSH1 0x0 DUP1 MLOAD PUSH1 0x20 PUSH2 0x1726 DUP4 CODECOPY DUP2 MLOAD SWAP2 MSTORE SWAP1 SWAP3 ADD SWAP3 SWAP2 PUSH2 0x1703 PUSH1 0x20 DUP4 ADD CODECOPY PUSH2 0xA87 SWAP2 POP DUP3 PUSH2 0x15A4 JUMP JUMPDEST POP PUSH2 0xB0F JUMP JUMPDEST PUSH1 0x2 SLOAD PUSH1 0x40 MLOAD PUSH1 0x1 PUSH1 0x1 PUSH1 0xA0 SHL SUB SWAP1 SWAP2 AND SWAP1 SELFBALANCE DUP1 ISZERO PUSH2 0x8FC MUL SWAP2 PUSH1 0x0 DUP2 DUP2 DUP2 DUP6 DUP9 DUP9 CALL SWAP4 POP POP POP POP ISZERO DUP1 ISZERO PUSH2 0xAC6 JUMPI RETURNDATASIZE PUSH1 0x0 DUP1 RETURNDATACOPY RETURNDATASIZE PUSH1 0x0 REVERT JUMPDEST POP PUSH1 0x4 DUP1 SLOAD PUSH1 0x1 DUP2 ADD DUP3 SSTORE PUSH1 0x0 SWAP2 DUP3 MSTORE PUSH1 0x40 DUP1 MLOAD PUSH1 0x60 DUP2 ADD SWAP1 SWAP2 MSTORE PUSH1 0x24 DUP1 DUP3 MSTORE PUSH1 0x0 DUP1 MLOAD PUSH1 0x20 PUSH2 0x1726 DUP4 CODECOPY DUP2 MLOAD SWAP2 MSTORE SWAP1 SWAP3 ADD SWAP3 SWAP2 PUSH2 0x16DF PUSH1 0x20 DUP4 ADD CODECOPY PUSH2 0xB0D SWAP2 POP DUP3 PUSH2 0x15A4 JUMP JUMPDEST POP JUMPDEST POP PUSH1 0x1 DUP1 SLOAD PUSH1 0xFF NOT SWAP1 DUP2 AND PUSH1 0x4 OR SWAP1 SWAP2 SSTORE PUSH1 0x8 DUP1 SLOAD SWAP1 SWAP2 AND SWAP1 SSTORE JUMP JUMPDEST PUSH1 0x0 PUSH1 0x1 SLOAD PUSH1 0xFF AND PUSH1 0x4 DUP2 GT ISZERO PUSH2 0xB44 JUMPI PUSH2 0xB44 PUSH2 0x1257 JUMP JUMPDEST EQ PUSH2 0xBC5 JUMPI PUSH1 0x40 MLOAD PUSH3 0x461BCD PUSH1 0xE5 SHL DUP2 MSTORE PUSH1 0x20 PUSH1 0x4 DUP3 ADD MSTORE PUSH1 0x44 PUSH1 0x24 DUP3 ADD DUP2 SWAP1 MSTORE PUSH32 0x43616E6E6F7420726566756E642E204974656D2068617320616C726561647920 SWAP1 DUP3 ADD MSTORE PUSH32 0x6265656E2073686970706564206F7220697320696E20616E6F74686572207374 PUSH1 0x64 DUP3 ADD MSTORE PUSH4 0x30BA3297 PUSH1 0xE1 SHL PUSH1 0x84 DUP3 ADD MSTORE PUSH1 0xA4 ADD PUSH2 0x5CD JUMP JUMPDEST PUSH1 0x0 SLOAD PUSH2 0xBD4 SWAP1 PUSH2 0x384 PUSH2 0x168F JUMP JUMPDEST TIMESTAMP LT PUSH2 0xC22 JUMPI PUSH1 0x40 MLOAD PUSH3 0x461BCD PUSH1 0xE5 SHL DUP2 MSTORE PUSH1 0x20 PUSH1 0x4 DUP3 ADD MSTORE PUSH1 0x1F PUSH1 0x24 DUP3 ADD MSTORE PUSH32 0x43616E63656C6C6174696F6E20706572696F6420686173207061737365642E00 PUSH1 0x44 DUP3 ADD MSTORE PUSH1 0x64 ADD PUSH2 0x5CD JUMP JUMPDEST PUSH1 0x1 SLOAD PUSH1 0x40 MLOAD PUSH1 0x1 PUSH1 0x1 PUSH1 0xA0 SHL SUB PUSH2 0x100 SWAP1 SWAP3 DIV SWAP2 SWAP1 SWAP2 AND SWAP1 SELFBALANCE DUP1 ISZERO PUSH2 0x8FC MUL SWAP2 PUSH1 0x0 DUP2 DUP2 DUP2 DUP6 DUP9 DUP9 CALL SWAP4 POP POP POP POP ISZERO DUP1 ISZERO PUSH2 0xC62 JUMPI RETURNDATASIZE PUSH1 0x0 DUP1 RETURNDATACOPY RETURNDATASIZE PUSH1 0x0 REVERT JUMPDEST POP PUSH1 0x1 DUP1 SLOAD PUSH1 0xFF NOT AND PUSH1 0x4 SWAP1 DUP2 OR DUP3 SSTORE DUP1 SLOAD SWAP2 DUP3 ADD DUP2 SSTORE PUSH1 0x0 SWAP1 DUP2 MSTORE PUSH1 0x40 DUP1 MLOAD PUSH1 0x60 DUP2 ADD SWAP1 SWAP2 MSTORE PUSH1 0x29 DUP1 DUP3 MSTORE PUSH1 0x0 DUP1 MLOAD PUSH1 0x20 PUSH2 0x1726 DUP4 CODECOPY DUP2 MLOAD SWAP2 MSTORE SWAP1 SWAP4 ADD SWAP3 PUSH2 0x1746 PUSH1 0x20 DUP4 ADD CODECOPY PUSH2 0x6BC SWAP2 POP DUP3 PUSH2 0x15A4 JUMP JUMPDEST PUSH1 0x2 SLOAD PUSH1 0x1 PUSH1 0x1 PUSH1 0xA0 SHL SUB AND CALLER EQ PUSH2 0xD0E JUMPI PUSH1 0x40 MLOAD PUSH3 0x461BCD PUSH1 0xE5 SHL DUP2 MSTORE PUSH1 0x20 PUSH1 0x4 DUP3 ADD DUP2 SWAP1 MSTORE PUSH1 0x24 DUP3 ADD MSTORE PUSH32 0x4F6E6C792073656C6C65722063616E2063616C6C2074686973206D6574686F64 PUSH1 0x44 DUP3 ADD MSTORE PUSH1 0x64 ADD PUSH2 0x5CD JUMP JUMPDEST PUSH1 0x3 PUSH1 0x1 SLOAD PUSH1 0xFF AND PUSH1 0x4 DUP2 GT ISZERO PUSH2 0xD27 JUMPI PUSH2 0xD27 PUSH2 0x1257 JUMP JUMPDEST EQ PUSH2 0xD44 JUMPI PUSH1 0x40 MLOAD PUSH3 0x461BCD PUSH1 0xE5 SHL DUP2 MSTORE PUSH1 0x4 ADD PUSH2 0x5CD SWAP1 PUSH2 0x1664 JUMP JUMPDEST PUSH1 0x6 DUP1 SLOAD PUSH2 0xD51 SWAP1 PUSH2 0x14E2 JUMP JUMPDEST ISZERO SWAP1 POP PUSH2 0xDAA JUMPI PUSH1 0x40 MLOAD PUSH3 0x461BCD PUSH1 0xE5 SHL DUP2 MSTORE PUSH1 0x20 PUSH1 0x4 DUP3 ADD MSTORE PUSH1 0x21 PUSH1 0x24 DUP3 ADD MSTORE PUSH32 0x50726F6F6620616C7265616479207375626D69747465642062792073656C6C65 PUSH1 0x44 DUP3 ADD MSTORE PUSH1 0x39 PUSH1 0xF9 SHL PUSH1 0x64 DUP3 ADD MSTORE PUSH1 0x84 ADD PUSH2 0x5CD JUMP JUMPDEST PUSH1 0x6 PUSH2 0x95A DUP3 DUP3 PUSH2 0x15A4 JUMP JUMPDEST PUSH1 0x0 PUSH1 0x1 SLOAD PUSH1 0xFF AND PUSH1 0x4 DUP2 GT ISZERO PUSH2 0xDCF JUMPI PUSH2 0xDCF PUSH2 0x1257 JUMP JUMPDEST EQ PUSH2 0xE1C JUMPI PUSH1 0x40 MLOAD PUSH3 0x461BCD PUSH1 0xE5 SHL DUP2 MSTORE PUSH1 0x20 PUSH1 0x4 DUP3 ADD MSTORE PUSH1 0x1E PUSH1 0x24 DUP3 ADD MSTORE PUSH32 0x43616E6E6F7420736869702E20496E636F7272656374207374617475732E0000 PUSH1 0x44 DUP3 ADD MSTORE PUSH1 0x64 ADD PUSH2 0x5CD JUMP JUMPDEST PUSH1 0x0 SLOAD PUSH2 0xE2B SWAP1 PUSH2 0x384 PUSH2 0x168F JUMP JUMPDEST TIMESTAMP LT ISZERO PUSH2 0xEA0 JUMPI PUSH1 0x40 MLOAD PUSH3 0x461BCD PUSH1 0xE5 SHL DUP2 MSTORE PUSH1 0x20 PUSH1 0x4 DUP3 ADD MSTORE PUSH1 0x3D PUSH1 0x24 DUP3 ADD MSTORE PUSH32 0x43616E6E6F742073686970206265666F7265203135206D696E7574652063616E PUSH1 0x44 DUP3 ADD MSTORE PUSH32 0x63656C6C6174696F6E20706572696F642068617320656C61707365642E000000 PUSH1 0x64 DUP3 ADD MSTORE PUSH1 0x84 ADD PUSH2 0x5CD JUMP JUMPDEST PUSH1 0x1 DUP1 SLOAD PUSH1 0xFF NOT AND DUP2 OR SWAP1 SSTORE PUSH1 0x9 PUSH2 0xEB8 DUP3 DUP3 PUSH2 0x15A4 JUMP JUMPDEST POP PUSH1 0x4 DUP1 SLOAD PUSH1 0x1 DUP2 ADD DUP3 SSTORE PUSH1 0x0 SWAP2 SWAP1 SWAP2 MSTORE PUSH1 0x40 DUP1 MLOAD DUP1 DUP3 ADD SWAP1 SWAP2 MSTORE PUSH1 0x18 DUP2 MSTORE PUSH32 0x4974656D2073656E74206279207468652073656C6C65722E0000000000000000 PUSH1 0x20 DUP3 ADD MSTORE PUSH1 0x0 DUP1 MLOAD PUSH1 0x20 PUSH2 0x1726 DUP4 CODECOPY DUP2 MLOAD SWAP2 MSTORE SWAP1 SWAP2 ADD SWAP1 PUSH2 0xF1A SWAP1 DUP3 PUSH2 0x15A4 JUMP JUMPDEST POP PUSH2 0x6BC PUSH1 0x40 MLOAD DUP1 PUSH1 0x40 ADD PUSH1 0x40 MSTORE DUP1 PUSH1 0x18 DUP2 MSTORE PUSH1 0x20 ADD PUSH32 0x547261636B696E67206E756D626572207365743A202573200000000000000000 DUP2 MSTORE POP PUSH1 0x9 DUP1 SLOAD PUSH2 0xF61 SWAP1 PUSH2 0x14E2 JUMP JUMPDEST DUP1 PUSH1 0x1F ADD PUSH1 0x20 DUP1 SWAP2 DIV MUL PUSH1 0x20 ADD PUSH1 0x40 MLOAD SWAP1 DUP2 ADD PUSH1 0x40 MSTORE DUP1 SWAP3 SWAP2 SWAP1 DUP2 DUP2 MSTORE PUSH1 0x20 ADD DUP3 DUP1 SLOAD PUSH2 0xF8D SWAP1 PUSH2 0x14E2 JUMP JUMPDEST DUP1 ISZERO PUSH2 0xFDA JUMPI DUP1 PUSH1 0x1F LT PUSH2 0xFAF JUMPI PUSH2 0x100 DUP1 DUP4 SLOAD DIV MUL DUP4 MSTORE SWAP2 PUSH1 0x20 ADD SWAP2 PUSH2 0xFDA JUMP JUMPDEST DUP3 ADD SWAP2 SWAP1 PUSH1 0x0 MSTORE PUSH1 0x20 PUSH1 0x0 KECCAK256 SWAP1 JUMPDEST DUP2 SLOAD DUP2 MSTORE SWAP1 PUSH1 0x1 ADD SWAP1 PUSH1 0x20 ADD DUP1 DUP4 GT PUSH2 0xFBD JUMPI DUP3 SWAP1 SUB PUSH1 0x1F AND DUP3 ADD SWAP2 JUMPDEST POP POP POP POP POP PUSH2 0x11F2 JUMP JUMPDEST PUSH1 0x7 DUP1 SLOAD PUSH2 0x51D SWAP1 PUSH2 0x14E2 JUMP JUMPDEST PUSH1 0x60 DUP1 PUSH1 0x60 PUSH1 0x4 PUSH1 0x6 PUSH1 0x7 DUP3 DUP1 SLOAD DUP1 PUSH1 0x20 MUL PUSH1 0x20 ADD PUSH1 0x40 MLOAD SWAP1 DUP2 ADD PUSH1 0x40 MSTORE DUP1 SWAP3 SWAP2 SWAP1 DUP2 DUP2 MSTORE PUSH1 0x20 ADD PUSH1 0x0 SWAP1 JUMPDEST DUP3 DUP3 LT ISZERO PUSH2 0x10C9 JUMPI DUP4 DUP3 SWAP1 PUSH1 0x0 MSTORE PUSH1 0x20 PUSH1 0x0 KECCAK256 ADD DUP1 SLOAD PUSH2 0x103C SWAP1 PUSH2 0x14E2 JUMP JUMPDEST DUP1 PUSH1 0x1F ADD PUSH1 0x20 DUP1 SWAP2 DIV MUL PUSH1 0x20 ADD PUSH1 0x40 MLOAD SWAP1 DUP2 ADD PUSH1 0x40 MSTORE DUP1 SWAP3 SWAP2 SWAP1 DUP2 DUP2 MSTORE PUSH1 0x20 ADD DUP3 DUP1 SLOAD PUSH2 0x1068 SWAP1 PUSH2 0x14E2 JUMP JUMPDEST DUP1 ISZERO PUSH2 0x10B5 JUMPI DUP1 PUSH1 0x1F LT PUSH2 0x108A JUMPI PUSH2 0x100 DUP1 DUP4 SLOAD DIV MUL DUP4 MSTORE SWAP2 PUSH1 0x20 ADD SWAP2 PUSH2 0x10B5 JUMP JUMPDEST DUP3 ADD SWAP2 SWAP1 PUSH1 0x0 MSTORE PUSH1 0x20 PUSH1 0x0 KECCAK256 SWAP1 JUMPDEST DUP2 SLOAD DUP2 MSTORE SWAP1 PUSH1 0x1 ADD SWAP1 PUSH1 0x20 ADD DUP1 DUP4 GT PUSH2 0x1098 JUMPI DUP3 SWAP1 SUB PUSH1 0x1F AND DUP3 ADD SWAP2 JUMPDEST POP POP POP POP POP DUP2 MSTORE PUSH1 0x20 ADD SWAP1 PUSH1 0x1 ADD SWAP1 PUSH2 0x101D JUMP JUMPDEST POP POP POP POP SWAP3 POP DUP2 DUP1 SLOAD PUSH2 0x10DB SWAP1 PUSH2 0x14E2 JUMP JUMPDEST DUP1 PUSH1 0x1F ADD PUSH1 0x20 DUP1 SWAP2 DIV MUL PUSH1 0x20 ADD PUSH1 0x40 MLOAD SWAP1 DUP2 ADD PUSH1 0x40 MSTORE DUP1 SWAP3 SWAP2 SWAP1 DUP2 DUP2 MSTORE PUSH1 0x20 ADD DUP3 DUP1 SLOAD PUSH2 0x1107 SWAP1 PUSH2 0x14E2 JUMP JUMPDEST DUP1 ISZERO PUSH2 0x1154 JUMPI DUP1 PUSH1 0x1F LT PUSH2 0x1129 JUMPI PUSH2 0x100 DUP1 DUP4 SLOAD DIV MUL DUP4 MSTORE SWAP2 PUSH1 0x20 ADD SWAP2 PUSH2 0x1154 JUMP JUMPDEST DUP3 ADD SWAP2 SWAP1 PUSH1 0x0 MSTORE PUSH1 0x20 PUSH1 0x0 KECCAK256 SWAP1 JUMPDEST DUP2 SLOAD DUP2 MSTORE SWAP1 PUSH1 0x1 ADD SWAP1 PUSH1 0x20 ADD DUP1 DUP4 GT PUSH2 0x1137 JUMPI DUP3 SWAP1 SUB PUSH1 0x1F AND DUP3 ADD SWAP2 JUMPDEST POP POP POP POP POP SWAP2 POP DUP1 DUP1 SLOAD PUSH2 0x1167 SWAP1 PUSH2 0x14E2 JUMP JUMPDEST DUP1 PUSH1 0x1F ADD PUSH1 0x20 DUP1 SWAP2 DIV MUL PUSH1 0x20 ADD PUSH1 0x40 MLOAD SWAP1 DUP2 ADD PUSH1 0x40 MSTORE DUP1 SWAP3 SWAP2 SWAP1 DUP2 DUP2 MSTORE PUSH1 0x20 ADD DUP3 DUP1 SLOAD PUSH2 0x1193 SWAP1 PUSH2 0x14E2 JUMP JUMPDEST DUP1 ISZERO PUSH2 0x11E0 JUMPI DUP1 PUSH1 0x1F LT PUSH2 0x11B5 JUMPI PUSH2 0x100 DUP1 DUP4 SLOAD DIV MUL DUP4 MSTORE SWAP2 PUSH1 0x20 ADD SWAP2 PUSH2 0x11E0 JUMP JUMPDEST DUP3 ADD SWAP2 SWAP1 PUSH1 0x0 MSTORE PUSH1 0x20 PUSH1 0x0 KECCAK256 SWAP1 JUMPDEST DUP2 SLOAD DUP2 MSTORE SWAP1 PUSH1 0x1 ADD SWAP1 PUSH1 0x20 ADD DUP1 DUP4 GT PUSH2 0x11C3 JUMPI DUP3 SWAP1 SUB PUSH1 0x1F AND DUP3 ADD SWAP2 JUMPDEST POP POP POP POP POP SWAP1 POP SWAP3 POP SWAP3 POP SWAP3 POP SWAP1 SWAP2 SWAP3 JUMP JUMPDEST PUSH2 0x95A DUP3 DUP3 PUSH1 0x40 MLOAD PUSH1 0x24 ADD PUSH2 0x1208 SWAP3 SWAP2 SWAP1 PUSH2 0x16B0 JUMP JUMPDEST PUSH1 0x40 DUP1 MLOAD PUSH1 0x1F NOT DUP2 DUP5 SUB ADD DUP2 MSTORE SWAP2 SWAP1 MSTORE PUSH1 0x20 DUP2 ADD DUP1 MLOAD PUSH1 0x1 PUSH1 0x1 PUSH1 0xE0 SHL SUB AND PUSH4 0x4B5C4277 PUSH1 0xE0 SHL OR SWAP1 MSTORE PUSH2 0x6BC DUP2 PUSH1 0x0 PUSH11 0x636F6E736F6C652E6C6F67 SWAP1 POP PUSH1 0x0 DUP1 DUP4 MLOAD PUSH1 0x20 DUP6 ADD DUP5 GAS STATICCALL POP POP POP JUMP JUMPDEST PUSH4 0x4E487B71 PUSH1 0xE0 SHL PUSH1 0x0 MSTORE PUSH1 0x21 PUSH1 0x4 MSTORE PUSH1 0x24 PUSH1 0x0 REVERT JUMPDEST PUSH1 0x5 DUP2 LT PUSH2 0x128B JUMPI PUSH4 0x4E487B71 PUSH1 0xE0 SHL PUSH1 0x0 MSTORE PUSH1 0x21 PUSH1 0x4 MSTORE PUSH1 0x24 PUSH1 0x0 REVERT JUMPDEST SWAP1 MSTORE JUMP JUMPDEST PUSH1 0x0 DUP2 MLOAD DUP1 DUP5 MSTORE PUSH1 0x0 JUMPDEST DUP2 DUP2 LT ISZERO PUSH2 0x12B5 JUMPI PUSH1 0x20 DUP2 DUP6 ADD DUP2 ADD MLOAD DUP7 DUP4 ADD DUP3 ADD MSTORE ADD PUSH2 0x1299 JUMP JUMPDEST POP PUSH1 0x0 PUSH1 0x20 DUP3 DUP7 ADD ADD MSTORE PUSH1 0x20 PUSH1 0x1F NOT PUSH1 0x1F DUP4 ADD AND DUP6 ADD ADD SWAP2 POP POP SWAP3 SWAP2 POP POP JUMP JUMPDEST PUSH2 0x12DF DUP2 DUP7 PUSH2 0x126D JUMP JUMPDEST PUSH1 0x80 PUSH1 0x20 DUP3 ADD MSTORE PUSH1 0x0 PUSH2 0x12F5 PUSH1 0x80 DUP4 ADD DUP7 PUSH2 0x128F JUMP JUMPDEST DUP3 DUP2 SUB PUSH1 0x40 DUP5 ADD MSTORE PUSH2 0x1307 DUP2 DUP7 PUSH2 0x128F JUMP JUMPDEST SWAP1 POP DUP3 DUP2 SUB PUSH1 0x60 DUP5 ADD MSTORE PUSH2 0x131B DUP2 DUP6 PUSH2 0x128F JUMP JUMPDEST SWAP8 SWAP7 POP POP POP POP POP POP POP JUMP JUMPDEST PUSH1 0x20 DUP2 MSTORE PUSH1 0x0 PUSH2 0x1339 PUSH1 0x20 DUP4 ADD DUP5 PUSH2 0x128F JUMP JUMPDEST SWAP4 SWAP3 POP POP POP JUMP JUMPDEST PUSH1 0x0 PUSH1 0x20 DUP3 DUP5 SUB SLT ISZERO PUSH2 0x1352 JUMPI PUSH1 0x0 DUP1 REVERT JUMPDEST POP CALLDATALOAD SWAP2 SWAP1 POP JUMP JUMPDEST PUSH4 0x4E487B71 PUSH1 0xE0 SHL PUSH1 0x0 MSTORE PUSH1 0x41 PUSH1 0x4 MSTORE PUSH1 0x24 PUSH1 0x0 REVERT JUMPDEST PUSH1 0x0 PUSH1 0x20 DUP3 DUP5 SUB SLT ISZERO PUSH2 0x1381 JUMPI PUSH1 0x0 DUP1 REVERT JUMPDEST DUP2 CALLDATALOAD PUSH8 0xFFFFFFFFFFFFFFFF DUP1 DUP3 GT ISZERO PUSH2 0x1399 JUMPI PUSH1 0x0 DUP1 REVERT JUMPDEST DUP2 DUP5 ADD SWAP2 POP DUP5 PUSH1 0x1F DUP4 ADD SLT PUSH2 0x13AD JUMPI PUSH1 0x0 DUP1 REVERT JUMPDEST DUP2 CALLDATALOAD DUP2 DUP2 GT ISZERO PUSH2 0x13BF JUMPI PUSH2 0x13BF PUSH2 0x1359 JUMP JUMPDEST PUSH1 0x40 MLOAD PUSH1 0x1F DUP3 ADD PUSH1 0x1F NOT SWAP1 DUP2 AND PUSH1 0x3F ADD AND DUP2 ADD SWAP1 DUP4 DUP3 GT DUP2 DUP4 LT OR ISZERO PUSH2 0x13E7 JUMPI PUSH2 0x13E7 PUSH2 0x1359 JUMP JUMPDEST DUP2 PUSH1 0x40 MSTORE DUP3 DUP2 MSTORE DUP8 PUSH1 0x20 DUP5 DUP8 ADD ADD GT ISZERO PUSH2 0x1400 JUMPI PUSH1 0x0 DUP1 REVERT JUMPDEST DUP3 PUSH1 0x20 DUP7 ADD PUSH1 0x20 DUP4 ADD CALLDATACOPY PUSH1 0x0 SWAP3 DUP2 ADD PUSH1 0x20 ADD SWAP3 SWAP1 SWAP3 MSTORE POP SWAP6 SWAP5 POP POP POP POP POP JUMP JUMPDEST PUSH1 0x0 PUSH1 0x20 DUP3 DUP5 SUB SLT ISZERO PUSH2 0x1432 JUMPI PUSH1 0x0 DUP1 REVERT JUMPDEST DUP2 CALLDATALOAD DUP1 ISZERO ISZERO DUP2 EQ PUSH2 0x1339 JUMPI PUSH1 0x0 DUP1 REVERT JUMPDEST PUSH1 0x20 DUP2 ADD PUSH2 0x1450 DUP3 DUP5 PUSH2 0x126D JUMP JUMPDEST SWAP3 SWAP2 POP POP JUMP JUMPDEST PUSH1 0x0 PUSH1 0x60 DUP3 ADD PUSH1 0x60 DUP4 MSTORE DUP1 DUP7 MLOAD DUP1 DUP4 MSTORE PUSH1 0x80 DUP6 ADD SWAP2 POP PUSH1 0x80 DUP2 PUSH1 0x5 SHL DUP7 ADD ADD SWAP3 POP PUSH1 0x20 DUP1 DUP10 ADD PUSH1 0x0 JUMPDEST DUP4 DUP2 LT ISZERO PUSH2 0x14AD JUMPI PUSH1 0x7F NOT DUP9 DUP8 SUB ADD DUP6 MSTORE PUSH2 0x149B DUP7 DUP4 MLOAD PUSH2 0x128F JUMP JUMPDEST SWAP6 POP SWAP4 DUP3 ADD SWAP4 SWAP1 DUP3 ADD SWAP1 PUSH1 0x1 ADD PUSH2 0x147F JUMP JUMPDEST POP POP POP POP POP DUP3 DUP2 SUB PUSH1 0x20 DUP5 ADD MSTORE PUSH2 0x14C4 DUP2 DUP7 PUSH2 0x128F JUMP JUMPDEST SWAP1 POP DUP3 DUP2 SUB PUSH1 0x40 DUP5 ADD MSTORE PUSH2 0x14D8 DUP2 DUP6 PUSH2 0x128F JUMP JUMPDEST SWAP7 SWAP6 POP POP POP POP POP POP JUMP JUMPDEST PUSH1 0x1 DUP2 DUP2 SHR SWAP1 DUP3 AND DUP1 PUSH2 0x14F6 JUMPI PUSH1 0x7F DUP3 AND SWAP2 POP JUMPDEST PUSH1 0x20 DUP3 LT DUP2 SUB PUSH2 0x1516 JUMPI PUSH4 0x4E487B71 PUSH1 0xE0 SHL PUSH1 0x0 MSTORE PUSH1 0x22 PUSH1 0x4 MSTORE PUSH1 0x24 PUSH1 0x0 REVERT JUMPDEST POP SWAP2 SWAP1 POP JUMP JUMPDEST PUSH1 0x20 DUP1 DUP3 MSTORE PUSH1 0x1F SWAP1 DUP3 ADD MSTORE PUSH32 0x4F6E6C792062757965722063616E2063616C6C2074686973206D6574686F6400 PUSH1 0x40 DUP3 ADD MSTORE PUSH1 0x60 ADD SWAP1 JUMP JUMPDEST PUSH1 0x1F DUP3 GT ISZERO PUSH2 0x159F JUMPI PUSH1 0x0 DUP2 PUSH1 0x0 MSTORE PUSH1 0x20 PUSH1 0x0 KECCAK256 PUSH1 0x1F DUP6 ADD PUSH1 0x5 SHR DUP2 ADD PUSH1 0x20 DUP7 LT ISZERO PUSH2 0x157C JUMPI POP DUP1 JUMPDEST PUSH1 0x1F DUP6 ADD PUSH1 0x5 SHR DUP3 ADD SWAP2 POP JUMPDEST DUP2 DUP2 LT ISZERO PUSH2 0x159B JUMPI DUP3 DUP2 SSTORE PUSH1 0x1 ADD PUSH2 0x1588 JUMP JUMPDEST POP POP POP JUMPDEST POP POP POP JUMP JUMPDEST DUP2 MLOAD PUSH8 0xFFFFFFFFFFFFFFFF DUP2 GT ISZERO PUSH2 0x15BE JUMPI PUSH2 0x15BE PUSH2 0x1359 JUMP JUMPDEST PUSH2 0x15D2 DUP2 PUSH2 0x15CC DUP5 SLOAD PUSH2 0x14E2 JUMP JUMPDEST DUP5 PUSH2 0x1553 JUMP JUMPDEST PUSH1 0x20 DUP1 PUSH1 0x1F DUP4 GT PUSH1 0x1 DUP2 EQ PUSH2 0x1607 JUMPI PUSH1 0x0 DUP5 ISZERO PUSH2 0x15EF JUMPI POP DUP6 DUP4 ADD MLOAD JUMPDEST PUSH1 0x0 NOT PUSH1 0x3 DUP7 SWAP1 SHL SHR NOT AND PUSH1 0x1 DUP6 SWAP1 SHL OR DUP6 SSTORE PUSH2 0x159B JUMP JUMPDEST PUSH1 0x0 DUP6 DUP2 MSTORE PUSH1 0x20 DUP2 KECCAK256 PUSH1 0x1F NOT DUP7 AND SWAP2 JUMPDEST DUP3 DUP2 LT ISZERO PUSH2 0x1636 JUMPI DUP9 DUP7 ADD MLOAD DUP3 SSTORE SWAP5 DUP5 ADD SWAP5 PUSH1 0x1 SWAP1 SWAP2 ADD SWAP1 DUP5 ADD PUSH2 0x1617 JUMP JUMPDEST POP DUP6 DUP3 LT ISZERO PUSH2 0x1654 JUMPI DUP8 DUP6 ADD MLOAD PUSH1 0x0 NOT PUSH1 0x3 DUP9 SWAP1 SHL PUSH1 0xF8 AND SHR NOT AND DUP2 SSTORE JUMPDEST POP POP POP POP POP PUSH1 0x1 SWAP1 DUP2 SHL ADD SWAP1 SSTORE POP JUMP JUMPDEST PUSH1 0x20 DUP1 DUP3 MSTORE PUSH1 0x11 SWAP1 DUP3 ADD MSTORE PUSH17 0x4E6F206163746976652064697370757465 PUSH1 0x78 SHL PUSH1 0x40 DUP3 ADD MSTORE PUSH1 0x60 ADD SWAP1 JUMP JUMPDEST DUP1 DUP3 ADD DUP1 DUP3 GT ISZERO PUSH2 0x1450 JUMPI PUSH4 0x4E487B71 PUSH1 0xE0 SHL PUSH1 0x0 MSTORE PUSH1 0x11 PUSH1 0x4 MSTORE PUSH1 0x24 PUSH1 0x0 REVERT JUMPDEST PUSH1 0x40 DUP2 MSTORE PUSH1 0x0 PUSH2 0x16C3 PUSH1 0x40 DUP4 ADD DUP6 PUSH2 0x128F JUMP JUMPDEST DUP3 DUP2 SUB PUSH1 0x20 DUP5 ADD MSTORE PUSH2 0x16D5 DUP2 DUP6 PUSH2 0x128F JUMP JUMPDEST SWAP6 SWAP5 POP POP POP POP POP JUMP INVALID PREVRANDAO PUSH10 0x737075746520636C6F73 PUSH6 0x642E2053656C PUSH13 0x65722077617320726566756E64 PUSH6 0x642E44697370 PUSH22 0x746520636C6F7365642E204275796572207761732072 PUSH6 0x66756E646564 0x2E DUP11 CALLDATALOAD 0xAC 0xFB 0xC1 PUSH0 0xF8 BYTE CODECOPY 0xAE PUSH30 0x344FD709F28E8600B4AA8C65C6B64BFE7FE36BD19B4974656D2063616E63 PUSH6 0x6C6C65642061 PUSH15 0x6420726566756E64656420746F2074 PUSH9 0x652062757965722EA2 PUSH5 0x6970667358 0x22 SLT KECCAK256 TIMESTAMP 0xEF 0x4E SWAP8 MCOPY CALLDATACOPY 0x25 0xA7 0x2B 0xD 0xD0 GASPRICE DUP11 SWAP11 PUSH20 0xFC2FA82FF058D5E91CA63F05B9C9F8B3A64736F PUSH13 0x634300081800334974656D2073 PUSH9 0x69707065643A202573 KECCAK256 PUSH3 0x792025 PUSH20 0x20616E6420747261636B696E67206E756D626572 KECCAK256 0x25 PUSH20 0xA2646970667358221220A054CC059DF77ACFA8BB PUSH10 0x2E0C0EECFF8F247C1541 0xD6 PUSH20 0x9B443A302063118D8264736F6C63430008180033 "},"gasEstimates":{"creation":{"codeDepositCost":"4195800","executionCost":"4827","totalCost":"4200627"},"external":{"addItem(string,string,uint256,string)":"infinite","browseItems()":"infinite","cancelItem(uint256,address,bool,bool)":"infinite","deleteItem(uint256)":"infinite","editItem(uint256,string,string,uint256,string)":"infinite","getItemsWithDispute()":"infinite","itemsCount()":"2405","myPurchases()":"infinite","mySales()":"infinite","purchaseItem(uint256,address)":"infinite","retrieveUserItems()":"infinite","shipItem(uint256,string)":"infinite"}},"methodIdentifiers":{"addItem(string,string,uint256,string)":"13df81d6","browseItems()":"dbc37670","cancelItem(uint256,address,bool,bool)":"ba301541","deleteItem(uint256)":"654fc833","editItem(uint256,string,string,uint256,string)":"0461459a","getItemsWithDispute()":"b24db86f","itemsCount()":"e2c03ace","myPurchases()":"8af8a986","mySales()":"38f5234f","purchaseItem(uint256,address)":"7bfe9efd","retrieveUserItems()":"9ab7e23b","shipItem(uint256,string)":"4d25ce47"}},"storageLayout":{"storage":[{"astId":467,"contract":"contracts/Item.sol:Item","label":"items","offset":0,"slot":"0","type":"t_mapping(t_address,t_array(t_struct(ItemStruct)461_storage)dyn_storage)"},{"astId":469,"contract":"contracts/Item.sol:Item","label":"itemsCount","offset":0,"slot":"1","type":"t_uint256"},{"astId":472,"contract":"contracts/Item.sol:Item","label":"sellers","offset":0,"slot":"2","type":"t_array(t_address)dyn_storage"}],"types":{"t_address":{"encoding":"inplace","label":"address","numberOfBytes":"20"},"t_array(t_address)dyn_storage":{"base":"t_address","encoding":"dynamic_array","label":"address[]","numberOfBytes":"32"},"t_array(t_struct(ItemStruct)461_storage)dyn_storage":{"base":"t_struct(ItemStruct)461_storage","encoding":"dynamic_array","label":"struct Item.ItemStruct[]","numberOfBytes":"32"},"t_bool":{"encoding":"inplace","label":"bool","numberOfBytes":"1"},"t_contract(Escrow)435":{"encoding":"inplace","label":"contract Escrow","numberOfBytes":"20"},"t_mapping(t_address,t_array(t_struct(ItemStruct)461_storage)dyn_storage)":{"encoding":"mapping","key":"t_address","label":"mapping(address => struct Item.ItemStruct[])","numberOfBytes":"32","value":"t_array(t_struct(ItemStruct)461_storage)dyn_storage"},"t_string_storage":{"encoding":"bytes","label":"string","numberOfBytes":"32"},"t_struct(ItemStruct)461_storage":{"encoding":"inplace","label":"struct Item.ItemStruct","members":[{"astId":441,"contract":"contracts/Item.sol:Item","label":"itemId","offset":0,"slot":"0","type":"t_uint256"},{"astId":443,"contract":"contracts/Item.sol:Item","label":"title","offset":0,"slot":"1","type":"t_string_storage"},{"astId":445,"contract":"contracts/Item.sol:Item","label":"description","offset":0,"slot":"2","type":"t_string_storage"},{"astId":447,"contract":"contracts/Item.sol:Item","label":"price","offset":0,"slot":"3","type":"t_uint256"},{"astId":449,"contract":"contracts/Item.sol:Item","label":"image","offset":0,"slot":"4","type":"t_string_storage"},{"astId":451,"contract":"contracts/Item.sol:Item","label":"createdAt","offset":0,"slot":"5","type":"t_uint256"},{"astId":453,"contract":"contracts/Item.sol:Item","label":"buyer","offset":0,"slot":"6","type":"t_address"},{"astId":455,"contract":"contracts/Item.sol:Item","label":"hasBuyer","offset":20,"slot":"6","type":"t_bool"},{"astId":458,"contract":"contracts/Item.sol:Item","label":"escrow","offset":0,"slot":"7","type":"t_contract(Escrow)435"},{"astId":460,"contract":"contracts/Item.sol:Item","label":"seller","offset":0,"slot":"8","type":"t_address"}],"numberOfBytes":"288"},"t_uint256":{"encoding":"inplace","label":"uint256","numberOfBytes":"32"}}},"userdoc":{"kind":"user","methods":{},"version":1}}}}