{
  "address": "0x77224dBAe6e82a3ea7f4300D3984c30485156141",
  "abi": [
    {
      "inputs": [
        {
          "internalType": "uint256",
          "name": "",
          "type": "uint256"
        }
      ],
      "name": "agreements",
      "outputs": [
        {
          "internalType": "address",
          "name": "buyer",
          "type": "address"
        },
        {
          "internalType": "address",
          "name": "seller",
          "type": "address"
        },
        {
          "internalType": "address",
          "name": "arbitrator",
          "type": "address"
        },
        {
          "internalType": "uint256",
          "name": "amount",
          "type": "uint256"
        },
        {
          "internalType": "bool",
          "name": "buyerIn",
          "type": "bool"
        },
        {
          "internalType": "bool",
          "name": "sellerIn",
          "type": "bool"
        },
        {
          "internalType": "uint256",
          "name": "purchaseDateTime",
          "type": "uint256"
        },
        {
          "internalType": "uint256",
          "name": "productId",
          "type": "uint256"
        }
      ],
      "stateMutability": "view",
      "type": "function"
    },
    {
      "inputs": [
        {
          "internalType": "uint256",
          "name": "_id",
          "type": "uint256"
        },
        {
          "internalType": "address",
          "name": "_winner",
          "type": "address"
        }
      ],
      "name": "complete",
      "outputs": [],
      "stateMutability": "nonpayable",
      "type": "function"
    },
    {
      "inputs": [
        {
          "internalType": "uint256",
          "name": "_id",
          "type": "uint256"
        }
      ],
      "name": "deposit",
      "outputs": [],
      "stateMutability": "payable",
      "type": "function"
    },
    {
      "inputs": [
        {
          "internalType": "address",
          "name": "_buyer",
          "type": "address"
        },
        {
          "internalType": "address",
          "name": "_seller",
          "type": "address"
        },
        {
          "internalType": "uint256",
          "name": "_amount",
          "type": "uint256"
        },
        {
          "internalType": "uint256",
          "name": "purchaseTime",
          "type": "uint256"
        },
        {
          "internalType": "uint256",
          "name": "productId",
          "type": "uint256"
        }
      ],
      "name": "newAgreement",
      "outputs": [
        {
          "internalType": "uint256",
          "name": "",
          "type": "uint256"
        }
      ],
      "stateMutability": "nonpayable",
      "type": "function"
    },
    {
      "inputs": [
        {
          "internalType": "uint256",
          "name": "_id",
          "type": "uint256"
        }
      ],
      "name": "refund",
      "outputs": [],
      "stateMutability": "nonpayable",
      "type": "function"
    }
  ],
  "transactionHash": "0xf2ba27de2e13e9a5056ce8f52fc0c61706fb78939bf3329e0dca57ff6d44186f",
  "args": [],
  "numDeployments": 1,
  "solcInputHash": "d8763770f1d713488bab0b8617b8c366",
  "bytecode": "0x608060405234801561001057600080fd5b506113da806100206000396000f3fe60806040526004361061004a5760003560e01c806323cb22a21461004f578063278ecde11461008c578063768038c3146100b5578063b6b55f25146100de578063bd14de96146100fa575b600080fd5b34801561005b57600080fd5b5061007660048036038101906100719190610f55565b61013e565b6040516100839190610fdf565b60405180910390f35b34801561009857600080fd5b506100b360048036038101906100ae9190610ffa565b6103ad565b005b3480156100c157600080fd5b506100dc60048036038101906100d79190611027565b610704565b005b6100f860048036038101906100f39190610ffa565b610c12565b005b34801561010657600080fd5b50610121600480360381019061011c9190610ffa565b610dea565b604051610135989796959493929190611091565b60405180910390f35b60008473ffffffffffffffffffffffffffffffffffffffff168673ffffffffffffffffffffffffffffffffffffffff16036101ae576040517f08c379a00000000000000000000000000000000000000000000000000000000081526004016101a59061116c565b60405180910390fd5b60006040518061010001604052808873ffffffffffffffffffffffffffffffffffffffff1681526020018773ffffffffffffffffffffffffffffffffffffffff1681526020013373ffffffffffffffffffffffffffffffffffffffff16815260200186815260200160001515815260200160001515815260200185815260200184815250908060018154018082558091505060019003906000526020600020906007020160009091909190915060008201518160000160006101000a81548173ffffffffffffffffffffffffffffffffffffffff021916908373ffffffffffffffffffffffffffffffffffffffff16021790555060208201518160010160006101000a81548173ffffffffffffffffffffffffffffffffffffffff021916908373ffffffffffffffffffffffffffffffffffffffff16021790555060408201518160020160006101000a81548173ffffffffffffffffffffffffffffffffffffffff021916908373ffffffffffffffffffffffffffffffffffffffff1602179055506060820151816003015560808201518160040160006101000a81548160ff02191690831515021790555060a08201518160040160016101000a81548160ff02191690831515021790555060c0820151816005015560e08201518160060155505060016000805490506103a291906111bb565b905095945050505050565b600081815481106103c1576103c06111ef565b5b906000526020600020906007020160000160009054906101000a900473ffffffffffffffffffffffffffffffffffffffff1673ffffffffffffffffffffffffffffffffffffffff163373ffffffffffffffffffffffffffffffffffffffff16148015610463575060011515600082815481106104405761043f6111ef565b5b906000526020600020906007020160040160009054906101000a900460ff161515145b1561055757600080828154811061047d5761047c6111ef565b5b906000526020600020906007020160040160006101000a81548160ff021916908315150217905550600081815481106104b9576104b86111ef565b5b906000526020600020906007020160000160009054906101000a900473ffffffffffffffffffffffffffffffffffffffff1673ffffffffffffffffffffffffffffffffffffffff166108fc60008381548110610518576105176111ef565b5b9060005260206000209060070201600301549081150290604051600060405180830381858888f19350505050158015610555573d6000803e3d6000fd5b505b6000818154811061056b5761056a6111ef565b5b906000526020600020906007020160010160009054906101000a900473ffffffffffffffffffffffffffffffffffffffff1673ffffffffffffffffffffffffffffffffffffffff163373ffffffffffffffffffffffffffffffffffffffff1614801561060d575060011515600082815481106105ea576105e96111ef565b5b906000526020600020906007020160040160019054906101000a900460ff161515145b15610701576000808281548110610627576106266111ef565b5b906000526020600020906007020160040160016101000a81548160ff02191690831515021790555060008181548110610663576106626111ef565b5b906000526020600020906007020160010160009054906101000a900473ffffffffffffffffffffffffffffffffffffffff1673ffffffffffffffffffffffffffffffffffffffff166108fc600083815481106106c2576106c16111ef565b5b9060005260206000209060070201600301549081150290604051600060405180830381858888f193505050501580156106ff573d6000803e3d6000fd5b505b50565b60008281548110610718576107176111ef565b5b906000526020600020906007020160020160009054906101000a900473ffffffffffffffffffffffffffffffffffffffff1673ffffffffffffffffffffffffffffffffffffffff163373ffffffffffffffffffffffffffffffffffffffff16146107b7576040517f08c379a00000000000000000000000000000000000000000000000000000000081526004016107ae9061126a565b60405180910390fd5b60011515600083815481106107cf576107ce6111ef565b5b906000526020600020906007020160040160009054906101000a900460ff16151514610830576040517f08c379a0000000000000000000000000000000000000000000000000000000008152600401610827906112d6565b60405180910390fd5b6001151560008381548110610848576108476111ef565b5b906000526020600020906007020160040160019054906101000a900460ff161515146108a9576040517f08c379a00000000000000000000000000000000000000000000000000000000081526004016108a090611342565b60405180910390fd5b8073ffffffffffffffffffffffffffffffffffffffff16600083815481106108d4576108d36111ef565b5b906000526020600020906007020160000160009054906101000a900473ffffffffffffffffffffffffffffffffffffffff1673ffffffffffffffffffffffffffffffffffffffff1603610a5d576000808381548110610936576109356111ef565b5b906000526020600020906007020160040160006101000a81548160ff0219169083151502179055506000808381548110610973576109726111ef565b5b906000526020600020906007020160040160016101000a81548160ff021916908315150217905550600082815481106109af576109ae6111ef565b5b906000526020600020906007020160000160009054906101000a900473ffffffffffffffffffffffffffffffffffffffff1673ffffffffffffffffffffffffffffffffffffffff166108fc600260008581548110610a1057610a0f6111ef565b5b906000526020600020906007020160030154610a2c9190611362565b9081150290604051600060405180830381858888f19350505050158015610a57573d6000803e3d6000fd5b50610c0e565b8073ffffffffffffffffffffffffffffffffffffffff1660008381548110610a8857610a876111ef565b5b906000526020600020906007020160010160009054906101000a900473ffffffffffffffffffffffffffffffffffffffff1673ffffffffffffffffffffffffffffffffffffffff1603610c0d576000808381548110610aea57610ae96111ef565b5b906000526020600020906007020160040160006101000a81548160ff0219169083151502179055506000808381548110610b2757610b266111ef565b5b906000526020600020906007020160040160016101000a81548160ff02191690831515021790555060008281548110610b6357610b626111ef565b5b906000526020600020906007020160010160009054906101000a900473ffffffffffffffffffffffffffffffffffffffff1673ffffffffffffffffffffffffffffffffffffffff166108fc600260008581548110610bc457610bc36111ef565b5b906000526020600020906007020160030154610be09190611362565b9081150290604051600060405180830381858888f19350505050158015610c0b573d6000803e3d6000fd5b505b5b5050565b60008181548110610c2657610c256111ef565b5b906000526020600020906007020160000160009054906101000a900473ffffffffffffffffffffffffffffffffffffffff1673ffffffffffffffffffffffffffffffffffffffff163373ffffffffffffffffffffffffffffffffffffffff16148015610cb6575060008181548110610ca157610ca06111ef565b5b90600052602060002090600702016003015434145b15610cfe57600160008281548110610cd157610cd06111ef565b5b906000526020600020906007020160040160006101000a81548160ff021916908315150217905550610de7565b60008181548110610d1257610d116111ef565b5b906000526020600020906007020160010160009054906101000a900473ffffffffffffffffffffffffffffffffffffffff1673ffffffffffffffffffffffffffffffffffffffff163373ffffffffffffffffffffffffffffffffffffffff16148015610da2575060008181548110610d8d57610d8c6111ef565b5b90600052602060002090600702016003015434145b15610de657600160008281548110610dbd57610dbc6111ef565b5b906000526020600020906007020160040160016101000a81548160ff0219169083151502179055505b5b50565b60008181548110610dfa57600080fd5b90600052602060002090600702016000915090508060000160009054906101000a900473ffffffffffffffffffffffffffffffffffffffff16908060010160009054906101000a900473ffffffffffffffffffffffffffffffffffffffff16908060020160009054906101000a900473ffffffffffffffffffffffffffffffffffffffff16908060030154908060040160009054906101000a900460ff16908060040160019054906101000a900460ff16908060050154908060060154905088565b600080fd5b600073ffffffffffffffffffffffffffffffffffffffff82169050919050565b6000610eec82610ec1565b9050919050565b610efc81610ee1565b8114610f0757600080fd5b50565b600081359050610f1981610ef3565b92915050565b6000819050919050565b610f3281610f1f565b8114610f3d57600080fd5b50565b600081359050610f4f81610f29565b92915050565b600080600080600060a08688031215610f7157610f70610ebc565b5b6000610f7f88828901610f0a565b9550506020610f9088828901610f0a565b9450506040610fa188828901610f40565b9350506060610fb288828901610f40565b9250506080610fc388828901610f40565b9150509295509295909350565b610fd981610f1f565b82525050565b6000602082019050610ff46000830184610fd0565b92915050565b6000602082840312156110105761100f610ebc565b5b600061101e84828501610f40565b91505092915050565b6000806040838503121561103e5761103d610ebc565b5b600061104c85828601610f40565b925050602061105d85828601610f0a565b9150509250929050565b61107081610ee1565b82525050565b60008115159050919050565b61108b81611076565b82525050565b6000610100820190506110a7600083018b611067565b6110b4602083018a611067565b6110c16040830189611067565b6110ce6060830188610fd0565b6110db6080830187611082565b6110e860a0830186611082565b6110f560c0830185610fd0565b61110260e0830184610fd0565b9998505050505050505050565b600082825260208201905092915050565b7f73616d6520627579657220616e642073656c6c65720000000000000000000000600082015250565b600061115660158361110f565b915061116182611120565b602082019050919050565b6000602082019050818103600083015261118581611149565b9050919050565b7f4e487b7100000000000000000000000000000000000000000000000000000000600052601160045260246000fd5b60006111c682610f1f565b91506111d183610f1f565b92508282039050818111156111e9576111e861118c565b5b92915050565b7f4e487b7100000000000000000000000000000000000000000000000000000000600052603260045260246000fd5b7f4f6e6c792061726269747261746f722063616e20636f6d706c65746500000000600082015250565b6000611254601c8361110f565b915061125f8261121e565b602082019050919050565b6000602082019050818103600083015261128381611247565b9050919050565b7f627579657220686173206e6f7420706169640000000000000000000000000000600082015250565b60006112c060128361110f565b91506112cb8261128a565b602082019050919050565b600060208201905081810360008301526112ef816112b3565b9050919050565b7f73656c6c657220686173206e6f74207061696400000000000000000000000000600082015250565b600061132c60138361110f565b9150611337826112f6565b602082019050919050565b6000602082019050818103600083015261135b8161131f565b9050919050565b600061136d82610f1f565b915061137883610f1f565b925082820261138681610f1f565b9150828204841483151761139d5761139c61118c565b5b509291505056fea264697066735822122088005182775f13e26e243589bff11f73b16e7ef625df3444aabc7fc99e2ecc6b64736f6c63430008180033",
  "devdoc": {
    "kind": "dev",
    "methods": {},
    "version": 1
  },
  "userdoc": {
    "kind": "user",
    "methods": {},
    "version": 1
  },
  "storageLayout": {
    "storage": [
      {
        "astId": 22,
        "contract": "contracts/Escrow.sol:Escrow",
        "label": "agreements",
        "offset": 0,
        "slot": "0",
        "type": "t_array(t_struct(Agreement)18_storage)dyn_storage"
      }
    ],
    "types": {
      "t_address": {
        "encoding": "inplace",
        "label": "address",
        "numberOfBytes": "20"
      },
      "t_array(t_struct(Agreement)18_storage)dyn_storage": {
        "base": "t_struct(Agreement)18_storage",
        "encoding": "dynamic_array",
        "label": "struct Escrow.Agreement[]",
        "numberOfBytes": "32"
      },
      "t_bool": {
        "encoding": "inplace",
        "label": "bool",
        "numberOfBytes": "1"
      },
      "t_struct(Agreement)18_storage": {
        "encoding": "inplace",
        "label": "struct Escrow.Agreement",
        "members": [
          {
            "astId": 3,
            "contract": "contracts/Escrow.sol:Escrow",
            "label": "buyer",
            "offset": 0,
            "slot": "0",
            "type": "t_address"
          },
          {
            "astId": 5,
            "contract": "contracts/Escrow.sol:Escrow",
            "label": "seller",
            "offset": 0,
            "slot": "1",
            "type": "t_address"
          },
          {
            "astId": 7,
            "contract": "contracts/Escrow.sol:Escrow",
            "label": "arbitrator",
            "offset": 0,
            "slot": "2",
            "type": "t_address"
          },
          {
            "astId": 9,
            "contract": "contracts/Escrow.sol:Escrow",
            "label": "amount",
            "offset": 0,
            "slot": "3",
            "type": "t_uint256"
          },
          {
            "astId": 11,
            "contract": "contracts/Escrow.sol:Escrow",
            "label": "buyerIn",
            "offset": 0,
            "slot": "4",
            "type": "t_bool"
          },
          {
            "astId": 13,
            "contract": "contracts/Escrow.sol:Escrow",
            "label": "sellerIn",
            "offset": 1,
            "slot": "4",
            "type": "t_bool"
          },
          {
            "astId": 15,
            "contract": "contracts/Escrow.sol:Escrow",
            "label": "purchaseDateTime",
            "offset": 0,
            "slot": "5",
            "type": "t_uint256"
          },
          {
            "astId": 17,
            "contract": "contracts/Escrow.sol:Escrow",
            "label": "productId",
            "offset": 0,
            "slot": "6",
            "type": "t_uint256"
          }
        ],
        "numberOfBytes": "224"
      },
      "t_uint256": {
        "encoding": "inplace",
        "label": "uint256",
        "numberOfBytes": "32"
      }
    }
  }
}