{
  "address": "0x3A63a5C730bDC31A913e2ab312D190643aa1CB8E",
  "abi": [
    {
      "inputs": [
        {
          "internalType": "uint256",
          "name": "_escrowId",
          "type": "uint256"
        }
      ],
      "name": "confirmDelivery",
      "outputs": [],
      "stateMutability": "nonpayable",
      "type": "function"
    },
    {
      "inputs": [
        {
          "internalType": "address",
          "name": "_buyer",
          "type": "address"
        },
        {
          "internalType": "address",
          "name": "_seller",
          "type": "address"
        },
        {
          "internalType": "uint256",
          "name": "_itemId",
          "type": "uint256"
        },
        {
          "internalType": "uint256",
          "name": "_price",
          "type": "uint256"
        }
      ],
      "name": "createEscrow",
      "outputs": [
        {
          "internalType": "address",
          "name": "",
          "type": "address"
        }
      ],
      "stateMutability": "nonpayable",
      "type": "function"
    },
    {
      "inputs": [],
      "name": "escrowCount",
      "outputs": [
        {
          "internalType": "uint256",
          "name": "",
          "type": "uint256"
        }
      ],
      "stateMutability": "view",
      "type": "function"
    },
    {
      "inputs": [
        {
          "internalType": "uint256",
          "name": "",
          "type": "uint256"
        }
      ],
      "name": "escrows",
      "outputs": [
        {
          "internalType": "address",
          "name": "buyer",
          "type": "address"
        },
        {
          "internalType": "address",
          "name": "seller",
          "type": "address"
        },
        {
          "internalType": "uint256",
          "name": "itemId",
          "type": "uint256"
        },
        {
          "internalType": "uint256",
          "name": "price",
          "type": "uint256"
        },
        {
          "internalType": "bool",
          "name": "isCompleted",
          "type": "bool"
        }
      ],
      "stateMutability": "view",
      "type": "function"
    },
    {
      "inputs": [],
      "name": "itemContract",
      "outputs": [
        {
          "internalType": "contract Item",
          "name": "",
          "type": "address"
        }
      ],
      "stateMutability": "view",
      "type": "function"
    },
    {
      "inputs": [
        {
          "internalType": "uint256",
          "name": "_escrowId",
          "type": "uint256"
        }
      ],
      "name": "refundBuyer",
      "outputs": [],
      "stateMutability": "nonpayable",
      "type": "function"
    }
  ],
  "transactionHash": "0x82a01d761356c5c1cfb317e609911ea75072952b27df367ab6441456977822f3",
  "args": [],
  "numDeployments": 16,
  "solcInputHash": "a1e1228e35312a62bc7cf6cb334ddf9c",
  "bytecode": "0x608060405234801561001057600080fd5b50610a34806100206000396000f3fe608060405234801561001057600080fd5b50600436106100625760003560e01c8063012f52ee14610067578063392927631461009b578063675ac67a146100b75780638d76f940146100d5578063ccbae5f6146100f3578063fd84cb9714610123575b600080fd5b610081600480360381019061007c9190610670565b61013f565b604051610092959493929190610708565b60405180910390f35b6100b560048036038101906100b09190610670565b6101c2565b005b6100bf6102ea565b6040516100cc919061075b565b60405180910390f35b6100dd6102f0565b6040516100ea91906107d5565b60405180910390f35b61010d6004803603810190610108919061081c565b610314565b60405161011a9190610883565b60405180910390f35b61013d60048036038101906101389190610670565b610469565b005b60016020528060005260406000206000915090508060000160009054906101000a900473ffffffffffffffffffffffffffffffffffffffff16908060010160009054906101000a900473ffffffffffffffffffffffffffffffffffffffff16908060020154908060030154908060040160009054906101000a900460ff16905085565b6001600082815260200190815260200160002060040160009054906101000a900460ff1615610226576040517f08c379a000000000000000000000000000000000000000000000000000000000815260040161021d906108fb565b60405180910390fd5b600180600083815260200190815260200160002060040160006101000a81548160ff0219169083151502179055506001600082815260200190815260200160002060000160009054906101000a900473ffffffffffffffffffffffffffffffffffffffff1673ffffffffffffffffffffffffffffffffffffffff166108fc60016000848152602001908152602001600020600301549081150290604051600060405180830381858888f193505050501580156102e6573d6000803e3d6000fd5b5050565b60025481565b60008054906101000a900473ffffffffffffffffffffffffffffffffffffffff1681565b6000600260008154809291906103299061094a565b91905055506040518060a001604052808673ffffffffffffffffffffffffffffffffffffffff1681526020018573ffffffffffffffffffffffffffffffffffffffff1681526020018481526020018381526020016000151581525060016000600254815260200190815260200160002060008201518160000160006101000a81548173ffffffffffffffffffffffffffffffffffffffff021916908373ffffffffffffffffffffffffffffffffffffffff16021790555060208201518160010160006101000a81548173ffffffffffffffffffffffffffffffffffffffff021916908373ffffffffffffffffffffffffffffffffffffffff160217905550604082015181600201556060820151816003015560808201518160040160006101000a81548160ff021916908315150217905550905050309050949350505050565b3373ffffffffffffffffffffffffffffffffffffffff166001600083815260200190815260200160002060000160009054906101000a900473ffffffffffffffffffffffffffffffffffffffff1673ffffffffffffffffffffffffffffffffffffffff161461050d576040517f08c379a0000000000000000000000000000000000000000000000000000000008152600401610504906109de565b60405180910390fd5b6001600082815260200190815260200160002060040160009054906101000a900460ff1615610571576040517f08c379a0000000000000000000000000000000000000000000000000000000008152600401610568906108fb565b60405180910390fd5b600180600083815260200190815260200160002060040160006101000a81548160ff0219169083151502179055506001600082815260200190815260200160002060010160009054906101000a900473ffffffffffffffffffffffffffffffffffffffff1673ffffffffffffffffffffffffffffffffffffffff166108fc60016000848152602001908152602001600020600301549081150290604051600060405180830381858888f19350505050158015610631573d6000803e3d6000fd5b5050565b600080fd5b6000819050919050565b61064d8161063a565b811461065857600080fd5b50565b60008135905061066a81610644565b92915050565b60006020828403121561068657610685610635565b5b60006106948482850161065b565b91505092915050565b600073ffffffffffffffffffffffffffffffffffffffff82169050919050565b60006106c88261069d565b9050919050565b6106d8816106bd565b82525050565b6106e78161063a565b82525050565b60008115159050919050565b610702816106ed565b82525050565b600060a08201905061071d60008301886106cf565b61072a60208301876106cf565b61073760408301866106de565b61074460608301856106de565b61075160808301846106f9565b9695505050505050565b600060208201905061077060008301846106de565b92915050565b6000819050919050565b600061079b6107966107918461069d565b610776565b61069d565b9050919050565b60006107ad82610780565b9050919050565b60006107bf826107a2565b9050919050565b6107cf816107b4565b82525050565b60006020820190506107ea60008301846107c6565b92915050565b6107f9816106bd565b811461080457600080fd5b50565b600081359050610816816107f0565b92915050565b6000806000806080858703121561083657610835610635565b5b600061084487828801610807565b945050602061085587828801610807565b93505060406108668782880161065b565b92505060606108778782880161065b565b91505092959194509250565b600060208201905061089860008301846106cf565b92915050565b600082825260208201905092915050565b7f457363726f7720616c726561647920636f6d706c657465640000000000000000600082015250565b60006108e560188361089e565b91506108f0826108af565b602082019050919050565b60006020820190508181036000830152610914816108d8565b9050919050565b7f4e487b7100000000000000000000000000000000000000000000000000000000600052601160045260246000fd5b60006109558261063a565b91507fffffffffffffffffffffffffffffffffffffffffffffffffffffffffffffffff82036109875761098661091b565b5b600182019050919050565b7f4f6e6c792062757965722063616e20636f6e6669726d00000000000000000000600082015250565b60006109c860168361089e565b91506109d382610992565b602082019050919050565b600060208201905081810360008301526109f7816109bb565b905091905056fea2646970667358221220c65554d0ce7fb5a44db59494b67c6b524ffc09d4b847e394d8a674975690790c64736f6c63430008180033",
  "devdoc": {
    "kind": "dev",
    "methods": {},
    "version": 1
  },
  "userdoc": {
    "kind": "user",
    "methods": {},
    "version": 1
  },
  "storageLayout": {
    "storage": [
      {
        "astId": 5,
        "contract": "contracts/Escrow.sol:Escrow",
        "label": "itemContract",
        "offset": 0,
        "slot": "0",
        "type": "t_contract(Item)598"
      },
      {
        "astId": 21,
        "contract": "contracts/Escrow.sol:Escrow",
        "label": "escrows",
        "offset": 0,
        "slot": "1",
        "type": "t_mapping(t_uint256,t_struct(EscrowStruct)16_storage)"
      },
      {
        "astId": 23,
        "contract": "contracts/Escrow.sol:Escrow",
        "label": "escrowCount",
        "offset": 0,
        "slot": "2",
        "type": "t_uint256"
      }
    ],
    "types": {
      "t_address": {
        "encoding": "inplace",
        "label": "address",
        "numberOfBytes": "20"
      },
      "t_bool": {
        "encoding": "inplace",
        "label": "bool",
        "numberOfBytes": "1"
      },
      "t_contract(Item)598": {
        "encoding": "inplace",
        "label": "contract Item",
        "numberOfBytes": "20"
      },
      "t_mapping(t_uint256,t_struct(EscrowStruct)16_storage)": {
        "encoding": "mapping",
        "key": "t_uint256",
        "label": "mapping(uint256 => struct Escrow.EscrowStruct)",
        "numberOfBytes": "32",
        "value": "t_struct(EscrowStruct)16_storage"
      },
      "t_struct(EscrowStruct)16_storage": {
        "encoding": "inplace",
        "label": "struct Escrow.EscrowStruct",
        "members": [
          {
            "astId": 7,
            "contract": "contracts/Escrow.sol:Escrow",
            "label": "buyer",
            "offset": 0,
            "slot": "0",
            "type": "t_address"
          },
          {
            "astId": 9,
            "contract": "contracts/Escrow.sol:Escrow",
            "label": "seller",
            "offset": 0,
            "slot": "1",
            "type": "t_address"
          },
          {
            "astId": 11,
            "contract": "contracts/Escrow.sol:Escrow",
            "label": "itemId",
            "offset": 0,
            "slot": "2",
            "type": "t_uint256"
          },
          {
            "astId": 13,
            "contract": "contracts/Escrow.sol:Escrow",
            "label": "price",
            "offset": 0,
            "slot": "3",
            "type": "t_uint256"
          },
          {
            "astId": 15,
            "contract": "contracts/Escrow.sol:Escrow",
            "label": "isCompleted",
            "offset": 0,
            "slot": "4",
            "type": "t_bool"
          }
        ],
        "numberOfBytes": "160"
      },
      "t_uint256": {
        "encoding": "inplace",
        "label": "uint256",
        "numberOfBytes": "32"
      }
    }
  }
}