{
  "address": "0x6946a410C2365FccdD7931e055119Ce64c5C1D02",
  "abi": [
    {
      "inputs": [
        {
          "internalType": "address",
          "name": "_seller",
          "type": "address"
        },
        {
          "internalType": "uint256",
          "name": "_itemId",
          "type": "uint256"
        }
      ],
      "name": "addBuyer",
      "outputs": [],
      "stateMutability": "nonpayable",
      "type": "function"
    },
    {
      "inputs": [
        {
          "internalType": "string",
          "name": "_title",
          "type": "string"
        },
        {
          "internalType": "string",
          "name": "_description",
          "type": "string"
        },
        {
          "internalType": "uint256",
          "name": "_price",
          "type": "uint256"
        },
        {
          "internalType": "string",
          "name": "_image",
          "type": "string"
        }
      ],
      "name": "addItem",
      "outputs": [],
      "stateMutability": "nonpayable",
      "type": "function"
    },
    {
      "inputs": [
        {
          "internalType": "uint256",
          "name": "_itemId",
          "type": "uint256"
        }
      ],
      "name": "deleteItem",
      "outputs": [],
      "stateMutability": "nonpayable",
      "type": "function"
    },
    {
      "inputs": [
        {
          "internalType": "uint256",
          "name": "_itemId",
          "type": "uint256"
        },
        {
          "internalType": "string",
          "name": "_title",
          "type": "string"
        },
        {
          "internalType": "string",
          "name": "_description",
          "type": "string"
        },
        {
          "internalType": "uint256",
          "name": "_price",
          "type": "uint256"
        },
        {
          "internalType": "string",
          "name": "_image",
          "type": "string"
        }
      ],
      "name": "editItem",
      "outputs": [],
      "stateMutability": "nonpayable",
      "type": "function"
    },
    {
      "inputs": [
        {
          "internalType": "address",
          "name": "_user",
          "type": "address"
        }
      ],
      "name": "retrieveUserPurchases",
      "outputs": [
        {
          "components": [
            {
              "internalType": "uint256",
              "name": "itemId",
              "type": "uint256"
            },
            {
              "internalType": "string",
              "name": "title",
              "type": "string"
            },
            {
              "internalType": "string",
              "name": "description",
              "type": "string"
            },
            {
              "internalType": "uint256",
              "name": "price",
              "type": "uint256"
            },
            {
              "internalType": "string",
              "name": "image",
              "type": "string"
            },
            {
              "internalType": "uint256",
              "name": "createdAt",
              "type": "uint256"
            },
            {
              "internalType": "address",
              "name": "buyer",
              "type": "address"
            },
            {
              "internalType": "bool",
              "name": "has_buyer",
              "type": "bool"
            }
          ],
          "internalType": "struct Item.ItemStruct[]",
          "name": "",
          "type": "tuple[]"
        }
      ],
      "stateMutability": "view",
      "type": "function"
    }
  ],
  "transactionHash": "0x11461781be1488665c96beeee40df905206ac2cf6d5e07be06b6eb16d3d425ec",
  "args": [],
  "numDeployments": 1,
  "solcInputHash": "50f8c2923c0363b02160ef083e0739f4",
  "bytecode": "0x608060405234801561001057600080fd5b50611e86806100206000396000f3fe608060405234801561001057600080fd5b50600436106100575760003560e01c80630461459a1461005c57806313df81d61461007857806326aa7c5814610094578063654fc833146100b0578063a4b495b3146100cc575b600080fd5b610076600480360381019061007191906113a6565b6100fc565b005b610092600480360381019061008d9190611475565b61027a565b005b6100ae60048036038101906100a9919061158e565b6104f8565b005b6100ca60048036038101906100c591906115ce565b610694565b005b6100e660048036038101906100e191906115fb565b610b2a565b6040516100f39190611860565b60405180910390f35b6000803373ffffffffffffffffffffffffffffffffffffffff1673ffffffffffffffffffffffffffffffffffffffff16815260200190815260200160002080549050851061017f576040517f08c379a0000000000000000000000000000000000000000000000000000000008152600401610176906118df565b60405180910390fd5b60008060003373ffffffffffffffffffffffffffffffffffffffff1673ffffffffffffffffffffffffffffffffffffffff16815260200190815260200160002086815481106101d1576101d06118ff565b5b906000526020600020906007020190508060060160149054906101000a900460ff1615610233576040517f08c379a000000000000000000000000000000000000000000000000000000000815260040161022a9061197a565b60405180910390fd5b848160010190816102449190611ba6565b50838160020190816102569190611ba6565b50828160030181905550818160040190816102719190611ba6565b50505050505050565b60008060003373ffffffffffffffffffffffffffffffffffffffff1673ffffffffffffffffffffffffffffffffffffffff1681526020019081526020016000208054905003610327576001339080600181540180825580915050600190039060005260206000200160009091909190916101000a81548173ffffffffffffffffffffffffffffffffffffffff021916908373ffffffffffffffffffffffffffffffffffffffff1602179055505b60008060003373ffffffffffffffffffffffffffffffffffffffff1673ffffffffffffffffffffffffffffffffffffffff1681526020019081526020016000208054905090506000803373ffffffffffffffffffffffffffffffffffffffff1673ffffffffffffffffffffffffffffffffffffffff168152602001908152602001600020604051806101000160405280838152602001878152602001868152602001858152602001848152602001428152602001600073ffffffffffffffffffffffffffffffffffffffff1681526020016000151581525090806001815401808255809150506001900390600052602060002090600702016000909190919091506000820151816000015560208201518160010190816104479190611ba6565b50604082015181600201908161045d9190611ba6565b5060608201518160030155608082015181600401908161047d9190611ba6565b5060a0820151816005015560c08201518160060160006101000a81548173ffffffffffffffffffffffffffffffffffffffff021916908373ffffffffffffffffffffffffffffffffffffffff16021790555060e08201518160060160146101000a81548160ff02191690831515021790555050505050505050565b6000808373ffffffffffffffffffffffffffffffffffffffff1673ffffffffffffffffffffffffffffffffffffffff16815260200190815260200160002080549050811061057b576040517f08c379a0000000000000000000000000000000000000000000000000000000008152600401610572906118df565b60405180910390fd5b60008060008473ffffffffffffffffffffffffffffffffffffffff1673ffffffffffffffffffffffffffffffffffffffff16815260200190815260200160002082815481106105cd576105cc6118ff565b5b906000526020600020906007020190508060060160149054906101000a900460ff161561062f576040517f08c379a00000000000000000000000000000000000000000000000000000000081526004016106269061197a565b60405180910390fd5b338160060160006101000a81548173ffffffffffffffffffffffffffffffffffffffff021916908373ffffffffffffffffffffffffffffffffffffffff16021790555060018160060160146101000a81548160ff021916908315150217905550505050565b6000803373ffffffffffffffffffffffffffffffffffffffff1673ffffffffffffffffffffffffffffffffffffffff168152602001908152602001600020805490508110610717576040517f08c379a000000000000000000000000000000000000000000000000000000000815260040161070e906118df565b60405180910390fd5b60008060003373ffffffffffffffffffffffffffffffffffffffff1673ffffffffffffffffffffffffffffffffffffffff1681526020019081526020016000208281548110610769576107686118ff565b5b906000526020600020906007020190508060060160149054906101000a900460ff16156107cb576040517f08c379a00000000000000000000000000000000000000000000000000000000081526004016107c29061197a565b60405180910390fd5b600060016000803373ffffffffffffffffffffffffffffffffffffffff1673ffffffffffffffffffffffffffffffffffffffff1681526020019081526020016000208054905061081b9190611ca7565b9050808314610a3b576000803373ffffffffffffffffffffffffffffffffffffffff1673ffffffffffffffffffffffffffffffffffffffff1681526020019081526020016000208181548110610874576108736118ff565b5b90600052602060002090600702016000803373ffffffffffffffffffffffffffffffffffffffff1673ffffffffffffffffffffffffffffffffffffffff16815260200190815260200160002084815481106108d2576108d16118ff565b5b906000526020600020906007020160008201548160000155600182018160010190816108fe9190611cf1565b50600282018160020190816109139190611cf1565b5060038201548160030155600482018160040190816109329190611cf1565b50600582015481600501556006820160009054906101000a900473ffffffffffffffffffffffffffffffffffffffff168160060160006101000a81548173ffffffffffffffffffffffffffffffffffffffff021916908373ffffffffffffffffffffffffffffffffffffffff1602179055506006820160149054906101000a900460ff168160060160146101000a81548160ff021916908315150217905550905050826000803373ffffffffffffffffffffffffffffffffffffffff1673ffffffffffffffffffffffffffffffffffffffff1681526020019081526020016000208481548110610a2557610a246118ff565b5b9060005260206000209060070201600001819055505b6000803373ffffffffffffffffffffffffffffffffffffffff1673ffffffffffffffffffffffffffffffffffffffff168152602001908152602001600020805480610a8957610a88611dd9565b5b6001900381819060005260206000209060070201600080820160009055600182016000610ab6919061115c565b600282016000610ac6919061115c565b6003820160009055600482016000610ade919061115c565b60058201600090556006820160006101000a81549073ffffffffffffffffffffffffffffffffffffffff02191690556006820160146101000a81549060ff021916905550509055505050565b60606000805b600180549050811015610cab57600060018281548110610b5357610b526118ff565b5b9060005260206000200160009054906101000a900473ffffffffffffffffffffffffffffffffffffffff16905060005b6000808373ffffffffffffffffffffffffffffffffffffffff1673ffffffffffffffffffffffffffffffffffffffff16815260200190815260200160002080549050811015610c9c578573ffffffffffffffffffffffffffffffffffffffff166000808473ffffffffffffffffffffffffffffffffffffffff1673ffffffffffffffffffffffffffffffffffffffff1681526020019081526020016000208281548110610c3357610c326118ff565b5b906000526020600020906007020160060160009054906101000a900473ffffffffffffffffffffffffffffffffffffffff1673ffffffffffffffffffffffffffffffffffffffff1603610c8f578380610c8b90611e08565b9450505b8080600101915050610b83565b50508080600101915050610b30565b5060008167ffffffffffffffff811115610cc857610cc761127b565b5b604051908082528060200260200182016040528015610d0157816020015b610cee61119c565b815260200190600190039081610ce65790505b5090506000805b60018054905081101561115057600060018281548110610d2b57610d2a6118ff565b5b9060005260206000200160009054906101000a900473ffffffffffffffffffffffffffffffffffffffff16905060005b6000808373ffffffffffffffffffffffffffffffffffffffff1673ffffffffffffffffffffffffffffffffffffffff16815260200190815260200160002080549050811015611141578773ffffffffffffffffffffffffffffffffffffffff166000808473ffffffffffffffffffffffffffffffffffffffff1673ffffffffffffffffffffffffffffffffffffffff1681526020019081526020016000208281548110610e0b57610e0a6118ff565b5b906000526020600020906007020160060160009054906101000a900473ffffffffffffffffffffffffffffffffffffffff1673ffffffffffffffffffffffffffffffffffffffff1603611134576000808373ffffffffffffffffffffffffffffffffffffffff1673ffffffffffffffffffffffffffffffffffffffff1681526020019081526020016000208181548110610ea857610ea76118ff565b5b90600052602060002090600702016040518061010001604052908160008201548152602001600182018054610edc906119c9565b80601f0160208091040260200160405190810160405280929190818152602001828054610f08906119c9565b8015610f555780601f10610f2a57610100808354040283529160200191610f55565b820191906000526020600020905b815481529060010190602001808311610f3857829003601f168201915b50505050508152602001600282018054610f6e906119c9565b80601f0160208091040260200160405190810160405280929190818152602001828054610f9a906119c9565b8015610fe75780601f10610fbc57610100808354040283529160200191610fe7565b820191906000526020600020905b815481529060010190602001808311610fca57829003601f168201915b505050505081526020016003820154815260200160048201805461100a906119c9565b80601f0160208091040260200160405190810160405280929190818152602001828054611036906119c9565b80156110835780601f1061105857610100808354040283529160200191611083565b820191906000526020600020905b81548152906001019060200180831161106657829003601f168201915b50505050508152602001600582015481526020016006820160009054906101000a900473ffffffffffffffffffffffffffffffffffffffff1673ffffffffffffffffffffffffffffffffffffffff1673ffffffffffffffffffffffffffffffffffffffff1681526020016006820160149054906101000a900460ff16151515158152505085858151811061111a576111196118ff565b5b6020026020010181905250838061113090611e08565b9450505b8080600101915050610d5b565b50508080600101915050610d08565b50819350505050919050565b508054611168906119c9565b6000825580601f1061117a5750611199565b601f01602090049060005260206000209081019061119891906111f9565b5b50565b604051806101000160405280600081526020016060815260200160608152602001600081526020016060815260200160008152602001600073ffffffffffffffffffffffffffffffffffffffff1681526020016000151581525090565b5b808211156112125760008160009055506001016111fa565b5090565b6000604051905090565b600080fd5b600080fd5b6000819050919050565b61123d8161122a565b811461124857600080fd5b50565b60008135905061125a81611234565b92915050565b600080fd5b600080fd5b6000601f19601f8301169050919050565b7f4e487b7100000000000000000000000000000000000000000000000000000000600052604160045260246000fd5b6112b38261126a565b810181811067ffffffffffffffff821117156112d2576112d161127b565b5b80604052505050565b60006112e5611216565b90506112f182826112aa565b919050565b600067ffffffffffffffff8211156113115761131061127b565b5b61131a8261126a565b9050602081019050919050565b82818337600083830152505050565b6000611349611344846112f6565b6112db565b90508281526020810184848401111561136557611364611265565b5b611370848285611327565b509392505050565b600082601f83011261138d5761138c611260565b5b813561139d848260208601611336565b91505092915050565b600080600080600060a086880312156113c2576113c1611220565b5b60006113d08882890161124b565b955050602086013567ffffffffffffffff8111156113f1576113f0611225565b5b6113fd88828901611378565b945050604086013567ffffffffffffffff81111561141e5761141d611225565b5b61142a88828901611378565b935050606061143b8882890161124b565b925050608086013567ffffffffffffffff81111561145c5761145b611225565b5b61146888828901611378565b9150509295509295909350565b6000806000806080858703121561148f5761148e611220565b5b600085013567ffffffffffffffff8111156114ad576114ac611225565b5b6114b987828801611378565b945050602085013567ffffffffffffffff8111156114da576114d9611225565b5b6114e687828801611378565b93505060406114f78782880161124b565b925050606085013567ffffffffffffffff81111561151857611517611225565b5b61152487828801611378565b91505092959194509250565b600073ffffffffffffffffffffffffffffffffffffffff82169050919050565b600061155b82611530565b9050919050565b61156b81611550565b811461157657600080fd5b50565b60008135905061158881611562565b92915050565b600080604083850312156115a5576115a4611220565b5b60006115b385828601611579565b92505060206115c48582860161124b565b9150509250929050565b6000602082840312156115e4576115e3611220565b5b60006115f28482850161124b565b91505092915050565b60006020828403121561161157611610611220565b5b600061161f84828501611579565b91505092915050565b600081519050919050565b600082825260208201905092915050565b6000819050602082019050919050565b61165d8161122a565b82525050565b600081519050919050565b600082825260208201905092915050565b60005b8381101561169d578082015181840152602081019050611682565b60008484015250505050565b60006116b482611663565b6116be818561166e565b93506116ce81856020860161167f565b6116d78161126a565b840191505092915050565b6116eb81611550565b82525050565b60008115159050919050565b611706816116f1565b82525050565b6000610100830160008301516117256000860182611654565b506020830151848203602086015261173d82826116a9565b9150506040830151848203604086015261175782826116a9565b915050606083015161176c6060860182611654565b506080830151848203608086015261178482826116a9565b91505060a083015161179960a0860182611654565b5060c08301516117ac60c08601826116e2565b5060e08301516117bf60e08601826116fd565b508091505092915050565b60006117d6838361170c565b905092915050565b6000602082019050919050565b60006117f682611628565b6118008185611633565b93508360208202850161181285611644565b8060005b8581101561184e578484038952815161182f85826117ca565b945061183a836117de565b925060208a01995050600181019050611816565b50829750879550505050505092915050565b6000602082019050818103600083015261187a81846117eb565b905092915050565b600082825260208201905092915050565b7f4974656d20646f6573206e6f7420657869737400000000000000000000000000600082015250565b60006118c9601383611882565b91506118d482611893565b602082019050919050565b600060208201905081810360008301526118f8816118bc565b9050919050565b7f4e487b7100000000000000000000000000000000000000000000000000000000600052603260045260246000fd5b7f4974656d20616c726561647920736f6c64000000000000000000000000000000600082015250565b6000611964601183611882565b915061196f8261192e565b602082019050919050565b6000602082019050818103600083015261199381611957565b9050919050565b7f4e487b7100000000000000000000000000000000000000000000000000000000600052602260045260246000fd5b600060028204905060018216806119e157607f821691505b6020821081036119f4576119f361199a565b5b50919050565b60008190508160005260206000209050919050565b60006020601f8301049050919050565b600082821b905092915050565b600060088302611a5c7fffffffffffffffffffffffffffffffffffffffffffffffffffffffffffffffff82611a1f565b611a668683611a1f565b95508019841693508086168417925050509392505050565b6000819050919050565b6000611aa3611a9e611a998461122a565b611a7e565b61122a565b9050919050565b6000819050919050565b611abd83611a88565b611ad1611ac982611aaa565b848454611a2c565b825550505050565b600090565b611ae6611ad9565b611af1818484611ab4565b505050565b5b81811015611b1557611b0a600082611ade565b600181019050611af7565b5050565b601f821115611b5a57611b2b816119fa565b611b3484611a0f565b81016020851015611b43578190505b611b57611b4f85611a0f565b830182611af6565b50505b505050565b600082821c905092915050565b6000611b7d60001984600802611b5f565b1980831691505092915050565b6000611b968383611b6c565b9150826002028217905092915050565b611baf82611663565b67ffffffffffffffff811115611bc857611bc761127b565b5b611bd282546119c9565b611bdd828285611b19565b600060209050601f831160018114611c105760008415611bfe578287015190505b611c088582611b8a565b865550611c70565b601f198416611c1e866119fa565b60005b82811015611c4657848901518255600182019150602085019450602081019050611c21565b86831015611c635784890151611c5f601f891682611b6c565b8355505b6001600288020188555050505b505050505050565b7f4e487b7100000000000000000000000000000000000000000000000000000000600052601160045260246000fd5b6000611cb28261122a565b9150611cbd8361122a565b9250828203905081811115611cd557611cd4611c78565b5b92915050565b600081549050611cea816119c9565b9050919050565b818103611cff575050611dd7565b611d0882611cdb565b67ffffffffffffffff811115611d2157611d2061127b565b5b611d2b82546119c9565b611d36828285611b19565b6000601f831160018114611d655760008415611d53578287015490505b611d5d8582611b8a565b865550611dd0565b601f198416611d73876119fa565b9650611d7e866119fa565b60005b82811015611da657848901548255600182019150600185019450602081019050611d81565b86831015611dc35784890154611dbf601f891682611b6c565b8355505b6001600288020188555050505b5050505050505b565b7f4e487b7100000000000000000000000000000000000000000000000000000000600052603160045260246000fd5b6000611e138261122a565b91507fffffffffffffffffffffffffffffffffffffffffffffffffffffffffffffffff8203611e4557611e44611c78565b5b60018201905091905056fea2646970667358221220e28e04d27b6144b8060525e0b840fcdf84cdd90188526b05dd4b0ea5ce418e5464736f6c63430008180033",
  "devdoc": {
    "kind": "dev",
    "methods": {},
    "version": 1
  },
  "userdoc": {
    "kind": "user",
    "methods": {},
    "version": 1
  },
  "storageLayout": {
    "storage": [
      {
        "astId": 374,
        "contract": "contracts/Item.sol:Item",
        "label": "items",
        "offset": 0,
        "slot": "0",
        "type": "t_mapping(t_address,t_array(t_struct(ItemStruct)368_storage)dyn_storage)"
      },
      {
        "astId": 377,
        "contract": "contracts/Item.sol:Item",
        "label": "sellers",
        "offset": 0,
        "slot": "1",
        "type": "t_array(t_address)dyn_storage"
      }
    ],
    "types": {
      "t_address": {
        "encoding": "inplace",
        "label": "address",
        "numberOfBytes": "20"
      },
      "t_array(t_address)dyn_storage": {
        "base": "t_address",
        "encoding": "dynamic_array",
        "label": "address[]",
        "numberOfBytes": "32"
      },
      "t_array(t_struct(ItemStruct)368_storage)dyn_storage": {
        "base": "t_struct(ItemStruct)368_storage",
        "encoding": "dynamic_array",
        "label": "struct Item.ItemStruct[]",
        "numberOfBytes": "32"
      },
      "t_bool": {
        "encoding": "inplace",
        "label": "bool",
        "numberOfBytes": "1"
      },
      "t_mapping(t_address,t_array(t_struct(ItemStruct)368_storage)dyn_storage)": {
        "encoding": "mapping",
        "key": "t_address",
        "label": "mapping(address => struct Item.ItemStruct[])",
        "numberOfBytes": "32",
        "value": "t_array(t_struct(ItemStruct)368_storage)dyn_storage"
      },
      "t_string_storage": {
        "encoding": "bytes",
        "label": "string",
        "numberOfBytes": "32"
      },
      "t_struct(ItemStruct)368_storage": {
        "encoding": "inplace",
        "label": "struct Item.ItemStruct",
        "members": [
          {
            "astId": 353,
            "contract": "contracts/Item.sol:Item",
            "label": "itemId",
            "offset": 0,
            "slot": "0",
            "type": "t_uint256"
          },
          {
            "astId": 355,
            "contract": "contracts/Item.sol:Item",
            "label": "title",
            "offset": 0,
            "slot": "1",
            "type": "t_string_storage"
          },
          {
            "astId": 357,
            "contract": "contracts/Item.sol:Item",
            "label": "description",
            "offset": 0,
            "slot": "2",
            "type": "t_string_storage"
          },
          {
            "astId": 359,
            "contract": "contracts/Item.sol:Item",
            "label": "price",
            "offset": 0,
            "slot": "3",
            "type": "t_uint256"
          },
          {
            "astId": 361,
            "contract": "contracts/Item.sol:Item",
            "label": "image",
            "offset": 0,
            "slot": "4",
            "type": "t_string_storage"
          },
          {
            "astId": 363,
            "contract": "contracts/Item.sol:Item",
            "label": "createdAt",
            "offset": 0,
            "slot": "5",
            "type": "t_uint256"
          },
          {
            "astId": 365,
            "contract": "contracts/Item.sol:Item",
            "label": "buyer",
            "offset": 0,
            "slot": "6",
            "type": "t_address"
          },
          {
            "astId": 367,
            "contract": "contracts/Item.sol:Item",
            "label": "has_buyer",
            "offset": 20,
            "slot": "6",
            "type": "t_bool"
          }
        ],
        "numberOfBytes": "224"
      },
      "t_uint256": {
        "encoding": "inplace",
        "label": "uint256",
        "numberOfBytes": "32"
      }
    }
  }
}