{
  "address": "0x053AeE2e9d1Fa52E911F8b08bf5cD198b16ADdCc",
  "abi": [
    {
      "inputs": [
        {
          "internalType": "string",
          "name": "_title",
          "type": "string"
        },
        {
          "internalType": "string",
          "name": "_description",
          "type": "string"
        },
        {
          "internalType": "uint256",
          "name": "_price",
          "type": "uint256"
        },
        {
          "internalType": "string",
          "name": "_image",
          "type": "string"
        }
      ],
      "name": "addItem",
      "outputs": [],
      "stateMutability": "nonpayable",
      "type": "function"
    },
    {
      "inputs": [],
      "name": "browseItems",
      "outputs": [
        {
          "components": [
            {
              "internalType": "uint256",
              "name": "itemId",
              "type": "uint256"
            },
            {
              "internalType": "string",
              "name": "title",
              "type": "string"
            },
            {
              "internalType": "string",
              "name": "description",
              "type": "string"
            },
            {
              "internalType": "uint256",
              "name": "price",
              "type": "uint256"
            },
            {
              "internalType": "string",
              "name": "image",
              "type": "string"
            },
            {
              "internalType": "uint256",
              "name": "createdAt",
              "type": "uint256"
            },
            {
              "internalType": "address",
              "name": "buyer",
              "type": "address"
            },
            {
              "internalType": "bool",
              "name": "hasBuyer",
              "type": "bool"
            },
            {
              "internalType": "contract Escrow",
              "name": "escrow",
              "type": "address"
            },
            {
              "internalType": "address",
              "name": "seller",
              "type": "address"
            }
          ],
          "internalType": "struct Item.ItemStruct[]",
          "name": "",
          "type": "tuple[]"
        }
      ],
      "stateMutability": "view",
      "type": "function"
    },
    {
      "inputs": [
        {
          "internalType": "uint256",
          "name": "_itemId",
          "type": "uint256"
        }
      ],
      "name": "deleteItem",
      "outputs": [],
      "stateMutability": "nonpayable",
      "type": "function"
    },
    {
      "inputs": [
        {
          "internalType": "uint256",
          "name": "_itemId",
          "type": "uint256"
        },
        {
          "internalType": "string",
          "name": "_title",
          "type": "string"
        },
        {
          "internalType": "string",
          "name": "_description",
          "type": "string"
        },
        {
          "internalType": "uint256",
          "name": "_price",
          "type": "uint256"
        },
        {
          "internalType": "string",
          "name": "_image",
          "type": "string"
        }
      ],
      "name": "editItem",
      "outputs": [],
      "stateMutability": "nonpayable",
      "type": "function"
    },
    {
      "inputs": [],
      "name": "itemsCount",
      "outputs": [
        {
          "internalType": "uint256",
          "name": "",
          "type": "uint256"
        }
      ],
      "stateMutability": "view",
      "type": "function"
    },
    {
      "inputs": [
        {
          "internalType": "uint256",
          "name": "_itemId",
          "type": "uint256"
        },
        {
          "internalType": "address",
          "name": "_seller",
          "type": "address"
        }
      ],
      "name": "purchaseItem",
      "outputs": [],
      "stateMutability": "payable",
      "type": "function"
    },
    {
      "inputs": [],
      "name": "retrieveUserItems",
      "outputs": [
        {
          "components": [
            {
              "internalType": "uint256",
              "name": "itemId",
              "type": "uint256"
            },
            {
              "internalType": "string",
              "name": "title",
              "type": "string"
            },
            {
              "internalType": "string",
              "name": "description",
              "type": "string"
            },
            {
              "internalType": "uint256",
              "name": "price",
              "type": "uint256"
            },
            {
              "internalType": "string",
              "name": "image",
              "type": "string"
            },
            {
              "internalType": "uint256",
              "name": "createdAt",
              "type": "uint256"
            },
            {
              "internalType": "address",
              "name": "buyer",
              "type": "address"
            },
            {
              "internalType": "bool",
              "name": "hasBuyer",
              "type": "bool"
            },
            {
              "internalType": "contract Escrow",
              "name": "escrow",
              "type": "address"
            },
            {
              "internalType": "address",
              "name": "seller",
              "type": "address"
            }
          ],
          "internalType": "struct Item.ItemStruct[]",
          "name": "",
          "type": "tuple[]"
        }
      ],
      "stateMutability": "view",
      "type": "function"
    }
  ],
  "transactionHash": "0x37c82cf2d8f8e49167146964fed910c6e7b9b7547f271afe939bd62632fb715d",
  "args": [],
  "numDeployments": 19,
  "solcInputHash": "e7086c1d775f7a781440eb68ecee802d",
  "bytecode": "0x608060405234801561001057600080fd5b50613832806100206000396000f3fe6080604052600436106200007a5760003560e01c80637bfe9efd11620000555780637bfe9efd14620001095780639ab7e23b1462000129578063dbc376701462000159578063e2c03ace1462000189576200007a565b80630461459a146200007f57806313df81d614620000ad578063654fc83314620000db575b600080fd5b3480156200008c57600080fd5b50620000ab6004803603810190620000a5919062001fcb565b620001b9565b005b348015620000ba57600080fd5b50620000d96004803603810190620000d39190620020b0565b6200043e565b005b348015620000e857600080fd5b506200010760048036038101906200010191906200217f565b620007a2565b005b62000127600480360381019062000121919062002216565b62000c67565b005b3480156200013657600080fd5b5062000141620010d4565b6040516200015091906200255c565b60405180910390f35b3480156200016657600080fd5b50620001716200147b565b6040516200018091906200255c565b60405180910390f35b3480156200019657600080fd5b50620001a162001b70565b604051620001b0919062002591565b60405180910390f35b600085118015620001cc57506001548511155b6200020e576040517f08c379a000000000000000000000000000000000000000000000000000000000815260040162000205906200260f565b60405180910390fd5b60008060003373ffffffffffffffffffffffffffffffffffffffff1673ffffffffffffffffffffffffffffffffffffffff16815260200190815260200160002090506000805b8280549050811015620003f1578783828154811062000278576200027762002631565b5b90600052602060002090600902016000015403620003e35760019150828181548110620002aa57620002a962002631565b5b906000526020600020906009020160060160149054906101000a900460ff16156200030c576040517f08c379a00000000000000000000000000000000000000000000000000000000081526004016200030390620026b0565b60405180910390fd5b8683828154811062000323576200032262002631565b5b90600052602060002090600902016001019081620003429190620028fe565b50858382815481106200035a576200035962002631565b5b90600052602060002090600902016002019081620003799190620028fe565b508483828154811062000391576200039062002631565b5b90600052602060002090600902016003018190555083838281548110620003bd57620003bc62002631565b5b90600052602060002090600902016004019081620003dc9190620028fe565b50620003f1565b808060010191505062000254565b508062000435576040517f08c379a00000000000000000000000000000000000000000000000000000000081526004016200042c9062002a35565b60405180910390fd5b50505050505050565b6200047f6040518060400160405280600c81526020017f50726963652069733a20257300000000000000000000000000000000000000008152508362001b76565b60008060003373ffffffffffffffffffffffffffffffffffffffff1673ffffffffffffffffffffffffffffffffffffffff16815260200190815260200160002080549050036200052d576002339080600181540180825580915050600190039060005260206000200160009091909190916101000a81548173ffffffffffffffffffffffffffffffffffffffff021916908373ffffffffffffffffffffffffffffffffffffffff1602179055505b60016000815480929190620005429062002a86565b91905055506000803373ffffffffffffffffffffffffffffffffffffffff1673ffffffffffffffffffffffffffffffffffffffff1681526020019081526020016000206040518061014001604052806001548152602001868152602001858152602001848152602001838152602001428152602001600073ffffffffffffffffffffffffffffffffffffffff168152602001600015158152602001600073ffffffffffffffffffffffffffffffffffffffff1681526020013373ffffffffffffffffffffffffffffffffffffffff1681525090806001815401808255809150506001900390600052602060002090600902016000909190919091506000820151816000015560208201518160010190816200065e9190620028fe565b506040820151816002019081620006769190620028fe565b50606082015181600301556080820151816004019081620006989190620028fe565b5060a0820151816005015560c08201518160060160006101000a81548173ffffffffffffffffffffffffffffffffffffffff021916908373ffffffffffffffffffffffffffffffffffffffff16021790555060e08201518160060160146101000a81548160ff0219169083151502179055506101008201518160070160006101000a81548173ffffffffffffffffffffffffffffffffffffffff021916908373ffffffffffffffffffffffffffffffffffffffff1602179055506101208201518160080160006101000a81548173ffffffffffffffffffffffffffffffffffffffff021916908373ffffffffffffffffffffffffffffffffffffffff160217905550505050505050565b60008060003373ffffffffffffffffffffffffffffffffffffffff1673ffffffffffffffffffffffffffffffffffffffff168152602001908152602001600020905060008080600090505b8380549050811015620008bc578484828154811062000811576200081062002631565b5b90600052602060002090600902016000015403620008ae578381815481106200083f576200083e62002631565b5b906000526020600020906009020160060160149054906101000a900460ff1615620008a1576040517f08c379a00000000000000000000000000000000000000000000000000000000081526004016200089890620026b0565b60405180910390fd5b60019250809150620008bc565b8080600101915050620007ed565b508162000900576040517f08c379a0000000000000000000000000000000000000000000000000000000008152600401620008f79062002b23565b60405180910390fd5b60006001848054905062000915919062002b45565b905080821462000b5c5783818154811062000935576200093462002631565b5b906000526020600020906009020184838154811062000959576200095862002631565b5b9060005260206000209060090201600082015481600001556001820181600101908162000987919062002b98565b50600282018160020190816200099e919062002b98565b506003820154816003015560048201816004019081620009bf919062002b98565b50600582015481600501556006820160009054906101000a900473ffffffffffffffffffffffffffffffffffffffff168160060160006101000a81548173ffffffffffffffffffffffffffffffffffffffff021916908373ffffffffffffffffffffffffffffffffffffffff1602179055506006820160149054906101000a900460ff168160060160146101000a81548160ff0219169083151502179055506007820160009054906101000a900473ffffffffffffffffffffffffffffffffffffffff168160070160006101000a81548173ffffffffffffffffffffffffffffffffffffffff021916908373ffffffffffffffffffffffffffffffffffffffff1602179055506008820160009054906101000a900473ffffffffffffffffffffffffffffffffffffffff168160080160006101000a81548173ffffffffffffffffffffffffffffffffffffffff021916908373ffffffffffffffffffffffffffffffffffffffff1602179055509050508484838154811062000b465762000b4562002631565b5b9060005260206000209060090201600001819055505b8380548062000b705762000b6f62002c99565b5b600190038181906000526020600020906009020160008082016000905560018201600062000b9f919062001d04565b60028201600062000bb1919062001d04565b600382016000905560048201600062000bcb919062001d04565b60058201600090556006820160006101000a81549073ffffffffffffffffffffffffffffffffffffffff02191690556006820160146101000a81549060ff02191690556007820160006101000a81549073ffffffffffffffffffffffffffffffffffffffff02191690556008820160006101000a81549073ffffffffffffffffffffffffffffffffffffffff0219169055505090555050505050565b60008211801562000c7a57506001548211155b62000cbc576040517f08c379a000000000000000000000000000000000000000000000000000000000815260040162000cb3906200260f565b60405180910390fd5b60008060008373ffffffffffffffffffffffffffffffffffffffff1673ffffffffffffffffffffffffffffffffffffffff168152602001908152602001600020905060008080600090505b838054905081101562000d5e578584828154811062000d2b5762000d2a62002631565b5b9060005260206000209060090201600001540362000d50576001925080915062000d5e565b808060010191505062000d07565b508162000da2576040517f08c379a000000000000000000000000000000000000000000000000000000000815260040162000d999062002d18565b60405180910390fd5b82818154811062000db85762000db762002631565b5b906000526020600020906009020160060160149054906101000a900460ff161562000e1a576040517f08c379a000000000000000000000000000000000000000000000000000000000815260040162000e1190620026b0565b60405180910390fd5b82818154811062000e305762000e2f62002631565b5b906000526020600020906009020160030154341462000e86576040517f08c379a000000000000000000000000000000000000000000000000000000000815260040162000e7d9062002d8a565b60405180910390fd5b600034338660405162000e999062001d4a565b62000ea692919062002de2565b6040518091039082f090508015801562000ec4573d6000803e3d6000fd5b5090503384838154811062000ede5762000edd62002631565b5b906000526020600020906009020160060160006101000a81548173ffffffffffffffffffffffffffffffffffffffff021916908373ffffffffffffffffffffffffffffffffffffffff160217905550600184838154811062000f455762000f4462002631565b5b906000526020600020906009020160060160146101000a81548160ff0219169083151502179055508084838154811062000f845762000f8362002631565b5b906000526020600020906009020160070160006101000a81548173ffffffffffffffffffffffffffffffffffffffff021916908373ffffffffffffffffffffffffffffffffffffffff160217905550620010cc6040518060400160405280601881526020017f4974656d207075726368617365643a202573206279202573000000000000000081525085848154811062001023576200102262002631565b5b90600052602060002090600902016001018054620010419062002701565b80601f01602080910402602001604051908101604052809291908181526020018280546200106f9062002701565b8015620010c05780601f106200109457610100808354040283529160200191620010c0565b820191906000526020600020905b815481529060010190602001808311620010a257829003601f168201915b50505050503362001c16565b505050505050565b60606000803373ffffffffffffffffffffffffffffffffffffffff1673ffffffffffffffffffffffffffffffffffffffff168152602001908152602001600020805480602002602001604051908101604052809291908181526020016000905b828210156200147257838290600052602060002090600902016040518061014001604052908160008201548152602001600182018054620011759062002701565b80601f0160208091040260200160405190810160405280929190818152602001828054620011a39062002701565b8015620011f45780601f10620011c857610100808354040283529160200191620011f4565b820191906000526020600020905b815481529060010190602001808311620011d657829003601f168201915b505050505081526020016002820180546200120f9062002701565b80601f01602080910402602001604051908101604052809291908181526020018280546200123d9062002701565b80156200128e5780601f1062001262576101008083540402835291602001916200128e565b820191906000526020600020905b8154815290600101906020018083116200127057829003601f168201915b5050505050815260200160038201548152602001600482018054620012b39062002701565b80601f0160208091040260200160405190810160405280929190818152602001828054620012e19062002701565b8015620013325780601f10620013065761010080835404028352916020019162001332565b820191906000526020600020905b8154815290600101906020018083116200131457829003601f168201915b50505050508152602001600582015481526020016006820160009054906101000a900473ffffffffffffffffffffffffffffffffffffffff1673ffffffffffffffffffffffffffffffffffffffff1673ffffffffffffffffffffffffffffffffffffffff1681526020016006820160149054906101000a900460ff161515151581526020016007820160009054906101000a900473ffffffffffffffffffffffffffffffffffffffff1673ffffffffffffffffffffffffffffffffffffffff1673ffffffffffffffffffffffffffffffffffffffff1681526020016008820160009054906101000a900473ffffffffffffffffffffffffffffffffffffffff1673ffffffffffffffffffffffffffffffffffffffff1673ffffffffffffffffffffffffffffffffffffffff16815250508152602001906001019062001134565b50505050905090565b606060008060005b600280549050811015620015a7573373ffffffffffffffffffffffffffffffffffffffff1660028281548110620014bf57620014be62002631565b5b9060005260206000200160009054906101000a900473ffffffffffffffffffffffffffffffffffffffff1673ffffffffffffffffffffffffffffffffffffffff161462001599576000806002838154811062001520576200151f62002631565b5b9060005260206000200160009054906101000a900473ffffffffffffffffffffffffffffffffffffffff1673ffffffffffffffffffffffffffffffffffffffff1673ffffffffffffffffffffffffffffffffffffffff168152602001908152602001600020805490508362001596919062002e0f565b92505b808060010191505062001483565b5060008267ffffffffffffffff811115620015c757620015c662001e84565b5b6040519080825280602002602001820160405280156200160457816020015b620015f062001d58565b815260200190600190039081620015e65790505b50905060005b60028054905081101562001ae4573373ffffffffffffffffffffffffffffffffffffffff166002828154811062001646576200164562002631565b5b9060005260206000200160009054906101000a900473ffffffffffffffffffffffffffffffffffffffff1673ffffffffffffffffffffffffffffffffffffffff161462001ad657600080600060028481548110620016a957620016a862002631565b5b9060005260206000200160009054906101000a900473ffffffffffffffffffffffffffffffffffffffff1673ffffffffffffffffffffffffffffffffffffffff1673ffffffffffffffffffffffffffffffffffffffff168152602001908152602001600020905060005b818054905081101562001ad35781818154811062001736576200173562002631565b5b906000526020600020906009020160060160149054906101000a900460ff1662001ac55781818154811062001770576200176f62002631565b5b90600052602060002090600902016040518061014001604052908160008201548152602001600182018054620017a69062002701565b80601f0160208091040260200160405190810160405280929190818152602001828054620017d49062002701565b8015620018255780601f10620017f95761010080835404028352916020019162001825565b820191906000526020600020905b8154815290600101906020018083116200180757829003601f168201915b50505050508152602001600282018054620018409062002701565b80601f01602080910402602001604051908101604052809291908181526020018280546200186e9062002701565b8015620018bf5780601f106200189357610100808354040283529160200191620018bf565b820191906000526020600020905b815481529060010190602001808311620018a157829003601f168201915b5050505050815260200160038201548152602001600482018054620018e49062002701565b80601f0160208091040260200160405190810160405280929190818152602001828054620019129062002701565b8015620019635780601f10620019375761010080835404028352916020019162001963565b820191906000526020600020905b8154815290600101906020018083116200194557829003601f168201915b50505050508152602001600582015481526020016006820160009054906101000a900473ffffffffffffffffffffffffffffffffffffffff1673ffffffffffffffffffffffffffffffffffffffff1673ffffffffffffffffffffffffffffffffffffffff1681526020016006820160149054906101000a900460ff161515151581526020016007820160009054906101000a900473ffffffffffffffffffffffffffffffffffffffff1673ffffffffffffffffffffffffffffffffffffffff1673ffffffffffffffffffffffffffffffffffffffff1681526020016008820160009054906101000a900473ffffffffffffffffffffffffffffffffffffffff1673ffffffffffffffffffffffffffffffffffffffff1673ffffffffffffffffffffffffffffffffffffffff168152505084868151811062001aa95762001aa862002631565b5b6020026020010181905250848062001ac19062002a86565b9550505b808060010191505062001713565b50505b80806001019150506200160a565b5062001b266040518060400160405280600d81526020017f546f74616c204974656d733a20000000000000000000000000000000000000008152508462001b76565b62001b676040518060400160405280600f81526020017f43757272656e7420496e6465783a2000000000000000000000000000000000008152508362001b76565b80935050505090565b60015481565b62001c12828260405160240162001b8f92919062002e8b565b6040516020818303038152906040527fb60e72cc000000000000000000000000000000000000000000000000000000007bffffffffffffffffffffffffffffffffffffffffffffffffffffffff19166020820180517bffffffffffffffffffffffffffffffffffffffffffffffffffffffff838183161783525050505062001cb9565b5050565b62001cb483838360405160240162001c319392919062002ebf565b6040516020818303038152906040527f95ed0195000000000000000000000000000000000000000000000000000000007bffffffffffffffffffffffffffffffffffffffffffffffffffffffff19166020820180517bffffffffffffffffffffffffffffffffffffffffffffffffffffffff838183161783525050505062001cb9565b505050565b62001cd48162001ccc62001cd762001cf8565b63ffffffff16565b50565b60006a636f6e736f6c652e6c6f679050600080835160208501845afa505050565b62001def819050919050565b50805462001d129062002701565b6000825580601f1062001d26575062001d47565b601f01602090049060005260206000209081019062001d46919062001dfb565b5b50565b6108c38062002f3a83390190565b604051806101400160405280600081526020016060815260200160608152602001600081526020016060815260200160008152602001600073ffffffffffffffffffffffffffffffffffffffff168152602001600015158152602001600073ffffffffffffffffffffffffffffffffffffffff168152602001600073ffffffffffffffffffffffffffffffffffffffff1681525090565b62001df962002f0a565b565b5b8082111562001e1657600081600090555060010162001dfc565b5090565b6000604051905090565b600080fd5b600080fd5b6000819050919050565b62001e438162001e2e565b811462001e4f57600080fd5b50565b60008135905062001e638162001e38565b92915050565b600080fd5b600080fd5b6000601f19601f8301169050919050565b7f4e487b7100000000000000000000000000000000000000000000000000000000600052604160045260246000fd5b62001ebe8262001e73565b810181811067ffffffffffffffff8211171562001ee05762001edf62001e84565b5b80604052505050565b600062001ef562001e1a565b905062001f03828262001eb3565b919050565b600067ffffffffffffffff82111562001f265762001f2562001e84565b5b62001f318262001e73565b9050602081019050919050565b82818337600083830152505050565b600062001f6462001f5e8462001f08565b62001ee9565b90508281526020810184848401111562001f835762001f8262001e6e565b5b62001f9084828562001f3e565b509392505050565b600082601f83011262001fb05762001faf62001e69565b5b813562001fc284826020860162001f4d565b91505092915050565b600080600080600060a0868803121562001fea5762001fe962001e24565b5b600062001ffa8882890162001e52565b955050602086013567ffffffffffffffff8111156200201e576200201d62001e29565b5b6200202c8882890162001f98565b945050604086013567ffffffffffffffff81111562002050576200204f62001e29565b5b6200205e8882890162001f98565b9350506060620020718882890162001e52565b925050608086013567ffffffffffffffff81111562002095576200209462001e29565b5b620020a38882890162001f98565b9150509295509295909350565b60008060008060808587031215620020cd57620020cc62001e24565b5b600085013567ffffffffffffffff811115620020ee57620020ed62001e29565b5b620020fc8782880162001f98565b945050602085013567ffffffffffffffff81111562002120576200211f62001e29565b5b6200212e8782880162001f98565b9350506040620021418782880162001e52565b925050606085013567ffffffffffffffff81111562002165576200216462001e29565b5b620021738782880162001f98565b91505092959194509250565b60006020828403121562002198576200219762001e24565b5b6000620021a88482850162001e52565b91505092915050565b600073ffffffffffffffffffffffffffffffffffffffff82169050919050565b6000620021de82620021b1565b9050919050565b620021f081620021d1565b8114620021fc57600080fd5b50565b6000813590506200221081620021e5565b92915050565b6000806040838503121562002230576200222f62001e24565b5b6000620022408582860162001e52565b92505060206200225385828601620021ff565b9150509250929050565b600081519050919050565b600082825260208201905092915050565b6000819050602082019050919050565b620022948162001e2e565b82525050565b600081519050919050565b600082825260208201905092915050565b60005b83811015620022d6578082015181840152602081019050620022b9565b60008484015250505050565b6000620022ef826200229a565b620022fb8185620022a5565b93506200230d818560208601620022b6565b620023188162001e73565b840191505092915050565b6200232e81620021d1565b82525050565b60008115159050919050565b6200234b8162002334565b82525050565b6000819050919050565b60006200237c620023766200237084620021b1565b62002351565b620021b1565b9050919050565b600062002390826200235b565b9050919050565b6000620023a48262002383565b9050919050565b620023b68162002397565b82525050565b600061014083016000830151620023d7600086018262002289565b5060208301518482036020860152620023f18282620022e2565b915050604083015184820360408601526200240d8282620022e2565b915050606083015162002424606086018262002289565b50608083015184820360808601526200243e8282620022e2565b91505060a08301516200245560a086018262002289565b5060c08301516200246a60c086018262002323565b5060e08301516200247f60e086018262002340565b5061010083015162002496610100860182620023ab565b50610120830151620024ad61012086018262002323565b508091505092915050565b6000620024c68383620023bc565b905092915050565b6000602082019050919050565b6000620024e8826200225d565b620024f4818562002268565b935083602082028501620025088562002279565b8060005b858110156200254a5784840389528151620025288582620024b8565b94506200253583620024ce565b925060208a019950506001810190506200250c565b50829750879550505050505092915050565b60006020820190508181036000830152620025788184620024db565b905092915050565b6200258b8162001e2e565b82525050565b6000602082019050620025a8600083018462002580565b92915050565b600082825260208201905092915050565b7f496e76616c6964206974656d2049440000000000000000000000000000000000600082015250565b6000620025f7600f83620025ae565b91506200260482620025bf565b602082019050919050565b600060208201905081810360008301526200262a81620025e8565b9050919050565b7f4e487b7100000000000000000000000000000000000000000000000000000000600052603260045260246000fd5b7f4974656d20616c726561647920736f6c64000000000000000000000000000000600082015250565b600062002698601183620025ae565b9150620026a58262002660565b602082019050919050565b60006020820190508181036000830152620026cb8162002689565b9050919050565b7f4e487b7100000000000000000000000000000000000000000000000000000000600052602260045260246000fd5b600060028204905060018216806200271a57607f821691505b60208210810362002730576200272f620026d2565b5b50919050565b60008190508160005260206000209050919050565b60006020601f8301049050919050565b600082821b905092915050565b6000600883026200279a7fffffffffffffffffffffffffffffffffffffffffffffffffffffffffffffffff826200275b565b620027a686836200275b565b95508019841693508086168417925050509392505050565b6000620027df620027d9620027d38462001e2e565b62002351565b62001e2e565b9050919050565b6000819050919050565b620027fb83620027be565b620028136200280a82620027e6565b84845462002768565b825550505050565b600090565b6200282a6200281b565b62002837818484620027f0565b505050565b5b818110156200285f576200285360008262002820565b6001810190506200283d565b5050565b601f821115620028ae57620028788162002736565b62002883846200274b565b8101602085101562002893578190505b620028ab620028a2856200274b565b8301826200283c565b50505b505050565b600082821c905092915050565b6000620028d360001984600802620028b3565b1980831691505092915050565b6000620028ee8383620028c0565b9150826002028217905092915050565b62002909826200229a565b67ffffffffffffffff81111562002925576200292462001e84565b5b62002931825462002701565b6200293e82828562002863565b600060209050601f83116001811462002976576000841562002961578287015190505b6200296d8582620028e0565b865550620029dd565b601f198416620029868662002736565b60005b82811015620029b05784890151825560018201915060208501945060208101905062002989565b86831015620029d05784890151620029cc601f891682620028c0565b8355505b6001600288020188555050505b505050505050565b7f4974656d20646f6573206e6f742062656c6f6e6720746f2073656e6465720000600082015250565b600062002a1d601e83620025ae565b915062002a2a82620029e5565b602082019050919050565b6000602082019050818103600083015262002a508162002a0e565b9050919050565b7f4e487b7100000000000000000000000000000000000000000000000000000000600052601160045260246000fd5b600062002a938262001e2e565b91507fffffffffffffffffffffffffffffffffffffffffffffffffffffffffffffffff820362002ac85762002ac762002a57565b5b600182019050919050565b7f4974656d20646f6573206e6f7420657869737400000000000000000000000000600082015250565b600062002b0b601383620025ae565b915062002b188262002ad3565b602082019050919050565b6000602082019050818103600083015262002b3e8162002afc565b9050919050565b600062002b528262001e2e565b915062002b5f8362001e2e565b925082820390508181111562002b7a5762002b7962002a57565b5b92915050565b60008154905062002b918162002701565b9050919050565b81810362002ba857505062002c97565b62002bb38262002b80565b67ffffffffffffffff81111562002bcf5762002bce62001e84565b5b62002bdb825462002701565b62002be882828562002863565b6000601f83116001811462002c1c576000841562002c07578287015490505b62002c138582620028e0565b86555062002c90565b601f19841662002c2c8762002736565b965062002c398662002736565b60005b8281101562002c635784890154825560018201915060018501945060208101905062002c3c565b8683101562002c83578489015462002c7f601f891682620028c0565b8355505b6001600288020188555050505b5050505050505b565b7f4e487b7100000000000000000000000000000000000000000000000000000000600052603160045260246000fd5b7f4974656d206e6f7420666f756e64000000000000000000000000000000000000600082015250565b600062002d00600e83620025ae565b915062002d0d8262002cc8565b602082019050919050565b6000602082019050818103600083015262002d338162002cf1565b9050919050565b7f496e636f727265637420616d6f756e74206f662065746865722073656e740000600082015250565b600062002d72601e83620025ae565b915062002d7f8262002d3a565b602082019050919050565b6000602082019050818103600083015262002da58162002d63565b9050919050565b62002db781620021d1565b82525050565b600062002dca82620021b1565b9050919050565b62002ddc8162002dbd565b82525050565b600060408201905062002df9600083018562002dac565b62002e08602083018462002dd1565b9392505050565b600062002e1c8262001e2e565b915062002e298362001e2e565b925082820190508082111562002e445762002e4362002a57565b5b92915050565b600062002e57826200229a565b62002e638185620025ae565b935062002e75818560208601620022b6565b62002e808162001e73565b840191505092915050565b6000604082019050818103600083015262002ea7818562002e4a565b905062002eb8602083018462002580565b9392505050565b6000606082019050818103600083015262002edb818662002e4a565b9050818103602083015262002ef1818562002e4a565b905062002f02604083018462002dac565b949350505050565b7f4e487b7100000000000000000000000000000000000000000000000000000000600052605160045260246000fdfe60806040526040516108c33803806108c383398181016040528101906100259190610179565b81600060016101000a81548173ffffffffffffffffffffffffffffffffffffffff021916908373ffffffffffffffffffffffffffffffffffffffff16021790555080600160006101000a81548173ffffffffffffffffffffffffffffffffffffffff021916908373ffffffffffffffffffffffffffffffffffffffff16021790555060008060006101000a81548160ff021916908360028111156100cc576100cb6101b9565b5b021790555050506101e8565b600080fd5b600073ffffffffffffffffffffffffffffffffffffffff82169050919050565b6000610108826100dd565b9050919050565b610118816100fd565b811461012357600080fd5b50565b6000815190506101358161010f565b92915050565b6000610146826100dd565b9050919050565b6101568161013b565b811461016157600080fd5b50565b6000815190506101738161014d565b92915050565b600080604083850312156101905761018f6100d8565b5b600061019e85828601610126565b92505060206101af85828601610164565b9150509250929050565b7f4e487b7100000000000000000000000000000000000000000000000000000000600052602160045260246000fd5b6106cc806101f76000396000f3fe60806040526004361061004a5760003560e01c806308551a531461004f5780635e10177b1461007a5780637150d8ae14610091578063afe01043146100bc578063d0e30db0146100e7575b600080fd5b34801561005b57600080fd5b506100646100f1565b6040516100719190610458565b60405180910390f35b34801561008657600080fd5b5061008f610117565b005b34801561009d57600080fd5b506100a66102b0565b6040516100b39190610494565b60405180910390f35b3480156100c857600080fd5b506100d16102d6565b6040516100de9190610526565b60405180910390f35b6100ef6102e7565b005b600160009054906101000a900473ffffffffffffffffffffffffffffffffffffffff1681565b600060019054906101000a900473ffffffffffffffffffffffffffffffffffffffff1673ffffffffffffffffffffffffffffffffffffffff163373ffffffffffffffffffffffffffffffffffffffff16146101a7576040517f08c379a000000000000000000000000000000000000000000000000000000000815260040161019e9061059e565b60405180910390fd5b600160028111156101bb576101ba6104af565b5b60008054906101000a900460ff1660028111156101db576101da6104af565b5b1461021b576040517f08c379a00000000000000000000000000000000000000000000000000000000081526004016102129061060a565b60405180910390fd5b600160009054906101000a900473ffffffffffffffffffffffffffffffffffffffff1673ffffffffffffffffffffffffffffffffffffffff166108fc479081150290604051600060405180830381858888f19350505050158015610283573d6000803e3d6000fd5b5060026000806101000a81548160ff021916908360028111156102a9576102a86104af565b5b0217905550565b600060019054906101000a900473ffffffffffffffffffffffffffffffffffffffff1681565b60008054906101000a900460ff1681565b600060019054906101000a900473ffffffffffffffffffffffffffffffffffffffff1673ffffffffffffffffffffffffffffffffffffffff163373ffffffffffffffffffffffffffffffffffffffff1614610377576040517f08c379a000000000000000000000000000000000000000000000000000000000815260040161036e9061059e565b60405180910390fd5b6000600281111561038b5761038a6104af565b5b60008054906101000a900460ff1660028111156103ab576103aa6104af565b5b146103eb576040517f08c379a00000000000000000000000000000000000000000000000000000000081526004016103e290610676565b60405180910390fd5b60016000806101000a81548160ff021916908360028111156104105761040f6104af565b5b0217905550565b600073ffffffffffffffffffffffffffffffffffffffff82169050919050565b600061044282610417565b9050919050565b61045281610437565b82525050565b600060208201905061046d6000830184610449565b92915050565b600061047e82610417565b9050919050565b61048e81610473565b82525050565b60006020820190506104a96000830184610485565b92915050565b7f4e487b7100000000000000000000000000000000000000000000000000000000600052602160045260246000fd5b600381106104ef576104ee6104af565b5b50565b6000819050610500826104de565b919050565b6000610510826104f2565b9050919050565b61052081610505565b82525050565b600060208201905061053b6000830184610517565b92915050565b600082825260208201905092915050565b7f4f6e6c792062757965722063616e2063616c6c2074686973206d6574686f6400600082015250565b6000610588601f83610541565b915061059382610552565b602082019050919050565b600060208201905081810360008301526105b78161057b565b9050919050565b7f43616e6e6f7420636f6e6669726d2064656c6976657279000000000000000000600082015250565b60006105f4601783610541565b91506105ff826105be565b602082019050919050565b60006020820190508181036000830152610623816105e7565b9050919050565b7f416c726561647920706169640000000000000000000000000000000000000000600082015250565b6000610660600c83610541565b915061066b8261062a565b602082019050919050565b6000602082019050818103600083015261068f81610653565b905091905056fea2646970667358221220c1f6b58ebf64858ccc8926014127242acfb7d3a7ca0cde4a9a4e6579f3a44a7e64736f6c63430008180033a26469706673582212205cb854c118de980612836d848d5cd13a15a4dee8aafd6ae3aa929430540647a264736f6c63430008180033",
  "devdoc": {
    "kind": "dev",
    "methods": {},
    "version": 1
  },
  "userdoc": {
    "kind": "user",
    "methods": {},
    "version": 1
  },
  "storageLayout": {
    "storage": [
      {
        "astId": 126,
        "contract": "contracts/Item.sol:Item",
        "label": "items",
        "offset": 0,
        "slot": "0",
        "type": "t_mapping(t_address,t_array(t_struct(ItemStruct)120_storage)dyn_storage)"
      },
      {
        "astId": 128,
        "contract": "contracts/Item.sol:Item",
        "label": "itemsCount",
        "offset": 0,
        "slot": "1",
        "type": "t_uint256"
      },
      {
        "astId": 131,
        "contract": "contracts/Item.sol:Item",
        "label": "sellers",
        "offset": 0,
        "slot": "2",
        "type": "t_array(t_address)dyn_storage"
      }
    ],
    "types": {
      "t_address": {
        "encoding": "inplace",
        "label": "address",
        "numberOfBytes": "20"
      },
      "t_array(t_address)dyn_storage": {
        "base": "t_address",
        "encoding": "dynamic_array",
        "label": "address[]",
        "numberOfBytes": "32"
      },
      "t_array(t_struct(ItemStruct)120_storage)dyn_storage": {
        "base": "t_struct(ItemStruct)120_storage",
        "encoding": "dynamic_array",
        "label": "struct Item.ItemStruct[]",
        "numberOfBytes": "32"
      },
      "t_bool": {
        "encoding": "inplace",
        "label": "bool",
        "numberOfBytes": "1"
      },
      "t_contract(Escrow)94": {
        "encoding": "inplace",
        "label": "contract Escrow",
        "numberOfBytes": "20"
      },
      "t_mapping(t_address,t_array(t_struct(ItemStruct)120_storage)dyn_storage)": {
        "encoding": "mapping",
        "key": "t_address",
        "label": "mapping(address => struct Item.ItemStruct[])",
        "numberOfBytes": "32",
        "value": "t_array(t_struct(ItemStruct)120_storage)dyn_storage"
      },
      "t_string_storage": {
        "encoding": "bytes",
        "label": "string",
        "numberOfBytes": "32"
      },
      "t_struct(ItemStruct)120_storage": {
        "encoding": "inplace",
        "label": "struct Item.ItemStruct",
        "members": [
          {
            "astId": 100,
            "contract": "contracts/Item.sol:Item",
            "label": "itemId",
            "offset": 0,
            "slot": "0",
            "type": "t_uint256"
          },
          {
            "astId": 102,
            "contract": "contracts/Item.sol:Item",
            "label": "title",
            "offset": 0,
            "slot": "1",
            "type": "t_string_storage"
          },
          {
            "astId": 104,
            "contract": "contracts/Item.sol:Item",
            "label": "description",
            "offset": 0,
            "slot": "2",
            "type": "t_string_storage"
          },
          {
            "astId": 106,
            "contract": "contracts/Item.sol:Item",
            "label": "price",
            "offset": 0,
            "slot": "3",
            "type": "t_uint256"
          },
          {
            "astId": 108,
            "contract": "contracts/Item.sol:Item",
            "label": "image",
            "offset": 0,
            "slot": "4",
            "type": "t_string_storage"
          },
          {
            "astId": 110,
            "contract": "contracts/Item.sol:Item",
            "label": "createdAt",
            "offset": 0,
            "slot": "5",
            "type": "t_uint256"
          },
          {
            "astId": 112,
            "contract": "contracts/Item.sol:Item",
            "label": "buyer",
            "offset": 0,
            "slot": "6",
            "type": "t_address"
          },
          {
            "astId": 114,
            "contract": "contracts/Item.sol:Item",
            "label": "hasBuyer",
            "offset": 20,
            "slot": "6",
            "type": "t_bool"
          },
          {
            "astId": 117,
            "contract": "contracts/Item.sol:Item",
            "label": "escrow",
            "offset": 0,
            "slot": "7",
            "type": "t_contract(Escrow)94"
          },
          {
            "astId": 119,
            "contract": "contracts/Item.sol:Item",
            "label": "seller",
            "offset": 0,
            "slot": "8",
            "type": "t_address"
          }
        ],
        "numberOfBytes": "288"
      },
      "t_uint256": {
        "encoding": "inplace",
        "label": "uint256",
        "numberOfBytes": "32"
      }
    }
  }
}