{
  "address": "0xF5c7Fb8596AF6c51B272989B06049a0Bb87F93e3",
  "abi": [
    {
      "inputs": [
        {
          "internalType": "string",
          "name": "_title",
          "type": "string"
        },
        {
          "internalType": "string",
          "name": "_description",
          "type": "string"
        },
        {
          "internalType": "uint256",
          "name": "_price",
          "type": "uint256"
        },
        {
          "internalType": "string",
          "name": "_image",
          "type": "string"
        }
      ],
      "name": "addItem",
      "outputs": [],
      "stateMutability": "nonpayable",
      "type": "function"
    },
    {
      "inputs": [
        {
          "internalType": "uint256",
          "name": "_itemId",
          "type": "uint256"
        }
      ],
      "name": "deleteItem",
      "outputs": [],
      "stateMutability": "nonpayable",
      "type": "function"
    },
    {
      "inputs": [
        {
          "internalType": "uint256",
          "name": "_itemId",
          "type": "uint256"
        },
        {
          "internalType": "string",
          "name": "_title",
          "type": "string"
        },
        {
          "internalType": "string",
          "name": "_description",
          "type": "string"
        },
        {
          "internalType": "uint256",
          "name": "_price",
          "type": "uint256"
        },
        {
          "internalType": "string",
          "name": "_image",
          "type": "string"
        }
      ],
      "name": "editItem",
      "outputs": [],
      "stateMutability": "nonpayable",
      "type": "function"
    },
    {
      "inputs": [],
      "name": "itemsCount",
      "outputs": [
        {
          "internalType": "uint256",
          "name": "",
          "type": "uint256"
        }
      ],
      "stateMutability": "view",
      "type": "function"
    },
    {
      "inputs": [],
      "name": "retrieveUserItems",
      "outputs": [
        {
          "components": [
            {
              "internalType": "uint256",
              "name": "itemId",
              "type": "uint256"
            },
            {
              "internalType": "string",
              "name": "title",
              "type": "string"
            },
            {
              "internalType": "string",
              "name": "description",
              "type": "string"
            },
            {
              "internalType": "uint256",
              "name": "price",
              "type": "uint256"
            },
            {
              "internalType": "string",
              "name": "image",
              "type": "string"
            },
            {
              "internalType": "uint256",
              "name": "createdAt",
              "type": "uint256"
            },
            {
              "internalType": "address",
              "name": "buyer",
              "type": "address"
            },
            {
              "internalType": "bool",
              "name": "hasBuyer",
              "type": "bool"
            },
            {
              "internalType": "contract Escrow",
              "name": "escrow",
              "type": "address"
            }
          ],
          "internalType": "struct Item.ItemStruct[]",
          "name": "",
          "type": "tuple[]"
        }
      ],
      "stateMutability": "view",
      "type": "function"
    }
  ],
  "transactionHash": "0xdfa320065f5ad37188fa299d69c3f082d2535d56887cdde8cf5fdb4a8a9cad4c",
  "args": [],
  "numDeployments": 2,
  "solcInputHash": "73f1bfee4f1f2866f6a0bf2e96696edb",
  "bytecode": "0x608060405234801561001057600080fd5b50611a49806100206000396000f3fe608060405234801561001057600080fd5b50600436106100575760003560e01c80630461459a1461005c57806313df81d614610078578063654fc833146100945780639ab7e23b146100b0578063e2c03ace146100ce575b600080fd5b61007660048036038101906100719190610f6e565b6100ec565b005b610092600480360381019061008d919061103d565b61026a565b005b6100ae60048036038101906100a991906110f8565b610520565b005b6100b8610a44565b6040516100c59190611403565b60405180910390f35b6100d6610d7b565b6040516100e39190611434565b60405180910390f35b6000803373ffffffffffffffffffffffffffffffffffffffff1673ffffffffffffffffffffffffffffffffffffffff16815260200190815260200160002080549050851061016f576040517f08c379a0000000000000000000000000000000000000000000000000000000008152600401610166906114ac565b60405180910390fd5b60008060003373ffffffffffffffffffffffffffffffffffffffff1673ffffffffffffffffffffffffffffffffffffffff16815260200190815260200160002086815481106101c1576101c06114cc565b5b906000526020600020906008020190508060060160149054906101000a900460ff1615610223576040517f08c379a000000000000000000000000000000000000000000000000000000000815260040161021a90611547565b60405180910390fd5b848160010190816102349190611769565b50838160020190816102469190611769565b50828160030181905550818160040190816102619190611769565b50505050505050565b60008060003373ffffffffffffffffffffffffffffffffffffffff1673ffffffffffffffffffffffffffffffffffffffff1681526020019081526020016000208054905003610317576002339080600181540180825580915050600190039060005260206000200160009091909190916101000a81548173ffffffffffffffffffffffffffffffffffffffff021916908373ffffffffffffffffffffffffffffffffffffffff1602179055505b6001600081548092919061032a9061186a565b91905055506000803373ffffffffffffffffffffffffffffffffffffffff1673ffffffffffffffffffffffffffffffffffffffff1681526020019081526020016000206040518061012001604052806001548152602001868152602001858152602001848152602001838152602001428152602001600073ffffffffffffffffffffffffffffffffffffffff168152602001600015158152602001600073ffffffffffffffffffffffffffffffffffffffff1681525090806001815401808255809150506001900390600052602060002090600802016000909190919091506000820151816000015560208201518160010190816104289190611769565b50604082015181600201908161043e9190611769565b5060608201518160030155608082015181600401908161045e9190611769565b5060a0820151816005015560c08201518160060160006101000a81548173ffffffffffffffffffffffffffffffffffffffff021916908373ffffffffffffffffffffffffffffffffffffffff16021790555060e08201518160060160146101000a81548160ff0219169083151502179055506101008201518160070160006101000a81548173ffffffffffffffffffffffffffffffffffffffff021916908373ffffffffffffffffffffffffffffffffffffffff160217905550505050505050565b6000803373ffffffffffffffffffffffffffffffffffffffff1673ffffffffffffffffffffffffffffffffffffffff1681526020019081526020016000208054905081106105a3576040517f08c379a000000000000000000000000000000000000000000000000000000000815260040161059a906114ac565b60405180910390fd5b60008060003373ffffffffffffffffffffffffffffffffffffffff1673ffffffffffffffffffffffffffffffffffffffff16815260200190815260200160002082815481106105f5576105f46114cc565b5b906000526020600020906008020190508060060160149054906101000a900460ff1615610657576040517f08c379a000000000000000000000000000000000000000000000000000000000815260040161064e90611547565b60405180910390fd5b600060016000803373ffffffffffffffffffffffffffffffffffffffff1673ffffffffffffffffffffffffffffffffffffffff168152602001908152602001600020805490506106a791906118b2565b905080831461092e576000803373ffffffffffffffffffffffffffffffffffffffff1673ffffffffffffffffffffffffffffffffffffffff1681526020019081526020016000208181548110610700576106ff6114cc565b5b90600052602060002090600802016000803373ffffffffffffffffffffffffffffffffffffffff1673ffffffffffffffffffffffffffffffffffffffff168152602001908152602001600020848154811061075e5761075d6114cc565b5b9060005260206000209060080201600082015481600001556001820181600101908161078a91906118fc565b506002820181600201908161079f91906118fc565b5060038201548160030155600482018160040190816107be91906118fc565b50600582015481600501556006820160009054906101000a900473ffffffffffffffffffffffffffffffffffffffff168160060160006101000a81548173ffffffffffffffffffffffffffffffffffffffff021916908373ffffffffffffffffffffffffffffffffffffffff1602179055506006820160149054906101000a900460ff168160060160146101000a81548160ff0219169083151502179055506007820160009054906101000a900473ffffffffffffffffffffffffffffffffffffffff168160070160006101000a81548173ffffffffffffffffffffffffffffffffffffffff021916908373ffffffffffffffffffffffffffffffffffffffff160217905550905050826000803373ffffffffffffffffffffffffffffffffffffffff1673ffffffffffffffffffffffffffffffffffffffff1681526020019081526020016000208481548110610918576109176114cc565b5b9060005260206000209060080201600001819055505b6000803373ffffffffffffffffffffffffffffffffffffffff1673ffffffffffffffffffffffffffffffffffffffff16815260200190815260200160002080548061097c5761097b6119e4565b5b60019003818190600052602060002090600802016000808201600090556001820160006109a99190610d81565b6002820160006109b99190610d81565b60038201600090556004820160006109d19190610d81565b60058201600090556006820160006101000a81549073ffffffffffffffffffffffffffffffffffffffff02191690556006820160146101000a81549060ff02191690556007820160006101000a81549073ffffffffffffffffffffffffffffffffffffffff021916905550509055505050565b60606000803373ffffffffffffffffffffffffffffffffffffffff1673ffffffffffffffffffffffffffffffffffffffff168152602001908152602001600020805480602002602001604051908101604052809291908181526020016000905b82821015610d7257838290600052602060002090600802016040518061012001604052908160008201548152602001600182018054610ae290611596565b80601f0160208091040260200160405190810160405280929190818152602001828054610b0e90611596565b8015610b5b5780601f10610b3057610100808354040283529160200191610b5b565b820191906000526020600020905b815481529060010190602001808311610b3e57829003601f168201915b50505050508152602001600282018054610b7490611596565b80601f0160208091040260200160405190810160405280929190818152602001828054610ba090611596565b8015610bed5780601f10610bc257610100808354040283529160200191610bed565b820191906000526020600020905b815481529060010190602001808311610bd057829003601f168201915b5050505050815260200160038201548152602001600482018054610c1090611596565b80601f0160208091040260200160405190810160405280929190818152602001828054610c3c90611596565b8015610c895780601f10610c5e57610100808354040283529160200191610c89565b820191906000526020600020905b815481529060010190602001808311610c6c57829003601f168201915b50505050508152602001600582015481526020016006820160009054906101000a900473ffffffffffffffffffffffffffffffffffffffff1673ffffffffffffffffffffffffffffffffffffffff1673ffffffffffffffffffffffffffffffffffffffff1681526020016006820160149054906101000a900460ff161515151581526020016007820160009054906101000a900473ffffffffffffffffffffffffffffffffffffffff1673ffffffffffffffffffffffffffffffffffffffff1673ffffffffffffffffffffffffffffffffffffffff168152505081526020019060010190610aa4565b50505050905090565b60015481565b508054610d8d90611596565b6000825580601f10610d9f5750610dbe565b601f016020900490600052602060002090810190610dbd9190610dc1565b5b50565b5b80821115610dda576000816000905550600101610dc2565b5090565b6000604051905090565b600080fd5b600080fd5b6000819050919050565b610e0581610df2565b8114610e1057600080fd5b50565b600081359050610e2281610dfc565b92915050565b600080fd5b600080fd5b6000601f19601f8301169050919050565b7f4e487b7100000000000000000000000000000000000000000000000000000000600052604160045260246000fd5b610e7b82610e32565b810181811067ffffffffffffffff82111715610e9a57610e99610e43565b5b80604052505050565b6000610ead610dde565b9050610eb98282610e72565b919050565b600067ffffffffffffffff821115610ed957610ed8610e43565b5b610ee282610e32565b9050602081019050919050565b82818337600083830152505050565b6000610f11610f0c84610ebe565b610ea3565b905082815260208101848484011115610f2d57610f2c610e2d565b5b610f38848285610eef565b509392505050565b600082601f830112610f5557610f54610e28565b5b8135610f65848260208601610efe565b91505092915050565b600080600080600060a08688031215610f8a57610f89610de8565b5b6000610f9888828901610e13565b955050602086013567ffffffffffffffff811115610fb957610fb8610ded565b5b610fc588828901610f40565b945050604086013567ffffffffffffffff811115610fe657610fe5610ded565b5b610ff288828901610f40565b935050606061100388828901610e13565b925050608086013567ffffffffffffffff81111561102457611023610ded565b5b61103088828901610f40565b9150509295509295909350565b6000806000806080858703121561105757611056610de8565b5b600085013567ffffffffffffffff81111561107557611074610ded565b5b61108187828801610f40565b945050602085013567ffffffffffffffff8111156110a2576110a1610ded565b5b6110ae87828801610f40565b93505060406110bf87828801610e13565b925050606085013567ffffffffffffffff8111156110e0576110df610ded565b5b6110ec87828801610f40565b91505092959194509250565b60006020828403121561110e5761110d610de8565b5b600061111c84828501610e13565b91505092915050565b600081519050919050565b600082825260208201905092915050565b6000819050602082019050919050565b61115a81610df2565b82525050565b600081519050919050565b600082825260208201905092915050565b60005b8381101561119a57808201518184015260208101905061117f565b60008484015250505050565b60006111b182611160565b6111bb818561116b565b93506111cb81856020860161117c565b6111d481610e32565b840191505092915050565b600073ffffffffffffffffffffffffffffffffffffffff82169050919050565b600061120a826111df565b9050919050565b61121a816111ff565b82525050565b60008115159050919050565b61123581611220565b82525050565b6000819050919050565b600061126061125b611256846111df565b61123b565b6111df565b9050919050565b600061127282611245565b9050919050565b600061128482611267565b9050919050565b61129481611279565b82525050565b6000610120830160008301516112b36000860182611151565b50602083015184820360208601526112cb82826111a6565b915050604083015184820360408601526112e582826111a6565b91505060608301516112fa6060860182611151565b506080830151848203608086015261131282826111a6565b91505060a083015161132760a0860182611151565b5060c083015161133a60c0860182611211565b5060e083015161134d60e086018261122c565b5061010083015161136261010086018261128b565b508091505092915050565b6000611379838361129a565b905092915050565b6000602082019050919050565b600061139982611125565b6113a38185611130565b9350836020820285016113b585611141565b8060005b858110156113f157848403895281516113d2858261136d565b94506113dd83611381565b925060208a019950506001810190506113b9565b50829750879550505050505092915050565b6000602082019050818103600083015261141d818461138e565b905092915050565b61142e81610df2565b82525050565b60006020820190506114496000830184611425565b92915050565b600082825260208201905092915050565b7f4974656d20646f6573206e6f7420657869737400000000000000000000000000600082015250565b600061149660138361144f565b91506114a182611460565b602082019050919050565b600060208201905081810360008301526114c581611489565b9050919050565b7f4e487b7100000000000000000000000000000000000000000000000000000000600052603260045260246000fd5b7f4974656d20616c726561647920736f6c64000000000000000000000000000000600082015250565b600061153160118361144f565b915061153c826114fb565b602082019050919050565b6000602082019050818103600083015261156081611524565b9050919050565b7f4e487b7100000000000000000000000000000000000000000000000000000000600052602260045260246000fd5b600060028204905060018216806115ae57607f821691505b6020821081036115c1576115c0611567565b5b50919050565b60008190508160005260206000209050919050565b60006020601f8301049050919050565b600082821b905092915050565b6000600883026116297fffffffffffffffffffffffffffffffffffffffffffffffffffffffffffffffff826115ec565b61163386836115ec565b95508019841693508086168417925050509392505050565b600061166661166161165c84610df2565b61123b565b610df2565b9050919050565b6000819050919050565b6116808361164b565b61169461168c8261166d565b8484546115f9565b825550505050565b600090565b6116a961169c565b6116b4818484611677565b505050565b5b818110156116d8576116cd6000826116a1565b6001810190506116ba565b5050565b601f82111561171d576116ee816115c7565b6116f7846115dc565b81016020851015611706578190505b61171a611712856115dc565b8301826116b9565b50505b505050565b600082821c905092915050565b600061174060001984600802611722565b1980831691505092915050565b6000611759838361172f565b9150826002028217905092915050565b61177282611160565b67ffffffffffffffff81111561178b5761178a610e43565b5b6117958254611596565b6117a08282856116dc565b600060209050601f8311600181146117d357600084156117c1578287015190505b6117cb858261174d565b865550611833565b601f1984166117e1866115c7565b60005b82811015611809578489015182556001820191506020850194506020810190506117e4565b868310156118265784890151611822601f89168261172f565b8355505b6001600288020188555050505b505050505050565b7f4e487b7100000000000000000000000000000000000000000000000000000000600052601160045260246000fd5b600061187582610df2565b91507fffffffffffffffffffffffffffffffffffffffffffffffffffffffffffffffff82036118a7576118a661183b565b5b600182019050919050565b60006118bd82610df2565b91506118c883610df2565b92508282039050818111156118e0576118df61183b565b5b92915050565b6000815490506118f581611596565b9050919050565b81810361190a5750506119e2565b611913826118e6565b67ffffffffffffffff81111561192c5761192b610e43565b5b6119368254611596565b6119418282856116dc565b6000601f831160018114611970576000841561195e578287015490505b611968858261174d565b8655506119db565b601f19841661197e876115c7565b9650611989866115c7565b60005b828110156119b15784890154825560018201915060018501945060208101905061198c565b868310156119ce57848901546119ca601f89168261172f565b8355505b6001600288020188555050505b5050505050505b565b7f4e487b7100000000000000000000000000000000000000000000000000000000600052603160045260246000fdfea2646970667358221220c5b4f0e8c1b96f8f9488183cb50e4cc2509b8f88907e1096d1309b2e300b025a64736f6c63430008180033",
  "devdoc": {
    "kind": "dev",
    "methods": {},
    "version": 1
  },
  "userdoc": {
    "kind": "user",
    "methods": {},
    "version": 1
  },
  "storageLayout": {
    "storage": [
      {
        "astId": 171,
        "contract": "contracts/Item.sol:Item",
        "label": "items",
        "offset": 0,
        "slot": "0",
        "type": "t_mapping(t_address,t_array(t_struct(ItemStruct)165_storage)dyn_storage)"
      },
      {
        "astId": 173,
        "contract": "contracts/Item.sol:Item",
        "label": "itemsCount",
        "offset": 0,
        "slot": "1",
        "type": "t_uint256"
      },
      {
        "astId": 176,
        "contract": "contracts/Item.sol:Item",
        "label": "sellers",
        "offset": 0,
        "slot": "2",
        "type": "t_array(t_address)dyn_storage"
      }
    ],
    "types": {
      "t_address": {
        "encoding": "inplace",
        "label": "address",
        "numberOfBytes": "20"
      },
      "t_array(t_address)dyn_storage": {
        "base": "t_address",
        "encoding": "dynamic_array",
        "label": "address[]",
        "numberOfBytes": "32"
      },
      "t_array(t_struct(ItemStruct)165_storage)dyn_storage": {
        "base": "t_struct(ItemStruct)165_storage",
        "encoding": "dynamic_array",
        "label": "struct Item.ItemStruct[]",
        "numberOfBytes": "32"
      },
      "t_bool": {
        "encoding": "inplace",
        "label": "bool",
        "numberOfBytes": "1"
      },
      "t_contract(Escrow)141": {
        "encoding": "inplace",
        "label": "contract Escrow",
        "numberOfBytes": "20"
      },
      "t_mapping(t_address,t_array(t_struct(ItemStruct)165_storage)dyn_storage)": {
        "encoding": "mapping",
        "key": "t_address",
        "label": "mapping(address => struct Item.ItemStruct[])",
        "numberOfBytes": "32",
        "value": "t_array(t_struct(ItemStruct)165_storage)dyn_storage"
      },
      "t_string_storage": {
        "encoding": "bytes",
        "label": "string",
        "numberOfBytes": "32"
      },
      "t_struct(ItemStruct)165_storage": {
        "encoding": "inplace",
        "label": "struct Item.ItemStruct",
        "members": [
          {
            "astId": 147,
            "contract": "contracts/Item.sol:Item",
            "label": "itemId",
            "offset": 0,
            "slot": "0",
            "type": "t_uint256"
          },
          {
            "astId": 149,
            "contract": "contracts/Item.sol:Item",
            "label": "title",
            "offset": 0,
            "slot": "1",
            "type": "t_string_storage"
          },
          {
            "astId": 151,
            "contract": "contracts/Item.sol:Item",
            "label": "description",
            "offset": 0,
            "slot": "2",
            "type": "t_string_storage"
          },
          {
            "astId": 153,
            "contract": "contracts/Item.sol:Item",
            "label": "price",
            "offset": 0,
            "slot": "3",
            "type": "t_uint256"
          },
          {
            "astId": 155,
            "contract": "contracts/Item.sol:Item",
            "label": "image",
            "offset": 0,
            "slot": "4",
            "type": "t_string_storage"
          },
          {
            "astId": 157,
            "contract": "contracts/Item.sol:Item",
            "label": "createdAt",
            "offset": 0,
            "slot": "5",
            "type": "t_uint256"
          },
          {
            "astId": 159,
            "contract": "contracts/Item.sol:Item",
            "label": "buyer",
            "offset": 0,
            "slot": "6",
            "type": "t_address"
          },
          {
            "astId": 161,
            "contract": "contracts/Item.sol:Item",
            "label": "hasBuyer",
            "offset": 20,
            "slot": "6",
            "type": "t_bool"
          },
          {
            "astId": 164,
            "contract": "contracts/Item.sol:Item",
            "label": "escrow",
            "offset": 0,
            "slot": "7",
            "type": "t_contract(Escrow)141"
          }
        ],
        "numberOfBytes": "256"
      },
      "t_uint256": {
        "encoding": "inplace",
        "label": "uint256",
        "numberOfBytes": "32"
      }
    }
  }
}