{
  "address": "0x61478B70334D1450c9080811E17852D7477b644d",
  "abi": [
    {
      "inputs": [
        {
          "internalType": "string",
          "name": "_title",
          "type": "string"
        },
        {
          "internalType": "string",
          "name": "_description",
          "type": "string"
        },
        {
          "internalType": "uint256",
          "name": "_price",
          "type": "uint256"
        },
        {
          "internalType": "string",
          "name": "_image",
          "type": "string"
        }
      ],
      "name": "addItem",
      "outputs": [],
      "stateMutability": "nonpayable",
      "type": "function"
    },
    {
      "inputs": [],
      "name": "browseItems",
      "outputs": [
        {
          "components": [
            {
              "internalType": "uint256",
              "name": "itemId",
              "type": "uint256"
            },
            {
              "internalType": "string",
              "name": "title",
              "type": "string"
            },
            {
              "internalType": "string",
              "name": "description",
              "type": "string"
            },
            {
              "internalType": "uint256",
              "name": "price",
              "type": "uint256"
            },
            {
              "internalType": "string",
              "name": "image",
              "type": "string"
            },
            {
              "internalType": "uint256",
              "name": "createdAt",
              "type": "uint256"
            },
            {
              "internalType": "address",
              "name": "buyer",
              "type": "address"
            },
            {
              "internalType": "bool",
              "name": "hasBuyer",
              "type": "bool"
            },
            {
              "internalType": "contract Escrow",
              "name": "escrow",
              "type": "address"
            },
            {
              "internalType": "address",
              "name": "seller",
              "type": "address"
            }
          ],
          "internalType": "struct Item.ItemStruct[]",
          "name": "",
          "type": "tuple[]"
        }
      ],
      "stateMutability": "view",
      "type": "function"
    },
    {
      "inputs": [
        {
          "internalType": "uint256",
          "name": "_itemId",
          "type": "uint256"
        }
      ],
      "name": "deleteItem",
      "outputs": [],
      "stateMutability": "nonpayable",
      "type": "function"
    },
    {
      "inputs": [
        {
          "internalType": "uint256",
          "name": "_itemId",
          "type": "uint256"
        },
        {
          "internalType": "string",
          "name": "_title",
          "type": "string"
        },
        {
          "internalType": "string",
          "name": "_description",
          "type": "string"
        },
        {
          "internalType": "uint256",
          "name": "_price",
          "type": "uint256"
        },
        {
          "internalType": "string",
          "name": "_image",
          "type": "string"
        }
      ],
      "name": "editItem",
      "outputs": [],
      "stateMutability": "nonpayable",
      "type": "function"
    },
    {
      "inputs": [],
      "name": "itemsCount",
      "outputs": [
        {
          "internalType": "uint256",
          "name": "",
          "type": "uint256"
        }
      ],
      "stateMutability": "view",
      "type": "function"
    },
    {
      "inputs": [],
      "name": "myPurchases",
      "outputs": [
        {
          "components": [
            {
              "internalType": "uint256",
              "name": "itemId",
              "type": "uint256"
            },
            {
              "internalType": "string",
              "name": "title",
              "type": "string"
            },
            {
              "internalType": "string",
              "name": "description",
              "type": "string"
            },
            {
              "internalType": "uint256",
              "name": "price",
              "type": "uint256"
            },
            {
              "internalType": "string",
              "name": "image",
              "type": "string"
            },
            {
              "internalType": "uint256",
              "name": "createdAt",
              "type": "uint256"
            },
            {
              "internalType": "address",
              "name": "buyer",
              "type": "address"
            },
            {
              "internalType": "bool",
              "name": "hasBuyer",
              "type": "bool"
            },
            {
              "internalType": "contract Escrow",
              "name": "escrow",
              "type": "address"
            },
            {
              "internalType": "address",
              "name": "seller",
              "type": "address"
            }
          ],
          "internalType": "struct Item.ItemStruct[]",
          "name": "",
          "type": "tuple[]"
        }
      ],
      "stateMutability": "view",
      "type": "function"
    },
    {
      "inputs": [
        {
          "internalType": "uint256",
          "name": "_itemId",
          "type": "uint256"
        },
        {
          "internalType": "address",
          "name": "_seller",
          "type": "address"
        }
      ],
      "name": "purchaseItem",
      "outputs": [],
      "stateMutability": "payable",
      "type": "function"
    },
    {
      "inputs": [],
      "name": "retrieveUserItems",
      "outputs": [
        {
          "components": [
            {
              "internalType": "uint256",
              "name": "itemId",
              "type": "uint256"
            },
            {
              "internalType": "string",
              "name": "title",
              "type": "string"
            },
            {
              "internalType": "string",
              "name": "description",
              "type": "string"
            },
            {
              "internalType": "uint256",
              "name": "price",
              "type": "uint256"
            },
            {
              "internalType": "string",
              "name": "image",
              "type": "string"
            },
            {
              "internalType": "uint256",
              "name": "createdAt",
              "type": "uint256"
            },
            {
              "internalType": "address",
              "name": "buyer",
              "type": "address"
            },
            {
              "internalType": "bool",
              "name": "hasBuyer",
              "type": "bool"
            },
            {
              "internalType": "contract Escrow",
              "name": "escrow",
              "type": "address"
            },
            {
              "internalType": "address",
              "name": "seller",
              "type": "address"
            }
          ],
          "internalType": "struct Item.ItemStruct[]",
          "name": "",
          "type": "tuple[]"
        }
      ],
      "stateMutability": "view",
      "type": "function"
    }
  ],
  "transactionHash": "0xe95614a2b11f58e244084ec6dd4e07b7a4b454798baf5c3a47c32074efa63b94",
  "args": [],
  "numDeployments": 25,
  "solcInputHash": "80450a76f9e6a4785d5da6478f8fffbb",
  "bytecode": "0x608060405234801561001057600080fd5b506150ba806100206000396000f3fe608060405260043610620000865760003560e01c80638af8a98611620000555780638af8a98614620001355780639ab7e23b1462000165578063dbc376701462000195578063e2c03ace14620001c55762000086565b80630461459a146200008b57806313df81d614620000b9578063654fc83314620000e75780637bfe9efd1462000115575b600080fd5b3480156200009857600080fd5b50620000b76004803603810190620000b1919062002724565b620001f5565b005b348015620000c657600080fd5b50620000e56004803603810190620000df919062002809565b6200047a565b005b348015620000f457600080fd5b506200011360048036038101906200010d9190620028d8565b620007de565b005b6200013360048036038101906200012d91906200296f565b62000ca3565b005b3480156200014257600080fd5b506200014d620011c8565b6040516200015c919062002cb5565b60405180910390f35b3480156200017257600080fd5b506200017d6200182d565b6040516200018c919062002cb5565b60405180910390f35b348015620001a257600080fd5b50620001ad62001bd4565b604051620001bc919062002cb5565b60405180910390f35b348015620001d257600080fd5b50620001dd620022c9565b604051620001ec919062002cea565b60405180910390f35b6000851180156200020857506001548511155b6200024a576040517f08c379a0000000000000000000000000000000000000000000000000000000008152600401620002419062002d68565b60405180910390fd5b60008060003373ffffffffffffffffffffffffffffffffffffffff1673ffffffffffffffffffffffffffffffffffffffff16815260200190815260200160002090506000805b82805490508110156200042d5787838281548110620002b457620002b362002d8a565b5b906000526020600020906009020160000154036200041f5760019150828181548110620002e657620002e562002d8a565b5b906000526020600020906009020160060160149054906101000a900460ff161562000348576040517f08c379a00000000000000000000000000000000000000000000000000000000081526004016200033f9062002e09565b60405180910390fd5b868382815481106200035f576200035e62002d8a565b5b906000526020600020906009020160010190816200037e919062003057565b508583828154811062000396576200039562002d8a565b5b90600052602060002090600902016002019081620003b5919062003057565b5084838281548110620003cd57620003cc62002d8a565b5b90600052602060002090600902016003018190555083838281548110620003f957620003f862002d8a565b5b9060005260206000209060090201600401908162000418919062003057565b506200042d565b808060010191505062000290565b508062000471576040517f08c379a000000000000000000000000000000000000000000000000000000000815260040162000468906200318e565b60405180910390fd5b50505050505050565b620004bb6040518060400160405280600c81526020017f50726963652069733a202573000000000000000000000000000000000000000081525083620022cf565b60008060003373ffffffffffffffffffffffffffffffffffffffff1673ffffffffffffffffffffffffffffffffffffffff168152602001908152602001600020805490500362000569576002339080600181540180825580915050600190039060005260206000200160009091909190916101000a81548173ffffffffffffffffffffffffffffffffffffffff021916908373ffffffffffffffffffffffffffffffffffffffff1602179055505b600160008154809291906200057e90620031df565b91905055506000803373ffffffffffffffffffffffffffffffffffffffff1673ffffffffffffffffffffffffffffffffffffffff1681526020019081526020016000206040518061014001604052806001548152602001868152602001858152602001848152602001838152602001428152602001600073ffffffffffffffffffffffffffffffffffffffff168152602001600015158152602001600073ffffffffffffffffffffffffffffffffffffffff1681526020013373ffffffffffffffffffffffffffffffffffffffff1681525090806001815401808255809150506001900390600052602060002090600902016000909190919091506000820151816000015560208201518160010190816200069a919062003057565b506040820151816002019081620006b2919062003057565b50606082015181600301556080820151816004019081620006d4919062003057565b5060a0820151816005015560c08201518160060160006101000a81548173ffffffffffffffffffffffffffffffffffffffff021916908373ffffffffffffffffffffffffffffffffffffffff16021790555060e08201518160060160146101000a81548160ff0219169083151502179055506101008201518160070160006101000a81548173ffffffffffffffffffffffffffffffffffffffff021916908373ffffffffffffffffffffffffffffffffffffffff1602179055506101208201518160080160006101000a81548173ffffffffffffffffffffffffffffffffffffffff021916908373ffffffffffffffffffffffffffffffffffffffff160217905550505050505050565b60008060003373ffffffffffffffffffffffffffffffffffffffff1673ffffffffffffffffffffffffffffffffffffffff168152602001908152602001600020905060008080600090505b8380549050811015620008f857848482815481106200084d576200084c62002d8a565b5b90600052602060002090600902016000015403620008ea578381815481106200087b576200087a62002d8a565b5b906000526020600020906009020160060160149054906101000a900460ff1615620008dd576040517f08c379a0000000000000000000000000000000000000000000000000000000008152600401620008d49062002e09565b60405180910390fd5b60019250809150620008f8565b808060010191505062000829565b50816200093c576040517f08c379a000000000000000000000000000000000000000000000000000000000815260040162000933906200327c565b60405180910390fd5b6000600184805490506200095191906200329e565b905080821462000b985783818154811062000971576200097062002d8a565b5b906000526020600020906009020184838154811062000995576200099462002d8a565b5b90600052602060002090600902016000820154816000015560018201816001019081620009c39190620032f1565b5060028201816002019081620009da9190620032f1565b506003820154816003015560048201816004019081620009fb9190620032f1565b50600582015481600501556006820160009054906101000a900473ffffffffffffffffffffffffffffffffffffffff168160060160006101000a81548173ffffffffffffffffffffffffffffffffffffffff021916908373ffffffffffffffffffffffffffffffffffffffff1602179055506006820160149054906101000a900460ff168160060160146101000a81548160ff0219169083151502179055506007820160009054906101000a900473ffffffffffffffffffffffffffffffffffffffff168160070160006101000a81548173ffffffffffffffffffffffffffffffffffffffff021916908373ffffffffffffffffffffffffffffffffffffffff1602179055506008820160009054906101000a900473ffffffffffffffffffffffffffffffffffffffff168160080160006101000a81548173ffffffffffffffffffffffffffffffffffffffff021916908373ffffffffffffffffffffffffffffffffffffffff1602179055509050508484838154811062000b825762000b8162002d8a565b5b9060005260206000209060090201600001819055505b8380548062000bac5762000bab620033f2565b5b600190038181906000526020600020906009020160008082016000905560018201600062000bdb91906200245d565b60028201600062000bed91906200245d565b600382016000905560048201600062000c0791906200245d565b60058201600090556006820160006101000a81549073ffffffffffffffffffffffffffffffffffffffff02191690556006820160146101000a81549060ff02191690556007820160006101000a81549073ffffffffffffffffffffffffffffffffffffffff02191690556008820160006101000a81549073ffffffffffffffffffffffffffffffffffffffff0219169055505090555050505050565b60008211801562000cb657506001548211155b62000cf8576040517f08c379a000000000000000000000000000000000000000000000000000000000815260040162000cef9062002d68565b60405180910390fd5b60008060008373ffffffffffffffffffffffffffffffffffffffff1673ffffffffffffffffffffffffffffffffffffffff168152602001908152602001600020905060008080600090505b838054905081101562000d9a578584828154811062000d675762000d6662002d8a565b5b9060005260206000209060090201600001540362000d8c576001925080915062000d9a565b808060010191505062000d43565b508162000dde576040517f08c379a000000000000000000000000000000000000000000000000000000000815260040162000dd59062003471565b60405180910390fd5b82818154811062000df45762000df362002d8a565b5b906000526020600020906009020160060160149054906101000a900460ff161562000e56576040517f08c379a000000000000000000000000000000000000000000000000000000000815260040162000e4d9062002e09565b60405180910390fd5b8373ffffffffffffffffffffffffffffffffffffffff1683828154811062000e835762000e8262002d8a565b5b906000526020600020906009020160080160009054906101000a900473ffffffffffffffffffffffffffffffffffffffff1673ffffffffffffffffffffffffffffffffffffffff161462000f0e576040517f08c379a000000000000000000000000000000000000000000000000000000000815260040162000f0590620034e3565b60405180910390fd5b82818154811062000f245762000f2362002d8a565b5b906000526020600020906009020160030154341462000f7a576040517f08c379a000000000000000000000000000000000000000000000000000000000815260040162000f71906200357b565b60405180910390fd5b600034338660405162000f8d90620024a3565b62000f9a929190620035d3565b6040518091039082f090508015801562000fb8573d6000803e3d6000fd5b5090503384838154811062000fd25762000fd162002d8a565b5b906000526020600020906009020160060160006101000a81548173ffffffffffffffffffffffffffffffffffffffff021916908373ffffffffffffffffffffffffffffffffffffffff160217905550600184838154811062001039576200103862002d8a565b5b906000526020600020906009020160060160146101000a81548160ff0219169083151502179055508084838154811062001078576200107762002d8a565b5b906000526020600020906009020160070160006101000a81548173ffffffffffffffffffffffffffffffffffffffff021916908373ffffffffffffffffffffffffffffffffffffffff160217905550620011c06040518060400160405280601881526020017f4974656d207075726368617365643a202573206279202573000000000000000081525085848154811062001117576200111662002d8a565b5b90600052602060002090600902016001018054620011359062002e5a565b80601f0160208091040260200160405190810160405280929190818152602001828054620011639062002e5a565b8015620011b45780601f106200118857610100808354040283529160200191620011b4565b820191906000526020600020905b8154815290600101906020018083116200119657829003601f168201915b5050505050336200236f565b505050505050565b606060008060005b6002805490508110156200131b57600080600060028481548110620011fa57620011f962002d8a565b5b9060005260206000200160009054906101000a900473ffffffffffffffffffffffffffffffffffffffff1673ffffffffffffffffffffffffffffffffffffffff1673ffffffffffffffffffffffffffffffffffffffff168152602001908152602001600020905060005b81805490508110156200130b573373ffffffffffffffffffffffffffffffffffffffff168282815481106200129e576200129d62002d8a565b5b906000526020600020906009020160060160009054906101000a900473ffffffffffffffffffffffffffffffffffffffff1673ffffffffffffffffffffffffffffffffffffffff1603620012fd578480620012f990620031df565b9550505b808060010191505062001264565b50508080600101915050620011d0565b5060008267ffffffffffffffff8111156200133b576200133a620025dd565b5b6040519080825280602002602001820160405280156200137857816020015b62001364620024b1565b8152602001906001900390816200135a5790505b50905060005b6002805490508110156200182357600080600060028481548110620013a857620013a762002d8a565b5b9060005260206000200160009054906101000a900473ffffffffffffffffffffffffffffffffffffffff1673ffffffffffffffffffffffffffffffffffffffff1673ffffffffffffffffffffffffffffffffffffffff168152602001908152602001600020905060005b818054905081101562001813573373ffffffffffffffffffffffffffffffffffffffff168282815481106200144c576200144b62002d8a565b5b906000526020600020906009020160060160009054906101000a900473ffffffffffffffffffffffffffffffffffffffff1673ffffffffffffffffffffffffffffffffffffffff16036200180557818181548110620014b057620014af62002d8a565b5b90600052602060002090600902016040518061014001604052908160008201548152602001600182018054620014e69062002e5a565b80601f0160208091040260200160405190810160405280929190818152602001828054620015149062002e5a565b8015620015655780601f10620015395761010080835404028352916020019162001565565b820191906000526020600020905b8154815290600101906020018083116200154757829003601f168201915b50505050508152602001600282018054620015809062002e5a565b80601f0160208091040260200160405190810160405280929190818152602001828054620015ae9062002e5a565b8015620015ff5780601f10620015d357610100808354040283529160200191620015ff565b820191906000526020600020905b815481529060010190602001808311620015e157829003601f168201915b5050505050815260200160038201548152602001600482018054620016249062002e5a565b80601f0160208091040260200160405190810160405280929190818152602001828054620016529062002e5a565b8015620016a35780601f106200167757610100808354040283529160200191620016a3565b820191906000526020600020905b8154815290600101906020018083116200168557829003601f168201915b50505050508152602001600582015481526020016006820160009054906101000a900473ffffffffffffffffffffffffffffffffffffffff1673ffffffffffffffffffffffffffffffffffffffff1673ffffffffffffffffffffffffffffffffffffffff1681526020016006820160149054906101000a900460ff161515151581526020016007820160009054906101000a900473ffffffffffffffffffffffffffffffffffffffff1673ffffffffffffffffffffffffffffffffffffffff1673ffffffffffffffffffffffffffffffffffffffff1681526020016008820160009054906101000a900473ffffffffffffffffffffffffffffffffffffffff1673ffffffffffffffffffffffffffffffffffffffff1673ffffffffffffffffffffffffffffffffffffffff1681525050848681518110620017e957620017e862002d8a565b5b602002602001018190525084806200180190620031df565b9550505b808060010191505062001412565b505080806001019150506200137e565b5080935050505090565b60606000803373ffffffffffffffffffffffffffffffffffffffff1673ffffffffffffffffffffffffffffffffffffffff168152602001908152602001600020805480602002602001604051908101604052809291908181526020016000905b8282101562001bcb57838290600052602060002090600902016040518061014001604052908160008201548152602001600182018054620018ce9062002e5a565b80601f0160208091040260200160405190810160405280929190818152602001828054620018fc9062002e5a565b80156200194d5780601f1062001921576101008083540402835291602001916200194d565b820191906000526020600020905b8154815290600101906020018083116200192f57829003601f168201915b50505050508152602001600282018054620019689062002e5a565b80601f0160208091040260200160405190810160405280929190818152602001828054620019969062002e5a565b8015620019e75780601f10620019bb57610100808354040283529160200191620019e7565b820191906000526020600020905b815481529060010190602001808311620019c957829003601f168201915b505050505081526020016003820154815260200160048201805462001a0c9062002e5a565b80601f016020809104026020016040519081016040528092919081815260200182805462001a3a9062002e5a565b801562001a8b5780601f1062001a5f5761010080835404028352916020019162001a8b565b820191906000526020600020905b81548152906001019060200180831162001a6d57829003601f168201915b50505050508152602001600582015481526020016006820160009054906101000a900473ffffffffffffffffffffffffffffffffffffffff1673ffffffffffffffffffffffffffffffffffffffff1673ffffffffffffffffffffffffffffffffffffffff1681526020016006820160149054906101000a900460ff161515151581526020016007820160009054906101000a900473ffffffffffffffffffffffffffffffffffffffff1673ffffffffffffffffffffffffffffffffffffffff1673ffffffffffffffffffffffffffffffffffffffff1681526020016008820160009054906101000a900473ffffffffffffffffffffffffffffffffffffffff1673ffffffffffffffffffffffffffffffffffffffff1673ffffffffffffffffffffffffffffffffffffffff1681525050815260200190600101906200188d565b50505050905090565b606060008060005b60028054905081101562001d00573373ffffffffffffffffffffffffffffffffffffffff166002828154811062001c185762001c1762002d8a565b5b9060005260206000200160009054906101000a900473ffffffffffffffffffffffffffffffffffffffff1673ffffffffffffffffffffffffffffffffffffffff161462001cf2576000806002838154811062001c795762001c7862002d8a565b5b9060005260206000200160009054906101000a900473ffffffffffffffffffffffffffffffffffffffff1673ffffffffffffffffffffffffffffffffffffffff1673ffffffffffffffffffffffffffffffffffffffff168152602001908152602001600020805490508362001cef919062003600565b92505b808060010191505062001bdc565b5060008267ffffffffffffffff81111562001d205762001d1f620025dd565b5b60405190808252806020026020018201604052801562001d5d57816020015b62001d49620024b1565b81526020019060019003908162001d3f5790505b50905060005b6002805490508110156200223d573373ffffffffffffffffffffffffffffffffffffffff166002828154811062001d9f5762001d9e62002d8a565b5b9060005260206000200160009054906101000a900473ffffffffffffffffffffffffffffffffffffffff1673ffffffffffffffffffffffffffffffffffffffff16146200222f5760008060006002848154811062001e025762001e0162002d8a565b5b9060005260206000200160009054906101000a900473ffffffffffffffffffffffffffffffffffffffff1673ffffffffffffffffffffffffffffffffffffffff1673ffffffffffffffffffffffffffffffffffffffff168152602001908152602001600020905060005b81805490508110156200222c5781818154811062001e8f5762001e8e62002d8a565b5b906000526020600020906009020160060160149054906101000a900460ff166200221e5781818154811062001ec95762001ec862002d8a565b5b9060005260206000209060090201604051806101400160405290816000820154815260200160018201805462001eff9062002e5a565b80601f016020809104026020016040519081016040528092919081815260200182805462001f2d9062002e5a565b801562001f7e5780601f1062001f525761010080835404028352916020019162001f7e565b820191906000526020600020905b81548152906001019060200180831162001f6057829003601f168201915b5050505050815260200160028201805462001f999062002e5a565b80601f016020809104026020016040519081016040528092919081815260200182805462001fc79062002e5a565b8015620020185780601f1062001fec5761010080835404028352916020019162002018565b820191906000526020600020905b81548152906001019060200180831162001ffa57829003601f168201915b50505050508152602001600382015481526020016004820180546200203d9062002e5a565b80601f01602080910402602001604051908101604052809291908181526020018280546200206b9062002e5a565b8015620020bc5780601f106200209057610100808354040283529160200191620020bc565b820191906000526020600020905b8154815290600101906020018083116200209e57829003601f168201915b50505050508152602001600582015481526020016006820160009054906101000a900473ffffffffffffffffffffffffffffffffffffffff1673ffffffffffffffffffffffffffffffffffffffff1673ffffffffffffffffffffffffffffffffffffffff1681526020016006820160149054906101000a900460ff161515151581526020016007820160009054906101000a900473ffffffffffffffffffffffffffffffffffffffff1673ffffffffffffffffffffffffffffffffffffffff1673ffffffffffffffffffffffffffffffffffffffff1681526020016008820160009054906101000a900473ffffffffffffffffffffffffffffffffffffffff1673ffffffffffffffffffffffffffffffffffffffff1673ffffffffffffffffffffffffffffffffffffffff168152505084868151811062002202576200220162002d8a565b5b602002602001018190525084806200221a90620031df565b9550505b808060010191505062001e6c565b50505b808060010191505062001d63565b506200227f6040518060400160405280600d81526020017f546f74616c204974656d733a200000000000000000000000000000000000000081525084620022cf565b620022c06040518060400160405280600f81526020017f43757272656e7420496e6465783a20000000000000000000000000000000000081525083620022cf565b80935050505090565b60015481565b6200236b8282604051602401620022e89291906200367c565b6040516020818303038152906040527fb60e72cc000000000000000000000000000000000000000000000000000000007bffffffffffffffffffffffffffffffffffffffffffffffffffffffff19166020820180517bffffffffffffffffffffffffffffffffffffffffffffffffffffffff838183161783525050505062002412565b5050565b6200240d8383836040516024016200238a93929190620036b0565b6040516020818303038152906040527f95ed0195000000000000000000000000000000000000000000000000000000007bffffffffffffffffffffffffffffffffffffffffffffffffffffffff19166020820180517bffffffffffffffffffffffffffffffffffffffffffffffffffffffff838183161783525050505062002412565b505050565b6200242d81620024256200243062002451565b63ffffffff16565b50565b60006a636f6e736f6c652e6c6f679050600080835160208501845afa505050565b62002548819050919050565b5080546200246b9062002e5a565b6000825580601f106200247f5750620024a0565b601f0160209004906000526020600020908101906200249f919062002554565b5b50565b61195a806200372b83390190565b604051806101400160405280600081526020016060815260200160608152602001600081526020016060815260200160008152602001600073ffffffffffffffffffffffffffffffffffffffff168152602001600015158152602001600073ffffffffffffffffffffffffffffffffffffffff168152602001600073ffffffffffffffffffffffffffffffffffffffff1681525090565b62002552620036fb565b565b5b808211156200256f57600081600090555060010162002555565b5090565b6000604051905090565b600080fd5b600080fd5b6000819050919050565b6200259c8162002587565b8114620025a857600080fd5b50565b600081359050620025bc8162002591565b92915050565b600080fd5b600080fd5b6000601f19601f8301169050919050565b7f4e487b7100000000000000000000000000000000000000000000000000000000600052604160045260246000fd5b6200261782620025cc565b810181811067ffffffffffffffff82111715620026395762002638620025dd565b5b80604052505050565b60006200264e62002573565b90506200265c82826200260c565b919050565b600067ffffffffffffffff8211156200267f576200267e620025dd565b5b6200268a82620025cc565b9050602081019050919050565b82818337600083830152505050565b6000620026bd620026b78462002661565b62002642565b905082815260208101848484011115620026dc57620026db620025c7565b5b620026e984828562002697565b509392505050565b600082601f830112620027095762002708620025c2565b5b81356200271b848260208601620026a6565b91505092915050565b600080600080600060a086880312156200274357620027426200257d565b5b60006200275388828901620025ab565b955050602086013567ffffffffffffffff81111562002777576200277662002582565b5b6200278588828901620026f1565b945050604086013567ffffffffffffffff811115620027a957620027a862002582565b5b620027b788828901620026f1565b9350506060620027ca88828901620025ab565b925050608086013567ffffffffffffffff811115620027ee57620027ed62002582565b5b620027fc88828901620026f1565b9150509295509295909350565b600080600080608085870312156200282657620028256200257d565b5b600085013567ffffffffffffffff81111562002847576200284662002582565b5b6200285587828801620026f1565b945050602085013567ffffffffffffffff81111562002879576200287862002582565b5b6200288787828801620026f1565b93505060406200289a87828801620025ab565b925050606085013567ffffffffffffffff811115620028be57620028bd62002582565b5b620028cc87828801620026f1565b91505092959194509250565b600060208284031215620028f157620028f06200257d565b5b60006200290184828501620025ab565b91505092915050565b600073ffffffffffffffffffffffffffffffffffffffff82169050919050565b600062002937826200290a565b9050919050565b62002949816200292a565b81146200295557600080fd5b50565b60008135905062002969816200293e565b92915050565b600080604083850312156200298957620029886200257d565b5b60006200299985828601620025ab565b9250506020620029ac8582860162002958565b9150509250929050565b600081519050919050565b600082825260208201905092915050565b6000819050602082019050919050565b620029ed8162002587565b82525050565b600081519050919050565b600082825260208201905092915050565b60005b8381101562002a2f57808201518184015260208101905062002a12565b60008484015250505050565b600062002a4882620029f3565b62002a548185620029fe565b935062002a6681856020860162002a0f565b62002a7181620025cc565b840191505092915050565b62002a87816200292a565b82525050565b60008115159050919050565b62002aa48162002a8d565b82525050565b6000819050919050565b600062002ad562002acf62002ac9846200290a565b62002aaa565b6200290a565b9050919050565b600062002ae98262002ab4565b9050919050565b600062002afd8262002adc565b9050919050565b62002b0f8162002af0565b82525050565b60006101408301600083015162002b306000860182620029e2565b506020830151848203602086015262002b4a828262002a3b565b9150506040830151848203604086015262002b66828262002a3b565b915050606083015162002b7d6060860182620029e2565b506080830151848203608086015262002b97828262002a3b565b91505060a083015162002bae60a0860182620029e2565b5060c083015162002bc360c086018262002a7c565b5060e083015162002bd860e086018262002a99565b5061010083015162002bef61010086018262002b04565b5061012083015162002c0661012086018262002a7c565b508091505092915050565b600062002c1f838362002b15565b905092915050565b6000602082019050919050565b600062002c4182620029b6565b62002c4d8185620029c1565b93508360208202850162002c6185620029d2565b8060005b8581101562002ca3578484038952815162002c81858262002c11565b945062002c8e8362002c27565b925060208a0199505060018101905062002c65565b50829750879550505050505092915050565b6000602082019050818103600083015262002cd1818462002c34565b905092915050565b62002ce48162002587565b82525050565b600060208201905062002d01600083018462002cd9565b92915050565b600082825260208201905092915050565b7f496e76616c6964206974656d2049440000000000000000000000000000000000600082015250565b600062002d50600f8362002d07565b915062002d5d8262002d18565b602082019050919050565b6000602082019050818103600083015262002d838162002d41565b9050919050565b7f4e487b7100000000000000000000000000000000000000000000000000000000600052603260045260246000fd5b7f4974656d20616c726561647920736f6c64000000000000000000000000000000600082015250565b600062002df160118362002d07565b915062002dfe8262002db9565b602082019050919050565b6000602082019050818103600083015262002e248162002de2565b9050919050565b7f4e487b7100000000000000000000000000000000000000000000000000000000600052602260045260246000fd5b6000600282049050600182168062002e7357607f821691505b60208210810362002e895762002e8862002e2b565b5b50919050565b60008190508160005260206000209050919050565b60006020601f8301049050919050565b600082821b905092915050565b60006008830262002ef37fffffffffffffffffffffffffffffffffffffffffffffffffffffffffffffffff8262002eb4565b62002eff868362002eb4565b95508019841693508086168417925050509392505050565b600062002f3862002f3262002f2c8462002587565b62002aaa565b62002587565b9050919050565b6000819050919050565b62002f548362002f17565b62002f6c62002f638262002f3f565b84845462002ec1565b825550505050565b600090565b62002f8362002f74565b62002f9081848462002f49565b505050565b5b8181101562002fb85762002fac60008262002f79565b60018101905062002f96565b5050565b601f821115620030075762002fd18162002e8f565b62002fdc8462002ea4565b8101602085101562002fec578190505b6200300462002ffb8562002ea4565b83018262002f95565b50505b505050565b600082821c905092915050565b60006200302c600019846008026200300c565b1980831691505092915050565b600062003047838362003019565b9150826002028217905092915050565b6200306282620029f3565b67ffffffffffffffff8111156200307e576200307d620025dd565b5b6200308a825462002e5a565b6200309782828562002fbc565b600060209050601f831160018114620030cf5760008415620030ba578287015190505b620030c6858262003039565b86555062003136565b601f198416620030df8662002e8f565b60005b828110156200310957848901518255600182019150602085019450602081019050620030e2565b8683101562003129578489015162003125601f89168262003019565b8355505b6001600288020188555050505b505050505050565b7f4974656d20646f6573206e6f742062656c6f6e6720746f2073656e6465720000600082015250565b600062003176601e8362002d07565b915062003183826200313e565b602082019050919050565b60006020820190508181036000830152620031a98162003167565b9050919050565b7f4e487b7100000000000000000000000000000000000000000000000000000000600052601160045260246000fd5b6000620031ec8262002587565b91507fffffffffffffffffffffffffffffffffffffffffffffffffffffffffffffffff8203620032215762003220620031b0565b5b600182019050919050565b7f4974656d20646f6573206e6f7420657869737400000000000000000000000000600082015250565b60006200326460138362002d07565b915062003271826200322c565b602082019050919050565b60006020820190508181036000830152620032978162003255565b9050919050565b6000620032ab8262002587565b9150620032b88362002587565b9250828203905081811115620032d357620032d2620031b0565b5b92915050565b600081549050620032ea8162002e5a565b9050919050565b81810362003301575050620033f0565b6200330c82620032d9565b67ffffffffffffffff811115620033285762003327620025dd565b5b62003334825462002e5a565b6200334182828562002fbc565b6000601f83116001811462003375576000841562003360578287015490505b6200336c858262003039565b865550620033e9565b601f198416620033858762002e8f565b9650620033928662002e8f565b60005b82811015620033bc5784890154825560018201915060018501945060208101905062003395565b86831015620033dc5784890154620033d8601f89168262003019565b8355505b6001600288020188555050505b5050505050505b565b7f4e487b7100000000000000000000000000000000000000000000000000000000600052603160045260246000fd5b7f4974656d206e6f7420666f756e64000000000000000000000000000000000000600082015250565b600062003459600e8362002d07565b9150620034668262003421565b602082019050919050565b600060208201905081810360008301526200348c816200344a565b9050919050565b7f4f776e65722063616e206e6f742062757920746865206974656d2e0000000000600082015250565b6000620034cb601b8362002d07565b9150620034d88262003493565b602082019050919050565b60006020820190508181036000830152620034fe81620034bc565b9050919050565b7f496e636f727265637420616d6f756e74206f662065746865722073656e74206760008201527f6f74000000000000000000000000000000000000000000000000000000000000602082015250565b60006200356360228362002d07565b9150620035708262003505565b604082019050919050565b60006020820190508181036000830152620035968162003554565b9050919050565b620035a8816200292a565b82525050565b6000620035bb826200290a565b9050919050565b620035cd81620035ae565b82525050565b6000604082019050620035ea60008301856200359d565b620035f96020830184620035c2565b9392505050565b60006200360d8262002587565b91506200361a8362002587565b9250828201905080821115620036355762003634620031b0565b5b92915050565b60006200364882620029f3565b62003654818562002d07565b93506200366681856020860162002a0f565b6200367181620025cc565b840191505092915050565b600060408201905081810360008301526200369881856200363b565b9050620036a9602083018462002cd9565b9392505050565b60006060820190508181036000830152620036cc81866200363b565b90508181036020830152620036e281856200363b565b9050620036f360408301846200359d565b949350505050565b7f4e487b7100000000000000000000000000000000000000000000000000000000600052605160045260246000fdfe60806040526040516200195a3803806200195a833981810160405281019062000029919062000206565b816001806101000a81548173ffffffffffffffffffffffffffffffffffffffff021916908373ffffffffffffffffffffffffffffffffffffffff16021790555080600260006101000a81548173ffffffffffffffffffffffffffffffffffffffff021916908373ffffffffffffffffffffffffffffffffffffffff160217905550736a7d3230514ee0e8078f23cf65b367d9984b055a600360006101000a81548173ffffffffffffffffffffffffffffffffffffffff021916908373ffffffffffffffffffffffffffffffffffffffff1602179055506000600160006101000a81548160ff021916908360048111156200012857620001276200024d565b5b02179055506000600560006101000a81548160ff0219169083151502179055504260008190555050506200027c565b600080fd5b600073ffffffffffffffffffffffffffffffffffffffff82169050919050565b600062000189826200015c565b9050919050565b6200019b816200017c565b8114620001a757600080fd5b50565b600081519050620001bb8162000190565b92915050565b6000620001ce826200015c565b9050919050565b620001e081620001c1565b8114620001ec57600080fd5b50565b6000815190506200020081620001d5565b92915050565b6000806040838503121562000220576200021f62000157565b5b60006200023085828601620001aa565b92505060206200024385828601620001ef565b9150509250929050565b7f4e487b7100000000000000000000000000000000000000000000000000000000600052602160045260246000fd5b6116ce806200028c6000396000f3fe608060405234801561001057600080fd5b506004361061009e5760003560e01c80637150d8ae116100665780637150d8ae1461012357806389e1e82a14610141578063afe010431461015d578063c00ccd541461017b578063eaaf0b63146101975761009e565b806308551a53146100a35780631ed1593e146100c15780635b0222bb146100cb5780635e10177b146100e957806364e6aa52146100f3575b600080fd5b6100ab6101b5565b6040516100b89190610b99565b60405180910390f35b6100c96101db565b005b6100d3610375565b6040516100e09190610bcd565b60405180910390f35b6100f161037b565b005b61010d60048036038101906101089190610c28565b610514565b60405161011a9190610ce5565b60405180910390f35b61012b6105c0565b6040516101389190610d28565b60405180910390f35b61015b60048036038101906101569190610d7b565b6105e4565b005b6101656108c2565b6040516101729190610e1f565b60405180910390f35b61019560048036038101906101909190610f6f565b6108d5565b005b61019f610a7f565b6040516101ac91906110c4565b60405180910390f35b600260009054906101000a900473ffffffffffffffffffffffffffffffffffffffff1681565b600260009054906101000a900473ffffffffffffffffffffffffffffffffffffffff1673ffffffffffffffffffffffffffffffffffffffff163373ffffffffffffffffffffffffffffffffffffffff161461026b576040517f08c379a000000000000000000000000000000000000000000000000000000000815260040161026290611132565b60405180910390fd5b6000600481111561027f5761027e610da8565b5b600160009054906101000a900460ff1660048111156102a1576102a0610da8565b5b146102e1576040517f08c379a00000000000000000000000000000000000000000000000000000000081526004016102d8906111c4565b60405180910390fd5b6002600160006101000a81548160ff0219169083600481111561030757610306610da8565b5b0217905550600480600181540180825580915050600190039060005260206000200160006040518060400160405280601981526020017f44697370757465206f70656e65642062792073656c6c65722e000000000000008152509091909150908161037291906113f0565b50565b60005481565b60018054906101000a900473ffffffffffffffffffffffffffffffffffffffff1673ffffffffffffffffffffffffffffffffffffffff163373ffffffffffffffffffffffffffffffffffffffff1614610409576040517f08c379a00000000000000000000000000000000000000000000000000000000081526004016104009061150e565b60405180910390fd5b6000600481111561041d5761041c610da8565b5b600160009054906101000a900460ff16600481111561043f5761043e610da8565b5b1461047f576040517f08c379a00000000000000000000000000000000000000000000000000000000081526004016104769061157a565b60405180910390fd5b600260009054906101000a900473ffffffffffffffffffffffffffffffffffffffff1673ffffffffffffffffffffffffffffffffffffffff166108fc479081150290604051600060405180830381858888f193505050501580156104e7573d6000803e3d6000fd5b5060018060006101000a81548160ff0219169083600481111561050d5761050c610da8565b5b0217905550565b6004818154811061052457600080fd5b90600052602060002001600091509050805461053f90611213565b80601f016020809104026020016040519081016040528092919081815260200182805461056b90611213565b80156105b85780601f1061058d576101008083540402835291602001916105b8565b820191906000526020600020905b81548152906001019060200180831161059b57829003601f168201915b505050505081565b60018054906101000a900473ffffffffffffffffffffffffffffffffffffffff1681565b600360009054906101000a900473ffffffffffffffffffffffffffffffffffffffff1673ffffffffffffffffffffffffffffffffffffffff163373ffffffffffffffffffffffffffffffffffffffff1614610674576040517f08c379a000000000000000000000000000000000000000000000000000000000815260040161066b9061160c565b60405180910390fd5b6002600481111561068857610687610da8565b5b600160009054906101000a900460ff1660048111156106aa576106a9610da8565b5b146106ea576040517f08c379a00000000000000000000000000000000000000000000000000000000081526004016106e190611678565b60405180910390fd5b80156107c357600480600181540180825580915050600190039060005260206000200160006040518060400160405280601381526020017f42757965722077617320726566756e6465642e000000000000000000000000008152509091909150908161075691906113f0565b5060018054906101000a900473ffffffffffffffffffffffffffffffffffffffff1673ffffffffffffffffffffffffffffffffffffffff166108fc479081150290604051600060405180830381858888f193505050501580156107bd573d6000803e3d6000fd5b50610894565b600480600181540180825580915050600190039060005260206000200160006040518060400160405280601481526020017f53656c6c65722077617320726566756e6465642e0000000000000000000000008152509091909150908161082991906113f0565b50600260009054906101000a900473ffffffffffffffffffffffffffffffffffffffff1673ffffffffffffffffffffffffffffffffffffffff166108fc479081150290604051600060405180830381858888f19350505050158015610892573d6000803e3d6000fd5b505b6004600160006101000a81548160ff021916908360048111156108ba576108b9610da8565b5b021790555050565b600160009054906101000a900460ff1681565b600260009054906101000a900473ffffffffffffffffffffffffffffffffffffffff1673ffffffffffffffffffffffffffffffffffffffff163373ffffffffffffffffffffffffffffffffffffffff1614610965576040517f08c379a000000000000000000000000000000000000000000000000000000000815260040161095c90611132565b60405180910390fd5b6001600481111561097957610978610da8565b5b600160009054906101000a900460ff16600481111561099b5761099a610da8565b5b036109db576040517f08c379a00000000000000000000000000000000000000000000000000000000081526004016109d2906111c4565b60405180910390fd5b600060048111156109ef576109ee610da8565b5b600160009054906101000a900460ff166004811115610a1157610a10610da8565b5b03610a51576040517f08c379a0000000000000000000000000000000000000000000000000000000008152600401610a48906111c4565b60405180910390fd5b6001600560006101000a81548160ff0219169083151502179055508060069081610a7b91906113f0565b5050565b60606004805480602002602001604051908101604052809291908181526020016000905b82821015610b4f578382906000526020600020018054610ac290611213565b80601f0160208091040260200160405190810160405280929190818152602001828054610aee90611213565b8015610b3b5780601f10610b1057610100808354040283529160200191610b3b565b820191906000526020600020905b815481529060010190602001808311610b1e57829003601f168201915b505050505081526020019060010190610aa3565b50505050905090565b600073ffffffffffffffffffffffffffffffffffffffff82169050919050565b6000610b8382610b58565b9050919050565b610b9381610b78565b82525050565b6000602082019050610bae6000830184610b8a565b92915050565b6000819050919050565b610bc781610bb4565b82525050565b6000602082019050610be26000830184610bbe565b92915050565b6000604051905090565b600080fd5b600080fd5b610c0581610bb4565b8114610c1057600080fd5b50565b600081359050610c2281610bfc565b92915050565b600060208284031215610c3e57610c3d610bf2565b5b6000610c4c84828501610c13565b91505092915050565b600081519050919050565b600082825260208201905092915050565b60005b83811015610c8f578082015181840152602081019050610c74565b60008484015250505050565b6000601f19601f8301169050919050565b6000610cb782610c55565b610cc18185610c60565b9350610cd1818560208601610c71565b610cda81610c9b565b840191505092915050565b60006020820190508181036000830152610cff8184610cac565b905092915050565b6000610d1282610b58565b9050919050565b610d2281610d07565b82525050565b6000602082019050610d3d6000830184610d19565b92915050565b60008115159050919050565b610d5881610d43565b8114610d6357600080fd5b50565b600081359050610d7581610d4f565b92915050565b600060208284031215610d9157610d90610bf2565b5b6000610d9f84828501610d66565b91505092915050565b7f4e487b7100000000000000000000000000000000000000000000000000000000600052602160045260246000fd5b60058110610de857610de7610da8565b5b50565b6000819050610df982610dd7565b919050565b6000610e0982610deb565b9050919050565b610e1981610dfe565b82525050565b6000602082019050610e346000830184610e10565b92915050565b600080fd5b600080fd5b7f4e487b7100000000000000000000000000000000000000000000000000000000600052604160045260246000fd5b610e7c82610c9b565b810181811067ffffffffffffffff82111715610e9b57610e9a610e44565b5b80604052505050565b6000610eae610be8565b9050610eba8282610e73565b919050565b600067ffffffffffffffff821115610eda57610ed9610e44565b5b610ee382610c9b565b9050602081019050919050565b82818337600083830152505050565b6000610f12610f0d84610ebf565b610ea4565b905082815260208101848484011115610f2e57610f2d610e3f565b5b610f39848285610ef0565b509392505050565b600082601f830112610f5657610f55610e3a565b5b8135610f66848260208601610eff565b91505092915050565b600060208284031215610f8557610f84610bf2565b5b600082013567ffffffffffffffff811115610fa357610fa2610bf7565b5b610faf84828501610f41565b91505092915050565b600081519050919050565b600082825260208201905092915050565b6000819050602082019050919050565b600082825260208201905092915050565b600061100082610c55565b61100a8185610fe4565b935061101a818560208601610c71565b61102381610c9b565b840191505092915050565b600061103a8383610ff5565b905092915050565b6000602082019050919050565b600061105a82610fb8565b6110648185610fc3565b93508360208202850161107685610fd4565b8060005b858110156110b25784840389528151611093858261102e565b945061109e83611042565b925060208a0199505060018101905061107a565b50829750879550505050505092915050565b600060208201905081810360008301526110de818461104f565b905092915050565b7f4f6e6c792073656c6c65722063616e2063616c6c2074686973206d6574686f64600082015250565b600061111c602083610c60565b9150611127826110e6565b602082019050919050565b6000602082019050818103600083015261114b8161110f565b9050919050565b7f43616e6e6f74206f70656e20646973707574652061742074686973207374616760008201527f6500000000000000000000000000000000000000000000000000000000000000602082015250565b60006111ae602183610c60565b91506111b982611152565b604082019050919050565b600060208201905081810360008301526111dd816111a1565b9050919050565b7f4e487b7100000000000000000000000000000000000000000000000000000000600052602260045260246000fd5b6000600282049050600182168061122b57607f821691505b60208210810361123e5761123d6111e4565b5b50919050565b60008190508160005260206000209050919050565b60006020601f8301049050919050565b600082821b905092915050565b6000600883026112a67fffffffffffffffffffffffffffffffffffffffffffffffffffffffffffffffff82611269565b6112b08683611269565b95508019841693508086168417925050509392505050565b6000819050919050565b60006112ed6112e86112e384610bb4565b6112c8565b610bb4565b9050919050565b6000819050919050565b611307836112d2565b61131b611313826112f4565b848454611276565b825550505050565b600090565b611330611323565b61133b8184846112fe565b505050565b5b8181101561135f57611354600082611328565b600181019050611341565b5050565b601f8211156113a45761137581611244565b61137e84611259565b8101602085101561138d578190505b6113a161139985611259565b830182611340565b50505b505050565b600082821c905092915050565b60006113c7600019846008026113a9565b1980831691505092915050565b60006113e083836113b6565b9150826002028217905092915050565b6113f982610c55565b67ffffffffffffffff81111561141257611411610e44565b5b61141c8254611213565b611427828285611363565b600060209050601f83116001811461145a5760008415611448578287015190505b61145285826113d4565b8655506114ba565b601f19841661146886611244565b60005b828110156114905784890151825560018201915060208501945060208101905061146b565b868310156114ad57848901516114a9601f8916826113b6565b8355505b6001600288020188555050505b505050505050565b7f4f6e6c792062757965722063616e2063616c6c2074686973206d6574686f6400600082015250565b60006114f8601f83610c60565b9150611503826114c2565b602082019050919050565b60006020820190508181036000830152611527816114eb565b9050919050565b7f43616e6e6f7420636f6e6669726d2064656c6976657279000000000000000000600082015250565b6000611564601783610c60565b915061156f8261152e565b602082019050919050565b6000602082019050818103600083015261159381611557565b9050919050565b7f4f6e6c792061726269747261746f722063616e2063616c6c2074686973206d6560008201527f74686f6400000000000000000000000000000000000000000000000000000000602082015250565b60006115f6602483610c60565b91506116018261159a565b604082019050919050565b60006020820190508181036000830152611625816115e9565b9050919050565b7f4e6f206163746976652064697370757465000000000000000000000000000000600082015250565b6000611662601183610c60565b915061166d8261162c565b602082019050919050565b6000602082019050818103600083015261169181611655565b905091905056fea2646970667358221220778ed4cef36e57f6bfca0f6f5ab45df31618a604fea10f7ee4b02817b70ebf8e64736f6c63430008180033a26469706673582212201b251d073fc16c7763b47e919d6e49f1f912a9c15964d73e3d634a7d83f25ade64736f6c63430008180033",
  "devdoc": {
    "kind": "dev",
    "methods": {},
    "version": 1
  },
  "userdoc": {
    "kind": "user",
    "methods": {},
    "version": 1
  },
  "storageLayout": {
    "storage": [
      {
        "astId": 282,
        "contract": "contracts/Item.sol:Item",
        "label": "items",
        "offset": 0,
        "slot": "0",
        "type": "t_mapping(t_address,t_array(t_struct(ItemStruct)276_storage)dyn_storage)"
      },
      {
        "astId": 284,
        "contract": "contracts/Item.sol:Item",
        "label": "itemsCount",
        "offset": 0,
        "slot": "1",
        "type": "t_uint256"
      },
      {
        "astId": 287,
        "contract": "contracts/Item.sol:Item",
        "label": "sellers",
        "offset": 0,
        "slot": "2",
        "type": "t_array(t_address)dyn_storage"
      }
    ],
    "types": {
      "t_address": {
        "encoding": "inplace",
        "label": "address",
        "numberOfBytes": "20"
      },
      "t_array(t_address)dyn_storage": {
        "base": "t_address",
        "encoding": "dynamic_array",
        "label": "address[]",
        "numberOfBytes": "32"
      },
      "t_array(t_struct(ItemStruct)276_storage)dyn_storage": {
        "base": "t_struct(ItemStruct)276_storage",
        "encoding": "dynamic_array",
        "label": "struct Item.ItemStruct[]",
        "numberOfBytes": "32"
      },
      "t_bool": {
        "encoding": "inplace",
        "label": "bool",
        "numberOfBytes": "1"
      },
      "t_contract(Escrow)250": {
        "encoding": "inplace",
        "label": "contract Escrow",
        "numberOfBytes": "20"
      },
      "t_mapping(t_address,t_array(t_struct(ItemStruct)276_storage)dyn_storage)": {
        "encoding": "mapping",
        "key": "t_address",
        "label": "mapping(address => struct Item.ItemStruct[])",
        "numberOfBytes": "32",
        "value": "t_array(t_struct(ItemStruct)276_storage)dyn_storage"
      },
      "t_string_storage": {
        "encoding": "bytes",
        "label": "string",
        "numberOfBytes": "32"
      },
      "t_struct(ItemStruct)276_storage": {
        "encoding": "inplace",
        "label": "struct Item.ItemStruct",
        "members": [
          {
            "astId": 256,
            "contract": "contracts/Item.sol:Item",
            "label": "itemId",
            "offset": 0,
            "slot": "0",
            "type": "t_uint256"
          },
          {
            "astId": 258,
            "contract": "contracts/Item.sol:Item",
            "label": "title",
            "offset": 0,
            "slot": "1",
            "type": "t_string_storage"
          },
          {
            "astId": 260,
            "contract": "contracts/Item.sol:Item",
            "label": "description",
            "offset": 0,
            "slot": "2",
            "type": "t_string_storage"
          },
          {
            "astId": 262,
            "contract": "contracts/Item.sol:Item",
            "label": "price",
            "offset": 0,
            "slot": "3",
            "type": "t_uint256"
          },
          {
            "astId": 264,
            "contract": "contracts/Item.sol:Item",
            "label": "image",
            "offset": 0,
            "slot": "4",
            "type": "t_string_storage"
          },
          {
            "astId": 266,
            "contract": "contracts/Item.sol:Item",
            "label": "createdAt",
            "offset": 0,
            "slot": "5",
            "type": "t_uint256"
          },
          {
            "astId": 268,
            "contract": "contracts/Item.sol:Item",
            "label": "buyer",
            "offset": 0,
            "slot": "6",
            "type": "t_address"
          },
          {
            "astId": 270,
            "contract": "contracts/Item.sol:Item",
            "label": "hasBuyer",
            "offset": 20,
            "slot": "6",
            "type": "t_bool"
          },
          {
            "astId": 273,
            "contract": "contracts/Item.sol:Item",
            "label": "escrow",
            "offset": 0,
            "slot": "7",
            "type": "t_contract(Escrow)250"
          },
          {
            "astId": 275,
            "contract": "contracts/Item.sol:Item",
            "label": "seller",
            "offset": 0,
            "slot": "8",
            "type": "t_address"
          }
        ],
        "numberOfBytes": "288"
      },
      "t_uint256": {
        "encoding": "inplace",
        "label": "uint256",
        "numberOfBytes": "32"
      }
    }
  }
}