{
  "address": "0xA402f6fB19EE36A0DB1736909F3d5a7e7355970e",
  "abi": [
    {
      "inputs": [
        {
          "internalType": "string",
          "name": "_title",
          "type": "string"
        },
        {
          "internalType": "string",
          "name": "_description",
          "type": "string"
        },
        {
          "internalType": "uint256",
          "name": "_price",
          "type": "uint256"
        },
        {
          "internalType": "string",
          "name": "_image",
          "type": "string"
        }
      ],
      "name": "addItem",
      "outputs": [],
      "stateMutability": "nonpayable",
      "type": "function"
    },
    {
      "inputs": [],
      "name": "browseItems",
      "outputs": [
        {
          "components": [
            {
              "internalType": "uint256",
              "name": "itemId",
              "type": "uint256"
            },
            {
              "internalType": "string",
              "name": "title",
              "type": "string"
            },
            {
              "internalType": "string",
              "name": "description",
              "type": "string"
            },
            {
              "internalType": "uint256",
              "name": "price",
              "type": "uint256"
            },
            {
              "internalType": "string",
              "name": "image",
              "type": "string"
            },
            {
              "internalType": "uint256",
              "name": "createdAt",
              "type": "uint256"
            },
            {
              "internalType": "address",
              "name": "buyer",
              "type": "address"
            },
            {
              "internalType": "bool",
              "name": "hasBuyer",
              "type": "bool"
            },
            {
              "internalType": "contract Escrow",
              "name": "escrow",
              "type": "address"
            },
            {
              "internalType": "address",
              "name": "seller",
              "type": "address"
            }
          ],
          "internalType": "struct Item.ItemStruct[]",
          "name": "",
          "type": "tuple[]"
        }
      ],
      "stateMutability": "view",
      "type": "function"
    },
    {
      "inputs": [
        {
          "internalType": "uint256",
          "name": "_itemId",
          "type": "uint256"
        },
        {
          "internalType": "address",
          "name": "_seller",
          "type": "address"
        }
      ],
      "name": "cancelItem",
      "outputs": [],
      "stateMutability": "nonpayable",
      "type": "function"
    },
    {
      "inputs": [
        {
          "internalType": "uint256",
          "name": "_itemId",
          "type": "uint256"
        }
      ],
      "name": "deleteItem",
      "outputs": [],
      "stateMutability": "nonpayable",
      "type": "function"
    },
    {
      "inputs": [
        {
          "internalType": "uint256",
          "name": "_itemId",
          "type": "uint256"
        },
        {
          "internalType": "string",
          "name": "_title",
          "type": "string"
        },
        {
          "internalType": "string",
          "name": "_description",
          "type": "string"
        },
        {
          "internalType": "uint256",
          "name": "_price",
          "type": "uint256"
        },
        {
          "internalType": "string",
          "name": "_image",
          "type": "string"
        }
      ],
      "name": "editItem",
      "outputs": [],
      "stateMutability": "nonpayable",
      "type": "function"
    },
    {
      "inputs": [],
      "name": "getItemsWithDispute",
      "outputs": [
        {
          "components": [
            {
              "internalType": "uint256",
              "name": "itemId",
              "type": "uint256"
            },
            {
              "internalType": "string",
              "name": "title",
              "type": "string"
            },
            {
              "internalType": "string",
              "name": "description",
              "type": "string"
            },
            {
              "internalType": "uint256",
              "name": "price",
              "type": "uint256"
            },
            {
              "internalType": "string",
              "name": "image",
              "type": "string"
            },
            {
              "internalType": "uint256",
              "name": "createdAt",
              "type": "uint256"
            },
            {
              "internalType": "address",
              "name": "buyer",
              "type": "address"
            },
            {
              "internalType": "bool",
              "name": "hasBuyer",
              "type": "bool"
            },
            {
              "internalType": "contract Escrow",
              "name": "escrow",
              "type": "address"
            },
            {
              "internalType": "address",
              "name": "seller",
              "type": "address"
            }
          ],
          "internalType": "struct Item.ItemStruct[]",
          "name": "",
          "type": "tuple[]"
        }
      ],
      "stateMutability": "view",
      "type": "function"
    },
    {
      "inputs": [],
      "name": "itemsCount",
      "outputs": [
        {
          "internalType": "uint256",
          "name": "",
          "type": "uint256"
        }
      ],
      "stateMutability": "view",
      "type": "function"
    },
    {
      "inputs": [],
      "name": "myPurchases",
      "outputs": [
        {
          "components": [
            {
              "internalType": "uint256",
              "name": "itemId",
              "type": "uint256"
            },
            {
              "internalType": "string",
              "name": "title",
              "type": "string"
            },
            {
              "internalType": "string",
              "name": "description",
              "type": "string"
            },
            {
              "internalType": "uint256",
              "name": "price",
              "type": "uint256"
            },
            {
              "internalType": "string",
              "name": "image",
              "type": "string"
            },
            {
              "internalType": "uint256",
              "name": "createdAt",
              "type": "uint256"
            },
            {
              "internalType": "address",
              "name": "buyer",
              "type": "address"
            },
            {
              "internalType": "bool",
              "name": "hasBuyer",
              "type": "bool"
            },
            {
              "internalType": "contract Escrow",
              "name": "escrow",
              "type": "address"
            },
            {
              "internalType": "address",
              "name": "seller",
              "type": "address"
            }
          ],
          "internalType": "struct Item.ItemStruct[]",
          "name": "",
          "type": "tuple[]"
        }
      ],
      "stateMutability": "view",
      "type": "function"
    },
    {
      "inputs": [],
      "name": "mySales",
      "outputs": [
        {
          "components": [
            {
              "internalType": "uint256",
              "name": "itemId",
              "type": "uint256"
            },
            {
              "internalType": "string",
              "name": "title",
              "type": "string"
            },
            {
              "internalType": "string",
              "name": "description",
              "type": "string"
            },
            {
              "internalType": "uint256",
              "name": "price",
              "type": "uint256"
            },
            {
              "internalType": "string",
              "name": "image",
              "type": "string"
            },
            {
              "internalType": "uint256",
              "name": "createdAt",
              "type": "uint256"
            },
            {
              "internalType": "address",
              "name": "buyer",
              "type": "address"
            },
            {
              "internalType": "bool",
              "name": "hasBuyer",
              "type": "bool"
            },
            {
              "internalType": "contract Escrow",
              "name": "escrow",
              "type": "address"
            },
            {
              "internalType": "address",
              "name": "seller",
              "type": "address"
            }
          ],
          "internalType": "struct Item.ItemStruct[]",
          "name": "",
          "type": "tuple[]"
        }
      ],
      "stateMutability": "view",
      "type": "function"
    },
    {
      "inputs": [
        {
          "internalType": "uint256",
          "name": "_itemId",
          "type": "uint256"
        },
        {
          "internalType": "address",
          "name": "_seller",
          "type": "address"
        }
      ],
      "name": "purchaseItem",
      "outputs": [],
      "stateMutability": "payable",
      "type": "function"
    },
    {
      "inputs": [],
      "name": "retrieveUserItems",
      "outputs": [
        {
          "components": [
            {
              "internalType": "uint256",
              "name": "itemId",
              "type": "uint256"
            },
            {
              "internalType": "string",
              "name": "title",
              "type": "string"
            },
            {
              "internalType": "string",
              "name": "description",
              "type": "string"
            },
            {
              "internalType": "uint256",
              "name": "price",
              "type": "uint256"
            },
            {
              "internalType": "string",
              "name": "image",
              "type": "string"
            },
            {
              "internalType": "uint256",
              "name": "createdAt",
              "type": "uint256"
            },
            {
              "internalType": "address",
              "name": "buyer",
              "type": "address"
            },
            {
              "internalType": "bool",
              "name": "hasBuyer",
              "type": "bool"
            },
            {
              "internalType": "contract Escrow",
              "name": "escrow",
              "type": "address"
            },
            {
              "internalType": "address",
              "name": "seller",
              "type": "address"
            }
          ],
          "internalType": "struct Item.ItemStruct[]",
          "name": "",
          "type": "tuple[]"
        }
      ],
      "stateMutability": "view",
      "type": "function"
    },
    {
      "inputs": [
        {
          "internalType": "uint256",
          "name": "_itemId",
          "type": "uint256"
        },
        {
          "internalType": "string",
          "name": "tracking",
          "type": "string"
        }
      ],
      "name": "shipItem",
      "outputs": [],
      "stateMutability": "nonpayable",
      "type": "function"
    }
  ],
  "transactionHash": "0x11543ba2959229cc3377cf94d4cae487c7f5a96b3c6dc48bcb46220975d23e0c",
  "args": [],
  "numDeployments": 39,
  "solcInputHash": "4ce10fa0ae25074e960f539409b2bc7e",
  "bytecode": "0x608060405234801561001057600080fd5b50617c6e80620000216000396000f3fe608060405260043610620000b65760003560e01c80638af8a986116200006d5780638af8a98614620001c35780639768c44b14620001f35780639ab7e23b1462000221578063b24db86f1462000251578063dbc376701462000281578063e2c03ace14620002b157620000b6565b80630461459a14620000bb57806313df81d614620000e957806338f5234f14620001175780634d25ce471462000147578063654fc83314620001755780637bfe9efd14620001a3575b600080fd5b348015620000c857600080fd5b50620000e76004803603810190620000e1919062003e57565b620002e1565b005b348015620000f657600080fd5b506200011560048036038101906200010f919062003f3c565b62000566565b005b3480156200012457600080fd5b506200012f620008ca565b6040516200013e91906200433e565b60405180910390f35b3480156200015457600080fd5b506200017360048036038101906200016d919062004362565b62000daa565b005b3480156200018257600080fd5b50620001a160048036038101906200019b9190620043c8565b62001175565b005b620001c16004803603810190620001bb91906200442b565b6200163a565b005b348015620001d057600080fd5b50620001db62001b5f565b604051620001ea91906200433e565b60405180910390f35b3480156200020057600080fd5b506200021f60048036038101906200021991906200442b565b620021c4565b005b3480156200022e57600080fd5b50620002396200279d565b6040516200024891906200433e565b60405180910390f35b3480156200025e57600080fd5b506200026962002b44565b6040516200027891906200433e565b60405180910390f35b3480156200028e57600080fd5b506200029962003307565b604051620002a891906200433e565b60405180910390f35b348015620002be57600080fd5b50620002c9620039fc565b604051620002d8919062004483565b60405180910390f35b600085118015620002f457506001548511155b62000336576040517f08c379a00000000000000000000000000000000000000000000000000000000081526004016200032d9062004501565b60405180910390fd5b60008060003373ffffffffffffffffffffffffffffffffffffffff1673ffffffffffffffffffffffffffffffffffffffff16815260200190815260200160002090506000805b8280549050811015620005195787838281548110620003a0576200039f62004523565b5b906000526020600020906009020160000154036200050b5760019150828181548110620003d257620003d162004523565b5b906000526020600020906009020160060160149054906101000a900460ff161562000434576040517f08c379a00000000000000000000000000000000000000000000000000000000081526004016200042b90620045a2565b60405180910390fd5b868382815481106200044b576200044a62004523565b5b906000526020600020906009020160010190816200046a9190620047f0565b508583828154811062000482576200048162004523565b5b90600052602060002090600902016002019081620004a19190620047f0565b5084838281548110620004b957620004b862004523565b5b90600052602060002090600902016003018190555083838281548110620004e557620004e462004523565b5b90600052602060002090600902016004019081620005049190620047f0565b5062000519565b80806001019150506200037c565b50806200055d576040517f08c379a0000000000000000000000000000000000000000000000000000000008152600401620005549062004927565b60405180910390fd5b50505050505050565b620005a76040518060400160405280600c81526020017f50726963652069733a20257300000000000000000000000000000000000000008152508362003a02565b60008060003373ffffffffffffffffffffffffffffffffffffffff1673ffffffffffffffffffffffffffffffffffffffff168152602001908152602001600020805490500362000655576002339080600181540180825580915050600190039060005260206000200160009091909190916101000a81548173ffffffffffffffffffffffffffffffffffffffff021916908373ffffffffffffffffffffffffffffffffffffffff1602179055505b600160008154809291906200066a9062004978565b91905055506000803373ffffffffffffffffffffffffffffffffffffffff1673ffffffffffffffffffffffffffffffffffffffff1681526020019081526020016000206040518061014001604052806001548152602001868152602001858152602001848152602001838152602001428152602001600073ffffffffffffffffffffffffffffffffffffffff168152602001600015158152602001600073ffffffffffffffffffffffffffffffffffffffff1681526020013373ffffffffffffffffffffffffffffffffffffffff168152509080600181540180825580915050600190039060005260206000209060090201600090919091909150600082015181600001556020820151816001019081620007869190620047f0565b5060408201518160020190816200079e9190620047f0565b50606082015181600301556080820151816004019081620007c09190620047f0565b5060a0820151816005015560c08201518160060160006101000a81548173ffffffffffffffffffffffffffffffffffffffff021916908373ffffffffffffffffffffffffffffffffffffffff16021790555060e08201518160060160146101000a81548160ff0219169083151502179055506101008201518160070160006101000a81548173ffffffffffffffffffffffffffffffffffffffff021916908373ffffffffffffffffffffffffffffffffffffffff1602179055506101208201518160080160006101000a81548173ffffffffffffffffffffffffffffffffffffffff021916908373ffffffffffffffffffffffffffffffffffffffff160217905550505050505050565b606060008060008060003373ffffffffffffffffffffffffffffffffffffffff1673ffffffffffffffffffffffffffffffffffffffff168152602001908152602001600020905060005b81805490508110156200097b5781818154811062000937576200093662004523565b5b906000526020600020906009020160060160149054906101000a900460ff16156200096d578380620009699062004978565b9450505b808060010191505062000914565b5060008367ffffffffffffffff8111156200099b576200099a62003d10565b5b604051908082528060200260200182016040528015620009d857816020015b620009c462003b90565b815260200190600190039081620009ba5790505b50905060005b828054905081101562000d9f5782818154811062000a015762000a0062004523565b5b906000526020600020906009020160060160149054906101000a900460ff161562000d915782818154811062000a3c5762000a3b62004523565b5b9060005260206000209060090201604051806101400160405290816000820154815260200160018201805462000a7290620045f3565b80601f016020809104026020016040519081016040528092919081815260200182805462000aa090620045f3565b801562000af15780601f1062000ac55761010080835404028352916020019162000af1565b820191906000526020600020905b81548152906001019060200180831162000ad357829003601f168201915b5050505050815260200160028201805462000b0c90620045f3565b80601f016020809104026020016040519081016040528092919081815260200182805462000b3a90620045f3565b801562000b8b5780601f1062000b5f5761010080835404028352916020019162000b8b565b820191906000526020600020905b81548152906001019060200180831162000b6d57829003601f168201915b505050505081526020016003820154815260200160048201805462000bb090620045f3565b80601f016020809104026020016040519081016040528092919081815260200182805462000bde90620045f3565b801562000c2f5780601f1062000c035761010080835404028352916020019162000c2f565b820191906000526020600020905b81548152906001019060200180831162000c1157829003601f168201915b50505050508152602001600582015481526020016006820160009054906101000a900473ffffffffffffffffffffffffffffffffffffffff1673ffffffffffffffffffffffffffffffffffffffff1673ffffffffffffffffffffffffffffffffffffffff1681526020016006820160149054906101000a900460ff161515151581526020016007820160009054906101000a900473ffffffffffffffffffffffffffffffffffffffff1673ffffffffffffffffffffffffffffffffffffffff1673ffffffffffffffffffffffffffffffffffffffff1681526020016008820160009054906101000a900473ffffffffffffffffffffffffffffffffffffffff1673ffffffffffffffffffffffffffffffffffffffff1673ffffffffffffffffffffffffffffffffffffffff168152505082858151811062000d755762000d7462004523565b5b6020026020010181905250838062000d8d9062004978565b9450505b8080600101915050620009de565b508094505050505090565b60008060003373ffffffffffffffffffffffffffffffffffffffff1673ffffffffffffffffffffffffffffffffffffffff168152602001908152602001600020905060008080600090505b838054905081101562000e4c578584828154811062000e195762000e1862004523565b5b9060005260206000209060090201600001540362000e3e576001925080915062000e4c565b808060010191505062000df5565b508162000e90576040517f08c379a000000000000000000000000000000000000000000000000000000000815260040162000e879062004a15565b60405180910390fd5b82818154811062000ea65762000ea562004523565b5b906000526020600020906009020160060160149054906101000a900460ff1662000f07576040517f08c379a000000000000000000000000000000000000000000000000000000000815260040162000efe9062004a87565b60405180910390fd5b82818154811062000f1d5762000f1c62004523565b5b906000526020600020906009020160080160009054906101000a900473ffffffffffffffffffffffffffffffffffffffff1673ffffffffffffffffffffffffffffffffffffffff163373ffffffffffffffffffffffffffffffffffffffff161462000fbf576040517f08c379a000000000000000000000000000000000000000000000000000000000815260040162000fb69062004af9565b60405180910390fd5b82818154811062000fd55762000fd462004523565b5b906000526020600020906009020160070160009054906101000a900473ffffffffffffffffffffffffffffffffffffffff1673ffffffffffffffffffffffffffffffffffffffff1663dd3fa136856040518263ffffffff1660e01b815260040162001041919062004b5c565b600060405180830381600087803b1580156200105c57600080fd5b505af115801562001071573d6000803e3d6000fd5b505050506200116e6040518060400160405280601681526020017f4974656d20736869707065643a20257320627920257300000000000000000000815250848381548110620010c557620010c462004523565b5b90600052602060002090600902016001018054620010e390620045f3565b80601f01602080910402602001604051908101604052809291908181526020018280546200111190620045f3565b8015620011625780601f10620011365761010080835404028352916020019162001162565b820191906000526020600020905b8154815290600101906020018083116200114457829003601f168201915b50505050503362003aa2565b5050505050565b60008060003373ffffffffffffffffffffffffffffffffffffffff1673ffffffffffffffffffffffffffffffffffffffff168152602001908152602001600020905060008080600090505b83805490508110156200128f5784848281548110620011e457620011e362004523565b5b90600052602060002090600902016000015403620012815783818154811062001212576200121162004523565b5b906000526020600020906009020160060160149054906101000a900460ff161562001274576040517f08c379a00000000000000000000000000000000000000000000000000000000081526004016200126b90620045a2565b60405180910390fd5b600192508091506200128f565b8080600101915050620011c0565b5081620012d3576040517f08c379a0000000000000000000000000000000000000000000000000000000008152600401620012ca9062004bd0565b60405180910390fd5b600060018480549050620012e8919062004bf2565b90508082146200152f5783818154811062001308576200130762004523565b5b90600052602060002090600902018483815481106200132c576200132b62004523565b5b906000526020600020906009020160008201548160000155600182018160010190816200135a919062004c45565b506002820181600201908162001371919062004c45565b50600382015481600301556004820181600401908162001392919062004c45565b50600582015481600501556006820160009054906101000a900473ffffffffffffffffffffffffffffffffffffffff168160060160006101000a81548173ffffffffffffffffffffffffffffffffffffffff021916908373ffffffffffffffffffffffffffffffffffffffff1602179055506006820160149054906101000a900460ff168160060160146101000a81548160ff0219169083151502179055506007820160009054906101000a900473ffffffffffffffffffffffffffffffffffffffff168160070160006101000a81548173ffffffffffffffffffffffffffffffffffffffff021916908373ffffffffffffffffffffffffffffffffffffffff1602179055506008820160009054906101000a900473ffffffffffffffffffffffffffffffffffffffff168160080160006101000a81548173ffffffffffffffffffffffffffffffffffffffff021916908373ffffffffffffffffffffffffffffffffffffffff1602179055509050508484838154811062001519576200151862004523565b5b9060005260206000209060090201600001819055505b8380548062001543576200154262004d46565b5b600190038181906000526020600020906009020160008082016000905560018201600062001572919062003c27565b60028201600062001584919062003c27565b60038201600090556004820160006200159e919062003c27565b60058201600090556006820160006101000a81549073ffffffffffffffffffffffffffffffffffffffff02191690556006820160146101000a81549060ff02191690556007820160006101000a81549073ffffffffffffffffffffffffffffffffffffffff02191690556008820160006101000a81549073ffffffffffffffffffffffffffffffffffffffff0219169055505090555050505050565b6000821180156200164d57506001548211155b6200168f576040517f08c379a0000000000000000000000000000000000000000000000000000000008152600401620016869062004501565b60405180910390fd5b60008060008373ffffffffffffffffffffffffffffffffffffffff1673ffffffffffffffffffffffffffffffffffffffff168152602001908152602001600020905060008080600090505b8380549050811015620017315785848281548110620016fe57620016fd62004523565b5b9060005260206000209060090201600001540362001723576001925080915062001731565b8080600101915050620016da565b508162001775576040517f08c379a00000000000000000000000000000000000000000000000000000000081526004016200176c9062004a15565b60405180910390fd5b8281815481106200178b576200178a62004523565b5b906000526020600020906009020160060160149054906101000a900460ff1615620017ed576040517f08c379a0000000000000000000000000000000000000000000000000000000008152600401620017e490620045a2565b60405180910390fd5b8373ffffffffffffffffffffffffffffffffffffffff168382815481106200181a576200181962004523565b5b906000526020600020906009020160080160009054906101000a900473ffffffffffffffffffffffffffffffffffffffff1673ffffffffffffffffffffffffffffffffffffffff1614620018a5576040517f08c379a00000000000000000000000000000000000000000000000000000000081526004016200189c9062004dc5565b60405180910390fd5b828181548110620018bb57620018ba62004523565b5b906000526020600020906009020160030154341462001911576040517f08c379a0000000000000000000000000000000000000000000000000000000008152600401620019089062004e5d565b60405180910390fd5b6000343386604051620019249062003c6d565b6200193192919062004eb5565b6040518091039082f09050801580156200194f573d6000803e3d6000fd5b5090503384838154811062001969576200196862004523565b5b906000526020600020906009020160060160006101000a81548173ffffffffffffffffffffffffffffffffffffffff021916908373ffffffffffffffffffffffffffffffffffffffff1602179055506001848381548110620019d057620019cf62004523565b5b906000526020600020906009020160060160146101000a81548160ff0219169083151502179055508084838154811062001a0f5762001a0e62004523565b5b906000526020600020906009020160070160006101000a81548173ffffffffffffffffffffffffffffffffffffffff021916908373ffffffffffffffffffffffffffffffffffffffff16021790555062001b576040518060400160405280601881526020017f4974656d207075726368617365643a202573206279202573000000000000000081525085848154811062001aae5762001aad62004523565b5b9060005260206000209060090201600101805462001acc90620045f3565b80601f016020809104026020016040519081016040528092919081815260200182805462001afa90620045f3565b801562001b4b5780601f1062001b1f5761010080835404028352916020019162001b4b565b820191906000526020600020905b81548152906001019060200180831162001b2d57829003601f168201915b50505050503362003aa2565b505050505050565b606060008060005b60028054905081101562001cb25760008060006002848154811062001b915762001b9062004523565b5b9060005260206000200160009054906101000a900473ffffffffffffffffffffffffffffffffffffffff1673ffffffffffffffffffffffffffffffffffffffff1673ffffffffffffffffffffffffffffffffffffffff168152602001908152602001600020905060005b818054905081101562001ca2573373ffffffffffffffffffffffffffffffffffffffff1682828154811062001c355762001c3462004523565b5b906000526020600020906009020160060160009054906101000a900473ffffffffffffffffffffffffffffffffffffffff1673ffffffffffffffffffffffffffffffffffffffff160362001c9457848062001c909062004978565b9550505b808060010191505062001bfb565b5050808060010191505062001b67565b5060008267ffffffffffffffff81111562001cd25762001cd162003d10565b5b60405190808252806020026020018201604052801562001d0f57816020015b62001cfb62003b90565b81526020019060019003908162001cf15790505b50905060005b600280549050811015620021ba5760008060006002848154811062001d3f5762001d3e62004523565b5b9060005260206000200160009054906101000a900473ffffffffffffffffffffffffffffffffffffffff1673ffffffffffffffffffffffffffffffffffffffff1673ffffffffffffffffffffffffffffffffffffffff168152602001908152602001600020905060005b8180549050811015620021aa573373ffffffffffffffffffffffffffffffffffffffff1682828154811062001de35762001de262004523565b5b906000526020600020906009020160060160009054906101000a900473ffffffffffffffffffffffffffffffffffffffff1673ffffffffffffffffffffffffffffffffffffffff16036200219c5781818154811062001e475762001e4662004523565b5b9060005260206000209060090201604051806101400160405290816000820154815260200160018201805462001e7d90620045f3565b80601f016020809104026020016040519081016040528092919081815260200182805462001eab90620045f3565b801562001efc5780601f1062001ed05761010080835404028352916020019162001efc565b820191906000526020600020905b81548152906001019060200180831162001ede57829003601f168201915b5050505050815260200160028201805462001f1790620045f3565b80601f016020809104026020016040519081016040528092919081815260200182805462001f4590620045f3565b801562001f965780601f1062001f6a5761010080835404028352916020019162001f96565b820191906000526020600020905b81548152906001019060200180831162001f7857829003601f168201915b505050505081526020016003820154815260200160048201805462001fbb90620045f3565b80601f016020809104026020016040519081016040528092919081815260200182805462001fe990620045f3565b80156200203a5780601f106200200e576101008083540402835291602001916200203a565b820191906000526020600020905b8154815290600101906020018083116200201c57829003601f168201915b50505050508152602001600582015481526020016006820160009054906101000a900473ffffffffffffffffffffffffffffffffffffffff1673ffffffffffffffffffffffffffffffffffffffff1673ffffffffffffffffffffffffffffffffffffffff1681526020016006820160149054906101000a900460ff161515151581526020016007820160009054906101000a900473ffffffffffffffffffffffffffffffffffffffff1673ffffffffffffffffffffffffffffffffffffffff1673ffffffffffffffffffffffffffffffffffffffff1681526020016008820160009054906101000a900473ffffffffffffffffffffffffffffffffffffffff1673ffffffffffffffffffffffffffffffffffffffff1673ffffffffffffffffffffffffffffffffffffffff168152505084868151811062002180576200217f62004523565b5b60200260200101819052508480620021989062004978565b9550505b808060010191505062001da9565b5050808060010191505062001d15565b5080935050505090565b60008060008373ffffffffffffffffffffffffffffffffffffffff1673ffffffffffffffffffffffffffffffffffffffff168152602001908152602001600020905060008080600090505b838054905081101562002266578584828154811062002233576200223262004523565b5b9060005260206000209060090201600001540362002258576001925080915062002266565b80806001019150506200220f565b5081620022aa576040517f08c379a0000000000000000000000000000000000000000000000000000000008152600401620022a19062004a15565b60405180910390fd5b828181548110620022c057620022bf62004523565b5b906000526020600020906009020160060160149054906101000a900460ff1662002321576040517f08c379a0000000000000000000000000000000000000000000000000000000008152600401620023189062004a87565b60405180910390fd5b3373ffffffffffffffffffffffffffffffffffffffff168382815481106200234e576200234d62004523565b5b906000526020600020906009020160060160009054906101000a900473ffffffffffffffffffffffffffffffffffffffff1673ffffffffffffffffffffffffffffffffffffffff1614620023d9576040517f08c379a0000000000000000000000000000000000000000000000000000000008152600401620023d09062004f58565b60405180910390fd5b610384838281548110620023f257620023f162004523565b5b906000526020600020906009020160070160009054906101000a900473ffffffffffffffffffffffffffffffffffffffff1673ffffffffffffffffffffffffffffffffffffffff16635b0222bb6040518163ffffffff1660e01b8152600401602060405180830381865afa1580156200246f573d6000803e3d6000fd5b505050506040513d601f19601f8201168201806040525081019062002495919062004f91565b620024a1919062004fc3565b421115620024e6576040517f08c379a0000000000000000000000000000000000000000000000000000000008152600401620024dd906200504e565b60405180910390fd5b6000838281548110620024fe57620024fd62004523565b5b906000526020600020906009020160060160146101000a81548160ff02191690831515021790555060008382815481106200253e576200253d62004523565b5b906000526020600020906009020160060160006101000a81548173ffffffffffffffffffffffffffffffffffffffff021916908373ffffffffffffffffffffffffffffffffffffffff160217905550828181548110620025a357620025a262004523565b5b906000526020600020906009020160070160009054906101000a900473ffffffffffffffffffffffffffffffffffffffff1673ffffffffffffffffffffffffffffffffffffffff1663be6cb8386040518163ffffffff1660e01b8152600401600060405180830381600087803b1580156200261d57600080fd5b505af115801562002632573d6000803e3d6000fd5b5050505060008382815481106200264e576200264d62004523565b5b906000526020600020906009020160070160006101000a81548173ffffffffffffffffffffffffffffffffffffffff021916908373ffffffffffffffffffffffffffffffffffffffff160217905550620027966040518060400160405280601881526020017f4f726465722063616e63656c65643a2025732062792025730000000000000000815250848381548110620026ed57620026ec62004523565b5b906000526020600020906009020160010180546200270b90620045f3565b80601f01602080910402602001604051908101604052809291908181526020018280546200273990620045f3565b80156200278a5780601f106200275e576101008083540402835291602001916200278a565b820191906000526020600020905b8154815290600101906020018083116200276c57829003601f168201915b50505050503362003aa2565b5050505050565b60606000803373ffffffffffffffffffffffffffffffffffffffff1673ffffffffffffffffffffffffffffffffffffffff168152602001908152602001600020805480602002602001604051908101604052809291908181526020016000905b8282101562002b3b578382906000526020600020906009020160405180610140016040529081600082015481526020016001820180546200283e90620045f3565b80601f01602080910402602001604051908101604052809291908181526020018280546200286c90620045f3565b8015620028bd5780601f106200289157610100808354040283529160200191620028bd565b820191906000526020600020905b8154815290600101906020018083116200289f57829003601f168201915b50505050508152602001600282018054620028d890620045f3565b80601f01602080910402602001604051908101604052809291908181526020018280546200290690620045f3565b8015620029575780601f106200292b5761010080835404028352916020019162002957565b820191906000526020600020905b8154815290600101906020018083116200293957829003601f168201915b50505050508152602001600382015481526020016004820180546200297c90620045f3565b80601f0160208091040260200160405190810160405280929190818152602001828054620029aa90620045f3565b8015620029fb5780601f10620029cf57610100808354040283529160200191620029fb565b820191906000526020600020905b815481529060010190602001808311620029dd57829003601f168201915b50505050508152602001600582015481526020016006820160009054906101000a900473ffffffffffffffffffffffffffffffffffffffff1673ffffffffffffffffffffffffffffffffffffffff1673ffffffffffffffffffffffffffffffffffffffff1681526020016006820160149054906101000a900460ff161515151581526020016007820160009054906101000a900473ffffffffffffffffffffffffffffffffffffffff1673ffffffffffffffffffffffffffffffffffffffff1673ffffffffffffffffffffffffffffffffffffffff1681526020016008820160009054906101000a900473ffffffffffffffffffffffffffffffffffffffff1673ffffffffffffffffffffffffffffffffffffffff1673ffffffffffffffffffffffffffffffffffffffff168152505081526020019060010190620027fd565b50505050905090565b606060008060005b60028054905081101562002d465760008060006002848154811062002b765762002b7562004523565b5b9060005260206000200160009054906101000a900473ffffffffffffffffffffffffffffffffffffffff1673ffffffffffffffffffffffffffffffffffffffff1673ffffffffffffffffffffffffffffffffffffffff168152602001908152602001600020905060005b818054905081101562002d365781818154811062002c035762002c0262004523565b5b906000526020600020906009020160060160149054906101000a900460ff16801562002d1157506003600481111562002c415762002c4062005070565b5b82828154811062002c575762002c5662004523565b5b906000526020600020906009020160070160009054906101000a900473ffffffffffffffffffffffffffffffffffffffff1673ffffffffffffffffffffffffffffffffffffffff1663afe010436040518163ffffffff1660e01b8152600401602060405180830381865afa15801562002cd4573d6000803e3d6000fd5b505050506040513d601f19601f8201168201806040525081019062002cfa9190620050c7565b600481111562002d0f5762002d0e62005070565b5b145b1562002d2857848062002d249062004978565b9550505b808060010191505062002be0565b5050808060010191505062002b4c565b5060008267ffffffffffffffff81111562002d665762002d6562003d10565b5b60405190808252806020026020018201604052801562002da357816020015b62002d8f62003b90565b81526020019060019003908162002d855790505b50905060005b600280549050811015620032fd5760008060006002848154811062002dd35762002dd262004523565b5b9060005260206000200160009054906101000a900473ffffffffffffffffffffffffffffffffffffffff1673ffffffffffffffffffffffffffffffffffffffff1673ffffffffffffffffffffffffffffffffffffffff168152602001908152602001600020905060005b8180549050811015620032ed5781818154811062002e605762002e5f62004523565b5b906000526020600020906009020160060160149054906101000a900460ff16801562002f6e57506003600481111562002e9e5762002e9d62005070565b5b82828154811062002eb45762002eb362004523565b5b906000526020600020906009020160070160009054906101000a900473ffffffffffffffffffffffffffffffffffffffff1673ffffffffffffffffffffffffffffffffffffffff1663afe010436040518163ffffffff1660e01b8152600401602060405180830381865afa15801562002f31573d6000803e3d6000fd5b505050506040513d601f19601f8201168201806040525081019062002f579190620050c7565b600481111562002f6c5762002f6b62005070565b5b145b15620032df5781818154811062002f8a5762002f8962004523565b5b9060005260206000209060090201604051806101400160405290816000820154815260200160018201805462002fc090620045f3565b80601f016020809104026020016040519081016040528092919081815260200182805462002fee90620045f3565b80156200303f5780601f1062003013576101008083540402835291602001916200303f565b820191906000526020600020905b8154815290600101906020018083116200302157829003601f168201915b505050505081526020016002820180546200305a90620045f3565b80601f01602080910402602001604051908101604052809291908181526020018280546200308890620045f3565b8015620030d95780601f10620030ad57610100808354040283529160200191620030d9565b820191906000526020600020905b815481529060010190602001808311620030bb57829003601f168201915b5050505050815260200160038201548152602001600482018054620030fe90620045f3565b80601f01602080910402602001604051908101604052809291908181526020018280546200312c90620045f3565b80156200317d5780601f1062003151576101008083540402835291602001916200317d565b820191906000526020600020905b8154815290600101906020018083116200315f57829003601f168201915b50505050508152602001600582015481526020016006820160009054906101000a900473ffffffffffffffffffffffffffffffffffffffff1673ffffffffffffffffffffffffffffffffffffffff1673ffffffffffffffffffffffffffffffffffffffff1681526020016006820160149054906101000a900460ff161515151581526020016007820160009054906101000a900473ffffffffffffffffffffffffffffffffffffffff1673ffffffffffffffffffffffffffffffffffffffff1673ffffffffffffffffffffffffffffffffffffffff1681526020016008820160009054906101000a900473ffffffffffffffffffffffffffffffffffffffff1673ffffffffffffffffffffffffffffffffffffffff1673ffffffffffffffffffffffffffffffffffffffff1681525050848681518110620032c357620032c262004523565b5b60200260200101819052508480620032db9062004978565b9550505b808060010191505062002e3d565b5050808060010191505062002da9565b5080935050505090565b606060008060005b60028054905081101562003433573373ffffffffffffffffffffffffffffffffffffffff16600282815481106200334b576200334a62004523565b5b9060005260206000200160009054906101000a900473ffffffffffffffffffffffffffffffffffffffff1673ffffffffffffffffffffffffffffffffffffffff1614620034255760008060028381548110620033ac57620033ab62004523565b5b9060005260206000200160009054906101000a900473ffffffffffffffffffffffffffffffffffffffff1673ffffffffffffffffffffffffffffffffffffffff1673ffffffffffffffffffffffffffffffffffffffff168152602001908152602001600020805490508362003422919062004fc3565b92505b80806001019150506200330f565b5060008267ffffffffffffffff81111562003453576200345262003d10565b5b6040519080825280602002602001820160405280156200349057816020015b6200347c62003b90565b815260200190600190039081620034725790505b50905060005b60028054905081101562003970573373ffffffffffffffffffffffffffffffffffffffff1660028281548110620034d257620034d162004523565b5b9060005260206000200160009054906101000a900473ffffffffffffffffffffffffffffffffffffffff1673ffffffffffffffffffffffffffffffffffffffff1614620039625760008060006002848154811062003535576200353462004523565b5b9060005260206000200160009054906101000a900473ffffffffffffffffffffffffffffffffffffffff1673ffffffffffffffffffffffffffffffffffffffff1673ffffffffffffffffffffffffffffffffffffffff168152602001908152602001600020905060005b81805490508110156200395f57818181548110620035c257620035c162004523565b5b906000526020600020906009020160060160149054906101000a900460ff166200395157818181548110620035fc57620035fb62004523565b5b906000526020600020906009020160405180610140016040529081600082015481526020016001820180546200363290620045f3565b80601f01602080910402602001604051908101604052809291908181526020018280546200366090620045f3565b8015620036b15780601f106200368557610100808354040283529160200191620036b1565b820191906000526020600020905b8154815290600101906020018083116200369357829003601f168201915b50505050508152602001600282018054620036cc90620045f3565b80601f0160208091040260200160405190810160405280929190818152602001828054620036fa90620045f3565b80156200374b5780601f106200371f576101008083540402835291602001916200374b565b820191906000526020600020905b8154815290600101906020018083116200372d57829003601f168201915b50505050508152602001600382015481526020016004820180546200377090620045f3565b80601f01602080910402602001604051908101604052809291908181526020018280546200379e90620045f3565b8015620037ef5780601f10620037c357610100808354040283529160200191620037ef565b820191906000526020600020905b815481529060010190602001808311620037d157829003601f168201915b50505050508152602001600582015481526020016006820160009054906101000a900473ffffffffffffffffffffffffffffffffffffffff1673ffffffffffffffffffffffffffffffffffffffff1673ffffffffffffffffffffffffffffffffffffffff1681526020016006820160149054906101000a900460ff161515151581526020016007820160009054906101000a900473ffffffffffffffffffffffffffffffffffffffff1673ffffffffffffffffffffffffffffffffffffffff1673ffffffffffffffffffffffffffffffffffffffff1681526020016008820160009054906101000a900473ffffffffffffffffffffffffffffffffffffffff1673ffffffffffffffffffffffffffffffffffffffff1673ffffffffffffffffffffffffffffffffffffffff168152505084868151811062003935576200393462004523565b5b602002602001018190525084806200394d9062004978565b9550505b80806001019150506200359f565b50505b808060010191505062003496565b50620039b26040518060400160405280600d81526020017f546f74616c204974656d733a20000000000000000000000000000000000000008152508462003a02565b620039f36040518060400160405280600f81526020017f43757272656e7420496e6465783a2000000000000000000000000000000000008152508362003a02565b80935050505090565b60015481565b62003a9e828260405160240162003a1b929190620050f9565b6040516020818303038152906040527fb60e72cc000000000000000000000000000000000000000000000000000000007bffffffffffffffffffffffffffffffffffffffffffffffffffffffff19166020820180517bffffffffffffffffffffffffffffffffffffffffffffffffffffffff838183161783525050505062003b45565b5050565b62003b4083838360405160240162003abd939291906200512d565b6040516020818303038152906040527f95ed0195000000000000000000000000000000000000000000000000000000007bffffffffffffffffffffffffffffffffffffffffffffffffffffffff19166020820180517bffffffffffffffffffffffffffffffffffffffffffffffffffffffff838183161783525050505062003b45565b505050565b62003b608162003b5862003b6362003b84565b63ffffffff16565b50565b60006a636f6e736f6c652e6c6f679050600080835160208501845afa505050565b62003c7b819050919050565b604051806101400160405280600081526020016060815260200160608152602001600081526020016060815260200160008152602001600073ffffffffffffffffffffffffffffffffffffffff168152602001600015158152602001600073ffffffffffffffffffffffffffffffffffffffff168152602001600073ffffffffffffffffffffffffffffffffffffffff1681525090565b50805462003c3590620045f3565b6000825580601f1062003c49575062003c6a565b601f01602090049060005260206000209081019062003c69919062003c87565b5b50565b612a9180620051a883390190565b62003c8562005178565b565b5b8082111562003ca257600081600090555060010162003c88565b5090565b6000604051905090565b600080fd5b600080fd5b6000819050919050565b62003ccf8162003cba565b811462003cdb57600080fd5b50565b60008135905062003cef8162003cc4565b92915050565b600080fd5b600080fd5b6000601f19601f8301169050919050565b7f4e487b7100000000000000000000000000000000000000000000000000000000600052604160045260246000fd5b62003d4a8262003cff565b810181811067ffffffffffffffff8211171562003d6c5762003d6b62003d10565b5b80604052505050565b600062003d8162003ca6565b905062003d8f828262003d3f565b919050565b600067ffffffffffffffff82111562003db25762003db162003d10565b5b62003dbd8262003cff565b9050602081019050919050565b82818337600083830152505050565b600062003df062003dea8462003d94565b62003d75565b90508281526020810184848401111562003e0f5762003e0e62003cfa565b5b62003e1c84828562003dca565b509392505050565b600082601f83011262003e3c5762003e3b62003cf5565b5b813562003e4e84826020860162003dd9565b91505092915050565b600080600080600060a0868803121562003e765762003e7562003cb0565b5b600062003e868882890162003cde565b955050602086013567ffffffffffffffff81111562003eaa5762003ea962003cb5565b5b62003eb88882890162003e24565b945050604086013567ffffffffffffffff81111562003edc5762003edb62003cb5565b5b62003eea8882890162003e24565b935050606062003efd8882890162003cde565b925050608086013567ffffffffffffffff81111562003f215762003f2062003cb5565b5b62003f2f8882890162003e24565b9150509295509295909350565b6000806000806080858703121562003f595762003f5862003cb0565b5b600085013567ffffffffffffffff81111562003f7a5762003f7962003cb5565b5b62003f888782880162003e24565b945050602085013567ffffffffffffffff81111562003fac5762003fab62003cb5565b5b62003fba8782880162003e24565b935050604062003fcd8782880162003cde565b925050606085013567ffffffffffffffff81111562003ff15762003ff062003cb5565b5b62003fff8782880162003e24565b91505092959194509250565b600081519050919050565b600082825260208201905092915050565b6000819050602082019050919050565b620040428162003cba565b82525050565b600081519050919050565b600082825260208201905092915050565b60005b838110156200408457808201518184015260208101905062004067565b60008484015250505050565b60006200409d8262004048565b620040a9818562004053565b9350620040bb81856020860162004064565b620040c68162003cff565b840191505092915050565b600073ffffffffffffffffffffffffffffffffffffffff82169050919050565b6000620040fe82620040d1565b9050919050565b6200411081620040f1565b82525050565b60008115159050919050565b6200412d8162004116565b82525050565b6000819050919050565b60006200415e620041586200415284620040d1565b62004133565b620040d1565b9050919050565b600062004172826200413d565b9050919050565b6000620041868262004165565b9050919050565b620041988162004179565b82525050565b600061014083016000830151620041b9600086018262004037565b5060208301518482036020860152620041d3828262004090565b91505060408301518482036040860152620041ef828262004090565b915050606083015162004206606086018262004037565b506080830151848203608086015262004220828262004090565b91505060a08301516200423760a086018262004037565b5060c08301516200424c60c086018262004105565b5060e08301516200426160e086018262004122565b50610100830151620042786101008601826200418d565b506101208301516200428f61012086018262004105565b508091505092915050565b6000620042a883836200419e565b905092915050565b6000602082019050919050565b6000620042ca826200400b565b620042d6818562004016565b935083602082028501620042ea8562004027565b8060005b858110156200432c57848403895281516200430a85826200429a565b94506200431783620042b0565b925060208a01995050600181019050620042ee565b50829750879550505050505092915050565b600060208201905081810360008301526200435a8184620042bd565b905092915050565b600080604083850312156200437c576200437b62003cb0565b5b60006200438c8582860162003cde565b925050602083013567ffffffffffffffff811115620043b057620043af62003cb5565b5b620043be8582860162003e24565b9150509250929050565b600060208284031215620043e157620043e062003cb0565b5b6000620043f18482850162003cde565b91505092915050565b6200440581620040f1565b81146200441157600080fd5b50565b6000813590506200442581620043fa565b92915050565b6000806040838503121562004445576200444462003cb0565b5b6000620044558582860162003cde565b9250506020620044688582860162004414565b9150509250929050565b6200447d8162003cba565b82525050565b60006020820190506200449a600083018462004472565b92915050565b600082825260208201905092915050565b7f496e76616c6964206974656d2049440000000000000000000000000000000000600082015250565b6000620044e9600f83620044a0565b9150620044f682620044b1565b602082019050919050565b600060208201905081810360008301526200451c81620044da565b9050919050565b7f4e487b7100000000000000000000000000000000000000000000000000000000600052603260045260246000fd5b7f4974656d20616c726561647920736f6c64000000000000000000000000000000600082015250565b60006200458a601183620044a0565b9150620045978262004552565b602082019050919050565b60006020820190508181036000830152620045bd816200457b565b9050919050565b7f4e487b7100000000000000000000000000000000000000000000000000000000600052602260045260246000fd5b600060028204905060018216806200460c57607f821691505b602082108103620046225762004621620045c4565b5b50919050565b60008190508160005260206000209050919050565b60006020601f8301049050919050565b600082821b905092915050565b6000600883026200468c7fffffffffffffffffffffffffffffffffffffffffffffffffffffffffffffffff826200464d565b6200469886836200464d565b95508019841693508086168417925050509392505050565b6000620046d1620046cb620046c58462003cba565b62004133565b62003cba565b9050919050565b6000819050919050565b620046ed83620046b0565b62004705620046fc82620046d8565b8484546200465a565b825550505050565b600090565b6200471c6200470d565b62004729818484620046e2565b505050565b5b8181101562004751576200474560008262004712565b6001810190506200472f565b5050565b601f821115620047a0576200476a8162004628565b62004775846200463d565b8101602085101562004785578190505b6200479d62004794856200463d565b8301826200472e565b50505b505050565b600082821c905092915050565b6000620047c560001984600802620047a5565b1980831691505092915050565b6000620047e08383620047b2565b9150826002028217905092915050565b620047fb8262004048565b67ffffffffffffffff81111562004817576200481662003d10565b5b620048238254620045f3565b6200483082828562004755565b600060209050601f83116001811462004868576000841562004853578287015190505b6200485f8582620047d2565b865550620048cf565b601f198416620048788662004628565b60005b82811015620048a2578489015182556001820191506020850194506020810190506200487b565b86831015620048c25784890151620048be601f891682620047b2565b8355505b6001600288020188555050505b505050505050565b7f4974656d20646f6573206e6f742062656c6f6e6720746f2073656e6465720000600082015250565b60006200490f601e83620044a0565b91506200491c82620048d7565b602082019050919050565b60006020820190508181036000830152620049428162004900565b9050919050565b7f4e487b7100000000000000000000000000000000000000000000000000000000600052601160045260246000fd5b6000620049858262003cba565b91507fffffffffffffffffffffffffffffffffffffffffffffffffffffffffffffffff8203620049ba57620049b962004949565b5b600182019050919050565b7f4974656d206e6f7420666f756e64000000000000000000000000000000000000600082015250565b6000620049fd600e83620044a0565b915062004a0a82620049c5565b602082019050919050565b6000602082019050818103600083015262004a3081620049ee565b9050919050565b7f4974656d20686173206e6f74206265656e207075726368617365640000000000600082015250565b600062004a6f601b83620044a0565b915062004a7c8262004a37565b602082019050919050565b6000602082019050818103600083015262004aa28162004a60565b9050919050565b7f4f6e6c792073656c6c65722063616e20736869702074686973206974656d0000600082015250565b600062004ae1601e83620044a0565b915062004aee8262004aa9565b602082019050919050565b6000602082019050818103600083015262004b148162004ad2565b9050919050565b600062004b288262004048565b62004b348185620044a0565b935062004b4681856020860162004064565b62004b518162003cff565b840191505092915050565b6000602082019050818103600083015262004b78818462004b1b565b905092915050565b7f4974656d20646f6573206e6f7420657869737400000000000000000000000000600082015250565b600062004bb8601383620044a0565b915062004bc58262004b80565b602082019050919050565b6000602082019050818103600083015262004beb8162004ba9565b9050919050565b600062004bff8262003cba565b915062004c0c8362003cba565b925082820390508181111562004c275762004c2662004949565b5b92915050565b60008154905062004c3e81620045f3565b9050919050565b81810362004c5557505062004d44565b62004c608262004c2d565b67ffffffffffffffff81111562004c7c5762004c7b62003d10565b5b62004c888254620045f3565b62004c9582828562004755565b6000601f83116001811462004cc9576000841562004cb4578287015490505b62004cc08582620047d2565b86555062004d3d565b601f19841662004cd98762004628565b965062004ce68662004628565b60005b8281101562004d105784890154825560018201915060018501945060208101905062004ce9565b8683101562004d30578489015462004d2c601f891682620047b2565b8355505b6001600288020188555050505b5050505050505b565b7f4e487b7100000000000000000000000000000000000000000000000000000000600052603160045260246000fd5b7f4f776e65722063616e206e6f742062757920746865206974656d2e0000000000600082015250565b600062004dad601b83620044a0565b915062004dba8262004d75565b602082019050919050565b6000602082019050818103600083015262004de08162004d9e565b9050919050565b7f496e636f727265637420616d6f756e74206f662065746865722f77656920736560008201527f6e742e0000000000000000000000000000000000000000000000000000000000602082015250565b600062004e45602383620044a0565b915062004e528262004de7565b604082019050919050565b6000602082019050818103600083015262004e788162004e36565b9050919050565b62004e8a81620040f1565b82525050565b600062004e9d82620040d1565b9050919050565b62004eaf8162004e90565b82525050565b600060408201905062004ecc600083018562004e7f565b62004edb602083018462004ea4565b9392505050565b7f4f6e6c79207468652062757965722063616e2063616e63656c20746865206f7260008201527f6465720000000000000000000000000000000000000000000000000000000000602082015250565b600062004f40602383620044a0565b915062004f4d8262004ee2565b604082019050919050565b6000602082019050818103600083015262004f738162004f31565b9050919050565b60008151905062004f8b8162003cc4565b92915050565b60006020828403121562004faa5762004fa962003cb0565b5b600062004fba8482850162004f7a565b91505092915050565b600062004fd08262003cba565b915062004fdd8362003cba565b925082820190508082111562004ff85762004ff762004949565b5b92915050565b7f43616e63656c6c6174696f6e20706572696f6420686173206578706972656400600082015250565b600062005036601f83620044a0565b9150620050438262004ffe565b602082019050919050565b60006020820190508181036000830152620050698162005027565b9050919050565b7f4e487b7100000000000000000000000000000000000000000000000000000000600052602160045260246000fd5b60058110620050ad57600080fd5b50565b600081519050620050c1816200509f565b92915050565b600060208284031215620050e057620050df62003cb0565b5b6000620050f084828501620050b0565b91505092915050565b6000604082019050818103600083015262005115818562004b1b565b905062005126602083018462004472565b9392505050565b6000606082019050818103600083015262005149818662004b1b565b905081810360208301526200515f818562004b1b565b905062005170604083018462004e7f565b949350505050565b7f4e487b7100000000000000000000000000000000000000000000000000000000600052605160045260246000fdfe608060405260405162002a9138038062002a9183398181016040528101906200002991906200028a565b816001806101000a81548173ffffffffffffffffffffffffffffffffffffffff021916908373ffffffffffffffffffffffffffffffffffffffff16021790555080600260006101000a81548173ffffffffffffffffffffffffffffffffffffffff021916908373ffffffffffffffffffffffffffffffffffffffff160217905550736a7d3230514ee0e8078f23cf65b367d9984b055a600360006101000a81548173ffffffffffffffffffffffffffffffffffffffff021916908373ffffffffffffffffffffffffffffffffffffffff1602179055506000600160006101000a81548160ff02191690836004811115620001285762000127620002d1565b5b02179055506000600560006101000a81548160ff02191690831515021790555042600081905550600480600181540180825580915050600190039060005260206000200160006040518060400160405280600c81526020017f4974656d20626f756768742e000000000000000000000000000000000000000081525090919091509081620001b791906200057a565b506000600860006101000a81548160ff021916908315150217905550505062000661565b600080fd5b600073ffffffffffffffffffffffffffffffffffffffff82169050919050565b60006200020d82620001e0565b9050919050565b6200021f8162000200565b81146200022b57600080fd5b50565b6000815190506200023f8162000214565b92915050565b60006200025282620001e0565b9050919050565b620002648162000245565b81146200027057600080fd5b50565b600081519050620002848162000259565b92915050565b60008060408385031215620002a457620002a3620001db565b5b6000620002b4858286016200022e565b9250506020620002c78582860162000273565b9150509250929050565b7f4e487b7100000000000000000000000000000000000000000000000000000000600052602160045260246000fd5b600081519050919050565b7f4e487b7100000000000000000000000000000000000000000000000000000000600052604160045260246000fd5b7f4e487b7100000000000000000000000000000000000000000000000000000000600052602260045260246000fd5b600060028204905060018216806200038257607f821691505b6020821081036200039857620003976200033a565b5b50919050565b60008190508160005260206000209050919050565b60006020601f8301049050919050565b600082821b905092915050565b600060088302620004027fffffffffffffffffffffffffffffffffffffffffffffffffffffffffffffffff82620003c3565b6200040e8683620003c3565b95508019841693508086168417925050509392505050565b6000819050919050565b6000819050919050565b60006200045b620004556200044f8462000426565b62000430565b62000426565b9050919050565b6000819050919050565b62000477836200043a565b6200048f620004868262000462565b848454620003d0565b825550505050565b600090565b620004a662000497565b620004b38184846200046c565b505050565b5b81811015620004db57620004cf6000826200049c565b600181019050620004b9565b5050565b601f8211156200052a57620004f4816200039e565b620004ff84620003b3565b810160208510156200050f578190505b620005276200051e85620003b3565b830182620004b8565b50505b505050565b600082821c905092915050565b60006200054f600019846008026200052f565b1980831691505092915050565b60006200056a83836200053c565b9150826002028217905092915050565b620005858262000300565b67ffffffffffffffff811115620005a157620005a06200030b565b5b620005ad825462000369565b620005ba828285620004df565b600060209050601f831160018114620005f25760008415620005dd578287015190505b620005e985826200055c565b86555062000659565b601f19841662000602866200039e565b60005b828110156200062c5784890151825560018201915060208501945060208101905062000605565b868310156200064c578489015162000648601f8916826200053c565b8355505b6001600288020188555050505b505050505050565b61242080620006716000396000f3fe608060405234801561001057600080fd5b506004361061010b5760003560e01c80638285074b116100a2578063c00ccd5411610071578063c00ccd541461024d578063d16f5b2914610269578063dd3fa13614610287578063df8d93b4146102a3578063eaaf0b63146102c15761010b565b80638285074b146101ed57806389e1e82a14610209578063afe0104314610225578063be6cb838146102435761010b565b80635b0222bb116100de5780635b0222bb146101775780635e10177b1461019557806364e6aa521461019f5780637150d8ae146101cf5761010b565b806308551a53146101105780631865c57d1461012e57806319561dae1461014f5780634fd6137c1461016d575b600080fd5b6101186102e1565b604051610125919061152b565b60405180910390f35b610136610307565b604051610146949392919061164d565b60405180910390f35b6101576104d6565b60405161016491906116a7565b60405180910390f35b610175610564565b005b61017f610717565b60405161018c91906116e2565b60405180910390f35b61019d61071d565b005b6101b960048036038101906101b4919061173d565b61091e565b6040516101c691906116a7565b60405180910390f35b6101d76109ca565b6040516101e4919061178b565b60405180910390f35b610207600480360381019061020291906118db565b6109ee565b005b610223600480360381019061021e919061195c565b610ba7565b005b61022d610e66565b60405161023a9190611989565b60405180910390f35b61024b610e79565b005b610267600480360381019061026291906118db565b610ee2565b005b61027161104c565b60405161027e91906119b3565b60405180910390f35b6102a1600480360381019061029c91906118db565b61105f565b005b6102ab61125b565b6040516102b891906116a7565b60405180910390f35b6102c96112e9565b6040516102d893929190611ada565b60405180910390f35b600260009054906101000a900473ffffffffffffffffffffffffffffffffffffffff1681565b60006060806060600160009054906101000a900460ff1660096006600782805461033090611b55565b80601f016020809104026020016040519081016040528092919081815260200182805461035c90611b55565b80156103a95780601f1061037e576101008083540402835291602001916103a9565b820191906000526020600020905b81548152906001019060200180831161038c57829003601f168201915b505050505092508180546103bc90611b55565b80601f01602080910402602001604051908101604052809291908181526020018280546103e890611b55565b80156104355780601f1061040a57610100808354040283529160200191610435565b820191906000526020600020905b81548152906001019060200180831161041857829003601f168201915b5050505050915080805461044890611b55565b80601f016020809104026020016040519081016040528092919081815260200182805461047490611b55565b80156104c15780601f10610496576101008083540402835291602001916104c1565b820191906000526020600020905b8154815290600101906020018083116104a457829003601f168201915b50505050509050935093509350935090919293565b600680546104e390611b55565b80601f016020809104026020016040519081016040528092919081815260200182805461050f90611b55565b801561055c5780601f106105315761010080835404028352916020019161055c565b820191906000526020600020905b81548152906001019060200180831161053f57829003601f168201915b505050505081565b60018054906101000a900473ffffffffffffffffffffffffffffffffffffffff1673ffffffffffffffffffffffffffffffffffffffff163373ffffffffffffffffffffffffffffffffffffffff16146105f2576040517f08c379a00000000000000000000000000000000000000000000000000000000081526004016105e990611bd2565b60405180910390fd5b6001600481111561060657610605611546565b5b600160009054906101000a900460ff16600481111561062857610627611546565b5b14610668576040517f08c379a000000000000000000000000000000000000000000000000000000000815260040161065f90611c64565b60405180910390fd5b6003600160006101000a81548160ff0219169083600481111561068e5761068d611546565b5b02179055506001600860006101000a81548160ff021916908315150217905550600480600181540180825580915050600190039060005260206000200160006040518060400160405280601c81526020017f44697370757465206f70656e6564206279207468652062757965722e00000000815250909190915090816107149190611e30565b50565b60005481565b60018054906101000a900473ffffffffffffffffffffffffffffffffffffffff1673ffffffffffffffffffffffffffffffffffffffff163373ffffffffffffffffffffffffffffffffffffffff16146107ab576040517f08c379a00000000000000000000000000000000000000000000000000000000081526004016107a290611bd2565b60405180910390fd5b600160048111156107bf576107be611546565b5b600160009054906101000a900460ff1660048111156107e1576107e0611546565b5b14610821576040517f08c379a000000000000000000000000000000000000000000000000000000000815260040161081890611f4e565b60405180910390fd5b600260009054906101000a900473ffffffffffffffffffffffffffffffffffffffff1673ffffffffffffffffffffffffffffffffffffffff166108fc479081150290604051600060405180830381858888f19350505050158015610889573d6000803e3d6000fd5b506002600160006101000a81548160ff021916908360048111156108b0576108af611546565b5b0217905550600480600181540180825580915050600190039060005260206000200160006040518060400160405280601b81526020017f4974656d207265636965766564206279207468652062757965722e00000000008152509091909150908161091b9190611e30565b50565b6004818154811061092e57600080fd5b90600052602060002001600091509050805461094990611b55565b80601f016020809104026020016040519081016040528092919081815260200182805461097590611b55565b80156109c25780601f10610997576101008083540402835291602001916109c2565b820191906000526020600020905b8154815290600101906020018083116109a557829003601f168201915b505050505081565b60018054906101000a900473ffffffffffffffffffffffffffffffffffffffff1681565b60018054906101000a900473ffffffffffffffffffffffffffffffffffffffff1673ffffffffffffffffffffffffffffffffffffffff163373ffffffffffffffffffffffffffffffffffffffff1614610a7c576040517f08c379a0000000000000000000000000000000000000000000000000000000008152600401610a7390611bd2565b60405180910390fd5b60036004811115610a9057610a8f611546565b5b600160009054906101000a900460ff166004811115610ab257610ab1611546565b5b14610af2576040517f08c379a0000000000000000000000000000000000000000000000000000000008152600401610ae990611fba565b60405180910390fd5b600060078054610b0190611b55565b905014610b43576040517f08c379a0000000000000000000000000000000000000000000000000000000008152600401610b3a90612026565b60405180910390fd5b600060068054610b5290611b55565b905011610b94576040517f08c379a0000000000000000000000000000000000000000000000000000000008152600401610b8b90612092565b60405180910390fd5b8060079081610ba39190611e30565b5050565b600360009054906101000a900473ffffffffffffffffffffffffffffffffffffffff1673ffffffffffffffffffffffffffffffffffffffff163373ffffffffffffffffffffffffffffffffffffffff1614610c37576040517f08c379a0000000000000000000000000000000000000000000000000000000008152600401610c2e90612124565b60405180910390fd5b60036004811115610c4b57610c4a611546565b5b600160009054906101000a900460ff166004811115610c6d57610c6c611546565b5b14610cad576040517f08c379a0000000000000000000000000000000000000000000000000000000008152600401610ca490611fba565b60405180910390fd5b8015610d695760018054906101000a900473ffffffffffffffffffffffffffffffffffffffff1673ffffffffffffffffffffffffffffffffffffffff166108fc479081150290604051600060405180830381858888f19350505050158015610d19573d6000803e3d6000fd5b50600480600181540180825580915050600190039060005260206000200160006040518060600160405280602381526020016123c86023913990919091509081610d639190611e30565b50610e1d565b600260009054906101000a900473ffffffffffffffffffffffffffffffffffffffff1673ffffffffffffffffffffffffffffffffffffffff166108fc479081150290604051600060405180830381858888f19350505050158015610dd1573d6000803e3d6000fd5b50600480600181540180825580915050600190039060005260206000200160006040518060600160405280602481526020016123a46024913990919091509081610e1b9190611e30565b505b6004600160006101000a81548160ff02191690836004811115610e4357610e42611546565b5b02179055506000600860006101000a81548160ff02191690831515021790555050565b600160009054906101000a900460ff1681565b60018054906101000a900473ffffffffffffffffffffffffffffffffffffffff1673ffffffffffffffffffffffffffffffffffffffff166108fc479081150290604051600060405180830381858888f19350505050158015610edf573d6000803e3d6000fd5b50565b600260009054906101000a900473ffffffffffffffffffffffffffffffffffffffff1673ffffffffffffffffffffffffffffffffffffffff163373ffffffffffffffffffffffffffffffffffffffff1614610f72576040517f08c379a0000000000000000000000000000000000000000000000000000000008152600401610f6990612190565b60405180910390fd5b60036004811115610f8657610f85611546565b5b600160009054906101000a900460ff166004811115610fa857610fa7611546565b5b14610fe8576040517f08c379a0000000000000000000000000000000000000000000000000000000008152600401610fdf90611fba565b60405180910390fd5b600060068054610ff790611b55565b905014611039576040517f08c379a000000000000000000000000000000000000000000000000000000000815260040161103090612222565b60405180910390fd5b80600690816110489190611e30565b5050565b600860009054906101000a900460ff1681565b600260009054906101000a900473ffffffffffffffffffffffffffffffffffffffff1673ffffffffffffffffffffffffffffffffffffffff163373ffffffffffffffffffffffffffffffffffffffff16146110ef576040517f08c379a00000000000000000000000000000000000000000000000000000000081526004016110e690612190565b60405180910390fd5b6000600481111561110357611102611546565b5b600160009054906101000a900460ff16600481111561112557611124611546565b5b14611165576040517f08c379a000000000000000000000000000000000000000000000000000000000815260040161115c9061228e565b60405180910390fd5b61038460005461117591906122dd565b4210156111b7576040517f08c379a00000000000000000000000000000000000000000000000000000000081526004016111ae90612383565b60405180910390fd5b60018060006101000a81548160ff021916908360048111156111dc576111db611546565b5b021790555080600990816111f09190611e30565b50600480600181540180825580915050600190039060005260206000200160006040518060400160405280601881526020017f4974656d2073656e74206279207468652073656c6c65722e0000000000000000815250909190915090816112579190611e30565b5050565b6007805461126890611b55565b80601f016020809104026020016040519081016040528092919081815260200182805461129490611b55565b80156112e15780601f106112b6576101008083540402835291602001916112e1565b820191906000526020600020905b8154815290600101906020018083116112c457829003601f168201915b505050505081565b606080606060046006600782805480602002602001604051908101604052809291908181526020016000905b828210156113c157838290600052602060002001805461133490611b55565b80601f016020809104026020016040519081016040528092919081815260200182805461136090611b55565b80156113ad5780601f10611382576101008083540402835291602001916113ad565b820191906000526020600020905b81548152906001019060200180831161139057829003601f168201915b505050505081526020019060010190611315565b5050505092508180546113d390611b55565b80601f01602080910402602001604051908101604052809291908181526020018280546113ff90611b55565b801561144c5780601f106114215761010080835404028352916020019161144c565b820191906000526020600020905b81548152906001019060200180831161142f57829003601f168201915b5050505050915080805461145f90611b55565b80601f016020809104026020016040519081016040528092919081815260200182805461148b90611b55565b80156114d85780601f106114ad576101008083540402835291602001916114d8565b820191906000526020600020905b8154815290600101906020018083116114bb57829003601f168201915b50505050509050925092509250909192565b600073ffffffffffffffffffffffffffffffffffffffff82169050919050565b6000611515826114ea565b9050919050565b6115258161150a565b82525050565b6000602082019050611540600083018461151c565b92915050565b7f4e487b7100000000000000000000000000000000000000000000000000000000600052602160045260246000fd5b6005811061158657611585611546565b5b50565b600081905061159782611575565b919050565b60006115a782611589565b9050919050565b6115b78161159c565b82525050565b600081519050919050565b600082825260208201905092915050565b60005b838110156115f75780820151818401526020810190506115dc565b60008484015250505050565b6000601f19601f8301169050919050565b600061161f826115bd565b61162981856115c8565b93506116398185602086016115d9565b61164281611603565b840191505092915050565b600060808201905061166260008301876115ae565b81810360208301526116748186611614565b905081810360408301526116888185611614565b9050818103606083015261169c8184611614565b905095945050505050565b600060208201905081810360008301526116c18184611614565b905092915050565b6000819050919050565b6116dc816116c9565b82525050565b60006020820190506116f760008301846116d3565b92915050565b6000604051905090565b600080fd5b600080fd5b61171a816116c9565b811461172557600080fd5b50565b60008135905061173781611711565b92915050565b60006020828403121561175357611752611707565b5b600061176184828501611728565b91505092915050565b6000611775826114ea565b9050919050565b6117858161176a565b82525050565b60006020820190506117a0600083018461177c565b92915050565b600080fd5b600080fd5b7f4e487b7100000000000000000000000000000000000000000000000000000000600052604160045260246000fd5b6117e882611603565b810181811067ffffffffffffffff82111715611807576118066117b0565b5b80604052505050565b600061181a6116fd565b905061182682826117df565b919050565b600067ffffffffffffffff821115611846576118456117b0565b5b61184f82611603565b9050602081019050919050565b82818337600083830152505050565b600061187e6118798461182b565b611810565b90508281526020810184848401111561189a576118996117ab565b5b6118a584828561185c565b509392505050565b600082601f8301126118c2576118c16117a6565b5b81356118d284826020860161186b565b91505092915050565b6000602082840312156118f1576118f0611707565b5b600082013567ffffffffffffffff81111561190f5761190e61170c565b5b61191b848285016118ad565b91505092915050565b60008115159050919050565b61193981611924565b811461194457600080fd5b50565b60008135905061195681611930565b92915050565b60006020828403121561197257611971611707565b5b600061198084828501611947565b91505092915050565b600060208201905061199e60008301846115ae565b92915050565b6119ad81611924565b82525050565b60006020820190506119c860008301846119a4565b92915050565b600081519050919050565b600082825260208201905092915050565b6000819050602082019050919050565b600082825260208201905092915050565b6000611a16826115bd565b611a2081856119fa565b9350611a308185602086016115d9565b611a3981611603565b840191505092915050565b6000611a508383611a0b565b905092915050565b6000602082019050919050565b6000611a70826119ce565b611a7a81856119d9565b935083602082028501611a8c856119ea565b8060005b85811015611ac85784840389528151611aa98582611a44565b9450611ab483611a58565b925060208a01995050600181019050611a90565b50829750879550505050505092915050565b60006060820190508181036000830152611af48186611a65565b90508181036020830152611b088185611614565b90508181036040830152611b1c8184611614565b9050949350505050565b7f4e487b7100000000000000000000000000000000000000000000000000000000600052602260045260246000fd5b60006002820490506001821680611b6d57607f821691505b602082108103611b8057611b7f611b26565b5b50919050565b7f4f6e6c792062757965722063616e2063616c6c2074686973206d6574686f6400600082015250565b6000611bbc601f836115c8565b9150611bc782611b86565b602082019050919050565b60006020820190508181036000830152611beb81611baf565b9050919050565b7f43616e6e6f74206f70656e20646973707574652061742074686973207374616760008201527f6500000000000000000000000000000000000000000000000000000000000000602082015250565b6000611c4e6021836115c8565b9150611c5982611bf2565b604082019050919050565b60006020820190508181036000830152611c7d81611c41565b9050919050565b60008190508160005260206000209050919050565b60006020601f8301049050919050565b600082821b905092915050565b600060088302611ce67fffffffffffffffffffffffffffffffffffffffffffffffffffffffffffffffff82611ca9565b611cf08683611ca9565b95508019841693508086168417925050509392505050565b6000819050919050565b6000611d2d611d28611d23846116c9565b611d08565b6116c9565b9050919050565b6000819050919050565b611d4783611d12565b611d5b611d5382611d34565b848454611cb6565b825550505050565b600090565b611d70611d63565b611d7b818484611d3e565b505050565b5b81811015611d9f57611d94600082611d68565b600181019050611d81565b5050565b601f821115611de457611db581611c84565b611dbe84611c99565b81016020851015611dcd578190505b611de1611dd985611c99565b830182611d80565b50505b505050565b600082821c905092915050565b6000611e0760001984600802611de9565b1980831691505092915050565b6000611e208383611df6565b9150826002028217905092915050565b611e39826115bd565b67ffffffffffffffff811115611e5257611e516117b0565b5b611e5c8254611b55565b611e67828285611da3565b600060209050601f831160018114611e9a5760008415611e88578287015190505b611e928582611e14565b865550611efa565b601f198416611ea886611c84565b60005b82811015611ed057848901518255600182019150602085019450602081019050611eab565b86831015611eed5784890151611ee9601f891682611df6565b8355505b6001600288020188555050505b505050505050565b7f43616e6e6f7420636f6e6669726d2064656c6976657279000000000000000000600082015250565b6000611f386017836115c8565b9150611f4382611f02565b602082019050919050565b60006020820190508181036000830152611f6781611f2b565b9050919050565b7f4e6f206163746976652064697370757465000000000000000000000000000000600082015250565b6000611fa46011836115c8565b9150611faf82611f6e565b602082019050919050565b60006020820190508181036000830152611fd381611f97565b9050919050565b7f50726f6f6620616c7265616479207375626d6974746564206279206275796572600082015250565b60006120106020836115c8565b915061201b82611fda565b602082019050919050565b6000602082019050818103600083015261203f81612003565b9050919050565b7f53656c6c6572206d757374207375626d69742070726f6f662066697273740000600082015250565b600061207c601e836115c8565b915061208782612046565b602082019050919050565b600060208201905081810360008301526120ab8161206f565b9050919050565b7f4f6e6c792061726269747261746f722063616e2063616c6c2074686973206d6560008201527f74686f6400000000000000000000000000000000000000000000000000000000602082015250565b600061210e6024836115c8565b9150612119826120b2565b604082019050919050565b6000602082019050818103600083015261213d81612101565b9050919050565b7f4f6e6c792073656c6c65722063616e2063616c6c2074686973206d6574686f64600082015250565b600061217a6020836115c8565b915061218582612144565b602082019050919050565b600060208201905081810360008301526121a98161216d565b9050919050565b7f50726f6f6620616c7265616479207375626d69747465642062792073656c6c6560008201527f7200000000000000000000000000000000000000000000000000000000000000602082015250565b600061220c6021836115c8565b9150612217826121b0565b604082019050919050565b6000602082019050818103600083015261223b816121ff565b9050919050565b7f43616e6e6f7420736869702e20496e636f7272656374207374617475732e0000600082015250565b6000612278601e836115c8565b915061228382612242565b602082019050919050565b600060208201905081810360008301526122a78161226b565b9050919050565b7f4e487b7100000000000000000000000000000000000000000000000000000000600052601160045260246000fd5b60006122e8826116c9565b91506122f3836116c9565b925082820190508082111561230b5761230a6122ae565b5b92915050565b7f43616e6e6f742073686970206265666f72652031352d6d696e7574652063616e60008201527f63656c6c6174696f6e20706572696f642068617320656c61707365642e000000602082015250565b600061236d603d836115c8565b915061237882612311565b604082019050919050565b6000602082019050818103600083015261239c81612360565b905091905056fe4469737075746520636c6f7365642e2053656c6c65722077617320726566756e6465642e4469737075746520636c6f7365642e2042757965722077617320726566756e6465642ea2646970667358221220f8b0a5c05cb6f381141de9eb0279e771f1716d07c7a1947d1c451bdd117d4be164736f6c63430008180033a264697066735822122082d0f6c9c516221ba18ad5573ebba2a3a6d907e28ba59de9ba57795d5fd7121d64736f6c63430008180033",
  "devdoc": {
    "kind": "dev",
    "methods": {},
    "version": 1
  },
  "userdoc": {
    "kind": "user",
    "methods": {},
    "version": 1
  },
  "storageLayout": {
    "storage": [
      {
        "astId": 436,
        "contract": "contracts/Item.sol:Item",
        "label": "items",
        "offset": 0,
        "slot": "0",
        "type": "t_mapping(t_address,t_array(t_struct(ItemStruct)430_storage)dyn_storage)"
      },
      {
        "astId": 438,
        "contract": "contracts/Item.sol:Item",
        "label": "itemsCount",
        "offset": 0,
        "slot": "1",
        "type": "t_uint256"
      },
      {
        "astId": 441,
        "contract": "contracts/Item.sol:Item",
        "label": "sellers",
        "offset": 0,
        "slot": "2",
        "type": "t_array(t_address)dyn_storage"
      }
    ],
    "types": {
      "t_address": {
        "encoding": "inplace",
        "label": "address",
        "numberOfBytes": "20"
      },
      "t_array(t_address)dyn_storage": {
        "base": "t_address",
        "encoding": "dynamic_array",
        "label": "address[]",
        "numberOfBytes": "32"
      },
      "t_array(t_struct(ItemStruct)430_storage)dyn_storage": {
        "base": "t_struct(ItemStruct)430_storage",
        "encoding": "dynamic_array",
        "label": "struct Item.ItemStruct[]",
        "numberOfBytes": "32"
      },
      "t_bool": {
        "encoding": "inplace",
        "label": "bool",
        "numberOfBytes": "1"
      },
      "t_contract(Escrow)404": {
        "encoding": "inplace",
        "label": "contract Escrow",
        "numberOfBytes": "20"
      },
      "t_mapping(t_address,t_array(t_struct(ItemStruct)430_storage)dyn_storage)": {
        "encoding": "mapping",
        "key": "t_address",
        "label": "mapping(address => struct Item.ItemStruct[])",
        "numberOfBytes": "32",
        "value": "t_array(t_struct(ItemStruct)430_storage)dyn_storage"
      },
      "t_string_storage": {
        "encoding": "bytes",
        "label": "string",
        "numberOfBytes": "32"
      },
      "t_struct(ItemStruct)430_storage": {
        "encoding": "inplace",
        "label": "struct Item.ItemStruct",
        "members": [
          {
            "astId": 410,
            "contract": "contracts/Item.sol:Item",
            "label": "itemId",
            "offset": 0,
            "slot": "0",
            "type": "t_uint256"
          },
          {
            "astId": 412,
            "contract": "contracts/Item.sol:Item",
            "label": "title",
            "offset": 0,
            "slot": "1",
            "type": "t_string_storage"
          },
          {
            "astId": 414,
            "contract": "contracts/Item.sol:Item",
            "label": "description",
            "offset": 0,
            "slot": "2",
            "type": "t_string_storage"
          },
          {
            "astId": 416,
            "contract": "contracts/Item.sol:Item",
            "label": "price",
            "offset": 0,
            "slot": "3",
            "type": "t_uint256"
          },
          {
            "astId": 418,
            "contract": "contracts/Item.sol:Item",
            "label": "image",
            "offset": 0,
            "slot": "4",
            "type": "t_string_storage"
          },
          {
            "astId": 420,
            "contract": "contracts/Item.sol:Item",
            "label": "createdAt",
            "offset": 0,
            "slot": "5",
            "type": "t_uint256"
          },
          {
            "astId": 422,
            "contract": "contracts/Item.sol:Item",
            "label": "buyer",
            "offset": 0,
            "slot": "6",
            "type": "t_address"
          },
          {
            "astId": 424,
            "contract": "contracts/Item.sol:Item",
            "label": "hasBuyer",
            "offset": 20,
            "slot": "6",
            "type": "t_bool"
          },
          {
            "astId": 427,
            "contract": "contracts/Item.sol:Item",
            "label": "escrow",
            "offset": 0,
            "slot": "7",
            "type": "t_contract(Escrow)404"
          },
          {
            "astId": 429,
            "contract": "contracts/Item.sol:Item",
            "label": "seller",
            "offset": 0,
            "slot": "8",
            "type": "t_address"
          }
        ],
        "numberOfBytes": "288"
      },
      "t_uint256": {
        "encoding": "inplace",
        "label": "uint256",
        "numberOfBytes": "32"
      }
    }
  }
}