{
  "address": "0xE3CBADc94bEA5898De87C5C0cfd5a3FAEe6882C8",
  "abi": [
    {
      "inputs": [
        {
          "internalType": "string",
          "name": "_title",
          "type": "string"
        },
        {
          "internalType": "string",
          "name": "_description",
          "type": "string"
        },
        {
          "internalType": "uint256",
          "name": "_price",
          "type": "uint256"
        },
        {
          "internalType": "string",
          "name": "_image",
          "type": "string"
        }
      ],
      "name": "addItem",
      "outputs": [],
      "stateMutability": "nonpayable",
      "type": "function"
    },
    {
      "inputs": [],
      "name": "browseItems",
      "outputs": [
        {
          "components": [
            {
              "internalType": "uint256",
              "name": "itemId",
              "type": "uint256"
            },
            {
              "internalType": "string",
              "name": "title",
              "type": "string"
            },
            {
              "internalType": "string",
              "name": "description",
              "type": "string"
            },
            {
              "internalType": "uint256",
              "name": "price",
              "type": "uint256"
            },
            {
              "internalType": "string",
              "name": "image",
              "type": "string"
            },
            {
              "internalType": "uint256",
              "name": "createdAt",
              "type": "uint256"
            },
            {
              "internalType": "address",
              "name": "buyer",
              "type": "address"
            },
            {
              "internalType": "bool",
              "name": "hasBuyer",
              "type": "bool"
            },
            {
              "internalType": "contract Escrow",
              "name": "escrow",
              "type": "address"
            }
          ],
          "internalType": "struct Item.ItemStruct[]",
          "name": "",
          "type": "tuple[]"
        }
      ],
      "stateMutability": "view",
      "type": "function"
    },
    {
      "inputs": [
        {
          "internalType": "uint256",
          "name": "_itemId",
          "type": "uint256"
        }
      ],
      "name": "deleteItem",
      "outputs": [],
      "stateMutability": "nonpayable",
      "type": "function"
    },
    {
      "inputs": [
        {
          "internalType": "uint256",
          "name": "_itemId",
          "type": "uint256"
        },
        {
          "internalType": "string",
          "name": "_title",
          "type": "string"
        },
        {
          "internalType": "string",
          "name": "_description",
          "type": "string"
        },
        {
          "internalType": "uint256",
          "name": "_price",
          "type": "uint256"
        },
        {
          "internalType": "string",
          "name": "_image",
          "type": "string"
        }
      ],
      "name": "editItem",
      "outputs": [],
      "stateMutability": "nonpayable",
      "type": "function"
    },
    {
      "inputs": [],
      "name": "itemsCount",
      "outputs": [
        {
          "internalType": "uint256",
          "name": "",
          "type": "uint256"
        }
      ],
      "stateMutability": "view",
      "type": "function"
    },
    {
      "inputs": [],
      "name": "retrieveUserItems",
      "outputs": [
        {
          "components": [
            {
              "internalType": "uint256",
              "name": "itemId",
              "type": "uint256"
            },
            {
              "internalType": "string",
              "name": "title",
              "type": "string"
            },
            {
              "internalType": "string",
              "name": "description",
              "type": "string"
            },
            {
              "internalType": "uint256",
              "name": "price",
              "type": "uint256"
            },
            {
              "internalType": "string",
              "name": "image",
              "type": "string"
            },
            {
              "internalType": "uint256",
              "name": "createdAt",
              "type": "uint256"
            },
            {
              "internalType": "address",
              "name": "buyer",
              "type": "address"
            },
            {
              "internalType": "bool",
              "name": "hasBuyer",
              "type": "bool"
            },
            {
              "internalType": "contract Escrow",
              "name": "escrow",
              "type": "address"
            }
          ],
          "internalType": "struct Item.ItemStruct[]",
          "name": "",
          "type": "tuple[]"
        }
      ],
      "stateMutability": "view",
      "type": "function"
    }
  ],
  "transactionHash": "0x5c26f7ab50202b2774e8f0ffc76e894bb2af1717c42a10775ce07ccea3af1616",
  "args": [],
  "numDeployments": 12,
  "solcInputHash": "572176b9af32bfcedd152d6273451443",
  "bytecode": "0x608060405234801561001057600080fd5b50612480806100206000396000f3fe608060405234801561001057600080fd5b50600436106100625760003560e01c80630461459a1461006757806313df81d614610083578063654fc8331461009f5780639ab7e23b146100bb578063dbc37670146100d9578063e2c03ace146100f7575b600080fd5b610081600480360381019061007c9190611801565b610115565b005b61009d600480360381019061009891906118d0565b610374565b005b6100b960048036038101906100b4919061198b565b61062a565b005b6100c3610b4e565b6040516100d09190611c96565b60405180910390f35b6100e1610e85565b6040516100ee9190611c96565b60405180910390f35b6100ff6114a8565b60405161010c9190611cc7565b60405180910390f35b60008511801561012757506001548511155b610166576040517f08c379a000000000000000000000000000000000000000000000000000000000815260040161015d90611d3f565b60405180910390fd5b60008060003373ffffffffffffffffffffffffffffffffffffffff1673ffffffffffffffffffffffffffffffffffffffff16815260200190815260200160002090506000805b828054905081101561032a57878382815481106101cc576101cb611d5f565b5b9060005260206000209060080201600001540361031d57600191508281815481106101fa576101f9611d5f565b5b906000526020600020906008020160060160149054906101000a900460ff1615610259576040517f08c379a000000000000000000000000000000000000000000000000000000000815260040161025090611dda565b60405180910390fd5b8683828154811061026d5761026c611d5f565b5b9060005260206000209060080201600101908161028a9190611ffc565b508583828154811061029f5761029e611d5f565b5b906000526020600020906008020160020190816102bc9190611ffc565b50848382815481106102d1576102d0611d5f565b5b906000526020600020906008020160030181905550838382815481106102fa576102f9611d5f565b5b906000526020600020906008020160040190816103179190611ffc565b5061032a565b80806001019150506101ac565b508061036b576040517f08c379a00000000000000000000000000000000000000000000000000000000081526004016103629061211a565b60405180910390fd5b50505050505050565b60008060003373ffffffffffffffffffffffffffffffffffffffff1673ffffffffffffffffffffffffffffffffffffffff1681526020019081526020016000208054905003610421576002339080600181540180825580915050600190039060005260206000200160009091909190916101000a81548173ffffffffffffffffffffffffffffffffffffffff021916908373ffffffffffffffffffffffffffffffffffffffff1602179055505b6001600081548092919061043490612169565b91905055506000803373ffffffffffffffffffffffffffffffffffffffff1673ffffffffffffffffffffffffffffffffffffffff1681526020019081526020016000206040518061012001604052806001548152602001868152602001858152602001848152602001838152602001428152602001600073ffffffffffffffffffffffffffffffffffffffff168152602001600015158152602001600073ffffffffffffffffffffffffffffffffffffffff1681525090806001815401808255809150506001900390600052602060002090600802016000909190919091506000820151816000015560208201518160010190816105329190611ffc565b5060408201518160020190816105489190611ffc565b506060820151816003015560808201518160040190816105689190611ffc565b5060a0820151816005015560c08201518160060160006101000a81548173ffffffffffffffffffffffffffffffffffffffff021916908373ffffffffffffffffffffffffffffffffffffffff16021790555060e08201518160060160146101000a81548160ff0219169083151502179055506101008201518160070160006101000a81548173ffffffffffffffffffffffffffffffffffffffff021916908373ffffffffffffffffffffffffffffffffffffffff160217905550505050505050565b6000803373ffffffffffffffffffffffffffffffffffffffff1673ffffffffffffffffffffffffffffffffffffffff1681526020019081526020016000208054905081106106ad576040517f08c379a00000000000000000000000000000000000000000000000000000000081526004016106a4906121fd565b60405180910390fd5b60008060003373ffffffffffffffffffffffffffffffffffffffff1673ffffffffffffffffffffffffffffffffffffffff16815260200190815260200160002082815481106106ff576106fe611d5f565b5b906000526020600020906008020190508060060160149054906101000a900460ff1615610761576040517f08c379a000000000000000000000000000000000000000000000000000000000815260040161075890611dda565b60405180910390fd5b600060016000803373ffffffffffffffffffffffffffffffffffffffff1673ffffffffffffffffffffffffffffffffffffffff168152602001908152602001600020805490506107b1919061221d565b9050808314610a38576000803373ffffffffffffffffffffffffffffffffffffffff1673ffffffffffffffffffffffffffffffffffffffff168152602001908152602001600020818154811061080a57610809611d5f565b5b90600052602060002090600802016000803373ffffffffffffffffffffffffffffffffffffffff1673ffffffffffffffffffffffffffffffffffffffff168152602001908152602001600020848154811061086857610867611d5f565b5b906000526020600020906008020160008201548160000155600182018160010190816108949190612267565b50600282018160020190816108a99190612267565b5060038201548160030155600482018160040190816108c89190612267565b50600582015481600501556006820160009054906101000a900473ffffffffffffffffffffffffffffffffffffffff168160060160006101000a81548173ffffffffffffffffffffffffffffffffffffffff021916908373ffffffffffffffffffffffffffffffffffffffff1602179055506006820160149054906101000a900460ff168160060160146101000a81548160ff0219169083151502179055506007820160009054906101000a900473ffffffffffffffffffffffffffffffffffffffff168160070160006101000a81548173ffffffffffffffffffffffffffffffffffffffff021916908373ffffffffffffffffffffffffffffffffffffffff160217905550905050826000803373ffffffffffffffffffffffffffffffffffffffff1673ffffffffffffffffffffffffffffffffffffffff1681526020019081526020016000208481548110610a2257610a21611d5f565b5b9060005260206000209060080201600001819055505b6000803373ffffffffffffffffffffffffffffffffffffffff1673ffffffffffffffffffffffffffffffffffffffff168152602001908152602001600020805480610a8657610a8561234f565b5b6001900381819060005260206000209060080201600080820160009055600182016000610ab39190611590565b600282016000610ac39190611590565b6003820160009055600482016000610adb9190611590565b60058201600090556006820160006101000a81549073ffffffffffffffffffffffffffffffffffffffff02191690556006820160146101000a81549060ff02191690556007820160006101000a81549073ffffffffffffffffffffffffffffffffffffffff021916905550509055505050565b60606000803373ffffffffffffffffffffffffffffffffffffffff1673ffffffffffffffffffffffffffffffffffffffff168152602001908152602001600020805480602002602001604051908101604052809291908181526020016000905b82821015610e7c57838290600052602060002090600802016040518061012001604052908160008201548152602001600182018054610bec90611e29565b80601f0160208091040260200160405190810160405280929190818152602001828054610c1890611e29565b8015610c655780601f10610c3a57610100808354040283529160200191610c65565b820191906000526020600020905b815481529060010190602001808311610c4857829003601f168201915b50505050508152602001600282018054610c7e90611e29565b80601f0160208091040260200160405190810160405280929190818152602001828054610caa90611e29565b8015610cf75780601f10610ccc57610100808354040283529160200191610cf7565b820191906000526020600020905b815481529060010190602001808311610cda57829003601f168201915b5050505050815260200160038201548152602001600482018054610d1a90611e29565b80601f0160208091040260200160405190810160405280929190818152602001828054610d4690611e29565b8015610d935780601f10610d6857610100808354040283529160200191610d93565b820191906000526020600020905b815481529060010190602001808311610d7657829003601f168201915b50505050508152602001600582015481526020016006820160009054906101000a900473ffffffffffffffffffffffffffffffffffffffff1673ffffffffffffffffffffffffffffffffffffffff1673ffffffffffffffffffffffffffffffffffffffff1681526020016006820160149054906101000a900460ff161515151581526020016007820160009054906101000a900473ffffffffffffffffffffffffffffffffffffffff1673ffffffffffffffffffffffffffffffffffffffff1673ffffffffffffffffffffffffffffffffffffffff168152505081526020019060010190610bae565b50505050905090565b606060008060005b600280549050811015610fa6573373ffffffffffffffffffffffffffffffffffffffff1660028281548110610ec557610ec4611d5f565b5b9060005260206000200160009054906101000a900473ffffffffffffffffffffffffffffffffffffffff1673ffffffffffffffffffffffffffffffffffffffff1614610f995760008060028381548110610f2257610f21611d5f565b5b9060005260206000200160009054906101000a900473ffffffffffffffffffffffffffffffffffffffff1673ffffffffffffffffffffffffffffffffffffffff1673ffffffffffffffffffffffffffffffffffffffff1681526020019081526020016000208054905083610f96919061237e565b92505b8080600101915050610e8d565b5060008267ffffffffffffffff811115610fc357610fc26116d6565b5b604051908082528060200260200182016040528015610ffc57816020015b610fe96115d0565b815260200190600190039081610fe15790505b50905060005b600280549050811015611420573373ffffffffffffffffffffffffffffffffffffffff166002828154811061103a57611039611d5f565b5b9060005260206000200160009054906101000a900473ffffffffffffffffffffffffffffffffffffffff1673ffffffffffffffffffffffffffffffffffffffff16146114135760008060006002848154811061109957611098611d5f565b5b9060005260206000200160009054906101000a900473ffffffffffffffffffffffffffffffffffffffff1673ffffffffffffffffffffffffffffffffffffffff1673ffffffffffffffffffffffffffffffffffffffff168152602001908152602001600020905060005b81805490508110156114105781818154811061112257611121611d5f565b5b9060005260206000209060080201604051806101200160405290816000820154815260200160018201805461115690611e29565b80601f016020809104026020016040519081016040528092919081815260200182805461118290611e29565b80156111cf5780601f106111a4576101008083540402835291602001916111cf565b820191906000526020600020905b8154815290600101906020018083116111b257829003601f168201915b505050505081526020016002820180546111e890611e29565b80601f016020809104026020016040519081016040528092919081815260200182805461121490611e29565b80156112615780601f1061123657610100808354040283529160200191611261565b820191906000526020600020905b81548152906001019060200180831161124457829003601f168201915b505050505081526020016003820154815260200160048201805461128490611e29565b80601f01602080910402602001604051908101604052809291908181526020018280546112b090611e29565b80156112fd5780601f106112d2576101008083540402835291602001916112fd565b820191906000526020600020905b8154815290600101906020018083116112e057829003601f168201915b50505050508152602001600582015481526020016006820160009054906101000a900473ffffffffffffffffffffffffffffffffffffffff1673ffffffffffffffffffffffffffffffffffffffff1673ffffffffffffffffffffffffffffffffffffffff1681526020016006820160149054906101000a900460ff161515151581526020016007820160009054906101000a900473ffffffffffffffffffffffffffffffffffffffff1673ffffffffffffffffffffffffffffffffffffffff1673ffffffffffffffffffffffffffffffffffffffff16815250508486815181106113ea576113e9611d5f565b5b6020026020010181905250848061140090612169565b9550508080600101915050611103565b50505b8080600101915050611002565b506114606040518060400160405280600d81526020017f546f74616c204974656d733a2000000000000000000000000000000000000000815250846114ae565b61149f6040518060400160405280600f81526020017f43757272656e7420496e6465783a200000000000000000000000000000000000815250836114ae565b80935050505090565b60015481565b61154682826040516024016114c49291906123eb565b6040516020818303038152906040527fb60e72cc000000000000000000000000000000000000000000000000000000007bffffffffffffffffffffffffffffffffffffffffffffffffffffffff19166020820180517bffffffffffffffffffffffffffffffffffffffffffffffffffffffff838183161783525050505061154a565b5050565b61156181611559611564611585565b63ffffffff16565b50565b60006a636f6e736f6c652e6c6f679050600080835160208501845afa505050565b61164a819050919050565b50805461159c90611e29565b6000825580601f106115ae57506115cd565b601f0160209004906000526020600020908101906115cc9190611654565b5b50565b604051806101200160405280600081526020016060815260200160608152602001600081526020016060815260200160008152602001600073ffffffffffffffffffffffffffffffffffffffff168152602001600015158152602001600073ffffffffffffffffffffffffffffffffffffffff1681525090565b61165261241b565b565b5b8082111561166d576000816000905550600101611655565b5090565b6000604051905090565b600080fd5b600080fd5b6000819050919050565b61169881611685565b81146116a357600080fd5b50565b6000813590506116b58161168f565b92915050565b600080fd5b600080fd5b6000601f19601f8301169050919050565b7f4e487b7100000000000000000000000000000000000000000000000000000000600052604160045260246000fd5b61170e826116c5565b810181811067ffffffffffffffff8211171561172d5761172c6116d6565b5b80604052505050565b6000611740611671565b905061174c8282611705565b919050565b600067ffffffffffffffff82111561176c5761176b6116d6565b5b611775826116c5565b9050602081019050919050565b82818337600083830152505050565b60006117a461179f84611751565b611736565b9050828152602081018484840111156117c0576117bf6116c0565b5b6117cb848285611782565b509392505050565b600082601f8301126117e8576117e76116bb565b5b81356117f8848260208601611791565b91505092915050565b600080600080600060a0868803121561181d5761181c61167b565b5b600061182b888289016116a6565b955050602086013567ffffffffffffffff81111561184c5761184b611680565b5b611858888289016117d3565b945050604086013567ffffffffffffffff81111561187957611878611680565b5b611885888289016117d3565b9350506060611896888289016116a6565b925050608086013567ffffffffffffffff8111156118b7576118b6611680565b5b6118c3888289016117d3565b9150509295509295909350565b600080600080608085870312156118ea576118e961167b565b5b600085013567ffffffffffffffff81111561190857611907611680565b5b611914878288016117d3565b945050602085013567ffffffffffffffff81111561193557611934611680565b5b611941878288016117d3565b9350506040611952878288016116a6565b925050606085013567ffffffffffffffff81111561197357611972611680565b5b61197f878288016117d3565b91505092959194509250565b6000602082840312156119a1576119a061167b565b5b60006119af848285016116a6565b91505092915050565b600081519050919050565b600082825260208201905092915050565b6000819050602082019050919050565b6119ed81611685565b82525050565b600081519050919050565b600082825260208201905092915050565b60005b83811015611a2d578082015181840152602081019050611a12565b60008484015250505050565b6000611a44826119f3565b611a4e81856119fe565b9350611a5e818560208601611a0f565b611a67816116c5565b840191505092915050565b600073ffffffffffffffffffffffffffffffffffffffff82169050919050565b6000611a9d82611a72565b9050919050565b611aad81611a92565b82525050565b60008115159050919050565b611ac881611ab3565b82525050565b6000819050919050565b6000611af3611aee611ae984611a72565b611ace565b611a72565b9050919050565b6000611b0582611ad8565b9050919050565b6000611b1782611afa565b9050919050565b611b2781611b0c565b82525050565b600061012083016000830151611b4660008601826119e4565b5060208301518482036020860152611b5e8282611a39565b91505060408301518482036040860152611b788282611a39565b9150506060830151611b8d60608601826119e4565b5060808301518482036080860152611ba58282611a39565b91505060a0830151611bba60a08601826119e4565b5060c0830151611bcd60c0860182611aa4565b5060e0830151611be060e0860182611abf565b50610100830151611bf5610100860182611b1e565b508091505092915050565b6000611c0c8383611b2d565b905092915050565b6000602082019050919050565b6000611c2c826119b8565b611c3681856119c3565b935083602082028501611c48856119d4565b8060005b85811015611c845784840389528151611c658582611c00565b9450611c7083611c14565b925060208a01995050600181019050611c4c565b50829750879550505050505092915050565b60006020820190508181036000830152611cb08184611c21565b905092915050565b611cc181611685565b82525050565b6000602082019050611cdc6000830184611cb8565b92915050565b600082825260208201905092915050565b7f496e76616c6964206974656d2049440000000000000000000000000000000000600082015250565b6000611d29600f83611ce2565b9150611d3482611cf3565b602082019050919050565b60006020820190508181036000830152611d5881611d1c565b9050919050565b7f4e487b7100000000000000000000000000000000000000000000000000000000600052603260045260246000fd5b7f4974656d20616c726561647920736f6c64000000000000000000000000000000600082015250565b6000611dc4601183611ce2565b9150611dcf82611d8e565b602082019050919050565b60006020820190508181036000830152611df381611db7565b9050919050565b7f4e487b7100000000000000000000000000000000000000000000000000000000600052602260045260246000fd5b60006002820490506001821680611e4157607f821691505b602082108103611e5457611e53611dfa565b5b50919050565b60008190508160005260206000209050919050565b60006020601f8301049050919050565b600082821b905092915050565b600060088302611ebc7fffffffffffffffffffffffffffffffffffffffffffffffffffffffffffffffff82611e7f565b611ec68683611e7f565b95508019841693508086168417925050509392505050565b6000611ef9611ef4611eef84611685565b611ace565b611685565b9050919050565b6000819050919050565b611f1383611ede565b611f27611f1f82611f00565b848454611e8c565b825550505050565b600090565b611f3c611f2f565b611f47818484611f0a565b505050565b5b81811015611f6b57611f60600082611f34565b600181019050611f4d565b5050565b601f821115611fb057611f8181611e5a565b611f8a84611e6f565b81016020851015611f99578190505b611fad611fa585611e6f565b830182611f4c565b50505b505050565b600082821c905092915050565b6000611fd360001984600802611fb5565b1980831691505092915050565b6000611fec8383611fc2565b9150826002028217905092915050565b612005826119f3565b67ffffffffffffffff81111561201e5761201d6116d6565b5b6120288254611e29565b612033828285611f6f565b600060209050601f8311600181146120665760008415612054578287015190505b61205e8582611fe0565b8655506120c6565b601f19841661207486611e5a565b60005b8281101561209c57848901518255600182019150602085019450602081019050612077565b868310156120b957848901516120b5601f891682611fc2565b8355505b6001600288020188555050505b505050505050565b7f4974656d20646f6573206e6f742062656c6f6e6720746f2073656e6465720000600082015250565b6000612104601e83611ce2565b915061210f826120ce565b602082019050919050565b60006020820190508181036000830152612133816120f7565b9050919050565b7f4e487b7100000000000000000000000000000000000000000000000000000000600052601160045260246000fd5b600061217482611685565b91507fffffffffffffffffffffffffffffffffffffffffffffffffffffffffffffffff82036121a6576121a561213a565b5b600182019050919050565b7f4974656d20646f6573206e6f7420657869737400000000000000000000000000600082015250565b60006121e7601383611ce2565b91506121f2826121b1565b602082019050919050565b60006020820190508181036000830152612216816121da565b9050919050565b600061222882611685565b915061223383611685565b925082820390508181111561224b5761224a61213a565b5b92915050565b60008154905061226081611e29565b9050919050565b81810361227557505061234d565b61227e82612251565b67ffffffffffffffff811115612297576122966116d6565b5b6122a18254611e29565b6122ac828285611f6f565b6000601f8311600181146122db57600084156122c9578287015490505b6122d38582611fe0565b865550612346565b601f1984166122e987611e5a565b96506122f486611e5a565b60005b8281101561231c578489015482556001820191506001850194506020810190506122f7565b868310156123395784890154612335601f891682611fc2565b8355505b6001600288020188555050505b5050505050505b565b7f4e487b7100000000000000000000000000000000000000000000000000000000600052603160045260246000fd5b600061238982611685565b915061239483611685565b92508282019050808211156123ac576123ab61213a565b5b92915050565b60006123bd826119f3565b6123c78185611ce2565b93506123d7818560208601611a0f565b6123e0816116c5565b840191505092915050565b6000604082019050818103600083015261240581856123b2565b90506124146020830184611cb8565b9392505050565b7f4e487b7100000000000000000000000000000000000000000000000000000000600052605160045260246000fdfea26469706673582212201b0a3c20a14e16814be7e2286651db25088bab7236b3f46f979076c7ff13383d64736f6c63430008180033",
  "devdoc": {
    "kind": "dev",
    "methods": {},
    "version": 1
  },
  "userdoc": {
    "kind": "user",
    "methods": {},
    "version": 1
  },
  "storageLayout": {
    "storage": [
      {
        "astId": 171,
        "contract": "contracts/Item.sol:Item",
        "label": "items",
        "offset": 0,
        "slot": "0",
        "type": "t_mapping(t_address,t_array(t_struct(ItemStruct)165_storage)dyn_storage)"
      },
      {
        "astId": 173,
        "contract": "contracts/Item.sol:Item",
        "label": "itemsCount",
        "offset": 0,
        "slot": "1",
        "type": "t_uint256"
      },
      {
        "astId": 176,
        "contract": "contracts/Item.sol:Item",
        "label": "sellers",
        "offset": 0,
        "slot": "2",
        "type": "t_array(t_address)dyn_storage"
      }
    ],
    "types": {
      "t_address": {
        "encoding": "inplace",
        "label": "address",
        "numberOfBytes": "20"
      },
      "t_array(t_address)dyn_storage": {
        "base": "t_address",
        "encoding": "dynamic_array",
        "label": "address[]",
        "numberOfBytes": "32"
      },
      "t_array(t_struct(ItemStruct)165_storage)dyn_storage": {
        "base": "t_struct(ItemStruct)165_storage",
        "encoding": "dynamic_array",
        "label": "struct Item.ItemStruct[]",
        "numberOfBytes": "32"
      },
      "t_bool": {
        "encoding": "inplace",
        "label": "bool",
        "numberOfBytes": "1"
      },
      "t_contract(Escrow)141": {
        "encoding": "inplace",
        "label": "contract Escrow",
        "numberOfBytes": "20"
      },
      "t_mapping(t_address,t_array(t_struct(ItemStruct)165_storage)dyn_storage)": {
        "encoding": "mapping",
        "key": "t_address",
        "label": "mapping(address => struct Item.ItemStruct[])",
        "numberOfBytes": "32",
        "value": "t_array(t_struct(ItemStruct)165_storage)dyn_storage"
      },
      "t_string_storage": {
        "encoding": "bytes",
        "label": "string",
        "numberOfBytes": "32"
      },
      "t_struct(ItemStruct)165_storage": {
        "encoding": "inplace",
        "label": "struct Item.ItemStruct",
        "members": [
          {
            "astId": 147,
            "contract": "contracts/Item.sol:Item",
            "label": "itemId",
            "offset": 0,
            "slot": "0",
            "type": "t_uint256"
          },
          {
            "astId": 149,
            "contract": "contracts/Item.sol:Item",
            "label": "title",
            "offset": 0,
            "slot": "1",
            "type": "t_string_storage"
          },
          {
            "astId": 151,
            "contract": "contracts/Item.sol:Item",
            "label": "description",
            "offset": 0,
            "slot": "2",
            "type": "t_string_storage"
          },
          {
            "astId": 153,
            "contract": "contracts/Item.sol:Item",
            "label": "price",
            "offset": 0,
            "slot": "3",
            "type": "t_uint256"
          },
          {
            "astId": 155,
            "contract": "contracts/Item.sol:Item",
            "label": "image",
            "offset": 0,
            "slot": "4",
            "type": "t_string_storage"
          },
          {
            "astId": 157,
            "contract": "contracts/Item.sol:Item",
            "label": "createdAt",
            "offset": 0,
            "slot": "5",
            "type": "t_uint256"
          },
          {
            "astId": 159,
            "contract": "contracts/Item.sol:Item",
            "label": "buyer",
            "offset": 0,
            "slot": "6",
            "type": "t_address"
          },
          {
            "astId": 161,
            "contract": "contracts/Item.sol:Item",
            "label": "hasBuyer",
            "offset": 20,
            "slot": "6",
            "type": "t_bool"
          },
          {
            "astId": 164,
            "contract": "contracts/Item.sol:Item",
            "label": "escrow",
            "offset": 0,
            "slot": "7",
            "type": "t_contract(Escrow)141"
          }
        ],
        "numberOfBytes": "256"
      },
      "t_uint256": {
        "encoding": "inplace",
        "label": "uint256",
        "numberOfBytes": "32"
      }
    }
  }
}