{
  "address": "0xE33934fF23c367c07DBAdDdA3A4Ad8136Ef14636",
  "abi": [
    {
      "inputs": [
        {
          "internalType": "string",
          "name": "_title",
          "type": "string"
        },
        {
          "internalType": "string",
          "name": "_description",
          "type": "string"
        },
        {
          "internalType": "uint256",
          "name": "_price",
          "type": "uint256"
        },
        {
          "internalType": "string",
          "name": "_image",
          "type": "string"
        }
      ],
      "name": "addItem",
      "outputs": [],
      "stateMutability": "nonpayable",
      "type": "function"
    },
    {
      "inputs": [],
      "name": "browseItems",
      "outputs": [
        {
          "components": [
            {
              "internalType": "uint256",
              "name": "itemId",
              "type": "uint256"
            },
            {
              "internalType": "string",
              "name": "title",
              "type": "string"
            },
            {
              "internalType": "string",
              "name": "description",
              "type": "string"
            },
            {
              "internalType": "uint256",
              "name": "price",
              "type": "uint256"
            },
            {
              "internalType": "string",
              "name": "image",
              "type": "string"
            },
            {
              "internalType": "uint256",
              "name": "createdAt",
              "type": "uint256"
            },
            {
              "internalType": "address",
              "name": "buyer",
              "type": "address"
            },
            {
              "internalType": "bool",
              "name": "hasBuyer",
              "type": "bool"
            },
            {
              "internalType": "contract Escrow",
              "name": "escrow",
              "type": "address"
            },
            {
              "internalType": "address",
              "name": "seller",
              "type": "address"
            }
          ],
          "internalType": "struct Item.ItemStruct[]",
          "name": "",
          "type": "tuple[]"
        }
      ],
      "stateMutability": "view",
      "type": "function"
    },
    {
      "inputs": [
        {
          "internalType": "uint256",
          "name": "_itemId",
          "type": "uint256"
        }
      ],
      "name": "deleteItem",
      "outputs": [],
      "stateMutability": "nonpayable",
      "type": "function"
    },
    {
      "inputs": [
        {
          "internalType": "uint256",
          "name": "_itemId",
          "type": "uint256"
        },
        {
          "internalType": "string",
          "name": "_title",
          "type": "string"
        },
        {
          "internalType": "string",
          "name": "_description",
          "type": "string"
        },
        {
          "internalType": "uint256",
          "name": "_price",
          "type": "uint256"
        },
        {
          "internalType": "string",
          "name": "_image",
          "type": "string"
        }
      ],
      "name": "editItem",
      "outputs": [],
      "stateMutability": "nonpayable",
      "type": "function"
    },
    {
      "inputs": [],
      "name": "itemsCount",
      "outputs": [
        {
          "internalType": "uint256",
          "name": "",
          "type": "uint256"
        }
      ],
      "stateMutability": "view",
      "type": "function"
    },
    {
      "inputs": [],
      "name": "myPurchases",
      "outputs": [
        {
          "components": [
            {
              "internalType": "uint256",
              "name": "itemId",
              "type": "uint256"
            },
            {
              "internalType": "string",
              "name": "title",
              "type": "string"
            },
            {
              "internalType": "string",
              "name": "description",
              "type": "string"
            },
            {
              "internalType": "uint256",
              "name": "price",
              "type": "uint256"
            },
            {
              "internalType": "string",
              "name": "image",
              "type": "string"
            },
            {
              "internalType": "uint256",
              "name": "createdAt",
              "type": "uint256"
            },
            {
              "internalType": "address",
              "name": "buyer",
              "type": "address"
            },
            {
              "internalType": "bool",
              "name": "hasBuyer",
              "type": "bool"
            },
            {
              "internalType": "contract Escrow",
              "name": "escrow",
              "type": "address"
            },
            {
              "internalType": "address",
              "name": "seller",
              "type": "address"
            }
          ],
          "internalType": "struct Item.ItemStruct[]",
          "name": "",
          "type": "tuple[]"
        }
      ],
      "stateMutability": "view",
      "type": "function"
    },
    {
      "inputs": [],
      "name": "mySales",
      "outputs": [
        {
          "components": [
            {
              "internalType": "uint256",
              "name": "itemId",
              "type": "uint256"
            },
            {
              "internalType": "string",
              "name": "title",
              "type": "string"
            },
            {
              "internalType": "string",
              "name": "description",
              "type": "string"
            },
            {
              "internalType": "uint256",
              "name": "price",
              "type": "uint256"
            },
            {
              "internalType": "string",
              "name": "image",
              "type": "string"
            },
            {
              "internalType": "uint256",
              "name": "createdAt",
              "type": "uint256"
            },
            {
              "internalType": "address",
              "name": "buyer",
              "type": "address"
            },
            {
              "internalType": "bool",
              "name": "hasBuyer",
              "type": "bool"
            },
            {
              "internalType": "contract Escrow",
              "name": "escrow",
              "type": "address"
            },
            {
              "internalType": "address",
              "name": "seller",
              "type": "address"
            }
          ],
          "internalType": "struct Item.ItemStruct[]",
          "name": "",
          "type": "tuple[]"
        }
      ],
      "stateMutability": "view",
      "type": "function"
    },
    {
      "inputs": [
        {
          "internalType": "uint256",
          "name": "_itemId",
          "type": "uint256"
        },
        {
          "internalType": "address",
          "name": "_seller",
          "type": "address"
        }
      ],
      "name": "purchaseItem",
      "outputs": [],
      "stateMutability": "payable",
      "type": "function"
    },
    {
      "inputs": [],
      "name": "retrieveUserItems",
      "outputs": [
        {
          "components": [
            {
              "internalType": "uint256",
              "name": "itemId",
              "type": "uint256"
            },
            {
              "internalType": "string",
              "name": "title",
              "type": "string"
            },
            {
              "internalType": "string",
              "name": "description",
              "type": "string"
            },
            {
              "internalType": "uint256",
              "name": "price",
              "type": "uint256"
            },
            {
              "internalType": "string",
              "name": "image",
              "type": "string"
            },
            {
              "internalType": "uint256",
              "name": "createdAt",
              "type": "uint256"
            },
            {
              "internalType": "address",
              "name": "buyer",
              "type": "address"
            },
            {
              "internalType": "bool",
              "name": "hasBuyer",
              "type": "bool"
            },
            {
              "internalType": "contract Escrow",
              "name": "escrow",
              "type": "address"
            },
            {
              "internalType": "address",
              "name": "seller",
              "type": "address"
            }
          ],
          "internalType": "struct Item.ItemStruct[]",
          "name": "",
          "type": "tuple[]"
        }
      ],
      "stateMutability": "view",
      "type": "function"
    },
    {
      "inputs": [
        {
          "internalType": "uint256",
          "name": "_itemId",
          "type": "uint256"
        },
        {
          "internalType": "string",
          "name": "tracking",
          "type": "string"
        }
      ],
      "name": "shipItem",
      "outputs": [],
      "stateMutability": "nonpayable",
      "type": "function"
    }
  ],
  "transactionHash": "0x3a11dba006e813bb8427b2dc8bacb7ba8f2fc2b66c86ec6e35e49cbd2df75d0c",
  "args": [],
  "numDeployments": 29,
  "solcInputHash": "1d7b0ca055e295994470319de0182db7",
  "bytecode": "0x608060405234801561001057600080fd5b50616237806100206000396000f3fe6080604052600436106200009e5760003560e01c80637bfe9efd11620000615780637bfe9efd146200018b5780638af8a98614620001ab5780639ab7e23b14620001db578063dbc37670146200020b578063e2c03ace146200023b576200009e565b80630461459a14620000a357806313df81d614620000d157806338f5234f14620000ff5780634d25ce47146200012f578063654fc833146200015d575b600080fd5b348015620000b057600080fd5b50620000cf6004803603810190620000c9919062003045565b6200026b565b005b348015620000de57600080fd5b50620000fd6004803603810190620000f791906200312a565b620004f0565b005b3480156200010c57600080fd5b506200011762000854565b6040516200012691906200352c565b60405180910390f35b3480156200013c57600080fd5b506200015b600480360381019062000155919062003550565b62000d34565b005b3480156200016a57600080fd5b50620001896004803603810190620001839190620035b6565b620010ff565b005b620001a96004803603810190620001a3919062003619565b620015c4565b005b348015620001b857600080fd5b50620001c362001ae9565b604051620001d291906200352c565b60405180910390f35b348015620001e857600080fd5b50620001f36200214e565b6040516200020291906200352c565b60405180910390f35b3480156200021857600080fd5b5062000223620024f5565b6040516200023291906200352c565b60405180910390f35b3480156200024857600080fd5b506200025362002bea565b60405162000262919062003671565b60405180910390f35b6000851180156200027e57506001548511155b620002c0576040517f08c379a0000000000000000000000000000000000000000000000000000000008152600401620002b790620036ef565b60405180910390fd5b60008060003373ffffffffffffffffffffffffffffffffffffffff1673ffffffffffffffffffffffffffffffffffffffff16815260200190815260200160002090506000805b8280549050811015620004a357878382815481106200032a576200032962003711565b5b906000526020600020906009020160000154036200049557600191508281815481106200035c576200035b62003711565b5b906000526020600020906009020160060160149054906101000a900460ff1615620003be576040517f08c379a0000000000000000000000000000000000000000000000000000000008152600401620003b59062003790565b60405180910390fd5b86838281548110620003d557620003d462003711565b5b90600052602060002090600902016001019081620003f49190620039de565b50858382815481106200040c576200040b62003711565b5b906000526020600020906009020160020190816200042b9190620039de565b508483828154811062000443576200044262003711565b5b906000526020600020906009020160030181905550838382815481106200046f576200046e62003711565b5b906000526020600020906009020160040190816200048e9190620039de565b50620004a3565b808060010191505062000306565b5080620004e7576040517f08c379a0000000000000000000000000000000000000000000000000000000008152600401620004de9062003b15565b60405180910390fd5b50505050505050565b620005316040518060400160405280600c81526020017f50726963652069733a20257300000000000000000000000000000000000000008152508362002bf0565b60008060003373ffffffffffffffffffffffffffffffffffffffff1673ffffffffffffffffffffffffffffffffffffffff1681526020019081526020016000208054905003620005df576002339080600181540180825580915050600190039060005260206000200160009091909190916101000a81548173ffffffffffffffffffffffffffffffffffffffff021916908373ffffffffffffffffffffffffffffffffffffffff1602179055505b60016000815480929190620005f49062003b66565b91905055506000803373ffffffffffffffffffffffffffffffffffffffff1673ffffffffffffffffffffffffffffffffffffffff1681526020019081526020016000206040518061014001604052806001548152602001868152602001858152602001848152602001838152602001428152602001600073ffffffffffffffffffffffffffffffffffffffff168152602001600015158152602001600073ffffffffffffffffffffffffffffffffffffffff1681526020013373ffffffffffffffffffffffffffffffffffffffff168152509080600181540180825580915050600190039060005260206000209060090201600090919091909150600082015181600001556020820151816001019081620007109190620039de565b506040820151816002019081620007289190620039de565b506060820151816003015560808201518160040190816200074a9190620039de565b5060a0820151816005015560c08201518160060160006101000a81548173ffffffffffffffffffffffffffffffffffffffff021916908373ffffffffffffffffffffffffffffffffffffffff16021790555060e08201518160060160146101000a81548160ff0219169083151502179055506101008201518160070160006101000a81548173ffffffffffffffffffffffffffffffffffffffff021916908373ffffffffffffffffffffffffffffffffffffffff1602179055506101208201518160080160006101000a81548173ffffffffffffffffffffffffffffffffffffffff021916908373ffffffffffffffffffffffffffffffffffffffff160217905550505050505050565b606060008060008060003373ffffffffffffffffffffffffffffffffffffffff1673ffffffffffffffffffffffffffffffffffffffff168152602001908152602001600020905060005b81805490508110156200090557818181548110620008c157620008c062003711565b5b906000526020600020906009020160060160149054906101000a900460ff1615620008f7578380620008f39062003b66565b9450505b80806001019150506200089e565b5060008367ffffffffffffffff81111562000925576200092462002efe565b5b6040519080825280602002602001820160405280156200096257816020015b6200094e62002d7e565b815260200190600190039081620009445790505b50905060005b828054905081101562000d29578281815481106200098b576200098a62003711565b5b906000526020600020906009020160060160149054906101000a900460ff161562000d1b57828181548110620009c657620009c562003711565b5b90600052602060002090600902016040518061014001604052908160008201548152602001600182018054620009fc90620037e1565b80601f016020809104026020016040519081016040528092919081815260200182805462000a2a90620037e1565b801562000a7b5780601f1062000a4f5761010080835404028352916020019162000a7b565b820191906000526020600020905b81548152906001019060200180831162000a5d57829003601f168201915b5050505050815260200160028201805462000a9690620037e1565b80601f016020809104026020016040519081016040528092919081815260200182805462000ac490620037e1565b801562000b155780601f1062000ae95761010080835404028352916020019162000b15565b820191906000526020600020905b81548152906001019060200180831162000af757829003601f168201915b505050505081526020016003820154815260200160048201805462000b3a90620037e1565b80601f016020809104026020016040519081016040528092919081815260200182805462000b6890620037e1565b801562000bb95780601f1062000b8d5761010080835404028352916020019162000bb9565b820191906000526020600020905b81548152906001019060200180831162000b9b57829003601f168201915b50505050508152602001600582015481526020016006820160009054906101000a900473ffffffffffffffffffffffffffffffffffffffff1673ffffffffffffffffffffffffffffffffffffffff1673ffffffffffffffffffffffffffffffffffffffff1681526020016006820160149054906101000a900460ff161515151581526020016007820160009054906101000a900473ffffffffffffffffffffffffffffffffffffffff1673ffffffffffffffffffffffffffffffffffffffff1673ffffffffffffffffffffffffffffffffffffffff1681526020016008820160009054906101000a900473ffffffffffffffffffffffffffffffffffffffff1673ffffffffffffffffffffffffffffffffffffffff1673ffffffffffffffffffffffffffffffffffffffff168152505082858151811062000cff5762000cfe62003711565b5b6020026020010181905250838062000d179062003b66565b9450505b808060010191505062000968565b508094505050505090565b60008060003373ffffffffffffffffffffffffffffffffffffffff1673ffffffffffffffffffffffffffffffffffffffff168152602001908152602001600020905060008080600090505b838054905081101562000dd6578584828154811062000da35762000da262003711565b5b9060005260206000209060090201600001540362000dc8576001925080915062000dd6565b808060010191505062000d7f565b508162000e1a576040517f08c379a000000000000000000000000000000000000000000000000000000000815260040162000e119062003c03565b60405180910390fd5b82818154811062000e305762000e2f62003711565b5b906000526020600020906009020160060160149054906101000a900460ff1662000e91576040517f08c379a000000000000000000000000000000000000000000000000000000000815260040162000e889062003c75565b60405180910390fd5b82818154811062000ea75762000ea662003711565b5b906000526020600020906009020160080160009054906101000a900473ffffffffffffffffffffffffffffffffffffffff1673ffffffffffffffffffffffffffffffffffffffff163373ffffffffffffffffffffffffffffffffffffffff161462000f49576040517f08c379a000000000000000000000000000000000000000000000000000000000815260040162000f409062003ce7565b60405180910390fd5b82818154811062000f5f5762000f5e62003711565b5b906000526020600020906009020160070160009054906101000a900473ffffffffffffffffffffffffffffffffffffffff1673ffffffffffffffffffffffffffffffffffffffff1663dd3fa136856040518263ffffffff1660e01b815260040162000fcb919062003d4a565b600060405180830381600087803b15801562000fe657600080fd5b505af115801562000ffb573d6000803e3d6000fd5b50505050620010f86040518060400160405280601681526020017f4974656d20736869707065643a202573206279202573000000000000000000008152508483815481106200104f576200104e62003711565b5b906000526020600020906009020160010180546200106d90620037e1565b80601f01602080910402602001604051908101604052809291908181526020018280546200109b90620037e1565b8015620010ec5780601f10620010c057610100808354040283529160200191620010ec565b820191906000526020600020905b815481529060010190602001808311620010ce57829003601f168201915b50505050503362002c90565b5050505050565b60008060003373ffffffffffffffffffffffffffffffffffffffff1673ffffffffffffffffffffffffffffffffffffffff168152602001908152602001600020905060008080600090505b83805490508110156200121957848482815481106200116e576200116d62003711565b5b906000526020600020906009020160000154036200120b578381815481106200119c576200119b62003711565b5b906000526020600020906009020160060160149054906101000a900460ff1615620011fe576040517f08c379a0000000000000000000000000000000000000000000000000000000008152600401620011f59062003790565b60405180910390fd5b6001925080915062001219565b80806001019150506200114a565b50816200125d576040517f08c379a0000000000000000000000000000000000000000000000000000000008152600401620012549062003dbe565b60405180910390fd5b60006001848054905062001272919062003de0565b9050808214620014b95783818154811062001292576200129162003711565b5b9060005260206000209060090201848381548110620012b657620012b562003711565b5b90600052602060002090600902016000820154816000015560018201816001019081620012e4919062003e33565b5060028201816002019081620012fb919062003e33565b5060038201548160030155600482018160040190816200131c919062003e33565b50600582015481600501556006820160009054906101000a900473ffffffffffffffffffffffffffffffffffffffff168160060160006101000a81548173ffffffffffffffffffffffffffffffffffffffff021916908373ffffffffffffffffffffffffffffffffffffffff1602179055506006820160149054906101000a900460ff168160060160146101000a81548160ff0219169083151502179055506007820160009054906101000a900473ffffffffffffffffffffffffffffffffffffffff168160070160006101000a81548173ffffffffffffffffffffffffffffffffffffffff021916908373ffffffffffffffffffffffffffffffffffffffff1602179055506008820160009054906101000a900473ffffffffffffffffffffffffffffffffffffffff168160080160006101000a81548173ffffffffffffffffffffffffffffffffffffffff021916908373ffffffffffffffffffffffffffffffffffffffff16021790555090505084848381548110620014a357620014a262003711565b5b9060005260206000209060090201600001819055505b83805480620014cd57620014cc62003f34565b5b6001900381819060005260206000209060090201600080820160009055600182016000620014fc919062002e15565b6002820160006200150e919062002e15565b600382016000905560048201600062001528919062002e15565b60058201600090556006820160006101000a81549073ffffffffffffffffffffffffffffffffffffffff02191690556006820160146101000a81549060ff02191690556007820160006101000a81549073ffffffffffffffffffffffffffffffffffffffff02191690556008820160006101000a81549073ffffffffffffffffffffffffffffffffffffffff0219169055505090555050505050565b600082118015620015d757506001548211155b62001619576040517f08c379a00000000000000000000000000000000000000000000000000000000081526004016200161090620036ef565b60405180910390fd5b60008060008373ffffffffffffffffffffffffffffffffffffffff1673ffffffffffffffffffffffffffffffffffffffff168152602001908152602001600020905060008080600090505b8380549050811015620016bb578584828154811062001688576200168762003711565b5b90600052602060002090600902016000015403620016ad5760019250809150620016bb565b808060010191505062001664565b5081620016ff576040517f08c379a0000000000000000000000000000000000000000000000000000000008152600401620016f69062003c03565b60405180910390fd5b82818154811062001715576200171462003711565b5b906000526020600020906009020160060160149054906101000a900460ff161562001777576040517f08c379a00000000000000000000000000000000000000000000000000000000081526004016200176e9062003790565b60405180910390fd5b8373ffffffffffffffffffffffffffffffffffffffff16838281548110620017a457620017a362003711565b5b906000526020600020906009020160080160009054906101000a900473ffffffffffffffffffffffffffffffffffffffff1673ffffffffffffffffffffffffffffffffffffffff16146200182f576040517f08c379a0000000000000000000000000000000000000000000000000000000008152600401620018269062003fb3565b60405180910390fd5b82818154811062001845576200184462003711565b5b90600052602060002090600902016003015434146200189b576040517f08c379a000000000000000000000000000000000000000000000000000000000815260040162001892906200404b565b60405180910390fd5b6000343386604051620018ae9062002e5b565b620018bb929190620040a3565b6040518091039082f0905080158015620018d9573d6000803e3d6000fd5b50905033848381548110620018f357620018f262003711565b5b906000526020600020906009020160060160006101000a81548173ffffffffffffffffffffffffffffffffffffffff021916908373ffffffffffffffffffffffffffffffffffffffff16021790555060018483815481106200195a576200195962003711565b5b906000526020600020906009020160060160146101000a81548160ff0219169083151502179055508084838154811062001999576200199862003711565b5b906000526020600020906009020160070160006101000a81548173ffffffffffffffffffffffffffffffffffffffff021916908373ffffffffffffffffffffffffffffffffffffffff16021790555062001ae16040518060400160405280601881526020017f4974656d207075726368617365643a202573206279202573000000000000000081525085848154811062001a385762001a3762003711565b5b9060005260206000209060090201600101805462001a5690620037e1565b80601f016020809104026020016040519081016040528092919081815260200182805462001a8490620037e1565b801562001ad55780601f1062001aa95761010080835404028352916020019162001ad5565b820191906000526020600020905b81548152906001019060200180831162001ab757829003601f168201915b50505050503362002c90565b505050505050565b606060008060005b60028054905081101562001c3c5760008060006002848154811062001b1b5762001b1a62003711565b5b9060005260206000200160009054906101000a900473ffffffffffffffffffffffffffffffffffffffff1673ffffffffffffffffffffffffffffffffffffffff1673ffffffffffffffffffffffffffffffffffffffff168152602001908152602001600020905060005b818054905081101562001c2c573373ffffffffffffffffffffffffffffffffffffffff1682828154811062001bbf5762001bbe62003711565b5b906000526020600020906009020160060160009054906101000a900473ffffffffffffffffffffffffffffffffffffffff1673ffffffffffffffffffffffffffffffffffffffff160362001c1e57848062001c1a9062003b66565b9550505b808060010191505062001b85565b5050808060010191505062001af1565b5060008267ffffffffffffffff81111562001c5c5762001c5b62002efe565b5b60405190808252806020026020018201604052801562001c9957816020015b62001c8562002d7e565b81526020019060019003908162001c7b5790505b50905060005b600280549050811015620021445760008060006002848154811062001cc95762001cc862003711565b5b9060005260206000200160009054906101000a900473ffffffffffffffffffffffffffffffffffffffff1673ffffffffffffffffffffffffffffffffffffffff1673ffffffffffffffffffffffffffffffffffffffff168152602001908152602001600020905060005b818054905081101562002134573373ffffffffffffffffffffffffffffffffffffffff1682828154811062001d6d5762001d6c62003711565b5b906000526020600020906009020160060160009054906101000a900473ffffffffffffffffffffffffffffffffffffffff1673ffffffffffffffffffffffffffffffffffffffff1603620021265781818154811062001dd15762001dd062003711565b5b9060005260206000209060090201604051806101400160405290816000820154815260200160018201805462001e0790620037e1565b80601f016020809104026020016040519081016040528092919081815260200182805462001e3590620037e1565b801562001e865780601f1062001e5a5761010080835404028352916020019162001e86565b820191906000526020600020905b81548152906001019060200180831162001e6857829003601f168201915b5050505050815260200160028201805462001ea190620037e1565b80601f016020809104026020016040519081016040528092919081815260200182805462001ecf90620037e1565b801562001f205780601f1062001ef45761010080835404028352916020019162001f20565b820191906000526020600020905b81548152906001019060200180831162001f0257829003601f168201915b505050505081526020016003820154815260200160048201805462001f4590620037e1565b80601f016020809104026020016040519081016040528092919081815260200182805462001f7390620037e1565b801562001fc45780601f1062001f985761010080835404028352916020019162001fc4565b820191906000526020600020905b81548152906001019060200180831162001fa657829003601f168201915b50505050508152602001600582015481526020016006820160009054906101000a900473ffffffffffffffffffffffffffffffffffffffff1673ffffffffffffffffffffffffffffffffffffffff1673ffffffffffffffffffffffffffffffffffffffff1681526020016006820160149054906101000a900460ff161515151581526020016007820160009054906101000a900473ffffffffffffffffffffffffffffffffffffffff1673ffffffffffffffffffffffffffffffffffffffff1673ffffffffffffffffffffffffffffffffffffffff1681526020016008820160009054906101000a900473ffffffffffffffffffffffffffffffffffffffff1673ffffffffffffffffffffffffffffffffffffffff1673ffffffffffffffffffffffffffffffffffffffff16815250508486815181106200210a576200210962003711565b5b60200260200101819052508480620021229062003b66565b9550505b808060010191505062001d33565b5050808060010191505062001c9f565b5080935050505090565b60606000803373ffffffffffffffffffffffffffffffffffffffff1673ffffffffffffffffffffffffffffffffffffffff168152602001908152602001600020805480602002602001604051908101604052809291908181526020016000905b82821015620024ec57838290600052602060002090600902016040518061014001604052908160008201548152602001600182018054620021ef90620037e1565b80601f01602080910402602001604051908101604052809291908181526020018280546200221d90620037e1565b80156200226e5780601f1062002242576101008083540402835291602001916200226e565b820191906000526020600020905b8154815290600101906020018083116200225057829003601f168201915b505050505081526020016002820180546200228990620037e1565b80601f0160208091040260200160405190810160405280929190818152602001828054620022b790620037e1565b8015620023085780601f10620022dc5761010080835404028352916020019162002308565b820191906000526020600020905b815481529060010190602001808311620022ea57829003601f168201915b50505050508152602001600382015481526020016004820180546200232d90620037e1565b80601f01602080910402602001604051908101604052809291908181526020018280546200235b90620037e1565b8015620023ac5780601f106200238057610100808354040283529160200191620023ac565b820191906000526020600020905b8154815290600101906020018083116200238e57829003601f168201915b50505050508152602001600582015481526020016006820160009054906101000a900473ffffffffffffffffffffffffffffffffffffffff1673ffffffffffffffffffffffffffffffffffffffff1673ffffffffffffffffffffffffffffffffffffffff1681526020016006820160149054906101000a900460ff161515151581526020016007820160009054906101000a900473ffffffffffffffffffffffffffffffffffffffff1673ffffffffffffffffffffffffffffffffffffffff1673ffffffffffffffffffffffffffffffffffffffff1681526020016008820160009054906101000a900473ffffffffffffffffffffffffffffffffffffffff1673ffffffffffffffffffffffffffffffffffffffff1673ffffffffffffffffffffffffffffffffffffffff168152505081526020019060010190620021ae565b50505050905090565b606060008060005b60028054905081101562002621573373ffffffffffffffffffffffffffffffffffffffff166002828154811062002539576200253862003711565b5b9060005260206000200160009054906101000a900473ffffffffffffffffffffffffffffffffffffffff1673ffffffffffffffffffffffffffffffffffffffff16146200261357600080600283815481106200259a576200259962003711565b5b9060005260206000200160009054906101000a900473ffffffffffffffffffffffffffffffffffffffff1673ffffffffffffffffffffffffffffffffffffffff1673ffffffffffffffffffffffffffffffffffffffff1681526020019081526020016000208054905083620026109190620040d0565b92505b8080600101915050620024fd565b5060008267ffffffffffffffff81111562002641576200264062002efe565b5b6040519080825280602002602001820160405280156200267e57816020015b6200266a62002d7e565b815260200190600190039081620026605790505b50905060005b60028054905081101562002b5e573373ffffffffffffffffffffffffffffffffffffffff1660028281548110620026c057620026bf62003711565b5b9060005260206000200160009054906101000a900473ffffffffffffffffffffffffffffffffffffffff1673ffffffffffffffffffffffffffffffffffffffff161462002b505760008060006002848154811062002723576200272262003711565b5b9060005260206000200160009054906101000a900473ffffffffffffffffffffffffffffffffffffffff1673ffffffffffffffffffffffffffffffffffffffff1673ffffffffffffffffffffffffffffffffffffffff168152602001908152602001600020905060005b818054905081101562002b4d57818181548110620027b057620027af62003711565b5b906000526020600020906009020160060160149054906101000a900460ff1662002b3f57818181548110620027ea57620027e962003711565b5b906000526020600020906009020160405180610140016040529081600082015481526020016001820180546200282090620037e1565b80601f01602080910402602001604051908101604052809291908181526020018280546200284e90620037e1565b80156200289f5780601f1062002873576101008083540402835291602001916200289f565b820191906000526020600020905b8154815290600101906020018083116200288157829003601f168201915b50505050508152602001600282018054620028ba90620037e1565b80601f0160208091040260200160405190810160405280929190818152602001828054620028e890620037e1565b8015620029395780601f106200290d5761010080835404028352916020019162002939565b820191906000526020600020905b8154815290600101906020018083116200291b57829003601f168201915b50505050508152602001600382015481526020016004820180546200295e90620037e1565b80601f01602080910402602001604051908101604052809291908181526020018280546200298c90620037e1565b8015620029dd5780601f10620029b157610100808354040283529160200191620029dd565b820191906000526020600020905b815481529060010190602001808311620029bf57829003601f168201915b50505050508152602001600582015481526020016006820160009054906101000a900473ffffffffffffffffffffffffffffffffffffffff1673ffffffffffffffffffffffffffffffffffffffff1673ffffffffffffffffffffffffffffffffffffffff1681526020016006820160149054906101000a900460ff161515151581526020016007820160009054906101000a900473ffffffffffffffffffffffffffffffffffffffff1673ffffffffffffffffffffffffffffffffffffffff1673ffffffffffffffffffffffffffffffffffffffff1681526020016008820160009054906101000a900473ffffffffffffffffffffffffffffffffffffffff1673ffffffffffffffffffffffffffffffffffffffff1673ffffffffffffffffffffffffffffffffffffffff168152505084868151811062002b235762002b2262003711565b5b6020026020010181905250848062002b3b9062003b66565b9550505b80806001019150506200278d565b50505b808060010191505062002684565b5062002ba06040518060400160405280600d81526020017f546f74616c204974656d733a20000000000000000000000000000000000000008152508462002bf0565b62002be16040518060400160405280600f81526020017f43757272656e7420496e6465783a2000000000000000000000000000000000008152508362002bf0565b80935050505090565b60015481565b62002c8c828260405160240162002c099291906200410b565b6040516020818303038152906040527fb60e72cc000000000000000000000000000000000000000000000000000000007bffffffffffffffffffffffffffffffffffffffffffffffffffffffff19166020820180517bffffffffffffffffffffffffffffffffffffffffffffffffffffffff838183161783525050505062002d33565b5050565b62002d2e83838360405160240162002cab939291906200413f565b6040516020818303038152906040527f95ed0195000000000000000000000000000000000000000000000000000000007bffffffffffffffffffffffffffffffffffffffffffffffffffffffff19166020820180517bffffffffffffffffffffffffffffffffffffffffffffffffffffffff838183161783525050505062002d33565b505050565b62002d4e8162002d4662002d5162002d72565b63ffffffff16565b50565b60006a636f6e736f6c652e6c6f679050600080835160208501845afa505050565b62002e69819050919050565b604051806101400160405280600081526020016060815260200160608152602001600081526020016060815260200160008152602001600073ffffffffffffffffffffffffffffffffffffffff168152602001600015158152602001600073ffffffffffffffffffffffffffffffffffffffff168152602001600073ffffffffffffffffffffffffffffffffffffffff1681525090565b50805462002e2390620037e1565b6000825580601f1062002e37575062002e58565b601f01602090049060005260206000209081019062002e57919062002e75565b5b50565b61204880620041ba83390190565b62002e736200418a565b565b5b8082111562002e9057600081600090555060010162002e76565b5090565b6000604051905090565b600080fd5b600080fd5b6000819050919050565b62002ebd8162002ea8565b811462002ec957600080fd5b50565b60008135905062002edd8162002eb2565b92915050565b600080fd5b600080fd5b6000601f19601f8301169050919050565b7f4e487b7100000000000000000000000000000000000000000000000000000000600052604160045260246000fd5b62002f388262002eed565b810181811067ffffffffffffffff8211171562002f5a5762002f5962002efe565b5b80604052505050565b600062002f6f62002e94565b905062002f7d828262002f2d565b919050565b600067ffffffffffffffff82111562002fa05762002f9f62002efe565b5b62002fab8262002eed565b9050602081019050919050565b82818337600083830152505050565b600062002fde62002fd88462002f82565b62002f63565b90508281526020810184848401111562002ffd5762002ffc62002ee8565b5b6200300a84828562002fb8565b509392505050565b600082601f8301126200302a576200302962002ee3565b5b81356200303c84826020860162002fc7565b91505092915050565b600080600080600060a0868803121562003064576200306362002e9e565b5b6000620030748882890162002ecc565b955050602086013567ffffffffffffffff81111562003098576200309762002ea3565b5b620030a68882890162003012565b945050604086013567ffffffffffffffff811115620030ca57620030c962002ea3565b5b620030d88882890162003012565b9350506060620030eb8882890162002ecc565b925050608086013567ffffffffffffffff8111156200310f576200310e62002ea3565b5b6200311d8882890162003012565b9150509295509295909350565b6000806000806080858703121562003147576200314662002e9e565b5b600085013567ffffffffffffffff81111562003168576200316762002ea3565b5b620031768782880162003012565b945050602085013567ffffffffffffffff8111156200319a576200319962002ea3565b5b620031a88782880162003012565b9350506040620031bb8782880162002ecc565b925050606085013567ffffffffffffffff811115620031df57620031de62002ea3565b5b620031ed8782880162003012565b91505092959194509250565b600081519050919050565b600082825260208201905092915050565b6000819050602082019050919050565b620032308162002ea8565b82525050565b600081519050919050565b600082825260208201905092915050565b60005b838110156200327257808201518184015260208101905062003255565b60008484015250505050565b60006200328b8262003236565b62003297818562003241565b9350620032a981856020860162003252565b620032b48162002eed565b840191505092915050565b600073ffffffffffffffffffffffffffffffffffffffff82169050919050565b6000620032ec82620032bf565b9050919050565b620032fe81620032df565b82525050565b60008115159050919050565b6200331b8162003304565b82525050565b6000819050919050565b60006200334c620033466200334084620032bf565b62003321565b620032bf565b9050919050565b600062003360826200332b565b9050919050565b6000620033748262003353565b9050919050565b620033868162003367565b82525050565b600061014083016000830151620033a7600086018262003225565b5060208301518482036020860152620033c182826200327e565b91505060408301518482036040860152620033dd82826200327e565b9150506060830151620033f4606086018262003225565b50608083015184820360808601526200340e82826200327e565b91505060a08301516200342560a086018262003225565b5060c08301516200343a60c0860182620032f3565b5060e08301516200344f60e086018262003310565b50610100830151620034666101008601826200337b565b506101208301516200347d610120860182620032f3565b508091505092915050565b60006200349683836200338c565b905092915050565b6000602082019050919050565b6000620034b882620031f9565b620034c4818562003204565b935083602082028501620034d88562003215565b8060005b858110156200351a5784840389528151620034f8858262003488565b945062003505836200349e565b925060208a01995050600181019050620034dc565b50829750879550505050505092915050565b60006020820190508181036000830152620035488184620034ab565b905092915050565b600080604083850312156200356a576200356962002e9e565b5b60006200357a8582860162002ecc565b925050602083013567ffffffffffffffff8111156200359e576200359d62002ea3565b5b620035ac8582860162003012565b9150509250929050565b600060208284031215620035cf57620035ce62002e9e565b5b6000620035df8482850162002ecc565b91505092915050565b620035f381620032df565b8114620035ff57600080fd5b50565b6000813590506200361381620035e8565b92915050565b6000806040838503121562003633576200363262002e9e565b5b6000620036438582860162002ecc565b9250506020620036568582860162003602565b9150509250929050565b6200366b8162002ea8565b82525050565b600060208201905062003688600083018462003660565b92915050565b600082825260208201905092915050565b7f496e76616c6964206974656d2049440000000000000000000000000000000000600082015250565b6000620036d7600f836200368e565b9150620036e4826200369f565b602082019050919050565b600060208201905081810360008301526200370a81620036c8565b9050919050565b7f4e487b7100000000000000000000000000000000000000000000000000000000600052603260045260246000fd5b7f4974656d20616c726561647920736f6c64000000000000000000000000000000600082015250565b6000620037786011836200368e565b9150620037858262003740565b602082019050919050565b60006020820190508181036000830152620037ab8162003769565b9050919050565b7f4e487b7100000000000000000000000000000000000000000000000000000000600052602260045260246000fd5b60006002820490506001821680620037fa57607f821691505b60208210810362003810576200380f620037b2565b5b50919050565b60008190508160005260206000209050919050565b60006020601f8301049050919050565b600082821b905092915050565b6000600883026200387a7fffffffffffffffffffffffffffffffffffffffffffffffffffffffffffffffff826200383b565b6200388686836200383b565b95508019841693508086168417925050509392505050565b6000620038bf620038b9620038b38462002ea8565b62003321565b62002ea8565b9050919050565b6000819050919050565b620038db836200389e565b620038f3620038ea82620038c6565b84845462003848565b825550505050565b600090565b6200390a620038fb565b62003917818484620038d0565b505050565b5b818110156200393f576200393360008262003900565b6001810190506200391d565b5050565b601f8211156200398e57620039588162003816565b62003963846200382b565b8101602085101562003973578190505b6200398b62003982856200382b565b8301826200391c565b50505b505050565b600082821c905092915050565b6000620039b36000198460080262003993565b1980831691505092915050565b6000620039ce8383620039a0565b9150826002028217905092915050565b620039e98262003236565b67ffffffffffffffff81111562003a055762003a0462002efe565b5b62003a118254620037e1565b62003a1e82828562003943565b600060209050601f83116001811462003a56576000841562003a41578287015190505b62003a4d8582620039c0565b86555062003abd565b601f19841662003a668662003816565b60005b8281101562003a905784890151825560018201915060208501945060208101905062003a69565b8683101562003ab0578489015162003aac601f891682620039a0565b8355505b6001600288020188555050505b505050505050565b7f4974656d20646f6573206e6f742062656c6f6e6720746f2073656e6465720000600082015250565b600062003afd601e836200368e565b915062003b0a8262003ac5565b602082019050919050565b6000602082019050818103600083015262003b308162003aee565b9050919050565b7f4e487b7100000000000000000000000000000000000000000000000000000000600052601160045260246000fd5b600062003b738262002ea8565b91507fffffffffffffffffffffffffffffffffffffffffffffffffffffffffffffffff820362003ba85762003ba762003b37565b5b600182019050919050565b7f4974656d206e6f7420666f756e64000000000000000000000000000000000000600082015250565b600062003beb600e836200368e565b915062003bf88262003bb3565b602082019050919050565b6000602082019050818103600083015262003c1e8162003bdc565b9050919050565b7f4974656d20686173206e6f74206265656e207075726368617365640000000000600082015250565b600062003c5d601b836200368e565b915062003c6a8262003c25565b602082019050919050565b6000602082019050818103600083015262003c908162003c4e565b9050919050565b7f4f6e6c792073656c6c65722063616e20736869702074686973206974656d0000600082015250565b600062003ccf601e836200368e565b915062003cdc8262003c97565b602082019050919050565b6000602082019050818103600083015262003d028162003cc0565b9050919050565b600062003d168262003236565b62003d2281856200368e565b935062003d3481856020860162003252565b62003d3f8162002eed565b840191505092915050565b6000602082019050818103600083015262003d66818462003d09565b905092915050565b7f4974656d20646f6573206e6f7420657869737400000000000000000000000000600082015250565b600062003da66013836200368e565b915062003db38262003d6e565b602082019050919050565b6000602082019050818103600083015262003dd98162003d97565b9050919050565b600062003ded8262002ea8565b915062003dfa8362002ea8565b925082820390508181111562003e155762003e1462003b37565b5b92915050565b60008154905062003e2c81620037e1565b9050919050565b81810362003e4357505062003f32565b62003e4e8262003e1b565b67ffffffffffffffff81111562003e6a5762003e6962002efe565b5b62003e768254620037e1565b62003e8382828562003943565b6000601f83116001811462003eb7576000841562003ea2578287015490505b62003eae8582620039c0565b86555062003f2b565b601f19841662003ec78762003816565b965062003ed48662003816565b60005b8281101562003efe5784890154825560018201915060018501945060208101905062003ed7565b8683101562003f1e578489015462003f1a601f891682620039a0565b8355505b6001600288020188555050505b5050505050505b565b7f4e487b7100000000000000000000000000000000000000000000000000000000600052603160045260246000fd5b7f4f776e65722063616e206e6f742062757920746865206974656d2e0000000000600082015250565b600062003f9b601b836200368e565b915062003fa88262003f63565b602082019050919050565b6000602082019050818103600083015262003fce8162003f8c565b9050919050565b7f496e636f727265637420616d6f756e74206f662065746865722f77656920736560008201527f6e742e0000000000000000000000000000000000000000000000000000000000602082015250565b6000620040336023836200368e565b9150620040408262003fd5565b604082019050919050565b60006020820190508181036000830152620040668162004024565b9050919050565b6200407881620032df565b82525050565b60006200408b82620032bf565b9050919050565b6200409d816200407e565b82525050565b6000604082019050620040ba60008301856200406d565b620040c9602083018462004092565b9392505050565b6000620040dd8262002ea8565b9150620040ea8362002ea8565b925082820190508082111562004105576200410462003b37565b5b92915050565b6000604082019050818103600083015262004127818562003d09565b905062004138602083018462003660565b9392505050565b600060608201905081810360008301526200415b818662003d09565b9050818103602083015262004171818562003d09565b90506200418260408301846200406d565b949350505050565b7f4e487b7100000000000000000000000000000000000000000000000000000000600052605160045260246000fdfe60806040526040516200204838038062002048833981810160405281019062000029919062000206565b816001806101000a81548173ffffffffffffffffffffffffffffffffffffffff021916908373ffffffffffffffffffffffffffffffffffffffff16021790555080600260006101000a81548173ffffffffffffffffffffffffffffffffffffffff021916908373ffffffffffffffffffffffffffffffffffffffff160217905550736a7d3230514ee0e8078f23cf65b367d9984b055a600360006101000a81548173ffffffffffffffffffffffffffffffffffffffff021916908373ffffffffffffffffffffffffffffffffffffffff1602179055506000600160006101000a81548160ff021916908360048111156200012857620001276200024d565b5b02179055506000600560006101000a81548160ff0219169083151502179055504260008190555050506200027c565b600080fd5b600073ffffffffffffffffffffffffffffffffffffffff82169050919050565b600062000189826200015c565b9050919050565b6200019b816200017c565b8114620001a757600080fd5b50565b600081519050620001bb8162000190565b92915050565b6000620001ce826200015c565b9050919050565b620001e081620001c1565b8114620001ec57600080fd5b50565b6000815190506200020081620001d5565b92915050565b6000806040838503121562000220576200021f62000157565b5b60006200023085828601620001aa565b92505060206200024385828601620001ef565b9150509250929050565b7f4e487b7100000000000000000000000000000000000000000000000000000000600052602160045260246000fd5b611dbc806200028c6000396000f3fe608060405234801561001057600080fd5b50600436106100cf5760003560e01c80637388a1ed1161008c578063afe0104311610066578063afe01043146101db578063c00ccd54146101f9578063dd3fa13614610215578063eaaf0b6314610231576100cf565b80637388a1ed146101875780638285074b146101a357806389e1e82a146101bf576100cf565b806308551a53146100d45780631865c57d146100f25780635b0222bb146101115780635e10177b1461012f57806364e6aa52146101395780637150d8ae14610169575b600080fd5b6100dc61024f565b6040516100e991906110a6565b60405180910390f35b6100fa610275565b6040516101089291906111c8565b60405180910390f35b61011961031f565b6040516101269190611211565b60405180910390f35b610137610325565b005b610153600480360381019061014e919061126c565b610526565b6040516101609190611299565b60405180910390f35b6101716105d2565b60405161017e91906112dc565b60405180910390f35b6101a1600480360381019061019c919061142c565b6105f6565b005b6101bd60048036038101906101b8919061142c565b61079f565b005b6101d960048036038101906101d491906114ad565b610900565b005b6101e3610bde565b6040516101f091906114da565b60405180910390f35b610213600480360381019061020e919061142c565b610bf1565b005b61022f600480360381019061022a919061142c565b610de2565b005b610239610f8c565b6040516102469190611601565b60405180910390f35b600260009054906101000a900473ffffffffffffffffffffffffffffffffffffffff1681565b60006060600160009054906101000a900460ff16600880805461029790611652565b80601f01602080910402602001604051908101604052809291908181526020018280546102c390611652565b80156103105780601f106102e557610100808354040283529160200191610310565b820191906000526020600020905b8154815290600101906020018083116102f357829003601f168201915b50505050509050915091509091565b60005481565b60018054906101000a900473ffffffffffffffffffffffffffffffffffffffff1673ffffffffffffffffffffffffffffffffffffffff163373ffffffffffffffffffffffffffffffffffffffff16146103b3576040517f08c379a00000000000000000000000000000000000000000000000000000000081526004016103aa906116cf565b60405180910390fd5b600160048111156103c7576103c66110c1565b5b600160009054906101000a900460ff1660048111156103e9576103e86110c1565b5b14610429576040517f08c379a00000000000000000000000000000000000000000000000000000000081526004016104209061173b565b60405180910390fd5b600260009054906101000a900473ffffffffffffffffffffffffffffffffffffffff1673ffffffffffffffffffffffffffffffffffffffff166108fc479081150290604051600060405180830381858888f19350505050158015610491573d6000803e3d6000fd5b506002600160006101000a81548160ff021916908360048111156104b8576104b76110c1565b5b0217905550600480600181540180825580915050600190039060005260206000200160006040518060400160405280601b81526020017f4974656d207265636965766564206279207468652062757965722e0000000000815250909190915090816105239190611907565b50565b6004818154811061053657600080fd5b90600052602060002001600091509050805461055190611652565b80601f016020809104026020016040519081016040528092919081815260200182805461057d90611652565b80156105ca5780601f1061059f576101008083540402835291602001916105ca565b820191906000526020600020905b8154815290600101906020018083116105ad57829003601f168201915b505050505081565b60018054906101000a900473ffffffffffffffffffffffffffffffffffffffff1681565b60018054906101000a900473ffffffffffffffffffffffffffffffffffffffff1673ffffffffffffffffffffffffffffffffffffffff163373ffffffffffffffffffffffffffffffffffffffff1614610684576040517f08c379a000000000000000000000000000000000000000000000000000000000815260040161067b906116cf565b60405180910390fd5b60016004811115610698576106976110c1565b5b600160009054906101000a900460ff1660048111156106ba576106b96110c1565b5b146106fa576040517f08c379a00000000000000000000000000000000000000000000000000000000081526004016106f190611a4b565b60405180910390fd5b6003600160006101000a81548160ff021916908360048111156107205761071f6110c1565b5b021790555080600790816107349190611907565b50600480600181540180825580915050600190039060005260206000200160006040518060400160405280601881526020017f44697370757465206f70656e65642062792062757965722e00000000000000008152509091909150908161079b9190611907565b5050565b60018054906101000a900473ffffffffffffffffffffffffffffffffffffffff1673ffffffffffffffffffffffffffffffffffffffff163373ffffffffffffffffffffffffffffffffffffffff161461082d576040517f08c379a0000000000000000000000000000000000000000000000000000000008152600401610824906116cf565b60405180910390fd5b60036004811115610841576108406110c1565b5b600160009054906101000a900460ff166004811115610863576108626110c1565b5b146108a3576040517f08c379a000000000000000000000000000000000000000000000000000000000815260040161089a90611add565b60405180910390fd5b80600790816108b29190611907565b5060048060018154018082558091505060019003906000526020600020016000604051806060016040528060218152602001611d6660219139909190915090816108fc9190611907565b5050565b600360009054906101000a900473ffffffffffffffffffffffffffffffffffffffff1673ffffffffffffffffffffffffffffffffffffffff163373ffffffffffffffffffffffffffffffffffffffff1614610990576040517f08c379a000000000000000000000000000000000000000000000000000000000815260040161098790611b6f565b60405180910390fd5b600360048111156109a4576109a36110c1565b5b600160009054906101000a900460ff1660048111156109c6576109c56110c1565b5b14610a06576040517f08c379a00000000000000000000000000000000000000000000000000000000081526004016109fd90611bdb565b60405180910390fd5b8015610adf57600480600181540180825580915050600190039060005260206000200160006040518060400160405280601381526020017f42757965722077617320726566756e6465642e0000000000000000000000000081525090919091509081610a729190611907565b5060018054906101000a900473ffffffffffffffffffffffffffffffffffffffff1673ffffffffffffffffffffffffffffffffffffffff166108fc479081150290604051600060405180830381858888f19350505050158015610ad9573d6000803e3d6000fd5b50610bb0565b600480600181540180825580915050600190039060005260206000200160006040518060400160405280601481526020017f53656c6c65722077617320726566756e6465642e00000000000000000000000081525090919091509081610b459190611907565b50600260009054906101000a900473ffffffffffffffffffffffffffffffffffffffff1673ffffffffffffffffffffffffffffffffffffffff166108fc479081150290604051600060405180830381858888f19350505050158015610bae573d6000803e3d6000fd5b505b6004600160006101000a81548160ff02191690836004811115610bd657610bd56110c1565b5b021790555050565b600160009054906101000a900460ff1681565b600260009054906101000a900473ffffffffffffffffffffffffffffffffffffffff1673ffffffffffffffffffffffffffffffffffffffff163373ffffffffffffffffffffffffffffffffffffffff1614610c81576040517f08c379a0000000000000000000000000000000000000000000000000000000008152600401610c7890611c47565b60405180910390fd5b60036004811115610c9557610c946110c1565b5b600160009054906101000a900460ff166004811115610cb757610cb66110c1565b5b14610cf7576040517f08c379a0000000000000000000000000000000000000000000000000000000008152600401610cee90611add565b60405180910390fd5b60001515600560009054906101000a900460ff16151514610d4d576040517f08c379a0000000000000000000000000000000000000000000000000000000008152600401610d4490611cd9565b60405180910390fd5b6001600560006101000a81548160ff0219169083151502179055508060069081610d779190611907565b50600480600181540180825580915050600190039060005260206000200160006040518060400160405280601781526020017f53656c6c6572207375626d69747465642070726f6f662e00000000000000000081525090919091509081610dde9190611907565b5050565b600260009054906101000a900473ffffffffffffffffffffffffffffffffffffffff1673ffffffffffffffffffffffffffffffffffffffff163373ffffffffffffffffffffffffffffffffffffffff1614610e72576040517f08c379a0000000000000000000000000000000000000000000000000000000008152600401610e6990611c47565b60405180910390fd5b60006004811115610e8657610e856110c1565b5b600160009054906101000a900460ff166004811115610ea857610ea76110c1565b5b14610ee8576040517f08c379a0000000000000000000000000000000000000000000000000000000008152600401610edf90611d45565b60405180910390fd5b60018060006101000a81548160ff02191690836004811115610f0d57610f0c6110c1565b5b02179055508060089081610f219190611907565b50600480600181540180825580915050600190039060005260206000200160006040518060400160405280601881526020017f4974656d2073656e74206279207468652073656c6c65722e000000000000000081525090919091509081610f889190611907565b5050565b60606004805480602002602001604051908101604052809291908181526020016000905b8282101561105c578382906000526020600020018054610fcf90611652565b80601f0160208091040260200160405190810160405280929190818152602001828054610ffb90611652565b80156110485780601f1061101d57610100808354040283529160200191611048565b820191906000526020600020905b81548152906001019060200180831161102b57829003601f168201915b505050505081526020019060010190610fb0565b50505050905090565b600073ffffffffffffffffffffffffffffffffffffffff82169050919050565b600061109082611065565b9050919050565b6110a081611085565b82525050565b60006020820190506110bb6000830184611097565b92915050565b7f4e487b7100000000000000000000000000000000000000000000000000000000600052602160045260246000fd5b60058110611101576111006110c1565b5b50565b6000819050611112826110f0565b919050565b600061112282611104565b9050919050565b61113281611117565b82525050565b600081519050919050565b600082825260208201905092915050565b60005b83811015611172578082015181840152602081019050611157565b60008484015250505050565b6000601f19601f8301169050919050565b600061119a82611138565b6111a48185611143565b93506111b4818560208601611154565b6111bd8161117e565b840191505092915050565b60006040820190506111dd6000830185611129565b81810360208301526111ef818461118f565b90509392505050565b6000819050919050565b61120b816111f8565b82525050565b60006020820190506112266000830184611202565b92915050565b6000604051905090565b600080fd5b600080fd5b611249816111f8565b811461125457600080fd5b50565b60008135905061126681611240565b92915050565b60006020828403121561128257611281611236565b5b600061129084828501611257565b91505092915050565b600060208201905081810360008301526112b3818461118f565b905092915050565b60006112c682611065565b9050919050565b6112d6816112bb565b82525050565b60006020820190506112f160008301846112cd565b92915050565b600080fd5b600080fd5b7f4e487b7100000000000000000000000000000000000000000000000000000000600052604160045260246000fd5b6113398261117e565b810181811067ffffffffffffffff8211171561135857611357611301565b5b80604052505050565b600061136b61122c565b90506113778282611330565b919050565b600067ffffffffffffffff82111561139757611396611301565b5b6113a08261117e565b9050602081019050919050565b82818337600083830152505050565b60006113cf6113ca8461137c565b611361565b9050828152602081018484840111156113eb576113ea6112fc565b5b6113f68482856113ad565b509392505050565b600082601f830112611413576114126112f7565b5b81356114238482602086016113bc565b91505092915050565b60006020828403121561144257611441611236565b5b600082013567ffffffffffffffff8111156114605761145f61123b565b5b61146c848285016113fe565b91505092915050565b60008115159050919050565b61148a81611475565b811461149557600080fd5b50565b6000813590506114a781611481565b92915050565b6000602082840312156114c3576114c2611236565b5b60006114d184828501611498565b91505092915050565b60006020820190506114ef6000830184611129565b92915050565b600081519050919050565b600082825260208201905092915050565b6000819050602082019050919050565b600082825260208201905092915050565b600061153d82611138565b6115478185611521565b9350611557818560208601611154565b6115608161117e565b840191505092915050565b60006115778383611532565b905092915050565b6000602082019050919050565b6000611597826114f5565b6115a18185611500565b9350836020820285016115b385611511565b8060005b858110156115ef57848403895281516115d0858261156b565b94506115db8361157f565b925060208a019950506001810190506115b7565b50829750879550505050505092915050565b6000602082019050818103600083015261161b818461158c565b905092915050565b7f4e487b7100000000000000000000000000000000000000000000000000000000600052602260045260246000fd5b6000600282049050600182168061166a57607f821691505b60208210810361167d5761167c611623565b5b50919050565b7f4f6e6c792062757965722063616e2063616c6c2074686973206d6574686f6400600082015250565b60006116b9601f83611143565b91506116c482611683565b602082019050919050565b600060208201905081810360008301526116e8816116ac565b9050919050565b7f43616e6e6f7420636f6e6669726d2064656c6976657279000000000000000000600082015250565b6000611725601783611143565b9150611730826116ef565b602082019050919050565b6000602082019050818103600083015261175481611718565b9050919050565b60008190508160005260206000209050919050565b60006020601f8301049050919050565b600082821b905092915050565b6000600883026117bd7fffffffffffffffffffffffffffffffffffffffffffffffffffffffffffffffff82611780565b6117c78683611780565b95508019841693508086168417925050509392505050565b6000819050919050565b60006118046117ff6117fa846111f8565b6117df565b6111f8565b9050919050565b6000819050919050565b61181e836117e9565b61183261182a8261180b565b84845461178d565b825550505050565b600090565b61184761183a565b611852818484611815565b505050565b5b818110156118765761186b60008261183f565b600181019050611858565b5050565b601f8211156118bb5761188c8161175b565b61189584611770565b810160208510156118a4578190505b6118b86118b085611770565b830182611857565b50505b505050565b600082821c905092915050565b60006118de600019846008026118c0565b1980831691505092915050565b60006118f783836118cd565b9150826002028217905092915050565b61191082611138565b67ffffffffffffffff81111561192957611928611301565b5b6119338254611652565b61193e82828561187a565b600060209050601f831160018114611971576000841561195f578287015190505b61196985826118eb565b8655506119d1565b601f19841661197f8661175b565b60005b828110156119a757848901518255600182019150602085019450602081019050611982565b868310156119c457848901516119c0601f8916826118cd565b8355505b6001600288020188555050505b505050505050565b7f43616e6e6f74206f70656e20646973707574652061742074686973207374616760008201527f6500000000000000000000000000000000000000000000000000000000000000602082015250565b6000611a35602183611143565b9150611a40826119d9565b604082019050919050565b60006020820190508181036000830152611a6481611a28565b9050919050565b7f43616e6e6f74207375626d69742070726f6f6620776974686f757420616e206160008201527f637469766520646973707574652e000000000000000000000000000000000000602082015250565b6000611ac7602e83611143565b9150611ad282611a6b565b604082019050919050565b60006020820190508181036000830152611af681611aba565b9050919050565b7f4f6e6c792061726269747261746f722063616e2063616c6c2074686973206d6560008201527f74686f6400000000000000000000000000000000000000000000000000000000602082015250565b6000611b59602483611143565b9150611b6482611afd565b604082019050919050565b60006020820190508181036000830152611b8881611b4c565b9050919050565b7f4e6f206163746976652064697370757465000000000000000000000000000000600082015250565b6000611bc5601183611143565b9150611bd082611b8f565b602082019050919050565b60006020820190508181036000830152611bf481611bb8565b9050919050565b7f4f6e6c792073656c6c65722063616e2063616c6c2074686973206d6574686f64600082015250565b6000611c31602083611143565b9150611c3c82611bfb565b602082019050919050565b60006020820190508181036000830152611c6081611c24565b9050919050565b7f596f7527766520616c7265616479207375626d697474656420612070726f6f6660008201527f2e00000000000000000000000000000000000000000000000000000000000000602082015250565b6000611cc3602183611143565b9150611cce82611c67565b604082019050919050565b60006020820190508181036000830152611cf281611cb6565b9050919050565b7f43616e6e6f7420736869702e20496e636f7272656374207374617475732e0000600082015250565b6000611d2f601e83611143565b9150611d3a82611cf9565b602082019050919050565b60006020820190508181036000830152611d5e81611d22565b905091905056fe4275796572207375626d6974746564206164646974696f6e616c2070726f6f662ea2646970667358221220fd7ca1af1aeab374539622b3ca1344eafc651c4b71f6ff8c4a863320b300df7a64736f6c63430008180033a26469706673582212201bc06bf58dc1b5e069d560f5c732d773fe15f8466dbe84edbceb5cd613b4e4f464736f6c63430008180033",
  "devdoc": {
    "kind": "dev",
    "methods": {},
    "version": 1
  },
  "userdoc": {
    "kind": "user",
    "methods": {},
    "version": 1
  },
  "storageLayout": {
    "storage": [
      {
        "astId": 373,
        "contract": "contracts/Item.sol:Item",
        "label": "items",
        "offset": 0,
        "slot": "0",
        "type": "t_mapping(t_address,t_array(t_struct(ItemStruct)367_storage)dyn_storage)"
      },
      {
        "astId": 375,
        "contract": "contracts/Item.sol:Item",
        "label": "itemsCount",
        "offset": 0,
        "slot": "1",
        "type": "t_uint256"
      },
      {
        "astId": 378,
        "contract": "contracts/Item.sol:Item",
        "label": "sellers",
        "offset": 0,
        "slot": "2",
        "type": "t_array(t_address)dyn_storage"
      }
    ],
    "types": {
      "t_address": {
        "encoding": "inplace",
        "label": "address",
        "numberOfBytes": "20"
      },
      "t_array(t_address)dyn_storage": {
        "base": "t_address",
        "encoding": "dynamic_array",
        "label": "address[]",
        "numberOfBytes": "32"
      },
      "t_array(t_struct(ItemStruct)367_storage)dyn_storage": {
        "base": "t_struct(ItemStruct)367_storage",
        "encoding": "dynamic_array",
        "label": "struct Item.ItemStruct[]",
        "numberOfBytes": "32"
      },
      "t_bool": {
        "encoding": "inplace",
        "label": "bool",
        "numberOfBytes": "1"
      },
      "t_contract(Escrow)341": {
        "encoding": "inplace",
        "label": "contract Escrow",
        "numberOfBytes": "20"
      },
      "t_mapping(t_address,t_array(t_struct(ItemStruct)367_storage)dyn_storage)": {
        "encoding": "mapping",
        "key": "t_address",
        "label": "mapping(address => struct Item.ItemStruct[])",
        "numberOfBytes": "32",
        "value": "t_array(t_struct(ItemStruct)367_storage)dyn_storage"
      },
      "t_string_storage": {
        "encoding": "bytes",
        "label": "string",
        "numberOfBytes": "32"
      },
      "t_struct(ItemStruct)367_storage": {
        "encoding": "inplace",
        "label": "struct Item.ItemStruct",
        "members": [
          {
            "astId": 347,
            "contract": "contracts/Item.sol:Item",
            "label": "itemId",
            "offset": 0,
            "slot": "0",
            "type": "t_uint256"
          },
          {
            "astId": 349,
            "contract": "contracts/Item.sol:Item",
            "label": "title",
            "offset": 0,
            "slot": "1",
            "type": "t_string_storage"
          },
          {
            "astId": 351,
            "contract": "contracts/Item.sol:Item",
            "label": "description",
            "offset": 0,
            "slot": "2",
            "type": "t_string_storage"
          },
          {
            "astId": 353,
            "contract": "contracts/Item.sol:Item",
            "label": "price",
            "offset": 0,
            "slot": "3",
            "type": "t_uint256"
          },
          {
            "astId": 355,
            "contract": "contracts/Item.sol:Item",
            "label": "image",
            "offset": 0,
            "slot": "4",
            "type": "t_string_storage"
          },
          {
            "astId": 357,
            "contract": "contracts/Item.sol:Item",
            "label": "createdAt",
            "offset": 0,
            "slot": "5",
            "type": "t_uint256"
          },
          {
            "astId": 359,
            "contract": "contracts/Item.sol:Item",
            "label": "buyer",
            "offset": 0,
            "slot": "6",
            "type": "t_address"
          },
          {
            "astId": 361,
            "contract": "contracts/Item.sol:Item",
            "label": "hasBuyer",
            "offset": 20,
            "slot": "6",
            "type": "t_bool"
          },
          {
            "astId": 364,
            "contract": "contracts/Item.sol:Item",
            "label": "escrow",
            "offset": 0,
            "slot": "7",
            "type": "t_contract(Escrow)341"
          },
          {
            "astId": 366,
            "contract": "contracts/Item.sol:Item",
            "label": "seller",
            "offset": 0,
            "slot": "8",
            "type": "t_address"
          }
        ],
        "numberOfBytes": "288"
      },
      "t_uint256": {
        "encoding": "inplace",
        "label": "uint256",
        "numberOfBytes": "32"
      }
    }
  }
}