{
  "_format": "hh-sol-artifact-1",
  "contractName": "Item",
  "sourceName": "contracts/Item.sol",
  "abi": [
    {
      "inputs": [
        {
          "internalType": "string",
          "name": "_title",
          "type": "string"
        },
        {
          "internalType": "string",
          "name": "_description",
          "type": "string"
        },
        {
          "internalType": "uint256",
          "name": "_price",
          "type": "uint256"
        },
        {
          "internalType": "string",
          "name": "_image",
          "type": "string"
        }
      ],
      "name": "addItem",
      "outputs": [],
      "stateMutability": "nonpayable",
      "type": "function"
    },
    {
      "inputs": [],
      "name": "browseItems",
      "outputs": [
        {
          "components": [
            {
              "internalType": "uint256",
              "name": "itemId",
              "type": "uint256"
            },
            {
              "internalType": "string",
              "name": "title",
              "type": "string"
            },
            {
              "internalType": "string",
              "name": "description",
              "type": "string"
            },
            {
              "internalType": "uint256",
              "name": "price",
              "type": "uint256"
            },
            {
              "internalType": "string",
              "name": "image",
              "type": "string"
            },
            {
              "internalType": "uint256",
              "name": "createdAt",
              "type": "uint256"
            },
            {
              "internalType": "address",
              "name": "buyer",
              "type": "address"
            },
            {
              "internalType": "bool",
              "name": "hasBuyer",
              "type": "bool"
            },
            {
              "internalType": "contract Escrow",
              "name": "escrow",
              "type": "address"
            },
            {
              "internalType": "address",
              "name": "seller",
              "type": "address"
            }
          ],
          "internalType": "struct Item.ItemStruct[]",
          "name": "",
          "type": "tuple[]"
        }
      ],
      "stateMutability": "view",
      "type": "function"
    },
    {
      "inputs": [
        {
          "internalType": "uint256",
          "name": "_itemId",
          "type": "uint256"
        },
        {
          "internalType": "address",
          "name": "_seller",
          "type": "address"
        }
      ],
      "name": "cancelItem",
      "outputs": [],
      "stateMutability": "nonpayable",
      "type": "function"
    },
    {
      "inputs": [
        {
          "internalType": "uint256",
          "name": "_itemId",
          "type": "uint256"
        }
      ],
      "name": "deleteItem",
      "outputs": [],
      "stateMutability": "nonpayable",
      "type": "function"
    },
    {
      "inputs": [
        {
          "internalType": "uint256",
          "name": "_itemId",
          "type": "uint256"
        },
        {
          "internalType": "string",
          "name": "_title",
          "type": "string"
        },
        {
          "internalType": "string",
          "name": "_description",
          "type": "string"
        },
        {
          "internalType": "uint256",
          "name": "_price",
          "type": "uint256"
        },
        {
          "internalType": "string",
          "name": "_image",
          "type": "string"
        }
      ],
      "name": "editItem",
      "outputs": [],
      "stateMutability": "nonpayable",
      "type": "function"
    },
    {
      "inputs": [],
      "name": "itemsCount",
      "outputs": [
        {
          "internalType": "uint256",
          "name": "",
          "type": "uint256"
        }
      ],
      "stateMutability": "view",
      "type": "function"
    },
    {
      "inputs": [],
      "name": "myPurchases",
      "outputs": [
        {
          "components": [
            {
              "internalType": "uint256",
              "name": "itemId",
              "type": "uint256"
            },
            {
              "internalType": "string",
              "name": "title",
              "type": "string"
            },
            {
              "internalType": "string",
              "name": "description",
              "type": "string"
            },
            {
              "internalType": "uint256",
              "name": "price",
              "type": "uint256"
            },
            {
              "internalType": "string",
              "name": "image",
              "type": "string"
            },
            {
              "internalType": "uint256",
              "name": "createdAt",
              "type": "uint256"
            },
            {
              "internalType": "address",
              "name": "buyer",
              "type": "address"
            },
            {
              "internalType": "bool",
              "name": "hasBuyer",
              "type": "bool"
            },
            {
              "internalType": "contract Escrow",
              "name": "escrow",
              "type": "address"
            },
            {
              "internalType": "address",
              "name": "seller",
              "type": "address"
            }
          ],
          "internalType": "struct Item.ItemStruct[]",
          "name": "",
          "type": "tuple[]"
        }
      ],
      "stateMutability": "view",
      "type": "function"
    },
    {
      "inputs": [],
      "name": "mySales",
      "outputs": [
        {
          "components": [
            {
              "internalType": "uint256",
              "name": "itemId",
              "type": "uint256"
            },
            {
              "internalType": "string",
              "name": "title",
              "type": "string"
            },
            {
              "internalType": "string",
              "name": "description",
              "type": "string"
            },
            {
              "internalType": "uint256",
              "name": "price",
              "type": "uint256"
            },
            {
              "internalType": "string",
              "name": "image",
              "type": "string"
            },
            {
              "internalType": "uint256",
              "name": "createdAt",
              "type": "uint256"
            },
            {
              "internalType": "address",
              "name": "buyer",
              "type": "address"
            },
            {
              "internalType": "bool",
              "name": "hasBuyer",
              "type": "bool"
            },
            {
              "internalType": "contract Escrow",
              "name": "escrow",
              "type": "address"
            },
            {
              "internalType": "address",
              "name": "seller",
              "type": "address"
            }
          ],
          "internalType": "struct Item.ItemStruct[]",
          "name": "",
          "type": "tuple[]"
        }
      ],
      "stateMutability": "view",
      "type": "function"
    },
    {
      "inputs": [
        {
          "internalType": "uint256",
          "name": "_itemId",
          "type": "uint256"
        },
        {
          "internalType": "address",
          "name": "_seller",
          "type": "address"
        }
      ],
      "name": "purchaseItem",
      "outputs": [],
      "stateMutability": "payable",
      "type": "function"
    },
    {
      "inputs": [],
      "name": "retrieveUserItems",
      "outputs": [
        {
          "components": [
            {
              "internalType": "uint256",
              "name": "itemId",
              "type": "uint256"
            },
            {
              "internalType": "string",
              "name": "title",
              "type": "string"
            },
            {
              "internalType": "string",
              "name": "description",
              "type": "string"
            },
            {
              "internalType": "uint256",
              "name": "price",
              "type": "uint256"
            },
            {
              "internalType": "string",
              "name": "image",
              "type": "string"
            },
            {
              "internalType": "uint256",
              "name": "createdAt",
              "type": "uint256"
            },
            {
              "internalType": "address",
              "name": "buyer",
              "type": "address"
            },
            {
              "internalType": "bool",
              "name": "hasBuyer",
              "type": "bool"
            },
            {
              "internalType": "contract Escrow",
              "name": "escrow",
              "type": "address"
            },
            {
              "internalType": "address",
              "name": "seller",
              "type": "address"
            }
          ],
          "internalType": "struct Item.ItemStruct[]",
          "name": "",
          "type": "tuple[]"
        }
      ],
      "stateMutability": "view",
      "type": "function"
    },
    {
      "inputs": [
        {
          "internalType": "uint256",
          "name": "_itemId",
          "type": "uint256"
        },
        {
          "internalType": "string",
          "name": "tracking",
          "type": "string"
        }
      ],
      "name": "shipItem",
      "outputs": [],
      "stateMutability": "nonpayable",
      "type": "function"
    }
  ],
  "bytecode": "0x608060405234801561001057600080fd5b506173e680620000216000396000f3fe608060405260043610620000aa5760003560e01c80637bfe9efd116200006d5780637bfe9efd14620001975780638af8a98614620001b75780639768c44b14620001e75780639ab7e23b1462000215578063dbc376701462000245578063e2c03ace146200027557620000aa565b80630461459a14620000af57806313df81d614620000dd57806338f5234f146200010b5780634d25ce47146200013b578063654fc8331462000169575b600080fd5b348015620000bc57600080fd5b50620000db6004803603810190620000d5919062003658565b620002a5565b005b348015620000ea57600080fd5b506200010960048036038101906200010391906200373d565b6200052a565b005b3480156200011857600080fd5b50620001236200088e565b60405162000132919062003b3f565b60405180910390f35b3480156200014857600080fd5b5062000167600480360381019062000161919062003b63565b62000d6e565b005b3480156200017657600080fd5b506200019560048036038101906200018f919062003bc9565b62001139565b005b620001b56004803603810190620001af919062003c2c565b620015fe565b005b348015620001c457600080fd5b50620001cf62001b23565b604051620001de919062003b3f565b60405180910390f35b348015620001f457600080fd5b506200021360048036038101906200020d919062003c2c565b62002188565b005b3480156200022257600080fd5b506200022d62002761565b6040516200023c919062003b3f565b60405180910390f35b3480156200025257600080fd5b506200025d62002b08565b6040516200026c919062003b3f565b60405180910390f35b3480156200028257600080fd5b506200028d620031fd565b6040516200029c919062003c84565b60405180910390f35b600085118015620002b857506001548511155b620002fa576040517f08c379a0000000000000000000000000000000000000000000000000000000008152600401620002f19062003d02565b60405180910390fd5b60008060003373ffffffffffffffffffffffffffffffffffffffff1673ffffffffffffffffffffffffffffffffffffffff16815260200190815260200160002090506000805b8280549050811015620004dd578783828154811062000364576200036362003d24565b5b90600052602060002090600902016000015403620004cf576001915082818154811062000396576200039562003d24565b5b906000526020600020906009020160060160149054906101000a900460ff1615620003f8576040517f08c379a0000000000000000000000000000000000000000000000000000000008152600401620003ef9062003da3565b60405180910390fd5b868382815481106200040f576200040e62003d24565b5b906000526020600020906009020160010190816200042e919062003ff1565b508583828154811062000446576200044562003d24565b5b9060005260206000209060090201600201908162000465919062003ff1565b50848382815481106200047d576200047c62003d24565b5b90600052602060002090600902016003018190555083838281548110620004a957620004a862003d24565b5b90600052602060002090600902016004019081620004c8919062003ff1565b50620004dd565b808060010191505062000340565b508062000521576040517f08c379a0000000000000000000000000000000000000000000000000000000008152600401620005189062004128565b60405180910390fd5b50505050505050565b6200056b6040518060400160405280600c81526020017f50726963652069733a20257300000000000000000000000000000000000000008152508362003203565b60008060003373ffffffffffffffffffffffffffffffffffffffff1673ffffffffffffffffffffffffffffffffffffffff168152602001908152602001600020805490500362000619576002339080600181540180825580915050600190039060005260206000200160009091909190916101000a81548173ffffffffffffffffffffffffffffffffffffffff021916908373ffffffffffffffffffffffffffffffffffffffff1602179055505b600160008154809291906200062e9062004179565b91905055506000803373ffffffffffffffffffffffffffffffffffffffff1673ffffffffffffffffffffffffffffffffffffffff1681526020019081526020016000206040518061014001604052806001548152602001868152602001858152602001848152602001838152602001428152602001600073ffffffffffffffffffffffffffffffffffffffff168152602001600015158152602001600073ffffffffffffffffffffffffffffffffffffffff1681526020013373ffffffffffffffffffffffffffffffffffffffff1681525090806001815401808255809150506001900390600052602060002090600902016000909190919091506000820151816000015560208201518160010190816200074a919062003ff1565b50604082015181600201908162000762919062003ff1565b5060608201518160030155608082015181600401908162000784919062003ff1565b5060a0820151816005015560c08201518160060160006101000a81548173ffffffffffffffffffffffffffffffffffffffff021916908373ffffffffffffffffffffffffffffffffffffffff16021790555060e08201518160060160146101000a81548160ff0219169083151502179055506101008201518160070160006101000a81548173ffffffffffffffffffffffffffffffffffffffff021916908373ffffffffffffffffffffffffffffffffffffffff1602179055506101208201518160080160006101000a81548173ffffffffffffffffffffffffffffffffffffffff021916908373ffffffffffffffffffffffffffffffffffffffff160217905550505050505050565b606060008060008060003373ffffffffffffffffffffffffffffffffffffffff1673ffffffffffffffffffffffffffffffffffffffff168152602001908152602001600020905060005b81805490508110156200093f57818181548110620008fb57620008fa62003d24565b5b906000526020600020906009020160060160149054906101000a900460ff1615620009315783806200092d9062004179565b9450505b8080600101915050620008d8565b5060008367ffffffffffffffff8111156200095f576200095e62003511565b5b6040519080825280602002602001820160405280156200099c57816020015b6200098862003391565b8152602001906001900390816200097e5790505b50905060005b828054905081101562000d6357828181548110620009c557620009c462003d24565b5b906000526020600020906009020160060160149054906101000a900460ff161562000d555782818154811062000a0057620009ff62003d24565b5b9060005260206000209060090201604051806101400160405290816000820154815260200160018201805462000a369062003df4565b80601f016020809104026020016040519081016040528092919081815260200182805462000a649062003df4565b801562000ab55780601f1062000a895761010080835404028352916020019162000ab5565b820191906000526020600020905b81548152906001019060200180831162000a9757829003601f168201915b5050505050815260200160028201805462000ad09062003df4565b80601f016020809104026020016040519081016040528092919081815260200182805462000afe9062003df4565b801562000b4f5780601f1062000b235761010080835404028352916020019162000b4f565b820191906000526020600020905b81548152906001019060200180831162000b3157829003601f168201915b505050505081526020016003820154815260200160048201805462000b749062003df4565b80601f016020809104026020016040519081016040528092919081815260200182805462000ba29062003df4565b801562000bf35780601f1062000bc75761010080835404028352916020019162000bf3565b820191906000526020600020905b81548152906001019060200180831162000bd557829003601f168201915b50505050508152602001600582015481526020016006820160009054906101000a900473ffffffffffffffffffffffffffffffffffffffff1673ffffffffffffffffffffffffffffffffffffffff1673ffffffffffffffffffffffffffffffffffffffff1681526020016006820160149054906101000a900460ff161515151581526020016007820160009054906101000a900473ffffffffffffffffffffffffffffffffffffffff1673ffffffffffffffffffffffffffffffffffffffff1673ffffffffffffffffffffffffffffffffffffffff1681526020016008820160009054906101000a900473ffffffffffffffffffffffffffffffffffffffff1673ffffffffffffffffffffffffffffffffffffffff1673ffffffffffffffffffffffffffffffffffffffff168152505082858151811062000d395762000d3862003d24565b5b6020026020010181905250838062000d519062004179565b9450505b8080600101915050620009a2565b508094505050505090565b60008060003373ffffffffffffffffffffffffffffffffffffffff1673ffffffffffffffffffffffffffffffffffffffff168152602001908152602001600020905060008080600090505b838054905081101562000e10578584828154811062000ddd5762000ddc62003d24565b5b9060005260206000209060090201600001540362000e02576001925080915062000e10565b808060010191505062000db9565b508162000e54576040517f08c379a000000000000000000000000000000000000000000000000000000000815260040162000e4b9062004216565b60405180910390fd5b82818154811062000e6a5762000e6962003d24565b5b906000526020600020906009020160060160149054906101000a900460ff1662000ecb576040517f08c379a000000000000000000000000000000000000000000000000000000000815260040162000ec29062004288565b60405180910390fd5b82818154811062000ee15762000ee062003d24565b5b906000526020600020906009020160080160009054906101000a900473ffffffffffffffffffffffffffffffffffffffff1673ffffffffffffffffffffffffffffffffffffffff163373ffffffffffffffffffffffffffffffffffffffff161462000f83576040517f08c379a000000000000000000000000000000000000000000000000000000000815260040162000f7a90620042fa565b60405180910390fd5b82818154811062000f995762000f9862003d24565b5b906000526020600020906009020160070160009054906101000a900473ffffffffffffffffffffffffffffffffffffffff1673ffffffffffffffffffffffffffffffffffffffff1663dd3fa136856040518263ffffffff1660e01b81526004016200100591906200435d565b600060405180830381600087803b1580156200102057600080fd5b505af115801562001035573d6000803e3d6000fd5b50505050620011326040518060400160405280601681526020017f4974656d20736869707065643a2025732062792025730000000000000000000081525084838154811062001089576200108862003d24565b5b90600052602060002090600902016001018054620010a79062003df4565b80601f0160208091040260200160405190810160405280929190818152602001828054620010d59062003df4565b8015620011265780601f10620010fa5761010080835404028352916020019162001126565b820191906000526020600020905b8154815290600101906020018083116200110857829003601f168201915b505050505033620032a3565b5050505050565b60008060003373ffffffffffffffffffffffffffffffffffffffff1673ffffffffffffffffffffffffffffffffffffffff168152602001908152602001600020905060008080600090505b8380549050811015620012535784848281548110620011a857620011a762003d24565b5b906000526020600020906009020160000154036200124557838181548110620011d657620011d562003d24565b5b906000526020600020906009020160060160149054906101000a900460ff161562001238576040517f08c379a00000000000000000000000000000000000000000000000000000000081526004016200122f9062003da3565b60405180910390fd5b6001925080915062001253565b808060010191505062001184565b508162001297576040517f08c379a00000000000000000000000000000000000000000000000000000000081526004016200128e90620043d1565b60405180910390fd5b600060018480549050620012ac9190620043f3565b9050808214620014f357838181548110620012cc57620012cb62003d24565b5b9060005260206000209060090201848381548110620012f057620012ef62003d24565b5b906000526020600020906009020160008201548160000155600182018160010190816200131e919062004446565b506002820181600201908162001335919062004446565b50600382015481600301556004820181600401908162001356919062004446565b50600582015481600501556006820160009054906101000a900473ffffffffffffffffffffffffffffffffffffffff168160060160006101000a81548173ffffffffffffffffffffffffffffffffffffffff021916908373ffffffffffffffffffffffffffffffffffffffff1602179055506006820160149054906101000a900460ff168160060160146101000a81548160ff0219169083151502179055506007820160009054906101000a900473ffffffffffffffffffffffffffffffffffffffff168160070160006101000a81548173ffffffffffffffffffffffffffffffffffffffff021916908373ffffffffffffffffffffffffffffffffffffffff1602179055506008820160009054906101000a900473ffffffffffffffffffffffffffffffffffffffff168160080160006101000a81548173ffffffffffffffffffffffffffffffffffffffff021916908373ffffffffffffffffffffffffffffffffffffffff16021790555090505084848381548110620014dd57620014dc62003d24565b5b9060005260206000209060090201600001819055505b8380548062001507576200150662004547565b5b600190038181906000526020600020906009020160008082016000905560018201600062001536919062003428565b60028201600062001548919062003428565b600382016000905560048201600062001562919062003428565b60058201600090556006820160006101000a81549073ffffffffffffffffffffffffffffffffffffffff02191690556006820160146101000a81549060ff02191690556007820160006101000a81549073ffffffffffffffffffffffffffffffffffffffff02191690556008820160006101000a81549073ffffffffffffffffffffffffffffffffffffffff0219169055505090555050505050565b6000821180156200161157506001548211155b62001653576040517f08c379a00000000000000000000000000000000000000000000000000000000081526004016200164a9062003d02565b60405180910390fd5b60008060008373ffffffffffffffffffffffffffffffffffffffff1673ffffffffffffffffffffffffffffffffffffffff168152602001908152602001600020905060008080600090505b8380549050811015620016f55785848281548110620016c257620016c162003d24565b5b90600052602060002090600902016000015403620016e75760019250809150620016f5565b80806001019150506200169e565b508162001739576040517f08c379a0000000000000000000000000000000000000000000000000000000008152600401620017309062004216565b60405180910390fd5b8281815481106200174f576200174e62003d24565b5b906000526020600020906009020160060160149054906101000a900460ff1615620017b1576040517f08c379a0000000000000000000000000000000000000000000000000000000008152600401620017a89062003da3565b60405180910390fd5b8373ffffffffffffffffffffffffffffffffffffffff16838281548110620017de57620017dd62003d24565b5b906000526020600020906009020160080160009054906101000a900473ffffffffffffffffffffffffffffffffffffffff1673ffffffffffffffffffffffffffffffffffffffff161462001869576040517f08c379a00000000000000000000000000000000000000000000000000000000081526004016200186090620045c6565b60405180910390fd5b8281815481106200187f576200187e62003d24565b5b9060005260206000209060090201600301543414620018d5576040517f08c379a0000000000000000000000000000000000000000000000000000000008152600401620018cc906200465e565b60405180910390fd5b6000343386604051620018e8906200346e565b620018f5929190620046b6565b6040518091039082f090508015801562001913573d6000803e3d6000fd5b509050338483815481106200192d576200192c62003d24565b5b906000526020600020906009020160060160006101000a81548173ffffffffffffffffffffffffffffffffffffffff021916908373ffffffffffffffffffffffffffffffffffffffff160217905550600184838154811062001994576200199362003d24565b5b906000526020600020906009020160060160146101000a81548160ff02191690831515021790555080848381548110620019d357620019d262003d24565b5b906000526020600020906009020160070160006101000a81548173ffffffffffffffffffffffffffffffffffffffff021916908373ffffffffffffffffffffffffffffffffffffffff16021790555062001b1b6040518060400160405280601881526020017f4974656d207075726368617365643a202573206279202573000000000000000081525085848154811062001a725762001a7162003d24565b5b9060005260206000209060090201600101805462001a909062003df4565b80601f016020809104026020016040519081016040528092919081815260200182805462001abe9062003df4565b801562001b0f5780601f1062001ae35761010080835404028352916020019162001b0f565b820191906000526020600020905b81548152906001019060200180831162001af157829003601f168201915b505050505033620032a3565b505050505050565b606060008060005b60028054905081101562001c765760008060006002848154811062001b555762001b5462003d24565b5b9060005260206000200160009054906101000a900473ffffffffffffffffffffffffffffffffffffffff1673ffffffffffffffffffffffffffffffffffffffff1673ffffffffffffffffffffffffffffffffffffffff168152602001908152602001600020905060005b818054905081101562001c66573373ffffffffffffffffffffffffffffffffffffffff1682828154811062001bf95762001bf862003d24565b5b906000526020600020906009020160060160009054906101000a900473ffffffffffffffffffffffffffffffffffffffff1673ffffffffffffffffffffffffffffffffffffffff160362001c5857848062001c549062004179565b9550505b808060010191505062001bbf565b5050808060010191505062001b2b565b5060008267ffffffffffffffff81111562001c965762001c9562003511565b5b60405190808252806020026020018201604052801562001cd357816020015b62001cbf62003391565b81526020019060019003908162001cb55790505b50905060005b6002805490508110156200217e5760008060006002848154811062001d035762001d0262003d24565b5b9060005260206000200160009054906101000a900473ffffffffffffffffffffffffffffffffffffffff1673ffffffffffffffffffffffffffffffffffffffff1673ffffffffffffffffffffffffffffffffffffffff168152602001908152602001600020905060005b81805490508110156200216e573373ffffffffffffffffffffffffffffffffffffffff1682828154811062001da75762001da662003d24565b5b906000526020600020906009020160060160009054906101000a900473ffffffffffffffffffffffffffffffffffffffff1673ffffffffffffffffffffffffffffffffffffffff1603620021605781818154811062001e0b5762001e0a62003d24565b5b9060005260206000209060090201604051806101400160405290816000820154815260200160018201805462001e419062003df4565b80601f016020809104026020016040519081016040528092919081815260200182805462001e6f9062003df4565b801562001ec05780601f1062001e945761010080835404028352916020019162001ec0565b820191906000526020600020905b81548152906001019060200180831162001ea257829003601f168201915b5050505050815260200160028201805462001edb9062003df4565b80601f016020809104026020016040519081016040528092919081815260200182805462001f099062003df4565b801562001f5a5780601f1062001f2e5761010080835404028352916020019162001f5a565b820191906000526020600020905b81548152906001019060200180831162001f3c57829003601f168201915b505050505081526020016003820154815260200160048201805462001f7f9062003df4565b80601f016020809104026020016040519081016040528092919081815260200182805462001fad9062003df4565b801562001ffe5780601f1062001fd25761010080835404028352916020019162001ffe565b820191906000526020600020905b81548152906001019060200180831162001fe057829003601f168201915b50505050508152602001600582015481526020016006820160009054906101000a900473ffffffffffffffffffffffffffffffffffffffff1673ffffffffffffffffffffffffffffffffffffffff1673ffffffffffffffffffffffffffffffffffffffff1681526020016006820160149054906101000a900460ff161515151581526020016007820160009054906101000a900473ffffffffffffffffffffffffffffffffffffffff1673ffffffffffffffffffffffffffffffffffffffff1673ffffffffffffffffffffffffffffffffffffffff1681526020016008820160009054906101000a900473ffffffffffffffffffffffffffffffffffffffff1673ffffffffffffffffffffffffffffffffffffffff1673ffffffffffffffffffffffffffffffffffffffff168152505084868151811062002144576200214362003d24565b5b602002602001018190525084806200215c9062004179565b9550505b808060010191505062001d6d565b5050808060010191505062001cd9565b5080935050505090565b60008060008373ffffffffffffffffffffffffffffffffffffffff1673ffffffffffffffffffffffffffffffffffffffff168152602001908152602001600020905060008080600090505b83805490508110156200222a5785848281548110620021f757620021f662003d24565b5b906000526020600020906009020160000154036200221c57600192508091506200222a565b8080600101915050620021d3565b50816200226e576040517f08c379a0000000000000000000000000000000000000000000000000000000008152600401620022659062004216565b60405180910390fd5b82818154811062002284576200228362003d24565b5b906000526020600020906009020160060160149054906101000a900460ff16620022e5576040517f08c379a0000000000000000000000000000000000000000000000000000000008152600401620022dc9062004288565b60405180910390fd5b3373ffffffffffffffffffffffffffffffffffffffff1683828154811062002312576200231162003d24565b5b906000526020600020906009020160060160009054906101000a900473ffffffffffffffffffffffffffffffffffffffff1673ffffffffffffffffffffffffffffffffffffffff16146200239d576040517f08c379a0000000000000000000000000000000000000000000000000000000008152600401620023949062004759565b60405180910390fd5b610384838281548110620023b657620023b562003d24565b5b906000526020600020906009020160070160009054906101000a900473ffffffffffffffffffffffffffffffffffffffff1673ffffffffffffffffffffffffffffffffffffffff16635b0222bb6040518163ffffffff1660e01b8152600401602060405180830381865afa15801562002433573d6000803e3d6000fd5b505050506040513d601f19601f8201168201806040525081019062002459919062004792565b620024659190620047c4565b421115620024aa576040517f08c379a0000000000000000000000000000000000000000000000000000000008152600401620024a1906200484f565b60405180910390fd5b6000838281548110620024c257620024c162003d24565b5b906000526020600020906009020160060160146101000a81548160ff021916908315150217905550600083828154811062002502576200250162003d24565b5b906000526020600020906009020160060160006101000a81548173ffffffffffffffffffffffffffffffffffffffff021916908373ffffffffffffffffffffffffffffffffffffffff16021790555082818154811062002567576200256662003d24565b5b906000526020600020906009020160070160009054906101000a900473ffffffffffffffffffffffffffffffffffffffff1673ffffffffffffffffffffffffffffffffffffffff1663be6cb8386040518163ffffffff1660e01b8152600401600060405180830381600087803b158015620025e157600080fd5b505af1158015620025f6573d6000803e3d6000fd5b50505050600083828154811062002612576200261162003d24565b5b906000526020600020906009020160070160006101000a81548173ffffffffffffffffffffffffffffffffffffffff021916908373ffffffffffffffffffffffffffffffffffffffff1602179055506200275a6040518060400160405280601881526020017f4f726465722063616e63656c65643a2025732062792025730000000000000000815250848381548110620026b157620026b062003d24565b5b90600052602060002090600902016001018054620026cf9062003df4565b80601f0160208091040260200160405190810160405280929190818152602001828054620026fd9062003df4565b80156200274e5780601f1062002722576101008083540402835291602001916200274e565b820191906000526020600020905b8154815290600101906020018083116200273057829003601f168201915b505050505033620032a3565b5050505050565b60606000803373ffffffffffffffffffffffffffffffffffffffff1673ffffffffffffffffffffffffffffffffffffffff168152602001908152602001600020805480602002602001604051908101604052809291908181526020016000905b8282101562002aff57838290600052602060002090600902016040518061014001604052908160008201548152602001600182018054620028029062003df4565b80601f0160208091040260200160405190810160405280929190818152602001828054620028309062003df4565b8015620028815780601f10620028555761010080835404028352916020019162002881565b820191906000526020600020905b8154815290600101906020018083116200286357829003601f168201915b505050505081526020016002820180546200289c9062003df4565b80601f0160208091040260200160405190810160405280929190818152602001828054620028ca9062003df4565b80156200291b5780601f10620028ef576101008083540402835291602001916200291b565b820191906000526020600020905b815481529060010190602001808311620028fd57829003601f168201915b5050505050815260200160038201548152602001600482018054620029409062003df4565b80601f01602080910402602001604051908101604052809291908181526020018280546200296e9062003df4565b8015620029bf5780601f106200299357610100808354040283529160200191620029bf565b820191906000526020600020905b815481529060010190602001808311620029a157829003601f168201915b50505050508152602001600582015481526020016006820160009054906101000a900473ffffffffffffffffffffffffffffffffffffffff1673ffffffffffffffffffffffffffffffffffffffff1673ffffffffffffffffffffffffffffffffffffffff1681526020016006820160149054906101000a900460ff161515151581526020016007820160009054906101000a900473ffffffffffffffffffffffffffffffffffffffff1673ffffffffffffffffffffffffffffffffffffffff1673ffffffffffffffffffffffffffffffffffffffff1681526020016008820160009054906101000a900473ffffffffffffffffffffffffffffffffffffffff1673ffffffffffffffffffffffffffffffffffffffff1673ffffffffffffffffffffffffffffffffffffffff168152505081526020019060010190620027c1565b50505050905090565b606060008060005b60028054905081101562002c34573373ffffffffffffffffffffffffffffffffffffffff166002828154811062002b4c5762002b4b62003d24565b5b9060005260206000200160009054906101000a900473ffffffffffffffffffffffffffffffffffffffff1673ffffffffffffffffffffffffffffffffffffffff161462002c26576000806002838154811062002bad5762002bac62003d24565b5b9060005260206000200160009054906101000a900473ffffffffffffffffffffffffffffffffffffffff1673ffffffffffffffffffffffffffffffffffffffff1673ffffffffffffffffffffffffffffffffffffffff168152602001908152602001600020805490508362002c239190620047c4565b92505b808060010191505062002b10565b5060008267ffffffffffffffff81111562002c545762002c5362003511565b5b60405190808252806020026020018201604052801562002c9157816020015b62002c7d62003391565b81526020019060019003908162002c735790505b50905060005b60028054905081101562003171573373ffffffffffffffffffffffffffffffffffffffff166002828154811062002cd35762002cd262003d24565b5b9060005260206000200160009054906101000a900473ffffffffffffffffffffffffffffffffffffffff1673ffffffffffffffffffffffffffffffffffffffff1614620031635760008060006002848154811062002d365762002d3562003d24565b5b9060005260206000200160009054906101000a900473ffffffffffffffffffffffffffffffffffffffff1673ffffffffffffffffffffffffffffffffffffffff1673ffffffffffffffffffffffffffffffffffffffff168152602001908152602001600020905060005b8180549050811015620031605781818154811062002dc35762002dc262003d24565b5b906000526020600020906009020160060160149054906101000a900460ff16620031525781818154811062002dfd5762002dfc62003d24565b5b9060005260206000209060090201604051806101400160405290816000820154815260200160018201805462002e339062003df4565b80601f016020809104026020016040519081016040528092919081815260200182805462002e619062003df4565b801562002eb25780601f1062002e865761010080835404028352916020019162002eb2565b820191906000526020600020905b81548152906001019060200180831162002e9457829003601f168201915b5050505050815260200160028201805462002ecd9062003df4565b80601f016020809104026020016040519081016040528092919081815260200182805462002efb9062003df4565b801562002f4c5780601f1062002f205761010080835404028352916020019162002f4c565b820191906000526020600020905b81548152906001019060200180831162002f2e57829003601f168201915b505050505081526020016003820154815260200160048201805462002f719062003df4565b80601f016020809104026020016040519081016040528092919081815260200182805462002f9f9062003df4565b801562002ff05780601f1062002fc45761010080835404028352916020019162002ff0565b820191906000526020600020905b81548152906001019060200180831162002fd257829003601f168201915b50505050508152602001600582015481526020016006820160009054906101000a900473ffffffffffffffffffffffffffffffffffffffff1673ffffffffffffffffffffffffffffffffffffffff1673ffffffffffffffffffffffffffffffffffffffff1681526020016006820160149054906101000a900460ff161515151581526020016007820160009054906101000a900473ffffffffffffffffffffffffffffffffffffffff1673ffffffffffffffffffffffffffffffffffffffff1673ffffffffffffffffffffffffffffffffffffffff1681526020016008820160009054906101000a900473ffffffffffffffffffffffffffffffffffffffff1673ffffffffffffffffffffffffffffffffffffffff1673ffffffffffffffffffffffffffffffffffffffff168152505084868151811062003136576200313562003d24565b5b602002602001018190525084806200314e9062004179565b9550505b808060010191505062002da0565b50505b808060010191505062002c97565b50620031b36040518060400160405280600d81526020017f546f74616c204974656d733a20000000000000000000000000000000000000008152508462003203565b620031f46040518060400160405280600f81526020017f43757272656e7420496e6465783a2000000000000000000000000000000000008152508362003203565b80935050505090565b60015481565b6200329f82826040516024016200321c92919062004871565b6040516020818303038152906040527fb60e72cc000000000000000000000000000000000000000000000000000000007bffffffffffffffffffffffffffffffffffffffffffffffffffffffff19166020820180517bffffffffffffffffffffffffffffffffffffffffffffffffffffffff838183161783525050505062003346565b5050565b62003341838383604051602401620032be93929190620048a5565b6040516020818303038152906040527f95ed0195000000000000000000000000000000000000000000000000000000007bffffffffffffffffffffffffffffffffffffffffffffffffffffffff19166020820180517bffffffffffffffffffffffffffffffffffffffffffffffffffffffff838183161783525050505062003346565b505050565b6200336181620033596200336462003385565b63ffffffff16565b50565b60006a636f6e736f6c652e6c6f679050600080835160208501845afa505050565b6200347c819050919050565b604051806101400160405280600081526020016060815260200160608152602001600081526020016060815260200160008152602001600073ffffffffffffffffffffffffffffffffffffffff168152602001600015158152602001600073ffffffffffffffffffffffffffffffffffffffff168152602001600073ffffffffffffffffffffffffffffffffffffffff1681525090565b508054620034369062003df4565b6000825580601f106200344a57506200346b565b601f0160209004906000526020600020908101906200346a919062003488565b5b50565b612a91806200492083390190565b62003486620048f0565b565b5b80821115620034a357600081600090555060010162003489565b5090565b6000604051905090565b600080fd5b600080fd5b6000819050919050565b620034d081620034bb565b8114620034dc57600080fd5b50565b600081359050620034f081620034c5565b92915050565b600080fd5b600080fd5b6000601f19601f8301169050919050565b7f4e487b7100000000000000000000000000000000000000000000000000000000600052604160045260246000fd5b6200354b8262003500565b810181811067ffffffffffffffff821117156200356d576200356c62003511565b5b80604052505050565b600062003582620034a7565b905062003590828262003540565b919050565b600067ffffffffffffffff821115620035b357620035b262003511565b5b620035be8262003500565b9050602081019050919050565b82818337600083830152505050565b6000620035f1620035eb8462003595565b62003576565b90508281526020810184848401111562003610576200360f620034fb565b5b6200361d848285620035cb565b509392505050565b600082601f8301126200363d576200363c620034f6565b5b81356200364f848260208601620035da565b91505092915050565b600080600080600060a08688031215620036775762003676620034b1565b5b60006200368788828901620034df565b955050602086013567ffffffffffffffff811115620036ab57620036aa620034b6565b5b620036b98882890162003625565b945050604086013567ffffffffffffffff811115620036dd57620036dc620034b6565b5b620036eb8882890162003625565b9350506060620036fe88828901620034df565b925050608086013567ffffffffffffffff811115620037225762003721620034b6565b5b620037308882890162003625565b9150509295509295909350565b600080600080608085870312156200375a5762003759620034b1565b5b600085013567ffffffffffffffff8111156200377b576200377a620034b6565b5b620037898782880162003625565b945050602085013567ffffffffffffffff811115620037ad57620037ac620034b6565b5b620037bb8782880162003625565b9350506040620037ce87828801620034df565b925050606085013567ffffffffffffffff811115620037f257620037f1620034b6565b5b620038008782880162003625565b91505092959194509250565b600081519050919050565b600082825260208201905092915050565b6000819050602082019050919050565b6200384381620034bb565b82525050565b600081519050919050565b600082825260208201905092915050565b60005b838110156200388557808201518184015260208101905062003868565b60008484015250505050565b60006200389e8262003849565b620038aa818562003854565b9350620038bc81856020860162003865565b620038c78162003500565b840191505092915050565b600073ffffffffffffffffffffffffffffffffffffffff82169050919050565b6000620038ff82620038d2565b9050919050565b6200391181620038f2565b82525050565b60008115159050919050565b6200392e8162003917565b82525050565b6000819050919050565b60006200395f620039596200395384620038d2565b62003934565b620038d2565b9050919050565b600062003973826200393e565b9050919050565b6000620039878262003966565b9050919050565b62003999816200397a565b82525050565b600061014083016000830151620039ba600086018262003838565b5060208301518482036020860152620039d4828262003891565b91505060408301518482036040860152620039f0828262003891565b915050606083015162003a07606086018262003838565b506080830151848203608086015262003a21828262003891565b91505060a083015162003a3860a086018262003838565b5060c083015162003a4d60c086018262003906565b5060e083015162003a6260e086018262003923565b5061010083015162003a796101008601826200398e565b5061012083015162003a9061012086018262003906565b508091505092915050565b600062003aa983836200399f565b905092915050565b6000602082019050919050565b600062003acb826200380c565b62003ad7818562003817565b93508360208202850162003aeb8562003828565b8060005b8581101562003b2d578484038952815162003b0b858262003a9b565b945062003b188362003ab1565b925060208a0199505060018101905062003aef565b50829750879550505050505092915050565b6000602082019050818103600083015262003b5b818462003abe565b905092915050565b6000806040838503121562003b7d5762003b7c620034b1565b5b600062003b8d85828601620034df565b925050602083013567ffffffffffffffff81111562003bb15762003bb0620034b6565b5b62003bbf8582860162003625565b9150509250929050565b60006020828403121562003be25762003be1620034b1565b5b600062003bf284828501620034df565b91505092915050565b62003c0681620038f2565b811462003c1257600080fd5b50565b60008135905062003c268162003bfb565b92915050565b6000806040838503121562003c465762003c45620034b1565b5b600062003c5685828601620034df565b925050602062003c698582860162003c15565b9150509250929050565b62003c7e81620034bb565b82525050565b600060208201905062003c9b600083018462003c73565b92915050565b600082825260208201905092915050565b7f496e76616c6964206974656d2049440000000000000000000000000000000000600082015250565b600062003cea600f8362003ca1565b915062003cf78262003cb2565b602082019050919050565b6000602082019050818103600083015262003d1d8162003cdb565b9050919050565b7f4e487b7100000000000000000000000000000000000000000000000000000000600052603260045260246000fd5b7f4974656d20616c726561647920736f6c64000000000000000000000000000000600082015250565b600062003d8b60118362003ca1565b915062003d988262003d53565b602082019050919050565b6000602082019050818103600083015262003dbe8162003d7c565b9050919050565b7f4e487b7100000000000000000000000000000000000000000000000000000000600052602260045260246000fd5b6000600282049050600182168062003e0d57607f821691505b60208210810362003e235762003e2262003dc5565b5b50919050565b60008190508160005260206000209050919050565b60006020601f8301049050919050565b600082821b905092915050565b60006008830262003e8d7fffffffffffffffffffffffffffffffffffffffffffffffffffffffffffffffff8262003e4e565b62003e99868362003e4e565b95508019841693508086168417925050509392505050565b600062003ed262003ecc62003ec684620034bb565b62003934565b620034bb565b9050919050565b6000819050919050565b62003eee8362003eb1565b62003f0662003efd8262003ed9565b84845462003e5b565b825550505050565b600090565b62003f1d62003f0e565b62003f2a81848462003ee3565b505050565b5b8181101562003f525762003f4660008262003f13565b60018101905062003f30565b5050565b601f82111562003fa15762003f6b8162003e29565b62003f768462003e3e565b8101602085101562003f86578190505b62003f9e62003f958562003e3e565b83018262003f2f565b50505b505050565b600082821c905092915050565b600062003fc66000198460080262003fa6565b1980831691505092915050565b600062003fe1838362003fb3565b9150826002028217905092915050565b62003ffc8262003849565b67ffffffffffffffff81111562004018576200401762003511565b5b62004024825462003df4565b6200403182828562003f56565b600060209050601f83116001811462004069576000841562004054578287015190505b62004060858262003fd3565b865550620040d0565b601f198416620040798662003e29565b60005b82811015620040a3578489015182556001820191506020850194506020810190506200407c565b86831015620040c35784890151620040bf601f89168262003fb3565b8355505b6001600288020188555050505b505050505050565b7f4974656d20646f6573206e6f742062656c6f6e6720746f2073656e6465720000600082015250565b600062004110601e8362003ca1565b91506200411d82620040d8565b602082019050919050565b60006020820190508181036000830152620041438162004101565b9050919050565b7f4e487b7100000000000000000000000000000000000000000000000000000000600052601160045260246000fd5b60006200418682620034bb565b91507fffffffffffffffffffffffffffffffffffffffffffffffffffffffffffffffff8203620041bb57620041ba6200414a565b5b600182019050919050565b7f4974656d206e6f7420666f756e64000000000000000000000000000000000000600082015250565b6000620041fe600e8362003ca1565b91506200420b82620041c6565b602082019050919050565b600060208201905081810360008301526200423181620041ef565b9050919050565b7f4974656d20686173206e6f74206265656e207075726368617365640000000000600082015250565b600062004270601b8362003ca1565b91506200427d8262004238565b602082019050919050565b60006020820190508181036000830152620042a38162004261565b9050919050565b7f4f6e6c792073656c6c65722063616e20736869702074686973206974656d0000600082015250565b6000620042e2601e8362003ca1565b9150620042ef82620042aa565b602082019050919050565b600060208201905081810360008301526200431581620042d3565b9050919050565b6000620043298262003849565b62004335818562003ca1565b93506200434781856020860162003865565b620043528162003500565b840191505092915050565b600060208201905081810360008301526200437981846200431c565b905092915050565b7f4974656d20646f6573206e6f7420657869737400000000000000000000000000600082015250565b6000620043b960138362003ca1565b9150620043c68262004381565b602082019050919050565b60006020820190508181036000830152620043ec81620043aa565b9050919050565b60006200440082620034bb565b91506200440d83620034bb565b92508282039050818111156200442857620044276200414a565b5b92915050565b6000815490506200443f8162003df4565b9050919050565b8181036200445657505062004545565b62004461826200442e565b67ffffffffffffffff8111156200447d576200447c62003511565b5b62004489825462003df4565b6200449682828562003f56565b6000601f831160018114620044ca5760008415620044b5578287015490505b620044c1858262003fd3565b8655506200453e565b601f198416620044da8762003e29565b9650620044e78662003e29565b60005b828110156200451157848901548255600182019150600185019450602081019050620044ea565b868310156200453157848901546200452d601f89168262003fb3565b8355505b6001600288020188555050505b5050505050505b565b7f4e487b7100000000000000000000000000000000000000000000000000000000600052603160045260246000fd5b7f4f776e65722063616e206e6f742062757920746865206974656d2e0000000000600082015250565b6000620045ae601b8362003ca1565b9150620045bb8262004576565b602082019050919050565b60006020820190508181036000830152620045e1816200459f565b9050919050565b7f496e636f727265637420616d6f756e74206f662065746865722f77656920736560008201527f6e742e0000000000000000000000000000000000000000000000000000000000602082015250565b60006200464660238362003ca1565b91506200465382620045e8565b604082019050919050565b60006020820190508181036000830152620046798162004637565b9050919050565b6200468b81620038f2565b82525050565b60006200469e82620038d2565b9050919050565b620046b08162004691565b82525050565b6000604082019050620046cd600083018562004680565b620046dc6020830184620046a5565b9392505050565b7f4f6e6c79207468652062757965722063616e2063616e63656c20746865206f7260008201527f6465720000000000000000000000000000000000000000000000000000000000602082015250565b60006200474160238362003ca1565b91506200474e82620046e3565b604082019050919050565b60006020820190508181036000830152620047748162004732565b9050919050565b6000815190506200478c81620034c5565b92915050565b600060208284031215620047ab57620047aa620034b1565b5b6000620047bb848285016200477b565b91505092915050565b6000620047d182620034bb565b9150620047de83620034bb565b9250828201905080821115620047f957620047f86200414a565b5b92915050565b7f43616e63656c6c6174696f6e20706572696f6420686173206578706972656400600082015250565b600062004837601f8362003ca1565b91506200484482620047ff565b602082019050919050565b600060208201905081810360008301526200486a8162004828565b9050919050565b600060408201905081810360008301526200488d81856200431c565b90506200489e602083018462003c73565b9392505050565b60006060820190508181036000830152620048c181866200431c565b90508181036020830152620048d781856200431c565b9050620048e8604083018462004680565b949350505050565b7f4e487b7100000000000000000000000000000000000000000000000000000000600052605160045260246000fdfe608060405260405162002a9138038062002a9183398181016040528101906200002991906200028a565b816001806101000a81548173ffffffffffffffffffffffffffffffffffffffff021916908373ffffffffffffffffffffffffffffffffffffffff16021790555080600260006101000a81548173ffffffffffffffffffffffffffffffffffffffff021916908373ffffffffffffffffffffffffffffffffffffffff160217905550736a7d3230514ee0e8078f23cf65b367d9984b055a600360006101000a81548173ffffffffffffffffffffffffffffffffffffffff021916908373ffffffffffffffffffffffffffffffffffffffff1602179055506000600160006101000a81548160ff02191690836004811115620001285762000127620002d1565b5b02179055506000600560006101000a81548160ff02191690831515021790555042600081905550600480600181540180825580915050600190039060005260206000200160006040518060400160405280600c81526020017f4974656d20626f756768742e000000000000000000000000000000000000000081525090919091509081620001b791906200057a565b506000600860006101000a81548160ff021916908315150217905550505062000661565b600080fd5b600073ffffffffffffffffffffffffffffffffffffffff82169050919050565b60006200020d82620001e0565b9050919050565b6200021f8162000200565b81146200022b57600080fd5b50565b6000815190506200023f8162000214565b92915050565b60006200025282620001e0565b9050919050565b620002648162000245565b81146200027057600080fd5b50565b600081519050620002848162000259565b92915050565b60008060408385031215620002a457620002a3620001db565b5b6000620002b4858286016200022e565b9250506020620002c78582860162000273565b9150509250929050565b7f4e487b7100000000000000000000000000000000000000000000000000000000600052602160045260246000fd5b600081519050919050565b7f4e487b7100000000000000000000000000000000000000000000000000000000600052604160045260246000fd5b7f4e487b7100000000000000000000000000000000000000000000000000000000600052602260045260246000fd5b600060028204905060018216806200038257607f821691505b6020821081036200039857620003976200033a565b5b50919050565b60008190508160005260206000209050919050565b60006020601f8301049050919050565b600082821b905092915050565b600060088302620004027fffffffffffffffffffffffffffffffffffffffffffffffffffffffffffffffff82620003c3565b6200040e8683620003c3565b95508019841693508086168417925050509392505050565b6000819050919050565b6000819050919050565b60006200045b620004556200044f8462000426565b62000430565b62000426565b9050919050565b6000819050919050565b62000477836200043a565b6200048f620004868262000462565b848454620003d0565b825550505050565b600090565b620004a662000497565b620004b38184846200046c565b505050565b5b81811015620004db57620004cf6000826200049c565b600181019050620004b9565b5050565b601f8211156200052a57620004f4816200039e565b620004ff84620003b3565b810160208510156200050f578190505b620005276200051e85620003b3565b830182620004b8565b50505b505050565b600082821c905092915050565b60006200054f600019846008026200052f565b1980831691505092915050565b60006200056a83836200053c565b9150826002028217905092915050565b620005858262000300565b67ffffffffffffffff811115620005a157620005a06200030b565b5b620005ad825462000369565b620005ba828285620004df565b600060209050601f831160018114620005f25760008415620005dd578287015190505b620005e985826200055c565b86555062000659565b601f19841662000602866200039e565b60005b828110156200062c5784890151825560018201915060208501945060208101905062000605565b868310156200064c578489015162000648601f8916826200053c565b8355505b6001600288020188555050505b505050505050565b61242080620006716000396000f3fe608060405234801561001057600080fd5b506004361061010b5760003560e01c80638285074b116100a2578063c00ccd5411610071578063c00ccd541461024d578063d16f5b2914610269578063dd3fa13614610287578063df8d93b4146102a3578063eaaf0b63146102c15761010b565b80638285074b146101ed57806389e1e82a14610209578063afe0104314610225578063be6cb838146102435761010b565b80635b0222bb116100de5780635b0222bb146101775780635e10177b1461019557806364e6aa521461019f5780637150d8ae146101cf5761010b565b806308551a53146101105780631865c57d1461012e57806319561dae1461014f5780634fd6137c1461016d575b600080fd5b6101186102e1565b604051610125919061152b565b60405180910390f35b610136610307565b604051610146949392919061164d565b60405180910390f35b6101576104d6565b60405161016491906116a7565b60405180910390f35b610175610564565b005b61017f610717565b60405161018c91906116e2565b60405180910390f35b61019d61071d565b005b6101b960048036038101906101b4919061173d565b61091e565b6040516101c691906116a7565b60405180910390f35b6101d76109ca565b6040516101e4919061178b565b60405180910390f35b610207600480360381019061020291906118db565b6109ee565b005b610223600480360381019061021e919061195c565b610ba7565b005b61022d610e66565b60405161023a9190611989565b60405180910390f35b61024b610e79565b005b610267600480360381019061026291906118db565b610ee2565b005b61027161104c565b60405161027e91906119b3565b60405180910390f35b6102a1600480360381019061029c91906118db565b61105f565b005b6102ab61125b565b6040516102b891906116a7565b60405180910390f35b6102c96112e9565b6040516102d893929190611ada565b60405180910390f35b600260009054906101000a900473ffffffffffffffffffffffffffffffffffffffff1681565b60006060806060600160009054906101000a900460ff1660096006600782805461033090611b55565b80601f016020809104026020016040519081016040528092919081815260200182805461035c90611b55565b80156103a95780601f1061037e576101008083540402835291602001916103a9565b820191906000526020600020905b81548152906001019060200180831161038c57829003601f168201915b505050505092508180546103bc90611b55565b80601f01602080910402602001604051908101604052809291908181526020018280546103e890611b55565b80156104355780601f1061040a57610100808354040283529160200191610435565b820191906000526020600020905b81548152906001019060200180831161041857829003601f168201915b5050505050915080805461044890611b55565b80601f016020809104026020016040519081016040528092919081815260200182805461047490611b55565b80156104c15780601f10610496576101008083540402835291602001916104c1565b820191906000526020600020905b8154815290600101906020018083116104a457829003601f168201915b50505050509050935093509350935090919293565b600680546104e390611b55565b80601f016020809104026020016040519081016040528092919081815260200182805461050f90611b55565b801561055c5780601f106105315761010080835404028352916020019161055c565b820191906000526020600020905b81548152906001019060200180831161053f57829003601f168201915b505050505081565b60018054906101000a900473ffffffffffffffffffffffffffffffffffffffff1673ffffffffffffffffffffffffffffffffffffffff163373ffffffffffffffffffffffffffffffffffffffff16146105f2576040517f08c379a00000000000000000000000000000000000000000000000000000000081526004016105e990611bd2565b60405180910390fd5b6001600481111561060657610605611546565b5b600160009054906101000a900460ff16600481111561062857610627611546565b5b14610668576040517f08c379a000000000000000000000000000000000000000000000000000000000815260040161065f90611c64565b60405180910390fd5b6003600160006101000a81548160ff0219169083600481111561068e5761068d611546565b5b02179055506001600860006101000a81548160ff021916908315150217905550600480600181540180825580915050600190039060005260206000200160006040518060400160405280601c81526020017f44697370757465206f70656e6564206279207468652062757965722e00000000815250909190915090816107149190611e30565b50565b60005481565b60018054906101000a900473ffffffffffffffffffffffffffffffffffffffff1673ffffffffffffffffffffffffffffffffffffffff163373ffffffffffffffffffffffffffffffffffffffff16146107ab576040517f08c379a00000000000000000000000000000000000000000000000000000000081526004016107a290611bd2565b60405180910390fd5b600160048111156107bf576107be611546565b5b600160009054906101000a900460ff1660048111156107e1576107e0611546565b5b14610821576040517f08c379a000000000000000000000000000000000000000000000000000000000815260040161081890611f4e565b60405180910390fd5b600260009054906101000a900473ffffffffffffffffffffffffffffffffffffffff1673ffffffffffffffffffffffffffffffffffffffff166108fc479081150290604051600060405180830381858888f19350505050158015610889573d6000803e3d6000fd5b506002600160006101000a81548160ff021916908360048111156108b0576108af611546565b5b0217905550600480600181540180825580915050600190039060005260206000200160006040518060400160405280601b81526020017f4974656d207265636965766564206279207468652062757965722e00000000008152509091909150908161091b9190611e30565b50565b6004818154811061092e57600080fd5b90600052602060002001600091509050805461094990611b55565b80601f016020809104026020016040519081016040528092919081815260200182805461097590611b55565b80156109c25780601f10610997576101008083540402835291602001916109c2565b820191906000526020600020905b8154815290600101906020018083116109a557829003601f168201915b505050505081565b60018054906101000a900473ffffffffffffffffffffffffffffffffffffffff1681565b60018054906101000a900473ffffffffffffffffffffffffffffffffffffffff1673ffffffffffffffffffffffffffffffffffffffff163373ffffffffffffffffffffffffffffffffffffffff1614610a7c576040517f08c379a0000000000000000000000000000000000000000000000000000000008152600401610a7390611bd2565b60405180910390fd5b60036004811115610a9057610a8f611546565b5b600160009054906101000a900460ff166004811115610ab257610ab1611546565b5b14610af2576040517f08c379a0000000000000000000000000000000000000000000000000000000008152600401610ae990611fba565b60405180910390fd5b600060078054610b0190611b55565b905014610b43576040517f08c379a0000000000000000000000000000000000000000000000000000000008152600401610b3a90612026565b60405180910390fd5b600060068054610b5290611b55565b905011610b94576040517f08c379a0000000000000000000000000000000000000000000000000000000008152600401610b8b90612092565b60405180910390fd5b8060079081610ba39190611e30565b5050565b600360009054906101000a900473ffffffffffffffffffffffffffffffffffffffff1673ffffffffffffffffffffffffffffffffffffffff163373ffffffffffffffffffffffffffffffffffffffff1614610c37576040517f08c379a0000000000000000000000000000000000000000000000000000000008152600401610c2e90612124565b60405180910390fd5b60036004811115610c4b57610c4a611546565b5b600160009054906101000a900460ff166004811115610c6d57610c6c611546565b5b14610cad576040517f08c379a0000000000000000000000000000000000000000000000000000000008152600401610ca490611fba565b60405180910390fd5b8015610d695760018054906101000a900473ffffffffffffffffffffffffffffffffffffffff1673ffffffffffffffffffffffffffffffffffffffff166108fc479081150290604051600060405180830381858888f19350505050158015610d19573d6000803e3d6000fd5b50600480600181540180825580915050600190039060005260206000200160006040518060600160405280602381526020016123c86023913990919091509081610d639190611e30565b50610e1d565b600260009054906101000a900473ffffffffffffffffffffffffffffffffffffffff1673ffffffffffffffffffffffffffffffffffffffff166108fc479081150290604051600060405180830381858888f19350505050158015610dd1573d6000803e3d6000fd5b50600480600181540180825580915050600190039060005260206000200160006040518060600160405280602481526020016123a46024913990919091509081610e1b9190611e30565b505b6004600160006101000a81548160ff02191690836004811115610e4357610e42611546565b5b02179055506000600860006101000a81548160ff02191690831515021790555050565b600160009054906101000a900460ff1681565b60018054906101000a900473ffffffffffffffffffffffffffffffffffffffff1673ffffffffffffffffffffffffffffffffffffffff166108fc479081150290604051600060405180830381858888f19350505050158015610edf573d6000803e3d6000fd5b50565b600260009054906101000a900473ffffffffffffffffffffffffffffffffffffffff1673ffffffffffffffffffffffffffffffffffffffff163373ffffffffffffffffffffffffffffffffffffffff1614610f72576040517f08c379a0000000000000000000000000000000000000000000000000000000008152600401610f6990612190565b60405180910390fd5b60036004811115610f8657610f85611546565b5b600160009054906101000a900460ff166004811115610fa857610fa7611546565b5b14610fe8576040517f08c379a0000000000000000000000000000000000000000000000000000000008152600401610fdf90611fba565b60405180910390fd5b600060068054610ff790611b55565b905014611039576040517f08c379a000000000000000000000000000000000000000000000000000000000815260040161103090612222565b60405180910390fd5b80600690816110489190611e30565b5050565b600860009054906101000a900460ff1681565b600260009054906101000a900473ffffffffffffffffffffffffffffffffffffffff1673ffffffffffffffffffffffffffffffffffffffff163373ffffffffffffffffffffffffffffffffffffffff16146110ef576040517f08c379a00000000000000000000000000000000000000000000000000000000081526004016110e690612190565b60405180910390fd5b6000600481111561110357611102611546565b5b600160009054906101000a900460ff16600481111561112557611124611546565b5b14611165576040517f08c379a000000000000000000000000000000000000000000000000000000000815260040161115c9061228e565b60405180910390fd5b61038460005461117591906122dd565b4210156111b7576040517f08c379a00000000000000000000000000000000000000000000000000000000081526004016111ae90612383565b60405180910390fd5b60018060006101000a81548160ff021916908360048111156111dc576111db611546565b5b021790555080600990816111f09190611e30565b50600480600181540180825580915050600190039060005260206000200160006040518060400160405280601881526020017f4974656d2073656e74206279207468652073656c6c65722e0000000000000000815250909190915090816112579190611e30565b5050565b6007805461126890611b55565b80601f016020809104026020016040519081016040528092919081815260200182805461129490611b55565b80156112e15780601f106112b6576101008083540402835291602001916112e1565b820191906000526020600020905b8154815290600101906020018083116112c457829003601f168201915b505050505081565b606080606060046006600782805480602002602001604051908101604052809291908181526020016000905b828210156113c157838290600052602060002001805461133490611b55565b80601f016020809104026020016040519081016040528092919081815260200182805461136090611b55565b80156113ad5780601f10611382576101008083540402835291602001916113ad565b820191906000526020600020905b81548152906001019060200180831161139057829003601f168201915b505050505081526020019060010190611315565b5050505092508180546113d390611b55565b80601f01602080910402602001604051908101604052809291908181526020018280546113ff90611b55565b801561144c5780601f106114215761010080835404028352916020019161144c565b820191906000526020600020905b81548152906001019060200180831161142f57829003601f168201915b5050505050915080805461145f90611b55565b80601f016020809104026020016040519081016040528092919081815260200182805461148b90611b55565b80156114d85780601f106114ad576101008083540402835291602001916114d8565b820191906000526020600020905b8154815290600101906020018083116114bb57829003601f168201915b50505050509050925092509250909192565b600073ffffffffffffffffffffffffffffffffffffffff82169050919050565b6000611515826114ea565b9050919050565b6115258161150a565b82525050565b6000602082019050611540600083018461151c565b92915050565b7f4e487b7100000000000000000000000000000000000000000000000000000000600052602160045260246000fd5b6005811061158657611585611546565b5b50565b600081905061159782611575565b919050565b60006115a782611589565b9050919050565b6115b78161159c565b82525050565b600081519050919050565b600082825260208201905092915050565b60005b838110156115f75780820151818401526020810190506115dc565b60008484015250505050565b6000601f19601f8301169050919050565b600061161f826115bd565b61162981856115c8565b93506116398185602086016115d9565b61164281611603565b840191505092915050565b600060808201905061166260008301876115ae565b81810360208301526116748186611614565b905081810360408301526116888185611614565b9050818103606083015261169c8184611614565b905095945050505050565b600060208201905081810360008301526116c18184611614565b905092915050565b6000819050919050565b6116dc816116c9565b82525050565b60006020820190506116f760008301846116d3565b92915050565b6000604051905090565b600080fd5b600080fd5b61171a816116c9565b811461172557600080fd5b50565b60008135905061173781611711565b92915050565b60006020828403121561175357611752611707565b5b600061176184828501611728565b91505092915050565b6000611775826114ea565b9050919050565b6117858161176a565b82525050565b60006020820190506117a0600083018461177c565b92915050565b600080fd5b600080fd5b7f4e487b7100000000000000000000000000000000000000000000000000000000600052604160045260246000fd5b6117e882611603565b810181811067ffffffffffffffff82111715611807576118066117b0565b5b80604052505050565b600061181a6116fd565b905061182682826117df565b919050565b600067ffffffffffffffff821115611846576118456117b0565b5b61184f82611603565b9050602081019050919050565b82818337600083830152505050565b600061187e6118798461182b565b611810565b90508281526020810184848401111561189a576118996117ab565b5b6118a584828561185c565b509392505050565b600082601f8301126118c2576118c16117a6565b5b81356118d284826020860161186b565b91505092915050565b6000602082840312156118f1576118f0611707565b5b600082013567ffffffffffffffff81111561190f5761190e61170c565b5b61191b848285016118ad565b91505092915050565b60008115159050919050565b61193981611924565b811461194457600080fd5b50565b60008135905061195681611930565b92915050565b60006020828403121561197257611971611707565b5b600061198084828501611947565b91505092915050565b600060208201905061199e60008301846115ae565b92915050565b6119ad81611924565b82525050565b60006020820190506119c860008301846119a4565b92915050565b600081519050919050565b600082825260208201905092915050565b6000819050602082019050919050565b600082825260208201905092915050565b6000611a16826115bd565b611a2081856119fa565b9350611a308185602086016115d9565b611a3981611603565b840191505092915050565b6000611a508383611a0b565b905092915050565b6000602082019050919050565b6000611a70826119ce565b611a7a81856119d9565b935083602082028501611a8c856119ea565b8060005b85811015611ac85784840389528151611aa98582611a44565b9450611ab483611a58565b925060208a01995050600181019050611a90565b50829750879550505050505092915050565b60006060820190508181036000830152611af48186611a65565b90508181036020830152611b088185611614565b90508181036040830152611b1c8184611614565b9050949350505050565b7f4e487b7100000000000000000000000000000000000000000000000000000000600052602260045260246000fd5b60006002820490506001821680611b6d57607f821691505b602082108103611b8057611b7f611b26565b5b50919050565b7f4f6e6c792062757965722063616e2063616c6c2074686973206d6574686f6400600082015250565b6000611bbc601f836115c8565b9150611bc782611b86565b602082019050919050565b60006020820190508181036000830152611beb81611baf565b9050919050565b7f43616e6e6f74206f70656e20646973707574652061742074686973207374616760008201527f6500000000000000000000000000000000000000000000000000000000000000602082015250565b6000611c4e6021836115c8565b9150611c5982611bf2565b604082019050919050565b60006020820190508181036000830152611c7d81611c41565b9050919050565b60008190508160005260206000209050919050565b60006020601f8301049050919050565b600082821b905092915050565b600060088302611ce67fffffffffffffffffffffffffffffffffffffffffffffffffffffffffffffffff82611ca9565b611cf08683611ca9565b95508019841693508086168417925050509392505050565b6000819050919050565b6000611d2d611d28611d23846116c9565b611d08565b6116c9565b9050919050565b6000819050919050565b611d4783611d12565b611d5b611d5382611d34565b848454611cb6565b825550505050565b600090565b611d70611d63565b611d7b818484611d3e565b505050565b5b81811015611d9f57611d94600082611d68565b600181019050611d81565b5050565b601f821115611de457611db581611c84565b611dbe84611c99565b81016020851015611dcd578190505b611de1611dd985611c99565b830182611d80565b50505b505050565b600082821c905092915050565b6000611e0760001984600802611de9565b1980831691505092915050565b6000611e208383611df6565b9150826002028217905092915050565b611e39826115bd565b67ffffffffffffffff811115611e5257611e516117b0565b5b611e5c8254611b55565b611e67828285611da3565b600060209050601f831160018114611e9a5760008415611e88578287015190505b611e928582611e14565b865550611efa565b601f198416611ea886611c84565b60005b82811015611ed057848901518255600182019150602085019450602081019050611eab565b86831015611eed5784890151611ee9601f891682611df6565b8355505b6001600288020188555050505b505050505050565b7f43616e6e6f7420636f6e6669726d2064656c6976657279000000000000000000600082015250565b6000611f386017836115c8565b9150611f4382611f02565b602082019050919050565b60006020820190508181036000830152611f6781611f2b565b9050919050565b7f4e6f206163746976652064697370757465000000000000000000000000000000600082015250565b6000611fa46011836115c8565b9150611faf82611f6e565b602082019050919050565b60006020820190508181036000830152611fd381611f97565b9050919050565b7f50726f6f6620616c7265616479207375626d6974746564206279206275796572600082015250565b60006120106020836115c8565b915061201b82611fda565b602082019050919050565b6000602082019050818103600083015261203f81612003565b9050919050565b7f53656c6c6572206d757374207375626d69742070726f6f662066697273740000600082015250565b600061207c601e836115c8565b915061208782612046565b602082019050919050565b600060208201905081810360008301526120ab8161206f565b9050919050565b7f4f6e6c792061726269747261746f722063616e2063616c6c2074686973206d6560008201527f74686f6400000000000000000000000000000000000000000000000000000000602082015250565b600061210e6024836115c8565b9150612119826120b2565b604082019050919050565b6000602082019050818103600083015261213d81612101565b9050919050565b7f4f6e6c792073656c6c65722063616e2063616c6c2074686973206d6574686f64600082015250565b600061217a6020836115c8565b915061218582612144565b602082019050919050565b600060208201905081810360008301526121a98161216d565b9050919050565b7f50726f6f6620616c7265616479207375626d69747465642062792073656c6c6560008201527f7200000000000000000000000000000000000000000000000000000000000000602082015250565b600061220c6021836115c8565b9150612217826121b0565b604082019050919050565b6000602082019050818103600083015261223b816121ff565b9050919050565b7f43616e6e6f7420736869702e20496e636f7272656374207374617475732e0000600082015250565b6000612278601e836115c8565b915061228382612242565b602082019050919050565b600060208201905081810360008301526122a78161226b565b9050919050565b7f4e487b7100000000000000000000000000000000000000000000000000000000600052601160045260246000fd5b60006122e8826116c9565b91506122f3836116c9565b925082820190508082111561230b5761230a6122ae565b5b92915050565b7f43616e6e6f742073686970206265666f72652031352d6d696e7574652063616e60008201527f63656c6c6174696f6e20706572696f642068617320656c61707365642e000000602082015250565b600061236d603d836115c8565b915061237882612311565b604082019050919050565b6000602082019050818103600083015261239c81612360565b905091905056fe4469737075746520636c6f7365642e2053656c6c65722077617320726566756e6465642e4469737075746520636c6f7365642e2042757965722077617320726566756e6465642ea2646970667358221220f8b0a5c05cb6f381141de9eb0279e771f1716d07c7a1947d1c451bdd117d4be164736f6c63430008180033a26469706673582212203ccfd2859bdb792e3e52744c1c17d20cdfb710e692c57dd0b65cd59ab3b200dc64736f6c63430008180033",
  "linkReferences": {},
  "deployedLinkReferences": {}
}