{
  "_format": "hh-sol-artifact-1",
  "contractName": "Item",
  "sourceName": "contracts/Item.sol",
  "abi": [
    {
      "inputs": [
        {
          "internalType": "address",
          "name": "_escrowContractAddress",
          "type": "address"
        }
      ],
      "stateMutability": "nonpayable",
      "type": "constructor"
    },
    {
      "inputs": [
        {
          "internalType": "string",
          "name": "_title",
          "type": "string"
        },
        {
          "internalType": "string",
          "name": "_description",
          "type": "string"
        },
        {
          "internalType": "uint256",
          "name": "_price",
          "type": "uint256"
        },
        {
          "internalType": "string",
          "name": "_image",
          "type": "string"
        }
      ],
      "name": "addItem",
      "outputs": [],
      "stateMutability": "nonpayable",
      "type": "function"
    },
    {
      "inputs": [],
      "name": "browseItems",
      "outputs": [
        {
          "components": [
            {
              "internalType": "uint256",
              "name": "itemId",
              "type": "uint256"
            },
            {
              "internalType": "string",
              "name": "title",
              "type": "string"
            },
            {
              "internalType": "string",
              "name": "description",
              "type": "string"
            },
            {
              "internalType": "uint256",
              "name": "price",
              "type": "uint256"
            },
            {
              "internalType": "string",
              "name": "image",
              "type": "string"
            },
            {
              "internalType": "uint256",
              "name": "createdAt",
              "type": "uint256"
            },
            {
              "internalType": "address",
              "name": "buyer",
              "type": "address"
            },
            {
              "internalType": "bool",
              "name": "hasBuyer",
              "type": "bool"
            },
            {
              "internalType": "contract Escrow",
              "name": "escrow",
              "type": "address"
            },
            {
              "internalType": "address",
              "name": "seller",
              "type": "address"
            }
          ],
          "internalType": "struct Item.ItemStruct[]",
          "name": "",
          "type": "tuple[]"
        }
      ],
      "stateMutability": "view",
      "type": "function"
    },
    {
      "inputs": [
        {
          "internalType": "uint256",
          "name": "_itemId",
          "type": "uint256"
        }
      ],
      "name": "deleteItem",
      "outputs": [],
      "stateMutability": "nonpayable",
      "type": "function"
    },
    {
      "inputs": [
        {
          "internalType": "uint256",
          "name": "_itemId",
          "type": "uint256"
        },
        {
          "internalType": "string",
          "name": "_title",
          "type": "string"
        },
        {
          "internalType": "string",
          "name": "_description",
          "type": "string"
        },
        {
          "internalType": "uint256",
          "name": "_price",
          "type": "uint256"
        },
        {
          "internalType": "string",
          "name": "_image",
          "type": "string"
        }
      ],
      "name": "editItem",
      "outputs": [],
      "stateMutability": "nonpayable",
      "type": "function"
    },
    {
      "inputs": [],
      "name": "escrowContractAddress",
      "outputs": [
        {
          "internalType": "address",
          "name": "",
          "type": "address"
        }
      ],
      "stateMutability": "view",
      "type": "function"
    },
    {
      "inputs": [],
      "name": "itemsCount",
      "outputs": [
        {
          "internalType": "uint256",
          "name": "",
          "type": "uint256"
        }
      ],
      "stateMutability": "view",
      "type": "function"
    },
    {
      "inputs": [
        {
          "internalType": "uint256",
          "name": "_itemId",
          "type": "uint256"
        },
        {
          "internalType": "address",
          "name": "_seller",
          "type": "address"
        }
      ],
      "name": "purchaseItem",
      "outputs": [],
      "stateMutability": "payable",
      "type": "function"
    },
    {
      "inputs": [],
      "name": "retrieveUserItems",
      "outputs": [
        {
          "components": [
            {
              "internalType": "uint256",
              "name": "itemId",
              "type": "uint256"
            },
            {
              "internalType": "string",
              "name": "title",
              "type": "string"
            },
            {
              "internalType": "string",
              "name": "description",
              "type": "string"
            },
            {
              "internalType": "uint256",
              "name": "price",
              "type": "uint256"
            },
            {
              "internalType": "string",
              "name": "image",
              "type": "string"
            },
            {
              "internalType": "uint256",
              "name": "createdAt",
              "type": "uint256"
            },
            {
              "internalType": "address",
              "name": "buyer",
              "type": "address"
            },
            {
              "internalType": "bool",
              "name": "hasBuyer",
              "type": "bool"
            },
            {
              "internalType": "contract Escrow",
              "name": "escrow",
              "type": "address"
            },
            {
              "internalType": "address",
              "name": "seller",
              "type": "address"
            }
          ],
          "internalType": "struct Item.ItemStruct[]",
          "name": "",
          "type": "tuple[]"
        }
      ],
      "stateMutability": "view",
      "type": "function"
    }
  ],
  "bytecode": "0x60806040523480156200001157600080fd5b5060405162002d2d38038062002d2d8339818101604052810190620000379190620000e9565b80600360006101000a81548173ffffffffffffffffffffffffffffffffffffffff021916908373ffffffffffffffffffffffffffffffffffffffff160217905550506200011b565b600080fd5b600073ffffffffffffffffffffffffffffffffffffffff82169050919050565b6000620000b18262000084565b9050919050565b620000c381620000a4565b8114620000cf57600080fd5b50565b600081519050620000e381620000b8565b92915050565b6000602082840312156200010257620001016200007f565b5b60006200011284828501620000d2565b91505092915050565b612c02806200012b6000396000f3fe60806040526004361061007b5760003560e01c80639ab7e23b1161004e5780639ab7e23b14610117578063d226ae0814610142578063dbc376701461016d578063e2c03ace146101985761007b565b80630461459a1461008057806313df81d6146100a9578063654fc833146100d25780637bfe9efd146100fb575b600080fd5b34801561008c57600080fd5b506100a760048036038101906100a29190611d79565b6101c3565b005b3480156100b557600080fd5b506100d060048036038101906100cb9190611e48565b610422565b005b3480156100de57600080fd5b506100f960048036038101906100f49190611f03565b61077b565b005b61011560048036038101906101109190611f8e565b610c15565b005b34801561012357600080fd5b5061012c610fa0565b604051610139919061228f565b60405180910390f35b34801561014e57600080fd5b5061015761132d565b60405161016491906122c0565b60405180910390f35b34801561017957600080fd5b50610182611353565b60405161018f919061228f565b60405180910390f35b3480156101a457600080fd5b506101ad611a03565b6040516101ba91906122ea565b60405180910390f35b6000851180156101d557506001548511155b610214576040517f08c379a000000000000000000000000000000000000000000000000000000000815260040161020b90612362565b60405180910390fd5b60008060003373ffffffffffffffffffffffffffffffffffffffff1673ffffffffffffffffffffffffffffffffffffffff16815260200190815260200160002090506000805b82805490508110156103d8578783828154811061027a57610279612382565b5b906000526020600020906009020160000154036103cb57600191508281815481106102a8576102a7612382565b5b906000526020600020906009020160060160149054906101000a900460ff1615610307576040517f08c379a00000000000000000000000000000000000000000000000000000000081526004016102fe906123fd565b60405180910390fd5b8683828154811061031b5761031a612382565b5b90600052602060002090600902016001019081610338919061261f565b508583828154811061034d5761034c612382565b5b9060005260206000209060090201600201908161036a919061261f565b508483828154811061037f5761037e612382565b5b906000526020600020906009020160030181905550838382815481106103a8576103a7612382565b5b906000526020600020906009020160040190816103c5919061261f565b506103d8565b808060010191505061025a565b5080610419576040517f08c379a00000000000000000000000000000000000000000000000000000000081526004016104109061273d565b60405180910390fd5b50505050505050565b6104616040518060400160405280600c81526020017f50726963652069733a202573000000000000000000000000000000000000000081525083611a09565b60008060003373ffffffffffffffffffffffffffffffffffffffff1673ffffffffffffffffffffffffffffffffffffffff168152602001908152602001600020805490500361050e576002339080600181540180825580915050600190039060005260206000200160009091909190916101000a81548173ffffffffffffffffffffffffffffffffffffffff021916908373ffffffffffffffffffffffffffffffffffffffff1602179055505b600160008154809291906105219061278c565b91905055506000803373ffffffffffffffffffffffffffffffffffffffff1673ffffffffffffffffffffffffffffffffffffffff1681526020019081526020016000206040518061014001604052806001548152602001868152602001858152602001848152602001838152602001428152602001600073ffffffffffffffffffffffffffffffffffffffff168152602001600015158152602001600073ffffffffffffffffffffffffffffffffffffffff1681526020013373ffffffffffffffffffffffffffffffffffffffff16815250908060018154018082558091505060019003906000526020600020906009020160009091909190915060008201518160000155602082015181600101908161063b919061261f565b506040820151816002019081610651919061261f565b50606082015181600301556080820151816004019081610671919061261f565b5060a0820151816005015560c08201518160060160006101000a81548173ffffffffffffffffffffffffffffffffffffffff021916908373ffffffffffffffffffffffffffffffffffffffff16021790555060e08201518160060160146101000a81548160ff0219169083151502179055506101008201518160070160006101000a81548173ffffffffffffffffffffffffffffffffffffffff021916908373ffffffffffffffffffffffffffffffffffffffff1602179055506101208201518160080160006101000a81548173ffffffffffffffffffffffffffffffffffffffff021916908373ffffffffffffffffffffffffffffffffffffffff160217905550505050505050565b60008060003373ffffffffffffffffffffffffffffffffffffffff1673ffffffffffffffffffffffffffffffffffffffff168152602001908152602001600020905060008080600090505b838054905081101561088857848482815481106107e6576107e5612382565b5b9060005260206000209060090201600001540361087b578381815481106108105761080f612382565b5b906000526020600020906009020160060160149054906101000a900460ff161561086f576040517f08c379a0000000000000000000000000000000000000000000000000000000008152600401610866906123fd565b60405180910390fd5b60019250809150610888565b80806001019150506107c6565b50816108c9576040517f08c379a00000000000000000000000000000000000000000000000000000000081526004016108c090612820565b60405180910390fd5b6000600184805490506108dc9190612840565b9050808214610b13578381815481106108f8576108f7612382565b5b906000526020600020906009020184838154811061091957610918612382565b5b90600052602060002090600902016000820154816000015560018201816001019081610945919061288a565b506002820181600201908161095a919061288a565b506003820154816003015560048201816004019081610979919061288a565b50600582015481600501556006820160009054906101000a900473ffffffffffffffffffffffffffffffffffffffff168160060160006101000a81548173ffffffffffffffffffffffffffffffffffffffff021916908373ffffffffffffffffffffffffffffffffffffffff1602179055506006820160149054906101000a900460ff168160060160146101000a81548160ff0219169083151502179055506007820160009054906101000a900473ffffffffffffffffffffffffffffffffffffffff168160070160006101000a81548173ffffffffffffffffffffffffffffffffffffffff021916908373ffffffffffffffffffffffffffffffffffffffff1602179055506008820160009054906101000a900473ffffffffffffffffffffffffffffffffffffffff168160080160006101000a81548173ffffffffffffffffffffffffffffffffffffffff021916908373ffffffffffffffffffffffffffffffffffffffff16021790555090505084848381548110610afd57610afc612382565b5b9060005260206000209060090201600001819055505b83805480610b2457610b23612972565b5b6001900381819060005260206000209060090201600080820160009055600182016000610b519190611aeb565b600282016000610b619190611aeb565b6003820160009055600482016000610b799190611aeb565b60058201600090556006820160006101000a81549073ffffffffffffffffffffffffffffffffffffffff02191690556006820160146101000a81549060ff02191690556007820160006101000a81549073ffffffffffffffffffffffffffffffffffffffff02191690556008820160006101000a81549073ffffffffffffffffffffffffffffffffffffffff0219169055505090555050505050565b600082118015610c2757506001548211155b610c66576040517f08c379a0000000000000000000000000000000000000000000000000000000008152600401610c5d90612362565b60405180910390fd5b60008060008373ffffffffffffffffffffffffffffffffffffffff1673ffffffffffffffffffffffffffffffffffffffff168152602001908152602001600020905060008080600090505b8380549050811015610d015785848281548110610cd157610cd0612382565b5b90600052602060002090600902016000015403610cf45760019250809150610d01565b8080600101915050610cb1565b5081610d42576040517f08c379a0000000000000000000000000000000000000000000000000000000008152600401610d39906129ed565b60405180910390fd5b6000838281548110610d5757610d56612382565b5b906000526020600020906009020190508060060160149054906101000a900460ff1615610db9576040517f08c379a0000000000000000000000000000000000000000000000000000000008152600401610db0906123fd565b60405180910390fd5b80600301543414610dff576040517f08c379a0000000000000000000000000000000000000000000000000000000008152600401610df690612a59565b60405180910390fd5b6000600360009054906101000a900473ffffffffffffffffffffffffffffffffffffffff1690508073ffffffffffffffffffffffffffffffffffffffff1663ccbae5f633888a86600301546040518563ffffffff1660e01b8152600401610e699493929190612a79565b6020604051808303816000875af1158015610e88573d6000803e3d6000fd5b505050506040513d601f19601f82011682018060405250810190610eac9190612ad3565b50338260060160006101000a81548173ffffffffffffffffffffffffffffffffffffffff021916908373ffffffffffffffffffffffffffffffffffffffff16021790555060018260060160146101000a81548160ff021916908315150217905550808260070160006101000a81548173ffffffffffffffffffffffffffffffffffffffff021916908373ffffffffffffffffffffffffffffffffffffffff1602179055508073ffffffffffffffffffffffffffffffffffffffff166108fc349081150290604051600060405180830381858888f19350505050158015610f96573d6000803e3d6000fd5b5050505050505050565b60606000803373ffffffffffffffffffffffffffffffffffffffff1673ffffffffffffffffffffffffffffffffffffffff168152602001908152602001600020805480602002602001604051908101604052809291908181526020016000905b828210156113245783829060005260206000209060090201604051806101400160405290816000820154815260200160018201805461103e9061244c565b80601f016020809104026020016040519081016040528092919081815260200182805461106a9061244c565b80156110b75780601f1061108c576101008083540402835291602001916110b7565b820191906000526020600020905b81548152906001019060200180831161109a57829003601f168201915b505050505081526020016002820180546110d09061244c565b80601f01602080910402602001604051908101604052809291908181526020018280546110fc9061244c565b80156111495780601f1061111e57610100808354040283529160200191611149565b820191906000526020600020905b81548152906001019060200180831161112c57829003601f168201915b505050505081526020016003820154815260200160048201805461116c9061244c565b80601f01602080910402602001604051908101604052809291908181526020018280546111989061244c565b80156111e55780601f106111ba576101008083540402835291602001916111e5565b820191906000526020600020905b8154815290600101906020018083116111c857829003601f168201915b50505050508152602001600582015481526020016006820160009054906101000a900473ffffffffffffffffffffffffffffffffffffffff1673ffffffffffffffffffffffffffffffffffffffff1673ffffffffffffffffffffffffffffffffffffffff1681526020016006820160149054906101000a900460ff161515151581526020016007820160009054906101000a900473ffffffffffffffffffffffffffffffffffffffff1673ffffffffffffffffffffffffffffffffffffffff1673ffffffffffffffffffffffffffffffffffffffff1681526020016008820160009054906101000a900473ffffffffffffffffffffffffffffffffffffffff1673ffffffffffffffffffffffffffffffffffffffff1673ffffffffffffffffffffffffffffffffffffffff168152505081526020019060010190611000565b50505050905090565b600360009054906101000a900473ffffffffffffffffffffffffffffffffffffffff1681565b606060008060005b600280549050811015611474573373ffffffffffffffffffffffffffffffffffffffff166002828154811061139357611392612382565b5b9060005260206000200160009054906101000a900473ffffffffffffffffffffffffffffffffffffffff1673ffffffffffffffffffffffffffffffffffffffff161461146757600080600283815481106113f0576113ef612382565b5b9060005260206000200160009054906101000a900473ffffffffffffffffffffffffffffffffffffffff1673ffffffffffffffffffffffffffffffffffffffff1673ffffffffffffffffffffffffffffffffffffffff16815260200190815260200160002080549050836114649190612b00565b92505b808060010191505061135b565b5060008267ffffffffffffffff81111561149157611490611c4e565b5b6040519080825280602002602001820160405280156114ca57816020015b6114b7611b2b565b8152602001906001900390816114af5790505b50905060005b60028054905081101561197b573373ffffffffffffffffffffffffffffffffffffffff166002828154811061150857611507612382565b5b9060005260206000200160009054906101000a900473ffffffffffffffffffffffffffffffffffffffff1673ffffffffffffffffffffffffffffffffffffffff161461196e5760008060006002848154811061156757611566612382565b5b9060005260206000200160009054906101000a900473ffffffffffffffffffffffffffffffffffffffff1673ffffffffffffffffffffffffffffffffffffffff1673ffffffffffffffffffffffffffffffffffffffff168152602001908152602001600020905060005b818054905081101561196b578181815481106115f0576115ef612382565b5b906000526020600020906009020160060160149054906101000a900460ff1661195e5781818154811061162657611625612382565b5b9060005260206000209060090201604051806101400160405290816000820154815260200160018201805461165a9061244c565b80601f01602080910402602001604051908101604052809291908181526020018280546116869061244c565b80156116d35780601f106116a8576101008083540402835291602001916116d3565b820191906000526020600020905b8154815290600101906020018083116116b657829003601f168201915b505050505081526020016002820180546116ec9061244c565b80601f01602080910402602001604051908101604052809291908181526020018280546117189061244c565b80156117655780601f1061173a57610100808354040283529160200191611765565b820191906000526020600020905b81548152906001019060200180831161174857829003601f168201915b50505050508152602001600382015481526020016004820180546117889061244c565b80601f01602080910402602001604051908101604052809291908181526020018280546117b49061244c565b80156118015780601f106117d657610100808354040283529160200191611801565b820191906000526020600020905b8154815290600101906020018083116117e457829003601f168201915b50505050508152602001600582015481526020016006820160009054906101000a900473ffffffffffffffffffffffffffffffffffffffff1673ffffffffffffffffffffffffffffffffffffffff1673ffffffffffffffffffffffffffffffffffffffff1681526020016006820160149054906101000a900460ff161515151581526020016007820160009054906101000a900473ffffffffffffffffffffffffffffffffffffffff1673ffffffffffffffffffffffffffffffffffffffff1673ffffffffffffffffffffffffffffffffffffffff1681526020016008820160009054906101000a900473ffffffffffffffffffffffffffffffffffffffff1673ffffffffffffffffffffffffffffffffffffffff1673ffffffffffffffffffffffffffffffffffffffff168152505084868151811061194457611943612382565b5b6020026020010181905250848061195a9061278c565b9550505b80806001019150506115d1565b50505b80806001019150506114d0565b506119bb6040518060400160405280600d81526020017f546f74616c204974656d733a200000000000000000000000000000000000000081525084611a09565b6119fa6040518060400160405280600f81526020017f43757272656e7420496e6465783a20000000000000000000000000000000000081525083611a09565b80935050505090565b60015481565b611aa18282604051602401611a1f929190612b6d565b6040516020818303038152906040527fb60e72cc000000000000000000000000000000000000000000000000000000007bffffffffffffffffffffffffffffffffffffffffffffffffffffffff19166020820180517bffffffffffffffffffffffffffffffffffffffffffffffffffffffff8381831617835250505050611aa5565b5050565b611abc81611ab4611abf611ae0565b63ffffffff16565b50565b60006a636f6e736f6c652e6c6f679050600080835160208501845afa505050565b611bc2819050919050565b508054611af79061244c565b6000825580601f10611b095750611b28565b601f016020900490600052602060002090810190611b279190611bcc565b5b50565b604051806101400160405280600081526020016060815260200160608152602001600081526020016060815260200160008152602001600073ffffffffffffffffffffffffffffffffffffffff168152602001600015158152602001600073ffffffffffffffffffffffffffffffffffffffff168152602001600073ffffffffffffffffffffffffffffffffffffffff1681525090565b611bca612b9d565b565b5b80821115611be5576000816000905550600101611bcd565b5090565b6000604051905090565b600080fd5b600080fd5b6000819050919050565b611c1081611bfd565b8114611c1b57600080fd5b50565b600081359050611c2d81611c07565b92915050565b600080fd5b600080fd5b6000601f19601f8301169050919050565b7f4e487b7100000000000000000000000000000000000000000000000000000000600052604160045260246000fd5b611c8682611c3d565b810181811067ffffffffffffffff82111715611ca557611ca4611c4e565b5b80604052505050565b6000611cb8611be9565b9050611cc48282611c7d565b919050565b600067ffffffffffffffff821115611ce457611ce3611c4e565b5b611ced82611c3d565b9050602081019050919050565b82818337600083830152505050565b6000611d1c611d1784611cc9565b611cae565b905082815260208101848484011115611d3857611d37611c38565b5b611d43848285611cfa565b509392505050565b600082601f830112611d6057611d5f611c33565b5b8135611d70848260208601611d09565b91505092915050565b600080600080600060a08688031215611d9557611d94611bf3565b5b6000611da388828901611c1e565b955050602086013567ffffffffffffffff811115611dc457611dc3611bf8565b5b611dd088828901611d4b565b945050604086013567ffffffffffffffff811115611df157611df0611bf8565b5b611dfd88828901611d4b565b9350506060611e0e88828901611c1e565b925050608086013567ffffffffffffffff811115611e2f57611e2e611bf8565b5b611e3b88828901611d4b565b9150509295509295909350565b60008060008060808587031215611e6257611e61611bf3565b5b600085013567ffffffffffffffff811115611e8057611e7f611bf8565b5b611e8c87828801611d4b565b945050602085013567ffffffffffffffff811115611ead57611eac611bf8565b5b611eb987828801611d4b565b9350506040611eca87828801611c1e565b925050606085013567ffffffffffffffff811115611eeb57611eea611bf8565b5b611ef787828801611d4b565b91505092959194509250565b600060208284031215611f1957611f18611bf3565b5b6000611f2784828501611c1e565b91505092915050565b600073ffffffffffffffffffffffffffffffffffffffff82169050919050565b6000611f5b82611f30565b9050919050565b611f6b81611f50565b8114611f7657600080fd5b50565b600081359050611f8881611f62565b92915050565b60008060408385031215611fa557611fa4611bf3565b5b6000611fb385828601611c1e565b9250506020611fc485828601611f79565b9150509250929050565b600081519050919050565b600082825260208201905092915050565b6000819050602082019050919050565b61200381611bfd565b82525050565b600081519050919050565b600082825260208201905092915050565b60005b83811015612043578082015181840152602081019050612028565b60008484015250505050565b600061205a82612009565b6120648185612014565b9350612074818560208601612025565b61207d81611c3d565b840191505092915050565b61209181611f50565b82525050565b60008115159050919050565b6120ac81612097565b82525050565b6000819050919050565b60006120d76120d26120cd84611f30565b6120b2565b611f30565b9050919050565b60006120e9826120bc565b9050919050565b60006120fb826120de565b9050919050565b61210b816120f0565b82525050565b60006101408301600083015161212a6000860182611ffa565b5060208301518482036020860152612142828261204f565b9150506040830151848203604086015261215c828261204f565b91505060608301516121716060860182611ffa565b5060808301518482036080860152612189828261204f565b91505060a083015161219e60a0860182611ffa565b5060c08301516121b160c0860182612088565b5060e08301516121c460e08601826120a3565b506101008301516121d9610100860182612102565b506101208301516121ee610120860182612088565b508091505092915050565b60006122058383612111565b905092915050565b6000602082019050919050565b600061222582611fce565b61222f8185611fd9565b93508360208202850161224185611fea565b8060005b8581101561227d578484038952815161225e85826121f9565b94506122698361220d565b925060208a01995050600181019050612245565b50829750879550505050505092915050565b600060208201905081810360008301526122a9818461221a565b905092915050565b6122ba81611f50565b82525050565b60006020820190506122d560008301846122b1565b92915050565b6122e481611bfd565b82525050565b60006020820190506122ff60008301846122db565b92915050565b600082825260208201905092915050565b7f496e76616c6964206974656d2049440000000000000000000000000000000000600082015250565b600061234c600f83612305565b915061235782612316565b602082019050919050565b6000602082019050818103600083015261237b8161233f565b9050919050565b7f4e487b7100000000000000000000000000000000000000000000000000000000600052603260045260246000fd5b7f4974656d20616c726561647920736f6c64000000000000000000000000000000600082015250565b60006123e7601183612305565b91506123f2826123b1565b602082019050919050565b60006020820190508181036000830152612416816123da565b9050919050565b7f4e487b7100000000000000000000000000000000000000000000000000000000600052602260045260246000fd5b6000600282049050600182168061246457607f821691505b6020821081036124775761247661241d565b5b50919050565b60008190508160005260206000209050919050565b60006020601f8301049050919050565b600082821b905092915050565b6000600883026124df7fffffffffffffffffffffffffffffffffffffffffffffffffffffffffffffffff826124a2565b6124e986836124a2565b95508019841693508086168417925050509392505050565b600061251c61251761251284611bfd565b6120b2565b611bfd565b9050919050565b6000819050919050565b61253683612501565b61254a61254282612523565b8484546124af565b825550505050565b600090565b61255f612552565b61256a81848461252d565b505050565b5b8181101561258e57612583600082612557565b600181019050612570565b5050565b601f8211156125d3576125a48161247d565b6125ad84612492565b810160208510156125bc578190505b6125d06125c885612492565b83018261256f565b50505b505050565b600082821c905092915050565b60006125f6600019846008026125d8565b1980831691505092915050565b600061260f83836125e5565b9150826002028217905092915050565b61262882612009565b67ffffffffffffffff81111561264157612640611c4e565b5b61264b825461244c565b612656828285612592565b600060209050601f8311600181146126895760008415612677578287015190505b6126818582612603565b8655506126e9565b601f1984166126978661247d565b60005b828110156126bf5784890151825560018201915060208501945060208101905061269a565b868310156126dc57848901516126d8601f8916826125e5565b8355505b6001600288020188555050505b505050505050565b7f4974656d20646f6573206e6f742062656c6f6e6720746f2073656e6465720000600082015250565b6000612727601e83612305565b9150612732826126f1565b602082019050919050565b600060208201905081810360008301526127568161271a565b9050919050565b7f4e487b7100000000000000000000000000000000000000000000000000000000600052601160045260246000fd5b600061279782611bfd565b91507fffffffffffffffffffffffffffffffffffffffffffffffffffffffffffffffff82036127c9576127c861275d565b5b600182019050919050565b7f4974656d20646f6573206e6f7420657869737400000000000000000000000000600082015250565b600061280a601383612305565b9150612815826127d4565b602082019050919050565b60006020820190508181036000830152612839816127fd565b9050919050565b600061284b82611bfd565b915061285683611bfd565b925082820390508181111561286e5761286d61275d565b5b92915050565b6000815490506128838161244c565b9050919050565b818103612898575050612970565b6128a182612874565b67ffffffffffffffff8111156128ba576128b9611c4e565b5b6128c4825461244c565b6128cf828285612592565b6000601f8311600181146128fe57600084156128ec578287015490505b6128f68582612603565b865550612969565b601f19841661290c8761247d565b96506129178661247d565b60005b8281101561293f5784890154825560018201915060018501945060208101905061291a565b8683101561295c5784890154612958601f8916826125e5565b8355505b6001600288020188555050505b5050505050505b565b7f4e487b7100000000000000000000000000000000000000000000000000000000600052603160045260246000fd5b7f4974656d206e6f7420666f756e64000000000000000000000000000000000000600082015250565b60006129d7600e83612305565b91506129e2826129a1565b602082019050919050565b60006020820190508181036000830152612a06816129ca565b9050919050565b7f496e636f72726563742076616c75652073656e74000000000000000000000000600082015250565b6000612a43601483612305565b9150612a4e82612a0d565b602082019050919050565b60006020820190508181036000830152612a7281612a36565b9050919050565b6000608082019050612a8e60008301876122b1565b612a9b60208301866122b1565b612aa860408301856122db565b612ab560608301846122db565b95945050505050565b600081519050612acd81611f62565b92915050565b600060208284031215612ae957612ae8611bf3565b5b6000612af784828501612abe565b91505092915050565b6000612b0b82611bfd565b9150612b1683611bfd565b9250828201905080821115612b2e57612b2d61275d565b5b92915050565b6000612b3f82612009565b612b498185612305565b9350612b59818560208601612025565b612b6281611c3d565b840191505092915050565b60006040820190508181036000830152612b878185612b34565b9050612b9660208301846122db565b9392505050565b7f4e487b7100000000000000000000000000000000000000000000000000000000600052605160045260246000fdfea264697066735822122051c48be5fa702da50973f83a4edb2e4b68993f819223da07f788c80118f4744364736f6c63430008180033",
  "linkReferences": {},
  "deployedLinkReferences": {}
}