{
  "_format": "hh-sol-artifact-1",
  "contractName": "Item",
  "sourceName": "contracts/Item.sol",
  "abi": [
    {
      "anonymous": false,
      "inputs": [
        {
          "indexed": false,
          "internalType": "uint256",
          "name": "itemId",
          "type": "uint256"
        },
        {
          "indexed": false,
          "internalType": "address",
          "name": "buyer",
          "type": "address"
        }
      ],
      "name": "ItemCancelled",
      "type": "event"
    },
    {
      "anonymous": false,
      "inputs": [
        {
          "indexed": false,
          "internalType": "uint256",
          "name": "balance",
          "type": "uint256"
        }
      ],
      "name": "print_balance",
      "type": "event"
    },
    {
      "anonymous": false,
      "inputs": [
        {
          "indexed": false,
          "internalType": "uint256",
          "name": "balance",
          "type": "uint256"
        }
      ],
      "name": "print_seller_balance",
      "type": "event"
    },
    {
      "inputs": [
        {
          "internalType": "string",
          "name": "_title",
          "type": "string"
        },
        {
          "internalType": "string",
          "name": "_description",
          "type": "string"
        },
        {
          "internalType": "uint256",
          "name": "_price",
          "type": "uint256"
        },
        {
          "internalType": "string",
          "name": "_image",
          "type": "string"
        }
      ],
      "name": "addItem",
      "outputs": [],
      "stateMutability": "nonpayable",
      "type": "function"
    },
    {
      "inputs": [],
      "name": "browseItems",
      "outputs": [
        {
          "components": [
            {
              "internalType": "uint256",
              "name": "itemId",
              "type": "uint256"
            },
            {
              "internalType": "string",
              "name": "title",
              "type": "string"
            },
            {
              "internalType": "string",
              "name": "description",
              "type": "string"
            },
            {
              "internalType": "uint256",
              "name": "price",
              "type": "uint256"
            },
            {
              "internalType": "string",
              "name": "image",
              "type": "string"
            },
            {
              "internalType": "uint256",
              "name": "createdAt",
              "type": "uint256"
            },
            {
              "internalType": "address",
              "name": "buyer",
              "type": "address"
            },
            {
              "internalType": "bool",
              "name": "hasBuyer",
              "type": "bool"
            },
            {
              "internalType": "contract Escrow",
              "name": "escrow",
              "type": "address"
            },
            {
              "internalType": "address",
              "name": "seller",
              "type": "address"
            }
          ],
          "internalType": "struct Item.ItemStruct[]",
          "name": "",
          "type": "tuple[]"
        }
      ],
      "stateMutability": "view",
      "type": "function"
    },
    {
      "inputs": [
        {
          "internalType": "uint256",
          "name": "_itemId",
          "type": "uint256"
        },
        {
          "internalType": "address",
          "name": "_seller",
          "type": "address"
        },
        {
          "internalType": "bool",
          "name": "cancel",
          "type": "bool"
        },
        {
          "internalType": "bool",
          "name": "refundBuyer",
          "type": "bool"
        }
      ],
      "name": "cancelItem",
      "outputs": [],
      "stateMutability": "payable",
      "type": "function"
    },
    {
      "inputs": [
        {
          "internalType": "uint256",
          "name": "_itemId",
          "type": "uint256"
        }
      ],
      "name": "deleteItem",
      "outputs": [],
      "stateMutability": "nonpayable",
      "type": "function"
    },
    {
      "inputs": [
        {
          "internalType": "uint256",
          "name": "_itemId",
          "type": "uint256"
        },
        {
          "internalType": "string",
          "name": "_title",
          "type": "string"
        },
        {
          "internalType": "string",
          "name": "_description",
          "type": "string"
        },
        {
          "internalType": "uint256",
          "name": "_price",
          "type": "uint256"
        },
        {
          "internalType": "string",
          "name": "_image",
          "type": "string"
        }
      ],
      "name": "editItem",
      "outputs": [],
      "stateMutability": "nonpayable",
      "type": "function"
    },
    {
      "inputs": [],
      "name": "getItemsWithDispute",
      "outputs": [
        {
          "components": [
            {
              "internalType": "uint256",
              "name": "itemId",
              "type": "uint256"
            },
            {
              "internalType": "string",
              "name": "title",
              "type": "string"
            },
            {
              "internalType": "string",
              "name": "description",
              "type": "string"
            },
            {
              "internalType": "uint256",
              "name": "price",
              "type": "uint256"
            },
            {
              "internalType": "string",
              "name": "image",
              "type": "string"
            },
            {
              "internalType": "uint256",
              "name": "createdAt",
              "type": "uint256"
            },
            {
              "internalType": "address",
              "name": "buyer",
              "type": "address"
            },
            {
              "internalType": "bool",
              "name": "hasBuyer",
              "type": "bool"
            },
            {
              "internalType": "contract Escrow",
              "name": "escrow",
              "type": "address"
            },
            {
              "internalType": "address",
              "name": "seller",
              "type": "address"
            }
          ],
          "internalType": "struct Item.ItemStruct[]",
          "name": "",
          "type": "tuple[]"
        }
      ],
      "stateMutability": "view",
      "type": "function"
    },
    {
      "inputs": [],
      "name": "itemsCount",
      "outputs": [
        {
          "internalType": "uint256",
          "name": "",
          "type": "uint256"
        }
      ],
      "stateMutability": "view",
      "type": "function"
    },
    {
      "inputs": [],
      "name": "myPurchases",
      "outputs": [
        {
          "components": [
            {
              "internalType": "uint256",
              "name": "itemId",
              "type": "uint256"
            },
            {
              "internalType": "string",
              "name": "title",
              "type": "string"
            },
            {
              "internalType": "string",
              "name": "description",
              "type": "string"
            },
            {
              "internalType": "uint256",
              "name": "price",
              "type": "uint256"
            },
            {
              "internalType": "string",
              "name": "image",
              "type": "string"
            },
            {
              "internalType": "uint256",
              "name": "createdAt",
              "type": "uint256"
            },
            {
              "internalType": "address",
              "name": "buyer",
              "type": "address"
            },
            {
              "internalType": "bool",
              "name": "hasBuyer",
              "type": "bool"
            },
            {
              "internalType": "contract Escrow",
              "name": "escrow",
              "type": "address"
            },
            {
              "internalType": "address",
              "name": "seller",
              "type": "address"
            }
          ],
          "internalType": "struct Item.ItemStruct[]",
          "name": "",
          "type": "tuple[]"
        }
      ],
      "stateMutability": "view",
      "type": "function"
    },
    {
      "inputs": [],
      "name": "mySales",
      "outputs": [
        {
          "components": [
            {
              "internalType": "uint256",
              "name": "itemId",
              "type": "uint256"
            },
            {
              "internalType": "string",
              "name": "title",
              "type": "string"
            },
            {
              "internalType": "string",
              "name": "description",
              "type": "string"
            },
            {
              "internalType": "uint256",
              "name": "price",
              "type": "uint256"
            },
            {
              "internalType": "string",
              "name": "image",
              "type": "string"
            },
            {
              "internalType": "uint256",
              "name": "createdAt",
              "type": "uint256"
            },
            {
              "internalType": "address",
              "name": "buyer",
              "type": "address"
            },
            {
              "internalType": "bool",
              "name": "hasBuyer",
              "type": "bool"
            },
            {
              "internalType": "contract Escrow",
              "name": "escrow",
              "type": "address"
            },
            {
              "internalType": "address",
              "name": "seller",
              "type": "address"
            }
          ],
          "internalType": "struct Item.ItemStruct[]",
          "name": "",
          "type": "tuple[]"
        }
      ],
      "stateMutability": "view",
      "type": "function"
    },
    {
      "inputs": [
        {
          "internalType": "uint256",
          "name": "_itemId",
          "type": "uint256"
        },
        {
          "internalType": "address",
          "name": "_seller",
          "type": "address"
        }
      ],
      "name": "purchaseItem",
      "outputs": [],
      "stateMutability": "payable",
      "type": "function"
    },
    {
      "inputs": [],
      "name": "retrieveUserItems",
      "outputs": [
        {
          "components": [
            {
              "internalType": "uint256",
              "name": "itemId",
              "type": "uint256"
            },
            {
              "internalType": "string",
              "name": "title",
              "type": "string"
            },
            {
              "internalType": "string",
              "name": "description",
              "type": "string"
            },
            {
              "internalType": "uint256",
              "name": "price",
              "type": "uint256"
            },
            {
              "internalType": "string",
              "name": "image",
              "type": "string"
            },
            {
              "internalType": "uint256",
              "name": "createdAt",
              "type": "uint256"
            },
            {
              "internalType": "address",
              "name": "buyer",
              "type": "address"
            },
            {
              "internalType": "bool",
              "name": "hasBuyer",
              "type": "bool"
            },
            {
              "internalType": "contract Escrow",
              "name": "escrow",
              "type": "address"
            },
            {
              "internalType": "address",
              "name": "seller",
              "type": "address"
            }
          ],
          "internalType": "struct Item.ItemStruct[]",
          "name": "",
          "type": "tuple[]"
        }
      ],
      "stateMutability": "view",
      "type": "function"
    },
    {
      "inputs": [
        {
          "internalType": "uint256",
          "name": "_itemId",
          "type": "uint256"
        },
        {
          "internalType": "string",
          "name": "tracking",
          "type": "string"
        }
      ],
      "name": "shipItem",
      "outputs": [],
      "stateMutability": "nonpayable",
      "type": "function"
    }
  ],
  "bytecode": "0x608060405234801561001057600080fd5b506151f3806100206000396000f3fe608060405260043610620000b55760003560e01c80638af8a986116200006c5780638af8a98614620001975780639ab7e23b14620001af578063b24db86f14620001c7578063ba30154114620001df578063dbc3767014620001f6578063e2c03ace146200020e57600080fd5b80630461459a14620000ba57806313df81d614620000e157806338f5234f14620001065780634d25ce471462000136578063654fc833146200015b5780637bfe9efd1462000180575b600080fd5b348015620000c757600080fd5b50620000df620000d936600462002f13565b62000235565b005b348015620000ee57600080fd5b50620000df6200010036600462002fb9565b62000463565b3480156200011357600080fd5b506200011e62000640565b6040516200012d91906200309d565b60405180910390f35b3480156200014357600080fd5b50620000df62000155366004620031b6565b620009fb565b3480156200016857600080fd5b50620000df6200017a36600462003201565b62000cf1565b620000df6200019136600462003238565b62000ff7565b348015620001a457600080fd5b506200011e62001457565b348015620001bc57600080fd5b506200011e620018c2565b348015620001d457600080fd5b506200011e62001b5f565b620000df620001f036600462003278565b62002116565b3480156200020357600080fd5b506200011e62002790565b3480156200021b57600080fd5b506200022660015481565b6040519081526020016200012d565b6000851180156200024857506001548511155b6200028c5760405162461bcd60e51b815260206004820152600f60248201526e125b9d985b1a59081a5d195b481251608a1b60448201526064015b60405180910390fd5b33600090815260208190526040812090805b82548110156200040a5787838281548110620002be57620002be620032cc565b90600052602060002090600902016000015403620004015760019150828181548110620002ef57620002ef620032cc565b906000526020600020906009020160060160149054906101000a900460ff16156200032e5760405162461bcd60e51b81526004016200028390620032e2565b86838281548110620003445762000344620032cc565b9060005260206000209060090201600101908162000363919062003395565b50858382815481106200037a576200037a620032cc565b9060005260206000209060090201600201908162000399919062003395565b5084838281548110620003b057620003b0620032cc565b90600052602060002090600902016003018190555083838281548110620003db57620003db620032cc565b90600052602060002090600902016004019081620003fa919062003395565b506200040a565b6001016200029e565b50806200045a5760405162461bcd60e51b815260206004820152601e60248201527f4974656d20646f6573206e6f742062656c6f6e6720746f2073656e6465720000604482015260640162000283565b50505050505050565b620004936040518060400160405280600c81526020016b50726963652069733a20257360a01b8152508362002c71565b336000908152602081905260408120549003620004ed57600280546001810182556000919091527f405787fa12a823e0f2b7631cc41b3ba8828b3321ca811111fa75cd3aa3bb5ace0180546001600160a01b031916331790555b60018054906000620004ff8362003478565b9091555050336000818152602081815260408083208151610140810183526001805482528185018b81529382018a905260608201899052608082018890524260a083015260c0820186905260e082018690526101008201869052610120820196909652815480870183559185529290932082516009909402019283555190928201906200058d908262003395565b5060408201516002820190620005a4908262003395565b506060820151600382015560808201516004820190620005c5908262003395565b5060a0820151600582015560c082015160068201805460e08501511515600160a01b026001600160a81b03199091166001600160a01b03938416171790556101008301516007830180549183166001600160a01b03199283161790556101209093015160089092018054929091169190921617905550505050565b336000908152602081905260408120606091908190815b8154811015620006b457818181548110620006765762000676620032cc565b906000526020600020906009020160060160149054906101000a900460ff1615620006ab5783620006a78162003478565b9450505b60010162000657565b5060008367ffffffffffffffff811115620006d357620006d362002e68565b6040519080825280602002602001820160405280156200071057816020015b620006fc62002d90565b815260200190600190039081620006f25790505b50905060005b8254811015620009f257828181548110620007355762000735620032cc565b906000526020600020906009020160060160149054906101000a900460ff1615620009e9578281815481106200076f576200076f620032cc565b90600052602060002090600902016040518061014001604052908160008201548152602001600182018054620007a5906200330d565b80601f0160208091040260200160405190810160405280929190818152602001828054620007d3906200330d565b8015620008245780601f10620007f85761010080835404028352916020019162000824565b820191906000526020600020905b8154815290600101906020018083116200080657829003601f168201915b505050505081526020016002820180546200083f906200330d565b80601f01602080910402602001604051908101604052809291908181526020018280546200086d906200330d565b8015620008be5780601f106200089257610100808354040283529160200191620008be565b820191906000526020600020905b815481529060010190602001808311620008a057829003601f168201915b5050505050815260200160038201548152602001600482018054620008e3906200330d565b80601f016020809104026020016040519081016040528092919081815260200182805462000911906200330d565b8015620009625780601f10620009365761010080835404028352916020019162000962565b820191906000526020600020905b8154815290600101906020018083116200094457829003601f168201915b50505091835250506005820154602082015260068201546001600160a01b038082166040840152600160a01b90910460ff161515606083015260078301548116608083015260089092015490911660a0909101528251839086908110620009cd57620009cd620032cc565b60200260200101819052508380620009e59062003478565b9450505b60010162000716565b50949350505050565b3360009081526020819052604081209080805b835481101562000a5c578584828154811062000a2e5762000a2e620032cc565b9060005260206000209060090201600001540362000a53576001925080915062000a5c565b60010162000a0e565b508162000a7d5760405162461bcd60e51b8152600401620002839062003494565b82818154811062000a925762000a92620032cc565b906000526020600020906009020160060160149054906101000a900460ff1662000aff5760405162461bcd60e51b815260206004820152601b60248201527f4974656d20686173206e6f74206265656e207075726368617365640000000000604482015260640162000283565b82818154811062000b145762000b14620032cc565b60009182526020909120600990910201600801546001600160a01b0316331462000b815760405162461bcd60e51b815260206004820152601e60248201527f4f6e6c792073656c6c65722063616e20736869702074686973206974656d0000604482015260640162000283565b82818154811062000b965762000b96620032cc565b6000918252602090912060076009909202010154604051636e9fd09b60e11b81526001600160a01b039091169063dd3fa1369062000bd9908790600401620034bc565b600060405180830381600087803b15801562000bf457600080fd5b505af115801562000c09573d6000803e3d6000fd5b5050505062000cea6040518060600160405280602d815260200162005191602d913984838154811062000c405762000c40620032cc565b9060005260206000209060090201600101805462000c5e906200330d565b80601f016020809104026020016040519081016040528092919081815260200182805462000c8c906200330d565b801562000cdd5780601f1062000cb15761010080835404028352916020019162000cdd565b820191906000526020600020905b81548152906001019060200180831162000cbf57829003601f168201915b5050505050338762002cbe565b5050505050565b3360009081526020819052604081209080805b835481101562000da6578484828154811062000d245762000d24620032cc565b9060005260206000209060090201600001540362000d9d5783818154811062000d515762000d51620032cc565b906000526020600020906009020160060160149054906101000a900460ff161562000d905760405162461bcd60e51b81526004016200028390620032e2565b6001925080915062000da6565b60010162000d04565b508162000dec5760405162461bcd60e51b8152602060048201526013602482015272125d195b48191bd95cc81b9bdd08195e1a5cdd606a1b604482015260640162000283565b825460009062000dff90600190620034d1565b905080821462000f4e5783818154811062000e1e5762000e1e620032cc565b906000526020600020906009020184838154811062000e415762000e41620032cc565b60009182526020909120825460099092020190815560018082019062000e6a90840182620034ed565b5060028181019062000e7f90840182620034ed565b50600382015481600301556004820181600401908162000ea09190620034ed565b50600582810154908201556006808301805491830180546001600160a01b03198082166001600160a01b039586169081178455935460ff600160a01b91829004161515026001600160a81b03199092169093171790556007808501549084018054831691841691909117905560089384015493909201805490921692169190911790558354859085908490811062000f3c5762000f3c620032cc565b60009182526020909120600990910201555b8380548062000f615762000f61620035cf565b6000828152602081206009600019909301928302018181559062000f89600183018262002e00565b62000f9960028301600062002e00565b600382016000905560048201600062000fb3919062002e00565b50600060058201556006810180546001600160a81b03191690556007810180546001600160a01b031990811690915560089091018054909116905590555050505050565b6000821180156200100a57506001548211155b6200104a5760405162461bcd60e51b815260206004820152600f60248201526e125b9d985b1a59081a5d195b481251608a1b604482015260640162000283565b6001600160a01b03811660009081526020819052604081209080805b8354811015620010b45785848281548110620010865762001086620032cc565b90600052602060002090600902016000015403620010ab5760019250809150620010b4565b60010162001066565b5081620010d55760405162461bcd60e51b8152600401620002839062003494565b828181548110620010ea57620010ea620032cc565b906000526020600020906009020160060160149054906101000a900460ff1615620011295760405162461bcd60e51b81526004016200028390620032e2565b836001600160a01b0316838281548110620011485762001148620032cc565b60009182526020909120600860099092020101546001600160a01b031614620011b45760405162461bcd60e51b815260206004820152601b60248201527f4f776e65722063616e206e6f742062757920746865206974656d2e0000000000604482015260640162000283565b828181548110620011c957620011c9620032cc565b9060005260206000209060090201600301543414620012375760405162461bcd60e51b815260206004820152602360248201527f496e636f727265637420616d6f756e74206f662065746865722f776569207365604482015262373a1760e91b606482015260840162000283565b60003433866040516200124a9062002e3f565b6001600160a01b039283168152911660208201526040016040518091039082f09050801580156200127f573d6000803e3d6000fd5b50905033848381548110620012985762001298620032cc565b906000526020600020906009020160060160006101000a8154816001600160a01b0302191690836001600160a01b031602179055506001848381548110620012e457620012e4620032cc565b906000526020600020906009020160060160146101000a81548160ff02191690831515021790555080848381548110620013225762001322620032cc565b906000526020600020906009020160070160006101000a8154816001600160a01b0302191690836001600160a01b031602179055506200144f6040518060400160405280601881526020017f4974656d207075726368617365643a2025732062792025730000000000000000815250858481548110620013a657620013a6620032cc565b90600052602060002090600902016001018054620013c4906200330d565b80601f0160208091040260200160405190810160405280929190818152602001828054620013f2906200330d565b8015620014435780601f10620014175761010080835404028352916020019162001443565b820191906000526020600020905b8154815290600101906020018083116200142557829003601f168201915b50505050503362002d11565b505050505050565b606060008060005b6002548110156200151c57600080600060028481548110620014855762001485620032cc565b60009182526020808320909101546001600160a01b03168352820192909252604001812091505b81548110156200151157336001600160a01b0316828281548110620014d557620014d5620032cc565b60009182526020909120600660099092020101546001600160a01b031603620015085784620015048162003478565b9550505b600101620014ac565b50506001016200145f565b5060008267ffffffffffffffff8111156200153b576200153b62002e68565b6040519080825280602002602001820160405280156200157857816020015b6200156462002d90565b8152602001906001900390816200155a5790505b50905060005b600254811015620018ba57600080600060028481548110620015a457620015a4620032cc565b60009182526020808320909101546001600160a01b03168352820192909252604001812091505b8154811015620018af57336001600160a01b0316828281548110620015f457620015f4620032cc565b60009182526020909120600660099092020101546001600160a01b031603620018a6578181815481106200162c576200162c620032cc565b9060005260206000209060090201604051806101400160405290816000820154815260200160018201805462001662906200330d565b80601f016020809104026020016040519081016040528092919081815260200182805462001690906200330d565b8015620016e15780601f10620016b557610100808354040283529160200191620016e1565b820191906000526020600020905b815481529060010190602001808311620016c357829003601f168201915b50505050508152602001600282018054620016fc906200330d565b80601f01602080910402602001604051908101604052809291908181526020018280546200172a906200330d565b80156200177b5780601f106200174f576101008083540402835291602001916200177b565b820191906000526020600020905b8154815290600101906020018083116200175d57829003601f168201915b5050505050815260200160038201548152602001600482018054620017a0906200330d565b80601f0160208091040260200160405190810160405280929190818152602001828054620017ce906200330d565b80156200181f5780601f10620017f3576101008083540402835291602001916200181f565b820191906000526020600020905b8154815290600101906020018083116200180157829003601f168201915b50505091835250506005820154602082015260068201546001600160a01b038082166040840152600160a01b90910460ff161515606083015260078301548116608083015260089092015490911660a09091015284518590879081106200188a576200188a620032cc565b60200260200101819052508480620018a29062003478565b9550505b600101620015cb565b50506001016200157e565b509392505050565b33600090815260208181526040808320805482518185028101850190935280835260609492939192909184015b8282101562001b565783829060005260206000209060090201604051806101400160405290816000820154815260200160018201805462001930906200330d565b80601f01602080910402602001604051908101604052809291908181526020018280546200195e906200330d565b8015620019af5780601f106200198357610100808354040283529160200191620019af565b820191906000526020600020905b8154815290600101906020018083116200199157829003601f168201915b50505050508152602001600282018054620019ca906200330d565b80601f0160208091040260200160405190810160405280929190818152602001828054620019f8906200330d565b801562001a495780601f1062001a1d5761010080835404028352916020019162001a49565b820191906000526020600020905b81548152906001019060200180831162001a2b57829003601f168201915b505050505081526020016003820154815260200160048201805462001a6e906200330d565b80601f016020809104026020016040519081016040528092919081815260200182805462001a9c906200330d565b801562001aed5780601f1062001ac15761010080835404028352916020019162001aed565b820191906000526020600020905b81548152906001019060200180831162001acf57829003601f168201915b5050509183525050600582015460208083019190915260068301546001600160a01b038082166040850152600160a01b90910460ff161515606084015260078401548116608084015260089093015490921660a0909101529082526001929092019101620018ef565b50505050905090565b606060008060005b60025481101562001cce5760008060006002848154811062001b8d5762001b8d620032cc565b60009182526020808320909101546001600160a01b03168352820192909252604001812091505b815481101562001cc35781818154811062001bd35762001bd3620032cc565b906000526020600020906009020160060160149054906101000a900460ff16801562001ca45750600382828154811062001c115762001c11620032cc565b6000918252602091829020600760099092020101546040805163afe0104360e01b815290516001600160a01b039092169263afe01043926004808401938290030181865afa15801562001c68573d6000803e3d6000fd5b505050506040513d601f19601f8201168201806040525081019062001c8e9190620035fb565b600481111562001ca25762001ca2620035e5565b145b1562001cba578462001cb68162003478565b9550505b60010162001bb4565b505060010162001b67565b5060008267ffffffffffffffff81111562001ced5762001ced62002e68565b60405190808252806020026020018201604052801562001d2a57816020015b62001d1662002d90565b81526020019060019003908162001d0c5790505b50905060005b600254811015620018ba5760008060006002848154811062001d565762001d56620032cc565b60009182526020808320909101546001600160a01b03168352820192909252604001812091505b81548110156200210b5781818154811062001d9c5762001d9c620032cc565b906000526020600020906009020160060160149054906101000a900460ff16801562001e6d5750600382828154811062001dda5762001dda620032cc565b6000918252602091829020600760099092020101546040805163afe0104360e01b815290516001600160a01b039092169263afe01043926004808401938290030181865afa15801562001e31573d6000803e3d6000fd5b505050506040513d601f19601f8201168201806040525081019062001e579190620035fb565b600481111562001e6b5762001e6b620035e5565b145b15620021025781818154811062001e885762001e88620032cc565b9060005260206000209060090201604051806101400160405290816000820154815260200160018201805462001ebe906200330d565b80601f016020809104026020016040519081016040528092919081815260200182805462001eec906200330d565b801562001f3d5780601f1062001f115761010080835404028352916020019162001f3d565b820191906000526020600020905b81548152906001019060200180831162001f1f57829003601f168201915b5050505050815260200160028201805462001f58906200330d565b80601f016020809104026020016040519081016040528092919081815260200182805462001f86906200330d565b801562001fd75780601f1062001fab5761010080835404028352916020019162001fd7565b820191906000526020600020905b81548152906001019060200180831162001fb957829003601f168201915b505050505081526020016003820154815260200160048201805462001ffc906200330d565b80601f01602080910402602001604051908101604052809291908181526020018280546200202a906200330d565b80156200207b5780601f106200204f576101008083540402835291602001916200207b565b820191906000526020600020905b8154815290600101906020018083116200205d57829003601f168201915b50505091835250506005820154602082015260068201546001600160a01b038082166040840152600160a01b90910460ff161515606083015260078301548116608083015260089092015490911660a0909101528451859087908110620020e657620020e6620032cc565b60200260200101819052508480620020fe9062003478565b9550505b60010162001d7d565b505060010162001d30565b6001600160a01b03831660009081526020819052604081209080805b8354811015620021805787848281548110620021525762002152620032cc565b9060005260206000209060090201600001540362002177576001925080915062002180565b60010162002132565b5081620021a15760405162461bcd60e51b8152600401620002839062003494565b828181548110620021b657620021b6620032cc565b906000526020600020906009020160060160149054906101000a900460ff16620022235760405162461bcd60e51b815260206004820152601d60248201527f4974656d206861737373206e6f74206265656e20707572636861736564000000604482015260640162000283565b336001600160a01b0316838281548110620022425762002242620032cc565b60009182526020909120600660099092020101546001600160a01b031614620022ba5760405162461bcd60e51b815260206004820152602360248201527f4f6e6c79207468652062757965722063616e2063616e63656c20746865206f726044820152623232b960e91b606482015260840162000283565b828181548110620022cf57620022cf620032cc565b60009182526020918290206007600990920201015460408051635b0222bb60e01b815290516001600160a01b0390921692635b0222bb926004808401938290030181865afa15801562002326573d6000803e3d6000fd5b505050506040513d601f19601f820116820180604052508101906200234c91906200361e565b6200235a9061038462003638565b421115620023ab5760405162461bcd60e51b815260206004820181905260248201527f43616e6365736c6c6174696f6e20706572696f64206861732065787069726564604482015260640162000283565b6000838281548110620023c257620023c2620032cc565b906000526020600020906009020160060160146101000a81548160ff0219169083151502179055506000838281548110620024015762002401620032cc565b906000526020600020906009020160060160006101000a8154816001600160a01b0302191690836001600160a01b0316021790555060008382815481106200244d576200244d620032cc565b6000918252602091829020600990910201600701546040516001600160a01b039091163180825292507f5e43e6c33b0654c056b16044ddccf17d9e1da06a6523e75be8f7133f80e2345e910160405180910390a16040516001600160a01b0388163181527f64f94cc1b9db4414f5017add39d53fc2644d66038e8c0ea3c887e90730075da89060200160405180910390a18515156001036200256e57838281548110620024fe57620024fe620032cc565b60009182526020822060076009909202010154604080516317cd970760e31b815290516001600160a01b039092169263be6cb8389260048084019382900301818387803b1580156200254f57600080fd5b505af115801562002564573d6000803e3d6000fd5b50505050620025f6565b838281548110620025835762002583620032cc565b60009182526020909120600990910201600701546040516344f0f41560e11b815286151560048201526001600160a01b03909116906389e1e82a90602401600060405180830381600087803b158015620025dc57600080fd5b505af1158015620025f1573d6000803e3d6000fd5b505050505b60008483815481106200260d576200260d620032cc565b6000918252602091829020600990910201600701546040516001600160a01b039091163180825292507f5e43e6c33b0654c056b16044ddccf17d9e1da06a6523e75be8f7133f80e2345e910160405180910390a16000858481548110620026785762002678620032cc565b906000526020600020906009020160070160006101000a8154816001600160a01b0302191690836001600160a01b031602179055507ff69c7ea3f71dad86e17ba97a88b7e8f1708c0946bd98c7584e9942f60da8728e8933604051620026f19291909182526001600160a01b0316602082015260400190565b60405180910390a16040516001600160a01b0389163181527f64f94cc1b9db4414f5017add39d53fc2644d66038e8c0ea3c887e90730075da89060200160405180910390a1620027856040518060400160405280601881526020017f4f726465722063616e63656c65643a2025732062792025730000000000000000815250868581548110620013a657620013a6620032cc565b505050505050505050565b606060008060005b6002548110156200283457336001600160a01b031660028281548110620027c357620027c3620032cc565b6000918252602090912001546001600160a01b0316146200282b5760008060028381548110620027f757620027f7620032cc565b60009182526020808320909101546001600160a01b0316835282019290925260400190205462002828908462003638565b92505b60010162002798565b5060008267ffffffffffffffff81111562002853576200285362002e68565b6040519080825280602002602001820160405280156200289057816020015b6200287c62002d90565b815260200190600190039081620028725790505b50905060005b60025481101562002c0557336001600160a01b031660028281548110620028c157620028c1620032cc565b6000918252602090912001546001600160a01b03161462002bfc57600080600060028481548110620028f757620028f7620032cc565b60009182526020808320909101546001600160a01b03168352820192909252604001812091505b815481101562002bf9578181815481106200293d576200293d620032cc565b906000526020600020906009020160060160149054906101000a900460ff1662002bf057818181548110620029765762002976620032cc565b90600052602060002090600902016040518061014001604052908160008201548152602001600182018054620029ac906200330d565b80601f0160208091040260200160405190810160405280929190818152602001828054620029da906200330d565b801562002a2b5780601f10620029ff5761010080835404028352916020019162002a2b565b820191906000526020600020905b81548152906001019060200180831162002a0d57829003601f168201915b5050505050815260200160028201805462002a46906200330d565b80601f016020809104026020016040519081016040528092919081815260200182805462002a74906200330d565b801562002ac55780601f1062002a995761010080835404028352916020019162002ac5565b820191906000526020600020905b81548152906001019060200180831162002aa757829003601f168201915b505050505081526020016003820154815260200160048201805462002aea906200330d565b80601f016020809104026020016040519081016040528092919081815260200182805462002b18906200330d565b801562002b695780601f1062002b3d5761010080835404028352916020019162002b69565b820191906000526020600020905b81548152906001019060200180831162002b4b57829003601f168201915b50505091835250506005820154602082015260068201546001600160a01b038082166040840152600160a01b90910460ff161515606083015260078301548116608083015260089092015490911660a090910152845185908790811062002bd45762002bd4620032cc565b6020026020010181905250848062002bec9062003478565b9550505b6001016200291e565b50505b60010162002896565b5062002c376040518060400160405280600d81526020016c02a37ba30b61024ba32b6b99d1609d1b8152508462002c71565b62002c6a6040518060400160405280600f81526020016e021bab93932b73a1024b73232bc1d1608d1b8152508362002c71565b9392505050565b62002cba828260405160240162002c8a9291906200364e565b60408051601f198184030181529190526020810180516001600160e01b0316632d839cb360e21b17905262002d61565b5050565b62002d0b8484848460405160240162002cdb949392919062003672565b60408051601f198184030181529190526020810180516001600160e01b03166301d637ff60e71b17905262002d61565b50505050565b62002d5c83838360405160240162002d2c93929190620036cb565b60408051601f198184030181529190526020810180516001600160e01b03166395ed019560e01b17905262002d61565b505050565b62002d6c8162002d6f565b50565b60006a636f6e736f6c652e6c6f679050600080835160208501845afa505050565b60405180610140016040528060008152602001606081526020016060815260200160008152602001606081526020016000815260200160006001600160a01b0316815260200160001515815260200160006001600160a01b0316815260200160006001600160a01b031681525090565b50805462002e0e906200330d565b6000825580601f1062002e1f575050565b601f01602090049060005260206000209081019062002d6c919062002e4d565b611a83806200370e83390190565b5b8082111562002e64576000815560010162002e4e565b5090565b634e487b7160e01b600052604160045260246000fd5b600082601f83011262002e9057600080fd5b813567ffffffffffffffff8082111562002eae5762002eae62002e68565b604051601f8301601f19908116603f0116810190828211818310171562002ed95762002ed962002e68565b8160405283815286602085880101111562002ef357600080fd5b836020870160208301376000602085830101528094505050505092915050565b600080600080600060a0868803121562002f2c57600080fd5b85359450602086013567ffffffffffffffff8082111562002f4c57600080fd5b62002f5a89838a0162002e7e565b9550604088013591508082111562002f7157600080fd5b62002f7f89838a0162002e7e565b945060608801359350608088013591508082111562002f9d57600080fd5b5062002fac8882890162002e7e565b9150509295509295909350565b6000806000806080858703121562002fd057600080fd5b843567ffffffffffffffff8082111562002fe957600080fd5b62002ff78883890162002e7e565b955060208701359150808211156200300e57600080fd5b6200301c8883890162002e7e565b94506040870135935060608701359150808211156200303a57600080fd5b50620030498782880162002e7e565b91505092959194509250565b6000815180845260005b818110156200307d576020818501810151868301820152016200305f565b506000602082860101526020601f19601f83011685010191505092915050565b600060208083018184528085518083526040925060408601915060408160051b87010184880160005b83811015620031a857603f1989840301855281516101408151855288820151818a870152620030f88287018262003055565b915050878201518582038987015262003112828262003055565b91505060608083015181870152506080808301518683038288015262003139838262003055565b9250505060a080830151818701525060c08083015162003163828801826001600160a01b03169052565b505060e082810151151590860152610100808301516001600160a01b0390811691870191909152610120928301511691909401529386019390860190600101620030c6565b509098975050505050505050565b60008060408385031215620031ca57600080fd5b82359150602083013567ffffffffffffffff811115620031e957600080fd5b620031f78582860162002e7e565b9150509250929050565b6000602082840312156200321457600080fd5b5035919050565b80356001600160a01b03811681146200323357600080fd5b919050565b600080604083850312156200324c57600080fd5b823591506200325e602084016200321b565b90509250929050565b803580151581146200323357600080fd5b600080600080608085870312156200328f57600080fd5b84359350620032a1602086016200321b565b9250620032b16040860162003267565b9150620032c16060860162003267565b905092959194509250565b634e487b7160e01b600052603260045260246000fd5b602080825260119082015270125d195b48185b1c9958591e481cdbdb19607a1b604082015260600190565b600181811c908216806200332257607f821691505b6020821081036200334357634e487b7160e01b600052602260045260246000fd5b50919050565b601f82111562002d5c576000816000526020600020601f850160051c81016020861015620033745750805b601f850160051c820191505b818110156200144f5782815560010162003380565b815167ffffffffffffffff811115620033b257620033b262002e68565b620033ca81620033c384546200330d565b8462003349565b602080601f831160018114620034025760008415620033e95750858301515b600019600386901b1c1916600185901b1785556200144f565b600085815260208120601f198616915b82811015620034335788860151825594840194600190910190840162003412565b5085821015620034525787850151600019600388901b60f8161c191681555b5050505050600190811b01905550565b634e487b7160e01b600052601160045260246000fd5b6000600182016200348d576200348d62003462565b5060010190565b6020808252600e908201526d125d195b481b9bdd08199bdd5b9960921b604082015260600190565b60208152600062002c6a602083018462003055565b81810381811115620034e757620034e762003462565b92915050565b818103620034f9575050565b6200350582546200330d565b67ffffffffffffffff81111562003520576200352062002e68565b6200353181620033c384546200330d565b6000601f8211600181146200356857600083156200354f5750848201545b600019600385901b1c1916600184901b17845562000cea565b600085815260209020601f19841690600086815260209020845b83811015620035a4578286015482556001958601959091019060200162003582565b5085831015620034525793015460001960f8600387901b161c19169092555050600190811b01905550565b634e487b7160e01b600052603160045260246000fd5b634e487b7160e01b600052602160045260246000fd5b6000602082840312156200360e57600080fd5b81516005811062002c6a57600080fd5b6000602082840312156200363157600080fd5b5051919050565b80820180821115620034e757620034e762003462565b60408152600062003663604083018562003055565b90508260208301529392505050565b60808152600062003687608083018762003055565b82810360208401526200369b818762003055565b6001600160a01b038616604085015283810360608501529050620036c0818562003055565b979650505050505050565b606081526000620036e0606083018662003055565b8281036020840152620036f4818662003055565b91505060018060a01b038316604083015294935050505056fe608060405260405162001a8338038062001a83833981016040819052620000269162000124565b60018054600280546001600160a01b038581166001600160a01b03199283161790925560038054909116736a7d3230514ee0e8078f23cf65b367d9984b055a17905584166101000260ff199081166001600160a81b0319909216919091178255600580549091169055426000908155600480549283018155905260408051808201909152600c81526b24ba32b6903137bab3b43a1760a11b60208201527f8a35acfbc15ff81a39ae7d344fd709f28e8600b4aa8c65c6b64bfe7fe36bd19b90910190620000f4908262000203565b50506008805460ff1916905550620002cf565b80516001600160a01b03811681146200011f57600080fd5b919050565b600080604083850312156200013857600080fd5b620001438362000107565b9150620001536020840162000107565b90509250929050565b634e487b7160e01b600052604160045260246000fd5b600181811c908216806200018757607f821691505b602082108103620001a857634e487b7160e01b600052602260045260246000fd5b50919050565b601f821115620001fe576000816000526020600020601f850160051c81016020861015620001d95750805b601f850160051c820191505b81811015620001fa57828155600101620001e5565b5050505b505050565b81516001600160401b038111156200021f576200021f6200015c565b620002378162000230845462000172565b84620001ae565b602080601f8311600181146200026f5760008415620002565750858301515b600019600386901b1c1916600185901b178555620001fa565b600085815260208120601f198616915b82811015620002a0578886015182559484019460019091019084016200027f565b5085821015620002bf5787850151600019600388901b60f8161c191681555b5050505050600190811b01905550565b6117a480620002df6000396000f3fe6080604052600436106101095760003560e01c80638285074b11610095578063c00ccd5411610064578063c00ccd541461029e578063d16f5b29146102be578063dd3fa136146102e8578063df8d93b414610308578063eaaf0b631461031d57600080fd5b80638285074b1461023c57806389e1e82a1461025c578063afe010431461026f578063be6cb8381461029657600080fd5b8063526ff16f116100dc578063526ff16f146101a95780635b0222bb146101be5780635e10177b146101e257806364e6aa52146101f75780637150d8ae1461021757600080fd5b806308551a531461010e5780631865c57d1461014b57806319561dae146101705780634fd6137c14610192575b600080fd5b34801561011a57600080fd5b5060025461012e906001600160a01b031681565b6040516001600160a01b0390911681526020015b60405180910390f35b34801561015757600080fd5b50610160610341565b60405161014294939291906112d5565b34801561017c57600080fd5b50610185610510565b6040516101429190611326565b34801561019e57600080fd5b506101a761059e565b005b3480156101b557600080fd5b506101856106bf565b3480156101ca57600080fd5b506101d460005481565b604051908152602001610142565b3480156101ee57600080fd5b506101a76106cc565b34801561020357600080fd5b50610185610212366004611340565b610804565b34801561022357600080fd5b5060015461012e9061010090046001600160a01b031681565b34801561024857600080fd5b506101a761025736600461136f565b61082f565b6101a761026a366004611420565b61095e565b34801561027b57600080fd5b506001546102899060ff1681565b6040516101429190611442565b6101a7610b2b565b3480156102aa57600080fd5b506101a76102b936600461136f565b610cb4565b3480156102ca57600080fd5b506008546102d89060ff1681565b6040519015158152602001610142565b3480156102f457600080fd5b506101a761030336600461136f565b610db6565b34801561031457600080fd5b50610185610fe4565b34801561032957600080fd5b50610332610ff1565b60405161014293929190611456565b60006060806060600160009054906101000a900460ff1660096006600782805461036a906114e2565b80601f0160208091040260200160405190810160405280929190818152602001828054610396906114e2565b80156103e35780601f106103b8576101008083540402835291602001916103e3565b820191906000526020600020905b8154815290600101906020018083116103c657829003601f168201915b505050505092508180546103f6906114e2565b80601f0160208091040260200160405190810160405280929190818152602001828054610422906114e2565b801561046f5780601f106104445761010080835404028352916020019161046f565b820191906000526020600020905b81548152906001019060200180831161045257829003601f168201915b50505050509150808054610482906114e2565b80601f01602080910402602001604051908101604052809291908181526020018280546104ae906114e2565b80156104fb5780601f106104d0576101008083540402835291602001916104fb565b820191906000526020600020905b8154815290600101906020018083116104de57829003601f168201915b50505050509050935093509350935090919293565b6006805461051d906114e2565b80601f0160208091040260200160405190810160405280929190818152602001828054610549906114e2565b80156105965780601f1061056b57610100808354040283529160200191610596565b820191906000526020600020905b81548152906001019060200180831161057957829003601f168201915b505050505081565b60015461010090046001600160a01b031633146105d65760405162461bcd60e51b81526004016105cd9061151c565b60405180910390fd5b6001805460ff1660048111156105ee576105ee611257565b146106455760405162461bcd60e51b815260206004820152602160248201527f43616e6e6f74206f70656e2064697370757465206174207468697320737461676044820152606560f81b60648201526084016105cd565b6001805460ff199081166003178255600880549091168217905560048054918201815560005260408051808201909152601c81527f44697370757465206f70656e6564206279207468652062757965722e000000006020820152600080516020611726833981519152909101906106bc90826115a4565b50565b6009805461051d906114e2565b60015461010090046001600160a01b031633146106fb5760405162461bcd60e51b81526004016105cd9061151c565b6001805460ff16600481111561071357610713611257565b146107605760405162461bcd60e51b815260206004820152601760248201527f43616e6e6f7420636f6e6669726d2064656c697665727900000000000000000060448201526064016105cd565b6002546040516001600160a01b03909116904780156108fc02916000818181858888f19350505050158015610799573d6000803e3d6000fd5b506001805460ff1916600217815560048054918201815560005260408051808201909152601b81527f4974656d207265636965766564206279207468652062757965722e00000000006020820152600080516020611726833981519152909101906106bc90826115a4565b6004818154811061081457600080fd5b90600052602060002001600091509050805461051d906114e2565b60015461010090046001600160a01b0316331461085e5760405162461bcd60e51b81526004016105cd9061151c565b600360015460ff16600481111561087757610877611257565b146108945760405162461bcd60e51b81526004016105cd90611664565b600780546108a1906114e2565b1590506108f05760405162461bcd60e51b815260206004820181905260248201527f50726f6f6620616c7265616479207375626d697474656420627920627579657260448201526064016105cd565b6000600680546108ff906114e2565b90501161094e5760405162461bcd60e51b815260206004820152601e60248201527f53656c6c6572206d757374207375626d69742070726f6f66206669727374000060448201526064016105cd565b600761095a82826115a4565b5050565b6003546001600160a01b031633146109c45760405162461bcd60e51b8152602060048201526024808201527f4f6e6c792061726269747261746f722063616e2063616c6c2074686973206d656044820152631d1a1bd960e21b60648201526084016105cd565b600360015460ff1660048111156109dd576109dd611257565b146109fa5760405162461bcd60e51b81526004016105cd90611664565b8015610a8d576001546040516001600160a01b0361010090920491909116904780156108fc02916000818181858888f19350505050158015610a40573d6000803e3d6000fd5b506004805460018101825560009182526040805160608101909152602380825260008051602061172683398151915290920192916117036020830139610a879150826115a4565b50610b0f565b6002546040516001600160a01b03909116904780156108fc02916000818181858888f19350505050158015610ac6573d6000803e3d6000fd5b506004805460018101825560009182526040805160608101909152602480825260008051602061172683398151915290920192916116df6020830139610b0d9150826115a4565b505b506001805460ff19908116600417909155600880549091169055565b600060015460ff166004811115610b4457610b44611257565b14610bc55760405162461bcd60e51b8152602060048201526044602482018190527f43616e6e6f7420726566756e642e204974656d2068617320616c726561647920908201527f6265656e2073686970706564206f7220697320696e20616e6f7468657220737460648201526330ba329760e11b608482015260a4016105cd565b600054610bd49061038461168f565b4210610c225760405162461bcd60e51b815260206004820152601f60248201527f43616e63656c6c6174696f6e20706572696f6420686173207061737365642e0060448201526064016105cd565b6001546040516001600160a01b0361010090920491909116904780156108fc02916000818181858888f19350505050158015610c62573d6000803e3d6000fd5b506001805460ff191660049081178255805491820181556000908152604080516060810190915260298082526000805160206117268339815191529093019261174660208301396106bc9150826115a4565b6002546001600160a01b03163314610d0e5760405162461bcd60e51b815260206004820181905260248201527f4f6e6c792073656c6c65722063616e2063616c6c2074686973206d6574686f6460448201526064016105cd565b600360015460ff166004811115610d2757610d27611257565b14610d445760405162461bcd60e51b81526004016105cd90611664565b60068054610d51906114e2565b159050610daa5760405162461bcd60e51b815260206004820152602160248201527f50726f6f6620616c7265616479207375626d69747465642062792073656c6c656044820152603960f91b60648201526084016105cd565b600661095a82826115a4565b600060015460ff166004811115610dcf57610dcf611257565b14610e1c5760405162461bcd60e51b815260206004820152601e60248201527f43616e6e6f7420736869702e20496e636f7272656374207374617475732e000060448201526064016105cd565b600054610e2b9061038461168f565b421015610ea05760405162461bcd60e51b815260206004820152603d60248201527f43616e6e6f742073686970206265666f7265203135206d696e7574652063616e60448201527f63656c6c6174696f6e20706572696f642068617320656c61707365642e00000060648201526084016105cd565b6001805460ff1916811790556009610eb882826115a4565b506004805460018101825560009190915260408051808201909152601881527f4974656d2073656e74206279207468652073656c6c65722e0000000000000000602082015260008051602061172683398151915290910190610f1a90826115a4565b506106bc6040518060400160405280601881526020017f547261636b696e67206e756d626572207365743a20257320000000000000000081525060098054610f61906114e2565b80601f0160208091040260200160405190810160405280929190818152602001828054610f8d906114e2565b8015610fda5780601f10610faf57610100808354040283529160200191610fda565b820191906000526020600020905b815481529060010190602001808311610fbd57829003601f168201915b50505050506111f2565b6007805461051d906114e2565b606080606060046006600782805480602002602001604051908101604052809291908181526020016000905b828210156110c957838290600052602060002001805461103c906114e2565b80601f0160208091040260200160405190810160405280929190818152602001828054611068906114e2565b80156110b55780601f1061108a576101008083540402835291602001916110b5565b820191906000526020600020905b81548152906001019060200180831161109857829003601f168201915b50505050508152602001906001019061101d565b5050505092508180546110db906114e2565b80601f0160208091040260200160405190810160405280929190818152602001828054611107906114e2565b80156111545780601f1061112957610100808354040283529160200191611154565b820191906000526020600020905b81548152906001019060200180831161113757829003601f168201915b50505050509150808054611167906114e2565b80601f0160208091040260200160405190810160405280929190818152602001828054611193906114e2565b80156111e05780601f106111b5576101008083540402835291602001916111e0565b820191906000526020600020905b8154815290600101906020018083116111c357829003601f168201915b50505050509050925092509250909192565b61095a82826040516024016112089291906116b0565b60408051601f198184030181529190526020810180516001600160e01b0316634b5c427760e01b1790526106bc8160006a636f6e736f6c652e6c6f679050600080835160208501845afa505050565b634e487b7160e01b600052602160045260246000fd5b6005811061128b57634e487b7160e01b600052602160045260246000fd5b9052565b6000815180845260005b818110156112b557602081850181015186830182015201611299565b506000602082860101526020601f19601f83011685010191505092915050565b6112df818661126d565b6080602082015260006112f5608083018661128f565b8281036040840152611307818661128f565b9050828103606084015261131b818561128f565b979650505050505050565b602081526000611339602083018461128f565b9392505050565b60006020828403121561135257600080fd5b5035919050565b634e487b7160e01b600052604160045260246000fd5b60006020828403121561138157600080fd5b813567ffffffffffffffff8082111561139957600080fd5b818401915084601f8301126113ad57600080fd5b8135818111156113bf576113bf611359565b604051601f8201601f19908116603f011681019083821181831017156113e7576113e7611359565b8160405282815287602084870101111561140057600080fd5b826020860160208301376000928101602001929092525095945050505050565b60006020828403121561143257600080fd5b8135801515811461133957600080fd5b60208101611450828461126d565b92915050565b6000606082016060835280865180835260808501915060808160051b8601019250602080890160005b838110156114ad57607f1988870301855261149b86835161128f565b9550938201939082019060010161147f565b505050505082810360208401526114c4818661128f565b905082810360408401526114d8818561128f565b9695505050505050565b600181811c908216806114f657607f821691505b60208210810361151657634e487b7160e01b600052602260045260246000fd5b50919050565b6020808252601f908201527f4f6e6c792062757965722063616e2063616c6c2074686973206d6574686f6400604082015260600190565b601f82111561159f576000816000526020600020601f850160051c8101602086101561157c5750805b601f850160051c820191505b8181101561159b57828155600101611588565b5050505b505050565b815167ffffffffffffffff8111156115be576115be611359565b6115d2816115cc84546114e2565b84611553565b602080601f83116001811461160757600084156115ef5750858301515b600019600386901b1c1916600185901b17855561159b565b600085815260208120601f198616915b8281101561163657888601518255948401946001909101908401611617565b50858210156116545787850151600019600388901b60f8161c191681555b5050505050600190811b01905550565b6020808252601190820152704e6f20616374697665206469737075746560781b604082015260600190565b8082018082111561145057634e487b7160e01b600052601160045260246000fd5b6040815260006116c3604083018561128f565b82810360208401526116d5818561128f565b9594505050505056fe4469737075746520636c6f7365642e2053656c6c65722077617320726566756e6465642e4469737075746520636c6f7365642e2042757965722077617320726566756e6465642e8a35acfbc15ff81a39ae7d344fd709f28e8600b4aa8c65c6b64bfe7fe36bd19b4974656d2063616e63656c6c656420616e6420726566756e64656420746f207468652062757965722ea264697066735822122042ef4e975e3725a72b0dd03a8a9a730fc2fa82ff058d5e91ca63f05b9c9f8b3a64736f6c634300081800334974656d20736869707065643a20257320627920257320616e6420747261636b696e67206e756d626572202573a2646970667358221220a054cc059df77acfa8bb692e0c0eecff8f247c1541d6739b443a302063118d8264736f6c63430008180033",
  "linkReferences": {},
  "deployedLinkReferences": {}
}