{
  "_format": "hh-sol-artifact-1",
  "contractName": "Item",
  "sourceName": "contracts/Item.sol",
  "abi": [
    {
      "inputs": [
        {
          "internalType": "string",
          "name": "_title",
          "type": "string"
        },
        {
          "internalType": "string",
          "name": "_description",
          "type": "string"
        },
        {
          "internalType": "uint256",
          "name": "_price",
          "type": "uint256"
        },
        {
          "internalType": "string",
          "name": "_image",
          "type": "string"
        }
      ],
      "name": "addItem",
      "outputs": [],
      "stateMutability": "nonpayable",
      "type": "function"
    },
    {
      "inputs": [],
      "name": "browseItems",
      "outputs": [
        {
          "components": [
            {
              "internalType": "uint256",
              "name": "itemId",
              "type": "uint256"
            },
            {
              "internalType": "string",
              "name": "title",
              "type": "string"
            },
            {
              "internalType": "string",
              "name": "description",
              "type": "string"
            },
            {
              "internalType": "uint256",
              "name": "price",
              "type": "uint256"
            },
            {
              "internalType": "string",
              "name": "image",
              "type": "string"
            },
            {
              "internalType": "uint256",
              "name": "createdAt",
              "type": "uint256"
            },
            {
              "internalType": "address",
              "name": "buyer",
              "type": "address"
            },
            {
              "internalType": "bool",
              "name": "hasBuyer",
              "type": "bool"
            },
            {
              "internalType": "contract Escrow",
              "name": "escrow",
              "type": "address"
            }
          ],
          "internalType": "struct Item.ItemStruct[]",
          "name": "",
          "type": "tuple[]"
        }
      ],
      "stateMutability": "view",
      "type": "function"
    },
    {
      "inputs": [
        {
          "internalType": "uint256",
          "name": "_itemId",
          "type": "uint256"
        }
      ],
      "name": "deleteItem",
      "outputs": [],
      "stateMutability": "nonpayable",
      "type": "function"
    },
    {
      "inputs": [
        {
          "internalType": "uint256",
          "name": "_itemId",
          "type": "uint256"
        },
        {
          "internalType": "string",
          "name": "_title",
          "type": "string"
        },
        {
          "internalType": "string",
          "name": "_description",
          "type": "string"
        },
        {
          "internalType": "uint256",
          "name": "_price",
          "type": "uint256"
        },
        {
          "internalType": "string",
          "name": "_image",
          "type": "string"
        }
      ],
      "name": "editItem",
      "outputs": [],
      "stateMutability": "nonpayable",
      "type": "function"
    },
    {
      "inputs": [],
      "name": "itemsCount",
      "outputs": [
        {
          "internalType": "uint256",
          "name": "",
          "type": "uint256"
        }
      ],
      "stateMutability": "view",
      "type": "function"
    },
    {
      "inputs": [],
      "name": "retrieveUserItems",
      "outputs": [
        {
          "components": [
            {
              "internalType": "uint256",
              "name": "itemId",
              "type": "uint256"
            },
            {
              "internalType": "string",
              "name": "title",
              "type": "string"
            },
            {
              "internalType": "string",
              "name": "description",
              "type": "string"
            },
            {
              "internalType": "uint256",
              "name": "price",
              "type": "uint256"
            },
            {
              "internalType": "string",
              "name": "image",
              "type": "string"
            },
            {
              "internalType": "uint256",
              "name": "createdAt",
              "type": "uint256"
            },
            {
              "internalType": "address",
              "name": "buyer",
              "type": "address"
            },
            {
              "internalType": "bool",
              "name": "hasBuyer",
              "type": "bool"
            },
            {
              "internalType": "contract Escrow",
              "name": "escrow",
              "type": "address"
            }
          ],
          "internalType": "struct Item.ItemStruct[]",
          "name": "",
          "type": "tuple[]"
        }
      ],
      "stateMutability": "view",
      "type": "function"
    }
  ],
  "bytecode": "0x608060405234801561001057600080fd5b506124bf806100206000396000f3fe608060405234801561001057600080fd5b50600436106100625760003560e01c80630461459a1461006757806313df81d614610083578063654fc8331461009f5780639ab7e23b146100bb578063dbc37670146100d9578063e2c03ace146100f7575b600080fd5b610081600480360381019061007c9190611840565b610115565b005b61009d6004803603810190610098919061190f565b610374565b005b6100b960048036038101906100b491906119ca565b610669565b005b6100c3610b8d565b6040516100d09190611cd5565b60405180910390f35b6100e1610ec4565b6040516100ee9190611cd5565b60405180910390f35b6100ff6114e7565b60405161010c9190611d06565b60405180910390f35b60008511801561012757506001548511155b610166576040517f08c379a000000000000000000000000000000000000000000000000000000000815260040161015d90611d7e565b60405180910390fd5b60008060003373ffffffffffffffffffffffffffffffffffffffff1673ffffffffffffffffffffffffffffffffffffffff16815260200190815260200160002090506000805b828054905081101561032a57878382815481106101cc576101cb611d9e565b5b9060005260206000209060080201600001540361031d57600191508281815481106101fa576101f9611d9e565b5b906000526020600020906008020160060160149054906101000a900460ff1615610259576040517f08c379a000000000000000000000000000000000000000000000000000000000815260040161025090611e19565b60405180910390fd5b8683828154811061026d5761026c611d9e565b5b9060005260206000209060080201600101908161028a919061203b565b508583828154811061029f5761029e611d9e565b5b906000526020600020906008020160020190816102bc919061203b565b50848382815481106102d1576102d0611d9e565b5b906000526020600020906008020160030181905550838382815481106102fa576102f9611d9e565b5b90600052602060002090600802016004019081610317919061203b565b5061032a565b80806001019150506101ac565b508061036b576040517f08c379a000000000000000000000000000000000000000000000000000000000815260040161036290612159565b60405180910390fd5b50505050505050565b6103b36040518060400160405280600c81526020017f50726963652069733a2025730000000000000000000000000000000000000000815250836114ed565b60008060003373ffffffffffffffffffffffffffffffffffffffff1673ffffffffffffffffffffffffffffffffffffffff1681526020019081526020016000208054905003610460576002339080600181540180825580915050600190039060005260206000200160009091909190916101000a81548173ffffffffffffffffffffffffffffffffffffffff021916908373ffffffffffffffffffffffffffffffffffffffff1602179055505b60016000815480929190610473906121a8565b91905055506000803373ffffffffffffffffffffffffffffffffffffffff1673ffffffffffffffffffffffffffffffffffffffff1681526020019081526020016000206040518061012001604052806001548152602001868152602001858152602001848152602001838152602001428152602001600073ffffffffffffffffffffffffffffffffffffffff168152602001600015158152602001600073ffffffffffffffffffffffffffffffffffffffff168152509080600181540180825580915050600190039060005260206000209060080201600090919091909150600082015181600001556020820151816001019081610571919061203b565b506040820151816002019081610587919061203b565b506060820151816003015560808201518160040190816105a7919061203b565b5060a0820151816005015560c08201518160060160006101000a81548173ffffffffffffffffffffffffffffffffffffffff021916908373ffffffffffffffffffffffffffffffffffffffff16021790555060e08201518160060160146101000a81548160ff0219169083151502179055506101008201518160070160006101000a81548173ffffffffffffffffffffffffffffffffffffffff021916908373ffffffffffffffffffffffffffffffffffffffff160217905550505050505050565b6000803373ffffffffffffffffffffffffffffffffffffffff1673ffffffffffffffffffffffffffffffffffffffff1681526020019081526020016000208054905081106106ec576040517f08c379a00000000000000000000000000000000000000000000000000000000081526004016106e39061223c565b60405180910390fd5b60008060003373ffffffffffffffffffffffffffffffffffffffff1673ffffffffffffffffffffffffffffffffffffffff168152602001908152602001600020828154811061073e5761073d611d9e565b5b906000526020600020906008020190508060060160149054906101000a900460ff16156107a0576040517f08c379a000000000000000000000000000000000000000000000000000000000815260040161079790611e19565b60405180910390fd5b600060016000803373ffffffffffffffffffffffffffffffffffffffff1673ffffffffffffffffffffffffffffffffffffffff168152602001908152602001600020805490506107f0919061225c565b9050808314610a77576000803373ffffffffffffffffffffffffffffffffffffffff1673ffffffffffffffffffffffffffffffffffffffff168152602001908152602001600020818154811061084957610848611d9e565b5b90600052602060002090600802016000803373ffffffffffffffffffffffffffffffffffffffff1673ffffffffffffffffffffffffffffffffffffffff16815260200190815260200160002084815481106108a7576108a6611d9e565b5b906000526020600020906008020160008201548160000155600182018160010190816108d391906122a6565b50600282018160020190816108e891906122a6565b50600382015481600301556004820181600401908161090791906122a6565b50600582015481600501556006820160009054906101000a900473ffffffffffffffffffffffffffffffffffffffff168160060160006101000a81548173ffffffffffffffffffffffffffffffffffffffff021916908373ffffffffffffffffffffffffffffffffffffffff1602179055506006820160149054906101000a900460ff168160060160146101000a81548160ff0219169083151502179055506007820160009054906101000a900473ffffffffffffffffffffffffffffffffffffffff168160070160006101000a81548173ffffffffffffffffffffffffffffffffffffffff021916908373ffffffffffffffffffffffffffffffffffffffff160217905550905050826000803373ffffffffffffffffffffffffffffffffffffffff1673ffffffffffffffffffffffffffffffffffffffff1681526020019081526020016000208481548110610a6157610a60611d9e565b5b9060005260206000209060080201600001819055505b6000803373ffffffffffffffffffffffffffffffffffffffff1673ffffffffffffffffffffffffffffffffffffffff168152602001908152602001600020805480610ac557610ac461238e565b5b6001900381819060005260206000209060080201600080820160009055600182016000610af291906115cf565b600282016000610b0291906115cf565b6003820160009055600482016000610b1a91906115cf565b60058201600090556006820160006101000a81549073ffffffffffffffffffffffffffffffffffffffff02191690556006820160146101000a81549060ff02191690556007820160006101000a81549073ffffffffffffffffffffffffffffffffffffffff021916905550509055505050565b60606000803373ffffffffffffffffffffffffffffffffffffffff1673ffffffffffffffffffffffffffffffffffffffff168152602001908152602001600020805480602002602001604051908101604052809291908181526020016000905b82821015610ebb57838290600052602060002090600802016040518061012001604052908160008201548152602001600182018054610c2b90611e68565b80601f0160208091040260200160405190810160405280929190818152602001828054610c5790611e68565b8015610ca45780601f10610c7957610100808354040283529160200191610ca4565b820191906000526020600020905b815481529060010190602001808311610c8757829003601f168201915b50505050508152602001600282018054610cbd90611e68565b80601f0160208091040260200160405190810160405280929190818152602001828054610ce990611e68565b8015610d365780601f10610d0b57610100808354040283529160200191610d36565b820191906000526020600020905b815481529060010190602001808311610d1957829003601f168201915b5050505050815260200160038201548152602001600482018054610d5990611e68565b80601f0160208091040260200160405190810160405280929190818152602001828054610d8590611e68565b8015610dd25780601f10610da757610100808354040283529160200191610dd2565b820191906000526020600020905b815481529060010190602001808311610db557829003601f168201915b50505050508152602001600582015481526020016006820160009054906101000a900473ffffffffffffffffffffffffffffffffffffffff1673ffffffffffffffffffffffffffffffffffffffff1673ffffffffffffffffffffffffffffffffffffffff1681526020016006820160149054906101000a900460ff161515151581526020016007820160009054906101000a900473ffffffffffffffffffffffffffffffffffffffff1673ffffffffffffffffffffffffffffffffffffffff1673ffffffffffffffffffffffffffffffffffffffff168152505081526020019060010190610bed565b50505050905090565b606060008060005b600280549050811015610fe5573373ffffffffffffffffffffffffffffffffffffffff1660028281548110610f0457610f03611d9e565b5b9060005260206000200160009054906101000a900473ffffffffffffffffffffffffffffffffffffffff1673ffffffffffffffffffffffffffffffffffffffff1614610fd85760008060028381548110610f6157610f60611d9e565b5b9060005260206000200160009054906101000a900473ffffffffffffffffffffffffffffffffffffffff1673ffffffffffffffffffffffffffffffffffffffff1673ffffffffffffffffffffffffffffffffffffffff1681526020019081526020016000208054905083610fd591906123bd565b92505b8080600101915050610ecc565b5060008267ffffffffffffffff81111561100257611001611715565b5b60405190808252806020026020018201604052801561103b57816020015b61102861160f565b8152602001906001900390816110205790505b50905060005b60028054905081101561145f573373ffffffffffffffffffffffffffffffffffffffff166002828154811061107957611078611d9e565b5b9060005260206000200160009054906101000a900473ffffffffffffffffffffffffffffffffffffffff1673ffffffffffffffffffffffffffffffffffffffff1614611452576000806000600284815481106110d8576110d7611d9e565b5b9060005260206000200160009054906101000a900473ffffffffffffffffffffffffffffffffffffffff1673ffffffffffffffffffffffffffffffffffffffff1673ffffffffffffffffffffffffffffffffffffffff168152602001908152602001600020905060005b818054905081101561144f5781818154811061116157611160611d9e565b5b9060005260206000209060080201604051806101200160405290816000820154815260200160018201805461119590611e68565b80601f01602080910402602001604051908101604052809291908181526020018280546111c190611e68565b801561120e5780601f106111e35761010080835404028352916020019161120e565b820191906000526020600020905b8154815290600101906020018083116111f157829003601f168201915b5050505050815260200160028201805461122790611e68565b80601f016020809104026020016040519081016040528092919081815260200182805461125390611e68565b80156112a05780601f10611275576101008083540402835291602001916112a0565b820191906000526020600020905b81548152906001019060200180831161128357829003601f168201915b50505050508152602001600382015481526020016004820180546112c390611e68565b80601f01602080910402602001604051908101604052809291908181526020018280546112ef90611e68565b801561133c5780601f106113115761010080835404028352916020019161133c565b820191906000526020600020905b81548152906001019060200180831161131f57829003601f168201915b50505050508152602001600582015481526020016006820160009054906101000a900473ffffffffffffffffffffffffffffffffffffffff1673ffffffffffffffffffffffffffffffffffffffff1673ffffffffffffffffffffffffffffffffffffffff1681526020016006820160149054906101000a900460ff161515151581526020016007820160009054906101000a900473ffffffffffffffffffffffffffffffffffffffff1673ffffffffffffffffffffffffffffffffffffffff1673ffffffffffffffffffffffffffffffffffffffff168152505084868151811061142957611428611d9e565b5b6020026020010181905250848061143f906121a8565b9550508080600101915050611142565b50505b8080600101915050611041565b5061149f6040518060400160405280600d81526020017f546f74616c204974656d733a2000000000000000000000000000000000000000815250846114ed565b6114de6040518060400160405280600f81526020017f43757272656e7420496e6465783a200000000000000000000000000000000000815250836114ed565b80935050505090565b60015481565b611585828260405160240161150392919061242a565b6040516020818303038152906040527fb60e72cc000000000000000000000000000000000000000000000000000000007bffffffffffffffffffffffffffffffffffffffffffffffffffffffff19166020820180517bffffffffffffffffffffffffffffffffffffffffffffffffffffffff8381831617835250505050611589565b5050565b6115a0816115986115a36115c4565b63ffffffff16565b50565b60006a636f6e736f6c652e6c6f679050600080835160208501845afa505050565b611689819050919050565b5080546115db90611e68565b6000825580601f106115ed575061160c565b601f01602090049060005260206000209081019061160b9190611693565b5b50565b604051806101200160405280600081526020016060815260200160608152602001600081526020016060815260200160008152602001600073ffffffffffffffffffffffffffffffffffffffff168152602001600015158152602001600073ffffffffffffffffffffffffffffffffffffffff1681525090565b61169161245a565b565b5b808211156116ac576000816000905550600101611694565b5090565b6000604051905090565b600080fd5b600080fd5b6000819050919050565b6116d7816116c4565b81146116e257600080fd5b50565b6000813590506116f4816116ce565b92915050565b600080fd5b600080fd5b6000601f19601f8301169050919050565b7f4e487b7100000000000000000000000000000000000000000000000000000000600052604160045260246000fd5b61174d82611704565b810181811067ffffffffffffffff8211171561176c5761176b611715565b5b80604052505050565b600061177f6116b0565b905061178b8282611744565b919050565b600067ffffffffffffffff8211156117ab576117aa611715565b5b6117b482611704565b9050602081019050919050565b82818337600083830152505050565b60006117e36117de84611790565b611775565b9050828152602081018484840111156117ff576117fe6116ff565b5b61180a8482856117c1565b509392505050565b600082601f830112611827576118266116fa565b5b81356118378482602086016117d0565b91505092915050565b600080600080600060a0868803121561185c5761185b6116ba565b5b600061186a888289016116e5565b955050602086013567ffffffffffffffff81111561188b5761188a6116bf565b5b61189788828901611812565b945050604086013567ffffffffffffffff8111156118b8576118b76116bf565b5b6118c488828901611812565b93505060606118d5888289016116e5565b925050608086013567ffffffffffffffff8111156118f6576118f56116bf565b5b61190288828901611812565b9150509295509295909350565b60008060008060808587031215611929576119286116ba565b5b600085013567ffffffffffffffff811115611947576119466116bf565b5b61195387828801611812565b945050602085013567ffffffffffffffff811115611974576119736116bf565b5b61198087828801611812565b9350506040611991878288016116e5565b925050606085013567ffffffffffffffff8111156119b2576119b16116bf565b5b6119be87828801611812565b91505092959194509250565b6000602082840312156119e0576119df6116ba565b5b60006119ee848285016116e5565b91505092915050565b600081519050919050565b600082825260208201905092915050565b6000819050602082019050919050565b611a2c816116c4565b82525050565b600081519050919050565b600082825260208201905092915050565b60005b83811015611a6c578082015181840152602081019050611a51565b60008484015250505050565b6000611a8382611a32565b611a8d8185611a3d565b9350611a9d818560208601611a4e565b611aa681611704565b840191505092915050565b600073ffffffffffffffffffffffffffffffffffffffff82169050919050565b6000611adc82611ab1565b9050919050565b611aec81611ad1565b82525050565b60008115159050919050565b611b0781611af2565b82525050565b6000819050919050565b6000611b32611b2d611b2884611ab1565b611b0d565b611ab1565b9050919050565b6000611b4482611b17565b9050919050565b6000611b5682611b39565b9050919050565b611b6681611b4b565b82525050565b600061012083016000830151611b856000860182611a23565b5060208301518482036020860152611b9d8282611a78565b91505060408301518482036040860152611bb78282611a78565b9150506060830151611bcc6060860182611a23565b5060808301518482036080860152611be48282611a78565b91505060a0830151611bf960a0860182611a23565b5060c0830151611c0c60c0860182611ae3565b5060e0830151611c1f60e0860182611afe565b50610100830151611c34610100860182611b5d565b508091505092915050565b6000611c4b8383611b6c565b905092915050565b6000602082019050919050565b6000611c6b826119f7565b611c758185611a02565b935083602082028501611c8785611a13565b8060005b85811015611cc35784840389528151611ca48582611c3f565b9450611caf83611c53565b925060208a01995050600181019050611c8b565b50829750879550505050505092915050565b60006020820190508181036000830152611cef8184611c60565b905092915050565b611d00816116c4565b82525050565b6000602082019050611d1b6000830184611cf7565b92915050565b600082825260208201905092915050565b7f496e76616c6964206974656d2049440000000000000000000000000000000000600082015250565b6000611d68600f83611d21565b9150611d7382611d32565b602082019050919050565b60006020820190508181036000830152611d9781611d5b565b9050919050565b7f4e487b7100000000000000000000000000000000000000000000000000000000600052603260045260246000fd5b7f4974656d20616c726561647920736f6c64000000000000000000000000000000600082015250565b6000611e03601183611d21565b9150611e0e82611dcd565b602082019050919050565b60006020820190508181036000830152611e3281611df6565b9050919050565b7f4e487b7100000000000000000000000000000000000000000000000000000000600052602260045260246000fd5b60006002820490506001821680611e8057607f821691505b602082108103611e9357611e92611e39565b5b50919050565b60008190508160005260206000209050919050565b60006020601f8301049050919050565b600082821b905092915050565b600060088302611efb7fffffffffffffffffffffffffffffffffffffffffffffffffffffffffffffffff82611ebe565b611f058683611ebe565b95508019841693508086168417925050509392505050565b6000611f38611f33611f2e846116c4565b611b0d565b6116c4565b9050919050565b6000819050919050565b611f5283611f1d565b611f66611f5e82611f3f565b848454611ecb565b825550505050565b600090565b611f7b611f6e565b611f86818484611f49565b505050565b5b81811015611faa57611f9f600082611f73565b600181019050611f8c565b5050565b601f821115611fef57611fc081611e99565b611fc984611eae565b81016020851015611fd8578190505b611fec611fe485611eae565b830182611f8b565b50505b505050565b600082821c905092915050565b600061201260001984600802611ff4565b1980831691505092915050565b600061202b8383612001565b9150826002028217905092915050565b61204482611a32565b67ffffffffffffffff81111561205d5761205c611715565b5b6120678254611e68565b612072828285611fae565b600060209050601f8311600181146120a55760008415612093578287015190505b61209d858261201f565b865550612105565b601f1984166120b386611e99565b60005b828110156120db578489015182556001820191506020850194506020810190506120b6565b868310156120f857848901516120f4601f891682612001565b8355505b6001600288020188555050505b505050505050565b7f4974656d20646f6573206e6f742062656c6f6e6720746f2073656e6465720000600082015250565b6000612143601e83611d21565b915061214e8261210d565b602082019050919050565b6000602082019050818103600083015261217281612136565b9050919050565b7f4e487b7100000000000000000000000000000000000000000000000000000000600052601160045260246000fd5b60006121b3826116c4565b91507fffffffffffffffffffffffffffffffffffffffffffffffffffffffffffffffff82036121e5576121e4612179565b5b600182019050919050565b7f4974656d20646f6573206e6f7420657869737400000000000000000000000000600082015250565b6000612226601383611d21565b9150612231826121f0565b602082019050919050565b6000602082019050818103600083015261225581612219565b9050919050565b6000612267826116c4565b9150612272836116c4565b925082820390508181111561228a57612289612179565b5b92915050565b60008154905061229f81611e68565b9050919050565b8181036122b457505061238c565b6122bd82612290565b67ffffffffffffffff8111156122d6576122d5611715565b5b6122e08254611e68565b6122eb828285611fae565b6000601f83116001811461231a5760008415612308578287015490505b612312858261201f565b865550612385565b601f19841661232887611e99565b965061233386611e99565b60005b8281101561235b57848901548255600182019150600185019450602081019050612336565b868310156123785784890154612374601f891682612001565b8355505b6001600288020188555050505b5050505050505b565b7f4e487b7100000000000000000000000000000000000000000000000000000000600052603160045260246000fd5b60006123c8826116c4565b91506123d3836116c4565b92508282019050808211156123eb576123ea612179565b5b92915050565b60006123fc82611a32565b6124068185611d21565b9350612416818560208601611a4e565b61241f81611704565b840191505092915050565b6000604082019050818103600083015261244481856123f1565b90506124536020830184611cf7565b9392505050565b7f4e487b7100000000000000000000000000000000000000000000000000000000600052605160045260246000fdfea26469706673582212204288b7a82e64dd3b02f2b057ac25a5fd6abdde321ac7b497ab350bf9b35153ff64736f6c63430008180033",
  "linkReferences": {},
  "deployedLinkReferences": {}
}