{
  "_format": "hh-sol-artifact-1",
  "contractName": "Item",
  "sourceName": "contracts/Item.sol",
  "abi": [
    {
      "inputs": [
        {
          "internalType": "string",
          "name": "_title",
          "type": "string"
        },
        {
          "internalType": "string",
          "name": "_description",
          "type": "string"
        },
        {
          "internalType": "uint256",
          "name": "_price",
          "type": "uint256"
        },
        {
          "internalType": "string",
          "name": "_image",
          "type": "string"
        }
      ],
      "name": "addItem",
      "outputs": [],
      "stateMutability": "nonpayable",
      "type": "function"
    },
    {
      "inputs": [],
      "name": "browseItems",
      "outputs": [
        {
          "components": [
            {
              "internalType": "uint256",
              "name": "itemId",
              "type": "uint256"
            },
            {
              "internalType": "string",
              "name": "title",
              "type": "string"
            },
            {
              "internalType": "string",
              "name": "description",
              "type": "string"
            },
            {
              "internalType": "uint256",
              "name": "price",
              "type": "uint256"
            },
            {
              "internalType": "string",
              "name": "image",
              "type": "string"
            },
            {
              "internalType": "uint256",
              "name": "createdAt",
              "type": "uint256"
            },
            {
              "internalType": "address",
              "name": "buyer",
              "type": "address"
            },
            {
              "internalType": "bool",
              "name": "hasBuyer",
              "type": "bool"
            },
            {
              "internalType": "contract Escrow",
              "name": "escrow",
              "type": "address"
            },
            {
              "internalType": "address",
              "name": "seller",
              "type": "address"
            }
          ],
          "internalType": "struct Item.ItemStruct[]",
          "name": "",
          "type": "tuple[]"
        }
      ],
      "stateMutability": "view",
      "type": "function"
    },
    {
      "inputs": [
        {
          "internalType": "uint256",
          "name": "_itemId",
          "type": "uint256"
        },
        {
          "internalType": "address",
          "name": "_seller",
          "type": "address"
        }
      ],
      "name": "cancelItem",
      "outputs": [],
      "stateMutability": "nonpayable",
      "type": "function"
    },
    {
      "inputs": [
        {
          "internalType": "uint256",
          "name": "_itemId",
          "type": "uint256"
        }
      ],
      "name": "deleteItem",
      "outputs": [],
      "stateMutability": "nonpayable",
      "type": "function"
    },
    {
      "inputs": [
        {
          "internalType": "uint256",
          "name": "_itemId",
          "type": "uint256"
        },
        {
          "internalType": "string",
          "name": "_title",
          "type": "string"
        },
        {
          "internalType": "string",
          "name": "_description",
          "type": "string"
        },
        {
          "internalType": "uint256",
          "name": "_price",
          "type": "uint256"
        },
        {
          "internalType": "string",
          "name": "_image",
          "type": "string"
        }
      ],
      "name": "editItem",
      "outputs": [],
      "stateMutability": "nonpayable",
      "type": "function"
    },
    {
      "inputs": [],
      "name": "itemsCount",
      "outputs": [
        {
          "internalType": "uint256",
          "name": "",
          "type": "uint256"
        }
      ],
      "stateMutability": "view",
      "type": "function"
    },
    {
      "inputs": [],
      "name": "myPurchases",
      "outputs": [
        {
          "components": [
            {
              "internalType": "uint256",
              "name": "itemId",
              "type": "uint256"
            },
            {
              "internalType": "string",
              "name": "title",
              "type": "string"
            },
            {
              "internalType": "string",
              "name": "description",
              "type": "string"
            },
            {
              "internalType": "uint256",
              "name": "price",
              "type": "uint256"
            },
            {
              "internalType": "string",
              "name": "image",
              "type": "string"
            },
            {
              "internalType": "uint256",
              "name": "createdAt",
              "type": "uint256"
            },
            {
              "internalType": "address",
              "name": "buyer",
              "type": "address"
            },
            {
              "internalType": "bool",
              "name": "hasBuyer",
              "type": "bool"
            },
            {
              "internalType": "contract Escrow",
              "name": "escrow",
              "type": "address"
            },
            {
              "internalType": "address",
              "name": "seller",
              "type": "address"
            }
          ],
          "internalType": "struct Item.ItemStruct[]",
          "name": "",
          "type": "tuple[]"
        }
      ],
      "stateMutability": "view",
      "type": "function"
    },
    {
      "inputs": [],
      "name": "mySales",
      "outputs": [
        {
          "components": [
            {
              "internalType": "uint256",
              "name": "itemId",
              "type": "uint256"
            },
            {
              "internalType": "string",
              "name": "title",
              "type": "string"
            },
            {
              "internalType": "string",
              "name": "description",
              "type": "string"
            },
            {
              "internalType": "uint256",
              "name": "price",
              "type": "uint256"
            },
            {
              "internalType": "string",
              "name": "image",
              "type": "string"
            },
            {
              "internalType": "uint256",
              "name": "createdAt",
              "type": "uint256"
            },
            {
              "internalType": "address",
              "name": "buyer",
              "type": "address"
            },
            {
              "internalType": "bool",
              "name": "hasBuyer",
              "type": "bool"
            },
            {
              "internalType": "contract Escrow",
              "name": "escrow",
              "type": "address"
            },
            {
              "internalType": "address",
              "name": "seller",
              "type": "address"
            }
          ],
          "internalType": "struct Item.ItemStruct[]",
          "name": "",
          "type": "tuple[]"
        }
      ],
      "stateMutability": "view",
      "type": "function"
    },
    {
      "inputs": [
        {
          "internalType": "uint256",
          "name": "_itemId",
          "type": "uint256"
        },
        {
          "internalType": "address",
          "name": "_seller",
          "type": "address"
        }
      ],
      "name": "purchaseItem",
      "outputs": [],
      "stateMutability": "payable",
      "type": "function"
    },
    {
      "inputs": [],
      "name": "retrieveUserItems",
      "outputs": [
        {
          "components": [
            {
              "internalType": "uint256",
              "name": "itemId",
              "type": "uint256"
            },
            {
              "internalType": "string",
              "name": "title",
              "type": "string"
            },
            {
              "internalType": "string",
              "name": "description",
              "type": "string"
            },
            {
              "internalType": "uint256",
              "name": "price",
              "type": "uint256"
            },
            {
              "internalType": "string",
              "name": "image",
              "type": "string"
            },
            {
              "internalType": "uint256",
              "name": "createdAt",
              "type": "uint256"
            },
            {
              "internalType": "address",
              "name": "buyer",
              "type": "address"
            },
            {
              "internalType": "bool",
              "name": "hasBuyer",
              "type": "bool"
            },
            {
              "internalType": "contract Escrow",
              "name": "escrow",
              "type": "address"
            },
            {
              "internalType": "address",
              "name": "seller",
              "type": "address"
            }
          ],
          "internalType": "struct Item.ItemStruct[]",
          "name": "",
          "type": "tuple[]"
        }
      ],
      "stateMutability": "view",
      "type": "function"
    },
    {
      "inputs": [
        {
          "internalType": "uint256",
          "name": "_itemId",
          "type": "uint256"
        },
        {
          "internalType": "string",
          "name": "tracking",
          "type": "string"
        }
      ],
      "name": "shipItem",
      "outputs": [],
      "stateMutability": "nonpayable",
      "type": "function"
    }
  ],
  "bytecode": "0x608060405234801561001057600080fd5b50616dfd806100206000396000f3fe608060405260043610620000aa5760003560e01c80637bfe9efd116200006d5780637bfe9efd14620001975780638af8a98614620001b75780639768c44b14620001e75780639ab7e23b1462000215578063dbc376701462000245578063e2c03ace146200027557620000aa565b80630461459a14620000af57806313df81d614620000dd57806338f5234f146200010b5780634d25ce47146200013b578063654fc8331462000169575b600080fd5b348015620000bc57600080fd5b50620000db6004803603810190620000d59190620035c7565b620002a5565b005b348015620000ea57600080fd5b50620001096004803603810190620001039190620036ac565b6200052a565b005b3480156200011857600080fd5b50620001236200088e565b60405162000132919062003aae565b60405180910390f35b3480156200014857600080fd5b5062000167600480360381019062000161919062003ad2565b62000d6e565b005b3480156200017657600080fd5b506200019560048036038101906200018f919062003b38565b62001139565b005b620001b56004803603810190620001af919062003b9b565b620015fe565b005b348015620001c457600080fd5b50620001cf62001b23565b604051620001de919062003aae565b60405180910390f35b348015620001f457600080fd5b506200021360048036038101906200020d919062003b9b565b62002188565b005b3480156200022257600080fd5b506200022d620026d0565b6040516200023c919062003aae565b60405180910390f35b3480156200025257600080fd5b506200025d62002a77565b6040516200026c919062003aae565b60405180910390f35b3480156200028257600080fd5b506200028d6200316c565b6040516200029c919062003bf3565b60405180910390f35b600085118015620002b857506001548511155b620002fa576040517f08c379a0000000000000000000000000000000000000000000000000000000008152600401620002f19062003c71565b60405180910390fd5b60008060003373ffffffffffffffffffffffffffffffffffffffff1673ffffffffffffffffffffffffffffffffffffffff16815260200190815260200160002090506000805b8280549050811015620004dd578783828154811062000364576200036362003c93565b5b90600052602060002090600902016000015403620004cf576001915082818154811062000396576200039562003c93565b5b906000526020600020906009020160060160149054906101000a900460ff1615620003f8576040517f08c379a0000000000000000000000000000000000000000000000000000000008152600401620003ef9062003d12565b60405180910390fd5b868382815481106200040f576200040e62003c93565b5b906000526020600020906009020160010190816200042e919062003f60565b508583828154811062000446576200044562003c93565b5b9060005260206000209060090201600201908162000465919062003f60565b50848382815481106200047d576200047c62003c93565b5b90600052602060002090600902016003018190555083838281548110620004a957620004a862003c93565b5b90600052602060002090600902016004019081620004c8919062003f60565b50620004dd565b808060010191505062000340565b508062000521576040517f08c379a0000000000000000000000000000000000000000000000000000000008152600401620005189062004097565b60405180910390fd5b50505050505050565b6200056b6040518060400160405280600c81526020017f50726963652069733a20257300000000000000000000000000000000000000008152508362003172565b60008060003373ffffffffffffffffffffffffffffffffffffffff1673ffffffffffffffffffffffffffffffffffffffff168152602001908152602001600020805490500362000619576002339080600181540180825580915050600190039060005260206000200160009091909190916101000a81548173ffffffffffffffffffffffffffffffffffffffff021916908373ffffffffffffffffffffffffffffffffffffffff1602179055505b600160008154809291906200062e90620040e8565b91905055506000803373ffffffffffffffffffffffffffffffffffffffff1673ffffffffffffffffffffffffffffffffffffffff1681526020019081526020016000206040518061014001604052806001548152602001868152602001858152602001848152602001838152602001428152602001600073ffffffffffffffffffffffffffffffffffffffff168152602001600015158152602001600073ffffffffffffffffffffffffffffffffffffffff1681526020013373ffffffffffffffffffffffffffffffffffffffff1681525090806001815401808255809150506001900390600052602060002090600902016000909190919091506000820151816000015560208201518160010190816200074a919062003f60565b50604082015181600201908162000762919062003f60565b5060608201518160030155608082015181600401908162000784919062003f60565b5060a0820151816005015560c08201518160060160006101000a81548173ffffffffffffffffffffffffffffffffffffffff021916908373ffffffffffffffffffffffffffffffffffffffff16021790555060e08201518160060160146101000a81548160ff0219169083151502179055506101008201518160070160006101000a81548173ffffffffffffffffffffffffffffffffffffffff021916908373ffffffffffffffffffffffffffffffffffffffff1602179055506101208201518160080160006101000a81548173ffffffffffffffffffffffffffffffffffffffff021916908373ffffffffffffffffffffffffffffffffffffffff160217905550505050505050565b606060008060008060003373ffffffffffffffffffffffffffffffffffffffff1673ffffffffffffffffffffffffffffffffffffffff168152602001908152602001600020905060005b81805490508110156200093f57818181548110620008fb57620008fa62003c93565b5b906000526020600020906009020160060160149054906101000a900460ff1615620009315783806200092d90620040e8565b9450505b8080600101915050620008d8565b5060008367ffffffffffffffff8111156200095f576200095e62003480565b5b6040519080825280602002602001820160405280156200099c57816020015b6200098862003300565b8152602001906001900390816200097e5790505b50905060005b828054905081101562000d6357828181548110620009c557620009c462003c93565b5b906000526020600020906009020160060160149054906101000a900460ff161562000d555782818154811062000a0057620009ff62003c93565b5b9060005260206000209060090201604051806101400160405290816000820154815260200160018201805462000a369062003d63565b80601f016020809104026020016040519081016040528092919081815260200182805462000a649062003d63565b801562000ab55780601f1062000a895761010080835404028352916020019162000ab5565b820191906000526020600020905b81548152906001019060200180831162000a9757829003601f168201915b5050505050815260200160028201805462000ad09062003d63565b80601f016020809104026020016040519081016040528092919081815260200182805462000afe9062003d63565b801562000b4f5780601f1062000b235761010080835404028352916020019162000b4f565b820191906000526020600020905b81548152906001019060200180831162000b3157829003601f168201915b505050505081526020016003820154815260200160048201805462000b749062003d63565b80601f016020809104026020016040519081016040528092919081815260200182805462000ba29062003d63565b801562000bf35780601f1062000bc75761010080835404028352916020019162000bf3565b820191906000526020600020905b81548152906001019060200180831162000bd557829003601f168201915b50505050508152602001600582015481526020016006820160009054906101000a900473ffffffffffffffffffffffffffffffffffffffff1673ffffffffffffffffffffffffffffffffffffffff1673ffffffffffffffffffffffffffffffffffffffff1681526020016006820160149054906101000a900460ff161515151581526020016007820160009054906101000a900473ffffffffffffffffffffffffffffffffffffffff1673ffffffffffffffffffffffffffffffffffffffff1673ffffffffffffffffffffffffffffffffffffffff1681526020016008820160009054906101000a900473ffffffffffffffffffffffffffffffffffffffff1673ffffffffffffffffffffffffffffffffffffffff1673ffffffffffffffffffffffffffffffffffffffff168152505082858151811062000d395762000d3862003c93565b5b6020026020010181905250838062000d5190620040e8565b9450505b8080600101915050620009a2565b508094505050505090565b60008060003373ffffffffffffffffffffffffffffffffffffffff1673ffffffffffffffffffffffffffffffffffffffff168152602001908152602001600020905060008080600090505b838054905081101562000e10578584828154811062000ddd5762000ddc62003c93565b5b9060005260206000209060090201600001540362000e02576001925080915062000e10565b808060010191505062000db9565b508162000e54576040517f08c379a000000000000000000000000000000000000000000000000000000000815260040162000e4b9062004185565b60405180910390fd5b82818154811062000e6a5762000e6962003c93565b5b906000526020600020906009020160060160149054906101000a900460ff1662000ecb576040517f08c379a000000000000000000000000000000000000000000000000000000000815260040162000ec290620041f7565b60405180910390fd5b82818154811062000ee15762000ee062003c93565b5b906000526020600020906009020160080160009054906101000a900473ffffffffffffffffffffffffffffffffffffffff1673ffffffffffffffffffffffffffffffffffffffff163373ffffffffffffffffffffffffffffffffffffffff161462000f83576040517f08c379a000000000000000000000000000000000000000000000000000000000815260040162000f7a9062004269565b60405180910390fd5b82818154811062000f995762000f9862003c93565b5b906000526020600020906009020160070160009054906101000a900473ffffffffffffffffffffffffffffffffffffffff1673ffffffffffffffffffffffffffffffffffffffff1663dd3fa136856040518263ffffffff1660e01b8152600401620010059190620042cc565b600060405180830381600087803b1580156200102057600080fd5b505af115801562001035573d6000803e3d6000fd5b50505050620011326040518060400160405280601681526020017f4974656d20736869707065643a2025732062792025730000000000000000000081525084838154811062001089576200108862003c93565b5b90600052602060002090600902016001018054620010a79062003d63565b80601f0160208091040260200160405190810160405280929190818152602001828054620010d59062003d63565b8015620011265780601f10620010fa5761010080835404028352916020019162001126565b820191906000526020600020905b8154815290600101906020018083116200110857829003601f168201915b50505050503362003212565b5050505050565b60008060003373ffffffffffffffffffffffffffffffffffffffff1673ffffffffffffffffffffffffffffffffffffffff168152602001908152602001600020905060008080600090505b8380549050811015620012535784848281548110620011a857620011a762003c93565b5b906000526020600020906009020160000154036200124557838181548110620011d657620011d562003c93565b5b906000526020600020906009020160060160149054906101000a900460ff161562001238576040517f08c379a00000000000000000000000000000000000000000000000000000000081526004016200122f9062003d12565b60405180910390fd5b6001925080915062001253565b808060010191505062001184565b508162001297576040517f08c379a00000000000000000000000000000000000000000000000000000000081526004016200128e9062004340565b60405180910390fd5b600060018480549050620012ac919062004362565b9050808214620014f357838181548110620012cc57620012cb62003c93565b5b9060005260206000209060090201848381548110620012f057620012ef62003c93565b5b906000526020600020906009020160008201548160000155600182018160010190816200131e9190620043b5565b5060028201816002019081620013359190620043b5565b506003820154816003015560048201816004019081620013569190620043b5565b50600582015481600501556006820160009054906101000a900473ffffffffffffffffffffffffffffffffffffffff168160060160006101000a81548173ffffffffffffffffffffffffffffffffffffffff021916908373ffffffffffffffffffffffffffffffffffffffff1602179055506006820160149054906101000a900460ff168160060160146101000a81548160ff0219169083151502179055506007820160009054906101000a900473ffffffffffffffffffffffffffffffffffffffff168160070160006101000a81548173ffffffffffffffffffffffffffffffffffffffff021916908373ffffffffffffffffffffffffffffffffffffffff1602179055506008820160009054906101000a900473ffffffffffffffffffffffffffffffffffffffff168160080160006101000a81548173ffffffffffffffffffffffffffffffffffffffff021916908373ffffffffffffffffffffffffffffffffffffffff16021790555090505084848381548110620014dd57620014dc62003c93565b5b9060005260206000209060090201600001819055505b83805480620015075762001506620044b6565b5b600190038181906000526020600020906009020160008082016000905560018201600062001536919062003397565b60028201600062001548919062003397565b600382016000905560048201600062001562919062003397565b60058201600090556006820160006101000a81549073ffffffffffffffffffffffffffffffffffffffff02191690556006820160146101000a81549060ff02191690556007820160006101000a81549073ffffffffffffffffffffffffffffffffffffffff02191690556008820160006101000a81549073ffffffffffffffffffffffffffffffffffffffff0219169055505090555050505050565b6000821180156200161157506001548211155b62001653576040517f08c379a00000000000000000000000000000000000000000000000000000000081526004016200164a9062003c71565b60405180910390fd5b60008060008373ffffffffffffffffffffffffffffffffffffffff1673ffffffffffffffffffffffffffffffffffffffff168152602001908152602001600020905060008080600090505b8380549050811015620016f55785848281548110620016c257620016c162003c93565b5b90600052602060002090600902016000015403620016e75760019250809150620016f5565b80806001019150506200169e565b508162001739576040517f08c379a0000000000000000000000000000000000000000000000000000000008152600401620017309062004185565b60405180910390fd5b8281815481106200174f576200174e62003c93565b5b906000526020600020906009020160060160149054906101000a900460ff1615620017b1576040517f08c379a0000000000000000000000000000000000000000000000000000000008152600401620017a89062003d12565b60405180910390fd5b8373ffffffffffffffffffffffffffffffffffffffff16838281548110620017de57620017dd62003c93565b5b906000526020600020906009020160080160009054906101000a900473ffffffffffffffffffffffffffffffffffffffff1673ffffffffffffffffffffffffffffffffffffffff161462001869576040517f08c379a0000000000000000000000000000000000000000000000000000000008152600401620018609062004535565b60405180910390fd5b8281815481106200187f576200187e62003c93565b5b9060005260206000209060090201600301543414620018d5576040517f08c379a0000000000000000000000000000000000000000000000000000000008152600401620018cc90620045cd565b60405180910390fd5b6000343386604051620018e890620033dd565b620018f592919062004625565b6040518091039082f090508015801562001913573d6000803e3d6000fd5b509050338483815481106200192d576200192c62003c93565b5b906000526020600020906009020160060160006101000a81548173ffffffffffffffffffffffffffffffffffffffff021916908373ffffffffffffffffffffffffffffffffffffffff160217905550600184838154811062001994576200199362003c93565b5b906000526020600020906009020160060160146101000a81548160ff02191690831515021790555080848381548110620019d357620019d262003c93565b5b906000526020600020906009020160070160006101000a81548173ffffffffffffffffffffffffffffffffffffffff021916908373ffffffffffffffffffffffffffffffffffffffff16021790555062001b1b6040518060400160405280601881526020017f4974656d207075726368617365643a202573206279202573000000000000000081525085848154811062001a725762001a7162003c93565b5b9060005260206000209060090201600101805462001a909062003d63565b80601f016020809104026020016040519081016040528092919081815260200182805462001abe9062003d63565b801562001b0f5780601f1062001ae35761010080835404028352916020019162001b0f565b820191906000526020600020905b81548152906001019060200180831162001af157829003601f168201915b50505050503362003212565b505050505050565b606060008060005b60028054905081101562001c765760008060006002848154811062001b555762001b5462003c93565b5b9060005260206000200160009054906101000a900473ffffffffffffffffffffffffffffffffffffffff1673ffffffffffffffffffffffffffffffffffffffff1673ffffffffffffffffffffffffffffffffffffffff168152602001908152602001600020905060005b818054905081101562001c66573373ffffffffffffffffffffffffffffffffffffffff1682828154811062001bf95762001bf862003c93565b5b906000526020600020906009020160060160009054906101000a900473ffffffffffffffffffffffffffffffffffffffff1673ffffffffffffffffffffffffffffffffffffffff160362001c5857848062001c5490620040e8565b9550505b808060010191505062001bbf565b5050808060010191505062001b2b565b5060008267ffffffffffffffff81111562001c965762001c9562003480565b5b60405190808252806020026020018201604052801562001cd357816020015b62001cbf62003300565b81526020019060019003908162001cb55790505b50905060005b6002805490508110156200217e5760008060006002848154811062001d035762001d0262003c93565b5b9060005260206000200160009054906101000a900473ffffffffffffffffffffffffffffffffffffffff1673ffffffffffffffffffffffffffffffffffffffff1673ffffffffffffffffffffffffffffffffffffffff168152602001908152602001600020905060005b81805490508110156200216e573373ffffffffffffffffffffffffffffffffffffffff1682828154811062001da75762001da662003c93565b5b906000526020600020906009020160060160009054906101000a900473ffffffffffffffffffffffffffffffffffffffff1673ffffffffffffffffffffffffffffffffffffffff1603620021605781818154811062001e0b5762001e0a62003c93565b5b9060005260206000209060090201604051806101400160405290816000820154815260200160018201805462001e419062003d63565b80601f016020809104026020016040519081016040528092919081815260200182805462001e6f9062003d63565b801562001ec05780601f1062001e945761010080835404028352916020019162001ec0565b820191906000526020600020905b81548152906001019060200180831162001ea257829003601f168201915b5050505050815260200160028201805462001edb9062003d63565b80601f016020809104026020016040519081016040528092919081815260200182805462001f099062003d63565b801562001f5a5780601f1062001f2e5761010080835404028352916020019162001f5a565b820191906000526020600020905b81548152906001019060200180831162001f3c57829003601f168201915b505050505081526020016003820154815260200160048201805462001f7f9062003d63565b80601f016020809104026020016040519081016040528092919081815260200182805462001fad9062003d63565b801562001ffe5780601f1062001fd25761010080835404028352916020019162001ffe565b820191906000526020600020905b81548152906001019060200180831162001fe057829003601f168201915b50505050508152602001600582015481526020016006820160009054906101000a900473ffffffffffffffffffffffffffffffffffffffff1673ffffffffffffffffffffffffffffffffffffffff1673ffffffffffffffffffffffffffffffffffffffff1681526020016006820160149054906101000a900460ff161515151581526020016007820160009054906101000a900473ffffffffffffffffffffffffffffffffffffffff1673ffffffffffffffffffffffffffffffffffffffff1673ffffffffffffffffffffffffffffffffffffffff1681526020016008820160009054906101000a900473ffffffffffffffffffffffffffffffffffffffff1673ffffffffffffffffffffffffffffffffffffffff1673ffffffffffffffffffffffffffffffffffffffff168152505084868151811062002144576200214362003c93565b5b602002602001018190525084806200215c90620040e8565b9550505b808060010191505062001d6d565b5050808060010191505062001cd9565b5080935050505090565b60008060008373ffffffffffffffffffffffffffffffffffffffff1673ffffffffffffffffffffffffffffffffffffffff168152602001908152602001600020905060008080600090505b83805490508110156200222a5785848281548110620021f757620021f662003c93565b5b906000526020600020906009020160000154036200221c57600192508091506200222a565b8080600101915050620021d3565b50816200226e576040517f08c379a0000000000000000000000000000000000000000000000000000000008152600401620022659062004185565b60405180910390fd5b82818154811062002284576200228362003c93565b5b906000526020600020906009020160060160149054906101000a900460ff16620022e5576040517f08c379a0000000000000000000000000000000000000000000000000000000008152600401620022dc90620041f7565b60405180910390fd5b3373ffffffffffffffffffffffffffffffffffffffff1683828154811062002312576200231162003c93565b5b906000526020600020906009020160060160009054906101000a900473ffffffffffffffffffffffffffffffffffffffff1673ffffffffffffffffffffffffffffffffffffffff16146200239d576040517f08c379a00000000000000000000000000000000000000000000000000000000081526004016200239490620046c8565b60405180910390fd5b610384838281548110620023b657620023b562003c93565b5b906000526020600020906009020160050154620023d49190620046ea565b42111562002419576040517f08c379a0000000000000000000000000000000000000000000000000000000008152600401620024109062004775565b60405180910390fd5b600083828154811062002431576200243062003c93565b5b906000526020600020906009020160060160146101000a81548160ff021916908315150217905550600083828154811062002471576200247062003c93565b5b906000526020600020906009020160060160006101000a81548173ffffffffffffffffffffffffffffffffffffffff021916908373ffffffffffffffffffffffffffffffffffffffff160217905550828181548110620024d657620024d562003c93565b5b906000526020600020906009020160070160009054906101000a900473ffffffffffffffffffffffffffffffffffffffff1673ffffffffffffffffffffffffffffffffffffffff1663be6cb8386040518163ffffffff1660e01b8152600401600060405180830381600087803b1580156200255057600080fd5b505af115801562002565573d6000803e3d6000fd5b50505050600083828154811062002581576200258062003c93565b5b906000526020600020906009020160070160006101000a81548173ffffffffffffffffffffffffffffffffffffffff021916908373ffffffffffffffffffffffffffffffffffffffff160217905550620026c96040518060400160405280601881526020017f4f726465722063616e63656c65643a202573206279202573000000000000000081525084838154811062002620576200261f62003c93565b5b906000526020600020906009020160010180546200263e9062003d63565b80601f01602080910402602001604051908101604052809291908181526020018280546200266c9062003d63565b8015620026bd5780601f106200269157610100808354040283529160200191620026bd565b820191906000526020600020905b8154815290600101906020018083116200269f57829003601f168201915b50505050503362003212565b5050505050565b60606000803373ffffffffffffffffffffffffffffffffffffffff1673ffffffffffffffffffffffffffffffffffffffff168152602001908152602001600020805480602002602001604051908101604052809291908181526020016000905b8282101562002a6e57838290600052602060002090600902016040518061014001604052908160008201548152602001600182018054620027719062003d63565b80601f01602080910402602001604051908101604052809291908181526020018280546200279f9062003d63565b8015620027f05780601f10620027c457610100808354040283529160200191620027f0565b820191906000526020600020905b815481529060010190602001808311620027d257829003601f168201915b505050505081526020016002820180546200280b9062003d63565b80601f0160208091040260200160405190810160405280929190818152602001828054620028399062003d63565b80156200288a5780601f106200285e576101008083540402835291602001916200288a565b820191906000526020600020905b8154815290600101906020018083116200286c57829003601f168201915b5050505050815260200160038201548152602001600482018054620028af9062003d63565b80601f0160208091040260200160405190810160405280929190818152602001828054620028dd9062003d63565b80156200292e5780601f1062002902576101008083540402835291602001916200292e565b820191906000526020600020905b8154815290600101906020018083116200291057829003601f168201915b50505050508152602001600582015481526020016006820160009054906101000a900473ffffffffffffffffffffffffffffffffffffffff1673ffffffffffffffffffffffffffffffffffffffff1673ffffffffffffffffffffffffffffffffffffffff1681526020016006820160149054906101000a900460ff161515151581526020016007820160009054906101000a900473ffffffffffffffffffffffffffffffffffffffff1673ffffffffffffffffffffffffffffffffffffffff1673ffffffffffffffffffffffffffffffffffffffff1681526020016008820160009054906101000a900473ffffffffffffffffffffffffffffffffffffffff1673ffffffffffffffffffffffffffffffffffffffff1673ffffffffffffffffffffffffffffffffffffffff16815250508152602001906001019062002730565b50505050905090565b606060008060005b60028054905081101562002ba3573373ffffffffffffffffffffffffffffffffffffffff166002828154811062002abb5762002aba62003c93565b5b9060005260206000200160009054906101000a900473ffffffffffffffffffffffffffffffffffffffff1673ffffffffffffffffffffffffffffffffffffffff161462002b95576000806002838154811062002b1c5762002b1b62003c93565b5b9060005260206000200160009054906101000a900473ffffffffffffffffffffffffffffffffffffffff1673ffffffffffffffffffffffffffffffffffffffff1673ffffffffffffffffffffffffffffffffffffffff168152602001908152602001600020805490508362002b929190620046ea565b92505b808060010191505062002a7f565b5060008267ffffffffffffffff81111562002bc35762002bc262003480565b5b60405190808252806020026020018201604052801562002c0057816020015b62002bec62003300565b81526020019060019003908162002be25790505b50905060005b600280549050811015620030e0573373ffffffffffffffffffffffffffffffffffffffff166002828154811062002c425762002c4162003c93565b5b9060005260206000200160009054906101000a900473ffffffffffffffffffffffffffffffffffffffff1673ffffffffffffffffffffffffffffffffffffffff1614620030d25760008060006002848154811062002ca55762002ca462003c93565b5b9060005260206000200160009054906101000a900473ffffffffffffffffffffffffffffffffffffffff1673ffffffffffffffffffffffffffffffffffffffff1673ffffffffffffffffffffffffffffffffffffffff168152602001908152602001600020905060005b8180549050811015620030cf5781818154811062002d325762002d3162003c93565b5b906000526020600020906009020160060160149054906101000a900460ff16620030c15781818154811062002d6c5762002d6b62003c93565b5b9060005260206000209060090201604051806101400160405290816000820154815260200160018201805462002da29062003d63565b80601f016020809104026020016040519081016040528092919081815260200182805462002dd09062003d63565b801562002e215780601f1062002df55761010080835404028352916020019162002e21565b820191906000526020600020905b81548152906001019060200180831162002e0357829003601f168201915b5050505050815260200160028201805462002e3c9062003d63565b80601f016020809104026020016040519081016040528092919081815260200182805462002e6a9062003d63565b801562002ebb5780601f1062002e8f5761010080835404028352916020019162002ebb565b820191906000526020600020905b81548152906001019060200180831162002e9d57829003601f168201915b505050505081526020016003820154815260200160048201805462002ee09062003d63565b80601f016020809104026020016040519081016040528092919081815260200182805462002f0e9062003d63565b801562002f5f5780601f1062002f335761010080835404028352916020019162002f5f565b820191906000526020600020905b81548152906001019060200180831162002f4157829003601f168201915b50505050508152602001600582015481526020016006820160009054906101000a900473ffffffffffffffffffffffffffffffffffffffff1673ffffffffffffffffffffffffffffffffffffffff1673ffffffffffffffffffffffffffffffffffffffff1681526020016006820160149054906101000a900460ff161515151581526020016007820160009054906101000a900473ffffffffffffffffffffffffffffffffffffffff1673ffffffffffffffffffffffffffffffffffffffff1673ffffffffffffffffffffffffffffffffffffffff1681526020016008820160009054906101000a900473ffffffffffffffffffffffffffffffffffffffff1673ffffffffffffffffffffffffffffffffffffffff1673ffffffffffffffffffffffffffffffffffffffff1681525050848681518110620030a557620030a462003c93565b5b60200260200101819052508480620030bd90620040e8565b9550505b808060010191505062002d0f565b50505b808060010191505062002c06565b50620031226040518060400160405280600d81526020017f546f74616c204974656d733a20000000000000000000000000000000000000008152508462003172565b620031636040518060400160405280600f81526020017f43757272656e7420496e6465783a2000000000000000000000000000000000008152508362003172565b80935050505090565b60015481565b6200320e82826040516024016200318b92919062004797565b6040516020818303038152906040527fb60e72cc000000000000000000000000000000000000000000000000000000007bffffffffffffffffffffffffffffffffffffffffffffffffffffffff19166020820180517bffffffffffffffffffffffffffffffffffffffffffffffffffffffff8381831617835250505050620032b5565b5050565b620032b08383836040516024016200322d93929190620047cb565b6040516020818303038152906040527f95ed0195000000000000000000000000000000000000000000000000000000007bffffffffffffffffffffffffffffffffffffffffffffffffffffffff19166020820180517bffffffffffffffffffffffffffffffffffffffffffffffffffffffff8381831617835250505050620032b5565b505050565b620032d081620032c8620032d3620032f4565b63ffffffff16565b50565b60006a636f6e736f6c652e6c6f679050600080835160208501845afa505050565b620033eb819050919050565b604051806101400160405280600081526020016060815260200160608152602001600081526020016060815260200160008152602001600073ffffffffffffffffffffffffffffffffffffffff168152602001600015158152602001600073ffffffffffffffffffffffffffffffffffffffff168152602001600073ffffffffffffffffffffffffffffffffffffffff1681525090565b508054620033a59062003d63565b6000825580601f10620033b95750620033da565b601f016020900490600052602060002090810190620033d99190620033f7565b5b50565b612582806200484683390190565b620033f562004816565b565b5b8082111562003412576000816000905550600101620033f8565b5090565b6000604051905090565b600080fd5b600080fd5b6000819050919050565b6200343f816200342a565b81146200344b57600080fd5b50565b6000813590506200345f8162003434565b92915050565b600080fd5b600080fd5b6000601f19601f8301169050919050565b7f4e487b7100000000000000000000000000000000000000000000000000000000600052604160045260246000fd5b620034ba826200346f565b810181811067ffffffffffffffff82111715620034dc57620034db62003480565b5b80604052505050565b6000620034f162003416565b9050620034ff8282620034af565b919050565b600067ffffffffffffffff82111562003522576200352162003480565b5b6200352d826200346f565b9050602081019050919050565b82818337600083830152505050565b6000620035606200355a8462003504565b620034e5565b9050828152602081018484840111156200357f576200357e6200346a565b5b6200358c8482856200353a565b509392505050565b600082601f830112620035ac57620035ab62003465565b5b8135620035be84826020860162003549565b91505092915050565b600080600080600060a08688031215620035e657620035e562003420565b5b6000620035f6888289016200344e565b955050602086013567ffffffffffffffff8111156200361a576200361962003425565b5b620036288882890162003594565b945050604086013567ffffffffffffffff8111156200364c576200364b62003425565b5b6200365a8882890162003594565b93505060606200366d888289016200344e565b925050608086013567ffffffffffffffff81111562003691576200369062003425565b5b6200369f8882890162003594565b9150509295509295909350565b60008060008060808587031215620036c957620036c862003420565b5b600085013567ffffffffffffffff811115620036ea57620036e962003425565b5b620036f88782880162003594565b945050602085013567ffffffffffffffff8111156200371c576200371b62003425565b5b6200372a8782880162003594565b93505060406200373d878288016200344e565b925050606085013567ffffffffffffffff81111562003761576200376062003425565b5b6200376f8782880162003594565b91505092959194509250565b600081519050919050565b600082825260208201905092915050565b6000819050602082019050919050565b620037b2816200342a565b82525050565b600081519050919050565b600082825260208201905092915050565b60005b83811015620037f4578082015181840152602081019050620037d7565b60008484015250505050565b60006200380d82620037b8565b620038198185620037c3565b93506200382b818560208601620037d4565b62003836816200346f565b840191505092915050565b600073ffffffffffffffffffffffffffffffffffffffff82169050919050565b60006200386e8262003841565b9050919050565b620038808162003861565b82525050565b60008115159050919050565b6200389d8162003886565b82525050565b6000819050919050565b6000620038ce620038c8620038c28462003841565b620038a3565b62003841565b9050919050565b6000620038e282620038ad565b9050919050565b6000620038f682620038d5565b9050919050565b6200390881620038e9565b82525050565b600061014083016000830151620039296000860182620037a7565b506020830151848203602086015262003943828262003800565b915050604083015184820360408601526200395f828262003800565b9150506060830151620039766060860182620037a7565b506080830151848203608086015262003990828262003800565b91505060a0830151620039a760a0860182620037a7565b5060c0830151620039bc60c086018262003875565b5060e0830151620039d160e086018262003892565b50610100830151620039e8610100860182620038fd565b50610120830151620039ff61012086018262003875565b508091505092915050565b600062003a1883836200390e565b905092915050565b6000602082019050919050565b600062003a3a826200377b565b62003a46818562003786565b93508360208202850162003a5a8562003797565b8060005b8581101562003a9c578484038952815162003a7a858262003a0a565b945062003a878362003a20565b925060208a0199505060018101905062003a5e565b50829750879550505050505092915050565b6000602082019050818103600083015262003aca818462003a2d565b905092915050565b6000806040838503121562003aec5762003aeb62003420565b5b600062003afc858286016200344e565b925050602083013567ffffffffffffffff81111562003b205762003b1f62003425565b5b62003b2e8582860162003594565b9150509250929050565b60006020828403121562003b515762003b5062003420565b5b600062003b61848285016200344e565b91505092915050565b62003b758162003861565b811462003b8157600080fd5b50565b60008135905062003b958162003b6a565b92915050565b6000806040838503121562003bb55762003bb462003420565b5b600062003bc5858286016200344e565b925050602062003bd88582860162003b84565b9150509250929050565b62003bed816200342a565b82525050565b600060208201905062003c0a600083018462003be2565b92915050565b600082825260208201905092915050565b7f496e76616c6964206974656d2049440000000000000000000000000000000000600082015250565b600062003c59600f8362003c10565b915062003c668262003c21565b602082019050919050565b6000602082019050818103600083015262003c8c8162003c4a565b9050919050565b7f4e487b7100000000000000000000000000000000000000000000000000000000600052603260045260246000fd5b7f4974656d20616c726561647920736f6c64000000000000000000000000000000600082015250565b600062003cfa60118362003c10565b915062003d078262003cc2565b602082019050919050565b6000602082019050818103600083015262003d2d8162003ceb565b9050919050565b7f4e487b7100000000000000000000000000000000000000000000000000000000600052602260045260246000fd5b6000600282049050600182168062003d7c57607f821691505b60208210810362003d925762003d9162003d34565b5b50919050565b60008190508160005260206000209050919050565b60006020601f8301049050919050565b600082821b905092915050565b60006008830262003dfc7fffffffffffffffffffffffffffffffffffffffffffffffffffffffffffffffff8262003dbd565b62003e08868362003dbd565b95508019841693508086168417925050509392505050565b600062003e4162003e3b62003e35846200342a565b620038a3565b6200342a565b9050919050565b6000819050919050565b62003e5d8362003e20565b62003e7562003e6c8262003e48565b84845462003dca565b825550505050565b600090565b62003e8c62003e7d565b62003e9981848462003e52565b505050565b5b8181101562003ec15762003eb560008262003e82565b60018101905062003e9f565b5050565b601f82111562003f105762003eda8162003d98565b62003ee58462003dad565b8101602085101562003ef5578190505b62003f0d62003f048562003dad565b83018262003e9e565b50505b505050565b600082821c905092915050565b600062003f356000198460080262003f15565b1980831691505092915050565b600062003f50838362003f22565b9150826002028217905092915050565b62003f6b82620037b8565b67ffffffffffffffff81111562003f875762003f8662003480565b5b62003f93825462003d63565b62003fa082828562003ec5565b600060209050601f83116001811462003fd8576000841562003fc3578287015190505b62003fcf858262003f42565b8655506200403f565b601f19841662003fe88662003d98565b60005b82811015620040125784890151825560018201915060208501945060208101905062003feb565b868310156200403257848901516200402e601f89168262003f22565b8355505b6001600288020188555050505b505050505050565b7f4974656d20646f6573206e6f742062656c6f6e6720746f2073656e6465720000600082015250565b60006200407f601e8362003c10565b91506200408c8262004047565b602082019050919050565b60006020820190508181036000830152620040b28162004070565b9050919050565b7f4e487b7100000000000000000000000000000000000000000000000000000000600052601160045260246000fd5b6000620040f5826200342a565b91507fffffffffffffffffffffffffffffffffffffffffffffffffffffffffffffffff82036200412a5762004129620040b9565b5b600182019050919050565b7f4974656d206e6f7420666f756e64000000000000000000000000000000000000600082015250565b60006200416d600e8362003c10565b91506200417a8262004135565b602082019050919050565b60006020820190508181036000830152620041a0816200415e565b9050919050565b7f4974656d20686173206e6f74206265656e207075726368617365640000000000600082015250565b6000620041df601b8362003c10565b9150620041ec82620041a7565b602082019050919050565b600060208201905081810360008301526200421281620041d0565b9050919050565b7f4f6e6c792073656c6c65722063616e20736869702074686973206974656d0000600082015250565b600062004251601e8362003c10565b91506200425e8262004219565b602082019050919050565b60006020820190508181036000830152620042848162004242565b9050919050565b60006200429882620037b8565b620042a4818562003c10565b9350620042b6818560208601620037d4565b620042c1816200346f565b840191505092915050565b60006020820190508181036000830152620042e881846200428b565b905092915050565b7f4974656d20646f6573206e6f7420657869737400000000000000000000000000600082015250565b60006200432860138362003c10565b91506200433582620042f0565b602082019050919050565b600060208201905081810360008301526200435b8162004319565b9050919050565b60006200436f826200342a565b91506200437c836200342a565b9250828203905081811115620043975762004396620040b9565b5b92915050565b600081549050620043ae8162003d63565b9050919050565b818103620043c5575050620044b4565b620043d0826200439d565b67ffffffffffffffff811115620043ec57620043eb62003480565b5b620043f8825462003d63565b6200440582828562003ec5565b6000601f83116001811462004439576000841562004424578287015490505b62004430858262003f42565b865550620044ad565b601f198416620044498762003d98565b9650620044568662003d98565b60005b82811015620044805784890154825560018201915060018501945060208101905062004459565b86831015620044a057848901546200449c601f89168262003f22565b8355505b6001600288020188555050505b5050505050505b565b7f4e487b7100000000000000000000000000000000000000000000000000000000600052603160045260246000fd5b7f4f776e65722063616e206e6f742062757920746865206974656d2e0000000000600082015250565b60006200451d601b8362003c10565b91506200452a82620044e5565b602082019050919050565b6000602082019050818103600083015262004550816200450e565b9050919050565b7f496e636f727265637420616d6f756e74206f662065746865722f77656920736560008201527f6e742e0000000000000000000000000000000000000000000000000000000000602082015250565b6000620045b560238362003c10565b9150620045c28262004557565b604082019050919050565b60006020820190508181036000830152620045e881620045a6565b9050919050565b620045fa8162003861565b82525050565b60006200460d8262003841565b9050919050565b6200461f8162004600565b82525050565b60006040820190506200463c6000830185620045ef565b6200464b602083018462004614565b9392505050565b7f4f6e6c79207468652062757965722063616e2063616e63656c20746865206f7260008201527f6465720000000000000000000000000000000000000000000000000000000000602082015250565b6000620046b060238362003c10565b9150620046bd8262004652565b604082019050919050565b60006020820190508181036000830152620046e381620046a1565b9050919050565b6000620046f7826200342a565b915062004704836200342a565b92508282019050808211156200471f576200471e620040b9565b5b92915050565b7f43616e63656c6c6174696f6e20706572696f6420686173206578706972656400600082015250565b60006200475d601f8362003c10565b91506200476a8262004725565b602082019050919050565b6000602082019050818103600083015262004790816200474e565b9050919050565b60006040820190508181036000830152620047b381856200428b565b9050620047c4602083018462003be2565b9392505050565b60006060820190508181036000830152620047e781866200428b565b90508181036020830152620047fd81856200428b565b90506200480e6040830184620045ef565b949350505050565b7f4e487b7100000000000000000000000000000000000000000000000000000000600052605160045260246000fdfe6080604052604051620025823803806200258283398181016040528101906200002991906200026f565b816001806101000a81548173ffffffffffffffffffffffffffffffffffffffff021916908373ffffffffffffffffffffffffffffffffffffffff16021790555080600260006101000a81548173ffffffffffffffffffffffffffffffffffffffff021916908373ffffffffffffffffffffffffffffffffffffffff160217905550736a7d3230514ee0e8078f23cf65b367d9984b055a600360006101000a81548173ffffffffffffffffffffffffffffffffffffffff021916908373ffffffffffffffffffffffffffffffffffffffff1602179055506000600160006101000a81548160ff02191690836004811115620001285762000127620002b6565b5b02179055506000600560006101000a81548160ff02191690831515021790555042600081905550600480600181540180825580915050600190039060005260206000200160006040518060400160405280600c81526020017f4974656d20626f756768742e000000000000000000000000000000000000000081525090919091509081620001b791906200055f565b50505062000646565b600080fd5b600073ffffffffffffffffffffffffffffffffffffffff82169050919050565b6000620001f282620001c5565b9050919050565b6200020481620001e5565b81146200021057600080fd5b50565b6000815190506200022481620001f9565b92915050565b60006200023782620001c5565b9050919050565b62000249816200022a565b81146200025557600080fd5b50565b60008151905062000269816200023e565b92915050565b60008060408385031215620002895762000288620001c0565b5b6000620002998582860162000213565b9250506020620002ac8582860162000258565b9150509250929050565b7f4e487b7100000000000000000000000000000000000000000000000000000000600052602160045260246000fd5b600081519050919050565b7f4e487b7100000000000000000000000000000000000000000000000000000000600052604160045260246000fd5b7f4e487b7100000000000000000000000000000000000000000000000000000000600052602260045260246000fd5b600060028204905060018216806200036757607f821691505b6020821081036200037d576200037c6200031f565b5b50919050565b60008190508160005260206000209050919050565b60006020601f8301049050919050565b600082821b905092915050565b600060088302620003e77fffffffffffffffffffffffffffffffffffffffffffffffffffffffffffffffff82620003a8565b620003f38683620003a8565b95508019841693508086168417925050509392505050565b6000819050919050565b6000819050919050565b6000620004406200043a62000434846200040b565b62000415565b6200040b565b9050919050565b6000819050919050565b6200045c836200041f565b620004746200046b8262000447565b848454620003b5565b825550505050565b600090565b6200048b6200047c565b6200049881848462000451565b505050565b5b81811015620004c057620004b460008262000481565b6001810190506200049e565b5050565b601f8211156200050f57620004d98162000383565b620004e48462000398565b81016020851015620004f4578190505b6200050c620005038562000398565b8301826200049d565b50505b505050565b600082821c905092915050565b6000620005346000198460080262000514565b1980831691505092915050565b60006200054f838362000521565b9150826002028217905092915050565b6200056a82620002e5565b67ffffffffffffffff811115620005865762000585620002f0565b5b6200059282546200034e565b6200059f828285620004c4565b600060209050601f831160018114620005d75760008415620005c2578287015190505b620005ce858262000541565b8655506200063e565b601f198416620005e78662000383565b60005b828110156200061157848901518255600182019150602085019450602081019050620005ea565b868310156200063157848901516200062d601f89168262000521565b8355505b6001600288020188555050505b505050505050565b611f2c80620006566000396000f3fe608060405234801561001057600080fd5b50600436106100ea5760003560e01c80638285074b1161008c578063be6cb83811610066578063be6cb83814610214578063c00ccd541461021e578063dd3fa1361461023a578063eaaf0b6314610256576100ea565b80638285074b146101be57806389e1e82a146101da578063afe01043146101f6576100ea565b80635e10177b116100c85780635e10177b1461014a57806364e6aa52146101545780637150d8ae146101845780637388a1ed146101a2576100ea565b806308551a53146100ef5780631865c57d1461010d5780635b0222bb1461012c575b600080fd5b6100f7610274565b60405161010491906111aa565b60405180910390f35b61011561029a565b6040516101239291906112cc565b60405180910390f35b610134610344565b6040516101419190611315565b60405180910390f35b61015261034a565b005b61016e60048036038101906101699190611370565b61054b565b60405161017b919061139d565b60405180910390f35b61018c6105f7565b60405161019991906113e0565b60405180910390f35b6101bc60048036038101906101b79190611530565b61061b565b005b6101d860048036038101906101d39190611530565b6107c4565b005b6101f460048036038101906101ef91906115b1565b610925565b005b6101fe610c03565b60405161020b91906115de565b60405180910390f35b61021c610c16565b005b61023860048036038101906102339190611530565b610cf5565b005b610254600480360381019061024f9190611530565b610ee6565b005b61025e611090565b60405161026b9190611705565b60405180910390f35b600260009054906101000a900473ffffffffffffffffffffffffffffffffffffffff1681565b60006060600160009054906101000a900460ff1660088080546102bc90611756565b80601f01602080910402602001604051908101604052809291908181526020018280546102e890611756565b80156103355780601f1061030a57610100808354040283529160200191610335565b820191906000526020600020905b81548152906001019060200180831161031857829003601f168201915b50505050509050915091509091565b60005481565b60018054906101000a900473ffffffffffffffffffffffffffffffffffffffff1673ffffffffffffffffffffffffffffffffffffffff163373ffffffffffffffffffffffffffffffffffffffff16146103d8576040517f08c379a00000000000000000000000000000000000000000000000000000000081526004016103cf906117d3565b60405180910390fd5b600160048111156103ec576103eb6111c5565b5b600160009054906101000a900460ff16600481111561040e5761040d6111c5565b5b1461044e576040517f08c379a00000000000000000000000000000000000000000000000000000000081526004016104459061183f565b60405180910390fd5b600260009054906101000a900473ffffffffffffffffffffffffffffffffffffffff1673ffffffffffffffffffffffffffffffffffffffff166108fc479081150290604051600060405180830381858888f193505050501580156104b6573d6000803e3d6000fd5b506002600160006101000a81548160ff021916908360048111156104dd576104dc6111c5565b5b0217905550600480600181540180825580915050600190039060005260206000200160006040518060400160405280601b81526020017f4974656d207265636965766564206279207468652062757965722e0000000000815250909190915090816105489190611a0b565b50565b6004818154811061055b57600080fd5b90600052602060002001600091509050805461057690611756565b80601f01602080910402602001604051908101604052809291908181526020018280546105a290611756565b80156105ef5780601f106105c4576101008083540402835291602001916105ef565b820191906000526020600020905b8154815290600101906020018083116105d257829003601f168201915b505050505081565b60018054906101000a900473ffffffffffffffffffffffffffffffffffffffff1681565b60018054906101000a900473ffffffffffffffffffffffffffffffffffffffff1673ffffffffffffffffffffffffffffffffffffffff163373ffffffffffffffffffffffffffffffffffffffff16146106a9576040517f08c379a00000000000000000000000000000000000000000000000000000000081526004016106a0906117d3565b60405180910390fd5b600160048111156106bd576106bc6111c5565b5b600160009054906101000a900460ff1660048111156106df576106de6111c5565b5b1461071f576040517f08c379a000000000000000000000000000000000000000000000000000000000815260040161071690611b4f565b60405180910390fd5b6003600160006101000a81548160ff02191690836004811115610745576107446111c5565b5b021790555080600790816107599190611a0b565b50600480600181540180825580915050600190039060005260206000200160006040518060400160405280601881526020017f44697370757465206f70656e65642062792062757965722e0000000000000000815250909190915090816107c09190611a0b565b5050565b60018054906101000a900473ffffffffffffffffffffffffffffffffffffffff1673ffffffffffffffffffffffffffffffffffffffff163373ffffffffffffffffffffffffffffffffffffffff1614610852576040517f08c379a0000000000000000000000000000000000000000000000000000000008152600401610849906117d3565b60405180910390fd5b60036004811115610866576108656111c5565b5b600160009054906101000a900460ff166004811115610888576108876111c5565b5b146108c8576040517f08c379a00000000000000000000000000000000000000000000000000000000081526004016108bf90611be1565b60405180910390fd5b80600790816108d79190611a0b565b5060048060018154018082558091505060019003906000526020600020016000604051806060016040528060218152602001611ed660219139909190915090816109219190611a0b565b5050565b600360009054906101000a900473ffffffffffffffffffffffffffffffffffffffff1673ffffffffffffffffffffffffffffffffffffffff163373ffffffffffffffffffffffffffffffffffffffff16146109b5576040517f08c379a00000000000000000000000000000000000000000000000000000000081526004016109ac90611c73565b60405180910390fd5b600360048111156109c9576109c86111c5565b5b600160009054906101000a900460ff1660048111156109eb576109ea6111c5565b5b14610a2b576040517f08c379a0000000000000000000000000000000000000000000000000000000008152600401610a2290611cdf565b60405180910390fd5b8015610b0457600480600181540180825580915050600190039060005260206000200160006040518060400160405280601381526020017f42757965722077617320726566756e6465642e0000000000000000000000000081525090919091509081610a979190611a0b565b5060018054906101000a900473ffffffffffffffffffffffffffffffffffffffff1673ffffffffffffffffffffffffffffffffffffffff166108fc479081150290604051600060405180830381858888f19350505050158015610afe573d6000803e3d6000fd5b50610bd5565b600480600181540180825580915050600190039060005260206000200160006040518060400160405280601481526020017f53656c6c65722077617320726566756e6465642e00000000000000000000000081525090919091509081610b6a9190611a0b565b50600260009054906101000a900473ffffffffffffffffffffffffffffffffffffffff1673ffffffffffffffffffffffffffffffffffffffff166108fc479081150290604051600060405180830381858888f19350505050158015610bd3573d6000803e3d6000fd5b505b6004600160006101000a81548160ff02191690836004811115610bfb57610bfa6111c5565b5b021790555050565b600160009054906101000a900460ff1681565b60006004811115610c2a57610c296111c5565b5b600160009054906101000a900460ff166004811115610c4c57610c4b6111c5565b5b14610c8c576040517f08c379a0000000000000000000000000000000000000000000000000000000008152600401610c8390611d4b565b60405180910390fd5b60018054906101000a900473ffffffffffffffffffffffffffffffffffffffff1673ffffffffffffffffffffffffffffffffffffffff166108fc479081150290604051600060405180830381858888f19350505050158015610cf2573d6000803e3d6000fd5b50565b600260009054906101000a900473ffffffffffffffffffffffffffffffffffffffff1673ffffffffffffffffffffffffffffffffffffffff163373ffffffffffffffffffffffffffffffffffffffff1614610d85576040517f08c379a0000000000000000000000000000000000000000000000000000000008152600401610d7c90611db7565b60405180910390fd5b60036004811115610d9957610d986111c5565b5b600160009054906101000a900460ff166004811115610dbb57610dba6111c5565b5b14610dfb576040517f08c379a0000000000000000000000000000000000000000000000000000000008152600401610df290611be1565b60405180910390fd5b60001515600560009054906101000a900460ff16151514610e51576040517f08c379a0000000000000000000000000000000000000000000000000000000008152600401610e4890611e49565b60405180910390fd5b6001600560006101000a81548160ff0219169083151502179055508060069081610e7b9190611a0b565b50600480600181540180825580915050600190039060005260206000200160006040518060400160405280601781526020017f53656c6c6572207375626d69747465642070726f6f662e00000000000000000081525090919091509081610ee29190611a0b565b5050565b600260009054906101000a900473ffffffffffffffffffffffffffffffffffffffff1673ffffffffffffffffffffffffffffffffffffffff163373ffffffffffffffffffffffffffffffffffffffff1614610f76576040517f08c379a0000000000000000000000000000000000000000000000000000000008152600401610f6d90611db7565b60405180910390fd5b60006004811115610f8a57610f896111c5565b5b600160009054906101000a900460ff166004811115610fac57610fab6111c5565b5b14610fec576040517f08c379a0000000000000000000000000000000000000000000000000000000008152600401610fe390611eb5565b60405180910390fd5b60018060006101000a81548160ff02191690836004811115611011576110106111c5565b5b021790555080600890816110259190611a0b565b50600480600181540180825580915050600190039060005260206000200160006040518060400160405280601881526020017f4974656d2073656e74206279207468652073656c6c65722e00000000000000008152509091909150908161108c9190611a0b565b5050565b60606004805480602002602001604051908101604052809291908181526020016000905b828210156111605783829060005260206000200180546110d390611756565b80601f01602080910402602001604051908101604052809291908181526020018280546110ff90611756565b801561114c5780601f106111215761010080835404028352916020019161114c565b820191906000526020600020905b81548152906001019060200180831161112f57829003601f168201915b5050505050815260200190600101906110b4565b50505050905090565b600073ffffffffffffffffffffffffffffffffffffffff82169050919050565b600061119482611169565b9050919050565b6111a481611189565b82525050565b60006020820190506111bf600083018461119b565b92915050565b7f4e487b7100000000000000000000000000000000000000000000000000000000600052602160045260246000fd5b60058110611205576112046111c5565b5b50565b6000819050611216826111f4565b919050565b600061122682611208565b9050919050565b6112368161121b565b82525050565b600081519050919050565b600082825260208201905092915050565b60005b8381101561127657808201518184015260208101905061125b565b60008484015250505050565b6000601f19601f8301169050919050565b600061129e8261123c565b6112a88185611247565b93506112b8818560208601611258565b6112c181611282565b840191505092915050565b60006040820190506112e1600083018561122d565b81810360208301526112f38184611293565b90509392505050565b6000819050919050565b61130f816112fc565b82525050565b600060208201905061132a6000830184611306565b92915050565b6000604051905090565b600080fd5b600080fd5b61134d816112fc565b811461135857600080fd5b50565b60008135905061136a81611344565b92915050565b6000602082840312156113865761138561133a565b5b60006113948482850161135b565b91505092915050565b600060208201905081810360008301526113b78184611293565b905092915050565b60006113ca82611169565b9050919050565b6113da816113bf565b82525050565b60006020820190506113f560008301846113d1565b92915050565b600080fd5b600080fd5b7f4e487b7100000000000000000000000000000000000000000000000000000000600052604160045260246000fd5b61143d82611282565b810181811067ffffffffffffffff8211171561145c5761145b611405565b5b80604052505050565b600061146f611330565b905061147b8282611434565b919050565b600067ffffffffffffffff82111561149b5761149a611405565b5b6114a482611282565b9050602081019050919050565b82818337600083830152505050565b60006114d36114ce84611480565b611465565b9050828152602081018484840111156114ef576114ee611400565b5b6114fa8482856114b1565b509392505050565b600082601f830112611517576115166113fb565b5b81356115278482602086016114c0565b91505092915050565b6000602082840312156115465761154561133a565b5b600082013567ffffffffffffffff8111156115645761156361133f565b5b61157084828501611502565b91505092915050565b60008115159050919050565b61158e81611579565b811461159957600080fd5b50565b6000813590506115ab81611585565b92915050565b6000602082840312156115c7576115c661133a565b5b60006115d58482850161159c565b91505092915050565b60006020820190506115f3600083018461122d565b92915050565b600081519050919050565b600082825260208201905092915050565b6000819050602082019050919050565b600082825260208201905092915050565b60006116418261123c565b61164b8185611625565b935061165b818560208601611258565b61166481611282565b840191505092915050565b600061167b8383611636565b905092915050565b6000602082019050919050565b600061169b826115f9565b6116a58185611604565b9350836020820285016116b785611615565b8060005b858110156116f357848403895281516116d4858261166f565b94506116df83611683565b925060208a019950506001810190506116bb565b50829750879550505050505092915050565b6000602082019050818103600083015261171f8184611690565b905092915050565b7f4e487b7100000000000000000000000000000000000000000000000000000000600052602260045260246000fd5b6000600282049050600182168061176e57607f821691505b60208210810361178157611780611727565b5b50919050565b7f4f6e6c792062757965722063616e2063616c6c2074686973206d6574686f6400600082015250565b60006117bd601f83611247565b91506117c882611787565b602082019050919050565b600060208201905081810360008301526117ec816117b0565b9050919050565b7f43616e6e6f7420636f6e6669726d2064656c6976657279000000000000000000600082015250565b6000611829601783611247565b9150611834826117f3565b602082019050919050565b600060208201905081810360008301526118588161181c565b9050919050565b60008190508160005260206000209050919050565b60006020601f8301049050919050565b600082821b905092915050565b6000600883026118c17fffffffffffffffffffffffffffffffffffffffffffffffffffffffffffffffff82611884565b6118cb8683611884565b95508019841693508086168417925050509392505050565b6000819050919050565b60006119086119036118fe846112fc565b6118e3565b6112fc565b9050919050565b6000819050919050565b611922836118ed565b61193661192e8261190f565b848454611891565b825550505050565b600090565b61194b61193e565b611956818484611919565b505050565b5b8181101561197a5761196f600082611943565b60018101905061195c565b5050565b601f8211156119bf576119908161185f565b61199984611874565b810160208510156119a8578190505b6119bc6119b485611874565b83018261195b565b50505b505050565b600082821c905092915050565b60006119e2600019846008026119c4565b1980831691505092915050565b60006119fb83836119d1565b9150826002028217905092915050565b611a148261123c565b67ffffffffffffffff811115611a2d57611a2c611405565b5b611a378254611756565b611a4282828561197e565b600060209050601f831160018114611a755760008415611a63578287015190505b611a6d85826119ef565b865550611ad5565b601f198416611a838661185f565b60005b82811015611aab57848901518255600182019150602085019450602081019050611a86565b86831015611ac85784890151611ac4601f8916826119d1565b8355505b6001600288020188555050505b505050505050565b7f43616e6e6f74206f70656e20646973707574652061742074686973207374616760008201527f6500000000000000000000000000000000000000000000000000000000000000602082015250565b6000611b39602183611247565b9150611b4482611add565b604082019050919050565b60006020820190508181036000830152611b6881611b2c565b9050919050565b7f43616e6e6f74207375626d69742070726f6f6620776974686f757420616e206160008201527f637469766520646973707574652e000000000000000000000000000000000000602082015250565b6000611bcb602e83611247565b9150611bd682611b6f565b604082019050919050565b60006020820190508181036000830152611bfa81611bbe565b9050919050565b7f4f6e6c792061726269747261746f722063616e2063616c6c2074686973206d6560008201527f74686f6400000000000000000000000000000000000000000000000000000000602082015250565b6000611c5d602483611247565b9150611c6882611c01565b604082019050919050565b60006020820190508181036000830152611c8c81611c50565b9050919050565b7f4e6f206163746976652064697370757465000000000000000000000000000000600082015250565b6000611cc9601183611247565b9150611cd482611c93565b602082019050919050565b60006020820190508181036000830152611cf881611cbc565b9050919050565b7f4974656d20616c72656164792064656c6976657265642e000000000000000000600082015250565b6000611d35601783611247565b9150611d4082611cff565b602082019050919050565b60006020820190508181036000830152611d6481611d28565b9050919050565b7f4f6e6c792073656c6c65722063616e2063616c6c2074686973206d6574686f64600082015250565b6000611da1602083611247565b9150611dac82611d6b565b602082019050919050565b60006020820190508181036000830152611dd081611d94565b9050919050565b7f596f7527766520616c7265616479207375626d697474656420612070726f6f6660008201527f2e00000000000000000000000000000000000000000000000000000000000000602082015250565b6000611e33602183611247565b9150611e3e82611dd7565b604082019050919050565b60006020820190508181036000830152611e6281611e26565b9050919050565b7f43616e6e6f7420736869702e20496e636f7272656374207374617475732e0000600082015250565b6000611e9f601e83611247565b9150611eaa82611e69565b602082019050919050565b60006020820190508181036000830152611ece81611e92565b905091905056fe4275796572207375626d6974746564206164646974696f6e616c2070726f6f662ea2646970667358221220207b65559f4b74040ef5c936da212629e25ce76d975376c0b457a9b4c981f8d564736f6c63430008180033a26469706673582212204e901666eb0b1f41a4e058ac4b32989d9a78c385f992c6f5062b7ca370f0bb2c64736f6c63430008180033",
  "linkReferences": {},
  "deployedLinkReferences": {}
}