{
  "_format": "hh-sol-artifact-1",
  "contractName": "Escrow",
  "sourceName": "contracts/Escrow.sol",
  "abi": [
    {
      "inputs": [
        {
          "internalType": "address payable",
          "name": "_buyer",
          "type": "address"
        },
        {
          "internalType": "address payable",
          "name": "_seller",
          "type": "address"
        }
      ],
      "stateMutability": "payable",
      "type": "constructor"
    },
    {
      "inputs": [],
      "name": "boughtAt",
      "outputs": [
        {
          "internalType": "uint256",
          "name": "",
          "type": "uint256"
        }
      ],
      "stateMutability": "view",
      "type": "function"
    },
    {
      "inputs": [],
      "name": "buyer",
      "outputs": [
        {
          "internalType": "address payable",
          "name": "",
          "type": "address"
        }
      ],
      "stateMutability": "view",
      "type": "function"
    },
    {
      "inputs": [],
      "name": "buyerProof",
      "outputs": [
        {
          "internalType": "string",
          "name": "",
          "type": "string"
        }
      ],
      "stateMutability": "view",
      "type": "function"
    },
    {
      "inputs": [],
      "name": "confirmDelivery",
      "outputs": [],
      "stateMutability": "nonpayable",
      "type": "function"
    },
    {
      "inputs": [],
      "name": "currState",
      "outputs": [
        {
          "internalType": "enum Escrow.State",
          "name": "",
          "type": "uint8"
        }
      ],
      "stateMutability": "view",
      "type": "function"
    },
    {
      "inputs": [
        {
          "internalType": "uint256",
          "name": "",
          "type": "uint256"
        }
      ],
      "name": "disputeHistory",
      "outputs": [
        {
          "internalType": "string",
          "name": "",
          "type": "string"
        }
      ],
      "stateMutability": "view",
      "type": "function"
    },
    {
      "inputs": [],
      "name": "getDisputeHistory",
      "outputs": [
        {
          "internalType": "string[]",
          "name": "",
          "type": "string[]"
        },
        {
          "internalType": "string",
          "name": "",
          "type": "string"
        },
        {
          "internalType": "string",
          "name": "",
          "type": "string"
        }
      ],
      "stateMutability": "view",
      "type": "function"
    },
    {
      "inputs": [],
      "name": "getState",
      "outputs": [
        {
          "internalType": "enum Escrow.State",
          "name": "",
          "type": "uint8"
        },
        {
          "internalType": "string",
          "name": "",
          "type": "string"
        },
        {
          "internalType": "string",
          "name": "",
          "type": "string"
        },
        {
          "internalType": "string",
          "name": "",
          "type": "string"
        }
      ],
      "stateMutability": "view",
      "type": "function"
    },
    {
      "inputs": [],
      "name": "isDisputeOpen",
      "outputs": [
        {
          "internalType": "bool",
          "name": "",
          "type": "bool"
        }
      ],
      "stateMutability": "view",
      "type": "function"
    },
    {
      "inputs": [],
      "name": "openDispute",
      "outputs": [],
      "stateMutability": "nonpayable",
      "type": "function"
    },
    {
      "inputs": [],
      "name": "refundBuyerForCancelItem",
      "outputs": [],
      "stateMutability": "payable",
      "type": "function"
    },
    {
      "inputs": [
        {
          "internalType": "bool",
          "name": "refundBuyer",
          "type": "bool"
        }
      ],
      "name": "resolveDispute",
      "outputs": [],
      "stateMutability": "payable",
      "type": "function"
    },
    {
      "inputs": [],
      "name": "seller",
      "outputs": [
        {
          "internalType": "address payable",
          "name": "",
          "type": "address"
        }
      ],
      "stateMutability": "view",
      "type": "function"
    },
    {
      "inputs": [],
      "name": "sellerProof",
      "outputs": [
        {
          "internalType": "string",
          "name": "",
          "type": "string"
        }
      ],
      "stateMutability": "view",
      "type": "function"
    },
    {
      "inputs": [
        {
          "internalType": "string",
          "name": "tracking",
          "type": "string"
        }
      ],
      "name": "ship",
      "outputs": [],
      "stateMutability": "nonpayable",
      "type": "function"
    },
    {
      "inputs": [
        {
          "internalType": "string",
          "name": "proof",
          "type": "string"
        }
      ],
      "name": "submitBuyerProof",
      "outputs": [],
      "stateMutability": "nonpayable",
      "type": "function"
    },
    {
      "inputs": [
        {
          "internalType": "string",
          "name": "proof",
          "type": "string"
        }
      ],
      "name": "submitSellerProof",
      "outputs": [],
      "stateMutability": "nonpayable",
      "type": "function"
    }
  ],
  "bytecode": "0x60806040526040516200195138038062001951833981016040819052620000269162000124565b60018054600280546001600160a01b038581166001600160a01b03199283161790925560038054909116736a7d3230514ee0e8078f23cf65b367d9984b055a17905584166101000260ff199081166001600160a81b0319909216919091178255600580549091169055426000908155600480549283018155905260408051808201909152600c81526b24ba32b6903137bab3b43a1760a11b60208201527f8a35acfbc15ff81a39ae7d344fd709f28e8600b4aa8c65c6b64bfe7fe36bd19b90910190620000f4908262000203565b50506008805460ff1916905550620002cf565b80516001600160a01b03811681146200011f57600080fd5b919050565b600080604083850312156200013857600080fd5b620001438362000107565b9150620001536020840162000107565b90509250929050565b634e487b7160e01b600052604160045260246000fd5b600181811c908216806200018757607f821691505b602082108103620001a857634e487b7160e01b600052602260045260246000fd5b50919050565b601f821115620001fe576000816000526020600020601f850160051c81016020861015620001d95750805b601f850160051c820191505b81811015620001fa57828155600101620001e5565b5050505b505050565b81516001600160401b038111156200021f576200021f6200015c565b620002378162000230845462000172565b84620001ae565b602080601f8311600181146200026f5760008415620002565750858301515b600019600386901b1c1916600185901b178555620001fa565b600085815260208120601f198616915b82811015620002a0578886015182559484019460019091019084016200027f565b5085821015620002bf5787850151600019600388901b60f8161c191681555b5050505050600190811b01905550565b61167280620002df6000396000f3fe6080604052600436106100fe5760003560e01c80638285074b11610095578063c00ccd5411610064578063c00ccd541461027e578063d16f5b291461029e578063dd3fa136146102c8578063df8d93b4146102e8578063eaaf0b63146102fd57600080fd5b80638285074b1461021c57806389e1e82a1461023c578063afe010431461024f578063be6cb8381461027657600080fd5b80635b0222bb116100d15780635b0222bb1461019e5780635e10177b146101c257806364e6aa52146101d75780637150d8ae146101f757600080fd5b806308551a53146101035780631865c57d1461014057806319561dae146101655780634fd6137c14610187575b600080fd5b34801561010f57600080fd5b50600254610123906001600160a01b031681565b6040516001600160a01b0390911681526020015b60405180910390f35b34801561014c57600080fd5b50610155610321565b60405161013794939291906111d1565b34801561017157600080fd5b5061017a6104f0565b6040516101379190611222565b34801561019357600080fd5b5061019c61057e565b005b3480156101aa57600080fd5b506101b460005481565b604051908152602001610137565b3480156101ce57600080fd5b5061019c61069f565b3480156101e357600080fd5b5061017a6101f236600461123c565b6107d7565b34801561020357600080fd5b506001546101239061010090046001600160a01b031681565b34801561022857600080fd5b5061019c61023736600461126b565b610802565b61019c61024a36600461131c565b610931565b34801561025b57600080fd5b506001546102699060ff1681565b604051610137919061133e565b61019c610afe565b34801561028a57600080fd5b5061019c61029936600461126b565b610c86565b3480156102aa57600080fd5b506008546102b89060ff1681565b6040519015158152602001610137565b3480156102d457600080fd5b5061019c6102e336600461126b565b610d88565b3480156102f457600080fd5b5061017a610f45565b34801561030957600080fd5b50610312610f52565b60405161013793929190611352565b60006060806060600160009054906101000a900460ff1660096006600782805461034a906113de565b80601f0160208091040260200160405190810160405280929190818152602001828054610376906113de565b80156103c35780601f10610398576101008083540402835291602001916103c3565b820191906000526020600020905b8154815290600101906020018083116103a657829003601f168201915b505050505092508180546103d6906113de565b80601f0160208091040260200160405190810160405280929190818152602001828054610402906113de565b801561044f5780601f106104245761010080835404028352916020019161044f565b820191906000526020600020905b81548152906001019060200180831161043257829003601f168201915b50505050509150808054610462906113de565b80601f016020809104026020016040519081016040528092919081815260200182805461048e906113de565b80156104db5780601f106104b0576101008083540402835291602001916104db565b820191906000526020600020905b8154815290600101906020018083116104be57829003601f168201915b50505050509050935093509350935090919293565b600680546104fd906113de565b80601f0160208091040260200160405190810160405280929190818152602001828054610529906113de565b80156105765780601f1061054b57610100808354040283529160200191610576565b820191906000526020600020905b81548152906001019060200180831161055957829003601f168201915b505050505081565b60015461010090046001600160a01b031633146105b65760405162461bcd60e51b81526004016105ad90611418565b60405180910390fd5b6001805460ff1660048111156105ce576105ce611153565b146106255760405162461bcd60e51b815260206004820152602160248201527f43616e6e6f74206f70656e2064697370757465206174207468697320737461676044820152606560f81b60648201526084016105ad565b6001805460ff199081166003178255600880549091168217905560048054918201815560005260408051808201909152601c81527f44697370757465206f70656e6564206279207468652062757965722e0000000060208201526000805160206115f48339815191529091019061069c90826114a0565b50565b60015461010090046001600160a01b031633146106ce5760405162461bcd60e51b81526004016105ad90611418565b6001805460ff1660048111156106e6576106e6611153565b146107335760405162461bcd60e51b815260206004820152601760248201527f43616e6e6f7420636f6e6669726d2064656c697665727900000000000000000060448201526064016105ad565b6002546040516001600160a01b03909116904780156108fc02916000818181858888f1935050505015801561076c573d6000803e3d6000fd5b506001805460ff1916600217815560048054918201815560005260408051808201909152601b81527f4974656d207265636965766564206279207468652062757965722e000000000060208201526000805160206115f48339815191529091019061069c90826114a0565b600481815481106107e757600080fd5b9060005260206000200160009150905080546104fd906113de565b60015461010090046001600160a01b031633146108315760405162461bcd60e51b81526004016105ad90611418565b600360015460ff16600481111561084a5761084a611153565b146108675760405162461bcd60e51b81526004016105ad90611560565b60078054610874906113de565b1590506108c35760405162461bcd60e51b815260206004820181905260248201527f50726f6f6620616c7265616479207375626d697474656420627920627579657260448201526064016105ad565b6000600680546108d2906113de565b9050116109215760405162461bcd60e51b815260206004820152601e60248201527f53656c6c6572206d757374207375626d69742070726f6f66206669727374000060448201526064016105ad565b600761092d82826114a0565b5050565b6003546001600160a01b031633146109975760405162461bcd60e51b8152602060048201526024808201527f4f6e6c792061726269747261746f722063616e2063616c6c2074686973206d656044820152631d1a1bd960e21b60648201526084016105ad565b600360015460ff1660048111156109b0576109b0611153565b146109cd5760405162461bcd60e51b81526004016105ad90611560565b8015610a60576001546040516001600160a01b0361010090920491909116904780156108fc02916000818181858888f19350505050158015610a13573d6000803e3d6000fd5b50600480546001810182556000918252604080516060810190915260238082526000805160206115f483398151915290920192916115d16020830139610a5a9150826114a0565b50610ae2565b6002546040516001600160a01b03909116904780156108fc02916000818181858888f19350505050158015610a99573d6000803e3d6000fd5b50600480546001810182556000918252604080516060810190915260248082526000805160206115f483398151915290920192916115ad6020830139610ae09150826114a0565b505b506001805460ff19908116600417909155600880549091169055565b600060015460ff166004811115610b1757610b17611153565b14610b985760405162461bcd60e51b8152602060048201526044602482018190527f43616e6e6f7420726566756e642e204974656d2068617320616c726561647920908201527f6265656e2073686970706564206f7220697320696e20616e6f7468657220737460648201526330ba329760e11b608482015260a4016105ad565b600054610ba690603c61158b565b4210610bf45760405162461bcd60e51b815260206004820152601f60248201527f43616e63656c6c6174696f6e20706572696f6420686173207061737365642e0060448201526064016105ad565b6001546040516001600160a01b0361010090920491909116904780156108fc02916000818181858888f19350505050158015610c34573d6000803e3d6000fd5b506001805460ff191660049081178255805491820181556000908152604080516060810190915260298082526000805160206115f483398151915290930192611614602083013961069c9150826114a0565b6002546001600160a01b03163314610ce05760405162461bcd60e51b815260206004820181905260248201527f4f6e6c792073656c6c65722063616e2063616c6c2074686973206d6574686f6460448201526064016105ad565b600360015460ff166004811115610cf957610cf9611153565b14610d165760405162461bcd60e51b81526004016105ad90611560565b60068054610d23906113de565b159050610d7c5760405162461bcd60e51b815260206004820152602160248201527f50726f6f6620616c7265616479207375626d69747465642062792073656c6c656044820152603960f91b60648201526084016105ad565b600661092d82826114a0565b6002546001600160a01b03163314610de25760405162461bcd60e51b815260206004820181905260248201527f4f6e6c792073656c6c65722063616e2063616c6c2074686973206d6574686f6460448201526064016105ad565b600060015460ff166004811115610dfb57610dfb611153565b14610e485760405162461bcd60e51b815260206004820152601e60248201527f43616e6e6f7420736869702e20496e636f7272656374207374617475732e000060448201526064016105ad565b600054610e5690603c61158b565b421015610ecb5760405162461bcd60e51b815260206004820152603d60248201527f43616e6e6f742073686970206265666f7265203135206d696e7574652063616e60448201527f63656c6c6174696f6e20706572696f642068617320656c61707365642e00000060648201526084016105ad565b6001805460ff1916811790556009610ee382826114a0565b506004805460018101825560009190915260408051808201909152601881527f4974656d2073656e74206279207468652073656c6c65722e000000000000000060208201526000805160206115f48339815191529091019061092d90826114a0565b600780546104fd906113de565b606080606060046006600782805480602002602001604051908101604052809291908181526020016000905b8282101561102a578382906000526020600020018054610f9d906113de565b80601f0160208091040260200160405190810160405280929190818152602001828054610fc9906113de565b80156110165780601f10610feb57610100808354040283529160200191611016565b820191906000526020600020905b815481529060010190602001808311610ff957829003601f168201915b505050505081526020019060010190610f7e565b50505050925081805461103c906113de565b80601f0160208091040260200160405190810160405280929190818152602001828054611068906113de565b80156110b55780601f1061108a576101008083540402835291602001916110b5565b820191906000526020600020905b81548152906001019060200180831161109857829003601f168201915b505050505091508080546110c8906113de565b80601f01602080910402602001604051908101604052809291908181526020018280546110f4906113de565b80156111415780601f1061111657610100808354040283529160200191611141565b820191906000526020600020905b81548152906001019060200180831161112457829003601f168201915b50505050509050925092509250909192565b634e487b7160e01b600052602160045260246000fd5b6005811061118757634e487b7160e01b600052602160045260246000fd5b9052565b6000815180845260005b818110156111b157602081850181015186830182015201611195565b506000602082860101526020601f19601f83011685010191505092915050565b6111db8186611169565b6080602082015260006111f1608083018661118b565b8281036040840152611203818661118b565b90508281036060840152611217818561118b565b979650505050505050565b602081526000611235602083018461118b565b9392505050565b60006020828403121561124e57600080fd5b5035919050565b634e487b7160e01b600052604160045260246000fd5b60006020828403121561127d57600080fd5b813567ffffffffffffffff8082111561129557600080fd5b818401915084601f8301126112a957600080fd5b8135818111156112bb576112bb611255565b604051601f8201601f19908116603f011681019083821181831017156112e3576112e3611255565b816040528281528760208487010111156112fc57600080fd5b826020860160208301376000928101602001929092525095945050505050565b60006020828403121561132e57600080fd5b8135801515811461123557600080fd5b6020810161134c8284611169565b92915050565b6000606082016060835280865180835260808501915060808160051b8601019250602080890160005b838110156113a957607f1988870301855261139786835161118b565b9550938201939082019060010161137b565b505050505082810360208401526113c0818661118b565b905082810360408401526113d4818561118b565b9695505050505050565b600181811c908216806113f257607f821691505b60208210810361141257634e487b7160e01b600052602260045260246000fd5b50919050565b6020808252601f908201527f4f6e6c792062757965722063616e2063616c6c2074686973206d6574686f6400604082015260600190565b601f82111561149b576000816000526020600020601f850160051c810160208610156114785750805b601f850160051c820191505b8181101561149757828155600101611484565b5050505b505050565b815167ffffffffffffffff8111156114ba576114ba611255565b6114ce816114c884546113de565b8461144f565b602080601f83116001811461150357600084156114eb5750858301515b600019600386901b1c1916600185901b178555611497565b600085815260208120601f198616915b8281101561153257888601518255948401946001909101908401611513565b50858210156115505787850151600019600388901b60f8161c191681555b5050505050600190811b01905550565b6020808252601190820152704e6f20616374697665206469737075746560781b604082015260600190565b8082018082111561134c57634e487b7160e01b600052601160045260246000fdfe4469737075746520636c6f7365642e2053656c6c65722077617320726566756e6465642e4469737075746520636c6f7365642e2042757965722077617320726566756e6465642e8a35acfbc15ff81a39ae7d344fd709f28e8600b4aa8c65c6b64bfe7fe36bd19b4974656d2063616e63656c6c656420616e6420726566756e64656420746f207468652062757965722ea2646970667358221220b1ff31f288d9595ec552e1c4b4ada91a4178bde62f8a4f78a2332d31c507424464736f6c63430008180033",
  "linkReferences": {},
  "deployedLinkReferences": {}
}