{
  "_format": "hh-sol-artifact-1",
  "contractName": "Escrow",
  "sourceName": "contracts/Escrow.sol",
  "abi": [
    {
      "inputs": [
        {
          "internalType": "address",
          "name": "_buyer",
          "type": "address"
        },
        {
          "internalType": "address payable",
          "name": "_seller",
          "type": "address"
        }
      ],
      "stateMutability": "payable",
      "type": "constructor"
    },
    {
      "inputs": [],
      "name": "boughtAt",
      "outputs": [
        {
          "internalType": "uint256",
          "name": "",
          "type": "uint256"
        }
      ],
      "stateMutability": "view",
      "type": "function"
    },
    {
      "inputs": [],
      "name": "buyer",
      "outputs": [
        {
          "internalType": "address",
          "name": "",
          "type": "address"
        }
      ],
      "stateMutability": "view",
      "type": "function"
    },
    {
      "inputs": [],
      "name": "buyerProof",
      "outputs": [
        {
          "internalType": "string",
          "name": "",
          "type": "string"
        }
      ],
      "stateMutability": "view",
      "type": "function"
    },
    {
      "inputs": [],
      "name": "confirmDelivery",
      "outputs": [],
      "stateMutability": "nonpayable",
      "type": "function"
    },
    {
      "inputs": [],
      "name": "currState",
      "outputs": [
        {
          "internalType": "enum Escrow.State",
          "name": "",
          "type": "uint8"
        }
      ],
      "stateMutability": "view",
      "type": "function"
    },
    {
      "inputs": [
        {
          "internalType": "uint256",
          "name": "",
          "type": "uint256"
        }
      ],
      "name": "disputeHistory",
      "outputs": [
        {
          "internalType": "string",
          "name": "",
          "type": "string"
        }
      ],
      "stateMutability": "view",
      "type": "function"
    },
    {
      "inputs": [],
      "name": "getDisputeHistory",
      "outputs": [
        {
          "internalType": "string[]",
          "name": "",
          "type": "string[]"
        },
        {
          "internalType": "string",
          "name": "",
          "type": "string"
        },
        {
          "internalType": "string",
          "name": "",
          "type": "string"
        }
      ],
      "stateMutability": "view",
      "type": "function"
    },
    {
      "inputs": [],
      "name": "getState",
      "outputs": [
        {
          "internalType": "enum Escrow.State",
          "name": "",
          "type": "uint8"
        },
        {
          "internalType": "string",
          "name": "",
          "type": "string"
        },
        {
          "internalType": "string",
          "name": "",
          "type": "string"
        },
        {
          "internalType": "string",
          "name": "",
          "type": "string"
        }
      ],
      "stateMutability": "view",
      "type": "function"
    },
    {
      "inputs": [],
      "name": "isDisputeOpen",
      "outputs": [
        {
          "internalType": "bool",
          "name": "",
          "type": "bool"
        }
      ],
      "stateMutability": "view",
      "type": "function"
    },
    {
      "inputs": [],
      "name": "openDispute",
      "outputs": [],
      "stateMutability": "nonpayable",
      "type": "function"
    },
    {
      "inputs": [],
      "name": "refundBuyerForCancelItem",
      "outputs": [],
      "stateMutability": "nonpayable",
      "type": "function"
    },
    {
      "inputs": [
        {
          "internalType": "bool",
          "name": "refundBuyer",
          "type": "bool"
        }
      ],
      "name": "resolveDispute",
      "outputs": [],
      "stateMutability": "nonpayable",
      "type": "function"
    },
    {
      "inputs": [],
      "name": "seller",
      "outputs": [
        {
          "internalType": "address payable",
          "name": "",
          "type": "address"
        }
      ],
      "stateMutability": "view",
      "type": "function"
    },
    {
      "inputs": [],
      "name": "sellerProof",
      "outputs": [
        {
          "internalType": "string",
          "name": "",
          "type": "string"
        }
      ],
      "stateMutability": "view",
      "type": "function"
    },
    {
      "inputs": [
        {
          "internalType": "string",
          "name": "tracking",
          "type": "string"
        }
      ],
      "name": "ship",
      "outputs": [],
      "stateMutability": "nonpayable",
      "type": "function"
    },
    {
      "inputs": [
        {
          "internalType": "string",
          "name": "proof",
          "type": "string"
        }
      ],
      "name": "submitBuyerProof",
      "outputs": [],
      "stateMutability": "nonpayable",
      "type": "function"
    },
    {
      "inputs": [
        {
          "internalType": "string",
          "name": "proof",
          "type": "string"
        }
      ],
      "name": "submitSellerProof",
      "outputs": [],
      "stateMutability": "nonpayable",
      "type": "function"
    }
  ],
  "bytecode": "0x608060405260405162002a9138038062002a9183398181016040528101906200002991906200028a565b816001806101000a81548173ffffffffffffffffffffffffffffffffffffffff021916908373ffffffffffffffffffffffffffffffffffffffff16021790555080600260006101000a81548173ffffffffffffffffffffffffffffffffffffffff021916908373ffffffffffffffffffffffffffffffffffffffff160217905550736a7d3230514ee0e8078f23cf65b367d9984b055a600360006101000a81548173ffffffffffffffffffffffffffffffffffffffff021916908373ffffffffffffffffffffffffffffffffffffffff1602179055506000600160006101000a81548160ff02191690836004811115620001285762000127620002d1565b5b02179055506000600560006101000a81548160ff02191690831515021790555042600081905550600480600181540180825580915050600190039060005260206000200160006040518060400160405280600c81526020017f4974656d20626f756768742e000000000000000000000000000000000000000081525090919091509081620001b791906200057a565b506000600860006101000a81548160ff021916908315150217905550505062000661565b600080fd5b600073ffffffffffffffffffffffffffffffffffffffff82169050919050565b60006200020d82620001e0565b9050919050565b6200021f8162000200565b81146200022b57600080fd5b50565b6000815190506200023f8162000214565b92915050565b60006200025282620001e0565b9050919050565b620002648162000245565b81146200027057600080fd5b50565b600081519050620002848162000259565b92915050565b60008060408385031215620002a457620002a3620001db565b5b6000620002b4858286016200022e565b9250506020620002c78582860162000273565b9150509250929050565b7f4e487b7100000000000000000000000000000000000000000000000000000000600052602160045260246000fd5b600081519050919050565b7f4e487b7100000000000000000000000000000000000000000000000000000000600052604160045260246000fd5b7f4e487b7100000000000000000000000000000000000000000000000000000000600052602260045260246000fd5b600060028204905060018216806200038257607f821691505b6020821081036200039857620003976200033a565b5b50919050565b60008190508160005260206000209050919050565b60006020601f8301049050919050565b600082821b905092915050565b600060088302620004027fffffffffffffffffffffffffffffffffffffffffffffffffffffffffffffffff82620003c3565b6200040e8683620003c3565b95508019841693508086168417925050509392505050565b6000819050919050565b6000819050919050565b60006200045b620004556200044f8462000426565b62000430565b62000426565b9050919050565b6000819050919050565b62000477836200043a565b6200048f620004868262000462565b848454620003d0565b825550505050565b600090565b620004a662000497565b620004b38184846200046c565b505050565b5b81811015620004db57620004cf6000826200049c565b600181019050620004b9565b5050565b601f8211156200052a57620004f4816200039e565b620004ff84620003b3565b810160208510156200050f578190505b620005276200051e85620003b3565b830182620004b8565b50505b505050565b600082821c905092915050565b60006200054f600019846008026200052f565b1980831691505092915050565b60006200056a83836200053c565b9150826002028217905092915050565b620005858262000300565b67ffffffffffffffff811115620005a157620005a06200030b565b5b620005ad825462000369565b620005ba828285620004df565b600060209050601f831160018114620005f25760008415620005dd578287015190505b620005e985826200055c565b86555062000659565b601f19841662000602866200039e565b60005b828110156200062c5784890151825560018201915060208501945060208101905062000605565b868310156200064c578489015162000648601f8916826200053c565b8355505b6001600288020188555050505b505050505050565b61242080620006716000396000f3fe608060405234801561001057600080fd5b506004361061010b5760003560e01c80638285074b116100a2578063c00ccd5411610071578063c00ccd541461024d578063d16f5b2914610269578063dd3fa13614610287578063df8d93b4146102a3578063eaaf0b63146102c15761010b565b80638285074b146101ed57806389e1e82a14610209578063afe0104314610225578063be6cb838146102435761010b565b80635b0222bb116100de5780635b0222bb146101775780635e10177b1461019557806364e6aa521461019f5780637150d8ae146101cf5761010b565b806308551a53146101105780631865c57d1461012e57806319561dae1461014f5780634fd6137c1461016d575b600080fd5b6101186102e1565b604051610125919061152b565b60405180910390f35b610136610307565b604051610146949392919061164d565b60405180910390f35b6101576104d6565b60405161016491906116a7565b60405180910390f35b610175610564565b005b61017f610717565b60405161018c91906116e2565b60405180910390f35b61019d61071d565b005b6101b960048036038101906101b4919061173d565b61091e565b6040516101c691906116a7565b60405180910390f35b6101d76109ca565b6040516101e4919061178b565b60405180910390f35b610207600480360381019061020291906118db565b6109ee565b005b610223600480360381019061021e919061195c565b610ba7565b005b61022d610e66565b60405161023a9190611989565b60405180910390f35b61024b610e79565b005b610267600480360381019061026291906118db565b610ee2565b005b61027161104c565b60405161027e91906119b3565b60405180910390f35b6102a1600480360381019061029c91906118db565b61105f565b005b6102ab61125b565b6040516102b891906116a7565b60405180910390f35b6102c96112e9565b6040516102d893929190611ada565b60405180910390f35b600260009054906101000a900473ffffffffffffffffffffffffffffffffffffffff1681565b60006060806060600160009054906101000a900460ff1660096006600782805461033090611b55565b80601f016020809104026020016040519081016040528092919081815260200182805461035c90611b55565b80156103a95780601f1061037e576101008083540402835291602001916103a9565b820191906000526020600020905b81548152906001019060200180831161038c57829003601f168201915b505050505092508180546103bc90611b55565b80601f01602080910402602001604051908101604052809291908181526020018280546103e890611b55565b80156104355780601f1061040a57610100808354040283529160200191610435565b820191906000526020600020905b81548152906001019060200180831161041857829003601f168201915b5050505050915080805461044890611b55565b80601f016020809104026020016040519081016040528092919081815260200182805461047490611b55565b80156104c15780601f10610496576101008083540402835291602001916104c1565b820191906000526020600020905b8154815290600101906020018083116104a457829003601f168201915b50505050509050935093509350935090919293565b600680546104e390611b55565b80601f016020809104026020016040519081016040528092919081815260200182805461050f90611b55565b801561055c5780601f106105315761010080835404028352916020019161055c565b820191906000526020600020905b81548152906001019060200180831161053f57829003601f168201915b505050505081565b60018054906101000a900473ffffffffffffffffffffffffffffffffffffffff1673ffffffffffffffffffffffffffffffffffffffff163373ffffffffffffffffffffffffffffffffffffffff16146105f2576040517f08c379a00000000000000000000000000000000000000000000000000000000081526004016105e990611bd2565b60405180910390fd5b6001600481111561060657610605611546565b5b600160009054906101000a900460ff16600481111561062857610627611546565b5b14610668576040517f08c379a000000000000000000000000000000000000000000000000000000000815260040161065f90611c64565b60405180910390fd5b6003600160006101000a81548160ff0219169083600481111561068e5761068d611546565b5b02179055506001600860006101000a81548160ff021916908315150217905550600480600181540180825580915050600190039060005260206000200160006040518060400160405280601c81526020017f44697370757465206f70656e6564206279207468652062757965722e00000000815250909190915090816107149190611e30565b50565b60005481565b60018054906101000a900473ffffffffffffffffffffffffffffffffffffffff1673ffffffffffffffffffffffffffffffffffffffff163373ffffffffffffffffffffffffffffffffffffffff16146107ab576040517f08c379a00000000000000000000000000000000000000000000000000000000081526004016107a290611bd2565b60405180910390fd5b600160048111156107bf576107be611546565b5b600160009054906101000a900460ff1660048111156107e1576107e0611546565b5b14610821576040517f08c379a000000000000000000000000000000000000000000000000000000000815260040161081890611f4e565b60405180910390fd5b600260009054906101000a900473ffffffffffffffffffffffffffffffffffffffff1673ffffffffffffffffffffffffffffffffffffffff166108fc479081150290604051600060405180830381858888f19350505050158015610889573d6000803e3d6000fd5b506002600160006101000a81548160ff021916908360048111156108b0576108af611546565b5b0217905550600480600181540180825580915050600190039060005260206000200160006040518060400160405280601b81526020017f4974656d207265636965766564206279207468652062757965722e00000000008152509091909150908161091b9190611e30565b50565b6004818154811061092e57600080fd5b90600052602060002001600091509050805461094990611b55565b80601f016020809104026020016040519081016040528092919081815260200182805461097590611b55565b80156109c25780601f10610997576101008083540402835291602001916109c2565b820191906000526020600020905b8154815290600101906020018083116109a557829003601f168201915b505050505081565b60018054906101000a900473ffffffffffffffffffffffffffffffffffffffff1681565b60018054906101000a900473ffffffffffffffffffffffffffffffffffffffff1673ffffffffffffffffffffffffffffffffffffffff163373ffffffffffffffffffffffffffffffffffffffff1614610a7c576040517f08c379a0000000000000000000000000000000000000000000000000000000008152600401610a7390611bd2565b60405180910390fd5b60036004811115610a9057610a8f611546565b5b600160009054906101000a900460ff166004811115610ab257610ab1611546565b5b14610af2576040517f08c379a0000000000000000000000000000000000000000000000000000000008152600401610ae990611fba565b60405180910390fd5b600060078054610b0190611b55565b905014610b43576040517f08c379a0000000000000000000000000000000000000000000000000000000008152600401610b3a90612026565b60405180910390fd5b600060068054610b5290611b55565b905011610b94576040517f08c379a0000000000000000000000000000000000000000000000000000000008152600401610b8b90612092565b60405180910390fd5b8060079081610ba39190611e30565b5050565b600360009054906101000a900473ffffffffffffffffffffffffffffffffffffffff1673ffffffffffffffffffffffffffffffffffffffff163373ffffffffffffffffffffffffffffffffffffffff1614610c37576040517f08c379a0000000000000000000000000000000000000000000000000000000008152600401610c2e90612124565b60405180910390fd5b60036004811115610c4b57610c4a611546565b5b600160009054906101000a900460ff166004811115610c6d57610c6c611546565b5b14610cad576040517f08c379a0000000000000000000000000000000000000000000000000000000008152600401610ca490611fba565b60405180910390fd5b8015610d695760018054906101000a900473ffffffffffffffffffffffffffffffffffffffff1673ffffffffffffffffffffffffffffffffffffffff166108fc479081150290604051600060405180830381858888f19350505050158015610d19573d6000803e3d6000fd5b50600480600181540180825580915050600190039060005260206000200160006040518060600160405280602381526020016123c86023913990919091509081610d639190611e30565b50610e1d565b600260009054906101000a900473ffffffffffffffffffffffffffffffffffffffff1673ffffffffffffffffffffffffffffffffffffffff166108fc479081150290604051600060405180830381858888f19350505050158015610dd1573d6000803e3d6000fd5b50600480600181540180825580915050600190039060005260206000200160006040518060600160405280602481526020016123a46024913990919091509081610e1b9190611e30565b505b6004600160006101000a81548160ff02191690836004811115610e4357610e42611546565b5b02179055506000600860006101000a81548160ff02191690831515021790555050565b600160009054906101000a900460ff1681565b60018054906101000a900473ffffffffffffffffffffffffffffffffffffffff1673ffffffffffffffffffffffffffffffffffffffff166108fc479081150290604051600060405180830381858888f19350505050158015610edf573d6000803e3d6000fd5b50565b600260009054906101000a900473ffffffffffffffffffffffffffffffffffffffff1673ffffffffffffffffffffffffffffffffffffffff163373ffffffffffffffffffffffffffffffffffffffff1614610f72576040517f08c379a0000000000000000000000000000000000000000000000000000000008152600401610f6990612190565b60405180910390fd5b60036004811115610f8657610f85611546565b5b600160009054906101000a900460ff166004811115610fa857610fa7611546565b5b14610fe8576040517f08c379a0000000000000000000000000000000000000000000000000000000008152600401610fdf90611fba565b60405180910390fd5b600060068054610ff790611b55565b905014611039576040517f08c379a000000000000000000000000000000000000000000000000000000000815260040161103090612222565b60405180910390fd5b80600690816110489190611e30565b5050565b600860009054906101000a900460ff1681565b600260009054906101000a900473ffffffffffffffffffffffffffffffffffffffff1673ffffffffffffffffffffffffffffffffffffffff163373ffffffffffffffffffffffffffffffffffffffff16146110ef576040517f08c379a00000000000000000000000000000000000000000000000000000000081526004016110e690612190565b60405180910390fd5b6000600481111561110357611102611546565b5b600160009054906101000a900460ff16600481111561112557611124611546565b5b14611165576040517f08c379a000000000000000000000000000000000000000000000000000000000815260040161115c9061228e565b60405180910390fd5b61038460005461117591906122dd565b4210156111b7576040517f08c379a00000000000000000000000000000000000000000000000000000000081526004016111ae90612383565b60405180910390fd5b60018060006101000a81548160ff021916908360048111156111dc576111db611546565b5b021790555080600990816111f09190611e30565b50600480600181540180825580915050600190039060005260206000200160006040518060400160405280601881526020017f4974656d2073656e74206279207468652073656c6c65722e0000000000000000815250909190915090816112579190611e30565b5050565b6007805461126890611b55565b80601f016020809104026020016040519081016040528092919081815260200182805461129490611b55565b80156112e15780601f106112b6576101008083540402835291602001916112e1565b820191906000526020600020905b8154815290600101906020018083116112c457829003601f168201915b505050505081565b606080606060046006600782805480602002602001604051908101604052809291908181526020016000905b828210156113c157838290600052602060002001805461133490611b55565b80601f016020809104026020016040519081016040528092919081815260200182805461136090611b55565b80156113ad5780601f10611382576101008083540402835291602001916113ad565b820191906000526020600020905b81548152906001019060200180831161139057829003601f168201915b505050505081526020019060010190611315565b5050505092508180546113d390611b55565b80601f01602080910402602001604051908101604052809291908181526020018280546113ff90611b55565b801561144c5780601f106114215761010080835404028352916020019161144c565b820191906000526020600020905b81548152906001019060200180831161142f57829003601f168201915b5050505050915080805461145f90611b55565b80601f016020809104026020016040519081016040528092919081815260200182805461148b90611b55565b80156114d85780601f106114ad576101008083540402835291602001916114d8565b820191906000526020600020905b8154815290600101906020018083116114bb57829003601f168201915b50505050509050925092509250909192565b600073ffffffffffffffffffffffffffffffffffffffff82169050919050565b6000611515826114ea565b9050919050565b6115258161150a565b82525050565b6000602082019050611540600083018461151c565b92915050565b7f4e487b7100000000000000000000000000000000000000000000000000000000600052602160045260246000fd5b6005811061158657611585611546565b5b50565b600081905061159782611575565b919050565b60006115a782611589565b9050919050565b6115b78161159c565b82525050565b600081519050919050565b600082825260208201905092915050565b60005b838110156115f75780820151818401526020810190506115dc565b60008484015250505050565b6000601f19601f8301169050919050565b600061161f826115bd565b61162981856115c8565b93506116398185602086016115d9565b61164281611603565b840191505092915050565b600060808201905061166260008301876115ae565b81810360208301526116748186611614565b905081810360408301526116888185611614565b9050818103606083015261169c8184611614565b905095945050505050565b600060208201905081810360008301526116c18184611614565b905092915050565b6000819050919050565b6116dc816116c9565b82525050565b60006020820190506116f760008301846116d3565b92915050565b6000604051905090565b600080fd5b600080fd5b61171a816116c9565b811461172557600080fd5b50565b60008135905061173781611711565b92915050565b60006020828403121561175357611752611707565b5b600061176184828501611728565b91505092915050565b6000611775826114ea565b9050919050565b6117858161176a565b82525050565b60006020820190506117a0600083018461177c565b92915050565b600080fd5b600080fd5b7f4e487b7100000000000000000000000000000000000000000000000000000000600052604160045260246000fd5b6117e882611603565b810181811067ffffffffffffffff82111715611807576118066117b0565b5b80604052505050565b600061181a6116fd565b905061182682826117df565b919050565b600067ffffffffffffffff821115611846576118456117b0565b5b61184f82611603565b9050602081019050919050565b82818337600083830152505050565b600061187e6118798461182b565b611810565b90508281526020810184848401111561189a576118996117ab565b5b6118a584828561185c565b509392505050565b600082601f8301126118c2576118c16117a6565b5b81356118d284826020860161186b565b91505092915050565b6000602082840312156118f1576118f0611707565b5b600082013567ffffffffffffffff81111561190f5761190e61170c565b5b61191b848285016118ad565b91505092915050565b60008115159050919050565b61193981611924565b811461194457600080fd5b50565b60008135905061195681611930565b92915050565b60006020828403121561197257611971611707565b5b600061198084828501611947565b91505092915050565b600060208201905061199e60008301846115ae565b92915050565b6119ad81611924565b82525050565b60006020820190506119c860008301846119a4565b92915050565b600081519050919050565b600082825260208201905092915050565b6000819050602082019050919050565b600082825260208201905092915050565b6000611a16826115bd565b611a2081856119fa565b9350611a308185602086016115d9565b611a3981611603565b840191505092915050565b6000611a508383611a0b565b905092915050565b6000602082019050919050565b6000611a70826119ce565b611a7a81856119d9565b935083602082028501611a8c856119ea565b8060005b85811015611ac85784840389528151611aa98582611a44565b9450611ab483611a58565b925060208a01995050600181019050611a90565b50829750879550505050505092915050565b60006060820190508181036000830152611af48186611a65565b90508181036020830152611b088185611614565b90508181036040830152611b1c8184611614565b9050949350505050565b7f4e487b7100000000000000000000000000000000000000000000000000000000600052602260045260246000fd5b60006002820490506001821680611b6d57607f821691505b602082108103611b8057611b7f611b26565b5b50919050565b7f4f6e6c792062757965722063616e2063616c6c2074686973206d6574686f6400600082015250565b6000611bbc601f836115c8565b9150611bc782611b86565b602082019050919050565b60006020820190508181036000830152611beb81611baf565b9050919050565b7f43616e6e6f74206f70656e20646973707574652061742074686973207374616760008201527f6500000000000000000000000000000000000000000000000000000000000000602082015250565b6000611c4e6021836115c8565b9150611c5982611bf2565b604082019050919050565b60006020820190508181036000830152611c7d81611c41565b9050919050565b60008190508160005260206000209050919050565b60006020601f8301049050919050565b600082821b905092915050565b600060088302611ce67fffffffffffffffffffffffffffffffffffffffffffffffffffffffffffffffff82611ca9565b611cf08683611ca9565b95508019841693508086168417925050509392505050565b6000819050919050565b6000611d2d611d28611d23846116c9565b611d08565b6116c9565b9050919050565b6000819050919050565b611d4783611d12565b611d5b611d5382611d34565b848454611cb6565b825550505050565b600090565b611d70611d63565b611d7b818484611d3e565b505050565b5b81811015611d9f57611d94600082611d68565b600181019050611d81565b5050565b601f821115611de457611db581611c84565b611dbe84611c99565b81016020851015611dcd578190505b611de1611dd985611c99565b830182611d80565b50505b505050565b600082821c905092915050565b6000611e0760001984600802611de9565b1980831691505092915050565b6000611e208383611df6565b9150826002028217905092915050565b611e39826115bd565b67ffffffffffffffff811115611e5257611e516117b0565b5b611e5c8254611b55565b611e67828285611da3565b600060209050601f831160018114611e9a5760008415611e88578287015190505b611e928582611e14565b865550611efa565b601f198416611ea886611c84565b60005b82811015611ed057848901518255600182019150602085019450602081019050611eab565b86831015611eed5784890151611ee9601f891682611df6565b8355505b6001600288020188555050505b505050505050565b7f43616e6e6f7420636f6e6669726d2064656c6976657279000000000000000000600082015250565b6000611f386017836115c8565b9150611f4382611f02565b602082019050919050565b60006020820190508181036000830152611f6781611f2b565b9050919050565b7f4e6f206163746976652064697370757465000000000000000000000000000000600082015250565b6000611fa46011836115c8565b9150611faf82611f6e565b602082019050919050565b60006020820190508181036000830152611fd381611f97565b9050919050565b7f50726f6f6620616c7265616479207375626d6974746564206279206275796572600082015250565b60006120106020836115c8565b915061201b82611fda565b602082019050919050565b6000602082019050818103600083015261203f81612003565b9050919050565b7f53656c6c6572206d757374207375626d69742070726f6f662066697273740000600082015250565b600061207c601e836115c8565b915061208782612046565b602082019050919050565b600060208201905081810360008301526120ab8161206f565b9050919050565b7f4f6e6c792061726269747261746f722063616e2063616c6c2074686973206d6560008201527f74686f6400000000000000000000000000000000000000000000000000000000602082015250565b600061210e6024836115c8565b9150612119826120b2565b604082019050919050565b6000602082019050818103600083015261213d81612101565b9050919050565b7f4f6e6c792073656c6c65722063616e2063616c6c2074686973206d6574686f64600082015250565b600061217a6020836115c8565b915061218582612144565b602082019050919050565b600060208201905081810360008301526121a98161216d565b9050919050565b7f50726f6f6620616c7265616479207375626d69747465642062792073656c6c6560008201527f7200000000000000000000000000000000000000000000000000000000000000602082015250565b600061220c6021836115c8565b9150612217826121b0565b604082019050919050565b6000602082019050818103600083015261223b816121ff565b9050919050565b7f43616e6e6f7420736869702e20496e636f7272656374207374617475732e0000600082015250565b6000612278601e836115c8565b915061228382612242565b602082019050919050565b600060208201905081810360008301526122a78161226b565b9050919050565b7f4e487b7100000000000000000000000000000000000000000000000000000000600052601160045260246000fd5b60006122e8826116c9565b91506122f3836116c9565b925082820190508082111561230b5761230a6122ae565b5b92915050565b7f43616e6e6f742073686970206265666f72652031352d6d696e7574652063616e60008201527f63656c6c6174696f6e20706572696f642068617320656c61707365642e000000602082015250565b600061236d603d836115c8565b915061237882612311565b604082019050919050565b6000602082019050818103600083015261239c81612360565b905091905056fe4469737075746520636c6f7365642e2053656c6c65722077617320726566756e6465642e4469737075746520636c6f7365642e2042757965722077617320726566756e6465642ea2646970667358221220f8b0a5c05cb6f381141de9eb0279e771f1716d07c7a1947d1c451bdd117d4be164736f6c63430008180033",
  "linkReferences": {},
  "deployedLinkReferences": {}
}