{
  "_format": "hh-sol-artifact-1",
  "contractName": "Escrow",
  "sourceName": "contracts/Escrow.sol",
  "abi": [
    {
      "inputs": [
        {
          "internalType": "address",
          "name": "_buyer",
          "type": "address"
        },
        {
          "internalType": "address payable",
          "name": "_seller",
          "type": "address"
        }
      ],
      "stateMutability": "payable",
      "type": "constructor"
    },
    {
      "inputs": [],
      "name": "boughtAt",
      "outputs": [
        {
          "internalType": "uint256",
          "name": "",
          "type": "uint256"
        }
      ],
      "stateMutability": "view",
      "type": "function"
    },
    {
      "inputs": [],
      "name": "buyer",
      "outputs": [
        {
          "internalType": "address",
          "name": "",
          "type": "address"
        }
      ],
      "stateMutability": "view",
      "type": "function"
    },
    {
      "inputs": [],
      "name": "confirmDelivery",
      "outputs": [],
      "stateMutability": "nonpayable",
      "type": "function"
    },
    {
      "inputs": [],
      "name": "currState",
      "outputs": [
        {
          "internalType": "enum Escrow.State",
          "name": "",
          "type": "uint8"
        }
      ],
      "stateMutability": "view",
      "type": "function"
    },
    {
      "inputs": [
        {
          "internalType": "uint256",
          "name": "",
          "type": "uint256"
        }
      ],
      "name": "disputeHistory",
      "outputs": [
        {
          "internalType": "string",
          "name": "",
          "type": "string"
        }
      ],
      "stateMutability": "view",
      "type": "function"
    },
    {
      "inputs": [],
      "name": "getDisputeHistory",
      "outputs": [
        {
          "internalType": "string[]",
          "name": "",
          "type": "string[]"
        }
      ],
      "stateMutability": "view",
      "type": "function"
    },
    {
      "inputs": [],
      "name": "getState",
      "outputs": [
        {
          "internalType": "enum Escrow.State",
          "name": "",
          "type": "uint8"
        },
        {
          "internalType": "string",
          "name": "",
          "type": "string"
        }
      ],
      "stateMutability": "view",
      "type": "function"
    },
    {
      "inputs": [
        {
          "internalType": "string",
          "name": "proof",
          "type": "string"
        }
      ],
      "name": "openBuyerDispute",
      "outputs": [],
      "stateMutability": "nonpayable",
      "type": "function"
    },
    {
      "inputs": [
        {
          "internalType": "bool",
          "name": "refundBuyer",
          "type": "bool"
        }
      ],
      "name": "resolveDispute",
      "outputs": [],
      "stateMutability": "nonpayable",
      "type": "function"
    },
    {
      "inputs": [],
      "name": "seller",
      "outputs": [
        {
          "internalType": "address payable",
          "name": "",
          "type": "address"
        }
      ],
      "stateMutability": "view",
      "type": "function"
    },
    {
      "inputs": [
        {
          "internalType": "string",
          "name": "tracking",
          "type": "string"
        }
      ],
      "name": "ship",
      "outputs": [],
      "stateMutability": "nonpayable",
      "type": "function"
    },
    {
      "inputs": [
        {
          "internalType": "string",
          "name": "proof",
          "type": "string"
        }
      ],
      "name": "submitBuyerProof",
      "outputs": [],
      "stateMutability": "nonpayable",
      "type": "function"
    },
    {
      "inputs": [
        {
          "internalType": "string",
          "name": "proof",
          "type": "string"
        }
      ],
      "name": "submitSellerProof",
      "outputs": [],
      "stateMutability": "nonpayable",
      "type": "function"
    }
  ],
  "bytecode": "0x60806040526040516200204838038062002048833981810160405281019062000029919062000206565b816001806101000a81548173ffffffffffffffffffffffffffffffffffffffff021916908373ffffffffffffffffffffffffffffffffffffffff16021790555080600260006101000a81548173ffffffffffffffffffffffffffffffffffffffff021916908373ffffffffffffffffffffffffffffffffffffffff160217905550736a7d3230514ee0e8078f23cf65b367d9984b055a600360006101000a81548173ffffffffffffffffffffffffffffffffffffffff021916908373ffffffffffffffffffffffffffffffffffffffff1602179055506000600160006101000a81548160ff021916908360048111156200012857620001276200024d565b5b02179055506000600560006101000a81548160ff0219169083151502179055504260008190555050506200027c565b600080fd5b600073ffffffffffffffffffffffffffffffffffffffff82169050919050565b600062000189826200015c565b9050919050565b6200019b816200017c565b8114620001a757600080fd5b50565b600081519050620001bb8162000190565b92915050565b6000620001ce826200015c565b9050919050565b620001e081620001c1565b8114620001ec57600080fd5b50565b6000815190506200020081620001d5565b92915050565b6000806040838503121562000220576200021f62000157565b5b60006200023085828601620001aa565b92505060206200024385828601620001ef565b9150509250929050565b7f4e487b7100000000000000000000000000000000000000000000000000000000600052602160045260246000fd5b611dbc806200028c6000396000f3fe608060405234801561001057600080fd5b50600436106100cf5760003560e01c80637388a1ed1161008c578063afe0104311610066578063afe01043146101db578063c00ccd54146101f9578063dd3fa13614610215578063eaaf0b6314610231576100cf565b80637388a1ed146101875780638285074b146101a357806389e1e82a146101bf576100cf565b806308551a53146100d45780631865c57d146100f25780635b0222bb146101115780635e10177b1461012f57806364e6aa52146101395780637150d8ae14610169575b600080fd5b6100dc61024f565b6040516100e991906110a6565b60405180910390f35b6100fa610275565b6040516101089291906111c8565b60405180910390f35b61011961031f565b6040516101269190611211565b60405180910390f35b610137610325565b005b610153600480360381019061014e919061126c565b610526565b6040516101609190611299565b60405180910390f35b6101716105d2565b60405161017e91906112dc565b60405180910390f35b6101a1600480360381019061019c919061142c565b6105f6565b005b6101bd60048036038101906101b8919061142c565b61079f565b005b6101d960048036038101906101d491906114ad565b610900565b005b6101e3610bde565b6040516101f091906114da565b60405180910390f35b610213600480360381019061020e919061142c565b610bf1565b005b61022f600480360381019061022a919061142c565b610de2565b005b610239610f8c565b6040516102469190611601565b60405180910390f35b600260009054906101000a900473ffffffffffffffffffffffffffffffffffffffff1681565b60006060600160009054906101000a900460ff16600880805461029790611652565b80601f01602080910402602001604051908101604052809291908181526020018280546102c390611652565b80156103105780601f106102e557610100808354040283529160200191610310565b820191906000526020600020905b8154815290600101906020018083116102f357829003601f168201915b50505050509050915091509091565b60005481565b60018054906101000a900473ffffffffffffffffffffffffffffffffffffffff1673ffffffffffffffffffffffffffffffffffffffff163373ffffffffffffffffffffffffffffffffffffffff16146103b3576040517f08c379a00000000000000000000000000000000000000000000000000000000081526004016103aa906116cf565b60405180910390fd5b600160048111156103c7576103c66110c1565b5b600160009054906101000a900460ff1660048111156103e9576103e86110c1565b5b14610429576040517f08c379a00000000000000000000000000000000000000000000000000000000081526004016104209061173b565b60405180910390fd5b600260009054906101000a900473ffffffffffffffffffffffffffffffffffffffff1673ffffffffffffffffffffffffffffffffffffffff166108fc479081150290604051600060405180830381858888f19350505050158015610491573d6000803e3d6000fd5b506002600160006101000a81548160ff021916908360048111156104b8576104b76110c1565b5b0217905550600480600181540180825580915050600190039060005260206000200160006040518060400160405280601b81526020017f4974656d207265636965766564206279207468652062757965722e0000000000815250909190915090816105239190611907565b50565b6004818154811061053657600080fd5b90600052602060002001600091509050805461055190611652565b80601f016020809104026020016040519081016040528092919081815260200182805461057d90611652565b80156105ca5780601f1061059f576101008083540402835291602001916105ca565b820191906000526020600020905b8154815290600101906020018083116105ad57829003601f168201915b505050505081565b60018054906101000a900473ffffffffffffffffffffffffffffffffffffffff1681565b60018054906101000a900473ffffffffffffffffffffffffffffffffffffffff1673ffffffffffffffffffffffffffffffffffffffff163373ffffffffffffffffffffffffffffffffffffffff1614610684576040517f08c379a000000000000000000000000000000000000000000000000000000000815260040161067b906116cf565b60405180910390fd5b60016004811115610698576106976110c1565b5b600160009054906101000a900460ff1660048111156106ba576106b96110c1565b5b146106fa576040517f08c379a00000000000000000000000000000000000000000000000000000000081526004016106f190611a4b565b60405180910390fd5b6003600160006101000a81548160ff021916908360048111156107205761071f6110c1565b5b021790555080600790816107349190611907565b50600480600181540180825580915050600190039060005260206000200160006040518060400160405280601881526020017f44697370757465206f70656e65642062792062757965722e00000000000000008152509091909150908161079b9190611907565b5050565b60018054906101000a900473ffffffffffffffffffffffffffffffffffffffff1673ffffffffffffffffffffffffffffffffffffffff163373ffffffffffffffffffffffffffffffffffffffff161461082d576040517f08c379a0000000000000000000000000000000000000000000000000000000008152600401610824906116cf565b60405180910390fd5b60036004811115610841576108406110c1565b5b600160009054906101000a900460ff166004811115610863576108626110c1565b5b146108a3576040517f08c379a000000000000000000000000000000000000000000000000000000000815260040161089a90611add565b60405180910390fd5b80600790816108b29190611907565b5060048060018154018082558091505060019003906000526020600020016000604051806060016040528060218152602001611d6660219139909190915090816108fc9190611907565b5050565b600360009054906101000a900473ffffffffffffffffffffffffffffffffffffffff1673ffffffffffffffffffffffffffffffffffffffff163373ffffffffffffffffffffffffffffffffffffffff1614610990576040517f08c379a000000000000000000000000000000000000000000000000000000000815260040161098790611b6f565b60405180910390fd5b600360048111156109a4576109a36110c1565b5b600160009054906101000a900460ff1660048111156109c6576109c56110c1565b5b14610a06576040517f08c379a00000000000000000000000000000000000000000000000000000000081526004016109fd90611bdb565b60405180910390fd5b8015610adf57600480600181540180825580915050600190039060005260206000200160006040518060400160405280601381526020017f42757965722077617320726566756e6465642e0000000000000000000000000081525090919091509081610a729190611907565b5060018054906101000a900473ffffffffffffffffffffffffffffffffffffffff1673ffffffffffffffffffffffffffffffffffffffff166108fc479081150290604051600060405180830381858888f19350505050158015610ad9573d6000803e3d6000fd5b50610bb0565b600480600181540180825580915050600190039060005260206000200160006040518060400160405280601481526020017f53656c6c65722077617320726566756e6465642e00000000000000000000000081525090919091509081610b459190611907565b50600260009054906101000a900473ffffffffffffffffffffffffffffffffffffffff1673ffffffffffffffffffffffffffffffffffffffff166108fc479081150290604051600060405180830381858888f19350505050158015610bae573d6000803e3d6000fd5b505b6004600160006101000a81548160ff02191690836004811115610bd657610bd56110c1565b5b021790555050565b600160009054906101000a900460ff1681565b600260009054906101000a900473ffffffffffffffffffffffffffffffffffffffff1673ffffffffffffffffffffffffffffffffffffffff163373ffffffffffffffffffffffffffffffffffffffff1614610c81576040517f08c379a0000000000000000000000000000000000000000000000000000000008152600401610c7890611c47565b60405180910390fd5b60036004811115610c9557610c946110c1565b5b600160009054906101000a900460ff166004811115610cb757610cb66110c1565b5b14610cf7576040517f08c379a0000000000000000000000000000000000000000000000000000000008152600401610cee90611add565b60405180910390fd5b60001515600560009054906101000a900460ff16151514610d4d576040517f08c379a0000000000000000000000000000000000000000000000000000000008152600401610d4490611cd9565b60405180910390fd5b6001600560006101000a81548160ff0219169083151502179055508060069081610d779190611907565b50600480600181540180825580915050600190039060005260206000200160006040518060400160405280601781526020017f53656c6c6572207375626d69747465642070726f6f662e00000000000000000081525090919091509081610dde9190611907565b5050565b600260009054906101000a900473ffffffffffffffffffffffffffffffffffffffff1673ffffffffffffffffffffffffffffffffffffffff163373ffffffffffffffffffffffffffffffffffffffff1614610e72576040517f08c379a0000000000000000000000000000000000000000000000000000000008152600401610e6990611c47565b60405180910390fd5b60006004811115610e8657610e856110c1565b5b600160009054906101000a900460ff166004811115610ea857610ea76110c1565b5b14610ee8576040517f08c379a0000000000000000000000000000000000000000000000000000000008152600401610edf90611d45565b60405180910390fd5b60018060006101000a81548160ff02191690836004811115610f0d57610f0c6110c1565b5b02179055508060089081610f219190611907565b50600480600181540180825580915050600190039060005260206000200160006040518060400160405280601881526020017f4974656d2073656e74206279207468652073656c6c65722e000000000000000081525090919091509081610f889190611907565b5050565b60606004805480602002602001604051908101604052809291908181526020016000905b8282101561105c578382906000526020600020018054610fcf90611652565b80601f0160208091040260200160405190810160405280929190818152602001828054610ffb90611652565b80156110485780601f1061101d57610100808354040283529160200191611048565b820191906000526020600020905b81548152906001019060200180831161102b57829003601f168201915b505050505081526020019060010190610fb0565b50505050905090565b600073ffffffffffffffffffffffffffffffffffffffff82169050919050565b600061109082611065565b9050919050565b6110a081611085565b82525050565b60006020820190506110bb6000830184611097565b92915050565b7f4e487b7100000000000000000000000000000000000000000000000000000000600052602160045260246000fd5b60058110611101576111006110c1565b5b50565b6000819050611112826110f0565b919050565b600061112282611104565b9050919050565b61113281611117565b82525050565b600081519050919050565b600082825260208201905092915050565b60005b83811015611172578082015181840152602081019050611157565b60008484015250505050565b6000601f19601f8301169050919050565b600061119a82611138565b6111a48185611143565b93506111b4818560208601611154565b6111bd8161117e565b840191505092915050565b60006040820190506111dd6000830185611129565b81810360208301526111ef818461118f565b90509392505050565b6000819050919050565b61120b816111f8565b82525050565b60006020820190506112266000830184611202565b92915050565b6000604051905090565b600080fd5b600080fd5b611249816111f8565b811461125457600080fd5b50565b60008135905061126681611240565b92915050565b60006020828403121561128257611281611236565b5b600061129084828501611257565b91505092915050565b600060208201905081810360008301526112b3818461118f565b905092915050565b60006112c682611065565b9050919050565b6112d6816112bb565b82525050565b60006020820190506112f160008301846112cd565b92915050565b600080fd5b600080fd5b7f4e487b7100000000000000000000000000000000000000000000000000000000600052604160045260246000fd5b6113398261117e565b810181811067ffffffffffffffff8211171561135857611357611301565b5b80604052505050565b600061136b61122c565b90506113778282611330565b919050565b600067ffffffffffffffff82111561139757611396611301565b5b6113a08261117e565b9050602081019050919050565b82818337600083830152505050565b60006113cf6113ca8461137c565b611361565b9050828152602081018484840111156113eb576113ea6112fc565b5b6113f68482856113ad565b509392505050565b600082601f830112611413576114126112f7565b5b81356114238482602086016113bc565b91505092915050565b60006020828403121561144257611441611236565b5b600082013567ffffffffffffffff8111156114605761145f61123b565b5b61146c848285016113fe565b91505092915050565b60008115159050919050565b61148a81611475565b811461149557600080fd5b50565b6000813590506114a781611481565b92915050565b6000602082840312156114c3576114c2611236565b5b60006114d184828501611498565b91505092915050565b60006020820190506114ef6000830184611129565b92915050565b600081519050919050565b600082825260208201905092915050565b6000819050602082019050919050565b600082825260208201905092915050565b600061153d82611138565b6115478185611521565b9350611557818560208601611154565b6115608161117e565b840191505092915050565b60006115778383611532565b905092915050565b6000602082019050919050565b6000611597826114f5565b6115a18185611500565b9350836020820285016115b385611511565b8060005b858110156115ef57848403895281516115d0858261156b565b94506115db8361157f565b925060208a019950506001810190506115b7565b50829750879550505050505092915050565b6000602082019050818103600083015261161b818461158c565b905092915050565b7f4e487b7100000000000000000000000000000000000000000000000000000000600052602260045260246000fd5b6000600282049050600182168061166a57607f821691505b60208210810361167d5761167c611623565b5b50919050565b7f4f6e6c792062757965722063616e2063616c6c2074686973206d6574686f6400600082015250565b60006116b9601f83611143565b91506116c482611683565b602082019050919050565b600060208201905081810360008301526116e8816116ac565b9050919050565b7f43616e6e6f7420636f6e6669726d2064656c6976657279000000000000000000600082015250565b6000611725601783611143565b9150611730826116ef565b602082019050919050565b6000602082019050818103600083015261175481611718565b9050919050565b60008190508160005260206000209050919050565b60006020601f8301049050919050565b600082821b905092915050565b6000600883026117bd7fffffffffffffffffffffffffffffffffffffffffffffffffffffffffffffffff82611780565b6117c78683611780565b95508019841693508086168417925050509392505050565b6000819050919050565b60006118046117ff6117fa846111f8565b6117df565b6111f8565b9050919050565b6000819050919050565b61181e836117e9565b61183261182a8261180b565b84845461178d565b825550505050565b600090565b61184761183a565b611852818484611815565b505050565b5b818110156118765761186b60008261183f565b600181019050611858565b5050565b601f8211156118bb5761188c8161175b565b61189584611770565b810160208510156118a4578190505b6118b86118b085611770565b830182611857565b50505b505050565b600082821c905092915050565b60006118de600019846008026118c0565b1980831691505092915050565b60006118f783836118cd565b9150826002028217905092915050565b61191082611138565b67ffffffffffffffff81111561192957611928611301565b5b6119338254611652565b61193e82828561187a565b600060209050601f831160018114611971576000841561195f578287015190505b61196985826118eb565b8655506119d1565b601f19841661197f8661175b565b60005b828110156119a757848901518255600182019150602085019450602081019050611982565b868310156119c457848901516119c0601f8916826118cd565b8355505b6001600288020188555050505b505050505050565b7f43616e6e6f74206f70656e20646973707574652061742074686973207374616760008201527f6500000000000000000000000000000000000000000000000000000000000000602082015250565b6000611a35602183611143565b9150611a40826119d9565b604082019050919050565b60006020820190508181036000830152611a6481611a28565b9050919050565b7f43616e6e6f74207375626d69742070726f6f6620776974686f757420616e206160008201527f637469766520646973707574652e000000000000000000000000000000000000602082015250565b6000611ac7602e83611143565b9150611ad282611a6b565b604082019050919050565b60006020820190508181036000830152611af681611aba565b9050919050565b7f4f6e6c792061726269747261746f722063616e2063616c6c2074686973206d6560008201527f74686f6400000000000000000000000000000000000000000000000000000000602082015250565b6000611b59602483611143565b9150611b6482611afd565b604082019050919050565b60006020820190508181036000830152611b8881611b4c565b9050919050565b7f4e6f206163746976652064697370757465000000000000000000000000000000600082015250565b6000611bc5601183611143565b9150611bd082611b8f565b602082019050919050565b60006020820190508181036000830152611bf481611bb8565b9050919050565b7f4f6e6c792073656c6c65722063616e2063616c6c2074686973206d6574686f64600082015250565b6000611c31602083611143565b9150611c3c82611bfb565b602082019050919050565b60006020820190508181036000830152611c6081611c24565b9050919050565b7f596f7527766520616c7265616479207375626d697474656420612070726f6f6660008201527f2e00000000000000000000000000000000000000000000000000000000000000602082015250565b6000611cc3602183611143565b9150611cce82611c67565b604082019050919050565b60006020820190508181036000830152611cf281611cb6565b9050919050565b7f43616e6e6f7420736869702e20496e636f7272656374207374617475732e0000600082015250565b6000611d2f601e83611143565b9150611d3a82611cf9565b602082019050919050565b60006020820190508181036000830152611d5e81611d22565b905091905056fe4275796572207375626d6974746564206164646974696f6e616c2070726f6f662ea2646970667358221220fd7ca1af1aeab374539622b3ca1344eafc651c4b71f6ff8c4a863320b300df7a64736f6c63430008180033",
  "linkReferences": {},
  "deployedLinkReferences": {}
}