{
  "_format": "hh-sol-artifact-1",
  "contractName": "Escrow",
  "sourceName": "contracts/Escrow.sol",
  "abi": [
    {
      "inputs": [
        {
          "internalType": "address",
          "name": "_buyer",
          "type": "address"
        },
        {
          "internalType": "address payable",
          "name": "_seller",
          "type": "address"
        }
      ],
      "stateMutability": "payable",
      "type": "constructor"
    },
    {
      "inputs": [],
      "name": "boughtAt",
      "outputs": [
        {
          "internalType": "uint256",
          "name": "",
          "type": "uint256"
        }
      ],
      "stateMutability": "view",
      "type": "function"
    },
    {
      "inputs": [],
      "name": "buyer",
      "outputs": [
        {
          "internalType": "address",
          "name": "",
          "type": "address"
        }
      ],
      "stateMutability": "view",
      "type": "function"
    },
    {
      "inputs": [],
      "name": "confirmDelivery",
      "outputs": [],
      "stateMutability": "nonpayable",
      "type": "function"
    },
    {
      "inputs": [],
      "name": "currState",
      "outputs": [
        {
          "internalType": "enum Escrow.State",
          "name": "",
          "type": "uint8"
        }
      ],
      "stateMutability": "view",
      "type": "function"
    },
    {
      "inputs": [
        {
          "internalType": "uint256",
          "name": "",
          "type": "uint256"
        }
      ],
      "name": "disputeHistory",
      "outputs": [
        {
          "internalType": "string",
          "name": "",
          "type": "string"
        }
      ],
      "stateMutability": "view",
      "type": "function"
    },
    {
      "inputs": [],
      "name": "getDisputeHistory",
      "outputs": [
        {
          "internalType": "string[]",
          "name": "",
          "type": "string[]"
        }
      ],
      "stateMutability": "view",
      "type": "function"
    },
    {
      "inputs": [],
      "name": "openSellerDispute",
      "outputs": [],
      "stateMutability": "nonpayable",
      "type": "function"
    },
    {
      "inputs": [
        {
          "internalType": "bool",
          "name": "refundBuyer",
          "type": "bool"
        }
      ],
      "name": "resolveDispute",
      "outputs": [],
      "stateMutability": "nonpayable",
      "type": "function"
    },
    {
      "inputs": [],
      "name": "seller",
      "outputs": [
        {
          "internalType": "address payable",
          "name": "",
          "type": "address"
        }
      ],
      "stateMutability": "view",
      "type": "function"
    },
    {
      "inputs": [
        {
          "internalType": "string",
          "name": "proof",
          "type": "string"
        }
      ],
      "name": "submitSellerProof",
      "outputs": [],
      "stateMutability": "nonpayable",
      "type": "function"
    }
  ],
  "bytecode": "0x60806040526040516200195a3803806200195a833981810160405281019062000029919062000206565b816001806101000a81548173ffffffffffffffffffffffffffffffffffffffff021916908373ffffffffffffffffffffffffffffffffffffffff16021790555080600260006101000a81548173ffffffffffffffffffffffffffffffffffffffff021916908373ffffffffffffffffffffffffffffffffffffffff160217905550736a7d3230514ee0e8078f23cf65b367d9984b055a600360006101000a81548173ffffffffffffffffffffffffffffffffffffffff021916908373ffffffffffffffffffffffffffffffffffffffff1602179055506000600160006101000a81548160ff021916908360048111156200012857620001276200024d565b5b02179055506000600560006101000a81548160ff0219169083151502179055504260008190555050506200027c565b600080fd5b600073ffffffffffffffffffffffffffffffffffffffff82169050919050565b600062000189826200015c565b9050919050565b6200019b816200017c565b8114620001a757600080fd5b50565b600081519050620001bb8162000190565b92915050565b6000620001ce826200015c565b9050919050565b620001e081620001c1565b8114620001ec57600080fd5b50565b6000815190506200020081620001d5565b92915050565b6000806040838503121562000220576200021f62000157565b5b60006200023085828601620001aa565b92505060206200024385828601620001ef565b9150509250929050565b7f4e487b7100000000000000000000000000000000000000000000000000000000600052602160045260246000fd5b6116ce806200028c6000396000f3fe608060405234801561001057600080fd5b506004361061009e5760003560e01c80637150d8ae116100665780637150d8ae1461012357806389e1e82a14610141578063afe010431461015d578063c00ccd541461017b578063eaaf0b63146101975761009e565b806308551a53146100a35780631ed1593e146100c15780635b0222bb146100cb5780635e10177b146100e957806364e6aa52146100f3575b600080fd5b6100ab6101b5565b6040516100b89190610b99565b60405180910390f35b6100c96101db565b005b6100d3610375565b6040516100e09190610bcd565b60405180910390f35b6100f161037b565b005b61010d60048036038101906101089190610c28565b610514565b60405161011a9190610ce5565b60405180910390f35b61012b6105c0565b6040516101389190610d28565b60405180910390f35b61015b60048036038101906101569190610d7b565b6105e4565b005b6101656108c2565b6040516101729190610e1f565b60405180910390f35b61019560048036038101906101909190610f6f565b6108d5565b005b61019f610a7f565b6040516101ac91906110c4565b60405180910390f35b600260009054906101000a900473ffffffffffffffffffffffffffffffffffffffff1681565b600260009054906101000a900473ffffffffffffffffffffffffffffffffffffffff1673ffffffffffffffffffffffffffffffffffffffff163373ffffffffffffffffffffffffffffffffffffffff161461026b576040517f08c379a000000000000000000000000000000000000000000000000000000000815260040161026290611132565b60405180910390fd5b6000600481111561027f5761027e610da8565b5b600160009054906101000a900460ff1660048111156102a1576102a0610da8565b5b146102e1576040517f08c379a00000000000000000000000000000000000000000000000000000000081526004016102d8906111c4565b60405180910390fd5b6002600160006101000a81548160ff0219169083600481111561030757610306610da8565b5b0217905550600480600181540180825580915050600190039060005260206000200160006040518060400160405280601981526020017f44697370757465206f70656e65642062792073656c6c65722e000000000000008152509091909150908161037291906113f0565b50565b60005481565b60018054906101000a900473ffffffffffffffffffffffffffffffffffffffff1673ffffffffffffffffffffffffffffffffffffffff163373ffffffffffffffffffffffffffffffffffffffff1614610409576040517f08c379a00000000000000000000000000000000000000000000000000000000081526004016104009061150e565b60405180910390fd5b6000600481111561041d5761041c610da8565b5b600160009054906101000a900460ff16600481111561043f5761043e610da8565b5b1461047f576040517f08c379a00000000000000000000000000000000000000000000000000000000081526004016104769061157a565b60405180910390fd5b600260009054906101000a900473ffffffffffffffffffffffffffffffffffffffff1673ffffffffffffffffffffffffffffffffffffffff166108fc479081150290604051600060405180830381858888f193505050501580156104e7573d6000803e3d6000fd5b5060018060006101000a81548160ff0219169083600481111561050d5761050c610da8565b5b0217905550565b6004818154811061052457600080fd5b90600052602060002001600091509050805461053f90611213565b80601f016020809104026020016040519081016040528092919081815260200182805461056b90611213565b80156105b85780601f1061058d576101008083540402835291602001916105b8565b820191906000526020600020905b81548152906001019060200180831161059b57829003601f168201915b505050505081565b60018054906101000a900473ffffffffffffffffffffffffffffffffffffffff1681565b600360009054906101000a900473ffffffffffffffffffffffffffffffffffffffff1673ffffffffffffffffffffffffffffffffffffffff163373ffffffffffffffffffffffffffffffffffffffff1614610674576040517f08c379a000000000000000000000000000000000000000000000000000000000815260040161066b9061160c565b60405180910390fd5b6002600481111561068857610687610da8565b5b600160009054906101000a900460ff1660048111156106aa576106a9610da8565b5b146106ea576040517f08c379a00000000000000000000000000000000000000000000000000000000081526004016106e190611678565b60405180910390fd5b80156107c357600480600181540180825580915050600190039060005260206000200160006040518060400160405280601381526020017f42757965722077617320726566756e6465642e000000000000000000000000008152509091909150908161075691906113f0565b5060018054906101000a900473ffffffffffffffffffffffffffffffffffffffff1673ffffffffffffffffffffffffffffffffffffffff166108fc479081150290604051600060405180830381858888f193505050501580156107bd573d6000803e3d6000fd5b50610894565b600480600181540180825580915050600190039060005260206000200160006040518060400160405280601481526020017f53656c6c65722077617320726566756e6465642e0000000000000000000000008152509091909150908161082991906113f0565b50600260009054906101000a900473ffffffffffffffffffffffffffffffffffffffff1673ffffffffffffffffffffffffffffffffffffffff166108fc479081150290604051600060405180830381858888f19350505050158015610892573d6000803e3d6000fd5b505b6004600160006101000a81548160ff021916908360048111156108ba576108b9610da8565b5b021790555050565b600160009054906101000a900460ff1681565b600260009054906101000a900473ffffffffffffffffffffffffffffffffffffffff1673ffffffffffffffffffffffffffffffffffffffff163373ffffffffffffffffffffffffffffffffffffffff1614610965576040517f08c379a000000000000000000000000000000000000000000000000000000000815260040161095c90611132565b60405180910390fd5b6001600481111561097957610978610da8565b5b600160009054906101000a900460ff16600481111561099b5761099a610da8565b5b036109db576040517f08c379a00000000000000000000000000000000000000000000000000000000081526004016109d2906111c4565b60405180910390fd5b600060048111156109ef576109ee610da8565b5b600160009054906101000a900460ff166004811115610a1157610a10610da8565b5b03610a51576040517f08c379a0000000000000000000000000000000000000000000000000000000008152600401610a48906111c4565b60405180910390fd5b6001600560006101000a81548160ff0219169083151502179055508060069081610a7b91906113f0565b5050565b60606004805480602002602001604051908101604052809291908181526020016000905b82821015610b4f578382906000526020600020018054610ac290611213565b80601f0160208091040260200160405190810160405280929190818152602001828054610aee90611213565b8015610b3b5780601f10610b1057610100808354040283529160200191610b3b565b820191906000526020600020905b815481529060010190602001808311610b1e57829003601f168201915b505050505081526020019060010190610aa3565b50505050905090565b600073ffffffffffffffffffffffffffffffffffffffff82169050919050565b6000610b8382610b58565b9050919050565b610b9381610b78565b82525050565b6000602082019050610bae6000830184610b8a565b92915050565b6000819050919050565b610bc781610bb4565b82525050565b6000602082019050610be26000830184610bbe565b92915050565b6000604051905090565b600080fd5b600080fd5b610c0581610bb4565b8114610c1057600080fd5b50565b600081359050610c2281610bfc565b92915050565b600060208284031215610c3e57610c3d610bf2565b5b6000610c4c84828501610c13565b91505092915050565b600081519050919050565b600082825260208201905092915050565b60005b83811015610c8f578082015181840152602081019050610c74565b60008484015250505050565b6000601f19601f8301169050919050565b6000610cb782610c55565b610cc18185610c60565b9350610cd1818560208601610c71565b610cda81610c9b565b840191505092915050565b60006020820190508181036000830152610cff8184610cac565b905092915050565b6000610d1282610b58565b9050919050565b610d2281610d07565b82525050565b6000602082019050610d3d6000830184610d19565b92915050565b60008115159050919050565b610d5881610d43565b8114610d6357600080fd5b50565b600081359050610d7581610d4f565b92915050565b600060208284031215610d9157610d90610bf2565b5b6000610d9f84828501610d66565b91505092915050565b7f4e487b7100000000000000000000000000000000000000000000000000000000600052602160045260246000fd5b60058110610de857610de7610da8565b5b50565b6000819050610df982610dd7565b919050565b6000610e0982610deb565b9050919050565b610e1981610dfe565b82525050565b6000602082019050610e346000830184610e10565b92915050565b600080fd5b600080fd5b7f4e487b7100000000000000000000000000000000000000000000000000000000600052604160045260246000fd5b610e7c82610c9b565b810181811067ffffffffffffffff82111715610e9b57610e9a610e44565b5b80604052505050565b6000610eae610be8565b9050610eba8282610e73565b919050565b600067ffffffffffffffff821115610eda57610ed9610e44565b5b610ee382610c9b565b9050602081019050919050565b82818337600083830152505050565b6000610f12610f0d84610ebf565b610ea4565b905082815260208101848484011115610f2e57610f2d610e3f565b5b610f39848285610ef0565b509392505050565b600082601f830112610f5657610f55610e3a565b5b8135610f66848260208601610eff565b91505092915050565b600060208284031215610f8557610f84610bf2565b5b600082013567ffffffffffffffff811115610fa357610fa2610bf7565b5b610faf84828501610f41565b91505092915050565b600081519050919050565b600082825260208201905092915050565b6000819050602082019050919050565b600082825260208201905092915050565b600061100082610c55565b61100a8185610fe4565b935061101a818560208601610c71565b61102381610c9b565b840191505092915050565b600061103a8383610ff5565b905092915050565b6000602082019050919050565b600061105a82610fb8565b6110648185610fc3565b93508360208202850161107685610fd4565b8060005b858110156110b25784840389528151611093858261102e565b945061109e83611042565b925060208a0199505060018101905061107a565b50829750879550505050505092915050565b600060208201905081810360008301526110de818461104f565b905092915050565b7f4f6e6c792073656c6c65722063616e2063616c6c2074686973206d6574686f64600082015250565b600061111c602083610c60565b9150611127826110e6565b602082019050919050565b6000602082019050818103600083015261114b8161110f565b9050919050565b7f43616e6e6f74206f70656e20646973707574652061742074686973207374616760008201527f6500000000000000000000000000000000000000000000000000000000000000602082015250565b60006111ae602183610c60565b91506111b982611152565b604082019050919050565b600060208201905081810360008301526111dd816111a1565b9050919050565b7f4e487b7100000000000000000000000000000000000000000000000000000000600052602260045260246000fd5b6000600282049050600182168061122b57607f821691505b60208210810361123e5761123d6111e4565b5b50919050565b60008190508160005260206000209050919050565b60006020601f8301049050919050565b600082821b905092915050565b6000600883026112a67fffffffffffffffffffffffffffffffffffffffffffffffffffffffffffffffff82611269565b6112b08683611269565b95508019841693508086168417925050509392505050565b6000819050919050565b60006112ed6112e86112e384610bb4565b6112c8565b610bb4565b9050919050565b6000819050919050565b611307836112d2565b61131b611313826112f4565b848454611276565b825550505050565b600090565b611330611323565b61133b8184846112fe565b505050565b5b8181101561135f57611354600082611328565b600181019050611341565b5050565b601f8211156113a45761137581611244565b61137e84611259565b8101602085101561138d578190505b6113a161139985611259565b830182611340565b50505b505050565b600082821c905092915050565b60006113c7600019846008026113a9565b1980831691505092915050565b60006113e083836113b6565b9150826002028217905092915050565b6113f982610c55565b67ffffffffffffffff81111561141257611411610e44565b5b61141c8254611213565b611427828285611363565b600060209050601f83116001811461145a5760008415611448578287015190505b61145285826113d4565b8655506114ba565b601f19841661146886611244565b60005b828110156114905784890151825560018201915060208501945060208101905061146b565b868310156114ad57848901516114a9601f8916826113b6565b8355505b6001600288020188555050505b505050505050565b7f4f6e6c792062757965722063616e2063616c6c2074686973206d6574686f6400600082015250565b60006114f8601f83610c60565b9150611503826114c2565b602082019050919050565b60006020820190508181036000830152611527816114eb565b9050919050565b7f43616e6e6f7420636f6e6669726d2064656c6976657279000000000000000000600082015250565b6000611564601783610c60565b915061156f8261152e565b602082019050919050565b6000602082019050818103600083015261159381611557565b9050919050565b7f4f6e6c792061726269747261746f722063616e2063616c6c2074686973206d6560008201527f74686f6400000000000000000000000000000000000000000000000000000000602082015250565b60006115f6602483610c60565b91506116018261159a565b604082019050919050565b60006020820190508181036000830152611625816115e9565b9050919050565b7f4e6f206163746976652064697370757465000000000000000000000000000000600082015250565b6000611662601183610c60565b915061166d8261162c565b602082019050919050565b6000602082019050818103600083015261169181611655565b905091905056fea2646970667358221220778ed4cef36e57f6bfca0f6f5ab45df31618a604fea10f7ee4b02817b70ebf8e64736f6c63430008180033",
  "linkReferences": {},
  "deployedLinkReferences": {}
}