{
  "_format": "hh-sol-artifact-1",
  "contractName": "Escrow",
  "sourceName": "contracts/Escrow.sol",
  "abi": [
    {
      "inputs": [
        {
          "internalType": "uint256",
          "name": "",
          "type": "uint256"
        }
      ],
      "name": "agreements",
      "outputs": [
        {
          "internalType": "address",
          "name": "buyer",
          "type": "address"
        },
        {
          "internalType": "address",
          "name": "seller",
          "type": "address"
        },
        {
          "internalType": "address",
          "name": "arbitrator",
          "type": "address"
        },
        {
          "internalType": "uint256",
          "name": "amount",
          "type": "uint256"
        },
        {
          "internalType": "bool",
          "name": "buyerIn",
          "type": "bool"
        },
        {
          "internalType": "bool",
          "name": "sellerIn",
          "type": "bool"
        },
        {
          "internalType": "uint256",
          "name": "purchaseDateTime",
          "type": "uint256"
        },
        {
          "internalType": "uint256",
          "name": "productId",
          "type": "uint256"
        }
      ],
      "stateMutability": "view",
      "type": "function"
    },
    {
      "inputs": [
        {
          "internalType": "uint256",
          "name": "_id",
          "type": "uint256"
        },
        {
          "internalType": "address",
          "name": "_winner",
          "type": "address"
        }
      ],
      "name": "complete",
      "outputs": [],
      "stateMutability": "nonpayable",
      "type": "function"
    },
    {
      "inputs": [
        {
          "internalType": "uint256",
          "name": "_id",
          "type": "uint256"
        }
      ],
      "name": "deposit",
      "outputs": [],
      "stateMutability": "payable",
      "type": "function"
    },
    {
      "inputs": [
        {
          "internalType": "uint256",
          "name": "productId",
          "type": "uint256"
        }
      ],
      "name": "isProductInAgreements",
      "outputs": [
        {
          "internalType": "bool",
          "name": "",
          "type": "bool"
        }
      ],
      "stateMutability": "view",
      "type": "function"
    },
    {
      "inputs": [
        {
          "internalType": "address",
          "name": "_buyer",
          "type": "address"
        },
        {
          "internalType": "address",
          "name": "_seller",
          "type": "address"
        },
        {
          "internalType": "uint256",
          "name": "_amount",
          "type": "uint256"
        },
        {
          "internalType": "uint256",
          "name": "purchaseTime",
          "type": "uint256"
        },
        {
          "internalType": "uint256",
          "name": "productId",
          "type": "uint256"
        }
      ],
      "name": "newAgreement",
      "outputs": [
        {
          "internalType": "uint256",
          "name": "",
          "type": "uint256"
        }
      ],
      "stateMutability": "nonpayable",
      "type": "function"
    },
    {
      "inputs": [
        {
          "internalType": "uint256",
          "name": "_id",
          "type": "uint256"
        }
      ],
      "name": "refund",
      "outputs": [],
      "stateMutability": "nonpayable",
      "type": "function"
    }
  ],
  "bytecode": "0x608060405234801561001057600080fd5b506114a0806100206000396000f3fe6080604052600436106100555760003560e01c806323cb22a21461005a578063278ecde114610097578063768038c3146100c05780639a397bad146100e9578063b6b55f2514610126578063bd14de9614610142575b600080fd5b34801561006657600080fd5b50610081600480360381019061007c9190611000565b610186565b60405161008e919061108a565b60405180910390f35b3480156100a357600080fd5b506100be60048036038101906100b991906110a5565b6103f5565b005b3480156100cc57600080fd5b506100e760048036038101906100e291906110d2565b61074c565b005b3480156100f557600080fd5b50610110600480360381019061010b91906110a5565b610c5a565b60405161011d919061112d565b60405180910390f35b610140600480360381019061013b91906110a5565b610cbd565b005b34801561014e57600080fd5b50610169600480360381019061016491906110a5565b610e95565b60405161017d989796959493929190611157565b60405180910390f35b60008473ffffffffffffffffffffffffffffffffffffffff168673ffffffffffffffffffffffffffffffffffffffff16036101f6576040517f08c379a00000000000000000000000000000000000000000000000000000000081526004016101ed90611232565b60405180910390fd5b60006040518061010001604052808873ffffffffffffffffffffffffffffffffffffffff1681526020018773ffffffffffffffffffffffffffffffffffffffff1681526020013373ffffffffffffffffffffffffffffffffffffffff16815260200186815260200160001515815260200160001515815260200185815260200184815250908060018154018082558091505060019003906000526020600020906007020160009091909190915060008201518160000160006101000a81548173ffffffffffffffffffffffffffffffffffffffff021916908373ffffffffffffffffffffffffffffffffffffffff16021790555060208201518160010160006101000a81548173ffffffffffffffffffffffffffffffffffffffff021916908373ffffffffffffffffffffffffffffffffffffffff16021790555060408201518160020160006101000a81548173ffffffffffffffffffffffffffffffffffffffff021916908373ffffffffffffffffffffffffffffffffffffffff1602179055506060820151816003015560808201518160040160006101000a81548160ff02191690831515021790555060a08201518160040160016101000a81548160ff02191690831515021790555060c0820151816005015560e08201518160060155505060016000805490506103ea9190611281565b905095945050505050565b60008181548110610409576104086112b5565b5b906000526020600020906007020160000160009054906101000a900473ffffffffffffffffffffffffffffffffffffffff1673ffffffffffffffffffffffffffffffffffffffff163373ffffffffffffffffffffffffffffffffffffffff161480156104ab57506001151560008281548110610488576104876112b5565b5b906000526020600020906007020160040160009054906101000a900460ff161515145b1561059f5760008082815481106104c5576104c46112b5565b5b906000526020600020906007020160040160006101000a81548160ff02191690831515021790555060008181548110610501576105006112b5565b5b906000526020600020906007020160000160009054906101000a900473ffffffffffffffffffffffffffffffffffffffff1673ffffffffffffffffffffffffffffffffffffffff166108fc600083815481106105605761055f6112b5565b5b9060005260206000209060070201600301549081150290604051600060405180830381858888f1935050505015801561059d573d6000803e3d6000fd5b505b600081815481106105b3576105b26112b5565b5b906000526020600020906007020160010160009054906101000a900473ffffffffffffffffffffffffffffffffffffffff1673ffffffffffffffffffffffffffffffffffffffff163373ffffffffffffffffffffffffffffffffffffffff1614801561065557506001151560008281548110610632576106316112b5565b5b906000526020600020906007020160040160019054906101000a900460ff161515145b1561074957600080828154811061066f5761066e6112b5565b5b906000526020600020906007020160040160016101000a81548160ff021916908315150217905550600081815481106106ab576106aa6112b5565b5b906000526020600020906007020160010160009054906101000a900473ffffffffffffffffffffffffffffffffffffffff1673ffffffffffffffffffffffffffffffffffffffff166108fc6000838154811061070a576107096112b5565b5b9060005260206000209060070201600301549081150290604051600060405180830381858888f19350505050158015610747573d6000803e3d6000fd5b505b50565b600082815481106107605761075f6112b5565b5b906000526020600020906007020160020160009054906101000a900473ffffffffffffffffffffffffffffffffffffffff1673ffffffffffffffffffffffffffffffffffffffff163373ffffffffffffffffffffffffffffffffffffffff16146107ff576040517f08c379a00000000000000000000000000000000000000000000000000000000081526004016107f690611330565b60405180910390fd5b6001151560008381548110610817576108166112b5565b5b906000526020600020906007020160040160009054906101000a900460ff16151514610878576040517f08c379a000000000000000000000000000000000000000000000000000000000815260040161086f9061139c565b60405180910390fd5b60011515600083815481106108905761088f6112b5565b5b906000526020600020906007020160040160019054906101000a900460ff161515146108f1576040517f08c379a00000000000000000000000000000000000000000000000000000000081526004016108e890611408565b60405180910390fd5b8073ffffffffffffffffffffffffffffffffffffffff166000838154811061091c5761091b6112b5565b5b906000526020600020906007020160000160009054906101000a900473ffffffffffffffffffffffffffffffffffffffff1673ffffffffffffffffffffffffffffffffffffffff1603610aa557600080838154811061097e5761097d6112b5565b5b906000526020600020906007020160040160006101000a81548160ff02191690831515021790555060008083815481106109bb576109ba6112b5565b5b906000526020600020906007020160040160016101000a81548160ff021916908315150217905550600082815481106109f7576109f66112b5565b5b906000526020600020906007020160000160009054906101000a900473ffffffffffffffffffffffffffffffffffffffff1673ffffffffffffffffffffffffffffffffffffffff166108fc600260008581548110610a5857610a576112b5565b5b906000526020600020906007020160030154610a749190611428565b9081150290604051600060405180830381858888f19350505050158015610a9f573d6000803e3d6000fd5b50610c56565b8073ffffffffffffffffffffffffffffffffffffffff1660008381548110610ad057610acf6112b5565b5b906000526020600020906007020160010160009054906101000a900473ffffffffffffffffffffffffffffffffffffffff1673ffffffffffffffffffffffffffffffffffffffff1603610c55576000808381548110610b3257610b316112b5565b5b906000526020600020906007020160040160006101000a81548160ff0219169083151502179055506000808381548110610b6f57610b6e6112b5565b5b906000526020600020906007020160040160016101000a81548160ff02191690831515021790555060008281548110610bab57610baa6112b5565b5b906000526020600020906007020160010160009054906101000a900473ffffffffffffffffffffffffffffffffffffffff1673ffffffffffffffffffffffffffffffffffffffff166108fc600260008581548110610c0c57610c0b6112b5565b5b906000526020600020906007020160030154610c289190611428565b9081150290604051600060405180830381858888f19350505050158015610c53573d6000803e3d6000fd5b505b5b5050565b600080600090505b600080549050811015610cb2578260008281548110610c8457610c836112b5565b5b90600052602060002090600702016006015403610ca5576001915050610cb8565b8080600101915050610c62565b50600090505b919050565b60008181548110610cd157610cd06112b5565b5b906000526020600020906007020160000160009054906101000a900473ffffffffffffffffffffffffffffffffffffffff1673ffffffffffffffffffffffffffffffffffffffff163373ffffffffffffffffffffffffffffffffffffffff16148015610d61575060008181548110610d4c57610d4b6112b5565b5b90600052602060002090600702016003015434145b15610da957600160008281548110610d7c57610d7b6112b5565b5b906000526020600020906007020160040160006101000a81548160ff021916908315150217905550610e92565b60008181548110610dbd57610dbc6112b5565b5b906000526020600020906007020160010160009054906101000a900473ffffffffffffffffffffffffffffffffffffffff1673ffffffffffffffffffffffffffffffffffffffff163373ffffffffffffffffffffffffffffffffffffffff16148015610e4d575060008181548110610e3857610e376112b5565b5b90600052602060002090600702016003015434145b15610e9157600160008281548110610e6857610e676112b5565b5b906000526020600020906007020160040160016101000a81548160ff0219169083151502179055505b5b50565b60008181548110610ea557600080fd5b90600052602060002090600702016000915090508060000160009054906101000a900473ffffffffffffffffffffffffffffffffffffffff16908060010160009054906101000a900473ffffffffffffffffffffffffffffffffffffffff16908060020160009054906101000a900473ffffffffffffffffffffffffffffffffffffffff16908060030154908060040160009054906101000a900460ff16908060040160019054906101000a900460ff16908060050154908060060154905088565b600080fd5b600073ffffffffffffffffffffffffffffffffffffffff82169050919050565b6000610f9782610f6c565b9050919050565b610fa781610f8c565b8114610fb257600080fd5b50565b600081359050610fc481610f9e565b92915050565b6000819050919050565b610fdd81610fca565b8114610fe857600080fd5b50565b600081359050610ffa81610fd4565b92915050565b600080600080600060a0868803121561101c5761101b610f67565b5b600061102a88828901610fb5565b955050602061103b88828901610fb5565b945050604061104c88828901610feb565b935050606061105d88828901610feb565b925050608061106e88828901610feb565b9150509295509295909350565b61108481610fca565b82525050565b600060208201905061109f600083018461107b565b92915050565b6000602082840312156110bb576110ba610f67565b5b60006110c984828501610feb565b91505092915050565b600080604083850312156110e9576110e8610f67565b5b60006110f785828601610feb565b925050602061110885828601610fb5565b9150509250929050565b60008115159050919050565b61112781611112565b82525050565b6000602082019050611142600083018461111e565b92915050565b61115181610f8c565b82525050565b60006101008201905061116d600083018b611148565b61117a602083018a611148565b6111876040830189611148565b611194606083018861107b565b6111a1608083018761111e565b6111ae60a083018661111e565b6111bb60c083018561107b565b6111c860e083018461107b565b9998505050505050505050565b600082825260208201905092915050565b7f73616d6520627579657220616e642073656c6c65720000000000000000000000600082015250565b600061121c6015836111d5565b9150611227826111e6565b602082019050919050565b6000602082019050818103600083015261124b8161120f565b9050919050565b7f4e487b7100000000000000000000000000000000000000000000000000000000600052601160045260246000fd5b600061128c82610fca565b915061129783610fca565b92508282039050818111156112af576112ae611252565b5b92915050565b7f4e487b7100000000000000000000000000000000000000000000000000000000600052603260045260246000fd5b7f4f6e6c792061726269747261746f722063616e20636f6d706c65746500000000600082015250565b600061131a601c836111d5565b9150611325826112e4565b602082019050919050565b600060208201905081810360008301526113498161130d565b9050919050565b7f627579657220686173206e6f7420706169640000000000000000000000000000600082015250565b60006113866012836111d5565b915061139182611350565b602082019050919050565b600060208201905081810360008301526113b581611379565b9050919050565b7f73656c6c657220686173206e6f74207061696400000000000000000000000000600082015250565b60006113f26013836111d5565b91506113fd826113bc565b602082019050919050565b60006020820190508181036000830152611421816113e5565b9050919050565b600061143382610fca565b915061143e83610fca565b925082820261144c81610fca565b9150828204841483151761146357611462611252565b5b509291505056fea26469706673582212209531e06a5af0c3028437363ae8dd19e849b28fe4fe5721bffe02a0a9a25afc2264736f6c63430008180033",
  "linkReferences": {},
  "deployedLinkReferences": {}
}