{
  "_format": "hh-sol-artifact-1",
  "contractName": "Escrow",
  "sourceName": "contracts/Escrow.sol",
  "abi": [
    {
      "inputs": [
        {
          "internalType": "address payable",
          "name": "_buyer",
          "type": "address"
        },
        {
          "internalType": "address payable",
          "name": "_seller",
          "type": "address"
        }
      ],
      "stateMutability": "payable",
      "type": "constructor"
    },
    {
      "inputs": [],
      "name": "boughtAt",
      "outputs": [
        {
          "internalType": "uint256",
          "name": "",
          "type": "uint256"
        }
      ],
      "stateMutability": "view",
      "type": "function"
    },
    {
      "inputs": [],
      "name": "buyer",
      "outputs": [
        {
          "internalType": "address payable",
          "name": "",
          "type": "address"
        }
      ],
      "stateMutability": "view",
      "type": "function"
    },
    {
      "inputs": [],
      "name": "buyerProof",
      "outputs": [
        {
          "internalType": "string",
          "name": "",
          "type": "string"
        }
      ],
      "stateMutability": "view",
      "type": "function"
    },
    {
      "inputs": [],
      "name": "confirmDelivery",
      "outputs": [],
      "stateMutability": "nonpayable",
      "type": "function"
    },
    {
      "inputs": [],
      "name": "currState",
      "outputs": [
        {
          "internalType": "enum Escrow.State",
          "name": "",
          "type": "uint8"
        }
      ],
      "stateMutability": "view",
      "type": "function"
    },
    {
      "inputs": [
        {
          "internalType": "uint256",
          "name": "",
          "type": "uint256"
        }
      ],
      "name": "disputeHistory",
      "outputs": [
        {
          "internalType": "string",
          "name": "",
          "type": "string"
        }
      ],
      "stateMutability": "view",
      "type": "function"
    },
    {
      "inputs": [],
      "name": "getDisputeHistory",
      "outputs": [
        {
          "internalType": "string[]",
          "name": "",
          "type": "string[]"
        },
        {
          "internalType": "string",
          "name": "",
          "type": "string"
        },
        {
          "internalType": "string",
          "name": "",
          "type": "string"
        }
      ],
      "stateMutability": "view",
      "type": "function"
    },
    {
      "inputs": [],
      "name": "getState",
      "outputs": [
        {
          "internalType": "enum Escrow.State",
          "name": "",
          "type": "uint8"
        },
        {
          "internalType": "string",
          "name": "",
          "type": "string"
        },
        {
          "internalType": "string",
          "name": "",
          "type": "string"
        },
        {
          "internalType": "string",
          "name": "",
          "type": "string"
        }
      ],
      "stateMutability": "view",
      "type": "function"
    },
    {
      "inputs": [],
      "name": "isDisputeOpen",
      "outputs": [
        {
          "internalType": "bool",
          "name": "",
          "type": "bool"
        }
      ],
      "stateMutability": "view",
      "type": "function"
    },
    {
      "inputs": [],
      "name": "openDispute",
      "outputs": [],
      "stateMutability": "nonpayable",
      "type": "function"
    },
    {
      "inputs": [],
      "name": "refundBuyerForCancelItem",
      "outputs": [],
      "stateMutability": "payable",
      "type": "function"
    },
    {
      "inputs": [
        {
          "internalType": "bool",
          "name": "refundBuyer",
          "type": "bool"
        }
      ],
      "name": "resolveDispute",
      "outputs": [],
      "stateMutability": "payable",
      "type": "function"
    },
    {
      "inputs": [],
      "name": "seller",
      "outputs": [
        {
          "internalType": "address payable",
          "name": "",
          "type": "address"
        }
      ],
      "stateMutability": "view",
      "type": "function"
    },
    {
      "inputs": [],
      "name": "sellerProof",
      "outputs": [
        {
          "internalType": "string",
          "name": "",
          "type": "string"
        }
      ],
      "stateMutability": "view",
      "type": "function"
    },
    {
      "inputs": [
        {
          "internalType": "string",
          "name": "_tracking",
          "type": "string"
        }
      ],
      "name": "ship",
      "outputs": [],
      "stateMutability": "nonpayable",
      "type": "function"
    },
    {
      "inputs": [
        {
          "internalType": "string",
          "name": "proof",
          "type": "string"
        }
      ],
      "name": "submitBuyerProof",
      "outputs": [],
      "stateMutability": "nonpayable",
      "type": "function"
    },
    {
      "inputs": [
        {
          "internalType": "string",
          "name": "proof",
          "type": "string"
        }
      ],
      "name": "submitSellerProof",
      "outputs": [],
      "stateMutability": "nonpayable",
      "type": "function"
    },
    {
      "inputs": [],
      "name": "trackingNumber",
      "outputs": [
        {
          "internalType": "string",
          "name": "",
          "type": "string"
        }
      ],
      "stateMutability": "view",
      "type": "function"
    }
  ],
  "bytecode": "0x608060405260405162001a8338038062001a83833981016040819052620000269162000124565b60018054600280546001600160a01b038581166001600160a01b03199283161790925560038054909116736a7d3230514ee0e8078f23cf65b367d9984b055a17905584166101000260ff199081166001600160a81b0319909216919091178255600580549091169055426000908155600480549283018155905260408051808201909152600c81526b24ba32b6903137bab3b43a1760a11b60208201527f8a35acfbc15ff81a39ae7d344fd709f28e8600b4aa8c65c6b64bfe7fe36bd19b90910190620000f4908262000203565b50506008805460ff1916905550620002cf565b80516001600160a01b03811681146200011f57600080fd5b919050565b600080604083850312156200013857600080fd5b620001438362000107565b9150620001536020840162000107565b90509250929050565b634e487b7160e01b600052604160045260246000fd5b600181811c908216806200018757607f821691505b602082108103620001a857634e487b7160e01b600052602260045260246000fd5b50919050565b601f821115620001fe576000816000526020600020601f850160051c81016020861015620001d95750805b601f850160051c820191505b81811015620001fa57828155600101620001e5565b5050505b505050565b81516001600160401b038111156200021f576200021f6200015c565b620002378162000230845462000172565b84620001ae565b602080601f8311600181146200026f5760008415620002565750858301515b600019600386901b1c1916600185901b178555620001fa565b600085815260208120601f198616915b82811015620002a0578886015182559484019460019091019084016200027f565b5085821015620002bf5787850151600019600388901b60f8161c191681555b5050505050600190811b01905550565b6117a480620002df6000396000f3fe6080604052600436106101095760003560e01c80638285074b11610095578063c00ccd5411610064578063c00ccd541461029e578063d16f5b29146102be578063dd3fa136146102e8578063df8d93b414610308578063eaaf0b631461031d57600080fd5b80638285074b1461023c57806389e1e82a1461025c578063afe010431461026f578063be6cb8381461029657600080fd5b8063526ff16f116100dc578063526ff16f146101a95780635b0222bb146101be5780635e10177b146101e257806364e6aa52146101f75780637150d8ae1461021757600080fd5b806308551a531461010e5780631865c57d1461014b57806319561dae146101705780634fd6137c14610192575b600080fd5b34801561011a57600080fd5b5060025461012e906001600160a01b031681565b6040516001600160a01b0390911681526020015b60405180910390f35b34801561015757600080fd5b50610160610341565b60405161014294939291906112d5565b34801561017c57600080fd5b50610185610510565b6040516101429190611326565b34801561019e57600080fd5b506101a761059e565b005b3480156101b557600080fd5b506101856106bf565b3480156101ca57600080fd5b506101d460005481565b604051908152602001610142565b3480156101ee57600080fd5b506101a76106cc565b34801561020357600080fd5b50610185610212366004611340565b610804565b34801561022357600080fd5b5060015461012e9061010090046001600160a01b031681565b34801561024857600080fd5b506101a761025736600461136f565b61082f565b6101a761026a366004611420565b61095e565b34801561027b57600080fd5b506001546102899060ff1681565b6040516101429190611442565b6101a7610b2b565b3480156102aa57600080fd5b506101a76102b936600461136f565b610cb4565b3480156102ca57600080fd5b506008546102d89060ff1681565b6040519015158152602001610142565b3480156102f457600080fd5b506101a761030336600461136f565b610db6565b34801561031457600080fd5b50610185610fe4565b34801561032957600080fd5b50610332610ff1565b60405161014293929190611456565b60006060806060600160009054906101000a900460ff1660096006600782805461036a906114e2565b80601f0160208091040260200160405190810160405280929190818152602001828054610396906114e2565b80156103e35780601f106103b8576101008083540402835291602001916103e3565b820191906000526020600020905b8154815290600101906020018083116103c657829003601f168201915b505050505092508180546103f6906114e2565b80601f0160208091040260200160405190810160405280929190818152602001828054610422906114e2565b801561046f5780601f106104445761010080835404028352916020019161046f565b820191906000526020600020905b81548152906001019060200180831161045257829003601f168201915b50505050509150808054610482906114e2565b80601f01602080910402602001604051908101604052809291908181526020018280546104ae906114e2565b80156104fb5780601f106104d0576101008083540402835291602001916104fb565b820191906000526020600020905b8154815290600101906020018083116104de57829003601f168201915b50505050509050935093509350935090919293565b6006805461051d906114e2565b80601f0160208091040260200160405190810160405280929190818152602001828054610549906114e2565b80156105965780601f1061056b57610100808354040283529160200191610596565b820191906000526020600020905b81548152906001019060200180831161057957829003601f168201915b505050505081565b60015461010090046001600160a01b031633146105d65760405162461bcd60e51b81526004016105cd9061151c565b60405180910390fd5b6001805460ff1660048111156105ee576105ee611257565b146106455760405162461bcd60e51b815260206004820152602160248201527f43616e6e6f74206f70656e2064697370757465206174207468697320737461676044820152606560f81b60648201526084016105cd565b6001805460ff199081166003178255600880549091168217905560048054918201815560005260408051808201909152601c81527f44697370757465206f70656e6564206279207468652062757965722e000000006020820152600080516020611726833981519152909101906106bc90826115a4565b50565b6009805461051d906114e2565b60015461010090046001600160a01b031633146106fb5760405162461bcd60e51b81526004016105cd9061151c565b6001805460ff16600481111561071357610713611257565b146107605760405162461bcd60e51b815260206004820152601760248201527f43616e6e6f7420636f6e6669726d2064656c697665727900000000000000000060448201526064016105cd565b6002546040516001600160a01b03909116904780156108fc02916000818181858888f19350505050158015610799573d6000803e3d6000fd5b506001805460ff1916600217815560048054918201815560005260408051808201909152601b81527f4974656d207265636965766564206279207468652062757965722e00000000006020820152600080516020611726833981519152909101906106bc90826115a4565b6004818154811061081457600080fd5b90600052602060002001600091509050805461051d906114e2565b60015461010090046001600160a01b0316331461085e5760405162461bcd60e51b81526004016105cd9061151c565b600360015460ff16600481111561087757610877611257565b146108945760405162461bcd60e51b81526004016105cd90611664565b600780546108a1906114e2565b1590506108f05760405162461bcd60e51b815260206004820181905260248201527f50726f6f6620616c7265616479207375626d697474656420627920627579657260448201526064016105cd565b6000600680546108ff906114e2565b90501161094e5760405162461bcd60e51b815260206004820152601e60248201527f53656c6c6572206d757374207375626d69742070726f6f66206669727374000060448201526064016105cd565b600761095a82826115a4565b5050565b6003546001600160a01b031633146109c45760405162461bcd60e51b8152602060048201526024808201527f4f6e6c792061726269747261746f722063616e2063616c6c2074686973206d656044820152631d1a1bd960e21b60648201526084016105cd565b600360015460ff1660048111156109dd576109dd611257565b146109fa5760405162461bcd60e51b81526004016105cd90611664565b8015610a8d576001546040516001600160a01b0361010090920491909116904780156108fc02916000818181858888f19350505050158015610a40573d6000803e3d6000fd5b506004805460018101825560009182526040805160608101909152602380825260008051602061172683398151915290920192916117036020830139610a879150826115a4565b50610b0f565b6002546040516001600160a01b03909116904780156108fc02916000818181858888f19350505050158015610ac6573d6000803e3d6000fd5b506004805460018101825560009182526040805160608101909152602480825260008051602061172683398151915290920192916116df6020830139610b0d9150826115a4565b505b506001805460ff19908116600417909155600880549091169055565b600060015460ff166004811115610b4457610b44611257565b14610bc55760405162461bcd60e51b8152602060048201526044602482018190527f43616e6e6f7420726566756e642e204974656d2068617320616c726561647920908201527f6265656e2073686970706564206f7220697320696e20616e6f7468657220737460648201526330ba329760e11b608482015260a4016105cd565b600054610bd49061038461168f565b4210610c225760405162461bcd60e51b815260206004820152601f60248201527f43616e63656c6c6174696f6e20706572696f6420686173207061737365642e0060448201526064016105cd565b6001546040516001600160a01b0361010090920491909116904780156108fc02916000818181858888f19350505050158015610c62573d6000803e3d6000fd5b506001805460ff191660049081178255805491820181556000908152604080516060810190915260298082526000805160206117268339815191529093019261174660208301396106bc9150826115a4565b6002546001600160a01b03163314610d0e5760405162461bcd60e51b815260206004820181905260248201527f4f6e6c792073656c6c65722063616e2063616c6c2074686973206d6574686f6460448201526064016105cd565b600360015460ff166004811115610d2757610d27611257565b14610d445760405162461bcd60e51b81526004016105cd90611664565b60068054610d51906114e2565b159050610daa5760405162461bcd60e51b815260206004820152602160248201527f50726f6f6620616c7265616479207375626d69747465642062792073656c6c656044820152603960f91b60648201526084016105cd565b600661095a82826115a4565b600060015460ff166004811115610dcf57610dcf611257565b14610e1c5760405162461bcd60e51b815260206004820152601e60248201527f43616e6e6f7420736869702e20496e636f7272656374207374617475732e000060448201526064016105cd565b600054610e2b9061038461168f565b421015610ea05760405162461bcd60e51b815260206004820152603d60248201527f43616e6e6f742073686970206265666f7265203135206d696e7574652063616e60448201527f63656c6c6174696f6e20706572696f642068617320656c61707365642e00000060648201526084016105cd565b6001805460ff1916811790556009610eb882826115a4565b506004805460018101825560009190915260408051808201909152601881527f4974656d2073656e74206279207468652073656c6c65722e0000000000000000602082015260008051602061172683398151915290910190610f1a90826115a4565b506106bc6040518060400160405280601881526020017f547261636b696e67206e756d626572207365743a20257320000000000000000081525060098054610f61906114e2565b80601f0160208091040260200160405190810160405280929190818152602001828054610f8d906114e2565b8015610fda5780601f10610faf57610100808354040283529160200191610fda565b820191906000526020600020905b815481529060010190602001808311610fbd57829003601f168201915b50505050506111f2565b6007805461051d906114e2565b606080606060046006600782805480602002602001604051908101604052809291908181526020016000905b828210156110c957838290600052602060002001805461103c906114e2565b80601f0160208091040260200160405190810160405280929190818152602001828054611068906114e2565b80156110b55780601f1061108a576101008083540402835291602001916110b5565b820191906000526020600020905b81548152906001019060200180831161109857829003601f168201915b50505050508152602001906001019061101d565b5050505092508180546110db906114e2565b80601f0160208091040260200160405190810160405280929190818152602001828054611107906114e2565b80156111545780601f1061112957610100808354040283529160200191611154565b820191906000526020600020905b81548152906001019060200180831161113757829003601f168201915b50505050509150808054611167906114e2565b80601f0160208091040260200160405190810160405280929190818152602001828054611193906114e2565b80156111e05780601f106111b5576101008083540402835291602001916111e0565b820191906000526020600020905b8154815290600101906020018083116111c357829003601f168201915b50505050509050925092509250909192565b61095a82826040516024016112089291906116b0565b60408051601f198184030181529190526020810180516001600160e01b0316634b5c427760e01b1790526106bc8160006a636f6e736f6c652e6c6f679050600080835160208501845afa505050565b634e487b7160e01b600052602160045260246000fd5b6005811061128b57634e487b7160e01b600052602160045260246000fd5b9052565b6000815180845260005b818110156112b557602081850181015186830182015201611299565b506000602082860101526020601f19601f83011685010191505092915050565b6112df818661126d565b6080602082015260006112f5608083018661128f565b8281036040840152611307818661128f565b9050828103606084015261131b818561128f565b979650505050505050565b602081526000611339602083018461128f565b9392505050565b60006020828403121561135257600080fd5b5035919050565b634e487b7160e01b600052604160045260246000fd5b60006020828403121561138157600080fd5b813567ffffffffffffffff8082111561139957600080fd5b818401915084601f8301126113ad57600080fd5b8135818111156113bf576113bf611359565b604051601f8201601f19908116603f011681019083821181831017156113e7576113e7611359565b8160405282815287602084870101111561140057600080fd5b826020860160208301376000928101602001929092525095945050505050565b60006020828403121561143257600080fd5b8135801515811461133957600080fd5b60208101611450828461126d565b92915050565b6000606082016060835280865180835260808501915060808160051b8601019250602080890160005b838110156114ad57607f1988870301855261149b86835161128f565b9550938201939082019060010161147f565b505050505082810360208401526114c4818661128f565b905082810360408401526114d8818561128f565b9695505050505050565b600181811c908216806114f657607f821691505b60208210810361151657634e487b7160e01b600052602260045260246000fd5b50919050565b6020808252601f908201527f4f6e6c792062757965722063616e2063616c6c2074686973206d6574686f6400604082015260600190565b601f82111561159f576000816000526020600020601f850160051c8101602086101561157c5750805b601f850160051c820191505b8181101561159b57828155600101611588565b5050505b505050565b815167ffffffffffffffff8111156115be576115be611359565b6115d2816115cc84546114e2565b84611553565b602080601f83116001811461160757600084156115ef5750858301515b600019600386901b1c1916600185901b17855561159b565b600085815260208120601f198616915b8281101561163657888601518255948401946001909101908401611617565b50858210156116545787850151600019600388901b60f8161c191681555b5050505050600190811b01905550565b6020808252601190820152704e6f20616374697665206469737075746560781b604082015260600190565b8082018082111561145057634e487b7160e01b600052601160045260246000fd5b6040815260006116c3604083018561128f565b82810360208401526116d5818561128f565b9594505050505056fe4469737075746520636c6f7365642e2053656c6c65722077617320726566756e6465642e4469737075746520636c6f7365642e2042757965722077617320726566756e6465642e8a35acfbc15ff81a39ae7d344fd709f28e8600b4aa8c65c6b64bfe7fe36bd19b4974656d2063616e63656c6c656420616e6420726566756e64656420746f207468652062757965722ea264697066735822122042ef4e975e3725a72b0dd03a8a9a730fc2fa82ff058d5e91ca63f05b9c9f8b3a64736f6c63430008180033",
  "linkReferences": {},
  "deployedLinkReferences": {}
}