{
  "_format": "hh-sol-artifact-1",
  "contractName": "Escrow",
  "sourceName": "contracts/Escrow.sol",
  "abi": [
    {
      "inputs": [
        {
          "internalType": "address",
          "name": "_buyer",
          "type": "address"
        },
        {
          "internalType": "address payable",
          "name": "_seller",
          "type": "address"
        }
      ],
      "stateMutability": "payable",
      "type": "constructor"
    },
    {
      "inputs": [],
      "name": "boughtAt",
      "outputs": [
        {
          "internalType": "uint256",
          "name": "",
          "type": "uint256"
        }
      ],
      "stateMutability": "view",
      "type": "function"
    },
    {
      "inputs": [],
      "name": "buyer",
      "outputs": [
        {
          "internalType": "address",
          "name": "",
          "type": "address"
        }
      ],
      "stateMutability": "view",
      "type": "function"
    },
    {
      "inputs": [],
      "name": "confirmDelivery",
      "outputs": [],
      "stateMutability": "nonpayable",
      "type": "function"
    },
    {
      "inputs": [],
      "name": "currState",
      "outputs": [
        {
          "internalType": "enum Escrow.State",
          "name": "",
          "type": "uint8"
        }
      ],
      "stateMutability": "view",
      "type": "function"
    },
    {
      "inputs": [
        {
          "internalType": "uint256",
          "name": "",
          "type": "uint256"
        }
      ],
      "name": "disputeHistory",
      "outputs": [
        {
          "internalType": "string",
          "name": "",
          "type": "string"
        }
      ],
      "stateMutability": "view",
      "type": "function"
    },
    {
      "inputs": [],
      "name": "getDisputeHistory",
      "outputs": [
        {
          "internalType": "string[]",
          "name": "",
          "type": "string[]"
        }
      ],
      "stateMutability": "view",
      "type": "function"
    },
    {
      "inputs": [],
      "name": "getState",
      "outputs": [
        {
          "internalType": "enum Escrow.State",
          "name": "",
          "type": "uint8"
        },
        {
          "internalType": "string",
          "name": "",
          "type": "string"
        }
      ],
      "stateMutability": "view",
      "type": "function"
    },
    {
      "inputs": [
        {
          "internalType": "string",
          "name": "proof",
          "type": "string"
        }
      ],
      "name": "openBuyerDispute",
      "outputs": [],
      "stateMutability": "nonpayable",
      "type": "function"
    },
    {
      "inputs": [],
      "name": "refundBuyerForCancelItem",
      "outputs": [],
      "stateMutability": "nonpayable",
      "type": "function"
    },
    {
      "inputs": [
        {
          "internalType": "bool",
          "name": "refundBuyer",
          "type": "bool"
        }
      ],
      "name": "resolveDispute",
      "outputs": [],
      "stateMutability": "nonpayable",
      "type": "function"
    },
    {
      "inputs": [],
      "name": "seller",
      "outputs": [
        {
          "internalType": "address payable",
          "name": "",
          "type": "address"
        }
      ],
      "stateMutability": "view",
      "type": "function"
    },
    {
      "inputs": [
        {
          "internalType": "string",
          "name": "tracking",
          "type": "string"
        }
      ],
      "name": "ship",
      "outputs": [],
      "stateMutability": "nonpayable",
      "type": "function"
    },
    {
      "inputs": [
        {
          "internalType": "string",
          "name": "proof",
          "type": "string"
        }
      ],
      "name": "submitBuyerProof",
      "outputs": [],
      "stateMutability": "nonpayable",
      "type": "function"
    },
    {
      "inputs": [
        {
          "internalType": "string",
          "name": "proof",
          "type": "string"
        }
      ],
      "name": "submitSellerProof",
      "outputs": [],
      "stateMutability": "nonpayable",
      "type": "function"
    }
  ],
  "bytecode": "0x6080604052604051620025823803806200258283398181016040528101906200002991906200026f565b816001806101000a81548173ffffffffffffffffffffffffffffffffffffffff021916908373ffffffffffffffffffffffffffffffffffffffff16021790555080600260006101000a81548173ffffffffffffffffffffffffffffffffffffffff021916908373ffffffffffffffffffffffffffffffffffffffff160217905550736a7d3230514ee0e8078f23cf65b367d9984b055a600360006101000a81548173ffffffffffffffffffffffffffffffffffffffff021916908373ffffffffffffffffffffffffffffffffffffffff1602179055506000600160006101000a81548160ff02191690836004811115620001285762000127620002b6565b5b02179055506000600560006101000a81548160ff02191690831515021790555042600081905550600480600181540180825580915050600190039060005260206000200160006040518060400160405280600c81526020017f4974656d20626f756768742e000000000000000000000000000000000000000081525090919091509081620001b791906200055f565b50505062000646565b600080fd5b600073ffffffffffffffffffffffffffffffffffffffff82169050919050565b6000620001f282620001c5565b9050919050565b6200020481620001e5565b81146200021057600080fd5b50565b6000815190506200022481620001f9565b92915050565b60006200023782620001c5565b9050919050565b62000249816200022a565b81146200025557600080fd5b50565b60008151905062000269816200023e565b92915050565b60008060408385031215620002895762000288620001c0565b5b6000620002998582860162000213565b9250506020620002ac8582860162000258565b9150509250929050565b7f4e487b7100000000000000000000000000000000000000000000000000000000600052602160045260246000fd5b600081519050919050565b7f4e487b7100000000000000000000000000000000000000000000000000000000600052604160045260246000fd5b7f4e487b7100000000000000000000000000000000000000000000000000000000600052602260045260246000fd5b600060028204905060018216806200036757607f821691505b6020821081036200037d576200037c6200031f565b5b50919050565b60008190508160005260206000209050919050565b60006020601f8301049050919050565b600082821b905092915050565b600060088302620003e77fffffffffffffffffffffffffffffffffffffffffffffffffffffffffffffffff82620003a8565b620003f38683620003a8565b95508019841693508086168417925050509392505050565b6000819050919050565b6000819050919050565b6000620004406200043a62000434846200040b565b62000415565b6200040b565b9050919050565b6000819050919050565b6200045c836200041f565b620004746200046b8262000447565b848454620003b5565b825550505050565b600090565b6200048b6200047c565b6200049881848462000451565b505050565b5b81811015620004c057620004b460008262000481565b6001810190506200049e565b5050565b601f8211156200050f57620004d98162000383565b620004e48462000398565b81016020851015620004f4578190505b6200050c620005038562000398565b8301826200049d565b50505b505050565b600082821c905092915050565b6000620005346000198460080262000514565b1980831691505092915050565b60006200054f838362000521565b9150826002028217905092915050565b6200056a82620002e5565b67ffffffffffffffff811115620005865762000585620002f0565b5b6200059282546200034e565b6200059f828285620004c4565b600060209050601f831160018114620005d75760008415620005c2578287015190505b620005ce858262000541565b8655506200063e565b601f198416620005e78662000383565b60005b828110156200061157848901518255600182019150602085019450602081019050620005ea565b868310156200063157848901516200062d601f89168262000521565b8355505b6001600288020188555050505b505050505050565b611f2c80620006566000396000f3fe608060405234801561001057600080fd5b50600436106100ea5760003560e01c80638285074b1161008c578063be6cb83811610066578063be6cb83814610214578063c00ccd541461021e578063dd3fa1361461023a578063eaaf0b6314610256576100ea565b80638285074b146101be57806389e1e82a146101da578063afe01043146101f6576100ea565b80635e10177b116100c85780635e10177b1461014a57806364e6aa52146101545780637150d8ae146101845780637388a1ed146101a2576100ea565b806308551a53146100ef5780631865c57d1461010d5780635b0222bb1461012c575b600080fd5b6100f7610274565b60405161010491906111aa565b60405180910390f35b61011561029a565b6040516101239291906112cc565b60405180910390f35b610134610344565b6040516101419190611315565b60405180910390f35b61015261034a565b005b61016e60048036038101906101699190611370565b61054b565b60405161017b919061139d565b60405180910390f35b61018c6105f7565b60405161019991906113e0565b60405180910390f35b6101bc60048036038101906101b79190611530565b61061b565b005b6101d860048036038101906101d39190611530565b6107c4565b005b6101f460048036038101906101ef91906115b1565b610925565b005b6101fe610c03565b60405161020b91906115de565b60405180910390f35b61021c610c16565b005b61023860048036038101906102339190611530565b610cf5565b005b610254600480360381019061024f9190611530565b610ee6565b005b61025e611090565b60405161026b9190611705565b60405180910390f35b600260009054906101000a900473ffffffffffffffffffffffffffffffffffffffff1681565b60006060600160009054906101000a900460ff1660088080546102bc90611756565b80601f01602080910402602001604051908101604052809291908181526020018280546102e890611756565b80156103355780601f1061030a57610100808354040283529160200191610335565b820191906000526020600020905b81548152906001019060200180831161031857829003601f168201915b50505050509050915091509091565b60005481565b60018054906101000a900473ffffffffffffffffffffffffffffffffffffffff1673ffffffffffffffffffffffffffffffffffffffff163373ffffffffffffffffffffffffffffffffffffffff16146103d8576040517f08c379a00000000000000000000000000000000000000000000000000000000081526004016103cf906117d3565b60405180910390fd5b600160048111156103ec576103eb6111c5565b5b600160009054906101000a900460ff16600481111561040e5761040d6111c5565b5b1461044e576040517f08c379a00000000000000000000000000000000000000000000000000000000081526004016104459061183f565b60405180910390fd5b600260009054906101000a900473ffffffffffffffffffffffffffffffffffffffff1673ffffffffffffffffffffffffffffffffffffffff166108fc479081150290604051600060405180830381858888f193505050501580156104b6573d6000803e3d6000fd5b506002600160006101000a81548160ff021916908360048111156104dd576104dc6111c5565b5b0217905550600480600181540180825580915050600190039060005260206000200160006040518060400160405280601b81526020017f4974656d207265636965766564206279207468652062757965722e0000000000815250909190915090816105489190611a0b565b50565b6004818154811061055b57600080fd5b90600052602060002001600091509050805461057690611756565b80601f01602080910402602001604051908101604052809291908181526020018280546105a290611756565b80156105ef5780601f106105c4576101008083540402835291602001916105ef565b820191906000526020600020905b8154815290600101906020018083116105d257829003601f168201915b505050505081565b60018054906101000a900473ffffffffffffffffffffffffffffffffffffffff1681565b60018054906101000a900473ffffffffffffffffffffffffffffffffffffffff1673ffffffffffffffffffffffffffffffffffffffff163373ffffffffffffffffffffffffffffffffffffffff16146106a9576040517f08c379a00000000000000000000000000000000000000000000000000000000081526004016106a0906117d3565b60405180910390fd5b600160048111156106bd576106bc6111c5565b5b600160009054906101000a900460ff1660048111156106df576106de6111c5565b5b1461071f576040517f08c379a000000000000000000000000000000000000000000000000000000000815260040161071690611b4f565b60405180910390fd5b6003600160006101000a81548160ff02191690836004811115610745576107446111c5565b5b021790555080600790816107599190611a0b565b50600480600181540180825580915050600190039060005260206000200160006040518060400160405280601881526020017f44697370757465206f70656e65642062792062757965722e0000000000000000815250909190915090816107c09190611a0b565b5050565b60018054906101000a900473ffffffffffffffffffffffffffffffffffffffff1673ffffffffffffffffffffffffffffffffffffffff163373ffffffffffffffffffffffffffffffffffffffff1614610852576040517f08c379a0000000000000000000000000000000000000000000000000000000008152600401610849906117d3565b60405180910390fd5b60036004811115610866576108656111c5565b5b600160009054906101000a900460ff166004811115610888576108876111c5565b5b146108c8576040517f08c379a00000000000000000000000000000000000000000000000000000000081526004016108bf90611be1565b60405180910390fd5b80600790816108d79190611a0b565b5060048060018154018082558091505060019003906000526020600020016000604051806060016040528060218152602001611ed660219139909190915090816109219190611a0b565b5050565b600360009054906101000a900473ffffffffffffffffffffffffffffffffffffffff1673ffffffffffffffffffffffffffffffffffffffff163373ffffffffffffffffffffffffffffffffffffffff16146109b5576040517f08c379a00000000000000000000000000000000000000000000000000000000081526004016109ac90611c73565b60405180910390fd5b600360048111156109c9576109c86111c5565b5b600160009054906101000a900460ff1660048111156109eb576109ea6111c5565b5b14610a2b576040517f08c379a0000000000000000000000000000000000000000000000000000000008152600401610a2290611cdf565b60405180910390fd5b8015610b0457600480600181540180825580915050600190039060005260206000200160006040518060400160405280601381526020017f42757965722077617320726566756e6465642e0000000000000000000000000081525090919091509081610a979190611a0b565b5060018054906101000a900473ffffffffffffffffffffffffffffffffffffffff1673ffffffffffffffffffffffffffffffffffffffff166108fc479081150290604051600060405180830381858888f19350505050158015610afe573d6000803e3d6000fd5b50610bd5565b600480600181540180825580915050600190039060005260206000200160006040518060400160405280601481526020017f53656c6c65722077617320726566756e6465642e00000000000000000000000081525090919091509081610b6a9190611a0b565b50600260009054906101000a900473ffffffffffffffffffffffffffffffffffffffff1673ffffffffffffffffffffffffffffffffffffffff166108fc479081150290604051600060405180830381858888f19350505050158015610bd3573d6000803e3d6000fd5b505b6004600160006101000a81548160ff02191690836004811115610bfb57610bfa6111c5565b5b021790555050565b600160009054906101000a900460ff1681565b60006004811115610c2a57610c296111c5565b5b600160009054906101000a900460ff166004811115610c4c57610c4b6111c5565b5b14610c8c576040517f08c379a0000000000000000000000000000000000000000000000000000000008152600401610c8390611d4b565b60405180910390fd5b60018054906101000a900473ffffffffffffffffffffffffffffffffffffffff1673ffffffffffffffffffffffffffffffffffffffff166108fc479081150290604051600060405180830381858888f19350505050158015610cf2573d6000803e3d6000fd5b50565b600260009054906101000a900473ffffffffffffffffffffffffffffffffffffffff1673ffffffffffffffffffffffffffffffffffffffff163373ffffffffffffffffffffffffffffffffffffffff1614610d85576040517f08c379a0000000000000000000000000000000000000000000000000000000008152600401610d7c90611db7565b60405180910390fd5b60036004811115610d9957610d986111c5565b5b600160009054906101000a900460ff166004811115610dbb57610dba6111c5565b5b14610dfb576040517f08c379a0000000000000000000000000000000000000000000000000000000008152600401610df290611be1565b60405180910390fd5b60001515600560009054906101000a900460ff16151514610e51576040517f08c379a0000000000000000000000000000000000000000000000000000000008152600401610e4890611e49565b60405180910390fd5b6001600560006101000a81548160ff0219169083151502179055508060069081610e7b9190611a0b565b50600480600181540180825580915050600190039060005260206000200160006040518060400160405280601781526020017f53656c6c6572207375626d69747465642070726f6f662e00000000000000000081525090919091509081610ee29190611a0b565b5050565b600260009054906101000a900473ffffffffffffffffffffffffffffffffffffffff1673ffffffffffffffffffffffffffffffffffffffff163373ffffffffffffffffffffffffffffffffffffffff1614610f76576040517f08c379a0000000000000000000000000000000000000000000000000000000008152600401610f6d90611db7565b60405180910390fd5b60006004811115610f8a57610f896111c5565b5b600160009054906101000a900460ff166004811115610fac57610fab6111c5565b5b14610fec576040517f08c379a0000000000000000000000000000000000000000000000000000000008152600401610fe390611eb5565b60405180910390fd5b60018060006101000a81548160ff02191690836004811115611011576110106111c5565b5b021790555080600890816110259190611a0b565b50600480600181540180825580915050600190039060005260206000200160006040518060400160405280601881526020017f4974656d2073656e74206279207468652073656c6c65722e00000000000000008152509091909150908161108c9190611a0b565b5050565b60606004805480602002602001604051908101604052809291908181526020016000905b828210156111605783829060005260206000200180546110d390611756565b80601f01602080910402602001604051908101604052809291908181526020018280546110ff90611756565b801561114c5780601f106111215761010080835404028352916020019161114c565b820191906000526020600020905b81548152906001019060200180831161112f57829003601f168201915b5050505050815260200190600101906110b4565b50505050905090565b600073ffffffffffffffffffffffffffffffffffffffff82169050919050565b600061119482611169565b9050919050565b6111a481611189565b82525050565b60006020820190506111bf600083018461119b565b92915050565b7f4e487b7100000000000000000000000000000000000000000000000000000000600052602160045260246000fd5b60058110611205576112046111c5565b5b50565b6000819050611216826111f4565b919050565b600061122682611208565b9050919050565b6112368161121b565b82525050565b600081519050919050565b600082825260208201905092915050565b60005b8381101561127657808201518184015260208101905061125b565b60008484015250505050565b6000601f19601f8301169050919050565b600061129e8261123c565b6112a88185611247565b93506112b8818560208601611258565b6112c181611282565b840191505092915050565b60006040820190506112e1600083018561122d565b81810360208301526112f38184611293565b90509392505050565b6000819050919050565b61130f816112fc565b82525050565b600060208201905061132a6000830184611306565b92915050565b6000604051905090565b600080fd5b600080fd5b61134d816112fc565b811461135857600080fd5b50565b60008135905061136a81611344565b92915050565b6000602082840312156113865761138561133a565b5b60006113948482850161135b565b91505092915050565b600060208201905081810360008301526113b78184611293565b905092915050565b60006113ca82611169565b9050919050565b6113da816113bf565b82525050565b60006020820190506113f560008301846113d1565b92915050565b600080fd5b600080fd5b7f4e487b7100000000000000000000000000000000000000000000000000000000600052604160045260246000fd5b61143d82611282565b810181811067ffffffffffffffff8211171561145c5761145b611405565b5b80604052505050565b600061146f611330565b905061147b8282611434565b919050565b600067ffffffffffffffff82111561149b5761149a611405565b5b6114a482611282565b9050602081019050919050565b82818337600083830152505050565b60006114d36114ce84611480565b611465565b9050828152602081018484840111156114ef576114ee611400565b5b6114fa8482856114b1565b509392505050565b600082601f830112611517576115166113fb565b5b81356115278482602086016114c0565b91505092915050565b6000602082840312156115465761154561133a565b5b600082013567ffffffffffffffff8111156115645761156361133f565b5b61157084828501611502565b91505092915050565b60008115159050919050565b61158e81611579565b811461159957600080fd5b50565b6000813590506115ab81611585565b92915050565b6000602082840312156115c7576115c661133a565b5b60006115d58482850161159c565b91505092915050565b60006020820190506115f3600083018461122d565b92915050565b600081519050919050565b600082825260208201905092915050565b6000819050602082019050919050565b600082825260208201905092915050565b60006116418261123c565b61164b8185611625565b935061165b818560208601611258565b61166481611282565b840191505092915050565b600061167b8383611636565b905092915050565b6000602082019050919050565b600061169b826115f9565b6116a58185611604565b9350836020820285016116b785611615565b8060005b858110156116f357848403895281516116d4858261166f565b94506116df83611683565b925060208a019950506001810190506116bb565b50829750879550505050505092915050565b6000602082019050818103600083015261171f8184611690565b905092915050565b7f4e487b7100000000000000000000000000000000000000000000000000000000600052602260045260246000fd5b6000600282049050600182168061176e57607f821691505b60208210810361178157611780611727565b5b50919050565b7f4f6e6c792062757965722063616e2063616c6c2074686973206d6574686f6400600082015250565b60006117bd601f83611247565b91506117c882611787565b602082019050919050565b600060208201905081810360008301526117ec816117b0565b9050919050565b7f43616e6e6f7420636f6e6669726d2064656c6976657279000000000000000000600082015250565b6000611829601783611247565b9150611834826117f3565b602082019050919050565b600060208201905081810360008301526118588161181c565b9050919050565b60008190508160005260206000209050919050565b60006020601f8301049050919050565b600082821b905092915050565b6000600883026118c17fffffffffffffffffffffffffffffffffffffffffffffffffffffffffffffffff82611884565b6118cb8683611884565b95508019841693508086168417925050509392505050565b6000819050919050565b60006119086119036118fe846112fc565b6118e3565b6112fc565b9050919050565b6000819050919050565b611922836118ed565b61193661192e8261190f565b848454611891565b825550505050565b600090565b61194b61193e565b611956818484611919565b505050565b5b8181101561197a5761196f600082611943565b60018101905061195c565b5050565b601f8211156119bf576119908161185f565b61199984611874565b810160208510156119a8578190505b6119bc6119b485611874565b83018261195b565b50505b505050565b600082821c905092915050565b60006119e2600019846008026119c4565b1980831691505092915050565b60006119fb83836119d1565b9150826002028217905092915050565b611a148261123c565b67ffffffffffffffff811115611a2d57611a2c611405565b5b611a378254611756565b611a4282828561197e565b600060209050601f831160018114611a755760008415611a63578287015190505b611a6d85826119ef565b865550611ad5565b601f198416611a838661185f565b60005b82811015611aab57848901518255600182019150602085019450602081019050611a86565b86831015611ac85784890151611ac4601f8916826119d1565b8355505b6001600288020188555050505b505050505050565b7f43616e6e6f74206f70656e20646973707574652061742074686973207374616760008201527f6500000000000000000000000000000000000000000000000000000000000000602082015250565b6000611b39602183611247565b9150611b4482611add565b604082019050919050565b60006020820190508181036000830152611b6881611b2c565b9050919050565b7f43616e6e6f74207375626d69742070726f6f6620776974686f757420616e206160008201527f637469766520646973707574652e000000000000000000000000000000000000602082015250565b6000611bcb602e83611247565b9150611bd682611b6f565b604082019050919050565b60006020820190508181036000830152611bfa81611bbe565b9050919050565b7f4f6e6c792061726269747261746f722063616e2063616c6c2074686973206d6560008201527f74686f6400000000000000000000000000000000000000000000000000000000602082015250565b6000611c5d602483611247565b9150611c6882611c01565b604082019050919050565b60006020820190508181036000830152611c8c81611c50565b9050919050565b7f4e6f206163746976652064697370757465000000000000000000000000000000600082015250565b6000611cc9601183611247565b9150611cd482611c93565b602082019050919050565b60006020820190508181036000830152611cf881611cbc565b9050919050565b7f4974656d20616c72656164792064656c6976657265642e000000000000000000600082015250565b6000611d35601783611247565b9150611d4082611cff565b602082019050919050565b60006020820190508181036000830152611d6481611d28565b9050919050565b7f4f6e6c792073656c6c65722063616e2063616c6c2074686973206d6574686f64600082015250565b6000611da1602083611247565b9150611dac82611d6b565b602082019050919050565b60006020820190508181036000830152611dd081611d94565b9050919050565b7f596f7527766520616c7265616479207375626d697474656420612070726f6f6660008201527f2e00000000000000000000000000000000000000000000000000000000000000602082015250565b6000611e33602183611247565b9150611e3e82611dd7565b604082019050919050565b60006020820190508181036000830152611e6281611e26565b9050919050565b7f43616e6e6f7420736869702e20496e636f7272656374207374617475732e0000600082015250565b6000611e9f601e83611247565b9150611eaa82611e69565b602082019050919050565b60006020820190508181036000830152611ece81611e92565b905091905056fe4275796572207375626d6974746564206164646974696f6e616c2070726f6f662ea2646970667358221220207b65559f4b74040ef5c936da212629e25ce76d975376c0b457a9b4c981f8d564736f6c63430008180033",
  "linkReferences": {},
  "deployedLinkReferences": {}
}