{
  "_format": "hh-sol-artifact-1",
  "contractName": "Escrow",
  "sourceName": "contracts/Escrow.sol",
  "abi": [
    {
      "inputs": [
        {
          "internalType": "address",
          "name": "_buyer",
          "type": "address"
        },
        {
          "internalType": "address payable",
          "name": "_seller",
          "type": "address"
        }
      ],
      "stateMutability": "payable",
      "type": "constructor"
    },
    {
      "inputs": [],
      "name": "buyer",
      "outputs": [
        {
          "internalType": "address",
          "name": "",
          "type": "address"
        }
      ],
      "stateMutability": "view",
      "type": "function"
    },
    {
      "inputs": [],
      "name": "confirmDelivery",
      "outputs": [],
      "stateMutability": "nonpayable",
      "type": "function"
    },
    {
      "inputs": [],
      "name": "currState",
      "outputs": [
        {
          "internalType": "enum Escrow.State",
          "name": "",
          "type": "uint8"
        }
      ],
      "stateMutability": "view",
      "type": "function"
    },
    {
      "inputs": [],
      "name": "deposit",
      "outputs": [],
      "stateMutability": "payable",
      "type": "function"
    },
    {
      "inputs": [
        {
          "internalType": "uint256",
          "name": "",
          "type": "uint256"
        }
      ],
      "name": "disputeHistory",
      "outputs": [
        {
          "internalType": "string",
          "name": "",
          "type": "string"
        }
      ],
      "stateMutability": "view",
      "type": "function"
    },
    {
      "inputs": [],
      "name": "getDisputeHistory",
      "outputs": [
        {
          "internalType": "string[]",
          "name": "",
          "type": "string[]"
        }
      ],
      "stateMutability": "view",
      "type": "function"
    },
    {
      "inputs": [
        {
          "internalType": "string",
          "name": "proof",
          "type": "string"
        }
      ],
      "name": "openDispute",
      "outputs": [],
      "stateMutability": "nonpayable",
      "type": "function"
    },
    {
      "inputs": [
        {
          "internalType": "bool",
          "name": "refundBuyer",
          "type": "bool"
        },
        {
          "internalType": "string",
          "name": "resolutionAction",
          "type": "string"
        }
      ],
      "name": "resolveDispute",
      "outputs": [],
      "stateMutability": "nonpayable",
      "type": "function"
    },
    {
      "inputs": [],
      "name": "seller",
      "outputs": [
        {
          "internalType": "address payable",
          "name": "",
          "type": "address"
        }
      ],
      "stateMutability": "view",
      "type": "function"
    },
    {
      "inputs": [
        {
          "internalType": "string",
          "name": "proof",
          "type": "string"
        }
      ],
      "name": "submitSellerProof",
      "outputs": [],
      "stateMutability": "nonpayable",
      "type": "function"
    }
  ],
  "bytecode": "0x6080604052604051620019f3380380620019f38339818101604052810190620000299190620001e4565b81600060016101000a81548173ffffffffffffffffffffffffffffffffffffffff021916908373ffffffffffffffffffffffffffffffffffffffff16021790555080600160006101000a81548173ffffffffffffffffffffffffffffffffffffffff021916908373ffffffffffffffffffffffffffffffffffffffff160217905550736a7d3230514ee0e8078f23cf65b367d9984b055a600260006101000a81548173ffffffffffffffffffffffffffffffffffffffff021916908373ffffffffffffffffffffffffffffffffffffffff16021790555060008060006101000a81548160ff021916908360038111156200012857620001276200022b565b5b021790555050506200025a565b600080fd5b600073ffffffffffffffffffffffffffffffffffffffff82169050919050565b600062000167826200013a565b9050919050565b62000179816200015a565b81146200018557600080fd5b50565b60008151905062000199816200016e565b92915050565b6000620001ac826200013a565b9050919050565b620001be816200019f565b8114620001ca57600080fd5b50565b600081519050620001de81620001b3565b92915050565b60008060408385031215620001fe57620001fd62000135565b5b60006200020e8582860162000188565b92505060206200022185828601620001cd565b9150509250929050565b7f4e487b7100000000000000000000000000000000000000000000000000000000600052602160045260246000fd5b611789806200026a6000396000f3fe6080604052600436106100915760003560e01c806393dd201d1161005957806393dd201d14610169578063afe0104314610192578063c00ccd54146101bd578063d0e30db0146101e6578063eaaf0b63146101f057610091565b806308551a5314610096578063595210ad146100c15780635e10177b146100ea57806364e6aa52146101015780637150d8ae1461013e575b600080fd5b3480156100a257600080fd5b506100ab61021b565b6040516100b89190610be3565b60405180910390f35b3480156100cd57600080fd5b506100e860048036038101906100e39190610d58565b610241565b005b3480156100f657600080fd5b506100ff6103a7565b005b34801561010d57600080fd5b5061012860048036038101906101239190610dd7565b610540565b6040516101359190610e83565b60405180910390f35b34801561014a57600080fd5b506101536105ec565b6040516101609190610ec6565b60405180910390f35b34801561017557600080fd5b50610190600480360381019061018b9190610f19565b610612565b005b34801561019e57600080fd5b506101a7610856565b6040516101b49190610fec565b60405180910390f35b3480156101c957600080fd5b506101e460048036038101906101df9190610d58565b610867565b005b6101ee610999565b005b3480156101fc57600080fd5b50610205610ac9565b6040516102129190611113565b60405180910390f35b600160009054906101000a900473ffffffffffffffffffffffffffffffffffffffff1681565b600060019054906101000a900473ffffffffffffffffffffffffffffffffffffffff1673ffffffffffffffffffffffffffffffffffffffff163373ffffffffffffffffffffffffffffffffffffffff16146102d1576040517f08c379a00000000000000000000000000000000000000000000000000000000081526004016102c890611181565b60405180910390fd5b600160038111156102e5576102e4610f75565b5b60008054906101000a900460ff16600381111561030557610304610f75565b5b14610345576040517f08c379a000000000000000000000000000000000000000000000000000000000815260040161033c90611213565b60405180910390fd5b60036000806101000a81548160ff0219169083600381111561036a57610369610f75565b5b02179055506003819080600181540180825580915050600190039060005260206000200160009091909190915090816103a3919061143f565b5050565b600060019054906101000a900473ffffffffffffffffffffffffffffffffffffffff1673ffffffffffffffffffffffffffffffffffffffff163373ffffffffffffffffffffffffffffffffffffffff1614610437576040517f08c379a000000000000000000000000000000000000000000000000000000000815260040161042e90611181565b60405180910390fd5b6001600381111561044b5761044a610f75565b5b60008054906101000a900460ff16600381111561046b5761046a610f75565b5b146104ab576040517f08c379a00000000000000000000000000000000000000000000000000000000081526004016104a29061155d565b60405180910390fd5b600160009054906101000a900473ffffffffffffffffffffffffffffffffffffffff1673ffffffffffffffffffffffffffffffffffffffff166108fc479081150290604051600060405180830381858888f19350505050158015610513573d6000803e3d6000fd5b5060026000806101000a81548160ff0219169083600381111561053957610538610f75565b5b0217905550565b6003818154811061055057600080fd5b90600052602060002001600091509050805461056b90611262565b80601f016020809104026020016040519081016040528092919081815260200182805461059790611262565b80156105e45780601f106105b9576101008083540402835291602001916105e4565b820191906000526020600020905b8154815290600101906020018083116105c757829003601f168201915b505050505081565b600060019054906101000a900473ffffffffffffffffffffffffffffffffffffffff1681565b600260009054906101000a900473ffffffffffffffffffffffffffffffffffffffff1673ffffffffffffffffffffffffffffffffffffffff163373ffffffffffffffffffffffffffffffffffffffff16146106a2576040517f08c379a0000000000000000000000000000000000000000000000000000000008152600401610699906115ef565b60405180910390fd5b6003808111156106b5576106b4610f75565b5b60008054906101000a900460ff1660038111156106d5576106d4610f75565b5b14610715576040517f08c379a000000000000000000000000000000000000000000000000000000000815260040161070c9061165b565b60405180910390fd5b811561078957600060019054906101000a900473ffffffffffffffffffffffffffffffffffffffff1673ffffffffffffffffffffffffffffffffffffffff166108fc479081150290604051600060405180830381858888f19350505050158015610783573d6000803e3d6000fd5b506107f3565b600160009054906101000a900473ffffffffffffffffffffffffffffffffffffffff1673ffffffffffffffffffffffffffffffffffffffff166108fc479081150290604051600060405180830381858888f193505050501580156107f1573d6000803e3d6000fd5b505b60026000806101000a81548160ff0219169083600381111561081857610817610f75565b5b0217905550600381908060018154018082558091505060019003906000526020600020016000909190919091509081610851919061143f565b505050565b60008054906101000a900460ff1681565b600160009054906101000a900473ffffffffffffffffffffffffffffffffffffffff1673ffffffffffffffffffffffffffffffffffffffff163373ffffffffffffffffffffffffffffffffffffffff16146108f7576040517f08c379a00000000000000000000000000000000000000000000000000000000081526004016108ee906116c7565b60405180910390fd5b6001600381111561090b5761090a610f75565b5b60008054906101000a900460ff16600381111561092b5761092a610f75565b5b1461096b576040517f08c379a000000000000000000000000000000000000000000000000000000000815260040161096290611213565b60405180910390fd5b6001600460006101000a81548160ff0219169083151502179055508060059081610995919061143f565b5050565b600060019054906101000a900473ffffffffffffffffffffffffffffffffffffffff1673ffffffffffffffffffffffffffffffffffffffff163373ffffffffffffffffffffffffffffffffffffffff1614610a29576040517f08c379a0000000000000000000000000000000000000000000000000000000008152600401610a2090611181565b60405180910390fd5b60006003811115610a3d57610a3c610f75565b5b60008054906101000a900460ff166003811115610a5d57610a5c610f75565b5b14610a9d576040517f08c379a0000000000000000000000000000000000000000000000000000000008152600401610a9490611733565b60405180910390fd5b60016000806101000a81548160ff02191690836003811115610ac257610ac1610f75565b5b0217905550565b60606003805480602002602001604051908101604052809291908181526020016000905b82821015610b99578382906000526020600020018054610b0c90611262565b80601f0160208091040260200160405190810160405280929190818152602001828054610b3890611262565b8015610b855780601f10610b5a57610100808354040283529160200191610b85565b820191906000526020600020905b815481529060010190602001808311610b6857829003601f168201915b505050505081526020019060010190610aed565b50505050905090565b600073ffffffffffffffffffffffffffffffffffffffff82169050919050565b6000610bcd82610ba2565b9050919050565b610bdd81610bc2565b82525050565b6000602082019050610bf86000830184610bd4565b92915050565b6000604051905090565b600080fd5b600080fd5b600080fd5b600080fd5b6000601f19601f8301169050919050565b7f4e487b7100000000000000000000000000000000000000000000000000000000600052604160045260246000fd5b610c6582610c1c565b810181811067ffffffffffffffff82111715610c8457610c83610c2d565b5b80604052505050565b6000610c97610bfe565b9050610ca38282610c5c565b919050565b600067ffffffffffffffff821115610cc357610cc2610c2d565b5b610ccc82610c1c565b9050602081019050919050565b82818337600083830152505050565b6000610cfb610cf684610ca8565b610c8d565b905082815260208101848484011115610d1757610d16610c17565b5b610d22848285610cd9565b509392505050565b600082601f830112610d3f57610d3e610c12565b5b8135610d4f848260208601610ce8565b91505092915050565b600060208284031215610d6e57610d6d610c08565b5b600082013567ffffffffffffffff811115610d8c57610d8b610c0d565b5b610d9884828501610d2a565b91505092915050565b6000819050919050565b610db481610da1565b8114610dbf57600080fd5b50565b600081359050610dd181610dab565b92915050565b600060208284031215610ded57610dec610c08565b5b6000610dfb84828501610dc2565b91505092915050565b600081519050919050565b600082825260208201905092915050565b60005b83811015610e3e578082015181840152602081019050610e23565b60008484015250505050565b6000610e5582610e04565b610e5f8185610e0f565b9350610e6f818560208601610e20565b610e7881610c1c565b840191505092915050565b60006020820190508181036000830152610e9d8184610e4a565b905092915050565b6000610eb082610ba2565b9050919050565b610ec081610ea5565b82525050565b6000602082019050610edb6000830184610eb7565b92915050565b60008115159050919050565b610ef681610ee1565b8114610f0157600080fd5b50565b600081359050610f1381610eed565b92915050565b60008060408385031215610f3057610f2f610c08565b5b6000610f3e85828601610f04565b925050602083013567ffffffffffffffff811115610f5f57610f5e610c0d565b5b610f6b85828601610d2a565b9150509250929050565b7f4e487b7100000000000000000000000000000000000000000000000000000000600052602160045260246000fd5b60048110610fb557610fb4610f75565b5b50565b6000819050610fc682610fa4565b919050565b6000610fd682610fb8565b9050919050565b610fe681610fcb565b82525050565b60006020820190506110016000830184610fdd565b92915050565b600081519050919050565b600082825260208201905092915050565b6000819050602082019050919050565b600082825260208201905092915050565b600061104f82610e04565b6110598185611033565b9350611069818560208601610e20565b61107281610c1c565b840191505092915050565b60006110898383611044565b905092915050565b6000602082019050919050565b60006110a982611007565b6110b38185611012565b9350836020820285016110c585611023565b8060005b8581101561110157848403895281516110e2858261107d565b94506110ed83611091565b925060208a019950506001810190506110c9565b50829750879550505050505092915050565b6000602082019050818103600083015261112d818461109e565b905092915050565b7f4f6e6c792062757965722063616e2063616c6c2074686973206d6574686f6400600082015250565b600061116b601f83610e0f565b915061117682611135565b602082019050919050565b6000602082019050818103600083015261119a8161115e565b9050919050565b7f43616e6e6f74206f70656e20646973707574652061742074686973207374616760008201527f6500000000000000000000000000000000000000000000000000000000000000602082015250565b60006111fd602183610e0f565b9150611208826111a1565b604082019050919050565b6000602082019050818103600083015261122c816111f0565b9050919050565b7f4e487b7100000000000000000000000000000000000000000000000000000000600052602260045260246000fd5b6000600282049050600182168061127a57607f821691505b60208210810361128d5761128c611233565b5b50919050565b60008190508160005260206000209050919050565b60006020601f8301049050919050565b600082821b905092915050565b6000600883026112f57fffffffffffffffffffffffffffffffffffffffffffffffffffffffffffffffff826112b8565b6112ff86836112b8565b95508019841693508086168417925050509392505050565b6000819050919050565b600061133c61133761133284610da1565b611317565b610da1565b9050919050565b6000819050919050565b61135683611321565b61136a61136282611343565b8484546112c5565b825550505050565b600090565b61137f611372565b61138a81848461134d565b505050565b5b818110156113ae576113a3600082611377565b600181019050611390565b5050565b601f8211156113f3576113c481611293565b6113cd846112a8565b810160208510156113dc578190505b6113f06113e8856112a8565b83018261138f565b50505b505050565b600082821c905092915050565b6000611416600019846008026113f8565b1980831691505092915050565b600061142f8383611405565b9150826002028217905092915050565b61144882610e04565b67ffffffffffffffff81111561146157611460610c2d565b5b61146b8254611262565b6114768282856113b2565b600060209050601f8311600181146114a95760008415611497578287015190505b6114a18582611423565b865550611509565b601f1984166114b786611293565b60005b828110156114df578489015182556001820191506020850194506020810190506114ba565b868310156114fc57848901516114f8601f891682611405565b8355505b6001600288020188555050505b505050505050565b7f43616e6e6f7420636f6e6669726d2064656c6976657279000000000000000000600082015250565b6000611547601783610e0f565b915061155282611511565b602082019050919050565b600060208201905081810360008301526115768161153a565b9050919050565b7f4f6e6c792061726269747261746f722063616e2063616c6c2074686973206d6560008201527f74686f6400000000000000000000000000000000000000000000000000000000602082015250565b60006115d9602483610e0f565b91506115e48261157d565b604082019050919050565b60006020820190508181036000830152611608816115cc565b9050919050565b7f4e6f206163746976652064697370757465000000000000000000000000000000600082015250565b6000611645601183610e0f565b91506116508261160f565b602082019050919050565b6000602082019050818103600083015261167481611638565b9050919050565b7f4f6e6c792073656c6c65722063616e2063616c6c2074686973206d6574686f64600082015250565b60006116b1602083610e0f565b91506116bc8261167b565b602082019050919050565b600060208201905081810360008301526116e0816116a4565b9050919050565b7f416c726561647920706169640000000000000000000000000000000000000000600082015250565b600061171d600c83610e0f565b9150611728826116e7565b602082019050919050565b6000602082019050818103600083015261174c81611710565b905091905056fea2646970667358221220258cbb34402ce20ec421de8b5e685ad36fe6fb14907d1ec9682849cd85dd668364736f6c63430008180033",
  "linkReferences": {},
  "deployedLinkReferences": {}
}